{
  "contractName": "AdminCon",
  "abi": [
    {
      "inputs": [
        {
          "internalType": "string",
          "name": "_name",
          "type": "string"
        },
        {
          "internalType": "string",
          "name": "_mobileNo",
          "type": "string"
        },
        {
          "internalType": "string",
          "name": "_walletKey",
          "type": "string"
        }
      ],
      "stateMutability": "nonpayable",
      "type": "constructor"
    },
    {
      "inputs": [
        {
          "internalType": "uint256",
          "name": "",
          "type": "uint256"
        }
      ],
      "name": "_candidates",
      "outputs": [
        {
          "internalType": "string",
          "name": "",
          "type": "string"
        }
      ],
      "stateMutability": "view",
      "type": "function"
    },
    {
      "inputs": [
        {
          "internalType": "uint256",
          "name": "",
          "type": "uint256"
        }
      ],
      "name": "_votes",
      "outputs": [
        {
          "internalType": "uint256",
          "name": "",
          "type": "uint256"
        }
      ],
      "stateMutability": "view",
      "type": "function"
    },
    {
      "inputs": [],
      "name": "a",
      "outputs": [
        {
          "internalType": "string",
          "name": "name",
          "type": "string"
        },
        {
          "internalType": "string",
          "name": "mobileNo",
          "type": "string"
        },
        {
          "internalType": "string",
          "name": "walletKey",
          "type": "string"
        }
      ],
      "stateMutability": "view",
      "type": "function"
    },
    {
      "inputs": [
        {
          "components": [
            {
              "internalType": "string",
              "name": "name",
              "type": "string"
            },
            {
              "internalType": "string",
              "name": "mobileNo",
              "type": "string"
            },
            {
              "internalType": "string",
              "name": "walletKey",
              "type": "string"
            }
          ],
          "internalType": "struct Admin",
          "name": "item",
          "type": "tuple"
        }
      ],
      "name": "addAdmin",
      "outputs": [],
      "stateMutability": "nonpayable",
      "type": "function"
    },
    {
      "inputs": [
        {
          "components": [
            {
              "internalType": "string",
              "name": "name",
              "type": "string"
            },
            {
              "internalType": "string",
              "name": "mobileNo",
              "type": "string"
            },
            {
              "internalType": "string",
              "name": "homeAddress",
              "type": "string"
            },
            {
              "internalType": "string",
              "name": "aadharCardNo",
              "type": "string"
            },
            {
              "internalType": "string",
              "name": "voterId",
              "type": "string"
            },
            {
              "internalType": "string",
              "name": "walletKey",
              "type": "string"
            },
            {
              "internalType": "string",
              "name": "politicalParty",
              "type": "string"
            },
            {
              "internalType": "uint256",
              "name": "votes",
              "type": "uint256"
            }
          ],
          "internalType": "struct Candidate",
          "name": "item",
          "type": "tuple"
        }
      ],
      "name": "addCandidate",
      "outputs": [],
      "stateMutability": "nonpayable",
      "type": "function"
    },
    {
      "inputs": [
        {
          "internalType": "string",
          "name": "walletKey",
          "type": "string"
        },
        {
          "components": [
            {
              "internalType": "string",
              "name": "name",
              "type": "string"
            },
            {
              "internalType": "string",
              "name": "mobileNo",
              "type": "string"
            },
            {
              "internalType": "string",
              "name": "walletKey",
              "type": "string"
            }
          ],
          "internalType": "struct Admin",
          "name": "a",
          "type": "tuple"
        }
      ],
      "name": "addToAdminsMap",
      "outputs": [],
      "stateMutability": "nonpayable",
      "type": "function"
    },
    {
      "inputs": [
        {
          "internalType": "string",
          "name": "walletKey",
          "type": "string"
        },
        {
          "components": [
            {
              "internalType": "string",
              "name": "name",
              "type": "string"
            },
            {
              "internalType": "string",
              "name": "mobileNo",
              "type": "string"
            },
            {
              "internalType": "string",
              "name": "homeAddress",
              "type": "string"
            },
            {
              "internalType": "string",
              "name": "aadharCardNo",
              "type": "string"
            },
            {
              "internalType": "string",
              "name": "voterId",
              "type": "string"
            },
            {
              "internalType": "string",
              "name": "walletKey",
              "type": "string"
            },
            {
              "internalType": "string",
              "name": "politicalParty",
              "type": "string"
            },
            {
              "internalType": "uint256",
              "name": "votes",
              "type": "uint256"
            }
          ],
          "internalType": "struct Candidate",
          "name": "c",
          "type": "tuple"
        }
      ],
      "name": "addToCandidatesMap",
      "outputs": [],
      "stateMutability": "nonpayable",
      "type": "function"
    },
    {
      "inputs": [
        {
          "components": [
            {
              "internalType": "string",
              "name": "name",
              "type": "string"
            },
            {
              "internalType": "string",
              "name": "mobileNo",
              "type": "string"
            },
            {
              "internalType": "string",
              "name": "homeAddress",
              "type": "string"
            },
            {
              "internalType": "string",
              "name": "aadharCardNo",
              "type": "string"
            },
            {
              "internalType": "string",
              "name": "voterId",
              "type": "string"
            },
            {
              "internalType": "string",
              "name": "walletKey",
              "type": "string"
            },
            {
              "internalType": "bool",
              "name": "isVoted",
              "type": "bool"
            }
          ],
          "internalType": "struct Voter",
          "name": "item",
          "type": "tuple"
        }
      ],
      "name": "addVoter",
      "outputs": [
        {
          "internalType": "string",
          "name": "",
          "type": "string"
        }
      ],
      "stateMutability": "nonpayable",
      "type": "function"
    },
    {
      "inputs": [],
      "name": "adminLength",
      "outputs": [
        {
          "internalType": "uint256",
          "name": "",
          "type": "uint256"
        }
      ],
      "stateMutability": "view",
      "type": "function"
    },
    {
      "inputs": [
        {
          "internalType": "uint256",
          "name": "",
          "type": "uint256"
        }
      ],
      "name": "admins",
      "outputs": [
        {
          "internalType": "string",
          "name": "name",
          "type": "string"
        },
        {
          "internalType": "string",
          "name": "mobileNo",
          "type": "string"
        },
        {
          "internalType": "string",
          "name": "walletKey",
          "type": "string"
        }
      ],
      "stateMutability": "view",
      "type": "function"
    },
    {
      "inputs": [
        {
          "internalType": "string",
          "name": "",
          "type": "string"
        }
      ],
      "name": "adminsMap",
      "outputs": [
        {
          "internalType": "string",
          "name": "name",
          "type": "string"
        },
        {
          "internalType": "string",
          "name": "mobileNo",
          "type": "string"
        },
        {
          "internalType": "string",
          "name": "walletKey",
          "type": "string"
        }
      ],
      "stateMutability": "view",
      "type": "function"
    },
    {
      "inputs": [
        {
          "internalType": "string",
          "name": "s1",
          "type": "string"
        },
        {
          "internalType": "string",
          "name": "s2",
          "type": "string"
        }
      ],
      "name": "areStringsEqual",
      "outputs": [
        {
          "internalType": "bool",
          "name": "",
          "type": "bool"
        }
      ],
      "stateMutability": "pure",
      "type": "function"
    },
    {
      "inputs": [
        {
          "internalType": "string",
          "name": "_walletKey",
          "type": "string"
        }
      ],
      "name": "authenticateAdmin",
      "outputs": [
        {
          "internalType": "bool",
          "name": "",
          "type": "bool"
        }
      ],
      "stateMutability": "view",
      "type": "function"
    },
    {
      "inputs": [
        {
          "internalType": "uint256",
          "name": "",
          "type": "uint256"
        }
      ],
      "name": "candidate_names",
      "outputs": [
        {
          "internalType": "string",
          "name": "",
          "type": "string"
        }
      ],
      "stateMutability": "view",
      "type": "function"
    },
    {
      "inputs": [
        {
          "internalType": "uint256",
          "name": "",
          "type": "uint256"
        }
      ],
      "name": "candidates",
      "outputs": [
        {
          "internalType": "string",
          "name": "name",
          "type": "string"
        },
        {
          "internalType": "string",
          "name": "mobileNo",
          "type": "string"
        },
        {
          "internalType": "string",
          "name": "homeAddress",
          "type": "string"
        },
        {
          "internalType": "string",
          "name": "aadharCardNo",
          "type": "string"
        },
        {
          "internalType": "string",
          "name": "voterId",
          "type": "string"
        },
        {
          "internalType": "string",
          "name": "walletKey",
          "type": "string"
        },
        {
          "internalType": "string",
          "name": "politicalParty",
          "type": "string"
        },
        {
          "internalType": "uint256",
          "name": "votes",
          "type": "uint256"
        }
      ],
      "stateMutability": "view",
      "type": "function"
    },
    {
      "inputs": [
        {
          "internalType": "string",
          "name": "",
          "type": "string"
        }
      ],
      "name": "candidatesMap",
      "outputs": [
        {
          "internalType": "string",
          "name": "name",
          "type": "string"
        },
        {
          "internalType": "string",
          "name": "mobileNo",
          "type": "string"
        },
        {
          "internalType": "string",
          "name": "homeAddress",
          "type": "string"
        },
        {
          "internalType": "string",
          "name": "aadharCardNo",
          "type": "string"
        },
        {
          "internalType": "string",
          "name": "voterId",
          "type": "string"
        },
        {
          "internalType": "string",
          "name": "walletKey",
          "type": "string"
        },
        {
          "internalType": "string",
          "name": "politicalParty",
          "type": "string"
        },
        {
          "internalType": "uint256",
          "name": "votes",
          "type": "uint256"
        }
      ],
      "stateMutability": "view",
      "type": "function"
    },
    {
      "inputs": [],
      "name": "getCandidates",
      "outputs": [
        {
          "internalType": "string[]",
          "name": "",
          "type": "string[]"
        }
      ],
      "stateMutability": "nonpayable",
      "type": "function"
    },
    {
      "inputs": [],
      "name": "getResults",
      "outputs": [
        {
          "internalType": "string[]",
          "name": "",
          "type": "string[]"
        },
        {
          "internalType": "uint256[]",
          "name": "",
          "type": "uint256[]"
        }
      ],
      "stateMutability": "nonpayable",
      "type": "function"
    },
    {
      "inputs": [
        {
          "internalType": "string",
          "name": "_walletKey",
          "type": "string"
        }
      ],
      "name": "getVoterId",
      "outputs": [
        {
          "internalType": "string",
          "name": "",
          "type": "string"
        }
      ],
      "stateMutability": "nonpayable",
      "type": "function"
    },
    {
      "inputs": [
        {
          "internalType": "string",
          "name": "_voterid",
          "type": "string"
        }
      ],
      "name": "hasVoted",
      "outputs": [
        {
          "internalType": "bool",
          "name": "",
          "type": "bool"
        }
      ],
      "stateMutability": "view",
      "type": "function"
    },
    {
      "inputs": [
        {
          "internalType": "string",
          "name": "_walletKey",
          "type": "string"
        }
      ],
      "name": "isAdminRegistered",
      "outputs": [
        {
          "internalType": "bool",
          "name": "",
          "type": "bool"
        }
      ],
      "stateMutability": "view",
      "type": "function"
    },
    {
      "inputs": [
        {
          "internalType": "string",
          "name": "_walletKey",
          "type": "string"
        }
      ],
      "name": "isCandidateRegistered",
      "outputs": [
        {
          "internalType": "bool",
          "name": "",
          "type": "bool"
        }
      ],
      "stateMutability": "view",
      "type": "function"
    },
    {
      "inputs": [
        {
          "components": [
            {
              "internalType": "string",
              "name": "name",
              "type": "string"
            },
            {
              "internalType": "string",
              "name": "mobileNo",
              "type": "string"
            },
            {
              "internalType": "string",
              "name": "homeAddress",
              "type": "string"
            },
            {
              "internalType": "string",
              "name": "aadharCardNo",
              "type": "string"
            },
            {
              "internalType": "string",
              "name": "voterId",
              "type": "string"
            },
            {
              "internalType": "string",
              "name": "walletKey",
              "type": "string"
            },
            {
              "internalType": "bool",
              "name": "isVoted",
              "type": "bool"
            }
          ],
          "internalType": "struct Voter",
          "name": "item",
          "type": "tuple"
        }
      ],
      "name": "isVoterRegistered",
      "outputs": [
        {
          "internalType": "bool",
          "name": "",
          "type": "bool"
        }
      ],
      "stateMutability": "view",
      "type": "function"
    },
    {
      "inputs": [
        {
          "internalType": "string",
          "name": "",
          "type": "string"
        }
      ],
      "name": "map_voterid_details",
      "outputs": [
        {
          "internalType": "string",
          "name": "name",
          "type": "string"
        },
        {
          "internalType": "string",
          "name": "mobileNo",
          "type": "string"
        },
        {
          "internalType": "string",
          "name": "homeAddress",
          "type": "string"
        },
        {
          "internalType": "string",
          "name": "aadharCardNo",
          "type": "string"
        },
        {
          "internalType": "string",
          "name": "voterId",
          "type": "string"
        },
        {
          "internalType": "string",
          "name": "walletKey",
          "type": "string"
        },
        {
          "internalType": "bool",
          "name": "isVoted",
          "type": "bool"
        }
      ],
      "stateMutability": "view",
      "type": "function"
    },
    {
      "inputs": [
        {
          "internalType": "string",
          "name": "",
          "type": "string"
        }
      ],
      "name": "map_walletKey_voterid",
      "outputs": [
        {
          "internalType": "string",
          "name": "",
          "type": "string"
        }
      ],
      "stateMutability": "view",
      "type": "function"
    },
    {
      "inputs": [
        {
          "internalType": "string",
          "name": "_voterid",
          "type": "string"
        },
        {
          "components": [
            {
              "internalType": "string",
              "name": "name",
              "type": "string"
            },
            {
              "internalType": "string",
              "name": "mobileNo",
              "type": "string"
            },
            {
              "internalType": "string",
              "name": "homeAddress",
              "type": "string"
            },
            {
              "internalType": "string",
              "name": "aadharCardNo",
              "type": "string"
            },
            {
              "internalType": "string",
              "name": "voterId",
              "type": "string"
            },
            {
              "internalType": "string",
              "name": "walletKey",
              "type": "string"
            },
            {
              "internalType": "bool",
              "name": "isVoted",
              "type": "bool"
            }
          ],
          "internalType": "struct Voter",
          "name": "v",
          "type": "tuple"
        }
      ],
      "name": "setMapVoterDetails",
      "outputs": [],
      "stateMutability": "nonpayable",
      "type": "function"
    },
    {
      "inputs": [
        {
          "internalType": "string",
          "name": "_voterid",
          "type": "string"
        }
      ],
      "name": "setVoterId",
      "outputs": [],
      "stateMutability": "nonpayable",
      "type": "function"
    },
    {
      "inputs": [
        {
          "internalType": "string",
          "name": "_voterId",
          "type": "string"
        },
        {
          "internalType": "string",
          "name": "_walletKey",
          "type": "string"
        },
        {
          "internalType": "uint256",
          "name": "choice",
          "type": "uint256"
        }
      ],
      "name": "vote",
      "outputs": [
        {
          "internalType": "bool",
          "name": "",
          "type": "bool"
        }
      ],
      "stateMutability": "nonpayable",
      "type": "function"
    },
    {
      "inputs": [
        {
          "internalType": "string",
          "name": "_voterId",
          "type": "string"
        },
        {
          "internalType": "uint256",
          "name": "choice",
          "type": "uint256"
        }
      ],
      "name": "voteThroughAdmin",
      "outputs": [
        {
          "internalType": "bool",
          "name": "",
          "type": "bool"
        }
      ],
      "stateMutability": "nonpayable",
      "type": "function"
    },
    {
      "inputs": [],
      "name": "voterLength",
      "outputs": [
        {
          "internalType": "uint256",
          "name": "",
          "type": "uint256"
        }
      ],
      "stateMutability": "view",
      "type": "function"
    },
    {
      "inputs": [
        {
          "internalType": "uint256",
          "name": "",
          "type": "uint256"
        }
      ],
      "name": "voters",
      "outputs": [
        {
          "internalType": "string",
          "name": "name",
          "type": "string"
        },
        {
          "internalType": "string",
          "name": "mobileNo",
          "type": "string"
        },
        {
          "internalType": "string",
          "name": "homeAddress",
          "type": "string"
        },
        {
          "internalType": "string",
          "name": "aadharCardNo",
          "type": "string"
        },
        {
          "internalType": "string",
          "name": "voterId",
          "type": "string"
        },
        {
          "internalType": "string",
          "name": "walletKey",
          "type": "string"
        },
        {
          "internalType": "bool",
          "name": "isVoted",
          "type": "bool"
        }
      ],
      "stateMutability": "view",
      "type": "function"
    }
  ],
  "bytecode": "0x60806040526000805560405180602001604052806000815250600190805190602001906200002f9291906200080b565b506040518060400160405280600981526020017f707265566f74696e670000000000000000000000000000000000000000000000815250600590805190602001906200007d9291906200080b565b503480156200008b57600080fd5b506040516200512a3803806200512a8339818101604052810190620000b1919062000a58565b82600d6000019080519060200190620000cc9291906200080b565b5081600d6001019080519060200190620000e89291906200080b565b5080600d6002019080519060200190620001049291906200080b565b50620002f0600d604051806060016040529081600082018054620001289062000b40565b80601f0160208091040260200160405190810160405280929190818152602001828054620001569062000b40565b8015620001a75780601f106200017b57610100808354040283529160200191620001a7565b820191906000526020600020905b8154815290600101906020018083116200018957829003601f168201915b50505050508152602001600182018054620001c29062000b40565b80601f0160208091040260200160405190810160405280929190818152602001828054620001f09062000b40565b8015620002415780601f10620002155761010080835404028352916020019162000241565b820191906000526020600020905b8154815290600101906020018083116200022357829003601f168201915b505050505081526020016002820180546200025c9062000b40565b80601f01602080910402602001604051908101604052809291908181526020018280546200028a9062000b40565b8015620002db5780601f10620002af57610100808354040283529160200191620002db565b820191906000526020600020905b815481529060010190602001808311620002bd57829003601f168201915b505050505081525050620004e560201b60201c565b620004dc81600d604051806060016040529081600082018054620003149062000b40565b80601f0160208091040260200160405190810160405280929190818152602001828054620003429062000b40565b8015620003935780601f10620003675761010080835404028352916020019162000393565b820191906000526020600020905b8154815290600101906020018083116200037557829003601f168201915b50505050508152602001600182018054620003ae9062000b40565b80601f0160208091040260200160405190810160405280929190818152602001828054620003dc9062000b40565b80156200042d5780601f1062000401576101008083540402835291602001916200042d565b820191906000526020600020905b8154815290600101906020018083116200040f57829003601f168201915b50505050508152602001600282018054620004489062000b40565b80601f0160208091040260200160405190810160405280929190818152602001828054620004769062000b40565b8015620004c75780601f106200049b57610100808354040283529160200191620004c7565b820191906000526020600020905b815481529060010190602001808311620004a957829003601f168201915b5050505050815250506200068960201b60201c565b50505062000cd5565b620004fa81604001516200070e60201b60201c565b158015620005de5750620005dc60058054620005169062000b40565b80601f0160208091040260200160405190810160405280929190818152602001828054620005449062000b40565b8015620005955780601f10620005695761010080835404028352916020019162000595565b820191906000526020600020905b8154815290600101906020018083116200057757829003601f168201915b50505050506040518060400160405280600681526020017f526573756c7400000000000000000000000000000000000000000000000000008152506200079c60201b60201c565b155b156200067057600381908060018154018082558091505060019003906000526020600020906003020160009091909190915060008201518160000190805190602001906200062e9291906200080b565b5060208201518160010190805190602001906200064d9291906200080b565b5060408201518160020190805190602001906200066c9291906200080b565b5050505b620006868160400151826200068960201b60201c565b50565b806008836040516200069c919062000bc2565b90815260200160405180910390206000820151816000019080519060200190620006c89291906200080b565b506020820151816001019080519060200190620006e79291906200080b565b506040820151816002019080519060200190620007069291906200080b565b509050505050565b6000604051602001620007219062000c05565b6040516020818303038152906040528051906020012060088360405162000749919062000bc2565b90815260200160405180910390206000016040516020016200076c919062000cbc565b604051602081830303815290604052805190602001201462000792576001905062000797565b600090505b919050565b600081604051602001620007b1919062000bc2565b6040516020818303038152906040528051906020012083604051602001620007da919062000bc2565b604051602081830303815290604052805190602001200362000800576001905062000805565b600090505b92915050565b828054620008199062000b40565b90600052602060002090601f0160209004810192826200083d576000855562000889565b82601f106200085857805160ff191683800117855562000889565b8280016001018555821562000889579182015b82811115620008885782518255916020019190600101906200086b565b5b5090506200089891906200089c565b5090565b5b80821115620008b75760008160009055506001016200089d565b5090565b6000604051905090565b600080fd5b600080fd5b600080fd5b600080fd5b6000601f19601f8301169050919050565b7f4e487b7100000000000000000000000000000000000000000000000000000000600052604160045260246000fd5b6200092482620008d9565b810181811067ffffffffffffffff82111715620009465762000945620008ea565b5b80604052505050565b60006200095b620008bb565b905062000969828262000919565b919050565b600067ffffffffffffffff8211156200098c576200098b620008ea565b5b6200099782620008d9565b9050602081019050919050565b60005b83811015620009c4578082015181840152602081019050620009a7565b83811115620009d4576000848401525b50505050565b6000620009f1620009eb846200096e565b6200094f565b90508281526020810184848401111562000a105762000a0f620008d4565b5b62000a1d848285620009a4565b509392505050565b600082601f83011262000a3d5762000a3c620008cf565b5b815162000a4f848260208601620009da565b91505092915050565b60008060006060848603121562000a745762000a73620008c5565b5b600084015167ffffffffffffffff81111562000a955762000a94620008ca565b5b62000aa38682870162000a25565b935050602084015167ffffffffffffffff81111562000ac75762000ac6620008ca565b5b62000ad58682870162000a25565b925050604084015167ffffffffffffffff81111562000af95762000af8620008ca565b5b62000b078682870162000a25565b9150509250925092565b7f4e487b7100000000000000000000000000000000000000000000000000000000600052602260045260246000fd5b6000600282049050600182168062000b5957607f821691505b60208210810362000b6f5762000b6e62000b11565b5b50919050565b600081519050919050565b600081905092915050565b600062000b988262000b75565b62000ba4818562000b80565b935062000bb6818560208601620009a4565b80840191505092915050565b600062000bd0828462000b8b565b915081905092915050565b50565b600062000bed60008362000b80565b915062000bfa8262000bdb565b600082019050919050565b600062000c128262000bde565b9150819050919050565b60008190508160005260206000209050919050565b6000815462000c408162000b40565b62000c4c818662000b80565b9450600182166000811462000c6a576001811462000c7c5762000cb3565b60ff1983168652818601935062000cb3565b62000c878562000c1c565b60005b8381101562000cab5781548189015260018201915060208101905062000c8a565b838801955050505b50505092915050565b600062000cca828462000c31565b915081905092915050565b6144458062000ce56000396000f3fe608060405234801561001057600080fd5b50600436106101e55760003560e01c80635982f6101161010f578063aebd20f0116100a2578063da58c7d911610071578063da58c7d91461063c578063f372514614610672578063f6249c04146106a9578063fe06e087146106d9576101e5565b8063aebd20f014610574578063b1496cd4146105aa578063bea48894146105da578063c38c5b231461060a576101e5565b80637a4c96ad116100de5780637a4c96ad146104c85780639c0585b0146104f8578063a69945fb14610528578063a7d27b0314610558576101e5565b80635982f6101461044057806361e221e41461045e578063648a305a1461047a5780637820d384146104aa576101e5565b806339bfeae3116101875780634fbe75c1116101565780634fbe75c1146103805780635097086f146103b057806351b09065146103e0578063565e802a14610410576101e5565b806339bfeae3146102f9578063455ab588146103295780634717f97c1461034557806348c8295214610364576101e5565b80632054449e116101c35780632054449e1461025a57806322d2ee01146102765780632ec66043146102925780633477ee2e146102c2576101e5565b806306a49fce146101ea5780630dbe671f1461020857806314bfd6d014610228575b600080fd5b6101f2610709565b6040516101ff91906134ea565b60405180910390f35b61021061086a565b60405161021f93929190613556565b60405180910390f35b610242600480360381019061023d91906135ec565b610a1a565b60405161025193929190613556565b60405180910390f35b610274600480360381019061026f9190613810565b610bec565b005b610290600480360381019061028b9190613a16565b610c69565b005b6102ac60048036038101906102a79190613a8e565b610d64565b6040516102b99190613ad7565b60405180910390f35b6102dc60048036038101906102d791906135ec565b610e1a565b6040516102f0989796959493929190613b08565b60405180910390f35b610313600480360381019061030e9190613a8e565b61122a565b6040516103209190613bd2565b60405180910390f35b610343600480360381019061033e9190613bed565b611262565b005b61034d61144d565b60405161035b929190613cf4565b60405180910390f35b61037e60048036038101906103799190613eb3565b611726565b005b61039a60048036038101906103959190613f2b565b611855565b6040516103a79190613bd2565b60405180910390f35b6103ca60048036038101906103c59190613f74565b6118df565b6040516103d79190613bd2565b60405180910390f35b6103fa60048036038101906103f591906135ec565b611ac0565b6040516104079190613ad7565b60405180910390f35b61042a60048036038101906104259190613a8e565b611b6c565b6040516104379190613bd2565b60405180910390f35b610448611bf2565b6040516104559190613fd0565b60405180910390f35b61047860048036038101906104739190613feb565b611bff565b005b610494600480360381019061048f91906135ec565b611d7b565b6040516104a19190613ad7565b60405180910390f35b6104b2611e27565b6040516104bf9190613fd0565b60405180910390f35b6104e260048036038101906104dd9190614034565b611e34565b6040516104ef9190613bd2565b60405180910390f35b610512600480360381019061050d9190613a8e565b6120d7565b60405161051f9190613bd2565b60405180910390f35b610542600480360381019061053d9190613a8e565b61215d565b60405161054f9190613bd2565b60405180910390f35b610572600480360381019061056d9190613a8e565b612180565b005b61058e60048036038101906105899190613a8e565b61219a565b6040516105a197969594939291906140bf565b60405180910390f35b6105c460048036038101906105bf9190614158565b61252f565b6040516105d19190613bd2565b60405180910390f35b6105f460048036038101906105ef91906135ec565b612598565b6040516106019190613fd0565b60405180910390f35b610624600480360381019061061f9190613a8e565b6125bc565b60405161063393929190613556565b60405180910390f35b610656600480360381019061065191906135ec565b612794565b60405161066997969594939291906140bf565b60405180910390f35b61068c60048036038101906106879190613a8e565b612b23565b6040516106a0989796959493929190613b08565b60405180910390f35b6106c360048036038101906106be9190613a8e565b612f39565b6040516106d09190613ad7565b60405180910390f35b6106f360048036038101906106ee9190613f2b565b613005565b6040516107009190613ad7565b60405180910390f35b606060005b60048054905081101561079257600a60048281548110610731576107306141d0565b5b9060005260206000209060080201600001908060018154018082558091505060019003906000526020600020016000909190919091509080546107739061422e565b61077e92919061325f565b50808061078a9061428e565b91505061070e565b50600a805480602002602001604051908101604052809291908181526020016000905b828210156108615783829060005260206000200180546107d49061422e565b80601f01602080910402602001604051908101604052809291908181526020018280546108009061422e565b801561084d5780601f106108225761010080835404028352916020019161084d565b820191906000526020600020905b81548152906001019060200180831161083057829003601f168201915b5050505050815260200190600101906107b5565b50505050905090565b600d80600001805461087b9061422e565b80601f01602080910402602001604051908101604052809291908181526020018280546108a79061422e565b80156108f45780601f106108c9576101008083540402835291602001916108f4565b820191906000526020600020905b8154815290600101906020018083116108d757829003601f168201915b5050505050908060010180546109099061422e565b80601f01602080910402602001604051908101604052809291908181526020018280546109359061422e565b80156109825780601f1061095757610100808354040283529160200191610982565b820191906000526020600020905b81548152906001019060200180831161096557829003601f168201915b5050505050908060020180546109979061422e565b80601f01602080910402602001604051908101604052809291908181526020018280546109c39061422e565b8015610a105780601f106109e557610100808354040283529160200191610a10565b820191906000526020600020905b8154815290600101906020018083116109f357829003601f168201915b5050505050905083565b60038181548110610a2a57600080fd5b9060005260206000209060030201600091509050806000018054610a4d9061422e565b80601f0160208091040260200160405190810160405280929190818152602001828054610a799061422e565b8015610ac65780601f10610a9b57610100808354040283529160200191610ac6565b820191906000526020600020905b815481529060010190602001808311610aa957829003601f168201915b505050505090806001018054610adb9061422e565b80601f0160208091040260200160405190810160405280929190818152602001828054610b079061422e565b8015610b545780601f10610b2957610100808354040283529160200191610b54565b820191906000526020600020905b815481529060010190602001808311610b3757829003601f168201915b505050505090806002018054610b699061422e565b80601f0160208091040260200160405190810160405280929190818152602001828054610b959061422e565b8015610be25780601f10610bb757610100808354040283529160200191610be2565b820191906000526020600020905b815481529060010190602001808311610bc557829003601f168201915b5050505050905083565b80600883604051610bfd9190614312565b90815260200160405180910390206000820151816000019080519060200190610c279291906132ec565b506020820151816001019080519060200190610c449291906132ec565b506040820151816002019080519060200190610c619291906132ec565b509050505050565b80600983604051610c7a9190614312565b90815260200160405180910390206000820151816000019080519060200190610ca49291906132ec565b506020820151816001019080519060200190610cc19291906132ec565b506040820151816002019080519060200190610cde9291906132ec565b506060820151816003019080519060200190610cfb9291906132ec565b506080820151816004019080519060200190610d189291906132ec565b5060a0820151816005019080519060200190610d359291906132ec565b5060c0820151816006019080519060200190610d529291906132ec565b5060e082015181600701559050505050565b6006818051602081018201805184825260208301602085012081835280955050505050506000915090508054610d999061422e565b80601f0160208091040260200160405190810160405280929190818152602001828054610dc59061422e565b8015610e125780601f10610de757610100808354040283529160200191610e12565b820191906000526020600020905b815481529060010190602001808311610df557829003601f168201915b505050505081565b60048181548110610e2a57600080fd5b9060005260206000209060080201600091509050806000018054610e4d9061422e565b80601f0160208091040260200160405190810160405280929190818152602001828054610e799061422e565b8015610ec65780601f10610e9b57610100808354040283529160200191610ec6565b820191906000526020600020905b815481529060010190602001808311610ea957829003601f168201915b505050505090806001018054610edb9061422e565b80601f0160208091040260200160405190810160405280929190818152602001828054610f079061422e565b8015610f545780601f10610f2957610100808354040283529160200191610f54565b820191906000526020600020905b815481529060010190602001808311610f3757829003601f168201915b505050505090806002018054610f699061422e565b80601f0160208091040260200160405190810160405280929190818152602001828054610f959061422e565b8015610fe25780601f10610fb757610100808354040283529160200191610fe2565b820191906000526020600020905b815481529060010190602001808311610fc557829003601f168201915b505050505090806003018054610ff79061422e565b80601f01602080910402602001604051908101604052809291908181526020018280546110239061422e565b80156110705780601f1061104557610100808354040283529160200191611070565b820191906000526020600020905b81548152906001019060200180831161105357829003601f168201915b5050505050908060040180546110859061422e565b80601f01602080910402602001604051908101604052809291908181526020018280546110b19061422e565b80156110fe5780601f106110d3576101008083540402835291602001916110fe565b820191906000526020600020905b8154815290600101906020018083116110e157829003601f168201915b5050505050908060050180546111139061422e565b80601f016020809104026020016040519081016040528092919081815260200182805461113f9061422e565b801561118c5780601f106111615761010080835404028352916020019161118c565b820191906000526020600020905b81548152906001019060200180831161116f57829003601f168201915b5050505050908060060180546111a19061422e565b80601f01602080910402602001604051908101604052809291908181526020018280546111cd9061422e565b801561121a5780601f106111ef5761010080835404028352916020019161121a565b820191906000526020600020905b8154815290600101906020018083116111fd57829003601f168201915b5050505050908060070154905088565b600060078260405161123c9190614312565b908152602001604051809103902060060160009054906101000a900460ff169050919050565b61126f8160a00151611b6c565b1580156113415750611340600580546112879061422e565b80601f01602080910402602001604051908101604052809291908181526020018280546112b39061422e565b80156113005780601f106112d557610100808354040283529160200191611300565b820191906000526020600020905b8154815290600101906020018083116112e357829003601f168201915b50505050506040518060400160405280600981526020017f707265566f74696e67000000000000000000000000000000000000000000000081525061252f565b5b1561144a576004819080600181540180825580915050600190039060005260206000209060080201600090919091909150600082015181600001908051906020019061138e9291906132ec565b5060208201518160010190805190602001906113ab9291906132ec565b5060408201518160020190805190602001906113c89291906132ec565b5060608201518160030190805190602001906113e59291906132ec565b5060808201518160040190805190602001906114029291906132ec565b5060a082015181600501908051906020019061141f9291906132ec565b5060c082015181600601908051906020019061143c9291906132ec565b5060e0820151816007015550505b50565b606080611519600580546114609061422e565b80601f016020809104026020016040519081016040528092919081815260200182805461148c9061422e565b80156114d95780601f106114ae576101008083540402835291602001916114d9565b820191906000526020600020905b8154815290600101906020018083116114bc57829003601f168201915b50505050506040518060400160405280600681526020017f526573756c74000000000000000000000000000000000000000000000000000081525061252f565b156115f55760005b6004805490508110156115f357600b60048281548110611544576115436141d0565b5b9060005260206000209060080201600001908060018154018082558091505060019003906000526020600020016000909190919091509080546115869061422e565b61159192919061325f565b50600c600482815481106115a8576115a76141d0565b5b906000526020600020906008020160070154908060018154018082558091505060019003906000526020600020016000909190919091505580806115eb9061428e565b915050611521565b505b600b600c81805480602002602001604051908101604052809291908181526020016000905b828210156116c65783829060005260206000200180546116399061422e565b80601f01602080910402602001604051908101604052809291908181526020018280546116659061422e565b80156116b25780601f10611687576101008083540402835291602001916116b2565b820191906000526020600020905b81548152906001019060200180831161169557829003601f168201915b50505050508152602001906001019061161a565b5050505091508080548060200260200160405190810160405280929190818152602001828054801561171757602002820191906000526020600020905b815481526020019060010190808311611703575b50505050509050915091509091565b806007836040516117379190614312565b908152602001604051809103902060008201518160000190805190602001906117619291906132ec565b50602082015181600101908051906020019061177e9291906132ec565b50604082015181600201908051906020019061179b9291906132ec565b5060608201518160030190805190602001906117b89291906132ec565b5060808201518160040190805190602001906117d59291906132ec565b5060a08201518160050190805190602001906117f29291906132ec565b5060c08201518160060160006101000a81548160ff021916908315150217905550905050806080015160068260a0015160405161182f9190614312565b908152602001604051809103902090805190602001906118509291906132ec565b505050565b60006040516020016118669061434f565b60405160208183030381529060405280519060200120600783608001516040516118909190614312565b90815260200160405180910390206000016040516020016118b191906143f8565b60405160208183030381529060405280519060200120146118d557600190506118da565b600090505b919050565b60006007836040516118f19190614312565b908152602001604051809103902060060160009054906101000a900460ff16611ab55760048281548110611928576119276141d0565b5b9060005260206000209060080201600701600081548092919061194a9061428e565b919050555060016007846040516119619190614312565b908152602001604051809103902060060160006101000a81548160ff02191690831515021790555060005b600280549050811015611aab57611a50600282815481106119b0576119af6141d0565b5b906000526020600020906007020160040180546119cc9061422e565b80601f01602080910402602001604051908101604052809291908181526020018280546119f89061422e565b8015611a455780601f10611a1a57610100808354040283529160200191611a45565b820191906000526020600020905b815481529060010190602001808311611a2857829003601f168201915b50505050508561252f565b15611a9857600160028281548110611a6b57611a6a6141d0565b5b906000526020600020906007020160060160006101000a81548160ff021916908315150217905550611aab565b8080611aa39061428e565b91505061198c565b5060019050611aba565b600090505b92915050565b600a8181548110611ad057600080fd5b906000526020600020016000915090508054611aeb9061422e565b80601f0160208091040260200160405190810160405280929190818152602001828054611b179061422e565b8015611b645780601f10611b3957610100808354040283529160200191611b64565b820191906000526020600020905b815481529060010190602001808311611b4757829003601f168201915b505050505081565b6000604051602001611b7d9061434f565b60405160208183030381529060405280519060200120600983604051611ba39190614312565b9081526020016040518091039020600001604051602001611bc491906143f8565b6040516020818303038152906040528051906020012014611be85760019050611bed565b600090505b919050565b6000600380549050905090565b611c0c81604001516120d7565b158015611cdf5750611cdd60058054611c249061422e565b80601f0160208091040260200160405190810160405280929190818152602001828054611c509061422e565b8015611c9d5780601f10611c7257610100808354040283529160200191611c9d565b820191906000526020600020905b815481529060010190602001808311611c8057829003601f168201915b50505050506040518060400160405280600681526020017f526573756c74000000000000000000000000000000000000000000000000000081525061252f565b155b15611d6a5760038190806001815401808255809150506001900390600052602060002090600302016000909190919091506000820151816000019080519060200190611d2c9291906132ec565b506020820151816001019080519060200190611d499291906132ec565b506040820151816002019080519060200190611d669291906132ec565b5050505b611d78816040015182610bec565b50565b600b8181548110611d8b57600080fd5b906000526020600020016000915090508054611da69061422e565b80601f0160208091040260200160405190810160405280929190818152602001828054611dd29061422e565b8015611e1f5780601f10611df457610100808354040283529160200191611e1f565b820191906000526020600020905b815481529060010190602001808311611e0257829003601f168201915b505050505081565b6000600280549050905090565b6000611ee9600785604051611e499190614312565b90815260200160405180910390206005018054611e659061422e565b80601f0160208091040260200160405190810160405280929190818152602001828054611e919061422e565b8015611ede5780601f10611eb357610100808354040283529160200191611ede565b820191906000526020600020905b815481529060010190602001808311611ec157829003601f168201915b50505050508461252f565b156120cb57600784604051611efe9190614312565b908152602001604051809103902060060160009054906101000a900460ff166120c25760048281548110611f3557611f346141d0565b5b90600052602060002090600802016007016000815480929190611f579061428e565b91905055506001600785604051611f6e9190614312565b908152602001604051809103902060060160006101000a81548160ff02191690831515021790555060005b6002805490508110156120b85761205d60028281548110611fbd57611fbc6141d0565b5b90600052602060002090600702016004018054611fd99061422e565b80601f01602080910402602001604051908101604052809291908181526020018280546120059061422e565b80156120525780601f1061202757610100808354040283529160200191612052565b820191906000526020600020905b81548152906001019060200180831161203557829003601f168201915b50505050508661252f565b156120a557600160028281548110612078576120776141d0565b5b906000526020600020906007020160060160006101000a81548160ff0219169083151502179055506120b8565b80806120b09061428e565b915050611f99565b50600190506120d0565b600090506120d0565b600090505b9392505050565b60006040516020016120e89061434f565b6040516020818303038152906040528051906020012060088360405161210e9190614312565b908152602001604051809103902060000160405160200161212f91906143f8565b60405160208183030381529060405280519060200120146121535760019050612158565b600090505b919050565b6000612168826120d7565b15612176576001905061217b565b600090505b919050565b80600190805190602001906121969291906132ec565b5050565b6007818051602081018201805184825260208301602085012081835280955050505050506000915090508060000180546121d39061422e565b80601f01602080910402602001604051908101604052809291908181526020018280546121ff9061422e565b801561224c5780601f106122215761010080835404028352916020019161224c565b820191906000526020600020905b81548152906001019060200180831161222f57829003601f168201915b5050505050908060010180546122619061422e565b80601f016020809104026020016040519081016040528092919081815260200182805461228d9061422e565b80156122da5780601f106122af576101008083540402835291602001916122da565b820191906000526020600020905b8154815290600101906020018083116122bd57829003601f168201915b5050505050908060020180546122ef9061422e565b80601f016020809104026020016040519081016040528092919081815260200182805461231b9061422e565b80156123685780601f1061233d57610100808354040283529160200191612368565b820191906000526020600020905b81548152906001019060200180831161234b57829003601f168201915b50505050509080600301805461237d9061422e565b80601f01602080910402602001604051908101604052809291908181526020018280546123a99061422e565b80156123f65780601f106123cb576101008083540402835291602001916123f6565b820191906000526020600020905b8154815290600101906020018083116123d957829003601f168201915b50505050509080600401805461240b9061422e565b80601f01602080910402602001604051908101604052809291908181526020018280546124379061422e565b80156124845780601f1061245957610100808354040283529160200191612484565b820191906000526020600020905b81548152906001019060200180831161246757829003601f168201915b5050505050908060050180546124999061422e565b80601f01602080910402602001604051908101604052809291908181526020018280546124c59061422e565b80156125125780601f106124e757610100808354040283529160200191612512565b820191906000526020600020905b8154815290600101906020018083116124f557829003601f168201915b5050505050908060060160009054906101000a900460ff16905087565b6000816040516020016125429190614312565b60405160208183030381529060405280519060200120836040516020016125699190614312565b604051602081830303815290604052805190602001200361258d5760019050612592565b600090505b92915050565b600c81815481106125a857600080fd5b906000526020600020016000915090505481565b6008818051602081018201805184825260208301602085012081835280955050505050506000915090508060000180546125f59061422e565b80601f01602080910402602001604051908101604052809291908181526020018280546126219061422e565b801561266e5780601f106126435761010080835404028352916020019161266e565b820191906000526020600020905b81548152906001019060200180831161265157829003601f168201915b5050505050908060010180546126839061422e565b80601f01602080910402602001604051908101604052809291908181526020018280546126af9061422e565b80156126fc5780601f106126d1576101008083540402835291602001916126fc565b820191906000526020600020905b8154815290600101906020018083116126df57829003601f168201915b5050505050908060020180546127119061422e565b80601f016020809104026020016040519081016040528092919081815260200182805461273d9061422e565b801561278a5780601f1061275f5761010080835404028352916020019161278a565b820191906000526020600020905b81548152906001019060200180831161276d57829003601f168201915b5050505050905083565b600281815481106127a457600080fd5b90600052602060002090600702016000915090508060000180546127c79061422e565b80601f01602080910402602001604051908101604052809291908181526020018280546127f39061422e565b80156128405780601f1061281557610100808354040283529160200191612840565b820191906000526020600020905b81548152906001019060200180831161282357829003601f168201915b5050505050908060010180546128559061422e565b80601f01602080910402602001604051908101604052809291908181526020018280546128819061422e565b80156128ce5780601f106128a3576101008083540402835291602001916128ce565b820191906000526020600020905b8154815290600101906020018083116128b157829003601f168201915b5050505050908060020180546128e39061422e565b80601f016020809104026020016040519081016040528092919081815260200182805461290f9061422e565b801561295c5780601f106129315761010080835404028352916020019161295c565b820191906000526020600020905b81548152906001019060200180831161293f57829003601f168201915b5050505050908060030180546129719061422e565b80601f016020809104026020016040519081016040528092919081815260200182805461299d9061422e565b80156129ea5780601f106129bf576101008083540402835291602001916129ea565b820191906000526020600020905b8154815290600101906020018083116129cd57829003601f168201915b5050505050908060040180546129ff9061422e565b80601f0160208091040260200160405190810160405280929190818152602001828054612a2b9061422e565b8015612a785780601f10612a4d57610100808354040283529160200191612a78565b820191906000526020600020905b815481529060010190602001808311612a5b57829003601f168201915b505050505090806005018054612a8d9061422e565b80601f0160208091040260200160405190810160405280929190818152602001828054612ab99061422e565b8015612b065780601f10612adb57610100808354040283529160200191612b06565b820191906000526020600020905b815481529060010190602001808311612ae957829003601f168201915b5050505050908060060160009054906101000a900460ff16905087565b600981805160208101820180518482526020830160208501208183528095505050505050600091509050806000018054612b5c9061422e565b80601f0160208091040260200160405190810160405280929190818152602001828054612b889061422e565b8015612bd55780601f10612baa57610100808354040283529160200191612bd5565b820191906000526020600020905b815481529060010190602001808311612bb857829003601f168201915b505050505090806001018054612bea9061422e565b80601f0160208091040260200160405190810160405280929190818152602001828054612c169061422e565b8015612c635780601f10612c3857610100808354040283529160200191612c63565b820191906000526020600020905b815481529060010190602001808311612c4657829003601f168201915b505050505090806002018054612c789061422e565b80601f0160208091040260200160405190810160405280929190818152602001828054612ca49061422e565b8015612cf15780601f10612cc657610100808354040283529160200191612cf1565b820191906000526020600020905b815481529060010190602001808311612cd457829003601f168201915b505050505090806003018054612d069061422e565b80601f0160208091040260200160405190810160405280929190818152602001828054612d329061422e565b8015612d7f5780601f10612d5457610100808354040283529160200191612d7f565b820191906000526020600020905b815481529060010190602001808311612d6257829003601f168201915b505050505090806004018054612d949061422e565b80601f0160208091040260200160405190810160405280929190818152602001828054612dc09061422e565b8015612e0d5780601f10612de257610100808354040283529160200191612e0d565b820191906000526020600020905b815481529060010190602001808311612df057829003601f168201915b505050505090806005018054612e229061422e565b80601f0160208091040260200160405190810160405280929190818152602001828054612e4e9061422e565b8015612e9b5780601f10612e7057610100808354040283529160200191612e9b565b820191906000526020600020905b815481529060010190602001808311612e7e57829003601f168201915b505050505090806006018054612eb09061422e565b80601f0160208091040260200160405190810160405280929190818152602001828054612edc9061422e565b8015612f295780601f10612efe57610100808354040283529160200191612f29565b820191906000526020600020905b815481529060010190602001808311612f0c57829003601f168201915b5050505050908060070154905088565b6060600682604051612f4b9190614312565b90815260200160405180910390206001908054612f679061422e565b612f7292919061325f565b5060018054612f809061422e565b80601f0160208091040260200160405190810160405280929190818152602001828054612fac9061422e565b8015612ff95780601f10612fce57610100808354040283529160200191612ff9565b820191906000526020600020905b815481529060010190602001808311612fdc57829003601f168201915b50505050509050919050565b606061301082611855565b1580156130e357506130e1600580546130289061422e565b80601f01602080910402602001604051908101604052809291908181526020018280546130549061422e565b80156130a15780601f10613076576101008083540402835291602001916130a1565b820191906000526020600020905b81548152906001019060200180831161308457829003601f168201915b50505050506040518060400160405280600681526020017f526573756c74000000000000000000000000000000000000000000000000000081525061252f565b155b1561322157600282908060018154018082558091505060019003906000526020600020906007020160009091909190915060008201518160000190805190602001906131309291906132ec565b50602082015181600101908051906020019061314d9291906132ec565b50604082015181600201908051906020019061316a9291906132ec565b5060608201518160030190805190602001906131879291906132ec565b5060808201518160040190805190602001906131a49291906132ec565b5060a08201518160050190805190602001906131c19291906132ec565b5060c08201518160060160006101000a81548160ff02191690831515021790555050506040518060400160405280600a81526020017f7573657220616464656400000000000000000000000000000000000000000000815250905061325a565b6040518060400160405280601381526020017f7573657220616c7265616479206578697374730000000000000000000000000081525090505b919050565b82805461326b9061422e565b90600052602060002090601f01602090048101928261328d57600085556132db565b82601f1061329e57805485556132db565b828001600101855582156132db57600052602060002091601f016020900482015b828111156132da5782548255916001019190600101906132bf565b5b5090506132e89190613372565b5090565b8280546132f89061422e565b90600052602060002090601f01602090048101928261331a5760008555613361565b82601f1061333357805160ff1916838001178555613361565b82800160010185558215613361579182015b82811115613360578251825591602001919060010190613345565b5b50905061336e9190613372565b5090565b5b8082111561338b576000816000905550600101613373565b5090565b600081519050919050565b600082825260208201905092915050565b6000819050602082019050919050565b600081519050919050565b600082825260208201905092915050565b60005b838110156133f55780820151818401526020810190506133da565b83811115613404576000848401525b50505050565b6000601f19601f8301169050919050565b6000613426826133bb565b61343081856133c6565b93506134408185602086016133d7565b6134498161340a565b840191505092915050565b6000613460838361341b565b905092915050565b6000602082019050919050565b60006134808261338f565b61348a818561339a565b93508360208202850161349c856133ab565b8060005b858110156134d857848403895281516134b98582613454565b94506134c483613468565b925060208a019950506001810190506134a0565b50829750879550505050505092915050565b600060208201905081810360008301526135048184613475565b905092915050565b600082825260208201905092915050565b6000613528826133bb565b613532818561350c565b93506135428185602086016133d7565b61354b8161340a565b840191505092915050565b60006060820190508181036000830152613570818661351d565b90508181036020830152613584818561351d565b90508181036040830152613598818461351d565b9050949350505050565b6000604051905090565b600080fd5b600080fd5b6000819050919050565b6135c9816135b6565b81146135d457600080fd5b50565b6000813590506135e6816135c0565b92915050565b600060208284031215613602576136016135ac565b5b6000613610848285016135d7565b91505092915050565b600080fd5b600080fd5b7f4e487b7100000000000000000000000000000000000000000000000000000000600052604160045260246000fd5b61365b8261340a565b810181811067ffffffffffffffff8211171561367a57613679613623565b5b80604052505050565b600061368d6135a2565b90506136998282613652565b919050565b600067ffffffffffffffff8211156136b9576136b8613623565b5b6136c28261340a565b9050602081019050919050565b82818337600083830152505050565b60006136f16136ec8461369e565b613683565b90508281526020810184848401111561370d5761370c61361e565b5b6137188482856136cf565b509392505050565b600082601f83011261373557613734613619565b5b81356137458482602086016136de565b91505092915050565b600080fd5b600080fd5b60006060828403121561376e5761376d61374e565b5b6137786060613683565b9050600082013567ffffffffffffffff81111561379857613797613753565b5b6137a484828501613720565b600083015250602082013567ffffffffffffffff8111156137c8576137c7613753565b5b6137d484828501613720565b602083015250604082013567ffffffffffffffff8111156137f8576137f7613753565b5b61380484828501613720565b60408301525092915050565b60008060408385031215613827576138266135ac565b5b600083013567ffffffffffffffff811115613845576138446135b1565b5b61385185828601613720565b925050602083013567ffffffffffffffff811115613872576138716135b1565b5b61387e85828601613758565b9150509250929050565b6000610100828403121561389f5761389e61374e565b5b6138aa610100613683565b9050600082013567ffffffffffffffff8111156138ca576138c9613753565b5b6138d684828501613720565b600083015250602082013567ffffffffffffffff8111156138fa576138f9613753565b5b61390684828501613720565b602083015250604082013567ffffffffffffffff81111561392a57613929613753565b5b61393684828501613720565b604083015250606082013567ffffffffffffffff81111561395a57613959613753565b5b61396684828501613720565b606083015250608082013567ffffffffffffffff81111561398a57613989613753565b5b61399684828501613720565b60808301525060a082013567ffffffffffffffff8111156139ba576139b9613753565b5b6139c684828501613720565b60a08301525060c082013567ffffffffffffffff8111156139ea576139e9613753565b5b6139f684828501613720565b60c08301525060e0613a0a848285016135d7565b60e08301525092915050565b60008060408385031215613a2d57613a2c6135ac565b5b600083013567ffffffffffffffff811115613a4b57613a4a6135b1565b5b613a5785828601613720565b925050602083013567ffffffffffffffff811115613a7857613a776135b1565b5b613a8485828601613888565b9150509250929050565b600060208284031215613aa457613aa36135ac565b5b600082013567ffffffffffffffff811115613ac257613ac16135b1565b5b613ace84828501613720565b91505092915050565b60006020820190508181036000830152613af1818461351d565b905092915050565b613b02816135b6565b82525050565b6000610100820190508181036000830152613b23818b61351d565b90508181036020830152613b37818a61351d565b90508181036040830152613b4b818961351d565b90508181036060830152613b5f818861351d565b90508181036080830152613b73818761351d565b905081810360a0830152613b87818661351d565b905081810360c0830152613b9b818561351d565b9050613baa60e0830184613af9565b9998505050505050505050565b60008115159050919050565b613bcc81613bb7565b82525050565b6000602082019050613be76000830184613bc3565b92915050565b600060208284031215613c0357613c026135ac565b5b600082013567ffffffffffffffff811115613c2157613c206135b1565b5b613c2d84828501613888565b91505092915050565b600081519050919050565b600082825260208201905092915050565b6000819050602082019050919050565b613c6b816135b6565b82525050565b6000613c7d8383613c62565b60208301905092915050565b6000602082019050919050565b6000613ca182613c36565b613cab8185613c41565b9350613cb683613c52565b8060005b83811015613ce7578151613cce8882613c71565b9750613cd983613c89565b925050600181019050613cba565b5085935050505092915050565b60006040820190508181036000830152613d0e8185613475565b90508181036020830152613d228184613c96565b90509392505050565b613d3481613bb7565b8114613d3f57600080fd5b50565b600081359050613d5181613d2b565b92915050565b600060e08284031215613d6d57613d6c61374e565b5b613d7760e0613683565b9050600082013567ffffffffffffffff811115613d9757613d96613753565b5b613da384828501613720565b600083015250602082013567ffffffffffffffff811115613dc757613dc6613753565b5b613dd384828501613720565b602083015250604082013567ffffffffffffffff811115613df757613df6613753565b5b613e0384828501613720565b604083015250606082013567ffffffffffffffff811115613e2757613e26613753565b5b613e3384828501613720565b606083015250608082013567ffffffffffffffff811115613e5757613e56613753565b5b613e6384828501613720565b60808301525060a082013567ffffffffffffffff811115613e8757613e86613753565b5b613e9384828501613720565b60a08301525060c0613ea784828501613d42565b60c08301525092915050565b60008060408385031215613eca57613ec96135ac565b5b600083013567ffffffffffffffff811115613ee857613ee76135b1565b5b613ef485828601613720565b925050602083013567ffffffffffffffff811115613f1557613f146135b1565b5b613f2185828601613d57565b9150509250929050565b600060208284031215613f4157613f406135ac565b5b600082013567ffffffffffffffff811115613f5f57613f5e6135b1565b5b613f6b84828501613d57565b91505092915050565b60008060408385031215613f8b57613f8a6135ac565b5b600083013567ffffffffffffffff811115613fa957613fa86135b1565b5b613fb585828601613720565b9250506020613fc6858286016135d7565b9150509250929050565b6000602082019050613fe56000830184613af9565b92915050565b600060208284031215614001576140006135ac565b5b600082013567ffffffffffffffff81111561401f5761401e6135b1565b5b61402b84828501613758565b91505092915050565b60008060006060848603121561404d5761404c6135ac565b5b600084013567ffffffffffffffff81111561406b5761406a6135b1565b5b61407786828701613720565b935050602084013567ffffffffffffffff811115614098576140976135b1565b5b6140a486828701613720565b92505060406140b5868287016135d7565b9150509250925092565b600060e08201905081810360008301526140d9818a61351d565b905081810360208301526140ed818961351d565b90508181036040830152614101818861351d565b90508181036060830152614115818761351d565b90508181036080830152614129818661351d565b905081810360a083015261413d818561351d565b905061414c60c0830184613bc3565b98975050505050505050565b6000806040838503121561416f5761416e6135ac565b5b600083013567ffffffffffffffff81111561418d5761418c6135b1565b5b61419985828601613720565b925050602083013567ffffffffffffffff8111156141ba576141b96135b1565b5b6141c685828601613720565b9150509250929050565b7f4e487b7100000000000000000000000000000000000000000000000000000000600052603260045260246000fd5b7f4e487b7100000000000000000000000000000000000000000000000000000000600052602260045260246000fd5b6000600282049050600182168061424657607f821691505b602082108103614259576142586141ff565b5b50919050565b7f4e487b7100000000000000000000000000000000000000000000000000000000600052601160045260246000fd5b6000614299826135b6565b91507fffffffffffffffffffffffffffffffffffffffffffffffffffffffffffffffff82036142cb576142ca61425f565b5b600182019050919050565b600081905092915050565b60006142ec826133bb565b6142f681856142d6565b93506143068185602086016133d7565b80840191505092915050565b600061431e82846142e1565b915081905092915050565b50565b60006143396000836142d6565b915061434482614329565b600082019050919050565b600061435a8261432c565b9150819050919050565b60008190508160005260206000209050919050565b600081546143868161422e565b61439081866142d6565b945060018216600081146143ab57600181146143bc576143ef565b60ff198316865281860193506143ef565b6143c585614364565b60005b838110156143e7578154818901526001820191506020810190506143c8565b838801955050505b50505092915050565b60006144048284614379565b91508190509291505056fea2646970667358221220708eb64c9b952769704890707215ad14418a24c4c416f9f69d562e7ea30fb53b64736f6c634300080d0033",
  "immutableReferences": {},
  "source": "// SPDX-License-Identifier: GPL-3.0\r\npragma solidity ^0.8.10;\r\npragma experimental ABIEncoderV2;\r\n\r\nstruct Admin {\r\n    string name;\r\n    string mobileNo;\r\n    string walletKey;\r\n}\r\n\r\nstruct ECI {\r\n    string name;\r\n    string mobileNo;\r\n    string walletKey;\r\n}\r\n\r\nstruct Voter {\r\n    string name;\r\n    string mobileNo;\r\n    string homeAddress;\r\n    string aadharCardNo;\r\n    string voterId;\r\n    string walletKey;\r\n    bool isVoted;\r\n\r\n}\r\n\r\nstruct Candidate {\r\n    string name; string mobileNo;\r\n    string homeAddress; string aadharCardNo; string voterId;\r\n    string walletKey; string politicalParty;\r\n    uint256 votes;\r\n}\r\n\r\ncontract BlockVote {\r\n    uint transactionHelper = 0;\r\n    string voterId_main=\"\";\r\n    Voter[] public voters;\r\n    Admin[] public admins;\r\n    Candidate[] public candidates;\r\n    string votingPhase = \"preVoting\"; // Voting, Result\r\n\r\n    function areStringsEqual(string memory s1, string memory s2) public pure returns(bool){\r\n        if(keccak256(abi.encodePacked(s1)) == keccak256(abi.encodePacked((s2)))) return true;\r\n        else return false;\r\n    }\r\n    \r\n    // walletKey : voterId\r\n    mapping(string=>string) public map_walletKey_voterid;\r\n\r\n    // voterid : Voter;\r\n    mapping(string=>Voter) public map_voterid_details;\r\n    function setMapVoterDetails(string memory _voterid, Voter memory v) public {\r\n        map_voterid_details[_voterid] = v;\r\n        map_walletKey_voterid[v.walletKey] = v.voterId;\r\n    }\r\n\r\n    function hasVoted(string memory _voterid) public view returns(bool){\r\n        return map_voterid_details[_voterid].isVoted;\r\n    }\r\n\r\n    // Voter ////////////////////////////////////////// \r\n    function isVoterRegistered(Voter memory item) public view returns(bool) {\r\n        if(keccak256(abi.encodePacked((map_voterid_details[item.voterId].name))) != keccak256(abi.encodePacked((\"\")))) return true;\r\n        else return false;\r\n    }\r\n    function addVoter(Voter memory item) public returns(string memory) {\r\n        if(!isVoterRegistered(item) && !areStringsEqual(votingPhase,\"Result\")) {\r\n            voters.push(item);\r\n            return \"user added\";\r\n        }\r\n        else return \"user already exists\";\r\n            \r\n    }\r\n\r\n    function getVoterId(string memory _walletKey) public returns(string memory) {\r\n        voterId_main = map_walletKey_voterid[_walletKey];\r\n        return voterId_main;\r\n    }\r\n\r\n    function setVoterId(string memory _voterid) public {\r\n        voterId_main = _voterid;\r\n    }\r\n\r\n    function voterLength() public view returns(uint) {\r\n        return voters.length;\r\n    }\r\n    /////////////////////////////////////////////////\r\n\r\n    // Admin /////////////////////////////////////////\r\n    \r\n    function addAdmin(Admin memory item) public {\r\n        if(!isAdminRegistered(item.walletKey) && !areStringsEqual(votingPhase,\"Result\"))\r\n            admins.push(item);\r\n            addToAdminsMap(item.walletKey, item);\r\n    }\r\n\r\n    mapping(string=>Admin) public adminsMap;\r\n    function addToAdminsMap(string memory walletKey, Admin memory a) public {\r\n        adminsMap[walletKey] = a;\r\n    }\r\n\r\n    function isAdminRegistered(string memory _walletKey) public view returns(bool){\r\n        if(keccak256(abi.encodePacked((adminsMap[_walletKey].name))) != keccak256(abi.encodePacked((\"\")))) return true;\r\n        else return false;\r\n    }\r\n\r\n    function authenticateAdmin(string memory _walletKey) public view returns(bool){\r\n        if(isAdminRegistered(_walletKey)) return true;\r\n        else return false;\r\n    }\r\n\r\n    function adminLength() public view returns(uint) {\r\n        return admins.length;\r\n    }\r\n    ////////////////////////////////////////////////////\r\n\r\n\r\n    // Candidate ///////////////////////////////////////\r\n\r\n    function isCandidateRegistered(string memory _walletKey) public view returns(bool){\r\n        if(keccak256(abi.encodePacked((candidatesMap[_walletKey].name))) != keccak256(abi.encodePacked((\"\")))) return true;\r\n        else return false;\r\n    }\r\n\r\n    function addCandidate(Candidate memory item) public {\r\n        if(!isCandidateRegistered(item.walletKey) && areStringsEqual(votingPhase,\"preVoting\"))\r\n            candidates.push(item);\r\n    }\r\n\r\n    mapping(string=>Candidate) public candidatesMap;\r\n    function addToCandidatesMap(string memory walletKey, Candidate memory c) public {\r\n        candidatesMap[walletKey] = c;\r\n    }\r\n    string[] public candidate_names;\r\n    function getCandidates() public returns(string[] memory) {\r\n        for(uint256 i=0;i<candidates.length;i++) {\r\n        candidate_names.push(candidates[i].name);\r\n        }\r\n        return candidate_names;\r\n    }\r\n\r\n    ////////////////////////////////////////////////////\r\n\r\n\r\n    // Results ////////////////////////////////////////////////////////\r\n    /* returns (candidates, votes), receives object with 2 keys (0 : candidates array, 1 : votes array)\r\n    */\r\n    string[] public _candidates;\r\n    uint256[] public _votes;\r\n    function getResults() public returns(string[] memory, uint256[] memory) {\r\n        if(areStringsEqual(votingPhase, \"Result\")){\r\n            for(uint256 i=0;i<candidates.length;i++) {\r\n                _candidates.push(candidates[i].name);\r\n                _votes.push(candidates[i].votes);\r\n            }    \r\n        }\r\n        return (_candidates, _votes);\r\n    }\r\n    ////////////////////////////////////////////////////////////////////\r\n    // Vote /////////////////////////////////////////////////////////////\r\n    function vote(string memory _voterId, string memory _walletKey, uint256 choice) public returns(bool) {\r\n        if(areStringsEqual(map_voterid_details[_voterId].walletKey, _walletKey)) {\r\n            if(!map_voterid_details[_voterId].isVoted) {\r\n                candidates[choice].votes++;\r\n                map_voterid_details[_voterId].isVoted = true;\r\n                for(uint256 i=0;i<voters.length;i++) {\r\n                    if(areStringsEqual(voters[i].voterId, _voterId)){\r\n                        voters[i].isVoted = true;\r\n                        break;\r\n                    }\r\n                }\r\n                return true;\r\n            }\r\n            return false;\r\n        }\r\n        return false;\r\n    }\r\n\r\n    function voteThroughAdmin(string memory _voterId, uint256 choice) public returns(bool) {\r\n        if(!map_voterid_details[_voterId].isVoted) {\r\n            candidates[choice].votes++;\r\n            map_voterid_details[_voterId].isVoted = true;\r\n            for(uint256 i=0;i<voters.length;i++) {\r\n                if(areStringsEqual(voters[i].voterId, _voterId)){\r\n                    voters[i].isVoted = true;\r\n                    break;\r\n                }\r\n            }\r\n            return true;\r\n        }\r\n        return false;\r\n    }\r\n\r\n    /////////////////////////////////////////////////////////////////////\r\n}\r\n\r\ncontract AdminCon is BlockVote{\r\n    Admin public a;\r\n\r\n    constructor(string memory _name, string memory _mobileNo, string memory  _walletKey) {\r\n        a.name = _name;\r\n        a.mobileNo = _mobileNo;\r\n        a.walletKey = _walletKey;\r\n        addAdmin(a);\r\n        addToAdminsMap(_walletKey,a);\r\n    }\r\n\r\n}\r\n\r\ncontract ECICon is BlockVote {\r\n    Admin public e;\r\n\r\n    constructor() {\r\n        e.name = \"ECI\";\r\n        e.mobileNo = \"9876543210\";\r\n        e.walletKey = \"0xB663Fde35c596E597A5660de6728b4bC302cb677\";\r\n    }\r\n\r\n    function getECI() public view returns(string memory) {\r\n       return e.walletKey;\r\n    }\r\n\r\n    function authenticateECI(string memory _walletKey) public pure returns(bool) {\r\n        if(keccak256(abi.encodePacked(_walletKey)) == keccak256(abi.encodePacked((\"0xB663Fde35c596E597A5660de6728b4bC302cb677\")))) return true;\r\n        else return false;\r\n    }\r\n\r\n    function setAdmin(string memory _name, string memory _mobileNo, string memory _walletKey) public {\r\n        Admin memory newAdmin = Admin({\r\n            name:_name, \r\n            mobileNo:_mobileNo,\r\n            walletKey:_walletKey\r\n        });\r\n        addAdmin(newAdmin);\r\n\r\n    }\r\n\r\n    function startVoting() public {\r\n        votingPhase = \"Voting\";\r\n    }\r\n\r\n    function endVoting() public {\r\n        votingPhase = \"Result\";\r\n    }\r\n}\r\n\r\ncontract VoterCon is BlockVote {\r\n    Voter public v;\r\n    \r\n    constructor(string memory _name, string memory _mobileNo, string memory _homeAddress,\r\n     string memory _aadharCardNo, string memory _voterId, string memory _walletKey) {\r\n        v.name = _name;\r\n        v.mobileNo = _mobileNo;\r\n        v.homeAddress = _homeAddress;\r\n        v.aadharCardNo = _aadharCardNo;\r\n        v.voterId = _voterId;\r\n        v.walletKey = _walletKey;\r\n        v.isVoted = false;\r\n        addVoter(v);\r\n        setMapVoterDetails(_voterId, v);\r\n     }\r\n}\r\n\r\ncontract CandidateCon is BlockVote {\r\n    Candidate public c;\r\n\r\n    constructor(string memory _name, string memory _mobileNo, string memory _homeAddress,\r\n     string memory _aadharCardNo, string memory _voterId, string memory _walletKey, string memory _politicalParty) {\r\n        c.name = _name;\r\n        c.mobileNo = _mobileNo;\r\n        c.homeAddress = _homeAddress;\r\n        c.aadharCardNo = _aadharCardNo;\r\n        c.voterId = _voterId;\r\n        c.walletKey = _walletKey;\r\n        c.politicalParty = _politicalParty;\r\n        c.votes = 0;\r\n        addCandidate(c);\r\n        addToCandidatesMap(_walletKey, c);\r\n    }\r\n}",
  "sourcePath": "E:\\BlockVote\\contracts\\BlockVote.sol",
  "compiler": {
    "name": "solc",
    "version": "0.8.13+commit.abaa5c0e.Emscripten.clang"
  },
  "schemaVersion": "3.4.4",
  "updatedAt": "2022-03-28T17:37:50.784Z",
  "devdoc": {
    "kind": "dev",
    "methods": {},
    "version": 1
  },
  "userdoc": {
    "kind": "user",
    "methods": {},
    "version": 1
  }
}