{
  "contractName": "BlockVote",
  "abi": [
    {
      "inputs": [
        {
          "internalType": "uint256",
          "name": "",
          "type": "uint256"
        }
      ],
      "name": "Admins",
      "outputs": [
        {
          "internalType": "string",
          "name": "name",
          "type": "string"
        },
        {
          "internalType": "string",
          "name": "mobileNo",
          "type": "string"
        },
        {
          "internalType": "string",
          "name": "walletKey",
          "type": "string"
        }
      ],
      "stateMutability": "view",
      "type": "function",
      "constant": true
    },
    {
      "inputs": [
        {
          "internalType": "uint256",
          "name": "",
          "type": "uint256"
        }
      ],
      "name": "Candidates",
      "outputs": [
        {
          "internalType": "string",
          "name": "name",
          "type": "string"
        },
        {
          "internalType": "string",
          "name": "mobileNo",
          "type": "string"
        },
        {
          "internalType": "string",
          "name": "homeAddress",
          "type": "string"
        },
        {
          "internalType": "string",
          "name": "aadharCardNo",
          "type": "string"
        },
        {
          "internalType": "string",
          "name": "voterId",
          "type": "string"
        },
        {
          "internalType": "string",
          "name": "walletKey",
          "type": "string"
        },
        {
          "internalType": "string",
          "name": "politicalParty",
          "type": "string"
        },
        {
          "internalType": "uint256",
          "name": "votes",
          "type": "uint256"
        },
        {
          "internalType": "string",
          "name": "symbolUrl",
          "type": "string"
        }
      ],
      "stateMutability": "view",
      "type": "function",
      "constant": true
    },
    {
      "inputs": [],
      "name": "ECI",
      "outputs": [
        {
          "internalType": "string",
          "name": "name",
          "type": "string"
        },
        {
          "internalType": "string",
          "name": "mobileNo",
          "type": "string"
        },
        {
          "internalType": "string",
          "name": "walletKey",
          "type": "string"
        }
      ],
      "stateMutability": "view",
      "type": "function",
      "constant": true
    },
    {
      "inputs": [],
      "name": "NOTA",
      "outputs": [
        {
          "internalType": "string",
          "name": "name",
          "type": "string"
        },
        {
          "internalType": "string",
          "name": "mobileNo",
          "type": "string"
        },
        {
          "internalType": "string",
          "name": "homeAddress",
          "type": "string"
        },
        {
          "internalType": "string",
          "name": "aadharCardNo",
          "type": "string"
        },
        {
          "internalType": "string",
          "name": "voterId",
          "type": "string"
        },
        {
          "internalType": "string",
          "name": "walletKey",
          "type": "string"
        },
        {
          "internalType": "string",
          "name": "politicalParty",
          "type": "string"
        },
        {
          "internalType": "uint256",
          "name": "votes",
          "type": "uint256"
        },
        {
          "internalType": "string",
          "name": "symbolUrl",
          "type": "string"
        }
      ],
      "stateMutability": "view",
      "type": "function",
      "constant": true
    },
    {
      "inputs": [
        {
          "internalType": "uint256",
          "name": "",
          "type": "uint256"
        }
      ],
      "name": "Voters",
      "outputs": [
        {
          "internalType": "string",
          "name": "name",
          "type": "string"
        },
        {
          "internalType": "string",
          "name": "mobileNo",
          "type": "string"
        },
        {
          "internalType": "string",
          "name": "homeAddress",
          "type": "string"
        },
        {
          "internalType": "string",
          "name": "aadharCardNo",
          "type": "string"
        },
        {
          "internalType": "string",
          "name": "voterId",
          "type": "string"
        },
        {
          "internalType": "string",
          "name": "walletKey",
          "type": "string"
        },
        {
          "internalType": "bool",
          "name": "isVoted",
          "type": "bool"
        }
      ],
      "stateMutability": "view",
      "type": "function",
      "constant": true
    },
    {
      "inputs": [
        {
          "internalType": "uint256",
          "name": "",
          "type": "uint256"
        }
      ],
      "name": "_candidates",
      "outputs": [
        {
          "internalType": "string",
          "name": "",
          "type": "string"
        }
      ],
      "stateMutability": "view",
      "type": "function",
      "constant": true
    },
    {
      "inputs": [
        {
          "internalType": "uint256",
          "name": "",
          "type": "uint256"
        }
      ],
      "name": "_symbolUrls",
      "outputs": [
        {
          "internalType": "string",
          "name": "",
          "type": "string"
        }
      ],
      "stateMutability": "view",
      "type": "function",
      "constant": true
    },
    {
      "inputs": [
        {
          "internalType": "uint256",
          "name": "",
          "type": "uint256"
        }
      ],
      "name": "_votes",
      "outputs": [
        {
          "internalType": "uint256",
          "name": "",
          "type": "uint256"
        }
      ],
      "stateMutability": "view",
      "type": "function",
      "constant": true
    },
    {
      "inputs": [
        {
          "internalType": "uint256",
          "name": "",
          "type": "uint256"
        }
      ],
      "name": "candidate_names",
      "outputs": [
        {
          "internalType": "string",
          "name": "",
          "type": "string"
        }
      ],
      "stateMutability": "view",
      "type": "function",
      "constant": true
    },
    {
      "inputs": [
        {
          "internalType": "uint256",
          "name": "",
          "type": "uint256"
        }
      ],
      "name": "candidate_urls",
      "outputs": [
        {
          "internalType": "string",
          "name": "",
          "type": "string"
        }
      ],
      "stateMutability": "view",
      "type": "function",
      "constant": true
    },
    {
      "inputs": [
        {
          "internalType": "string",
          "name": "",
          "type": "string"
        }
      ],
      "name": "candidatesMap",
      "outputs": [
        {
          "internalType": "string",
          "name": "name",
          "type": "string"
        },
        {
          "internalType": "string",
          "name": "mobileNo",
          "type": "string"
        },
        {
          "internalType": "string",
          "name": "homeAddress",
          "type": "string"
        },
        {
          "internalType": "string",
          "name": "aadharCardNo",
          "type": "string"
        },
        {
          "internalType": "string",
          "name": "voterId",
          "type": "string"
        },
        {
          "internalType": "string",
          "name": "walletKey",
          "type": "string"
        },
        {
          "internalType": "string",
          "name": "politicalParty",
          "type": "string"
        },
        {
          "internalType": "uint256",
          "name": "votes",
          "type": "uint256"
        },
        {
          "internalType": "string",
          "name": "symbolUrl",
          "type": "string"
        }
      ],
      "stateMutability": "view",
      "type": "function",
      "constant": true
    },
    {
      "inputs": [
        {
          "internalType": "string",
          "name": "",
          "type": "string"
        }
      ],
      "name": "mapWalletKey2Admin",
      "outputs": [
        {
          "internalType": "string",
          "name": "name",
          "type": "string"
        },
        {
          "internalType": "string",
          "name": "mobileNo",
          "type": "string"
        },
        {
          "internalType": "string",
          "name": "walletKey",
          "type": "string"
        }
      ],
      "stateMutability": "view",
      "type": "function",
      "constant": true
    },
    {
      "inputs": [
        {
          "internalType": "string",
          "name": "",
          "type": "string"
        }
      ],
      "name": "map_voterid_details",
      "outputs": [
        {
          "internalType": "string",
          "name": "name",
          "type": "string"
        },
        {
          "internalType": "string",
          "name": "mobileNo",
          "type": "string"
        },
        {
          "internalType": "string",
          "name": "homeAddress",
          "type": "string"
        },
        {
          "internalType": "string",
          "name": "aadharCardNo",
          "type": "string"
        },
        {
          "internalType": "string",
          "name": "voterId",
          "type": "string"
        },
        {
          "internalType": "string",
          "name": "walletKey",
          "type": "string"
        },
        {
          "internalType": "bool",
          "name": "isVoted",
          "type": "bool"
        }
      ],
      "stateMutability": "view",
      "type": "function",
      "constant": true
    },
    {
      "inputs": [
        {
          "internalType": "string",
          "name": "",
          "type": "string"
        }
      ],
      "name": "map_walletKey_voterid",
      "outputs": [
        {
          "internalType": "string",
          "name": "",
          "type": "string"
        }
      ],
      "stateMutability": "view",
      "type": "function",
      "constant": true
    },
    {
      "inputs": [],
      "name": "startVoting",
      "outputs": [],
      "stateMutability": "nonpayable",
      "type": "function"
    },
    {
      "inputs": [],
      "name": "endVoting",
      "outputs": [],
      "stateMutability": "nonpayable",
      "type": "function"
    },
    {
      "inputs": [],
      "name": "getElectionStatus",
      "outputs": [
        {
          "internalType": "string",
          "name": "",
          "type": "string"
        }
      ],
      "stateMutability": "view",
      "type": "function",
      "constant": true
    },
    {
      "inputs": [],
      "name": "getAddAdminState",
      "outputs": [
        {
          "internalType": "uint256",
          "name": "",
          "type": "uint256"
        }
      ],
      "stateMutability": "view",
      "type": "function",
      "constant": true
    },
    {
      "inputs": [
        {
          "internalType": "string",
          "name": "_walletKey",
          "type": "string"
        }
      ],
      "name": "authenticateECI",
      "outputs": [
        {
          "internalType": "bool",
          "name": "",
          "type": "bool"
        }
      ],
      "stateMutability": "view",
      "type": "function",
      "constant": true
    },
    {
      "inputs": [
        {
          "internalType": "string",
          "name": "ECI_Key",
          "type": "string"
        },
        {
          "internalType": "string",
          "name": "adName",
          "type": "string"
        },
        {
          "internalType": "string",
          "name": "adMoNo",
          "type": "string"
        },
        {
          "internalType": "string",
          "name": "adEthKey",
          "type": "string"
        }
      ],
      "name": "addAdmin",
      "outputs": [],
      "stateMutability": "nonpayable",
      "type": "function"
    },
    {
      "inputs": [],
      "name": "adminLength",
      "outputs": [
        {
          "internalType": "uint256",
          "name": "",
          "type": "uint256"
        }
      ],
      "stateMutability": "view",
      "type": "function",
      "constant": true
    },
    {
      "inputs": [],
      "name": "getAllAdmins",
      "outputs": [
        {
          "components": [
            {
              "internalType": "string",
              "name": "name",
              "type": "string"
            },
            {
              "internalType": "string",
              "name": "mobileNo",
              "type": "string"
            },
            {
              "internalType": "string",
              "name": "walletKey",
              "type": "string"
            }
          ],
          "internalType": "struct Admin[]",
          "name": "",
          "type": "tuple[]"
        }
      ],
      "stateMutability": "view",
      "type": "function",
      "constant": true
    },
    {
      "inputs": [
        {
          "internalType": "string",
          "name": "_walletKey",
          "type": "string"
        }
      ],
      "name": "authenticateAdmin",
      "outputs": [
        {
          "internalType": "bool",
          "name": "",
          "type": "bool"
        }
      ],
      "stateMutability": "view",
      "type": "function",
      "constant": true
    },
    {
      "inputs": [],
      "name": "getAddVoterState",
      "outputs": [
        {
          "internalType": "uint256",
          "name": "",
          "type": "uint256"
        }
      ],
      "stateMutability": "view",
      "type": "function",
      "constant": true
    },
    {
      "inputs": [
        {
          "internalType": "string",
          "name": "_name",
          "type": "string"
        },
        {
          "internalType": "string",
          "name": "_mobileNo",
          "type": "string"
        },
        {
          "internalType": "string",
          "name": "_homeAddress",
          "type": "string"
        },
        {
          "internalType": "string",
          "name": "_aadharCardNo",
          "type": "string"
        },
        {
          "internalType": "string",
          "name": "_voterId",
          "type": "string"
        },
        {
          "internalType": "string",
          "name": "_walletKey",
          "type": "string"
        }
      ],
      "name": "addVoter",
      "outputs": [],
      "stateMutability": "nonpayable",
      "type": "function"
    },
    {
      "inputs": [
        {
          "internalType": "string",
          "name": "_walletKey",
          "type": "string"
        }
      ],
      "name": "getAllVoters",
      "outputs": [
        {
          "internalType": "string",
          "name": "",
          "type": "string"
        }
      ],
      "stateMutability": "view",
      "type": "function",
      "constant": true
    },
    {
      "inputs": [
        {
          "internalType": "string",
          "name": "_voterid",
          "type": "string"
        }
      ],
      "name": "hasVoted",
      "outputs": [
        {
          "internalType": "bool",
          "name": "",
          "type": "bool"
        }
      ],
      "stateMutability": "view",
      "type": "function",
      "constant": true
    },
    {
      "inputs": [
        {
          "components": [
            {
              "internalType": "string",
              "name": "name",
              "type": "string"
            },
            {
              "internalType": "string",
              "name": "mobileNo",
              "type": "string"
            },
            {
              "internalType": "string",
              "name": "homeAddress",
              "type": "string"
            },
            {
              "internalType": "string",
              "name": "aadharCardNo",
              "type": "string"
            },
            {
              "internalType": "string",
              "name": "voterId",
              "type": "string"
            },
            {
              "internalType": "string",
              "name": "walletKey",
              "type": "string"
            },
            {
              "internalType": "bool",
              "name": "isVoted",
              "type": "bool"
            }
          ],
          "internalType": "struct Voter",
          "name": "item",
          "type": "tuple"
        }
      ],
      "name": "isVoterRegistered",
      "outputs": [
        {
          "internalType": "bool",
          "name": "",
          "type": "bool"
        }
      ],
      "stateMutability": "view",
      "type": "function",
      "constant": true
    },
    {
      "inputs": [
        {
          "internalType": "string",
          "name": "_walletKey",
          "type": "string"
        }
      ],
      "name": "authenticateVoter",
      "outputs": [
        {
          "internalType": "bool",
          "name": "",
          "type": "bool"
        }
      ],
      "stateMutability": "nonpayable",
      "type": "function"
    },
    {
      "inputs": [
        {
          "internalType": "string",
          "name": "_walletKey",
          "type": "string"
        }
      ],
      "name": "getVoterId",
      "outputs": [
        {
          "internalType": "string",
          "name": "",
          "type": "string"
        }
      ],
      "stateMutability": "nonpayable",
      "type": "function"
    },
    {
      "inputs": [
        {
          "internalType": "string",
          "name": "_voterid",
          "type": "string"
        }
      ],
      "name": "setVoterId",
      "outputs": [],
      "stateMutability": "nonpayable",
      "type": "function"
    },
    {
      "inputs": [],
      "name": "voterLength",
      "outputs": [
        {
          "internalType": "uint256",
          "name": "",
          "type": "uint256"
        }
      ],
      "stateMutability": "view",
      "type": "function",
      "constant": true
    },
    {
      "inputs": [
        {
          "internalType": "string",
          "name": "_voterid",
          "type": "string"
        }
      ],
      "name": "getVoterMobileNumber",
      "outputs": [
        {
          "internalType": "string",
          "name": "",
          "type": "string"
        }
      ],
      "stateMutability": "view",
      "type": "function",
      "constant": true
    },
    {
      "inputs": [
        {
          "internalType": "string",
          "name": "_name",
          "type": "string"
        },
        {
          "internalType": "string",
          "name": "_mobileNo",
          "type": "string"
        },
        {
          "internalType": "string",
          "name": "_homeAddress",
          "type": "string"
        },
        {
          "internalType": "string",
          "name": "_aadharCardNo",
          "type": "string"
        },
        {
          "internalType": "string",
          "name": "_voterId",
          "type": "string"
        },
        {
          "internalType": "string",
          "name": "_walletKey",
          "type": "string"
        },
        {
          "internalType": "string",
          "name": "_politicalParty",
          "type": "string"
        },
        {
          "internalType": "string",
          "name": "_symbolUrl",
          "type": "string"
        }
      ],
      "name": "addCandidate",
      "outputs": [],
      "stateMutability": "nonpayable",
      "type": "function"
    },
    {
      "inputs": [
        {
          "internalType": "string",
          "name": "_walletKey",
          "type": "string"
        }
      ],
      "name": "isCandidateRegistered",
      "outputs": [
        {
          "internalType": "bool",
          "name": "",
          "type": "bool"
        }
      ],
      "stateMutability": "view",
      "type": "function",
      "constant": true
    },
    {
      "inputs": [],
      "name": "getCandidates",
      "outputs": [
        {
          "internalType": "string[]",
          "name": "",
          "type": "string[]"
        }
      ],
      "stateMutability": "nonpayable",
      "type": "function"
    },
    {
      "inputs": [],
      "name": "getUrls",
      "outputs": [
        {
          "internalType": "string[]",
          "name": "",
          "type": "string[]"
        }
      ],
      "stateMutability": "nonpayable",
      "type": "function"
    },
    {
      "inputs": [],
      "name": "getResults",
      "outputs": [
        {
          "internalType": "string[]",
          "name": "",
          "type": "string[]"
        },
        {
          "internalType": "uint256[]",
          "name": "",
          "type": "uint256[]"
        },
        {
          "internalType": "string[]",
          "name": "",
          "type": "string[]"
        }
      ],
      "stateMutability": "nonpayable",
      "type": "function"
    },
    {
      "inputs": [],
      "name": "setVoteState",
      "outputs": [],
      "stateMutability": "nonpayable",
      "type": "function"
    },
    {
      "inputs": [],
      "name": "getVoteState",
      "outputs": [
        {
          "internalType": "uint256",
          "name": "",
          "type": "uint256"
        }
      ],
      "stateMutability": "view",
      "type": "function",
      "constant": true
    },
    {
      "inputs": [
        {
          "internalType": "string",
          "name": "_voterId",
          "type": "string"
        },
        {
          "internalType": "string",
          "name": "_walletKey",
          "type": "string"
        },
        {
          "internalType": "uint256",
          "name": "choice",
          "type": "uint256"
        }
      ],
      "name": "vote",
      "outputs": [
        {
          "internalType": "string",
          "name": "",
          "type": "string"
        }
      ],
      "stateMutability": "nonpayable",
      "type": "function"
    },
    {
      "inputs": [],
      "name": "getVoteThroughAdminState",
      "outputs": [
        {
          "internalType": "uint256",
          "name": "",
          "type": "uint256"
        }
      ],
      "stateMutability": "view",
      "type": "function",
      "constant": true
    },
    {
      "inputs": [
        {
          "internalType": "string",
          "name": "_voterId",
          "type": "string"
        },
        {
          "internalType": "uint256",
          "name": "choice",
          "type": "uint256"
        }
      ],
      "name": "voteThroughAdmin",
      "outputs": [
        {
          "internalType": "string",
          "name": "",
          "type": "string"
        }
      ],
      "stateMutability": "nonpayable",
      "type": "function"
    },
    {
      "inputs": [
        {
          "internalType": "string",
          "name": "S1",
          "type": "string"
        },
        {
          "internalType": "string",
          "name": "S2",
          "type": "string"
        }
      ],
      "name": "areStringsEqual",
      "outputs": [
        {
          "internalType": "bool",
          "name": "",
          "type": "bool"
        }
      ],
      "stateMutability": "pure",
      "type": "function",
      "constant": true
    },
    {
      "inputs": [],
      "name": "sampleValue",
      "outputs": [
        {
          "internalType": "uint256",
          "name": "",
          "type": "uint256"
        }
      ],
      "stateMutability": "pure",
      "type": "function",
      "constant": true
    }
  ],
  "bytecode": "0x608060405260405180606001604052806040518060400160405280600c81526020017f4543495f4f6666696369616c000000000000000000000000000000000000000081525081526020016040518060400160405280600a81526020017f313233343536373839300000000000000000000000000000000000000000000081525081526020016040518060600160405280602a8152602001620060b7602a9139815250600080820151816000019080519060200190620000c1929190620003f8565b506020820151816001019080519060200190620000e0929190620003f8565b506040820151816002019080519060200190620000ff929190620003f8565b5050506040518061012001604052806040518060400160405280600481526020017f4e4f54410000000000000000000000000000000000000000000000000000000081525081526020016040518060200160405280600081525081526020016040518060200160405280600081525081526020016040518060200160405280600081525081526020016040518060400160405280600481526020017f4e4f54410000000000000000000000000000000000000000000000000000000081525081526020016040518060400160405280600481526020017f4e4f54410000000000000000000000000000000000000000000000000000000081525081526020016040518060400160405280600481526020017f4e4f5441000000000000000000000000000000000000000000000000000000008152508152602001600081526020016040518060600160405280603b8152602001620060e1603b9139815250600360008201518160000190805190602001906200027d929190620003f8565b5060208201518160010190805190602001906200029c929190620003f8565b506040820151816002019080519060200190620002bb929190620003f8565b506060820151816003019080519060200190620002da929190620003f8565b506080820151816004019080519060200190620002f9929190620003f8565b5060a082015181600501908051906020019062000318929190620003f8565b5060c082015181600601908051906020019062000337929190620003f8565b5060e0820151816007015561010082015181600801908051906020019062000361929190620003f8565b50505060405180602001604052806000815250600c90805190602001906200038b929190620003f8565b506040518060400160405280600981526020017f707265566f74696e67000000000000000000000000000000000000000000000081525060169080519060200190620003d9929190620003f8565b506000601d556000601e55348015620003f157600080fd5b506200050c565b8280546200040690620004d7565b90600052602060002090601f0160209004810192826200042a576000855562000476565b82601f106200044557805160ff191683800117855562000476565b8280016001018555821562000476579182015b828111156200047557825182559160200191906001019062000458565b5b50905062000485919062000489565b5090565b5b80821115620004a45760008160009055506001016200048a565b5090565b7f4e487b7100000000000000000000000000000000000000000000000000000000600052602260045260246000fd5b60006002820490506001821680620004f057607f821691505b602082108103620005065762000505620004a8565b5b50919050565b615b9b806200051c6000396000f3fe608060405234801561001057600080fd5b506004361061027f5760003560e01c80637a4c96ad1161015c578063ab9c7fa4116100ce578063da06e07f11610087578063da06e07f14610884578063e9523c97146108a2578063eb03cd22146108c0578063ecfb02fb146108f0578063f3725146146108fa578063f6249c04146109325761027f565b8063ab9c7fa414610796578063aebd20f0146107b4578063b1496cd4146107ea578063bea488941461081a578063c3403ddf1461084a578063c4082bea146108545761027f565b80639f89a4b2116101205780639f89a4b21461069a578063a3a8908d146106cc578063a5a75248146106fe578063a69945fb1461072e578063a72540511461075e578063a7d27b031461077a5761027f565b80637a4c96ad146105b85780637d112d64146105e85780638a25d072146106185780639c35d98b146106345780639f6e5e6d1461066a5761027f565b80634fbe75c1116101f5578063565e802a116101b9578063565e802a146104de5780635982f6101461050e578063609b62581461052c578063622eaa141461054a578063648a305a1461056a5780637820d3841461059a5761027f565b80634fbe75c1146103f85780635097086f146104285780635143eda41461045857806351b090651461048857806354c8a386146104b85761027f565b80631ec6b60a116102475780631ec6b60a14610318578063290e9212146103225780632ec660431461035a57806339bfeae31461038a5780634717f97c146103ba578063481edc12146103da5761027f565b806301ceb30a1461028457806306a49fce146102a2578063077e7856146102c0578063122902a6146102de57806313bad72f146102fc575b600080fd5b61028c610962565b6040516102999190614ac6565b60405180910390f35b6102aa61096c565b6040516102b79190614c3c565b60405180910390f35b6102c8610acd565b6040516102d59190614ac6565b60405180910390f35b6102e6610ad7565b6040516102f39190614ca8565b60405180910390f35b61031660048036038101906103119190614e13565b610b69565b005b610320610e20565b005b61033c60048036038101906103379190614fd5565b610fa7565b60405161035199989796959493929190615002565b60405180910390f35b610374600480360381019061036f91906150c7565b611445565b6040516103819190614ca8565b60405180910390f35b6103a4600480360381019061039f91906150c7565b6114fb565b6040516103b1919061512b565b60405180910390f35b6103c2611533565b6040516103d193929190615204565b60405180910390f35b6103e261194a565b6040516103ef9190614ac6565b60405180910390f35b610412600480360381019061040d91906153e2565b611954565b60405161041f919061512b565b60405180910390f35b610442600480360381019061043d919061542b565b611a33565b60405161044f9190614ca8565b60405180910390f35b610472600480360381019061046d9190614fd5565b611d7e565b60405161047f9190614ca8565b60405180910390f35b6104a2600480360381019061049d9190614fd5565b611e2a565b6040516104af9190614ca8565b60405180910390f35b6104c0611ed6565b6040516104d599989796959493929190615002565b60405180910390f35b6104f860048036038101906104f391906150c7565b612352565b604051610505919061512b565b60405180910390f35b61051661242d565b6040516105239190614ac6565b60405180910390f35b61053461243a565b6040516105419190614ac6565b60405180910390f35b610552612443565b60405161056193929190615487565b60405180910390f35b610584600480360381019061057f9190614fd5565b6125f3565b6040516105919190614ca8565b60405180910390f35b6105a261269f565b6040516105af9190614ac6565b60405180910390f35b6105d260048036038101906105cd91906154d3565b6126ac565b6040516105df9190614ca8565b60405180910390f35b61060260048036038101906105fd91906150c7565b612ad0565b60405161060f919061512b565b60405180910390f35b610632600480360381019061062d919061555e565b612bb3565b005b61064e60048036038101906106499190614fd5565b612e56565b6040516106619796959493929190615635565b60405180910390f35b610684600480360381019061067f9190614fd5565b6131e5565b6040516106919190614ca8565b60405180910390f35b6106b460048036038101906106af9190614fd5565b613291565b6040516106c393929190615487565b60405180910390f35b6106e660048036038101906106e191906150c7565b613463565b6040516106f593929190615487565b60405180910390f35b610718600480360381019061071391906150c7565b61363b565b6040516107259190614ca8565b60405180910390f35b610748600480360381019061074391906150c7565b6136eb565b604051610755919061512b565b60405180910390f35b610778600480360381019061077391906156ce565b6137c6565b005b610794600480360381019061078f91906150c7565b613a53565b005b61079e613a6d565b6040516107ab9190614ac6565b60405180910390f35b6107ce60048036038101906107c991906150c7565b613a77565b6040516107e19796959493929190615635565b60405180910390f35b61080460048036038101906107ff9190615803565b613e0c565b604051610811919061512b565b60405180910390f35b610834600480360381019061082f9190614fd5565b613e27565b6040516108419190614ac6565b60405180910390f35b610852613e4b565b005b61086e600480360381019061086991906150c7565b613e99565b60405161087b9190614ca8565b60405180910390f35b61088c613f4c565b6040516108999190614c3c565b60405180910390f35b6108aa6140ad565b6040516108b7919061599b565b60405180910390f35b6108da60048036038101906108d591906150c7565b6142c2565b6040516108e7919061512b565b60405180910390f35b6108f8614362565b005b610914600480360381019061090f91906150c7565b61436c565b60405161092999989796959493929190615002565b60405180910390f35b61094c600480360381019061094791906150c7565b614810565b6040516109599190614ca8565b60405180910390f35b6000601854905090565b606060005b600f805490508110156109f5576010600f8281548110610994576109936159bd565b5b9060005260206000209060090201600001908060018154018082558091505060019003906000526020600020016000909190919091509080546109d690615a1b565b6109e19291906148f0565b5080806109ed90615a7b565b915050610971565b506010805480602002602001604051908101604052809291908181526020016000905b82821015610ac4578382906000526020600020018054610a3790615a1b565b80601f0160208091040260200160405190810160405280929190818152602001828054610a6390615a1b565b8015610ab05780601f10610a8557610100808354040283529160200191610ab0565b820191906000526020600020905b815481529060010190602001808311610a9357829003601f168201915b505050505081526020019060010190610a18565b50505050905090565b6000601e54905090565b606060168054610ae690615a1b565b80601f0160208091040260200160405190810160405280929190818152602001828054610b1290615a1b565b8015610b5f5780601f10610b3457610100808354040283529160200191610b5f565b820191906000526020600020905b815481529060010190602001808311610b4257829003601f168201915b5050505050905090565b60006040518061012001604052808a815260200189815260200188815260200187815260200186815260200185815260200184815260200160008152602001838152509050610bb784612352565b610e0c57600f8190806001815401808255809150506001900390600052602060002090600902016000909190919091506000820151816000019080519060200190610c0392919061497d565b506020820151816001019080519060200190610c2092919061497d565b506040820151816002019080519060200190610c3d92919061497d565b506060820151816003019080519060200190610c5a92919061497d565b506080820151816004019080519060200190610c7792919061497d565b5060a0820151816005019080519060200190610c9492919061497d565b5060c0820151816006019080519060200190610cb192919061497d565b5060e08201518160070155610100820151816008019080519060200190610cd992919061497d565b50505080601585604051610ced9190615aff565b90815260200160405180910390206000820151816000019080519060200190610d1792919061497d565b506020820151816001019080519060200190610d3492919061497d565b506040820151816002019080519060200190610d5192919061497d565b506060820151816003019080519060200190610d6e92919061497d565b506080820151816004019080519060200190610d8b92919061497d565b5060a0820151816005019080519060200190610da892919061497d565b5060c0820151816006019080519060200190610dc592919061497d565b5060e08201518160070155610100820151816008019080519060200190610ded92919061497d565b50905050610dff8989898989896137c6565b6001601981905550610e15565b60026019819055505b505050505050505050565b600f600390806001815401808255809150506001900390600052602060002090600902016000909190919091506000820181600001908054610e6190615a1b565b610e6c929190614a03565b506001820181600101908054610e8190615a1b565b610e8c929190614a03565b506002820181600201908054610ea190615a1b565b610eac929190614a03565b506003820181600301908054610ec190615a1b565b610ecc929190614a03565b506004820181600401908054610ee190615a1b565b610eec929190614a03565b506005820181600501908054610f0190615a1b565b610f0c929190614a03565b506006820181600601908054610f2190615a1b565b610f2c929190614a03565b50600782015481600701556008820181600801908054610f4b90615a1b565b610f56929190614a03565b5050506040518060400160405280600681526020017f566f74696e67000000000000000000000000000000000000000000000000000081525060169080519060200190610fa492919061497d565b50565b600f8181548110610fb757600080fd5b9060005260206000209060090201600091509050806000018054610fda90615a1b565b80601f016020809104026020016040519081016040528092919081815260200182805461100690615a1b565b80156110535780601f1061102857610100808354040283529160200191611053565b820191906000526020600020905b81548152906001019060200180831161103657829003601f168201915b50505050509080600101805461106890615a1b565b80601f016020809104026020016040519081016040528092919081815260200182805461109490615a1b565b80156110e15780601f106110b6576101008083540402835291602001916110e1565b820191906000526020600020905b8154815290600101906020018083116110c457829003601f168201915b5050505050908060020180546110f690615a1b565b80601f016020809104026020016040519081016040528092919081815260200182805461112290615a1b565b801561116f5780601f106111445761010080835404028352916020019161116f565b820191906000526020600020905b81548152906001019060200180831161115257829003601f168201915b50505050509080600301805461118490615a1b565b80601f01602080910402602001604051908101604052809291908181526020018280546111b090615a1b565b80156111fd5780601f106111d2576101008083540402835291602001916111fd565b820191906000526020600020905b8154815290600101906020018083116111e057829003601f168201915b50505050509080600401805461121290615a1b565b80601f016020809104026020016040519081016040528092919081815260200182805461123e90615a1b565b801561128b5780601f106112605761010080835404028352916020019161128b565b820191906000526020600020905b81548152906001019060200180831161126e57829003601f168201915b5050505050908060050180546112a090615a1b565b80601f01602080910402602001604051908101604052809291908181526020018280546112cc90615a1b565b80156113195780601f106112ee57610100808354040283529160200191611319565b820191906000526020600020905b8154815290600101906020018083116112fc57829003601f168201915b50505050509080600601805461132e90615a1b565b80601f016020809104026020016040519081016040528092919081815260200182805461135a90615a1b565b80156113a75780601f1061137c576101008083540402835291602001916113a7565b820191906000526020600020905b81548152906001019060200180831161138a57829003601f168201915b5050505050908060070154908060080180546113c290615a1b565b80601f01602080910402602001604051908101604052809291908181526020018280546113ee90615a1b565b801561143b5780601f106114105761010080835404028352916020019161143b565b820191906000526020600020905b81548152906001019060200180831161141e57829003601f168201915b5050505050905089565b601381805160208101820180518482526020830160208501208183528095505050505050600091509050805461147a90615a1b565b80601f01602080910402602001604051908101604052809291908181526020018280546114a690615a1b565b80156114f35780601f106114c8576101008083540402835291602001916114f3565b820191906000526020600020905b8154815290600101906020018083116114d657829003601f168201915b505050505081565b600060148260405161150d9190615aff565b908152602001604051809103902060060160009054906101000a900460ff169050919050565b60608060606116016016805461154890615a1b565b80601f016020809104026020016040519081016040528092919081815260200182805461157490615a1b565b80156115c15780601f10611596576101008083540402835291602001916115c1565b820191906000526020600020905b8154815290600101906020018083116115a457829003601f168201915b50505050506040518060400160405280600681526020017f526573756c740000000000000000000000000000000000000000000000000000815250613e0c565b156117415760005b600f8054905081101561173f57601a600f828154811061162c5761162b6159bd565b5b90600052602060002090600902016000019080600181540180825580915050600190039060005260206000200160009091909190915090805461166e90615a1b565b6116799291906148f0565b50601b600f82815481106116905761168f6159bd565b5b9060005260206000209060090201600701549080600181540180825580915050600190039060005260206000200160009091909190915055601c600f82815481106116de576116dd6159bd565b5b90600052602060002090600902016008019080600181540180825580915050600190039060005260206000200160009091909190915090805461172090615a1b565b61172b9291906148f0565b50808061173790615a7b565b915050611609565b505b601a601b601c82805480602002602001604051908101604052809291908181526020016000905b8282101561181457838290600052602060002001805461178790615a1b565b80601f01602080910402602001604051908101604052809291908181526020018280546117b390615a1b565b80156118005780601f106117d557610100808354040283529160200191611800565b820191906000526020600020905b8154815290600101906020018083116117e357829003601f168201915b505050505081526020019060010190611768565b5050505092508180548060200260200160405190810160405280929190818152602001828054801561186557602002820191906000526020600020905b815481526020019060010190808311611851575b5050505050915080805480602002602001604051908101604052809291908181526020016000905b828210156119395783829060005260206000200180546118ac90615a1b565b80601f01602080910402602001604051908101604052809291908181526020018280546118d890615a1b565b80156119255780601f106118fa57610100808354040283529160200191611925565b820191906000526020600020905b81548152906001019060200180831161190857829003601f168201915b50505050508152602001906001019061188d565b505050509050925092509250909192565b6000601754905090565b6000611a1c6014836080015160405161196d9190615aff565b9081526020016040518091039020600001805461198990615a1b565b80601f01602080910402602001604051908101604052809291908181526020018280546119b590615a1b565b8015611a025780601f106119d757610100808354040283529160200191611a02565b820191906000526020600020905b8154815290600101906020018083116119e557829003601f168201915b505050505060405180602001604052806000815250613e0c565b611a295760019050611a2e565b600090505b919050565b60606000601e81905550601483604051611a4d9190615aff565b908152602001604051809103902060060160009054906101000a900460ff16611d3757600f8281548110611a8457611a836159bd565b5b90600052602060002090600902016007016000815480929190611aa690615a7b565b91905055506000600f8381548110611ac157611ac06159bd565b5b90600052602060002090600902016005018054611add90615a1b565b80601f0160208091040260200160405190810160405280929190818152602001828054611b0990615a1b565b8015611b565780601f10611b2b57610100808354040283529160200191611b56565b820191906000526020600020905b815481529060010190602001808311611b3957829003601f168201915b50505050509050601581604051611b6d9190615aff565b90815260200160405180910390206007016000815480929190611b8f90615a7b565b91905055506001601485604051611ba69190615aff565b908152602001604051809103902060060160006101000a81548160ff02191690831515021790555060005b600e80549050811015611cf057611c95600e8281548110611bf557611bf46159bd565b5b90600052602060002090600702016004018054611c1190615a1b565b80601f0160208091040260200160405190810160405280929190818152602001828054611c3d90615a1b565b8015611c8a5780601f10611c5f57610100808354040283529160200191611c8a565b820191906000526020600020905b815481529060010190602001808311611c6d57829003601f168201915b505050505086613e0c565b15611cdd576001600e8281548110611cb057611caf6159bd565b5b906000526020600020906007020160060160006101000a81548160ff021916908315150217905550611cf0565b8080611ce890615a7b565b915050611bd1565b506001601e819055506040518060400160405280601981526020017f566f746520636173746564207375636365737366756c6c792100000000000000815250915050611d78565b6002601e819055506040518060400160405280601881526020017f566f7465722068617320616c726561647920766f74656421000000000000000081525090505b92915050565b60118181548110611d8e57600080fd5b906000526020600020016000915090508054611da990615a1b565b80601f0160208091040260200160405190810160405280929190818152602001828054611dd590615a1b565b8015611e225780601f10611df757610100808354040283529160200191611e22565b820191906000526020600020905b815481529060010190602001808311611e0557829003601f168201915b505050505081565b60108181548110611e3a57600080fd5b906000526020600020016000915090508054611e5590615a1b565b80601f0160208091040260200160405190810160405280929190818152602001828054611e8190615a1b565b8015611ece5780601f10611ea357610100808354040283529160200191611ece565b820191906000526020600020905b815481529060010190602001808311611eb157829003601f168201915b505050505081565b6003806000018054611ee790615a1b565b80601f0160208091040260200160405190810160405280929190818152602001828054611f1390615a1b565b8015611f605780601f10611f3557610100808354040283529160200191611f60565b820191906000526020600020905b815481529060010190602001808311611f4357829003601f168201915b505050505090806001018054611f7590615a1b565b80601f0160208091040260200160405190810160405280929190818152602001828054611fa190615a1b565b8015611fee5780601f10611fc357610100808354040283529160200191611fee565b820191906000526020600020905b815481529060010190602001808311611fd157829003601f168201915b50505050509080600201805461200390615a1b565b80601f016020809104026020016040519081016040528092919081815260200182805461202f90615a1b565b801561207c5780601f106120515761010080835404028352916020019161207c565b820191906000526020600020905b81548152906001019060200180831161205f57829003601f168201915b50505050509080600301805461209190615a1b565b80601f01602080910402602001604051908101604052809291908181526020018280546120bd90615a1b565b801561210a5780601f106120df5761010080835404028352916020019161210a565b820191906000526020600020905b8154815290600101906020018083116120ed57829003601f168201915b50505050509080600401805461211f90615a1b565b80601f016020809104026020016040519081016040528092919081815260200182805461214b90615a1b565b80156121985780601f1061216d57610100808354040283529160200191612198565b820191906000526020600020905b81548152906001019060200180831161217b57829003601f168201915b5050505050908060050180546121ad90615a1b565b80601f01602080910402602001604051908101604052809291908181526020018280546121d990615a1b565b80156122265780601f106121fb57610100808354040283529160200191612226565b820191906000526020600020905b81548152906001019060200180831161220957829003601f168201915b50505050509080600601805461223b90615a1b565b80601f016020809104026020016040519081016040528092919081815260200182805461226790615a1b565b80156122b45780601f10612289576101008083540402835291602001916122b4565b820191906000526020600020905b81548152906001019060200180831161229757829003601f168201915b5050505050908060070154908060080180546122cf90615a1b565b80601f01602080910402602001604051908101604052809291908181526020018280546122fb90615a1b565b80156123485780601f1061231d57610100808354040283529160200191612348565b820191906000526020600020905b81548152906001019060200180831161232b57829003601f168201915b5050505050905089565b60006124166015836040516123679190615aff565b9081526020016040518091039020600001805461238390615a1b565b80601f01602080910402602001604051908101604052809291908181526020018280546123af90615a1b565b80156123fc5780601f106123d1576101008083540402835291602001916123fc565b820191906000526020600020905b8154815290600101906020018083116123df57829003601f168201915b505050505060405180602001604052806000815250613e0c565b6124235760019050612428565b600090505b919050565b6000600d80549050905090565b60006005905090565b600080600001805461245490615a1b565b80601f016020809104026020016040519081016040528092919081815260200182805461248090615a1b565b80156124cd5780601f106124a2576101008083540402835291602001916124cd565b820191906000526020600020905b8154815290600101906020018083116124b057829003601f168201915b5050505050908060010180546124e290615a1b565b80601f016020809104026020016040519081016040528092919081815260200182805461250e90615a1b565b801561255b5780601f106125305761010080835404028352916020019161255b565b820191906000526020600020905b81548152906001019060200180831161253e57829003601f168201915b50505050509080600201805461257090615a1b565b80601f016020809104026020016040519081016040528092919081815260200182805461259c90615a1b565b80156125e95780601f106125be576101008083540402835291602001916125e9565b820191906000526020600020905b8154815290600101906020018083116125cc57829003601f168201915b5050505050905083565b601a818154811061260357600080fd5b90600052602060002001600091509050805461261e90615a1b565b80601f016020809104026020016040519081016040528092919081815260200182805461264a90615a1b565b80156126975780601f1061266c57610100808354040283529160200191612697565b820191906000526020600020905b81548152906001019060200180831161267a57829003601f168201915b505050505081565b6000600e80549050905090565b60606126b6614362565b6127696014856040516126c99190615aff565b908152602001604051809103902060050180546126e590615a1b565b80601f016020809104026020016040519081016040528092919081815260200182805461271190615a1b565b801561275e5780601f106127335761010080835404028352916020019161275e565b820191906000526020600020905b81548152906001019060200180831161274157829003601f168201915b505050505084613e0c565b15612aad5760148460405161277e9190615aff565b908152602001604051809103902060060160009054906101000a900460ff16612a6857600f82815481106127b5576127b46159bd565b5b906000526020600020906009020160070160008154809291906127d790615a7b565b91905055506000600f83815481106127f2576127f16159bd565b5b9060005260206000209060090201600501805461280e90615a1b565b80601f016020809104026020016040519081016040528092919081815260200182805461283a90615a1b565b80156128875780601f1061285c57610100808354040283529160200191612887565b820191906000526020600020905b81548152906001019060200180831161286a57829003601f168201915b5050505050905060158160405161289e9190615aff565b908152602001604051809103902060070160008154809291906128c090615a7b565b919050555060016014866040516128d79190615aff565b908152602001604051809103902060060160006101000a81548160ff02191690831515021790555060005b600e80549050811015612a21576129c6600e8281548110612926576129256159bd565b5b9060005260206000209060070201600401805461294290615a1b565b80601f016020809104026020016040519081016040528092919081815260200182805461296e90615a1b565b80156129bb5780601f10612990576101008083540402835291602001916129bb565b820191906000526020600020905b81548152906001019060200180831161299e57829003601f168201915b505050505087613e0c565b15612a0e576001600e82815481106129e1576129e06159bd565b5b906000526020600020906007020160060160006101000a81548160ff021916908315150217905550612a21565b8080612a1990615a7b565b915050612902565b506001601d819055506040518060400160405280601981526020017f566f746520636173746564207375636365737366756c6c792100000000000000815250915050612ac9565b6002601d819055506040518060400160405280601881526020017f566f7465722068617320616c726561647920766f7465642100000000000000008152509050612ac9565b6040518060800160405280604f8152602001615b17604f913990505b9392505050565b6000612b9c6014612ae084614810565b604051612aed9190615aff565b90815260200160405180910390206000018054612b0990615a1b565b80601f0160208091040260200160405190810160405280929190818152602001828054612b3590615a1b565b8015612b825780601f10612b5757610100808354040283529160200191612b82565b820191906000526020600020905b815481529060010190602001808311612b6557829003601f168201915b505050505060405180602001604052806000815250613e0c565b612ba95760019050612bae565b600090505b919050565b612bbb6148dc565b612c528460006002018054612bcf90615a1b565b80601f0160208091040260200160405190810160405280929190818152602001828054612bfb90615a1b565b8015612c485780601f10612c1d57610100808354040283529160200191612c48565b820191906000526020600020905b815481529060010190602001808311612c2b57829003601f168201915b5050505050613e0c565b15612e4757612d0a601282604051612c6a9190615aff565b90815260200160405180910390206002018054612c8690615a1b565b80601f0160208091040260200160405190810160405280929190818152602001828054612cb290615a1b565b8015612cff5780601f10612cd457610100808354040283529160200191612cff565b820191906000526020600020905b815481529060010190602001808311612ce257829003601f168201915b505050505082613e0c565b612e395760006040518060600160405280858152602001848152602001838152509050600d8190806001815401808255809150506001900390600052602060002090600302016000909190919091506000820151816000019080519060200190612d7592919061497d565b506020820151816001019080519060200190612d9292919061497d565b506040820151816002019080519060200190612daf92919061497d565b50505080601283604051612dc39190615aff565b90815260200160405180910390206000820151816000019080519060200190612ded92919061497d565b506020820151816001019080519060200190612e0a92919061497d565b506040820151816002019080519060200190612e2792919061497d565b50905050600160178190555050612e42565b60026017819055505b612e50565b60036017819055505b50505050565b600e8181548110612e6657600080fd5b9060005260206000209060070201600091509050806000018054612e8990615a1b565b80601f0160208091040260200160405190810160405280929190818152602001828054612eb590615a1b565b8015612f025780601f10612ed757610100808354040283529160200191612f02565b820191906000526020600020905b815481529060010190602001808311612ee557829003601f168201915b505050505090806001018054612f1790615a1b565b80601f0160208091040260200160405190810160405280929190818152602001828054612f4390615a1b565b8015612f905780601f10612f6557610100808354040283529160200191612f90565b820191906000526020600020905b815481529060010190602001808311612f7357829003601f168201915b505050505090806002018054612fa590615a1b565b80601f0160208091040260200160405190810160405280929190818152602001828054612fd190615a1b565b801561301e5780601f10612ff35761010080835404028352916020019161301e565b820191906000526020600020905b81548152906001019060200180831161300157829003601f168201915b50505050509080600301805461303390615a1b565b80601f016020809104026020016040519081016040528092919081815260200182805461305f90615a1b565b80156130ac5780601f10613081576101008083540402835291602001916130ac565b820191906000526020600020905b81548152906001019060200180831161308f57829003601f168201915b5050505050908060040180546130c190615a1b565b80601f01602080910402602001604051908101604052809291908181526020018280546130ed90615a1b565b801561313a5780601f1061310f5761010080835404028352916020019161313a565b820191906000526020600020905b81548152906001019060200180831161311d57829003601f168201915b50505050509080600501805461314f90615a1b565b80601f016020809104026020016040519081016040528092919081815260200182805461317b90615a1b565b80156131c85780601f1061319d576101008083540402835291602001916131c8565b820191906000526020600020905b8154815290600101906020018083116131ab57829003601f168201915b5050505050908060060160009054906101000a900460ff16905087565b601c81815481106131f557600080fd5b90600052602060002001600091509050805461321090615a1b565b80601f016020809104026020016040519081016040528092919081815260200182805461323c90615a1b565b80156132895780601f1061325e57610100808354040283529160200191613289565b820191906000526020600020905b81548152906001019060200180831161326c57829003601f168201915b505050505081565b600d81815481106132a157600080fd5b90600052602060002090600302016000915090508060000180546132c490615a1b565b80601f01602080910402602001604051908101604052809291908181526020018280546132f090615a1b565b801561333d5780601f106133125761010080835404028352916020019161333d565b820191906000526020600020905b81548152906001019060200180831161332057829003601f168201915b50505050509080600101805461335290615a1b565b80601f016020809104026020016040519081016040528092919081815260200182805461337e90615a1b565b80156133cb5780601f106133a0576101008083540402835291602001916133cb565b820191906000526020600020905b8154815290600101906020018083116133ae57829003601f168201915b5050505050908060020180546133e090615a1b565b80601f016020809104026020016040519081016040528092919081815260200182805461340c90615a1b565b80156134595780601f1061342e57610100808354040283529160200191613459565b820191906000526020600020905b81548152906001019060200180831161343c57829003601f168201915b5050505050905083565b60128180516020810182018051848252602083016020850120818352809550505050505060009150905080600001805461349c90615a1b565b80601f01602080910402602001604051908101604052809291908181526020018280546134c890615a1b565b80156135155780601f106134ea57610100808354040283529160200191613515565b820191906000526020600020905b8154815290600101906020018083116134f857829003601f168201915b50505050509080600101805461352a90615a1b565b80601f016020809104026020016040519081016040528092919081815260200182805461355690615a1b565b80156135a35780601f10613578576101008083540402835291602001916135a3565b820191906000526020600020905b81548152906001019060200180831161358657829003601f168201915b5050505050908060020180546135b890615a1b565b80601f01602080910402602001604051908101604052809291908181526020018280546135e490615a1b565b80156136315780601f1061360657610100808354040283529160200191613631565b820191906000526020600020905b81548152906001019060200180831161361457829003601f168201915b5050505050905083565b606060138260405161364d9190615aff565b9081526020016040518091039020805461366690615a1b565b80601f016020809104026020016040519081016040528092919081815260200182805461369290615a1b565b80156136df5780601f106136b4576101008083540402835291602001916136df565b820191906000526020600020905b8154815290600101906020018083116136c257829003601f168201915b50505050509050919050565b60006137af6012836040516137009190615aff565b9081526020016040518091039020600001805461371c90615a1b565b80601f016020809104026020016040519081016040528092919081815260200182805461374890615a1b565b80156137955780601f1061376a57610100808354040283529160200191613795565b820191906000526020600020905b81548152906001019060200180831161377857829003601f168201915b505050505060405180602001604052806000815250613e0c565b6137bc57600190506137c1565b600090505b919050565b6137ce6148e6565b60006040518060e0016040528088815260200187815260200186815260200185815260200184815260200183815260200160001515815250905061381181611954565b613a4157600e819080600181540180825580915050600190039060005260206000209060070201600090919091909150600082015181600001908051906020019061385d92919061497d565b50602082015181600101908051906020019061387a92919061497d565b50604082015181600201908051906020019061389792919061497d565b5060608201518160030190805190602001906138b492919061497d565b5060808201518160040190805190602001906138d192919061497d565b5060a08201518160050190805190602001906138ee92919061497d565b5060c08201518160060160006101000a81548160ff0219169083151502179055505050806014846040516139229190615aff565b9081526020016040518091039020600082015181600001908051906020019061394c92919061497d565b50602082015181600101908051906020019061396992919061497d565b50604082015181600201908051906020019061398692919061497d565b5060608201518160030190805190602001906139a392919061497d565b5060808201518160040190805190602001906139c092919061497d565b5060a08201518160050190805190602001906139dd92919061497d565b5060c08201518160060160006101000a81548160ff02191690831515021790555090505082601383604051613a129190615aff565b90815260200160405180910390209080519060200190613a3392919061497d565b506001601881905550613a4a565b60026018819055505b50505050505050565b80600c9080519060200190613a6992919061497d565b5050565b6000601d54905090565b601481805160208101820180518482526020830160208501208183528095505050505050600091509050806000018054613ab090615a1b565b80601f0160208091040260200160405190810160405280929190818152602001828054613adc90615a1b565b8015613b295780601f10613afe57610100808354040283529160200191613b29565b820191906000526020600020905b815481529060010190602001808311613b0c57829003601f168201915b505050505090806001018054613b3e90615a1b565b80601f0160208091040260200160405190810160405280929190818152602001828054613b6a90615a1b565b8015613bb75780601f10613b8c57610100808354040283529160200191613bb7565b820191906000526020600020905b815481529060010190602001808311613b9a57829003601f168201915b505050505090806002018054613bcc90615a1b565b80601f0160208091040260200160405190810160405280929190818152602001828054613bf890615a1b565b8015613c455780601f10613c1a57610100808354040283529160200191613c45565b820191906000526020600020905b815481529060010190602001808311613c2857829003601f168201915b505050505090806003018054613c5a90615a1b565b80601f0160208091040260200160405190810160405280929190818152602001828054613c8690615a1b565b8015613cd35780601f10613ca857610100808354040283529160200191613cd3565b820191906000526020600020905b815481529060010190602001808311613cb657829003601f168201915b505050505090806004018054613ce890615a1b565b80601f0160208091040260200160405190810160405280929190818152602001828054613d1490615a1b565b8015613d615780601f10613d3657610100808354040283529160200191613d61565b820191906000526020600020905b815481529060010190602001808311613d4457829003601f168201915b505050505090806005018054613d7690615a1b565b80601f0160208091040260200160405190810160405280929190818152602001828054613da290615a1b565b8015613def5780601f10613dc457610100808354040283529160200191613def565b820191906000526020600020905b815481529060010190602001808311613dd257829003601f168201915b5050505050908060060160009054906101000a900460ff16905087565b60008180519060200120838051906020012014905092915050565b601b8181548110613e3757600080fd5b906000526020600020016000915090505481565b6040518060400160405280600681526020017f526573756c74000000000000000000000000000000000000000000000000000081525060169080519060200190613e9692919061497d565b50565b6060601482604051613eab9190615aff565b90815260200160405180910390206001018054613ec790615a1b565b80601f0160208091040260200160405190810160405280929190818152602001828054613ef390615a1b565b8015613f405780601f10613f1557610100808354040283529160200191613f40565b820191906000526020600020905b815481529060010190602001808311613f2357829003601f168201915b50505050509050919050565b606060005b600f80549050811015613fd5576011600f8281548110613f7457613f736159bd565b5b906000526020600020906009020160080190806001815401808255809150506001900390600052602060002001600090919091909150908054613fb690615a1b565b613fc19291906148f0565b508080613fcd90615a7b565b915050613f51565b506011805480602002602001604051908101604052809291908181526020016000905b828210156140a457838290600052602060002001805461401790615a1b565b80601f016020809104026020016040519081016040528092919081815260200182805461404390615a1b565b80156140905780601f1061406557610100808354040283529160200191614090565b820191906000526020600020905b81548152906001019060200180831161407357829003601f168201915b505050505081526020019060010190613ff8565b50505050905090565b6060600d805480602002602001604051908101604052809291908181526020016000905b828210156142b9578382906000526020600020906003020160405180606001604052908160008201805461410490615a1b565b80601f016020809104026020016040519081016040528092919081815260200182805461413090615a1b565b801561417d5780601f106141525761010080835404028352916020019161417d565b820191906000526020600020905b81548152906001019060200180831161416057829003601f168201915b5050505050815260200160018201805461419690615a1b565b80601f01602080910402602001604051908101604052809291908181526020018280546141c290615a1b565b801561420f5780601f106141e45761010080835404028352916020019161420f565b820191906000526020600020905b8154815290600101906020018083116141f257829003601f168201915b5050505050815260200160028201805461422890615a1b565b80601f016020809104026020016040519081016040528092919081815260200182805461425490615a1b565b80156142a15780601f10614276576101008083540402835291602001916142a1565b820191906000526020600020905b81548152906001019060200180831161428457829003601f168201915b505050505081525050815260200190600101906140d1565b50505050905090565b600061435b82600060020180546142d890615a1b565b80601f016020809104026020016040519081016040528092919081815260200182805461430490615a1b565b80156143515780601f1061432657610100808354040283529160200191614351565b820191906000526020600020905b81548152906001019060200180831161433457829003601f168201915b5050505050613e0c565b9050919050565b6000601d81905550565b6015818051602081018201805184825260208301602085012081835280955050505050506000915090508060000180546143a590615a1b565b80601f01602080910402602001604051908101604052809291908181526020018280546143d190615a1b565b801561441e5780601f106143f35761010080835404028352916020019161441e565b820191906000526020600020905b81548152906001019060200180831161440157829003601f168201915b50505050509080600101805461443390615a1b565b80601f016020809104026020016040519081016040528092919081815260200182805461445f90615a1b565b80156144ac5780601f10614481576101008083540402835291602001916144ac565b820191906000526020600020905b81548152906001019060200180831161448f57829003601f168201915b5050505050908060020180546144c190615a1b565b80601f01602080910402602001604051908101604052809291908181526020018280546144ed90615a1b565b801561453a5780601f1061450f5761010080835404028352916020019161453a565b820191906000526020600020905b81548152906001019060200180831161451d57829003601f168201915b50505050509080600301805461454f90615a1b565b80601f016020809104026020016040519081016040528092919081815260200182805461457b90615a1b565b80156145c85780601f1061459d576101008083540402835291602001916145c8565b820191906000526020600020905b8154815290600101906020018083116145ab57829003601f168201915b5050505050908060040180546145dd90615a1b565b80601f016020809104026020016040519081016040528092919081815260200182805461460990615a1b565b80156146565780601f1061462b57610100808354040283529160200191614656565b820191906000526020600020905b81548152906001019060200180831161463957829003601f168201915b50505050509080600501805461466b90615a1b565b80601f016020809104026020016040519081016040528092919081815260200182805461469790615a1b565b80156146e45780601f106146b9576101008083540402835291602001916146e4565b820191906000526020600020905b8154815290600101906020018083116146c757829003601f168201915b5050505050908060060180546146f990615a1b565b80601f016020809104026020016040519081016040528092919081815260200182805461472590615a1b565b80156147725780601f1061474757610100808354040283529160200191614772565b820191906000526020600020905b81548152906001019060200180831161475557829003601f168201915b50505050509080600701549080600801805461478d90615a1b565b80601f01602080910402602001604051908101604052809291908181526020018280546147b990615a1b565b80156148065780601f106147db57610100808354040283529160200191614806565b820191906000526020600020905b8154815290600101906020018083116147e957829003601f168201915b5050505050905089565b60606013826040516148229190615aff565b9081526020016040518091039020600c90805461483e90615a1b565b6148499291906148f0565b50600c805461485790615a1b565b80601f016020809104026020016040519081016040528092919081815260200182805461488390615a1b565b80156148d05780601f106148a5576101008083540402835291602001916148d0565b820191906000526020600020905b8154815290600101906020018083116148b357829003601f168201915b50505050509050919050565b6000601781905550565b6000601881905550565b8280546148fc90615a1b565b90600052602060002090601f01602090048101928261491e576000855561496c565b82601f1061492f578054855561496c565b8280016001018555821561496c57600052602060002091601f016020900482015b8281111561496b578254825591600101919060010190614950565b5b5090506149799190614a90565b5090565b82805461498990615a1b565b90600052602060002090601f0160209004810192826149ab57600085556149f2565b82601f106149c457805160ff19168380011785556149f2565b828001600101855582156149f2579182015b828111156149f15782518255916020019190600101906149d6565b5b5090506149ff9190614a90565b5090565b828054614a0f90615a1b565b90600052602060002090601f016020900481019282614a315760008555614a7f565b82601f10614a425780548555614a7f565b82800160010185558215614a7f57600052602060002091601f016020900482015b82811115614a7e578254825591600101919060010190614a63565b5b509050614a8c9190614a90565b5090565b5b80821115614aa9576000816000905550600101614a91565b5090565b6000819050919050565b614ac081614aad565b82525050565b6000602082019050614adb6000830184614ab7565b92915050565b600081519050919050565b600082825260208201905092915050565b6000819050602082019050919050565b600081519050919050565b600082825260208201905092915050565b60005b83811015614b47578082015181840152602081019050614b2c565b83811115614b56576000848401525b50505050565b6000601f19601f8301169050919050565b6000614b7882614b0d565b614b828185614b18565b9350614b92818560208601614b29565b614b9b81614b5c565b840191505092915050565b6000614bb28383614b6d565b905092915050565b6000602082019050919050565b6000614bd282614ae1565b614bdc8185614aec565b935083602082028501614bee85614afd565b8060005b85811015614c2a5784840389528151614c0b8582614ba6565b9450614c1683614bba565b925060208a01995050600181019050614bf2565b50829750879550505050505092915050565b60006020820190508181036000830152614c568184614bc7565b905092915050565b600082825260208201905092915050565b6000614c7a82614b0d565b614c848185614c5e565b9350614c94818560208601614b29565b614c9d81614b5c565b840191505092915050565b60006020820190508181036000830152614cc28184614c6f565b905092915050565b6000604051905090565b600080fd5b600080fd5b600080fd5b600080fd5b7f4e487b7100000000000000000000000000000000000000000000000000000000600052604160045260246000fd5b614d2082614b5c565b810181811067ffffffffffffffff82111715614d3f57614d3e614ce8565b5b80604052505050565b6000614d52614cca565b9050614d5e8282614d17565b919050565b600067ffffffffffffffff821115614d7e57614d7d614ce8565b5b614d8782614b5c565b9050602081019050919050565b82818337600083830152505050565b6000614db6614db184614d63565b614d48565b905082815260208101848484011115614dd257614dd1614ce3565b5b614ddd848285614d94565b509392505050565b600082601f830112614dfa57614df9614cde565b5b8135614e0a848260208601614da3565b91505092915050565b600080600080600080600080610100898b031215614e3457614e33614cd4565b5b600089013567ffffffffffffffff811115614e5257614e51614cd9565b5b614e5e8b828c01614de5565b985050602089013567ffffffffffffffff811115614e7f57614e7e614cd9565b5b614e8b8b828c01614de5565b975050604089013567ffffffffffffffff811115614eac57614eab614cd9565b5b614eb88b828c01614de5565b965050606089013567ffffffffffffffff811115614ed957614ed8614cd9565b5b614ee58b828c01614de5565b955050608089013567ffffffffffffffff811115614f0657614f05614cd9565b5b614f128b828c01614de5565b94505060a089013567ffffffffffffffff811115614f3357614f32614cd9565b5b614f3f8b828c01614de5565b93505060c089013567ffffffffffffffff811115614f6057614f5f614cd9565b5b614f6c8b828c01614de5565b92505060e089013567ffffffffffffffff811115614f8d57614f8c614cd9565b5b614f998b828c01614de5565b9150509295985092959890939650565b614fb281614aad565b8114614fbd57600080fd5b50565b600081359050614fcf81614fa9565b92915050565b600060208284031215614feb57614fea614cd4565b5b6000614ff984828501614fc0565b91505092915050565b600061012082019050818103600083015261501d818c614c6f565b90508181036020830152615031818b614c6f565b90508181036040830152615045818a614c6f565b905081810360608301526150598189614c6f565b9050818103608083015261506d8188614c6f565b905081810360a08301526150818187614c6f565b905081810360c08301526150958186614c6f565b90506150a460e0830185614ab7565b8181036101008301526150b78184614c6f565b90509a9950505050505050505050565b6000602082840312156150dd576150dc614cd4565b5b600082013567ffffffffffffffff8111156150fb576150fa614cd9565b5b61510784828501614de5565b91505092915050565b60008115159050919050565b61512581615110565b82525050565b6000602082019050615140600083018461511c565b92915050565b600081519050919050565b600082825260208201905092915050565b6000819050602082019050919050565b61517b81614aad565b82525050565b600061518d8383615172565b60208301905092915050565b6000602082019050919050565b60006151b182615146565b6151bb8185615151565b93506151c683615162565b8060005b838110156151f75781516151de8882615181565b97506151e983615199565b9250506001810190506151ca565b5085935050505092915050565b6000606082019050818103600083015261521e8186614bc7565b9050818103602083015261523281856151a6565b905081810360408301526152468184614bc7565b9050949350505050565b600080fd5b600080fd5b61526381615110565b811461526e57600080fd5b50565b6000813590506152808161525a565b92915050565b600060e0828403121561529c5761529b615250565b5b6152a660e0614d48565b9050600082013567ffffffffffffffff8111156152c6576152c5615255565b5b6152d284828501614de5565b600083015250602082013567ffffffffffffffff8111156152f6576152f5615255565b5b61530284828501614de5565b602083015250604082013567ffffffffffffffff81111561532657615325615255565b5b61533284828501614de5565b604083015250606082013567ffffffffffffffff81111561535657615355615255565b5b61536284828501614de5565b606083015250608082013567ffffffffffffffff81111561538657615385615255565b5b61539284828501614de5565b60808301525060a082013567ffffffffffffffff8111156153b6576153b5615255565b5b6153c284828501614de5565b60a08301525060c06153d684828501615271565b60c08301525092915050565b6000602082840312156153f8576153f7614cd4565b5b600082013567ffffffffffffffff81111561541657615415614cd9565b5b61542284828501615286565b91505092915050565b6000806040838503121561544257615441614cd4565b5b600083013567ffffffffffffffff8111156154605761545f614cd9565b5b61546c85828601614de5565b925050602061547d85828601614fc0565b9150509250929050565b600060608201905081810360008301526154a18186614c6f565b905081810360208301526154b58185614c6f565b905081810360408301526154c98184614c6f565b9050949350505050565b6000806000606084860312156154ec576154eb614cd4565b5b600084013567ffffffffffffffff81111561550a57615509614cd9565b5b61551686828701614de5565b935050602084013567ffffffffffffffff81111561553757615536614cd9565b5b61554386828701614de5565b925050604061555486828701614fc0565b9150509250925092565b6000806000806080858703121561557857615577614cd4565b5b600085013567ffffffffffffffff81111561559657615595614cd9565b5b6155a287828801614de5565b945050602085013567ffffffffffffffff8111156155c3576155c2614cd9565b5b6155cf87828801614de5565b935050604085013567ffffffffffffffff8111156155f0576155ef614cd9565b5b6155fc87828801614de5565b925050606085013567ffffffffffffffff81111561561d5761561c614cd9565b5b61562987828801614de5565b91505092959194509250565b600060e082019050818103600083015261564f818a614c6f565b905081810360208301526156638189614c6f565b905081810360408301526156778188614c6f565b9050818103606083015261568b8187614c6f565b9050818103608083015261569f8186614c6f565b905081810360a08301526156b38185614c6f565b90506156c260c083018461511c565b98975050505050505050565b60008060008060008060c087890312156156eb576156ea614cd4565b5b600087013567ffffffffffffffff81111561570957615708614cd9565b5b61571589828a01614de5565b965050602087013567ffffffffffffffff81111561573657615735614cd9565b5b61574289828a01614de5565b955050604087013567ffffffffffffffff81111561576357615762614cd9565b5b61576f89828a01614de5565b945050606087013567ffffffffffffffff8111156157905761578f614cd9565b5b61579c89828a01614de5565b935050608087013567ffffffffffffffff8111156157bd576157bc614cd9565b5b6157c989828a01614de5565b92505060a087013567ffffffffffffffff8111156157ea576157e9614cd9565b5b6157f689828a01614de5565b9150509295509295509295565b6000806040838503121561581a57615819614cd4565b5b600083013567ffffffffffffffff81111561583857615837614cd9565b5b61584485828601614de5565b925050602083013567ffffffffffffffff81111561586557615864614cd9565b5b61587185828601614de5565b9150509250929050565b600081519050919050565b600082825260208201905092915050565b6000819050602082019050919050565b600060608301600083015184820360008601526158c48282614b6d565b915050602083015184820360208601526158de8282614b6d565b915050604083015184820360408601526158f88282614b6d565b9150508091505092915050565b600061591183836158a7565b905092915050565b6000602082019050919050565b60006159318261587b565b61593b8185615886565b93508360208202850161594d85615897565b8060005b85811015615989578484038952815161596a8582615905565b945061597583615919565b925060208a01995050600181019050615951565b50829750879550505050505092915050565b600060208201905081810360008301526159b58184615926565b905092915050565b7f4e487b7100000000000000000000000000000000000000000000000000000000600052603260045260246000fd5b7f4e487b7100000000000000000000000000000000000000000000000000000000600052602260045260246000fd5b60006002820490506001821680615a3357607f821691505b602082108103615a4657615a456159ec565b5b50919050565b7f4e487b7100000000000000000000000000000000000000000000000000000000600052601160045260246000fd5b6000615a8682614aad565b91507fffffffffffffffffffffffffffffffffffffffffffffffffffffffffffffffff8203615ab857615ab7615a4c565b5b600182019050919050565b600081905092915050565b6000615ad982614b0d565b615ae38185615ac3565b9350615af3818560208601614b29565b80840191505092915050565b6000615b0b8284615ace565b91508190509291505056fe436f756c64206e6f742063617374206120766f74652c20566f746572206e6f742072656769737465726564212028747279206368616e67696e67206163636f756e74206f6e206d6574616d61736b29a2646970667358221220927347df2e90a90d58ebd970af9502a3e4b8a78cc03d208cfcd9ca2803ec2a4064736f6c634300080d003330784236363346646533356335393645353937413536363064653637323862346243333032636236373768747470733a2f2f7777772e6f6e65696e6469612e636f6d2f696d672f323031362f30332f6e6f74612d30342d313435373038363136322e6a7067",
  "immutableReferences": {},
  "source": "// SPDX-License-Identifier: MIT\r\npragma solidity ^0.8.10;\r\n\r\nstruct Admin{\r\n    string name;\r\n    string mobileNo;\r\n    string walletKey;\r\n}\r\n\r\nstruct Voter {\r\n    string name;\r\n    string mobileNo;\r\n    string homeAddress;\r\n    string aadharCardNo;\r\n    string voterId;\r\n    string walletKey;\r\n    bool isVoted;\r\n}\r\n\r\nstruct Candidate {\r\n    string name;\r\n    string mobileNo;\r\n    string homeAddress;\r\n    string aadharCardNo;\r\n    string voterId;\r\n    string walletKey;\r\n    string politicalParty;\r\n    uint256 votes;\r\n    string symbolUrl;\r\n}\r\n\r\ncontract BlockVote{\r\n    /* Global Variables START. */\r\n    Admin public ECI = Admin({name:\"ECI_Official\", mobileNo:\"1234567890\", walletKey:\"0xB663Fde35c596E597A5660de6728b4bC302cb677\"});\r\n    Candidate public NOTA = Candidate({name:\"NOTA\", mobileNo:\"\", homeAddress:\"\", aadharCardNo:\"\", voterId:\"NOTA\", walletKey:\"NOTA\", politicalParty:\"NOTA\", votes:0, symbolUrl:\"https://www.oneindia.com/img/2016/03/nota-04-1457086162.jpg\"});\r\n    string voterId_main=\"\";\r\n    Admin[] public Admins;\r\n    Voter[] public Voters;\r\n    Candidate[] public Candidates;\r\n    string[] public candidate_names;\r\n    string[] public candidate_urls;\r\n    mapping (string=>Admin) public mapWalletKey2Admin;\r\n    // walletKey : voterId\r\n    mapping(string=>string) public map_walletKey_voterid;\r\n    // voterid : Voter;\r\n    mapping(string=>Voter) public map_voterid_details;\r\n    // wallet address : Candidate\r\n    mapping(string=>Candidate) public candidatesMap;\r\n    string votingPhase = \"preVoting\"; // Voting, Result\r\n    /* Global Variables END. */\r\n\r\n    /* ECI Functions START. */\r\n    uint addAdminState;     // 0 -> Not added, 1 -> Added succesfully, 2 -> Admin already exist, 3 -> Invalid ECI.\r\n    \r\n    function startVoting() public {\r\n        Candidates.push(NOTA);\r\n        votingPhase = \"Voting\";\r\n    }\r\n\r\n    function endVoting() public {\r\n        votingPhase = \"Result\";\r\n    }\r\n    \r\n    function getElectionStatus() public view returns(string memory) {\r\n        return votingPhase;\r\n    }\r\n\r\n    // Set addAdminState = 0.\r\n    function resetAddAdminState() private{\r\n        addAdminState = 0;\r\n    }\r\n\r\n    // Returns state of the last addAdmin call.\r\n    function getAddAdminState() public view returns(uint){\r\n        return addAdminState;\r\n    }\r\n\r\n    function authenticateECI(string memory _walletKey) public view returns(bool) {\r\n        return areStringsEqual(_walletKey, ECI.walletKey);\r\n    }\r\n\r\n    // Add an admin to the blockchain.\r\n    function addAdmin(string memory ECI_Key,string memory adName, string memory adMoNo, string memory adEthKey) public{\r\n        resetAddAdminState();\r\n        if(areStringsEqual(ECI_Key, ECI.walletKey)){\r\n            if(!areStringsEqual(mapWalletKey2Admin[adEthKey].walletKey, adEthKey)) {\r\n                Admin memory newAdmin = Admin({\r\n                    name:adName, \r\n                    mobileNo:adMoNo,\r\n                    walletKey:adEthKey\r\n                });\r\n                Admins.push(newAdmin);\r\n                mapWalletKey2Admin[adEthKey] = newAdmin;\r\n                addAdminState = 1;\r\n            }\r\n            else\r\n                addAdminState = 2;\r\n        }\r\n        else\r\n            addAdminState = 3;   \r\n    }\r\n\r\n    // Returns total number of admins in the blockchain.\r\n    function adminLength() public view returns(uint){\r\n        return Admins.length;\r\n    }\r\n\r\n    // Returns all admins in the blockchain.\r\n    function getAllAdmins() public view returns(Admin[] memory){\r\n        return Admins;\r\n    }\r\n\r\n    function authenticateAdmin(string memory _walletKey) public view returns(bool) {\r\n        if(!areStringsEqual(mapWalletKey2Admin[_walletKey].name,\"\")) return true;\r\n        else return false;\r\n    }\r\n\r\n    /* ECI Functions END. */\r\n\r\n    /* Admin Functions START. */\r\n    /* Admin Functions END. */\r\n\r\n    /* Voter Functions START. */\r\n    uint addVoterState;     // 0: not added, 1: added successfully, 2: already exists\r\n    function resetAddVoterState() private {\r\n        addVoterState = 0;\r\n    }\r\n    function getAddVoterState() public view returns(uint) {\r\n        return addVoterState;\r\n    }\r\n    function addVoter(string memory _name, string memory _mobileNo, string memory _homeAddress,\r\n     string memory _aadharCardNo, string memory _voterId, string memory _walletKey) public {\r\n        resetAddVoterState();\r\n         \r\n        Voter memory newVoter = Voter({\r\n                    name:_name, \r\n                    mobileNo:_mobileNo,\r\n                    homeAddress:_homeAddress,\r\n                    aadharCardNo:_aadharCardNo,\r\n                    voterId:_voterId,\r\n                    walletKey:_walletKey,\r\n                    isVoted:false\r\n        });\r\n        \r\n        if(!isVoterRegistered(newVoter)) {\r\n            Voters.push(newVoter);\r\n            map_voterid_details[_voterId] = newVoter;\r\n            map_walletKey_voterid[_walletKey] = _voterId;\r\n            addVoterState = 1;\r\n        }\r\n        else {\r\n            addVoterState = 2;\r\n        }\r\n        \r\n    }\r\n    function getAllVoters(string memory _walletKey) public view returns(string memory) {\r\n        return map_walletKey_voterid[_walletKey];\r\n    }\r\n    function hasVoted(string memory _voterid) public view returns(bool){\r\n        return map_voterid_details[_voterid].isVoted;\r\n    }\r\n\r\n    function isVoterRegistered(Voter memory item) public view returns(bool) {\r\n        if(!areStringsEqual(map_voterid_details[item.voterId].name,\"\")) return true;\r\n        else return false;\r\n    }\r\n\r\n    function authenticateVoter(string memory _walletKey) public returns(bool) {\r\n        if(!areStringsEqual(map_voterid_details[getVoterId(_walletKey)].name,\"\")) return true;\r\n        else return false;\r\n    }\r\n\r\n    function getVoterId(string memory _walletKey) public returns(string memory) {\r\n        voterId_main = map_walletKey_voterid[_walletKey];\r\n        return voterId_main;\r\n    }\r\n\r\n    function setVoterId(string memory _voterid) public {\r\n        voterId_main = _voterid;\r\n    }\r\n\r\n    function voterLength() public view returns(uint) {\r\n        return Voters.length;\r\n    }\r\n\r\n    function getVoterMobileNumber(string memory _voterid) public view returns(string memory) {\r\n        return map_voterid_details[_voterid].mobileNo;\r\n    }\r\n\r\n    /* Voter Functions END. */\r\n    \r\n    /* Candidate Functions START. */\r\n    uint addCandidateState; // 0: not added, 1: successfully added, 2: already exists\r\n    function addCandidate(string memory _name, string memory _mobileNo, string memory _homeAddress,\r\n     string memory _aadharCardNo, string memory _voterId, string memory _walletKey, string memory _politicalParty, string memory _symbolUrl) public {\r\n        \r\n        Candidate memory newCandidate = Candidate({\r\n                    name:_name, \r\n                    mobileNo:_mobileNo,\r\n                    homeAddress:_homeAddress,\r\n                    aadharCardNo:_aadharCardNo,\r\n                    voterId:_voterId,\r\n                    walletKey:_walletKey,\r\n                    politicalParty:_politicalParty,\r\n                    votes: 0,\r\n                    symbolUrl: _symbolUrl\r\n        });\r\n        if(!isCandidateRegistered(_walletKey)) {\r\n            Candidates.push(newCandidate);\r\n            candidatesMap[_walletKey] = newCandidate;\r\n            addVoter( _name, _mobileNo,  _homeAddress,\r\n                _aadharCardNo, _voterId,  _walletKey);\r\n            addCandidateState = 1;\r\n        }\r\n        else {\r\n            addCandidateState = 2;\r\n        }   \r\n    }\r\n\r\n    function isCandidateRegistered(string memory _walletKey) public view returns(bool){\r\n        if(!areStringsEqual(candidatesMap[_walletKey].name,\"\"))return true;\r\n        else return false;\r\n    }\r\n\r\n    function getCandidates() public returns(string[] memory) {\r\n        for(uint256 i=0;i<Candidates.length;i++) {\r\n        candidate_names.push(Candidates[i].name);\r\n        }\r\n        return candidate_names;\r\n    }\r\n\r\n    function getUrls() public returns(string[] memory) {\r\n        for(uint256 i=0;i<Candidates.length;i++) {\r\n            candidate_urls.push(Candidates[i].symbolUrl);\r\n        }\r\n        return candidate_urls;\r\n    }\r\n    \r\n    \r\n\r\n    /* Candidate Functions END. */\r\n\r\n    /* Results Functions START */\r\n    /* returns (candidates, votes, symbolUrls), receives object with 3 keys (0 : candidates array, 1 : votes array, 2: symbolUrls array) */\r\n    \r\n    string[] public _candidates;\r\n    uint256[] public _votes;\r\n    string[] public _symbolUrls;\r\n    function getResults() public returns(string[] memory, uint256[] memory, string[] memory) {\r\n        if(areStringsEqual(votingPhase, \"Result\")){\r\n            for(uint256 i=0;i<Candidates.length;i++) {\r\n                _candidates.push(Candidates[i].name);\r\n                _votes.push(Candidates[i].votes);\r\n                _symbolUrls.push(Candidates[i].symbolUrl);\r\n            }    \r\n        }\r\n        return (_candidates, _votes, _symbolUrls);\r\n    }\r\n    /* Results Functions END */\r\n\r\n    /* Voting Functions START */ \r\n    uint voteState = 0; //0:not voted, 1: successfully voted, 2:already voted\r\n    function setVoteState() public {\r\n        voteState = 0;\r\n    }\r\n    function getVoteState() public view returns(uint) {\r\n        return voteState;\r\n    }\r\n    function vote(string memory _voterId, string memory _walletKey, uint256 choice) public returns(string memory) {\r\n        setVoteState();\r\n        if(areStringsEqual(map_voterid_details[_voterId].walletKey, _walletKey)) {\r\n            if(!map_voterid_details[_voterId].isVoted) {\r\n                Candidates[choice].votes++;\r\n                string memory temp_walletKey = Candidates[choice].walletKey;\r\n                candidatesMap[temp_walletKey].votes++;\r\n                map_voterid_details[_voterId].isVoted = true;\r\n                for(uint256 i=0;i<Voters.length;i++) {\r\n                    if(areStringsEqual(Voters[i].voterId, _voterId)){\r\n                        Voters[i].isVoted = true;\r\n                        break;\r\n                    }\r\n                }\r\n                voteState = 1;\r\n                return \"Vote casted successfully!\";\r\n                \r\n            }\r\n            voteState = 2;\r\n            return \"Voter has already voted!\";\r\n        }\r\n        return \"Could not cast a vote, Voter not registered! (try changing account on metamask)\";\r\n    }\r\n    uint voteThroughAdminState = 0; // 0: not voted, 1:successfully voted, 2:already voted\r\n    function getVoteThroughAdminState() public view returns(uint) {\r\n        return voteThroughAdminState;\r\n    }\r\n    function voteThroughAdmin(string memory _voterId, uint256 choice) public returns(string memory) {\r\n        voteThroughAdminState = 0;\r\n        if(!map_voterid_details[_voterId].isVoted) {\r\n            Candidates[choice].votes++;\r\n            string memory temp_walletKey = Candidates[choice].walletKey;\r\n            candidatesMap[temp_walletKey].votes++;\r\n            map_voterid_details[_voterId].isVoted = true;\r\n            for(uint256 i=0;i<Voters.length;i++) {\r\n                if(areStringsEqual(Voters[i].voterId, _voterId)){\r\n                    Voters[i].isVoted = true;\r\n                    break;\r\n                }\r\n            }\r\n            voteThroughAdminState = 1;\r\n            return \"Vote casted successfully!\";\r\n        }\r\n        voteThroughAdminState = 2;\r\n        return \"Voter has already voted!\";\r\n    }\r\n    /* Voting Functions END */ \r\n\r\n    /* Utility Functions START. */\r\n    function areStringsEqual(string memory S1, string memory S2) public pure returns(bool){\r\n        return keccak256(bytes(S1)) == keccak256(bytes(S2));\r\n    }\r\n\r\n    function sampleValue() public pure returns(uint){\r\n        return 5;\r\n    }\r\n    /* Utility Functions END. */\r\n}\r\n",
  "sourcePath": "D:\\Blockchain-Projects\\BlockVote\\contracts\\BlockVote.sol",
  "compiler": {
    "name": "solc",
    "version": "0.8.13+commit.abaa5c0e.Emscripten.clang"
  },
  "schemaVersion": "3.4.4",
  "updatedAt": "2022-04-06T10:11:24.032Z",
  "networkType": "ethereum",
  "devdoc": {
    "kind": "dev",
    "methods": {},
    "version": 1
  },
  "userdoc": {
    "kind": "user",
    "methods": {},
    "version": 1
  }
}