{
  "contractName": "BlockVote",
  "abi": [
    {
      "inputs": [
        {
          "internalType": "uint256",
          "name": "",
          "type": "uint256"
        }
      ],
      "name": "Admins",
      "outputs": [
        {
          "internalType": "string",
          "name": "name",
          "type": "string"
        },
        {
          "internalType": "string",
          "name": "mobileNo",
          "type": "string"
        },
        {
          "internalType": "string",
          "name": "walletKey",
          "type": "string"
        }
      ],
      "stateMutability": "view",
      "type": "function",
      "constant": true
    },
    {
      "inputs": [
        {
          "internalType": "uint256",
          "name": "",
          "type": "uint256"
        }
      ],
      "name": "Candidates",
      "outputs": [
        {
          "internalType": "string",
          "name": "name",
          "type": "string"
        },
        {
          "internalType": "string",
          "name": "mobileNo",
          "type": "string"
        },
        {
          "internalType": "string",
          "name": "homeAddress",
          "type": "string"
        },
        {
          "internalType": "string",
          "name": "aadharCardNo",
          "type": "string"
        },
        {
          "internalType": "string",
          "name": "voterId",
          "type": "string"
        },
        {
          "internalType": "string",
          "name": "walletKey",
          "type": "string"
        },
        {
          "internalType": "string",
          "name": "politicalParty",
          "type": "string"
        },
        {
          "internalType": "uint256",
          "name": "votes",
          "type": "uint256"
        },
        {
          "internalType": "string",
          "name": "symbolUrl",
          "type": "string"
        }
      ],
      "stateMutability": "view",
      "type": "function",
      "constant": true
    },
    {
      "inputs": [],
      "name": "ECI",
      "outputs": [
        {
          "internalType": "string",
          "name": "name",
          "type": "string"
        },
        {
          "internalType": "string",
          "name": "mobileNo",
          "type": "string"
        },
        {
          "internalType": "string",
          "name": "walletKey",
          "type": "string"
        }
      ],
      "stateMutability": "view",
      "type": "function",
      "constant": true
    },
    {
      "inputs": [
        {
          "internalType": "uint256",
          "name": "",
          "type": "uint256"
        }
      ],
      "name": "Voters",
      "outputs": [
        {
          "internalType": "string",
          "name": "name",
          "type": "string"
        },
        {
          "internalType": "string",
          "name": "mobileNo",
          "type": "string"
        },
        {
          "internalType": "string",
          "name": "homeAddress",
          "type": "string"
        },
        {
          "internalType": "string",
          "name": "aadharCardNo",
          "type": "string"
        },
        {
          "internalType": "string",
          "name": "voterId",
          "type": "string"
        },
        {
          "internalType": "string",
          "name": "walletKey",
          "type": "string"
        },
        {
          "internalType": "bool",
          "name": "isVoted",
          "type": "bool"
        }
      ],
      "stateMutability": "view",
      "type": "function",
      "constant": true
    },
    {
      "inputs": [
        {
          "internalType": "uint256",
          "name": "",
          "type": "uint256"
        }
      ],
      "name": "_candidates",
      "outputs": [
        {
          "internalType": "string",
          "name": "",
          "type": "string"
        }
      ],
      "stateMutability": "view",
      "type": "function",
      "constant": true
    },
    {
      "inputs": [
        {
          "internalType": "uint256",
          "name": "",
          "type": "uint256"
        }
      ],
      "name": "_symbolUrls",
      "outputs": [
        {
          "internalType": "string",
          "name": "",
          "type": "string"
        }
      ],
      "stateMutability": "view",
      "type": "function",
      "constant": true
    },
    {
      "inputs": [
        {
          "internalType": "uint256",
          "name": "",
          "type": "uint256"
        }
      ],
      "name": "_votes",
      "outputs": [
        {
          "internalType": "uint256",
          "name": "",
          "type": "uint256"
        }
      ],
      "stateMutability": "view",
      "type": "function",
      "constant": true
    },
    {
      "inputs": [
        {
          "internalType": "uint256",
          "name": "",
          "type": "uint256"
        }
      ],
      "name": "candidate_names",
      "outputs": [
        {
          "internalType": "string",
          "name": "",
          "type": "string"
        }
      ],
      "stateMutability": "view",
      "type": "function",
      "constant": true
    },
    {
      "inputs": [
        {
          "internalType": "uint256",
          "name": "",
          "type": "uint256"
        }
      ],
      "name": "candidate_urls",
      "outputs": [
        {
          "internalType": "string",
          "name": "",
          "type": "string"
        }
      ],
      "stateMutability": "view",
      "type": "function",
      "constant": true
    },
    {
      "inputs": [
        {
          "internalType": "string",
          "name": "",
          "type": "string"
        }
      ],
      "name": "candidatesMap",
      "outputs": [
        {
          "internalType": "string",
          "name": "name",
          "type": "string"
        },
        {
          "internalType": "string",
          "name": "mobileNo",
          "type": "string"
        },
        {
          "internalType": "string",
          "name": "homeAddress",
          "type": "string"
        },
        {
          "internalType": "string",
          "name": "aadharCardNo",
          "type": "string"
        },
        {
          "internalType": "string",
          "name": "voterId",
          "type": "string"
        },
        {
          "internalType": "string",
          "name": "walletKey",
          "type": "string"
        },
        {
          "internalType": "string",
          "name": "politicalParty",
          "type": "string"
        },
        {
          "internalType": "uint256",
          "name": "votes",
          "type": "uint256"
        },
        {
          "internalType": "string",
          "name": "symbolUrl",
          "type": "string"
        }
      ],
      "stateMutability": "view",
      "type": "function",
      "constant": true
    },
    {
      "inputs": [
        {
          "internalType": "string",
          "name": "",
          "type": "string"
        }
      ],
      "name": "mapWalletKey2Admin",
      "outputs": [
        {
          "internalType": "string",
          "name": "name",
          "type": "string"
        },
        {
          "internalType": "string",
          "name": "mobileNo",
          "type": "string"
        },
        {
          "internalType": "string",
          "name": "walletKey",
          "type": "string"
        }
      ],
      "stateMutability": "view",
      "type": "function",
      "constant": true
    },
    {
      "inputs": [
        {
          "internalType": "string",
          "name": "",
          "type": "string"
        }
      ],
      "name": "map_voterid_details",
      "outputs": [
        {
          "internalType": "string",
          "name": "name",
          "type": "string"
        },
        {
          "internalType": "string",
          "name": "mobileNo",
          "type": "string"
        },
        {
          "internalType": "string",
          "name": "homeAddress",
          "type": "string"
        },
        {
          "internalType": "string",
          "name": "aadharCardNo",
          "type": "string"
        },
        {
          "internalType": "string",
          "name": "voterId",
          "type": "string"
        },
        {
          "internalType": "string",
          "name": "walletKey",
          "type": "string"
        },
        {
          "internalType": "bool",
          "name": "isVoted",
          "type": "bool"
        }
      ],
      "stateMutability": "view",
      "type": "function",
      "constant": true
    },
    {
      "inputs": [
        {
          "internalType": "string",
          "name": "",
          "type": "string"
        }
      ],
      "name": "map_walletKey_voterid",
      "outputs": [
        {
          "internalType": "string",
          "name": "",
          "type": "string"
        }
      ],
      "stateMutability": "view",
      "type": "function",
      "constant": true
    },
    {
      "inputs": [],
      "name": "startVoting",
      "outputs": [],
      "stateMutability": "nonpayable",
      "type": "function"
    },
    {
      "inputs": [],
      "name": "endVoting",
      "outputs": [],
      "stateMutability": "nonpayable",
      "type": "function"
    },
    {
      "inputs": [],
      "name": "getAddAdminState",
      "outputs": [
        {
          "internalType": "uint256",
          "name": "",
          "type": "uint256"
        }
      ],
      "stateMutability": "view",
      "type": "function",
      "constant": true
    },
    {
      "inputs": [
        {
          "internalType": "string",
          "name": "_walletKey",
          "type": "string"
        }
      ],
      "name": "authenticateECI",
      "outputs": [
        {
          "internalType": "bool",
          "name": "",
          "type": "bool"
        }
      ],
      "stateMutability": "view",
      "type": "function",
      "constant": true
    },
    {
      "inputs": [
        {
          "internalType": "string",
          "name": "ECI_Key",
          "type": "string"
        },
        {
          "internalType": "string",
          "name": "adName",
          "type": "string"
        },
        {
          "internalType": "string",
          "name": "adMoNo",
          "type": "string"
        },
        {
          "internalType": "string",
          "name": "adEthKey",
          "type": "string"
        }
      ],
      "name": "addAdmin",
      "outputs": [],
      "stateMutability": "nonpayable",
      "type": "function"
    },
    {
      "inputs": [],
      "name": "adminLength",
      "outputs": [
        {
          "internalType": "uint256",
          "name": "",
          "type": "uint256"
        }
      ],
      "stateMutability": "view",
      "type": "function",
      "constant": true
    },
    {
      "inputs": [],
      "name": "getAllAdmins",
      "outputs": [
        {
          "components": [
            {
              "internalType": "string",
              "name": "name",
              "type": "string"
            },
            {
              "internalType": "string",
              "name": "mobileNo",
              "type": "string"
            },
            {
              "internalType": "string",
              "name": "walletKey",
              "type": "string"
            }
          ],
          "internalType": "struct Admin[]",
          "name": "",
          "type": "tuple[]"
        }
      ],
      "stateMutability": "view",
      "type": "function",
      "constant": true
    },
    {
      "inputs": [
        {
          "internalType": "string",
          "name": "_walletKey",
          "type": "string"
        }
      ],
      "name": "authenticateAdmin",
      "outputs": [
        {
          "internalType": "bool",
          "name": "",
          "type": "bool"
        }
      ],
      "stateMutability": "view",
      "type": "function",
      "constant": true
    },
    {
      "inputs": [],
      "name": "getAddVoterState",
      "outputs": [
        {
          "internalType": "uint256",
          "name": "",
          "type": "uint256"
        }
      ],
      "stateMutability": "view",
      "type": "function",
      "constant": true
    },
    {
      "inputs": [
        {
          "internalType": "string",
          "name": "_name",
          "type": "string"
        },
        {
          "internalType": "string",
          "name": "_mobileNo",
          "type": "string"
        },
        {
          "internalType": "string",
          "name": "_homeAddress",
          "type": "string"
        },
        {
          "internalType": "string",
          "name": "_aadharCardNo",
          "type": "string"
        },
        {
          "internalType": "string",
          "name": "_voterId",
          "type": "string"
        },
        {
          "internalType": "string",
          "name": "_walletKey",
          "type": "string"
        }
      ],
      "name": "addVoter",
      "outputs": [],
      "stateMutability": "nonpayable",
      "type": "function"
    },
    {
      "inputs": [
        {
          "internalType": "string",
          "name": "_walletKey",
          "type": "string"
        }
      ],
      "name": "getAllVoters",
      "outputs": [
        {
          "internalType": "string",
          "name": "",
          "type": "string"
        }
      ],
      "stateMutability": "view",
      "type": "function",
      "constant": true
    },
    {
      "inputs": [
        {
          "internalType": "string",
          "name": "_voterid",
          "type": "string"
        }
      ],
      "name": "hasVoted",
      "outputs": [
        {
          "internalType": "bool",
          "name": "",
          "type": "bool"
        }
      ],
      "stateMutability": "view",
      "type": "function",
      "constant": true
    },
    {
      "inputs": [
        {
          "components": [
            {
              "internalType": "string",
              "name": "name",
              "type": "string"
            },
            {
              "internalType": "string",
              "name": "mobileNo",
              "type": "string"
            },
            {
              "internalType": "string",
              "name": "homeAddress",
              "type": "string"
            },
            {
              "internalType": "string",
              "name": "aadharCardNo",
              "type": "string"
            },
            {
              "internalType": "string",
              "name": "voterId",
              "type": "string"
            },
            {
              "internalType": "string",
              "name": "walletKey",
              "type": "string"
            },
            {
              "internalType": "bool",
              "name": "isVoted",
              "type": "bool"
            }
          ],
          "internalType": "struct Voter",
          "name": "item",
          "type": "tuple"
        }
      ],
      "name": "isVoterRegistered",
      "outputs": [
        {
          "internalType": "bool",
          "name": "",
          "type": "bool"
        }
      ],
      "stateMutability": "view",
      "type": "function",
      "constant": true
    },
    {
      "inputs": [
        {
          "internalType": "string",
          "name": "_walletKey",
          "type": "string"
        }
      ],
      "name": "authenticateVoter",
      "outputs": [
        {
          "internalType": "bool",
          "name": "",
          "type": "bool"
        }
      ],
      "stateMutability": "nonpayable",
      "type": "function"
    },
    {
      "inputs": [
        {
          "internalType": "string",
          "name": "_walletKey",
          "type": "string"
        }
      ],
      "name": "getVoterId",
      "outputs": [
        {
          "internalType": "string",
          "name": "",
          "type": "string"
        }
      ],
      "stateMutability": "nonpayable",
      "type": "function"
    },
    {
      "inputs": [
        {
          "internalType": "string",
          "name": "_voterid",
          "type": "string"
        }
      ],
      "name": "setVoterId",
      "outputs": [],
      "stateMutability": "nonpayable",
      "type": "function"
    },
    {
      "inputs": [],
      "name": "voterLength",
      "outputs": [
        {
          "internalType": "uint256",
          "name": "",
          "type": "uint256"
        }
      ],
      "stateMutability": "view",
      "type": "function",
      "constant": true
    },
    {
      "inputs": [
        {
          "internalType": "string",
          "name": "_voterid",
          "type": "string"
        }
      ],
      "name": "getVoterMobileNumber",
      "outputs": [
        {
          "internalType": "string",
          "name": "",
          "type": "string"
        }
      ],
      "stateMutability": "view",
      "type": "function",
      "constant": true
    },
    {
      "inputs": [
        {
          "internalType": "string",
          "name": "_name",
          "type": "string"
        },
        {
          "internalType": "string",
          "name": "_mobileNo",
          "type": "string"
        },
        {
          "internalType": "string",
          "name": "_homeAddress",
          "type": "string"
        },
        {
          "internalType": "string",
          "name": "_aadharCardNo",
          "type": "string"
        },
        {
          "internalType": "string",
          "name": "_voterId",
          "type": "string"
        },
        {
          "internalType": "string",
          "name": "_walletKey",
          "type": "string"
        },
        {
          "internalType": "string",
          "name": "_politicalParty",
          "type": "string"
        },
        {
          "internalType": "string",
          "name": "_symbolUrl",
          "type": "string"
        }
      ],
      "name": "addCandidate",
      "outputs": [],
      "stateMutability": "nonpayable",
      "type": "function"
    },
    {
      "inputs": [
        {
          "internalType": "string",
          "name": "_walletKey",
          "type": "string"
        }
      ],
      "name": "isCandidateRegistered",
      "outputs": [
        {
          "internalType": "bool",
          "name": "",
          "type": "bool"
        }
      ],
      "stateMutability": "view",
      "type": "function",
      "constant": true
    },
    {
      "inputs": [],
      "name": "getCandidates",
      "outputs": [
        {
          "internalType": "string[]",
          "name": "",
          "type": "string[]"
        }
      ],
      "stateMutability": "nonpayable",
      "type": "function"
    },
    {
      "inputs": [],
      "name": "getUrls",
      "outputs": [
        {
          "internalType": "string[]",
          "name": "",
          "type": "string[]"
        }
      ],
      "stateMutability": "nonpayable",
      "type": "function"
    },
    {
      "inputs": [],
      "name": "getResults",
      "outputs": [
        {
          "internalType": "string[]",
          "name": "",
          "type": "string[]"
        },
        {
          "internalType": "uint256[]",
          "name": "",
          "type": "uint256[]"
        },
        {
          "internalType": "string[]",
          "name": "",
          "type": "string[]"
        }
      ],
      "stateMutability": "nonpayable",
      "type": "function"
    },
    {
      "inputs": [
        {
          "internalType": "string",
          "name": "_voterId",
          "type": "string"
        },
        {
          "internalType": "string",
          "name": "_walletKey",
          "type": "string"
        },
        {
          "internalType": "uint256",
          "name": "choice",
          "type": "uint256"
        }
      ],
      "name": "vote",
      "outputs": [
        {
          "internalType": "string",
          "name": "",
          "type": "string"
        }
      ],
      "stateMutability": "nonpayable",
      "type": "function"
    },
    {
      "inputs": [
        {
          "internalType": "string",
          "name": "_voterId",
          "type": "string"
        },
        {
          "internalType": "uint256",
          "name": "choice",
          "type": "uint256"
        }
      ],
      "name": "voteThroughAdmin",
      "outputs": [
        {
          "internalType": "string",
          "name": "",
          "type": "string"
        }
      ],
      "stateMutability": "nonpayable",
      "type": "function"
    },
    {
      "inputs": [
        {
          "internalType": "string",
          "name": "S1",
          "type": "string"
        },
        {
          "internalType": "string",
          "name": "S2",
          "type": "string"
        }
      ],
      "name": "areStringsEqual",
      "outputs": [
        {
          "internalType": "bool",
          "name": "",
          "type": "bool"
        }
      ],
      "stateMutability": "pure",
      "type": "function",
      "constant": true
    },
    {
      "inputs": [],
      "name": "sampleValue",
      "outputs": [
        {
          "internalType": "uint256",
          "name": "",
          "type": "uint256"
        }
      ],
      "stateMutability": "pure",
      "type": "function",
      "constant": true
    }
  ],
  "bytecode": "0x608060405260405180606001604052806040518060400160405280600c81526020017f4543495f4f6666696369616c000000000000000000000000000000000000000081525081526020016040518060400160405280600a81526020017f313233343536373839300000000000000000000000000000000000000000000081525081526020016040518060600160405280602a815260200162005668602a9139815250600080820151816000019080519060200190620000c19291906200018c565b506020820151816001019080519060200190620000e09291906200018c565b506040820151816002019080519060200190620000ff9291906200018c565b5050506040518060200160405280600081525060039080519060200190620001299291906200018c565b506040518060400160405280600981526020017f707265566f74696e670000000000000000000000000000000000000000000000815250600d9080519060200190620001779291906200018c565b503480156200018557600080fd5b50620002a0565b8280546200019a906200026b565b90600052602060002090601f016020900481019282620001be57600085556200020a565b82601f10620001d957805160ff19168380011785556200020a565b828001600101855582156200020a579182015b8281111562000209578251825591602001919060010190620001ec565b5b5090506200021991906200021d565b5090565b5b80821115620002385760008160009055506001016200021e565b5090565b7f4e487b7100000000000000000000000000000000000000000000000000000000600052602260045260246000fd5b600060028204905060018216806200028457607f821691505b6020821081036200029a57620002996200023c565b5b50919050565b6153b880620002b06000396000f3fe608060405234801561001057600080fd5b50600436106102485760003560e01c80637d112d641161013b578063aebd20f0116100b8578063da06e07f1161007c578063da06e07f146107cd578063e9523c97146107eb578063eb03cd2214610809578063f372514614610839578063f6249c041461087157610248565b8063aebd20f0146106fd578063b1496cd414610733578063bea4889414610763578063c3403ddf14610793578063c4082bea1461079d57610248565b8063a3a8908d116100ff578063a3a8908d14610633578063a5a7524814610665578063a69945fb14610695578063a7254051146106c5578063a7d27b03146106e157610248565b80637d112d641461054f5780638a25d0721461057f5780639c35d98b1461059b5780639f6e5e6d146105d15780639f89a4b21461060157610248565b80635097086f116101c9578063609b62581161018d578063609b625814610493578063622eaa14146104b1578063648a305a146104d15780637820d384146105015780637a4c96ad1461051f57610248565b80635097086f146103b55780635143eda4146103e557806351b0906514610415578063565e802a146104455780635982f6101461047557610248565b80632ec66043116102105780632ec66043146102e757806339bfeae3146103175780634717f97c14610347578063481edc12146103675780634fbe75c11461038557610248565b806301ceb30a1461024d57806306a49fce1461026b57806313bad72f146102895780631ec6b60a146102a5578063290e9212146102af575b600080fd5b6102556108a1565b60405161026291906142e3565b60405180910390f35b6102736108ab565b6040516102809190614459565b60405180910390f35b6102a3600480360381019061029e91906145c4565b610a0c565b005b6102ad610cc3565b005b6102c960048036038101906102c49190614786565b610d11565b6040516102de999897969594939291906147fd565b60405180910390f35b61030160048036038101906102fc91906148c2565b6111af565b60405161030e919061490b565b60405180910390f35b610331600480360381019061032c91906148c2565b611265565b60405161033e9190614948565b60405180910390f35b61034f61129d565b60405161035e93929190614a21565b60405180910390f35b61036f6116b4565b60405161037c91906142e3565b60405180910390f35b61039f600480360381019061039a9190614bff565b6116be565b6040516103ac9190614948565b60405180910390f35b6103cf60048036038101906103ca9190614c48565b61179d565b6040516103dc919061490b565b60405180910390f35b6103ff60048036038101906103fa9190614786565b611ad0565b60405161040c919061490b565b60405180910390f35b61042f600480360381019061042a9190614786565b611b7c565b60405161043c919061490b565b60405180910390f35b61045f600480360381019061045a91906148c2565b611c28565b60405161046c9190614948565b60405180910390f35b61047d611d03565b60405161048a91906142e3565b60405180910390f35b61049b611d10565b6040516104a891906142e3565b60405180910390f35b6104b9611d19565b6040516104c893929190614ca4565b60405180910390f35b6104eb60048036038101906104e69190614786565b611ec9565b6040516104f8919061490b565b60405180910390f35b610509611f75565b60405161051691906142e3565b60405180910390f35b61053960048036038101906105349190614cf0565b611f82565b604051610546919061490b565b60405180910390f35b610569600480360381019061056491906148c2565b61238e565b6040516105769190614948565b60405180910390f35b61059960048036038101906105949190614d7b565b612471565b005b6105b560048036038101906105b09190614786565b612714565b6040516105c89796959493929190614e52565b60405180910390f35b6105eb60048036038101906105e69190614786565b612aa3565b6040516105f8919061490b565b60405180910390f35b61061b60048036038101906106169190614786565b612b4f565b60405161062a93929190614ca4565b60405180910390f35b61064d600480360381019061064891906148c2565b612d21565b60405161065c93929190614ca4565b60405180910390f35b61067f600480360381019061067a91906148c2565b612ef9565b60405161068c919061490b565b60405180910390f35b6106af60048036038101906106aa91906148c2565b612fa9565b6040516106bc9190614948565b60405180910390f35b6106df60048036038101906106da9190614eeb565b613084565b005b6106fb60048036038101906106f691906148c2565b613311565b005b610717600480360381019061071291906148c2565b61332b565b60405161072a9796959493929190614e52565b60405180910390f35b61074d60048036038101906107489190615020565b6136c0565b60405161075a9190614948565b60405180910390f35b61077d60048036038101906107789190614786565b6136db565b60405161078a91906142e3565b60405180910390f35b61079b6136ff565b005b6107b760048036038101906107b291906148c2565b61374d565b6040516107c4919061490b565b60405180910390f35b6107d5613800565b6040516107e29190614459565b60405180910390f35b6107f3613961565b60405161080091906151b8565b60405180910390f35b610823600480360381019061081e91906148c2565b613b76565b6040516108309190614948565b60405180910390f35b610853600480360381019061084e91906148c2565b613c16565b604051610868999897969594939291906147fd565b60405180910390f35b61088b600480360381019061088691906148c2565b6140ba565b604051610898919061490b565b60405180910390f35b6000600f54905090565b606060005b600680549050811015610934576007600682815481106108d3576108d26151da565b5b90600052602060002090600902016000019080600181540180825580915050600190039060005260206000200160009091909190915090805461091590615238565b61092092919061419a565b50808061092c90615298565b9150506108b0565b506007805480602002602001604051908101604052809291908181526020016000905b82821015610a0357838290600052602060002001805461097690615238565b80601f01602080910402602001604051908101604052809291908181526020018280546109a290615238565b80156109ef5780601f106109c4576101008083540402835291602001916109ef565b820191906000526020600020905b8154815290600101906020018083116109d257829003601f168201915b505050505081526020019060010190610957565b50505050905090565b60006040518061012001604052808a815260200189815260200188815260200187815260200186815260200185815260200184815260200160008152602001838152509050610a5a84611c28565b610caf5760068190806001815401808255809150506001900390600052602060002090600902016000909190919091506000820151816000019080519060200190610aa6929190614227565b506020820151816001019080519060200190610ac3929190614227565b506040820151816002019080519060200190610ae0929190614227565b506060820151816003019080519060200190610afd929190614227565b506080820151816004019080519060200190610b1a929190614227565b5060a0820151816005019080519060200190610b37929190614227565b5060c0820151816006019080519060200190610b54929190614227565b5060e08201518160070155610100820151816008019080519060200190610b7c929190614227565b50505080600c85604051610b90919061531c565b90815260200160405180910390206000820151816000019080519060200190610bba929190614227565b506020820151816001019080519060200190610bd7929190614227565b506040820151816002019080519060200190610bf4929190614227565b506060820151816003019080519060200190610c11929190614227565b506080820151816004019080519060200190610c2e929190614227565b5060a0820151816005019080519060200190610c4b929190614227565b5060c0820151816006019080519060200190610c68929190614227565b5060e08201518160070155610100820151816008019080519060200190610c90929190614227565b50905050610ca2898989898989613084565b6001601081905550610cb8565b60026010819055505b505050505050505050565b6040518060400160405280600681526020017f566f74696e670000000000000000000000000000000000000000000000000000815250600d9080519060200190610d0e929190614227565b50565b60068181548110610d2157600080fd5b9060005260206000209060090201600091509050806000018054610d4490615238565b80601f0160208091040260200160405190810160405280929190818152602001828054610d7090615238565b8015610dbd5780601f10610d9257610100808354040283529160200191610dbd565b820191906000526020600020905b815481529060010190602001808311610da057829003601f168201915b505050505090806001018054610dd290615238565b80601f0160208091040260200160405190810160405280929190818152602001828054610dfe90615238565b8015610e4b5780601f10610e2057610100808354040283529160200191610e4b565b820191906000526020600020905b815481529060010190602001808311610e2e57829003601f168201915b505050505090806002018054610e6090615238565b80601f0160208091040260200160405190810160405280929190818152602001828054610e8c90615238565b8015610ed95780601f10610eae57610100808354040283529160200191610ed9565b820191906000526020600020905b815481529060010190602001808311610ebc57829003601f168201915b505050505090806003018054610eee90615238565b80601f0160208091040260200160405190810160405280929190818152602001828054610f1a90615238565b8015610f675780601f10610f3c57610100808354040283529160200191610f67565b820191906000526020600020905b815481529060010190602001808311610f4a57829003601f168201915b505050505090806004018054610f7c90615238565b80601f0160208091040260200160405190810160405280929190818152602001828054610fa890615238565b8015610ff55780601f10610fca57610100808354040283529160200191610ff5565b820191906000526020600020905b815481529060010190602001808311610fd857829003601f168201915b50505050509080600501805461100a90615238565b80601f016020809104026020016040519081016040528092919081815260200182805461103690615238565b80156110835780601f1061105857610100808354040283529160200191611083565b820191906000526020600020905b81548152906001019060200180831161106657829003601f168201915b50505050509080600601805461109890615238565b80601f01602080910402602001604051908101604052809291908181526020018280546110c490615238565b80156111115780601f106110e657610100808354040283529160200191611111565b820191906000526020600020905b8154815290600101906020018083116110f457829003601f168201915b50505050509080600701549080600801805461112c90615238565b80601f016020809104026020016040519081016040528092919081815260200182805461115890615238565b80156111a55780601f1061117a576101008083540402835291602001916111a5565b820191906000526020600020905b81548152906001019060200180831161118857829003601f168201915b5050505050905089565b600a8180516020810182018051848252602083016020850120818352809550505050505060009150905080546111e490615238565b80601f016020809104026020016040519081016040528092919081815260200182805461121090615238565b801561125d5780601f106112325761010080835404028352916020019161125d565b820191906000526020600020905b81548152906001019060200180831161124057829003601f168201915b505050505081565b6000600b82604051611277919061531c565b908152602001604051809103902060060160009054906101000a900460ff169050919050565b606080606061136b600d80546112b290615238565b80601f01602080910402602001604051908101604052809291908181526020018280546112de90615238565b801561132b5780601f106113005761010080835404028352916020019161132b565b820191906000526020600020905b81548152906001019060200180831161130e57829003601f168201915b50505050506040518060400160405280600681526020017f526573756c7400000000000000000000000000000000000000000000000000008152506136c0565b156114ab5760005b6006805490508110156114a957601160068281548110611396576113956151da565b5b9060005260206000209060090201600001908060018154018082558091505060019003906000526020600020016000909190919091509080546113d890615238565b6113e392919061419a565b506012600682815481106113fa576113f96151da565b5b9060005260206000209060090201600701549080600181540180825580915050600190039060005260206000200160009091909190915055601360068281548110611448576114476151da565b5b90600052602060002090600902016008019080600181540180825580915050600190039060005260206000200160009091909190915090805461148a90615238565b61149592919061419a565b5080806114a190615298565b915050611373565b505b60116012601382805480602002602001604051908101604052809291908181526020016000905b8282101561157e5783829060005260206000200180546114f190615238565b80601f016020809104026020016040519081016040528092919081815260200182805461151d90615238565b801561156a5780601f1061153f5761010080835404028352916020019161156a565b820191906000526020600020905b81548152906001019060200180831161154d57829003601f168201915b5050505050815260200190600101906114d2565b505050509250818054806020026020016040519081016040528092919081815260200182805480156115cf57602002820191906000526020600020905b8154815260200190600101908083116115bb575b5050505050915080805480602002602001604051908101604052809291908181526020016000905b828210156116a357838290600052602060002001805461161690615238565b80601f016020809104026020016040519081016040528092919081815260200182805461164290615238565b801561168f5780601f106116645761010080835404028352916020019161168f565b820191906000526020600020905b81548152906001019060200180831161167257829003601f168201915b5050505050815260200190600101906115f7565b505050509050925092509250909192565b6000600e54905090565b6000611786600b83608001516040516116d7919061531c565b908152602001604051809103902060000180546116f390615238565b80601f016020809104026020016040519081016040528092919081815260200182805461171f90615238565b801561176c5780601f106117415761010080835404028352916020019161176c565b820191906000526020600020905b81548152906001019060200180831161174f57829003601f168201915b5050505050604051806020016040528060008152506136c0565b6117935760019050611798565b600090505b919050565b6060600b836040516117af919061531c565b908152602001604051809103902060060160009054906101000a900460ff16611a9157600682815481106117e6576117e56151da565b5b9060005260206000209060090201600701600081548092919061180890615298565b9190505550600060068381548110611823576118226151da565b5b9060005260206000209060090201600501805461183f90615238565b80601f016020809104026020016040519081016040528092919081815260200182805461186b90615238565b80156118b85780601f1061188d576101008083540402835291602001916118b8565b820191906000526020600020905b81548152906001019060200180831161189b57829003601f168201915b50505050509050600c816040516118cf919061531c565b908152602001604051809103902060070160008154809291906118f190615298565b91905055506001600b85604051611908919061531c565b908152602001604051809103902060060160006101000a81548160ff02191690831515021790555060005b600580549050811015611a52576119f760058281548110611957576119566151da565b5b9060005260206000209060070201600401805461197390615238565b80601f016020809104026020016040519081016040528092919081815260200182805461199f90615238565b80156119ec5780601f106119c1576101008083540402835291602001916119ec565b820191906000526020600020905b8154815290600101906020018083116119cf57829003601f168201915b5050505050866136c0565b15611a3f57600160058281548110611a1257611a116151da565b5b906000526020600020906007020160060160006101000a81548160ff021916908315150217905550611a52565b8080611a4a90615298565b915050611933565b506040518060400160405280601981526020017f566f746520636173746564207375636365737366756c6c792100000000000000815250915050611aca565b6040518060400160405280601881526020017f566f7465722068617320616c726561647920766f74656421000000000000000081525090505b92915050565b60088181548110611ae057600080fd5b906000526020600020016000915090508054611afb90615238565b80601f0160208091040260200160405190810160405280929190818152602001828054611b2790615238565b8015611b745780601f10611b4957610100808354040283529160200191611b74565b820191906000526020600020905b815481529060010190602001808311611b5757829003601f168201915b505050505081565b60078181548110611b8c57600080fd5b906000526020600020016000915090508054611ba790615238565b80601f0160208091040260200160405190810160405280929190818152602001828054611bd390615238565b8015611c205780601f10611bf557610100808354040283529160200191611c20565b820191906000526020600020905b815481529060010190602001808311611c0357829003601f168201915b505050505081565b6000611cec600c83604051611c3d919061531c565b90815260200160405180910390206000018054611c5990615238565b80601f0160208091040260200160405190810160405280929190818152602001828054611c8590615238565b8015611cd25780601f10611ca757610100808354040283529160200191611cd2565b820191906000526020600020905b815481529060010190602001808311611cb557829003601f168201915b5050505050604051806020016040528060008152506136c0565b611cf95760019050611cfe565b600090505b919050565b6000600480549050905090565b60006005905090565b6000806000018054611d2a90615238565b80601f0160208091040260200160405190810160405280929190818152602001828054611d5690615238565b8015611da35780601f10611d7857610100808354040283529160200191611da3565b820191906000526020600020905b815481529060010190602001808311611d8657829003601f168201915b505050505090806001018054611db890615238565b80601f0160208091040260200160405190810160405280929190818152602001828054611de490615238565b8015611e315780601f10611e0657610100808354040283529160200191611e31565b820191906000526020600020905b815481529060010190602001808311611e1457829003601f168201915b505050505090806002018054611e4690615238565b80601f0160208091040260200160405190810160405280929190818152602001828054611e7290615238565b8015611ebf5780601f10611e9457610100808354040283529160200191611ebf565b820191906000526020600020905b815481529060010190602001808311611ea257829003601f168201915b5050505050905083565b60118181548110611ed957600080fd5b906000526020600020016000915090508054611ef490615238565b80601f0160208091040260200160405190810160405280929190818152602001828054611f2090615238565b8015611f6d5780601f10611f4257610100808354040283529160200191611f6d565b820191906000526020600020905b815481529060010190602001808311611f5057829003601f168201915b505050505081565b6000600580549050905090565b6060612037600b85604051611f97919061531c565b90815260200160405180910390206005018054611fb390615238565b80601f0160208091040260200160405190810160405280929190818152602001828054611fdf90615238565b801561202c5780601f106120015761010080835404028352916020019161202c565b820191906000526020600020905b81548152906001019060200180831161200f57829003601f168201915b5050505050846136c0565b1561236b57600b8460405161204c919061531c565b908152602001604051809103902060060160009054906101000a900460ff1661232e5760068281548110612083576120826151da565b5b906000526020600020906009020160070160008154809291906120a590615298565b91905055506000600683815481106120c0576120bf6151da565b5b906000526020600020906009020160050180546120dc90615238565b80601f016020809104026020016040519081016040528092919081815260200182805461210890615238565b80156121555780601f1061212a57610100808354040283529160200191612155565b820191906000526020600020905b81548152906001019060200180831161213857829003601f168201915b50505050509050600c8160405161216c919061531c565b9081526020016040518091039020600701600081548092919061218e90615298565b91905055506001600b866040516121a5919061531c565b908152602001604051809103902060060160006101000a81548160ff02191690831515021790555060005b6005805490508110156122ef57612294600582815481106121f4576121f36151da565b5b9060005260206000209060070201600401805461221090615238565b80601f016020809104026020016040519081016040528092919081815260200182805461223c90615238565b80156122895780601f1061225e57610100808354040283529160200191612289565b820191906000526020600020905b81548152906001019060200180831161226c57829003601f168201915b5050505050876136c0565b156122dc576001600582815481106122af576122ae6151da565b5b906000526020600020906007020160060160006101000a81548160ff0219169083151502179055506122ef565b80806122e790615298565b9150506121d0565b506040518060400160405280601981526020017f566f746520636173746564207375636365737366756c6c792100000000000000815250915050612387565b6040518060400160405280601881526020017f566f7465722068617320616c726561647920766f7465642100000000000000008152509050612387565b6040518060800160405280604f8152602001615334604f913990505b9392505050565b600061245a600b61239e846140ba565b6040516123ab919061531c565b908152602001604051809103902060000180546123c790615238565b80601f01602080910402602001604051908101604052809291908181526020018280546123f390615238565b80156124405780601f1061241557610100808354040283529160200191612440565b820191906000526020600020905b81548152906001019060200180831161242357829003601f168201915b5050505050604051806020016040528060008152506136c0565b612467576001905061246c565b600090505b919050565b612479614186565b612510846000600201805461248d90615238565b80601f01602080910402602001604051908101604052809291908181526020018280546124b990615238565b80156125065780601f106124db57610100808354040283529160200191612506565b820191906000526020600020905b8154815290600101906020018083116124e957829003601f168201915b50505050506136c0565b15612705576125c8600982604051612528919061531c565b9081526020016040518091039020600201805461254490615238565b80601f016020809104026020016040519081016040528092919081815260200182805461257090615238565b80156125bd5780601f10612592576101008083540402835291602001916125bd565b820191906000526020600020905b8154815290600101906020018083116125a057829003601f168201915b5050505050826136c0565b6126f7576000604051806060016040528085815260200184815260200183815250905060048190806001815401808255809150506001900390600052602060002090600302016000909190919091506000820151816000019080519060200190612633929190614227565b506020820151816001019080519060200190612650929190614227565b50604082015181600201908051906020019061266d929190614227565b50505080600983604051612681919061531c565b908152602001604051809103902060008201518160000190805190602001906126ab929190614227565b5060208201518160010190805190602001906126c8929190614227565b5060408201518160020190805190602001906126e5929190614227565b509050506001600e8190555050612700565b6002600e819055505b61270e565b6003600e819055505b50505050565b6005818154811061272457600080fd5b906000526020600020906007020160009150905080600001805461274790615238565b80601f016020809104026020016040519081016040528092919081815260200182805461277390615238565b80156127c05780601f10612795576101008083540402835291602001916127c0565b820191906000526020600020905b8154815290600101906020018083116127a357829003601f168201915b5050505050908060010180546127d590615238565b80601f016020809104026020016040519081016040528092919081815260200182805461280190615238565b801561284e5780601f106128235761010080835404028352916020019161284e565b820191906000526020600020905b81548152906001019060200180831161283157829003601f168201915b50505050509080600201805461286390615238565b80601f016020809104026020016040519081016040528092919081815260200182805461288f90615238565b80156128dc5780601f106128b1576101008083540402835291602001916128dc565b820191906000526020600020905b8154815290600101906020018083116128bf57829003601f168201915b5050505050908060030180546128f190615238565b80601f016020809104026020016040519081016040528092919081815260200182805461291d90615238565b801561296a5780601f1061293f5761010080835404028352916020019161296a565b820191906000526020600020905b81548152906001019060200180831161294d57829003601f168201915b50505050509080600401805461297f90615238565b80601f01602080910402602001604051908101604052809291908181526020018280546129ab90615238565b80156129f85780601f106129cd576101008083540402835291602001916129f8565b820191906000526020600020905b8154815290600101906020018083116129db57829003601f168201915b505050505090806005018054612a0d90615238565b80601f0160208091040260200160405190810160405280929190818152602001828054612a3990615238565b8015612a865780601f10612a5b57610100808354040283529160200191612a86565b820191906000526020600020905b815481529060010190602001808311612a6957829003601f168201915b5050505050908060060160009054906101000a900460ff16905087565b60138181548110612ab357600080fd5b906000526020600020016000915090508054612ace90615238565b80601f0160208091040260200160405190810160405280929190818152602001828054612afa90615238565b8015612b475780601f10612b1c57610100808354040283529160200191612b47565b820191906000526020600020905b815481529060010190602001808311612b2a57829003601f168201915b505050505081565b60048181548110612b5f57600080fd5b9060005260206000209060030201600091509050806000018054612b8290615238565b80601f0160208091040260200160405190810160405280929190818152602001828054612bae90615238565b8015612bfb5780601f10612bd057610100808354040283529160200191612bfb565b820191906000526020600020905b815481529060010190602001808311612bde57829003601f168201915b505050505090806001018054612c1090615238565b80601f0160208091040260200160405190810160405280929190818152602001828054612c3c90615238565b8015612c895780601f10612c5e57610100808354040283529160200191612c89565b820191906000526020600020905b815481529060010190602001808311612c6c57829003601f168201915b505050505090806002018054612c9e90615238565b80601f0160208091040260200160405190810160405280929190818152602001828054612cca90615238565b8015612d175780601f10612cec57610100808354040283529160200191612d17565b820191906000526020600020905b815481529060010190602001808311612cfa57829003601f168201915b5050505050905083565b600981805160208101820180518482526020830160208501208183528095505050505050600091509050806000018054612d5a90615238565b80601f0160208091040260200160405190810160405280929190818152602001828054612d8690615238565b8015612dd35780601f10612da857610100808354040283529160200191612dd3565b820191906000526020600020905b815481529060010190602001808311612db657829003601f168201915b505050505090806001018054612de890615238565b80601f0160208091040260200160405190810160405280929190818152602001828054612e1490615238565b8015612e615780601f10612e3657610100808354040283529160200191612e61565b820191906000526020600020905b815481529060010190602001808311612e4457829003601f168201915b505050505090806002018054612e7690615238565b80601f0160208091040260200160405190810160405280929190818152602001828054612ea290615238565b8015612eef5780601f10612ec457610100808354040283529160200191612eef565b820191906000526020600020905b815481529060010190602001808311612ed257829003601f168201915b5050505050905083565b6060600a82604051612f0b919061531c565b90815260200160405180910390208054612f2490615238565b80601f0160208091040260200160405190810160405280929190818152602001828054612f5090615238565b8015612f9d5780601f10612f7257610100808354040283529160200191612f9d565b820191906000526020600020905b815481529060010190602001808311612f8057829003601f168201915b50505050509050919050565b600061306d600983604051612fbe919061531c565b90815260200160405180910390206000018054612fda90615238565b80601f016020809104026020016040519081016040528092919081815260200182805461300690615238565b80156130535780601f1061302857610100808354040283529160200191613053565b820191906000526020600020905b81548152906001019060200180831161303657829003601f168201915b5050505050604051806020016040528060008152506136c0565b61307a576001905061307f565b600090505b919050565b61308c614190565b60006040518060e001604052808881526020018781526020018681526020018581526020018481526020018381526020016000151581525090506130cf816116be565b6132ff576005819080600181540180825580915050600190039060005260206000209060070201600090919091909150600082015181600001908051906020019061311b929190614227565b506020820151816001019080519060200190613138929190614227565b506040820151816002019080519060200190613155929190614227565b506060820151816003019080519060200190613172929190614227565b50608082015181600401908051906020019061318f929190614227565b5060a08201518160050190805190602001906131ac929190614227565b5060c08201518160060160006101000a81548160ff021916908315150217905550505080600b846040516131e0919061531c565b9081526020016040518091039020600082015181600001908051906020019061320a929190614227565b506020820151816001019080519060200190613227929190614227565b506040820151816002019080519060200190613244929190614227565b506060820151816003019080519060200190613261929190614227565b50608082015181600401908051906020019061327e929190614227565b5060a082015181600501908051906020019061329b929190614227565b5060c08201518160060160006101000a81548160ff02191690831515021790555090505082600a836040516132d0919061531c565b908152602001604051809103902090805190602001906132f1929190614227565b506001600f81905550613308565b6002600f819055505b50505050505050565b8060039080519060200190613327929190614227565b5050565b600b8180516020810182018051848252602083016020850120818352809550505050505060009150905080600001805461336490615238565b80601f016020809104026020016040519081016040528092919081815260200182805461339090615238565b80156133dd5780601f106133b2576101008083540402835291602001916133dd565b820191906000526020600020905b8154815290600101906020018083116133c057829003601f168201915b5050505050908060010180546133f290615238565b80601f016020809104026020016040519081016040528092919081815260200182805461341e90615238565b801561346b5780601f106134405761010080835404028352916020019161346b565b820191906000526020600020905b81548152906001019060200180831161344e57829003601f168201915b50505050509080600201805461348090615238565b80601f01602080910402602001604051908101604052809291908181526020018280546134ac90615238565b80156134f95780601f106134ce576101008083540402835291602001916134f9565b820191906000526020600020905b8154815290600101906020018083116134dc57829003601f168201915b50505050509080600301805461350e90615238565b80601f016020809104026020016040519081016040528092919081815260200182805461353a90615238565b80156135875780601f1061355c57610100808354040283529160200191613587565b820191906000526020600020905b81548152906001019060200180831161356a57829003601f168201915b50505050509080600401805461359c90615238565b80601f01602080910402602001604051908101604052809291908181526020018280546135c890615238565b80156136155780601f106135ea57610100808354040283529160200191613615565b820191906000526020600020905b8154815290600101906020018083116135f857829003601f168201915b50505050509080600501805461362a90615238565b80601f016020809104026020016040519081016040528092919081815260200182805461365690615238565b80156136a35780601f10613678576101008083540402835291602001916136a3565b820191906000526020600020905b81548152906001019060200180831161368657829003601f168201915b5050505050908060060160009054906101000a900460ff16905087565b60008180519060200120838051906020012014905092915050565b601281815481106136eb57600080fd5b906000526020600020016000915090505481565b6040518060400160405280600681526020017f526573756c740000000000000000000000000000000000000000000000000000815250600d908051906020019061374a929190614227565b50565b6060600b8260405161375f919061531c565b9081526020016040518091039020600101805461377b90615238565b80601f01602080910402602001604051908101604052809291908181526020018280546137a790615238565b80156137f45780601f106137c9576101008083540402835291602001916137f4565b820191906000526020600020905b8154815290600101906020018083116137d757829003601f168201915b50505050509050919050565b606060005b60068054905081101561388957600860068281548110613828576138276151da565b5b90600052602060002090600902016008019080600181540180825580915050600190039060005260206000200160009091909190915090805461386a90615238565b61387592919061419a565b50808061388190615298565b915050613805565b506008805480602002602001604051908101604052809291908181526020016000905b828210156139585783829060005260206000200180546138cb90615238565b80601f01602080910402602001604051908101604052809291908181526020018280546138f790615238565b80156139445780601f1061391957610100808354040283529160200191613944565b820191906000526020600020905b81548152906001019060200180831161392757829003601f168201915b5050505050815260200190600101906138ac565b50505050905090565b60606004805480602002602001604051908101604052809291908181526020016000905b82821015613b6d57838290600052602060002090600302016040518060600160405290816000820180546139b890615238565b80601f01602080910402602001604051908101604052809291908181526020018280546139e490615238565b8015613a315780601f10613a0657610100808354040283529160200191613a31565b820191906000526020600020905b815481529060010190602001808311613a1457829003601f168201915b50505050508152602001600182018054613a4a90615238565b80601f0160208091040260200160405190810160405280929190818152602001828054613a7690615238565b8015613ac35780601f10613a9857610100808354040283529160200191613ac3565b820191906000526020600020905b815481529060010190602001808311613aa657829003601f168201915b50505050508152602001600282018054613adc90615238565b80601f0160208091040260200160405190810160405280929190818152602001828054613b0890615238565b8015613b555780601f10613b2a57610100808354040283529160200191613b55565b820191906000526020600020905b815481529060010190602001808311613b3857829003601f168201915b50505050508152505081526020019060010190613985565b50505050905090565b6000613c0f8260006002018054613b8c90615238565b80601f0160208091040260200160405190810160405280929190818152602001828054613bb890615238565b8015613c055780601f10613bda57610100808354040283529160200191613c05565b820191906000526020600020905b815481529060010190602001808311613be857829003601f168201915b50505050506136c0565b9050919050565b600c81805160208101820180518482526020830160208501208183528095505050505050600091509050806000018054613c4f90615238565b80601f0160208091040260200160405190810160405280929190818152602001828054613c7b90615238565b8015613cc85780601f10613c9d57610100808354040283529160200191613cc8565b820191906000526020600020905b815481529060010190602001808311613cab57829003601f168201915b505050505090806001018054613cdd90615238565b80601f0160208091040260200160405190810160405280929190818152602001828054613d0990615238565b8015613d565780601f10613d2b57610100808354040283529160200191613d56565b820191906000526020600020905b815481529060010190602001808311613d3957829003601f168201915b505050505090806002018054613d6b90615238565b80601f0160208091040260200160405190810160405280929190818152602001828054613d9790615238565b8015613de45780601f10613db957610100808354040283529160200191613de4565b820191906000526020600020905b815481529060010190602001808311613dc757829003601f168201915b505050505090806003018054613df990615238565b80601f0160208091040260200160405190810160405280929190818152602001828054613e2590615238565b8015613e725780601f10613e4757610100808354040283529160200191613e72565b820191906000526020600020905b815481529060010190602001808311613e5557829003601f168201915b505050505090806004018054613e8790615238565b80601f0160208091040260200160405190810160405280929190818152602001828054613eb390615238565b8015613f005780601f10613ed557610100808354040283529160200191613f00565b820191906000526020600020905b815481529060010190602001808311613ee357829003601f168201915b505050505090806005018054613f1590615238565b80601f0160208091040260200160405190810160405280929190818152602001828054613f4190615238565b8015613f8e5780601f10613f6357610100808354040283529160200191613f8e565b820191906000526020600020905b815481529060010190602001808311613f7157829003601f168201915b505050505090806006018054613fa390615238565b80601f0160208091040260200160405190810160405280929190818152602001828054613fcf90615238565b801561401c5780601f10613ff15761010080835404028352916020019161401c565b820191906000526020600020905b815481529060010190602001808311613fff57829003601f168201915b50505050509080600701549080600801805461403790615238565b80601f016020809104026020016040519081016040528092919081815260200182805461406390615238565b80156140b05780601f10614085576101008083540402835291602001916140b0565b820191906000526020600020905b81548152906001019060200180831161409357829003601f168201915b5050505050905089565b6060600a826040516140cc919061531c565b908152602001604051809103902060039080546140e890615238565b6140f392919061419a565b506003805461410190615238565b80601f016020809104026020016040519081016040528092919081815260200182805461412d90615238565b801561417a5780601f1061414f5761010080835404028352916020019161417a565b820191906000526020600020905b81548152906001019060200180831161415d57829003601f168201915b50505050509050919050565b6000600e81905550565b6000600f81905550565b8280546141a690615238565b90600052602060002090601f0160209004810192826141c85760008555614216565b82601f106141d95780548555614216565b8280016001018555821561421657600052602060002091601f016020900482015b828111156142155782548255916001019190600101906141fa565b5b50905061422391906142ad565b5090565b82805461423390615238565b90600052602060002090601f016020900481019282614255576000855561429c565b82601f1061426e57805160ff191683800117855561429c565b8280016001018555821561429c579182015b8281111561429b578251825591602001919060010190614280565b5b5090506142a991906142ad565b5090565b5b808211156142c65760008160009055506001016142ae565b5090565b6000819050919050565b6142dd816142ca565b82525050565b60006020820190506142f860008301846142d4565b92915050565b600081519050919050565b600082825260208201905092915050565b6000819050602082019050919050565b600081519050919050565b600082825260208201905092915050565b60005b83811015614364578082015181840152602081019050614349565b83811115614373576000848401525b50505050565b6000601f19601f8301169050919050565b60006143958261432a565b61439f8185614335565b93506143af818560208601614346565b6143b881614379565b840191505092915050565b60006143cf838361438a565b905092915050565b6000602082019050919050565b60006143ef826142fe565b6143f98185614309565b93508360208202850161440b8561431a565b8060005b85811015614447578484038952815161442885826143c3565b9450614433836143d7565b925060208a0199505060018101905061440f565b50829750879550505050505092915050565b6000602082019050818103600083015261447381846143e4565b905092915050565b6000604051905090565b600080fd5b600080fd5b600080fd5b600080fd5b7f4e487b7100000000000000000000000000000000000000000000000000000000600052604160045260246000fd5b6144d182614379565b810181811067ffffffffffffffff821117156144f0576144ef614499565b5b80604052505050565b600061450361447b565b905061450f82826144c8565b919050565b600067ffffffffffffffff82111561452f5761452e614499565b5b61453882614379565b9050602081019050919050565b82818337600083830152505050565b600061456761456284614514565b6144f9565b90508281526020810184848401111561458357614582614494565b5b61458e848285614545565b509392505050565b600082601f8301126145ab576145aa61448f565b5b81356145bb848260208601614554565b91505092915050565b600080600080600080600080610100898b0312156145e5576145e4614485565b5b600089013567ffffffffffffffff8111156146035761460261448a565b5b61460f8b828c01614596565b985050602089013567ffffffffffffffff8111156146305761462f61448a565b5b61463c8b828c01614596565b975050604089013567ffffffffffffffff81111561465d5761465c61448a565b5b6146698b828c01614596565b965050606089013567ffffffffffffffff81111561468a5761468961448a565b5b6146968b828c01614596565b955050608089013567ffffffffffffffff8111156146b7576146b661448a565b5b6146c38b828c01614596565b94505060a089013567ffffffffffffffff8111156146e4576146e361448a565b5b6146f08b828c01614596565b93505060c089013567ffffffffffffffff8111156147115761471061448a565b5b61471d8b828c01614596565b92505060e089013567ffffffffffffffff81111561473e5761473d61448a565b5b61474a8b828c01614596565b9150509295985092959890939650565b614763816142ca565b811461476e57600080fd5b50565b6000813590506147808161475a565b92915050565b60006020828403121561479c5761479b614485565b5b60006147aa84828501614771565b91505092915050565b600082825260208201905092915050565b60006147cf8261432a565b6147d981856147b3565b93506147e9818560208601614346565b6147f281614379565b840191505092915050565b6000610120820190508181036000830152614818818c6147c4565b9050818103602083015261482c818b6147c4565b90508181036040830152614840818a6147c4565b9050818103606083015261485481896147c4565b9050818103608083015261486881886147c4565b905081810360a083015261487c81876147c4565b905081810360c083015261489081866147c4565b905061489f60e08301856142d4565b8181036101008301526148b281846147c4565b90509a9950505050505050505050565b6000602082840312156148d8576148d7614485565b5b600082013567ffffffffffffffff8111156148f6576148f561448a565b5b61490284828501614596565b91505092915050565b6000602082019050818103600083015261492581846147c4565b905092915050565b60008115159050919050565b6149428161492d565b82525050565b600060208201905061495d6000830184614939565b92915050565b600081519050919050565b600082825260208201905092915050565b6000819050602082019050919050565b614998816142ca565b82525050565b60006149aa838361498f565b60208301905092915050565b6000602082019050919050565b60006149ce82614963565b6149d8818561496e565b93506149e38361497f565b8060005b83811015614a145781516149fb888261499e565b9750614a06836149b6565b9250506001810190506149e7565b5085935050505092915050565b60006060820190508181036000830152614a3b81866143e4565b90508181036020830152614a4f81856149c3565b90508181036040830152614a6381846143e4565b9050949350505050565b600080fd5b600080fd5b614a808161492d565b8114614a8b57600080fd5b50565b600081359050614a9d81614a77565b92915050565b600060e08284031215614ab957614ab8614a6d565b5b614ac360e06144f9565b9050600082013567ffffffffffffffff811115614ae357614ae2614a72565b5b614aef84828501614596565b600083015250602082013567ffffffffffffffff811115614b1357614b12614a72565b5b614b1f84828501614596565b602083015250604082013567ffffffffffffffff811115614b4357614b42614a72565b5b614b4f84828501614596565b604083015250606082013567ffffffffffffffff811115614b7357614b72614a72565b5b614b7f84828501614596565b606083015250608082013567ffffffffffffffff811115614ba357614ba2614a72565b5b614baf84828501614596565b60808301525060a082013567ffffffffffffffff811115614bd357614bd2614a72565b5b614bdf84828501614596565b60a08301525060c0614bf384828501614a8e565b60c08301525092915050565b600060208284031215614c1557614c14614485565b5b600082013567ffffffffffffffff811115614c3357614c3261448a565b5b614c3f84828501614aa3565b91505092915050565b60008060408385031215614c5f57614c5e614485565b5b600083013567ffffffffffffffff811115614c7d57614c7c61448a565b5b614c8985828601614596565b9250506020614c9a85828601614771565b9150509250929050565b60006060820190508181036000830152614cbe81866147c4565b90508181036020830152614cd281856147c4565b90508181036040830152614ce681846147c4565b9050949350505050565b600080600060608486031215614d0957614d08614485565b5b600084013567ffffffffffffffff811115614d2757614d2661448a565b5b614d3386828701614596565b935050602084013567ffffffffffffffff811115614d5457614d5361448a565b5b614d6086828701614596565b9250506040614d7186828701614771565b9150509250925092565b60008060008060808587031215614d9557614d94614485565b5b600085013567ffffffffffffffff811115614db357614db261448a565b5b614dbf87828801614596565b945050602085013567ffffffffffffffff811115614de057614ddf61448a565b5b614dec87828801614596565b935050604085013567ffffffffffffffff811115614e0d57614e0c61448a565b5b614e1987828801614596565b925050606085013567ffffffffffffffff811115614e3a57614e3961448a565b5b614e4687828801614596565b91505092959194509250565b600060e0820190508181036000830152614e6c818a6147c4565b90508181036020830152614e8081896147c4565b90508181036040830152614e9481886147c4565b90508181036060830152614ea881876147c4565b90508181036080830152614ebc81866147c4565b905081810360a0830152614ed081856147c4565b9050614edf60c0830184614939565b98975050505050505050565b60008060008060008060c08789031215614f0857614f07614485565b5b600087013567ffffffffffffffff811115614f2657614f2561448a565b5b614f3289828a01614596565b965050602087013567ffffffffffffffff811115614f5357614f5261448a565b5b614f5f89828a01614596565b955050604087013567ffffffffffffffff811115614f8057614f7f61448a565b5b614f8c89828a01614596565b945050606087013567ffffffffffffffff811115614fad57614fac61448a565b5b614fb989828a01614596565b935050608087013567ffffffffffffffff811115614fda57614fd961448a565b5b614fe689828a01614596565b92505060a087013567ffffffffffffffff8111156150075761500661448a565b5b61501389828a01614596565b9150509295509295509295565b6000806040838503121561503757615036614485565b5b600083013567ffffffffffffffff8111156150555761505461448a565b5b61506185828601614596565b925050602083013567ffffffffffffffff8111156150825761508161448a565b5b61508e85828601614596565b9150509250929050565b600081519050919050565b600082825260208201905092915050565b6000819050602082019050919050565b600060608301600083015184820360008601526150e1828261438a565b915050602083015184820360208601526150fb828261438a565b91505060408301518482036040860152615115828261438a565b9150508091505092915050565b600061512e83836150c4565b905092915050565b6000602082019050919050565b600061514e82615098565b61515881856150a3565b93508360208202850161516a856150b4565b8060005b858110156151a657848403895281516151878582615122565b945061519283615136565b925060208a0199505060018101905061516e565b50829750879550505050505092915050565b600060208201905081810360008301526151d28184615143565b905092915050565b7f4e487b7100000000000000000000000000000000000000000000000000000000600052603260045260246000fd5b7f4e487b7100000000000000000000000000000000000000000000000000000000600052602260045260246000fd5b6000600282049050600182168061525057607f821691505b60208210810361526357615262615209565b5b50919050565b7f4e487b7100000000000000000000000000000000000000000000000000000000600052601160045260246000fd5b60006152a3826142ca565b91507fffffffffffffffffffffffffffffffffffffffffffffffffffffffffffffffff82036152d5576152d4615269565b5b600182019050919050565b600081905092915050565b60006152f68261432a565b61530081856152e0565b9350615310818560208601614346565b80840191505092915050565b600061532882846152eb565b91508190509291505056fe436f756c64206e6f742063617374206120766f74652c20566f746572206e6f742072656769737465726564212028747279206368616e67696e67206163636f756e74206f6e206d6574616d61736b29a26469706673582212205aa532ed035fa70ef078fc734014cef1054c0e9ebc0b9aa51eab00b01c458a1e64736f6c634300080d0033307842363633466465333563353936453539374135363630646536373238623462433330326362363737",
  "immutableReferences": {},
  "source": "// SPDX-License-Identifier: MIT\r\npragma solidity ^0.8.10;\r\n\r\nstruct Admin{\r\n    string name;\r\n    string mobileNo;\r\n    string walletKey;\r\n}\r\n\r\nstruct Voter {\r\n    string name;\r\n    string mobileNo;\r\n    string homeAddress;\r\n    string aadharCardNo;\r\n    string voterId;\r\n    string walletKey;\r\n    bool isVoted;\r\n}\r\n\r\nstruct Candidate {\r\n    string name;\r\n    string mobileNo;\r\n    string homeAddress;\r\n    string aadharCardNo;\r\n    string voterId;\r\n    string walletKey;\r\n    string politicalParty;\r\n    uint256 votes;\r\n    string symbolUrl;\r\n}\r\n\r\ncontract BlockVote{\r\n    /* Global Variables START. */\r\n    Admin public ECI = Admin({name:\"ECI_Official\", mobileNo:\"1234567890\", walletKey:\"0xB663Fde35c596E597A5660de6728b4bC302cb677\"});\r\n    string voterId_main=\"\";\r\n    Admin[] public Admins;\r\n    Voter[] public Voters;\r\n    Candidate[] public Candidates;\r\n    string[] public candidate_names;\r\n    string[] public candidate_urls;\r\n    mapping (string=>Admin) public mapWalletKey2Admin;\r\n    // walletKey : voterId\r\n    mapping(string=>string) public map_walletKey_voterid;\r\n    // voterid : Voter;\r\n    mapping(string=>Voter) public map_voterid_details;\r\n    // wallet address : Candidate\r\n    mapping(string=>Candidate) public candidatesMap;\r\n    string votingPhase = \"preVoting\"; // Voting, Result\r\n    /* Global Variables END. */\r\n\r\n    /* ECI Functions START. */\r\n    uint addAdminState;     // 0 -> Not added, 1 -> Added succesfully, 2 -> Admin already exist, 3 -> Invalid ECI.\r\n    \r\n    function startVoting() public {\r\n        votingPhase = \"Voting\";\r\n    }\r\n\r\n    function endVoting() public {\r\n        votingPhase = \"Result\";\r\n    }\r\n\r\n    // Set addAdminState = 0.\r\n    function resetAddAdminState() private{\r\n        addAdminState = 0;\r\n    }\r\n\r\n    // Returns state of the last addAdmin call.\r\n    function getAddAdminState() public view returns(uint){\r\n        return addAdminState;\r\n    }\r\n\r\n    function authenticateECI(string memory _walletKey) public view returns(bool) {\r\n        return areStringsEqual(_walletKey, ECI.walletKey);\r\n    }\r\n\r\n    // Add an admin to the blockchain.\r\n    function addAdmin(string memory ECI_Key,string memory adName, string memory adMoNo, string memory adEthKey) public{\r\n        resetAddAdminState();\r\n        if(areStringsEqual(ECI_Key, ECI.walletKey)){\r\n            if(!areStringsEqual(mapWalletKey2Admin[adEthKey].walletKey, adEthKey)) {\r\n                Admin memory newAdmin = Admin({\r\n                    name:adName, \r\n                    mobileNo:adMoNo,\r\n                    walletKey:adEthKey\r\n                });\r\n                Admins.push(newAdmin);\r\n                mapWalletKey2Admin[adEthKey] = newAdmin;\r\n                addAdminState = 1;\r\n            }\r\n            else\r\n                addAdminState = 2;\r\n        }\r\n        else\r\n            addAdminState = 3;   \r\n    }\r\n\r\n    // Returns total number of admins in the blockchain.\r\n    function adminLength() public view returns(uint){\r\n        return Admins.length;\r\n    }\r\n\r\n    // Returns all admins in the blockchain.\r\n    function getAllAdmins() public view returns(Admin[] memory){\r\n        return Admins;\r\n    }\r\n\r\n    function authenticateAdmin(string memory _walletKey) public view returns(bool) {\r\n        if(!areStringsEqual(mapWalletKey2Admin[_walletKey].name,\"\")) return true;\r\n        else return false;\r\n    }\r\n\r\n    /* ECI Functions END. */\r\n\r\n    /* Admin Functions START. */\r\n    /* Admin Functions END. */\r\n\r\n    /* Voter Functions START. */\r\n    uint addVoterState;     // 0: not added, 1: added successfully, 2: already exists\r\n    function resetAddVoterState() private {\r\n        addVoterState = 0;\r\n    }\r\n    function getAddVoterState() public view returns(uint) {\r\n        return addVoterState;\r\n    }\r\n    function addVoter(string memory _name, string memory _mobileNo, string memory _homeAddress,\r\n     string memory _aadharCardNo, string memory _voterId, string memory _walletKey) public {\r\n        resetAddVoterState();\r\n         \r\n        Voter memory newVoter = Voter({\r\n                    name:_name, \r\n                    mobileNo:_mobileNo,\r\n                    homeAddress:_homeAddress,\r\n                    aadharCardNo:_aadharCardNo,\r\n                    voterId:_voterId,\r\n                    walletKey:_walletKey,\r\n                    isVoted:false\r\n        });\r\n        \r\n        if(!isVoterRegistered(newVoter)) {\r\n            Voters.push(newVoter);\r\n            map_voterid_details[_voterId] = newVoter;\r\n            map_walletKey_voterid[_walletKey] = _voterId;\r\n            addVoterState = 1;\r\n        }\r\n        else {\r\n            addVoterState = 2;\r\n        }\r\n        \r\n    }\r\n    function getAllVoters(string memory _walletKey) public view returns(string memory) {\r\n        return map_walletKey_voterid[_walletKey];\r\n    }\r\n    function hasVoted(string memory _voterid) public view returns(bool){\r\n        return map_voterid_details[_voterid].isVoted;\r\n    }\r\n\r\n    function isVoterRegistered(Voter memory item) public view returns(bool) {\r\n        if(!areStringsEqual(map_voterid_details[item.voterId].name,\"\")) return true;\r\n        else return false;\r\n    }\r\n\r\n    function authenticateVoter(string memory _walletKey) public returns(bool) {\r\n        if(!areStringsEqual(map_voterid_details[getVoterId(_walletKey)].name,\"\")) return true;\r\n        else return false;\r\n    }\r\n\r\n    function getVoterId(string memory _walletKey) public returns(string memory) {\r\n        voterId_main = map_walletKey_voterid[_walletKey];\r\n        return voterId_main;\r\n    }\r\n\r\n    function setVoterId(string memory _voterid) public {\r\n        voterId_main = _voterid;\r\n    }\r\n\r\n    function voterLength() public view returns(uint) {\r\n        return Voters.length;\r\n    }\r\n\r\n    function getVoterMobileNumber(string memory _voterid) public view returns(string memory) {\r\n        return map_voterid_details[_voterid].mobileNo;\r\n    }\r\n\r\n    /* Voter Functions END. */\r\n    \r\n    /* Candidate Functions START. */\r\n    uint addCandidateState; // 0: not added, 1: successfully added, 2: already exists\r\n    function addCandidate(string memory _name, string memory _mobileNo, string memory _homeAddress,\r\n     string memory _aadharCardNo, string memory _voterId, string memory _walletKey, string memory _politicalParty, string memory _symbolUrl) public {\r\n        Candidate memory newCandidate = Candidate({\r\n                    name:_name, \r\n                    mobileNo:_mobileNo,\r\n                    homeAddress:_homeAddress,\r\n                    aadharCardNo:_aadharCardNo,\r\n                    voterId:_voterId,\r\n                    walletKey:_walletKey,\r\n                    politicalParty:_politicalParty,\r\n                    votes: 0,\r\n                    symbolUrl: _symbolUrl\r\n        });\r\n        if(!isCandidateRegistered(_walletKey)) {\r\n            Candidates.push(newCandidate);\r\n            candidatesMap[_walletKey] = newCandidate;\r\n            addVoter( _name, _mobileNo,  _homeAddress,\r\n                _aadharCardNo, _voterId,  _walletKey);\r\n            addCandidateState = 1;\r\n        }\r\n        else {\r\n            addCandidateState = 2;\r\n        }   \r\n    }\r\n\r\n    function isCandidateRegistered(string memory _walletKey) public view returns(bool){\r\n        if(!areStringsEqual(candidatesMap[_walletKey].name,\"\"))return true;\r\n        else return false;\r\n    }\r\n\r\n    function getCandidates() public returns(string[] memory) {\r\n        for(uint256 i=0;i<Candidates.length;i++) {\r\n        candidate_names.push(Candidates[i].name);\r\n        }\r\n        return candidate_names;\r\n    }\r\n\r\n    function getUrls() public returns(string[] memory) {\r\n        for(uint256 i=0;i<Candidates.length;i++) {\r\n            candidate_urls.push(Candidates[i].symbolUrl);\r\n        }\r\n        return candidate_urls;\r\n    }\r\n    \r\n\r\n    /* Candidate Functions END. */\r\n\r\n    /* Results Functions START */\r\n    /* returns (candidates, votes, symbolUrls), receives object with 3 keys (0 : candidates array, 1 : votes array, 2: symbolUrls array) */\r\n    \r\n    string[] public _candidates;\r\n    uint256[] public _votes;\r\n    string[] public _symbolUrls;\r\n    function getResults() public returns(string[] memory, uint256[] memory, string[] memory) {\r\n        if(areStringsEqual(votingPhase, \"Result\")){\r\n            for(uint256 i=0;i<Candidates.length;i++) {\r\n                _candidates.push(Candidates[i].name);\r\n                _votes.push(Candidates[i].votes);\r\n                _symbolUrls.push(Candidates[i].symbolUrl);\r\n            }    \r\n        }\r\n        return (_candidates, _votes, _symbolUrls);\r\n    }\r\n    /* Results Functions END */\r\n\r\n    /* Voting Functions START */ \r\n    \r\n    function vote(string memory _voterId, string memory _walletKey, uint256 choice) public returns(string memory) {\r\n        if(areStringsEqual(map_voterid_details[_voterId].walletKey, _walletKey)) {\r\n            if(!map_voterid_details[_voterId].isVoted) {\r\n                Candidates[choice].votes++;\r\n                string memory temp_walletKey = Candidates[choice].walletKey;\r\n                candidatesMap[temp_walletKey].votes++;\r\n                map_voterid_details[_voterId].isVoted = true;\r\n                for(uint256 i=0;i<Voters.length;i++) {\r\n                    if(areStringsEqual(Voters[i].voterId, _voterId)){\r\n                        Voters[i].isVoted = true;\r\n                        break;\r\n                    }\r\n                }\r\n                return \"Vote casted successfully!\";\r\n            }\r\n            return \"Voter has already voted!\";\r\n        }\r\n        return \"Could not cast a vote, Voter not registered! (try changing account on metamask)\";\r\n    }\r\n\r\n    function voteThroughAdmin(string memory _voterId, uint256 choice) public returns(string memory) {\r\n        if(!map_voterid_details[_voterId].isVoted) {\r\n            Candidates[choice].votes++;\r\n            string memory temp_walletKey = Candidates[choice].walletKey;\r\n            candidatesMap[temp_walletKey].votes++;\r\n            map_voterid_details[_voterId].isVoted = true;\r\n            for(uint256 i=0;i<Voters.length;i++) {\r\n                if(areStringsEqual(Voters[i].voterId, _voterId)){\r\n                    Voters[i].isVoted = true;\r\n                    break;\r\n                }\r\n            }\r\n            return \"Vote casted successfully!\";\r\n        }\r\n        return \"Voter has already voted!\";\r\n    }\r\n    /* Voting Functions END */ \r\n\r\n    /* Utility Functions START. */\r\n    function areStringsEqual(string memory S1, string memory S2) public pure returns(bool){\r\n        return keccak256(bytes(S1)) == keccak256(bytes(S2));\r\n    }\r\n\r\n    function sampleValue() public pure returns(uint){\r\n        return 5;\r\n    }\r\n    /* Utility Functions END. */\r\n}\r\n",
  "sourcePath": "D:\\Blockchain-Projects\\BlockVote\\contracts\\BlockVote.sol",
  "compiler": {
    "name": "solc",
    "version": "0.8.13+commit.abaa5c0e.Emscripten.clang"
  },
  "schemaVersion": "3.4.4",
  "updatedAt": "2022-04-02T06:40:06.716Z",
  "networkType": "ethereum",
  "devdoc": {
    "kind": "dev",
    "methods": {},
    "version": 1
  },
  "userdoc": {
    "kind": "user",
    "methods": {},
    "version": 1
  }
}