{
  "contractName": "BlockVote",
  "abi": [
    {
      "inputs": [
        {
          "internalType": "uint256",
          "name": "",
          "type": "uint256"
        }
      ],
      "name": "Admins",
      "outputs": [
        {
          "internalType": "string",
          "name": "name",
          "type": "string"
        },
        {
          "internalType": "string",
          "name": "mobileNo",
          "type": "string"
        },
        {
          "internalType": "string",
          "name": "walletKey",
          "type": "string"
        }
      ],
      "stateMutability": "view",
      "type": "function",
      "constant": true
    },
    {
      "inputs": [
        {
          "internalType": "uint256",
          "name": "",
          "type": "uint256"
        }
      ],
      "name": "Candidates",
      "outputs": [
        {
          "internalType": "string",
          "name": "name",
          "type": "string"
        },
        {
          "internalType": "string",
          "name": "mobileNo",
          "type": "string"
        },
        {
          "internalType": "string",
          "name": "homeAddress",
          "type": "string"
        },
        {
          "internalType": "string",
          "name": "aadharCardNo",
          "type": "string"
        },
        {
          "internalType": "string",
          "name": "voterId",
          "type": "string"
        },
        {
          "internalType": "string",
          "name": "walletKey",
          "type": "string"
        },
        {
          "internalType": "string",
          "name": "politicalParty",
          "type": "string"
        },
        {
          "internalType": "uint256",
          "name": "votes",
          "type": "uint256"
        },
        {
          "internalType": "string",
          "name": "symbolUrl",
          "type": "string"
        }
      ],
      "stateMutability": "view",
      "type": "function",
      "constant": true
    },
    {
      "inputs": [],
      "name": "ECI",
      "outputs": [
        {
          "internalType": "string",
          "name": "name",
          "type": "string"
        },
        {
          "internalType": "string",
          "name": "mobileNo",
          "type": "string"
        },
        {
          "internalType": "string",
          "name": "walletKey",
          "type": "string"
        }
      ],
      "stateMutability": "view",
      "type": "function",
      "constant": true
    },
    {
      "inputs": [
        {
          "internalType": "uint256",
          "name": "",
          "type": "uint256"
        }
      ],
      "name": "Voters",
      "outputs": [
        {
          "internalType": "string",
          "name": "name",
          "type": "string"
        },
        {
          "internalType": "string",
          "name": "mobileNo",
          "type": "string"
        },
        {
          "internalType": "string",
          "name": "homeAddress",
          "type": "string"
        },
        {
          "internalType": "string",
          "name": "aadharCardNo",
          "type": "string"
        },
        {
          "internalType": "string",
          "name": "voterId",
          "type": "string"
        },
        {
          "internalType": "string",
          "name": "walletKey",
          "type": "string"
        },
        {
          "internalType": "bool",
          "name": "isVoted",
          "type": "bool"
        }
      ],
      "stateMutability": "view",
      "type": "function",
      "constant": true
    },
    {
      "inputs": [
        {
          "internalType": "uint256",
          "name": "",
          "type": "uint256"
        }
      ],
      "name": "_candidates",
      "outputs": [
        {
          "internalType": "string",
          "name": "",
          "type": "string"
        }
      ],
      "stateMutability": "view",
      "type": "function",
      "constant": true
    },
    {
      "inputs": [
        {
          "internalType": "uint256",
          "name": "",
          "type": "uint256"
        }
      ],
      "name": "_symbolUrls",
      "outputs": [
        {
          "internalType": "string",
          "name": "",
          "type": "string"
        }
      ],
      "stateMutability": "view",
      "type": "function",
      "constant": true
    },
    {
      "inputs": [
        {
          "internalType": "uint256",
          "name": "",
          "type": "uint256"
        }
      ],
      "name": "_votes",
      "outputs": [
        {
          "internalType": "uint256",
          "name": "",
          "type": "uint256"
        }
      ],
      "stateMutability": "view",
      "type": "function",
      "constant": true
    },
    {
      "inputs": [
        {
          "internalType": "uint256",
          "name": "",
          "type": "uint256"
        }
      ],
      "name": "candidate_names",
      "outputs": [
        {
          "internalType": "string",
          "name": "",
          "type": "string"
        }
      ],
      "stateMutability": "view",
      "type": "function",
      "constant": true
    },
    {
      "inputs": [
        {
          "internalType": "string",
          "name": "",
          "type": "string"
        }
      ],
      "name": "candidatesMap",
      "outputs": [
        {
          "internalType": "string",
          "name": "name",
          "type": "string"
        },
        {
          "internalType": "string",
          "name": "mobileNo",
          "type": "string"
        },
        {
          "internalType": "string",
          "name": "homeAddress",
          "type": "string"
        },
        {
          "internalType": "string",
          "name": "aadharCardNo",
          "type": "string"
        },
        {
          "internalType": "string",
          "name": "voterId",
          "type": "string"
        },
        {
          "internalType": "string",
          "name": "walletKey",
          "type": "string"
        },
        {
          "internalType": "string",
          "name": "politicalParty",
          "type": "string"
        },
        {
          "internalType": "uint256",
          "name": "votes",
          "type": "uint256"
        },
        {
          "internalType": "string",
          "name": "symbolUrl",
          "type": "string"
        }
      ],
      "stateMutability": "view",
      "type": "function",
      "constant": true
    },
    {
      "inputs": [
        {
          "internalType": "string",
          "name": "",
          "type": "string"
        }
      ],
      "name": "mapWalletKey2Admin",
      "outputs": [
        {
          "internalType": "string",
          "name": "name",
          "type": "string"
        },
        {
          "internalType": "string",
          "name": "mobileNo",
          "type": "string"
        },
        {
          "internalType": "string",
          "name": "walletKey",
          "type": "string"
        }
      ],
      "stateMutability": "view",
      "type": "function",
      "constant": true
    },
    {
      "inputs": [
        {
          "internalType": "string",
          "name": "",
          "type": "string"
        }
      ],
      "name": "map_voterid_details",
      "outputs": [
        {
          "internalType": "string",
          "name": "name",
          "type": "string"
        },
        {
          "internalType": "string",
          "name": "mobileNo",
          "type": "string"
        },
        {
          "internalType": "string",
          "name": "homeAddress",
          "type": "string"
        },
        {
          "internalType": "string",
          "name": "aadharCardNo",
          "type": "string"
        },
        {
          "internalType": "string",
          "name": "voterId",
          "type": "string"
        },
        {
          "internalType": "string",
          "name": "walletKey",
          "type": "string"
        },
        {
          "internalType": "bool",
          "name": "isVoted",
          "type": "bool"
        }
      ],
      "stateMutability": "view",
      "type": "function",
      "constant": true
    },
    {
      "inputs": [
        {
          "internalType": "string",
          "name": "",
          "type": "string"
        }
      ],
      "name": "map_walletKey_voterid",
      "outputs": [
        {
          "internalType": "string",
          "name": "",
          "type": "string"
        }
      ],
      "stateMutability": "view",
      "type": "function",
      "constant": true
    },
    {
      "inputs": [],
      "name": "startVoting",
      "outputs": [],
      "stateMutability": "nonpayable",
      "type": "function"
    },
    {
      "inputs": [],
      "name": "endVoting",
      "outputs": [],
      "stateMutability": "nonpayable",
      "type": "function"
    },
    {
      "inputs": [],
      "name": "getAddAdminState",
      "outputs": [
        {
          "internalType": "uint256",
          "name": "",
          "type": "uint256"
        }
      ],
      "stateMutability": "view",
      "type": "function",
      "constant": true
    },
    {
      "inputs": [
        {
          "internalType": "string",
          "name": "_walletKey",
          "type": "string"
        }
      ],
      "name": "authenticateECI",
      "outputs": [
        {
          "internalType": "bool",
          "name": "",
          "type": "bool"
        }
      ],
      "stateMutability": "view",
      "type": "function",
      "constant": true
    },
    {
      "inputs": [
        {
          "internalType": "string",
          "name": "ECI_Key",
          "type": "string"
        },
        {
          "internalType": "string",
          "name": "adName",
          "type": "string"
        },
        {
          "internalType": "string",
          "name": "adMoNo",
          "type": "string"
        },
        {
          "internalType": "string",
          "name": "adEthKey",
          "type": "string"
        }
      ],
      "name": "addAdmin",
      "outputs": [],
      "stateMutability": "nonpayable",
      "type": "function"
    },
    {
      "inputs": [],
      "name": "adminLength",
      "outputs": [
        {
          "internalType": "uint256",
          "name": "",
          "type": "uint256"
        }
      ],
      "stateMutability": "view",
      "type": "function",
      "constant": true
    },
    {
      "inputs": [],
      "name": "getAllAdmins",
      "outputs": [
        {
          "components": [
            {
              "internalType": "string",
              "name": "name",
              "type": "string"
            },
            {
              "internalType": "string",
              "name": "mobileNo",
              "type": "string"
            },
            {
              "internalType": "string",
              "name": "walletKey",
              "type": "string"
            }
          ],
          "internalType": "struct Admin[]",
          "name": "",
          "type": "tuple[]"
        }
      ],
      "stateMutability": "view",
      "type": "function",
      "constant": true
    },
    {
      "inputs": [
        {
          "internalType": "string",
          "name": "_walletKey",
          "type": "string"
        }
      ],
      "name": "authenticateAdmin",
      "outputs": [
        {
          "internalType": "bool",
          "name": "",
          "type": "bool"
        }
      ],
      "stateMutability": "view",
      "type": "function",
      "constant": true
    },
    {
      "inputs": [
        {
          "internalType": "string",
          "name": "_name",
          "type": "string"
        },
        {
          "internalType": "string",
          "name": "_mobileNo",
          "type": "string"
        },
        {
          "internalType": "string",
          "name": "_homeAddress",
          "type": "string"
        },
        {
          "internalType": "string",
          "name": "_aadharCardNo",
          "type": "string"
        },
        {
          "internalType": "string",
          "name": "_voterId",
          "type": "string"
        },
        {
          "internalType": "string",
          "name": "_walletKey",
          "type": "string"
        }
      ],
      "name": "addVoter",
      "outputs": [],
      "stateMutability": "nonpayable",
      "type": "function"
    },
    {
      "inputs": [
        {
          "internalType": "string",
          "name": "_voterid",
          "type": "string"
        }
      ],
      "name": "hasVoted",
      "outputs": [
        {
          "internalType": "bool",
          "name": "",
          "type": "bool"
        }
      ],
      "stateMutability": "view",
      "type": "function",
      "constant": true
    },
    {
      "inputs": [
        {
          "components": [
            {
              "internalType": "string",
              "name": "name",
              "type": "string"
            },
            {
              "internalType": "string",
              "name": "mobileNo",
              "type": "string"
            },
            {
              "internalType": "string",
              "name": "homeAddress",
              "type": "string"
            },
            {
              "internalType": "string",
              "name": "aadharCardNo",
              "type": "string"
            },
            {
              "internalType": "string",
              "name": "voterId",
              "type": "string"
            },
            {
              "internalType": "string",
              "name": "walletKey",
              "type": "string"
            },
            {
              "internalType": "bool",
              "name": "isVoted",
              "type": "bool"
            }
          ],
          "internalType": "struct Voter",
          "name": "item",
          "type": "tuple"
        }
      ],
      "name": "isVoterRegistered",
      "outputs": [
        {
          "internalType": "bool",
          "name": "",
          "type": "bool"
        }
      ],
      "stateMutability": "view",
      "type": "function",
      "constant": true
    },
    {
      "inputs": [
        {
          "internalType": "string",
          "name": "_walletKey",
          "type": "string"
        }
      ],
      "name": "authenticateVoter",
      "outputs": [
        {
          "internalType": "bool",
          "name": "",
          "type": "bool"
        }
      ],
      "stateMutability": "nonpayable",
      "type": "function"
    },
    {
      "inputs": [
        {
          "internalType": "string",
          "name": "_walletKey",
          "type": "string"
        }
      ],
      "name": "getVoterId",
      "outputs": [
        {
          "internalType": "string",
          "name": "",
          "type": "string"
        }
      ],
      "stateMutability": "nonpayable",
      "type": "function"
    },
    {
      "inputs": [
        {
          "internalType": "string",
          "name": "_voterid",
          "type": "string"
        }
      ],
      "name": "setVoterId",
      "outputs": [],
      "stateMutability": "nonpayable",
      "type": "function"
    },
    {
      "inputs": [],
      "name": "voterLength",
      "outputs": [
        {
          "internalType": "uint256",
          "name": "",
          "type": "uint256"
        }
      ],
      "stateMutability": "view",
      "type": "function",
      "constant": true
    },
    {
      "inputs": [
        {
          "internalType": "string",
          "name": "_voterid",
          "type": "string"
        }
      ],
      "name": "getVoterMobileNumber",
      "outputs": [
        {
          "internalType": "string",
          "name": "",
          "type": "string"
        }
      ],
      "stateMutability": "view",
      "type": "function",
      "constant": true
    },
    {
      "inputs": [
        {
          "internalType": "string",
          "name": "_name",
          "type": "string"
        },
        {
          "internalType": "string",
          "name": "_mobileNo",
          "type": "string"
        },
        {
          "internalType": "string",
          "name": "_homeAddress",
          "type": "string"
        },
        {
          "internalType": "string",
          "name": "_aadharCardNo",
          "type": "string"
        },
        {
          "internalType": "string",
          "name": "_voterId",
          "type": "string"
        },
        {
          "internalType": "string",
          "name": "_walletKey",
          "type": "string"
        },
        {
          "internalType": "string",
          "name": "_politicalParty",
          "type": "string"
        },
        {
          "internalType": "string",
          "name": "_symbolUrl",
          "type": "string"
        }
      ],
      "name": "addCandidate",
      "outputs": [],
      "stateMutability": "nonpayable",
      "type": "function"
    },
    {
      "inputs": [
        {
          "internalType": "string",
          "name": "_walletKey",
          "type": "string"
        }
      ],
      "name": "isCandidateRegistered",
      "outputs": [
        {
          "internalType": "bool",
          "name": "",
          "type": "bool"
        }
      ],
      "stateMutability": "view",
      "type": "function",
      "constant": true
    },
    {
      "inputs": [],
      "name": "getCandidates",
      "outputs": [
        {
          "internalType": "string[]",
          "name": "",
          "type": "string[]"
        }
      ],
      "stateMutability": "nonpayable",
      "type": "function"
    },
    {
      "inputs": [],
      "name": "getResults",
      "outputs": [
        {
          "internalType": "string[]",
          "name": "",
          "type": "string[]"
        },
        {
          "internalType": "uint256[]",
          "name": "",
          "type": "uint256[]"
        },
        {
          "internalType": "string[]",
          "name": "",
          "type": "string[]"
        }
      ],
      "stateMutability": "nonpayable",
      "type": "function"
    },
    {
      "inputs": [
        {
          "internalType": "string",
          "name": "_voterId",
          "type": "string"
        },
        {
          "internalType": "string",
          "name": "_walletKey",
          "type": "string"
        },
        {
          "internalType": "uint256",
          "name": "choice",
          "type": "uint256"
        }
      ],
      "name": "vote",
      "outputs": [
        {
          "internalType": "string",
          "name": "",
          "type": "string"
        }
      ],
      "stateMutability": "nonpayable",
      "type": "function"
    },
    {
      "inputs": [
        {
          "internalType": "string",
          "name": "_voterId",
          "type": "string"
        },
        {
          "internalType": "uint256",
          "name": "choice",
          "type": "uint256"
        }
      ],
      "name": "voteThroughAdmin",
      "outputs": [
        {
          "internalType": "string",
          "name": "",
          "type": "string"
        }
      ],
      "stateMutability": "nonpayable",
      "type": "function"
    },
    {
      "inputs": [
        {
          "internalType": "string",
          "name": "S1",
          "type": "string"
        },
        {
          "internalType": "string",
          "name": "S2",
          "type": "string"
        }
      ],
      "name": "areStringsEqual",
      "outputs": [
        {
          "internalType": "bool",
          "name": "",
          "type": "bool"
        }
      ],
      "stateMutability": "pure",
      "type": "function",
      "constant": true
    },
    {
      "inputs": [],
      "name": "sampleValue",
      "outputs": [
        {
          "internalType": "uint256",
          "name": "",
          "type": "uint256"
        }
      ],
      "stateMutability": "pure",
      "type": "function",
      "constant": true
    }
  ],
  "bytecode": "0x608060405260405180606001604052806040518060400160405280600c81526020017f4543495f4f6666696369616c000000000000000000000000000000000000000081525081526020016040518060400160405280600a81526020017f313233343536373839300000000000000000000000000000000000000000000081525081526020016040518060600160405280602a81526020016200529d602a9139815250600080820151816000019080519060200190620000c19291906200018c565b506020820151816001019080519060200190620000e09291906200018c565b506040820151816002019080519060200190620000ff9291906200018c565b5050506040518060200160405280600081525060039080519060200190620001299291906200018c565b506040518060400160405280600981526020017f707265566f74696e670000000000000000000000000000000000000000000000815250600c9080519060200190620001779291906200018c565b503480156200018557600080fd5b50620002a0565b8280546200019a906200026b565b90600052602060002090601f016020900481019282620001be57600085556200020a565b82601f10620001d957805160ff19168380011785556200020a565b828001600101855582156200020a579182015b8281111562000209578251825591602001919060010190620001ec565b5b5090506200021991906200021d565b5090565b5b80821115620002385760008160009055506001016200021e565b5090565b7f4e487b7100000000000000000000000000000000000000000000000000000000600052602260045260246000fd5b600060028204905060018216806200028457607f821691505b6020821081036200029a57620002996200023c565b5b50919050565b614fed80620002b06000396000f3fe608060405234801561001057600080fd5b506004361061021c5760003560e01c80637d112d6411610125578063aebd20f0116100ad578063c4082bea1161007c578063c4082bea146106f3578063e9523c9714610723578063eb03cd2214610741578063f372514614610771578063f6249c04146107a95761021c565b8063aebd20f014610653578063b1496cd414610689578063bea48894146106b9578063c3403ddf146106e95761021c565b80639f89a4b2116100f45780639f89a4b214610587578063a3a8908d146105b9578063a69945fb146105eb578063a72540511461061b578063a7d27b03146106375761021c565b80637d112d64146104d55780638a25d072146105055780639c35d98b146105215780639f6e5e6d146105575761021c565b80635097086f116101a8578063609b625811610177578063609b625814610419578063622eaa1414610437578063648a305a146104575780637820d384146104875780637a4c96ad146104a55761021c565b80635097086f1461036b57806351b090651461039b578063565e802a146103cb5780635982f610146103fb5761021c565b80632ec66043116101ef5780632ec660431461029d57806339bfeae3146102cd5780634717f97c146102fd578063481edc121461031d5780634fbe75c11461033b5761021c565b806306a49fce1461022157806313bad72f1461023f5780631ec6b60a1461025b578063290e921214610265575b600080fd5b6102296107d9565b604051610236919061405a565b60405180910390f35b610259600480360381019061025491906141c5565b61093a565b005b610263610bdc565b005b61027f600480360381019061027a9190614391565b610c2a565b60405161029499989796959493929190614417565b60405180910390f35b6102b760048036038101906102b291906144dc565b6110c8565b6040516102c49190614525565b60405180910390f35b6102e760048036038101906102e291906144dc565b61117e565b6040516102f49190614562565b60405180910390f35b6103056111b6565b6040516103149392919061463b565b60405180910390f35b6103256115cd565b6040516103329190614687565b60405180910390f35b61035560048036038101906103509190614834565b6115d7565b6040516103629190614562565b60405180910390f35b6103856004803603810190610380919061487d565b6116b6565b6040516103929190614525565b60405180910390f35b6103b560048036038101906103b09190614391565b6119e9565b6040516103c29190614525565b60405180910390f35b6103e560048036038101906103e091906144dc565b611a95565b6040516103f29190614562565b60405180910390f35b610403611b70565b6040516104109190614687565b60405180910390f35b610421611b7d565b60405161042e9190614687565b60405180910390f35b61043f611b86565b60405161044e939291906148d9565b60405180910390f35b610471600480360381019061046c9190614391565b611d36565b60405161047e9190614525565b60405180910390f35b61048f611de2565b60405161049c9190614687565b60405180910390f35b6104bf60048036038101906104ba9190614925565b611def565b6040516104cc9190614525565b60405180910390f35b6104ef60048036038101906104ea91906144dc565b6121fb565b6040516104fc9190614562565b60405180910390f35b61051f600480360381019061051a91906149b0565b6122de565b005b61053b60048036038101906105369190614391565b612581565b60405161054e9796959493929190614a87565b60405180910390f35b610571600480360381019061056c9190614391565b612910565b60405161057e9190614525565b60405180910390f35b6105a1600480360381019061059c9190614391565b6129bc565b6040516105b0939291906148d9565b60405180910390f35b6105d360048036038101906105ce91906144dc565b612b8e565b6040516105e2939291906148d9565b60405180910390f35b610605600480360381019061060091906144dc565b612d66565b6040516106129190614562565b60405180910390f35b61063560048036038101906106309190614b20565b612e41565b005b610651600480360381019061064c91906144dc565b6130b1565b005b61066d600480360381019061066891906144dc565b6130cb565b6040516106809796959493929190614a87565b60405180910390f35b6106a3600480360381019061069e9190614c55565b613460565b6040516106b09190614562565b60405180910390f35b6106d360048036038101906106ce9190614391565b61347b565b6040516106e09190614687565b60405180910390f35b6106f161349f565b005b61070d600480360381019061070891906144dc565b6134ed565b60405161071a9190614525565b60405180910390f35b61072b6135a0565b6040516107389190614ded565b60405180910390f35b61075b600480360381019061075691906144dc565b6137b5565b6040516107689190614562565b60405180910390f35b61078b600480360381019061078691906144dc565b613855565b6040516107a099989796959493929190614417565b60405180910390f35b6107c360048036038101906107be91906144dc565b613cf9565b6040516107d09190614525565b60405180910390f35b606060005b6006805490508110156108625760076006828154811061080157610800614e0f565b5b90600052602060002090600902016000019080600181540180825580915050600190039060005260206000200160009091909190915090805461084390614e6d565b61084e929190613dcf565b50808061085a90614ecd565b9150506107de565b506007805480602002602001604051908101604052809291908181526020016000905b828210156109315783829060005260206000200180546108a490614e6d565b80601f01602080910402602001604051908101604052809291908181526020018280546108d090614e6d565b801561091d5780601f106108f25761010080835404028352916020019161091d565b820191906000526020600020905b81548152906001019060200180831161090057829003601f168201915b505050505081526020019060010190610885565b50505050905090565b60006040518061012001604052808a81526020018981526020018881526020018781526020018681526020018581526020018481526020016000815260200183815250905061098884611a95565b610bd157600681908060018154018082558091505060019003906000526020600020906009020160009091909190915060008201518160000190805190602001906109d4929190613e5c565b5060208201518160010190805190602001906109f1929190613e5c565b506040820151816002019080519060200190610a0e929190613e5c565b506060820151816003019080519060200190610a2b929190613e5c565b506080820151816004019080519060200190610a48929190613e5c565b5060a0820151816005019080519060200190610a65929190613e5c565b5060c0820151816006019080519060200190610a82929190613e5c565b5060e08201518160070155610100820151816008019080519060200190610aaa929190613e5c565b50505080600b85604051610abe9190614f51565b90815260200160405180910390206000820151816000019080519060200190610ae8929190613e5c565b506020820151816001019080519060200190610b05929190613e5c565b506040820151816002019080519060200190610b22929190613e5c565b506060820151816003019080519060200190610b3f929190613e5c565b506080820151816004019080519060200190610b5c929190613e5c565b5060a0820151816005019080519060200190610b79929190613e5c565b5060c0820151816006019080519060200190610b96929190613e5c565b5060e08201518160070155610100820151816008019080519060200190610bbe929190613e5c565b50905050610bd0898989898989612e41565b5b505050505050505050565b6040518060400160405280600681526020017f566f74696e670000000000000000000000000000000000000000000000000000815250600c9080519060200190610c27929190613e5c565b50565b60068181548110610c3a57600080fd5b9060005260206000209060090201600091509050806000018054610c5d90614e6d565b80601f0160208091040260200160405190810160405280929190818152602001828054610c8990614e6d565b8015610cd65780601f10610cab57610100808354040283529160200191610cd6565b820191906000526020600020905b815481529060010190602001808311610cb957829003601f168201915b505050505090806001018054610ceb90614e6d565b80601f0160208091040260200160405190810160405280929190818152602001828054610d1790614e6d565b8015610d645780601f10610d3957610100808354040283529160200191610d64565b820191906000526020600020905b815481529060010190602001808311610d4757829003601f168201915b505050505090806002018054610d7990614e6d565b80601f0160208091040260200160405190810160405280929190818152602001828054610da590614e6d565b8015610df25780601f10610dc757610100808354040283529160200191610df2565b820191906000526020600020905b815481529060010190602001808311610dd557829003601f168201915b505050505090806003018054610e0790614e6d565b80601f0160208091040260200160405190810160405280929190818152602001828054610e3390614e6d565b8015610e805780601f10610e5557610100808354040283529160200191610e80565b820191906000526020600020905b815481529060010190602001808311610e6357829003601f168201915b505050505090806004018054610e9590614e6d565b80601f0160208091040260200160405190810160405280929190818152602001828054610ec190614e6d565b8015610f0e5780601f10610ee357610100808354040283529160200191610f0e565b820191906000526020600020905b815481529060010190602001808311610ef157829003601f168201915b505050505090806005018054610f2390614e6d565b80601f0160208091040260200160405190810160405280929190818152602001828054610f4f90614e6d565b8015610f9c5780601f10610f7157610100808354040283529160200191610f9c565b820191906000526020600020905b815481529060010190602001808311610f7f57829003601f168201915b505050505090806006018054610fb190614e6d565b80601f0160208091040260200160405190810160405280929190818152602001828054610fdd90614e6d565b801561102a5780601f10610fff5761010080835404028352916020019161102a565b820191906000526020600020905b81548152906001019060200180831161100d57829003601f168201915b50505050509080600701549080600801805461104590614e6d565b80601f016020809104026020016040519081016040528092919081815260200182805461107190614e6d565b80156110be5780601f10611093576101008083540402835291602001916110be565b820191906000526020600020905b8154815290600101906020018083116110a157829003601f168201915b5050505050905089565b60098180516020810182018051848252602083016020850120818352809550505050505060009150905080546110fd90614e6d565b80601f016020809104026020016040519081016040528092919081815260200182805461112990614e6d565b80156111765780601f1061114b57610100808354040283529160200191611176565b820191906000526020600020905b81548152906001019060200180831161115957829003601f168201915b505050505081565b6000600a826040516111909190614f51565b908152602001604051809103902060060160009054906101000a900460ff169050919050565b6060806060611284600c80546111cb90614e6d565b80601f01602080910402602001604051908101604052809291908181526020018280546111f790614e6d565b80156112445780601f1061121957610100808354040283529160200191611244565b820191906000526020600020905b81548152906001019060200180831161122757829003601f168201915b50505050506040518060400160405280600681526020017f526573756c740000000000000000000000000000000000000000000000000000815250613460565b156113c45760005b6006805490508110156113c257600e600682815481106112af576112ae614e0f565b5b9060005260206000209060090201600001908060018154018082558091505060019003906000526020600020016000909190919091509080546112f190614e6d565b6112fc929190613dcf565b50600f6006828154811061131357611312614e0f565b5b906000526020600020906009020160070154908060018154018082558091505060019003906000526020600020016000909190919091505560106006828154811061136157611360614e0f565b5b9060005260206000209060090201600801908060018154018082558091505060019003906000526020600020016000909190919091509080546113a390614e6d565b6113ae929190613dcf565b5080806113ba90614ecd565b91505061128c565b505b600e600f601082805480602002602001604051908101604052809291908181526020016000905b8282101561149757838290600052602060002001805461140a90614e6d565b80601f016020809104026020016040519081016040528092919081815260200182805461143690614e6d565b80156114835780601f1061145857610100808354040283529160200191611483565b820191906000526020600020905b81548152906001019060200180831161146657829003601f168201915b5050505050815260200190600101906113eb565b505050509250818054806020026020016040519081016040528092919081815260200182805480156114e857602002820191906000526020600020905b8154815260200190600101908083116114d4575b5050505050915080805480602002602001604051908101604052809291908181526020016000905b828210156115bc57838290600052602060002001805461152f90614e6d565b80601f016020809104026020016040519081016040528092919081815260200182805461155b90614e6d565b80156115a85780601f1061157d576101008083540402835291602001916115a8565b820191906000526020600020905b81548152906001019060200180831161158b57829003601f168201915b505050505081526020019060010190611510565b505050509050925092509250909192565b6000600d54905090565b600061169f600a83608001516040516115f09190614f51565b9081526020016040518091039020600001805461160c90614e6d565b80601f016020809104026020016040519081016040528092919081815260200182805461163890614e6d565b80156116855780601f1061165a57610100808354040283529160200191611685565b820191906000526020600020905b81548152906001019060200180831161166857829003601f168201915b505050505060405180602001604052806000815250613460565b6116ac57600190506116b1565b600090505b919050565b6060600a836040516116c89190614f51565b908152602001604051809103902060060160009054906101000a900460ff166119aa57600682815481106116ff576116fe614e0f565b5b9060005260206000209060090201600701600081548092919061172190614ecd565b919050555060006006838154811061173c5761173b614e0f565b5b9060005260206000209060090201600501805461175890614e6d565b80601f016020809104026020016040519081016040528092919081815260200182805461178490614e6d565b80156117d15780601f106117a6576101008083540402835291602001916117d1565b820191906000526020600020905b8154815290600101906020018083116117b457829003601f168201915b50505050509050600b816040516117e89190614f51565b9081526020016040518091039020600701600081548092919061180a90614ecd565b91905055506001600a856040516118219190614f51565b908152602001604051809103902060060160006101000a81548160ff02191690831515021790555060005b60058054905081101561196b57611910600582815481106118705761186f614e0f565b5b9060005260206000209060070201600401805461188c90614e6d565b80601f01602080910402602001604051908101604052809291908181526020018280546118b890614e6d565b80156119055780601f106118da57610100808354040283529160200191611905565b820191906000526020600020905b8154815290600101906020018083116118e857829003601f168201915b505050505086613460565b156119585760016005828154811061192b5761192a614e0f565b5b906000526020600020906007020160060160006101000a81548160ff02191690831515021790555061196b565b808061196390614ecd565b91505061184c565b506040518060400160405280601981526020017f566f746520636173746564207375636365737366756c6c7921000000000000008152509150506119e3565b6040518060400160405280601881526020017f566f7465722068617320616c726561647920766f74656421000000000000000081525090505b92915050565b600781815481106119f957600080fd5b906000526020600020016000915090508054611a1490614e6d565b80601f0160208091040260200160405190810160405280929190818152602001828054611a4090614e6d565b8015611a8d5780601f10611a6257610100808354040283529160200191611a8d565b820191906000526020600020905b815481529060010190602001808311611a7057829003601f168201915b505050505081565b6000611b59600b83604051611aaa9190614f51565b90815260200160405180910390206000018054611ac690614e6d565b80601f0160208091040260200160405190810160405280929190818152602001828054611af290614e6d565b8015611b3f5780601f10611b1457610100808354040283529160200191611b3f565b820191906000526020600020905b815481529060010190602001808311611b2257829003601f168201915b505050505060405180602001604052806000815250613460565b611b665760019050611b6b565b600090505b919050565b6000600480549050905090565b60006005905090565b6000806000018054611b9790614e6d565b80601f0160208091040260200160405190810160405280929190818152602001828054611bc390614e6d565b8015611c105780601f10611be557610100808354040283529160200191611c10565b820191906000526020600020905b815481529060010190602001808311611bf357829003601f168201915b505050505090806001018054611c2590614e6d565b80601f0160208091040260200160405190810160405280929190818152602001828054611c5190614e6d565b8015611c9e5780601f10611c7357610100808354040283529160200191611c9e565b820191906000526020600020905b815481529060010190602001808311611c8157829003601f168201915b505050505090806002018054611cb390614e6d565b80601f0160208091040260200160405190810160405280929190818152602001828054611cdf90614e6d565b8015611d2c5780601f10611d0157610100808354040283529160200191611d2c565b820191906000526020600020905b815481529060010190602001808311611d0f57829003601f168201915b5050505050905083565b600e8181548110611d4657600080fd5b906000526020600020016000915090508054611d6190614e6d565b80601f0160208091040260200160405190810160405280929190818152602001828054611d8d90614e6d565b8015611dda5780601f10611daf57610100808354040283529160200191611dda565b820191906000526020600020905b815481529060010190602001808311611dbd57829003601f168201915b505050505081565b6000600580549050905090565b6060611ea4600a85604051611e049190614f51565b90815260200160405180910390206005018054611e2090614e6d565b80601f0160208091040260200160405190810160405280929190818152602001828054611e4c90614e6d565b8015611e995780601f10611e6e57610100808354040283529160200191611e99565b820191906000526020600020905b815481529060010190602001808311611e7c57829003601f168201915b505050505084613460565b156121d857600a84604051611eb99190614f51565b908152602001604051809103902060060160009054906101000a900460ff1661219b5760068281548110611ef057611eef614e0f565b5b90600052602060002090600902016007016000815480929190611f1290614ecd565b9190505550600060068381548110611f2d57611f2c614e0f565b5b90600052602060002090600902016005018054611f4990614e6d565b80601f0160208091040260200160405190810160405280929190818152602001828054611f7590614e6d565b8015611fc25780601f10611f9757610100808354040283529160200191611fc2565b820191906000526020600020905b815481529060010190602001808311611fa557829003601f168201915b50505050509050600b81604051611fd99190614f51565b90815260200160405180910390206007016000815480929190611ffb90614ecd565b91905055506001600a866040516120129190614f51565b908152602001604051809103902060060160006101000a81548160ff02191690831515021790555060005b60058054905081101561215c576121016005828154811061206157612060614e0f565b5b9060005260206000209060070201600401805461207d90614e6d565b80601f01602080910402602001604051908101604052809291908181526020018280546120a990614e6d565b80156120f65780601f106120cb576101008083540402835291602001916120f6565b820191906000526020600020905b8154815290600101906020018083116120d957829003601f168201915b505050505087613460565b156121495760016005828154811061211c5761211b614e0f565b5b906000526020600020906007020160060160006101000a81548160ff02191690831515021790555061215c565b808061215490614ecd565b91505061203d565b506040518060400160405280601981526020017f566f746520636173746564207375636365737366756c6c7921000000000000008152509150506121f4565b6040518060400160405280601881526020017f566f7465722068617320616c726561647920766f74656421000000000000000081525090506121f4565b6040518060800160405280604f8152602001614f69604f913990505b9392505050565b60006122c7600a61220b84613cf9565b6040516122189190614f51565b9081526020016040518091039020600001805461223490614e6d565b80601f016020809104026020016040519081016040528092919081815260200182805461226090614e6d565b80156122ad5780601f10612282576101008083540402835291602001916122ad565b820191906000526020600020905b81548152906001019060200180831161229057829003601f168201915b505050505060405180602001604052806000815250613460565b6122d457600190506122d9565b600090505b919050565b6122e6613dc5565b61237d84600060020180546122fa90614e6d565b80601f016020809104026020016040519081016040528092919081815260200182805461232690614e6d565b80156123735780601f1061234857610100808354040283529160200191612373565b820191906000526020600020905b81548152906001019060200180831161235657829003601f168201915b5050505050613460565b15612572576124356008826040516123959190614f51565b908152602001604051809103902060020180546123b190614e6d565b80601f01602080910402602001604051908101604052809291908181526020018280546123dd90614e6d565b801561242a5780601f106123ff5761010080835404028352916020019161242a565b820191906000526020600020905b81548152906001019060200180831161240d57829003601f168201915b505050505082613460565b6125645760006040518060600160405280858152602001848152602001838152509050600481908060018154018082558091505060019003906000526020600020906003020160009091909190915060008201518160000190805190602001906124a0929190613e5c565b5060208201518160010190805190602001906124bd929190613e5c565b5060408201518160020190805190602001906124da929190613e5c565b505050806008836040516124ee9190614f51565b90815260200160405180910390206000820151816000019080519060200190612518929190613e5c565b506020820151816001019080519060200190612535929190613e5c565b506040820151816002019080519060200190612552929190613e5c565b509050506001600d819055505061256d565b6002600d819055505b61257b565b6003600d819055505b50505050565b6005818154811061259157600080fd5b90600052602060002090600702016000915090508060000180546125b490614e6d565b80601f01602080910402602001604051908101604052809291908181526020018280546125e090614e6d565b801561262d5780601f106126025761010080835404028352916020019161262d565b820191906000526020600020905b81548152906001019060200180831161261057829003601f168201915b50505050509080600101805461264290614e6d565b80601f016020809104026020016040519081016040528092919081815260200182805461266e90614e6d565b80156126bb5780601f10612690576101008083540402835291602001916126bb565b820191906000526020600020905b81548152906001019060200180831161269e57829003601f168201915b5050505050908060020180546126d090614e6d565b80601f01602080910402602001604051908101604052809291908181526020018280546126fc90614e6d565b80156127495780601f1061271e57610100808354040283529160200191612749565b820191906000526020600020905b81548152906001019060200180831161272c57829003601f168201915b50505050509080600301805461275e90614e6d565b80601f016020809104026020016040519081016040528092919081815260200182805461278a90614e6d565b80156127d75780601f106127ac576101008083540402835291602001916127d7565b820191906000526020600020905b8154815290600101906020018083116127ba57829003601f168201915b5050505050908060040180546127ec90614e6d565b80601f016020809104026020016040519081016040528092919081815260200182805461281890614e6d565b80156128655780601f1061283a57610100808354040283529160200191612865565b820191906000526020600020905b81548152906001019060200180831161284857829003601f168201915b50505050509080600501805461287a90614e6d565b80601f01602080910402602001604051908101604052809291908181526020018280546128a690614e6d565b80156128f35780601f106128c8576101008083540402835291602001916128f3565b820191906000526020600020905b8154815290600101906020018083116128d657829003601f168201915b5050505050908060060160009054906101000a900460ff16905087565b6010818154811061292057600080fd5b90600052602060002001600091509050805461293b90614e6d565b80601f016020809104026020016040519081016040528092919081815260200182805461296790614e6d565b80156129b45780601f10612989576101008083540402835291602001916129b4565b820191906000526020600020905b81548152906001019060200180831161299757829003601f168201915b505050505081565b600481815481106129cc57600080fd5b90600052602060002090600302016000915090508060000180546129ef90614e6d565b80601f0160208091040260200160405190810160405280929190818152602001828054612a1b90614e6d565b8015612a685780601f10612a3d57610100808354040283529160200191612a68565b820191906000526020600020905b815481529060010190602001808311612a4b57829003601f168201915b505050505090806001018054612a7d90614e6d565b80601f0160208091040260200160405190810160405280929190818152602001828054612aa990614e6d565b8015612af65780601f10612acb57610100808354040283529160200191612af6565b820191906000526020600020905b815481529060010190602001808311612ad957829003601f168201915b505050505090806002018054612b0b90614e6d565b80601f0160208091040260200160405190810160405280929190818152602001828054612b3790614e6d565b8015612b845780601f10612b5957610100808354040283529160200191612b84565b820191906000526020600020905b815481529060010190602001808311612b6757829003601f168201915b5050505050905083565b600881805160208101820180518482526020830160208501208183528095505050505050600091509050806000018054612bc790614e6d565b80601f0160208091040260200160405190810160405280929190818152602001828054612bf390614e6d565b8015612c405780601f10612c1557610100808354040283529160200191612c40565b820191906000526020600020905b815481529060010190602001808311612c2357829003601f168201915b505050505090806001018054612c5590614e6d565b80601f0160208091040260200160405190810160405280929190818152602001828054612c8190614e6d565b8015612cce5780601f10612ca357610100808354040283529160200191612cce565b820191906000526020600020905b815481529060010190602001808311612cb157829003601f168201915b505050505090806002018054612ce390614e6d565b80601f0160208091040260200160405190810160405280929190818152602001828054612d0f90614e6d565b8015612d5c5780601f10612d3157610100808354040283529160200191612d5c565b820191906000526020600020905b815481529060010190602001808311612d3f57829003601f168201915b5050505050905083565b6000612e2a600883604051612d7b9190614f51565b90815260200160405180910390206000018054612d9790614e6d565b80601f0160208091040260200160405190810160405280929190818152602001828054612dc390614e6d565b8015612e105780601f10612de557610100808354040283529160200191612e10565b820191906000526020600020905b815481529060010190602001808311612df357829003601f168201915b505050505060405180602001604052806000815250613460565b612e375760019050612e3c565b600090505b919050565b60006040518060e00160405280888152602001878152602001868152602001858152602001848152602001838152602001600015158152509050612e84816115d7565b6130a85760058190806001815401808255809150506001900390600052602060002090600702016000909190919091506000820151816000019080519060200190612ed0929190613e5c565b506020820151816001019080519060200190612eed929190613e5c565b506040820151816002019080519060200190612f0a929190613e5c565b506060820151816003019080519060200190612f27929190613e5c565b506080820151816004019080519060200190612f44929190613e5c565b5060a0820151816005019080519060200190612f61929190613e5c565b5060c08201518160060160006101000a81548160ff021916908315150217905550505080600a83604051612f959190614f51565b90815260200160405180910390206000820151816000019080519060200190612fbf929190613e5c565b506020820151816001019080519060200190612fdc929190613e5c565b506040820151816002019080519060200190612ff9929190613e5c565b506060820151816003019080519060200190613016929190613e5c565b506080820151816004019080519060200190613033929190613e5c565b5060a0820151816005019080519060200190613050929190613e5c565b5060c08201518160060160006101000a81548160ff021916908315150217905550905050826009836040516130859190614f51565b908152602001604051809103902090805190602001906130a6929190613e5c565b505b50505050505050565b80600390805190602001906130c7929190613e5c565b5050565b600a8180516020810182018051848252602083016020850120818352809550505050505060009150905080600001805461310490614e6d565b80601f016020809104026020016040519081016040528092919081815260200182805461313090614e6d565b801561317d5780601f106131525761010080835404028352916020019161317d565b820191906000526020600020905b81548152906001019060200180831161316057829003601f168201915b50505050509080600101805461319290614e6d565b80601f01602080910402602001604051908101604052809291908181526020018280546131be90614e6d565b801561320b5780601f106131e05761010080835404028352916020019161320b565b820191906000526020600020905b8154815290600101906020018083116131ee57829003601f168201915b50505050509080600201805461322090614e6d565b80601f016020809104026020016040519081016040528092919081815260200182805461324c90614e6d565b80156132995780601f1061326e57610100808354040283529160200191613299565b820191906000526020600020905b81548152906001019060200180831161327c57829003601f168201915b5050505050908060030180546132ae90614e6d565b80601f01602080910402602001604051908101604052809291908181526020018280546132da90614e6d565b80156133275780601f106132fc57610100808354040283529160200191613327565b820191906000526020600020905b81548152906001019060200180831161330a57829003601f168201915b50505050509080600401805461333c90614e6d565b80601f016020809104026020016040519081016040528092919081815260200182805461336890614e6d565b80156133b55780601f1061338a576101008083540402835291602001916133b5565b820191906000526020600020905b81548152906001019060200180831161339857829003601f168201915b5050505050908060050180546133ca90614e6d565b80601f01602080910402602001604051908101604052809291908181526020018280546133f690614e6d565b80156134435780601f1061341857610100808354040283529160200191613443565b820191906000526020600020905b81548152906001019060200180831161342657829003601f168201915b5050505050908060060160009054906101000a900460ff16905087565b60008180519060200120838051906020012014905092915050565b600f818154811061348b57600080fd5b906000526020600020016000915090505481565b6040518060400160405280600681526020017f526573756c740000000000000000000000000000000000000000000000000000815250600c90805190602001906134ea929190613e5c565b50565b6060600a826040516134ff9190614f51565b9081526020016040518091039020600101805461351b90614e6d565b80601f016020809104026020016040519081016040528092919081815260200182805461354790614e6d565b80156135945780601f1061356957610100808354040283529160200191613594565b820191906000526020600020905b81548152906001019060200180831161357757829003601f168201915b50505050509050919050565b60606004805480602002602001604051908101604052809291908181526020016000905b828210156137ac57838290600052602060002090600302016040518060600160405290816000820180546135f790614e6d565b80601f016020809104026020016040519081016040528092919081815260200182805461362390614e6d565b80156136705780601f1061364557610100808354040283529160200191613670565b820191906000526020600020905b81548152906001019060200180831161365357829003601f168201915b5050505050815260200160018201805461368990614e6d565b80601f01602080910402602001604051908101604052809291908181526020018280546136b590614e6d565b80156137025780601f106136d757610100808354040283529160200191613702565b820191906000526020600020905b8154815290600101906020018083116136e557829003601f168201915b5050505050815260200160028201805461371b90614e6d565b80601f016020809104026020016040519081016040528092919081815260200182805461374790614e6d565b80156137945780601f1061376957610100808354040283529160200191613794565b820191906000526020600020905b81548152906001019060200180831161377757829003601f168201915b505050505081525050815260200190600101906135c4565b50505050905090565b600061384e82600060020180546137cb90614e6d565b80601f01602080910402602001604051908101604052809291908181526020018280546137f790614e6d565b80156138445780601f1061381957610100808354040283529160200191613844565b820191906000526020600020905b81548152906001019060200180831161382757829003601f168201915b5050505050613460565b9050919050565b600b8180516020810182018051848252602083016020850120818352809550505050505060009150905080600001805461388e90614e6d565b80601f01602080910402602001604051908101604052809291908181526020018280546138ba90614e6d565b80156139075780601f106138dc57610100808354040283529160200191613907565b820191906000526020600020905b8154815290600101906020018083116138ea57829003601f168201915b50505050509080600101805461391c90614e6d565b80601f016020809104026020016040519081016040528092919081815260200182805461394890614e6d565b80156139955780601f1061396a57610100808354040283529160200191613995565b820191906000526020600020905b81548152906001019060200180831161397857829003601f168201915b5050505050908060020180546139aa90614e6d565b80601f01602080910402602001604051908101604052809291908181526020018280546139d690614e6d565b8015613a235780601f106139f857610100808354040283529160200191613a23565b820191906000526020600020905b815481529060010190602001808311613a0657829003601f168201915b505050505090806003018054613a3890614e6d565b80601f0160208091040260200160405190810160405280929190818152602001828054613a6490614e6d565b8015613ab15780601f10613a8657610100808354040283529160200191613ab1565b820191906000526020600020905b815481529060010190602001808311613a9457829003601f168201915b505050505090806004018054613ac690614e6d565b80601f0160208091040260200160405190810160405280929190818152602001828054613af290614e6d565b8015613b3f5780601f10613b1457610100808354040283529160200191613b3f565b820191906000526020600020905b815481529060010190602001808311613b2257829003601f168201915b505050505090806005018054613b5490614e6d565b80601f0160208091040260200160405190810160405280929190818152602001828054613b8090614e6d565b8015613bcd5780601f10613ba257610100808354040283529160200191613bcd565b820191906000526020600020905b815481529060010190602001808311613bb057829003601f168201915b505050505090806006018054613be290614e6d565b80601f0160208091040260200160405190810160405280929190818152602001828054613c0e90614e6d565b8015613c5b5780601f10613c3057610100808354040283529160200191613c5b565b820191906000526020600020905b815481529060010190602001808311613c3e57829003601f168201915b505050505090806007015490806008018054613c7690614e6d565b80601f0160208091040260200160405190810160405280929190818152602001828054613ca290614e6d565b8015613cef5780601f10613cc457610100808354040283529160200191613cef565b820191906000526020600020905b815481529060010190602001808311613cd257829003601f168201915b5050505050905089565b6060600982604051613d0b9190614f51565b90815260200160405180910390206003908054613d2790614e6d565b613d32929190613dcf565b5060038054613d4090614e6d565b80601f0160208091040260200160405190810160405280929190818152602001828054613d6c90614e6d565b8015613db95780601f10613d8e57610100808354040283529160200191613db9565b820191906000526020600020905b815481529060010190602001808311613d9c57829003601f168201915b50505050509050919050565b6000600d81905550565b828054613ddb90614e6d565b90600052602060002090601f016020900481019282613dfd5760008555613e4b565b82601f10613e0e5780548555613e4b565b82800160010185558215613e4b57600052602060002091601f016020900482015b82811115613e4a578254825591600101919060010190613e2f565b5b509050613e589190613ee2565b5090565b828054613e6890614e6d565b90600052602060002090601f016020900481019282613e8a5760008555613ed1565b82601f10613ea357805160ff1916838001178555613ed1565b82800160010185558215613ed1579182015b82811115613ed0578251825591602001919060010190613eb5565b5b509050613ede9190613ee2565b5090565b5b80821115613efb576000816000905550600101613ee3565b5090565b600081519050919050565b600082825260208201905092915050565b6000819050602082019050919050565b600081519050919050565b600082825260208201905092915050565b60005b83811015613f65578082015181840152602081019050613f4a565b83811115613f74576000848401525b50505050565b6000601f19601f8301169050919050565b6000613f9682613f2b565b613fa08185613f36565b9350613fb0818560208601613f47565b613fb981613f7a565b840191505092915050565b6000613fd08383613f8b565b905092915050565b6000602082019050919050565b6000613ff082613eff565b613ffa8185613f0a565b93508360208202850161400c85613f1b565b8060005b8581101561404857848403895281516140298582613fc4565b945061403483613fd8565b925060208a01995050600181019050614010565b50829750879550505050505092915050565b600060208201905081810360008301526140748184613fe5565b905092915050565b6000604051905090565b600080fd5b600080fd5b600080fd5b600080fd5b7f4e487b7100000000000000000000000000000000000000000000000000000000600052604160045260246000fd5b6140d282613f7a565b810181811067ffffffffffffffff821117156140f1576140f061409a565b5b80604052505050565b600061410461407c565b905061411082826140c9565b919050565b600067ffffffffffffffff8211156141305761412f61409a565b5b61413982613f7a565b9050602081019050919050565b82818337600083830152505050565b600061416861416384614115565b6140fa565b90508281526020810184848401111561418457614183614095565b5b61418f848285614146565b509392505050565b600082601f8301126141ac576141ab614090565b5b81356141bc848260208601614155565b91505092915050565b600080600080600080600080610100898b0312156141e6576141e5614086565b5b600089013567ffffffffffffffff8111156142045761420361408b565b5b6142108b828c01614197565b985050602089013567ffffffffffffffff8111156142315761423061408b565b5b61423d8b828c01614197565b975050604089013567ffffffffffffffff81111561425e5761425d61408b565b5b61426a8b828c01614197565b965050606089013567ffffffffffffffff81111561428b5761428a61408b565b5b6142978b828c01614197565b955050608089013567ffffffffffffffff8111156142b8576142b761408b565b5b6142c48b828c01614197565b94505060a089013567ffffffffffffffff8111156142e5576142e461408b565b5b6142f18b828c01614197565b93505060c089013567ffffffffffffffff8111156143125761431161408b565b5b61431e8b828c01614197565b92505060e089013567ffffffffffffffff81111561433f5761433e61408b565b5b61434b8b828c01614197565b9150509295985092959890939650565b6000819050919050565b61436e8161435b565b811461437957600080fd5b50565b60008135905061438b81614365565b92915050565b6000602082840312156143a7576143a6614086565b5b60006143b58482850161437c565b91505092915050565b600082825260208201905092915050565b60006143da82613f2b565b6143e481856143be565b93506143f4818560208601613f47565b6143fd81613f7a565b840191505092915050565b6144118161435b565b82525050565b6000610120820190508181036000830152614432818c6143cf565b90508181036020830152614446818b6143cf565b9050818103604083015261445a818a6143cf565b9050818103606083015261446e81896143cf565b9050818103608083015261448281886143cf565b905081810360a083015261449681876143cf565b905081810360c08301526144aa81866143cf565b90506144b960e0830185614408565b8181036101008301526144cc81846143cf565b90509a9950505050505050505050565b6000602082840312156144f2576144f1614086565b5b600082013567ffffffffffffffff8111156145105761450f61408b565b5b61451c84828501614197565b91505092915050565b6000602082019050818103600083015261453f81846143cf565b905092915050565b60008115159050919050565b61455c81614547565b82525050565b60006020820190506145776000830184614553565b92915050565b600081519050919050565b600082825260208201905092915050565b6000819050602082019050919050565b6145b28161435b565b82525050565b60006145c483836145a9565b60208301905092915050565b6000602082019050919050565b60006145e88261457d565b6145f28185614588565b93506145fd83614599565b8060005b8381101561462e57815161461588826145b8565b9750614620836145d0565b925050600181019050614601565b5085935050505092915050565b600060608201905081810360008301526146558186613fe5565b9050818103602083015261466981856145dd565b9050818103604083015261467d8184613fe5565b9050949350505050565b600060208201905061469c6000830184614408565b92915050565b600080fd5b600080fd5b6146b581614547565b81146146c057600080fd5b50565b6000813590506146d2816146ac565b92915050565b600060e082840312156146ee576146ed6146a2565b5b6146f860e06140fa565b9050600082013567ffffffffffffffff811115614718576147176146a7565b5b61472484828501614197565b600083015250602082013567ffffffffffffffff811115614748576147476146a7565b5b61475484828501614197565b602083015250604082013567ffffffffffffffff811115614778576147776146a7565b5b61478484828501614197565b604083015250606082013567ffffffffffffffff8111156147a8576147a76146a7565b5b6147b484828501614197565b606083015250608082013567ffffffffffffffff8111156147d8576147d76146a7565b5b6147e484828501614197565b60808301525060a082013567ffffffffffffffff811115614808576148076146a7565b5b61481484828501614197565b60a08301525060c0614828848285016146c3565b60c08301525092915050565b60006020828403121561484a57614849614086565b5b600082013567ffffffffffffffff8111156148685761486761408b565b5b614874848285016146d8565b91505092915050565b6000806040838503121561489457614893614086565b5b600083013567ffffffffffffffff8111156148b2576148b161408b565b5b6148be85828601614197565b92505060206148cf8582860161437c565b9150509250929050565b600060608201905081810360008301526148f381866143cf565b9050818103602083015261490781856143cf565b9050818103604083015261491b81846143cf565b9050949350505050565b60008060006060848603121561493e5761493d614086565b5b600084013567ffffffffffffffff81111561495c5761495b61408b565b5b61496886828701614197565b935050602084013567ffffffffffffffff8111156149895761498861408b565b5b61499586828701614197565b92505060406149a68682870161437c565b9150509250925092565b600080600080608085870312156149ca576149c9614086565b5b600085013567ffffffffffffffff8111156149e8576149e761408b565b5b6149f487828801614197565b945050602085013567ffffffffffffffff811115614a1557614a1461408b565b5b614a2187828801614197565b935050604085013567ffffffffffffffff811115614a4257614a4161408b565b5b614a4e87828801614197565b925050606085013567ffffffffffffffff811115614a6f57614a6e61408b565b5b614a7b87828801614197565b91505092959194509250565b600060e0820190508181036000830152614aa1818a6143cf565b90508181036020830152614ab581896143cf565b90508181036040830152614ac981886143cf565b90508181036060830152614add81876143cf565b90508181036080830152614af181866143cf565b905081810360a0830152614b0581856143cf565b9050614b1460c0830184614553565b98975050505050505050565b60008060008060008060c08789031215614b3d57614b3c614086565b5b600087013567ffffffffffffffff811115614b5b57614b5a61408b565b5b614b6789828a01614197565b965050602087013567ffffffffffffffff811115614b8857614b8761408b565b5b614b9489828a01614197565b955050604087013567ffffffffffffffff811115614bb557614bb461408b565b5b614bc189828a01614197565b945050606087013567ffffffffffffffff811115614be257614be161408b565b5b614bee89828a01614197565b935050608087013567ffffffffffffffff811115614c0f57614c0e61408b565b5b614c1b89828a01614197565b92505060a087013567ffffffffffffffff811115614c3c57614c3b61408b565b5b614c4889828a01614197565b9150509295509295509295565b60008060408385031215614c6c57614c6b614086565b5b600083013567ffffffffffffffff811115614c8a57614c8961408b565b5b614c9685828601614197565b925050602083013567ffffffffffffffff811115614cb757614cb661408b565b5b614cc385828601614197565b9150509250929050565b600081519050919050565b600082825260208201905092915050565b6000819050602082019050919050565b60006060830160008301518482036000860152614d168282613f8b565b91505060208301518482036020860152614d308282613f8b565b91505060408301518482036040860152614d4a8282613f8b565b9150508091505092915050565b6000614d638383614cf9565b905092915050565b6000602082019050919050565b6000614d8382614ccd565b614d8d8185614cd8565b935083602082028501614d9f85614ce9565b8060005b85811015614ddb5784840389528151614dbc8582614d57565b9450614dc783614d6b565b925060208a01995050600181019050614da3565b50829750879550505050505092915050565b60006020820190508181036000830152614e078184614d78565b905092915050565b7f4e487b7100000000000000000000000000000000000000000000000000000000600052603260045260246000fd5b7f4e487b7100000000000000000000000000000000000000000000000000000000600052602260045260246000fd5b60006002820490506001821680614e8557607f821691505b602082108103614e9857614e97614e3e565b5b50919050565b7f4e487b7100000000000000000000000000000000000000000000000000000000600052601160045260246000fd5b6000614ed88261435b565b91507fffffffffffffffffffffffffffffffffffffffffffffffffffffffffffffffff8203614f0a57614f09614e9e565b5b600182019050919050565b600081905092915050565b6000614f2b82613f2b565b614f358185614f15565b9350614f45818560208601613f47565b80840191505092915050565b6000614f5d8284614f20565b91508190509291505056fe436f756c64206e6f742063617374206120766f74652c20566f746572206e6f742072656769737465726564212028747279206368616e67696e67206163636f756e74206f6e206d6574616d61736b29a2646970667358221220a2c9b371b219ed896493c900915921af0ac952f80d3be4064bcb2afec1312cbe64736f6c634300080d0033307842363633466465333563353936453539374135363630646536373238623462433330326362363737",
  "immutableReferences": {},
  "source": "// SPDX-License-Identifier: MIT\r\npragma solidity ^0.8.10;\r\n\r\nstruct Admin{\r\n    string name;\r\n    string mobileNo;\r\n    string walletKey;\r\n}\r\n\r\nstruct Voter {\r\n    string name;\r\n    string mobileNo;\r\n    string homeAddress;\r\n    string aadharCardNo;\r\n    string voterId;\r\n    string walletKey;\r\n    bool isVoted;\r\n}\r\n\r\nstruct Candidate {\r\n    string name;\r\n    string mobileNo;\r\n    string homeAddress;\r\n    string aadharCardNo;\r\n    string voterId;\r\n    string walletKey;\r\n    string politicalParty;\r\n    uint256 votes;\r\n    string symbolUrl;\r\n}\r\n\r\ncontract BlockVote{\r\n    /* Global Variables START. */\r\n    Admin public ECI = Admin({name:\"ECI_Official\", mobileNo:\"1234567890\", walletKey:\"0xB663Fde35c596E597A5660de6728b4bC302cb677\"});\r\n    string voterId_main=\"\";\r\n    Admin[] public Admins;\r\n    Voter[] public Voters;\r\n    Candidate[] public Candidates;\r\n    string[] public candidate_names;\r\n    mapping (string=>Admin) public mapWalletKey2Admin;\r\n    // walletKey : voterId\r\n    mapping(string=>string) public map_walletKey_voterid;\r\n    // voterid : Voter;\r\n    mapping(string=>Voter) public map_voterid_details;\r\n    // wallet address : Candidate\r\n    mapping(string=>Candidate) public candidatesMap;\r\n    string votingPhase = \"preVoting\"; // Voting, Result\r\n    /* Global Variables END. */\r\n\r\n    /* ECI Functions START. */\r\n    uint addAdminState;     // 0 -> Not added, 1 -> Added succesfully, 2 -> Admin already exist, 3 -> Invalid ECI.\r\n    \r\n    function startVoting() public {\r\n        votingPhase = \"Voting\";\r\n    }\r\n\r\n    function endVoting() public {\r\n        votingPhase = \"Result\";\r\n    }\r\n\r\n    // Set addAdminState = 0.\r\n    function resetAddAdminState() private{\r\n        addAdminState = 0;\r\n    }\r\n\r\n    // Returns state of the last addAdmin call.\r\n    function getAddAdminState() public view returns(uint){\r\n        return addAdminState;\r\n    }\r\n\r\n    function authenticateECI(string memory _walletKey) public view returns(bool) {\r\n        return areStringsEqual(_walletKey, ECI.walletKey);\r\n    }\r\n\r\n    // Add an admin to the blockchain.\r\n    function addAdmin(string memory ECI_Key,string memory adName, string memory adMoNo, string memory adEthKey) public{\r\n        resetAddAdminState();\r\n        if(areStringsEqual(ECI_Key, ECI.walletKey)){\r\n            if(!areStringsEqual(mapWalletKey2Admin[adEthKey].walletKey, adEthKey)) {\r\n                Admin memory newAdmin = Admin({\r\n                    name:adName, \r\n                    mobileNo:adMoNo,\r\n                    walletKey:adEthKey\r\n                });\r\n                Admins.push(newAdmin);\r\n                mapWalletKey2Admin[adEthKey] = newAdmin;\r\n                addAdminState = 1;\r\n            }\r\n            else\r\n                addAdminState = 2;\r\n        }\r\n        else\r\n            addAdminState = 3;   \r\n    }\r\n\r\n    // Returns total number of admins in the blockchain.\r\n    function adminLength() public view returns(uint){\r\n        return Admins.length;\r\n    }\r\n\r\n    // Returns all admins in the blockchain.\r\n    function getAllAdmins() public view returns(Admin[] memory){\r\n        return Admins;\r\n    }\r\n\r\n    function authenticateAdmin(string memory _walletKey) public view returns(bool) {\r\n        if(!areStringsEqual(mapWalletKey2Admin[_walletKey].name,\"\")) return true;\r\n        else return false;\r\n    }\r\n\r\n    /* ECI Functions END. */\r\n\r\n    /* Admin Functions START. */\r\n    /* Admin Functions END. */\r\n\r\n    /* Voter Functions START. */\r\n    \r\n    function addVoter(string memory _name, string memory _mobileNo, string memory _homeAddress,\r\n     string memory _aadharCardNo, string memory _voterId, string memory _walletKey) public {\r\n        Voter memory newVoter = Voter({\r\n                    name:_name, \r\n                    mobileNo:_mobileNo,\r\n                    homeAddress:_homeAddress,\r\n                    aadharCardNo:_aadharCardNo,\r\n                    voterId:_voterId,\r\n                    walletKey:_walletKey,\r\n                    isVoted:false\r\n        });\r\n        if(!isVoterRegistered(newVoter)) {\r\n            Voters.push(newVoter);\r\n            map_voterid_details[_walletKey] = newVoter;\r\n            map_walletKey_voterid[_walletKey] = _voterId;\r\n        }\r\n        \r\n    }\r\n\r\n    function hasVoted(string memory _voterid) public view returns(bool){\r\n        return map_voterid_details[_voterid].isVoted;\r\n    }\r\n\r\n    function isVoterRegistered(Voter memory item) public view returns(bool) {\r\n        if(!areStringsEqual(map_voterid_details[item.voterId].name,\"\")) return true;\r\n        else return false;\r\n    }\r\n\r\n    function authenticateVoter(string memory _walletKey) public returns(bool) {\r\n        if(!areStringsEqual(map_voterid_details[getVoterId(_walletKey)].name,\"\")) return true;\r\n        else return false;\r\n    }\r\n\r\n    function getVoterId(string memory _walletKey) public returns(string memory) {\r\n        voterId_main = map_walletKey_voterid[_walletKey];\r\n        return voterId_main;\r\n    }\r\n\r\n    function setVoterId(string memory _voterid) public {\r\n        voterId_main = _voterid;\r\n    }\r\n\r\n    function voterLength() public view returns(uint) {\r\n        return Voters.length;\r\n    }\r\n\r\n    function getVoterMobileNumber(string memory _voterid) public view returns(string memory) {\r\n        return map_voterid_details[_voterid].mobileNo;\r\n    }\r\n\r\n    /* Voter Functions END. */\r\n    \r\n    /* Candidate Functions START. */\r\n    function addCandidate(string memory _name, string memory _mobileNo, string memory _homeAddress,\r\n     string memory _aadharCardNo, string memory _voterId, string memory _walletKey, string memory _politicalParty, string memory _symbolUrl) public {\r\n        Candidate memory newCandidate = Candidate({\r\n                    name:_name, \r\n                    mobileNo:_mobileNo,\r\n                    homeAddress:_homeAddress,\r\n                    aadharCardNo:_aadharCardNo,\r\n                    voterId:_voterId,\r\n                    walletKey:_walletKey,\r\n                    politicalParty:_politicalParty,\r\n                    votes: 0,\r\n                    symbolUrl: _symbolUrl\r\n        });\r\n        if(!isCandidateRegistered(_walletKey)) {\r\n            Candidates.push(newCandidate);\r\n            candidatesMap[_walletKey] = newCandidate;\r\n            addVoter( _name, _mobileNo,  _homeAddress,\r\n                _aadharCardNo, _voterId,  _walletKey);\r\n        }   \r\n    }\r\n\r\n    function isCandidateRegistered(string memory _walletKey) public view returns(bool){\r\n        if(!areStringsEqual(candidatesMap[_walletKey].name,\"\"))return true;\r\n        else return false;\r\n    }\r\n\r\n    function getCandidates() public returns(string[] memory) {\r\n        for(uint256 i=0;i<Candidates.length;i++) {\r\n        candidate_names.push(Candidates[i].name);\r\n        }\r\n        return candidate_names;\r\n    }\r\n    \r\n\r\n    /* Candidate Functions END. */\r\n\r\n    /* Results Functions START */\r\n    /* returns (candidates, votes, symbolUrls), receives object with 3 keys (0 : candidates array, 1 : votes array, 2: symbolUrls array) */\r\n    \r\n    string[] public _candidates;\r\n    uint256[] public _votes;\r\n    string[] public _symbolUrls;\r\n    function getResults() public returns(string[] memory, uint256[] memory, string[] memory) {\r\n        if(areStringsEqual(votingPhase, \"Result\")){\r\n            for(uint256 i=0;i<Candidates.length;i++) {\r\n                _candidates.push(Candidates[i].name);\r\n                _votes.push(Candidates[i].votes);\r\n                _symbolUrls.push(Candidates[i].symbolUrl);\r\n            }    \r\n        }\r\n        return (_candidates, _votes, _symbolUrls);\r\n    }\r\n    /* Results Functions END */\r\n\r\n    /* Voting Functions START */ \r\n    \r\n    function vote(string memory _voterId, string memory _walletKey, uint256 choice) public returns(string memory) {\r\n        if(areStringsEqual(map_voterid_details[_voterId].walletKey, _walletKey)) {\r\n            if(!map_voterid_details[_voterId].isVoted) {\r\n                Candidates[choice].votes++;\r\n                string memory temp_walletKey = Candidates[choice].walletKey;\r\n                candidatesMap[temp_walletKey].votes++;\r\n                map_voterid_details[_voterId].isVoted = true;\r\n                for(uint256 i=0;i<Voters.length;i++) {\r\n                    if(areStringsEqual(Voters[i].voterId, _voterId)){\r\n                        Voters[i].isVoted = true;\r\n                        break;\r\n                    }\r\n                }\r\n                return \"Vote casted successfully!\";\r\n            }\r\n            return \"Voter has already voted!\";\r\n        }\r\n        return \"Could not cast a vote, Voter not registered! (try changing account on metamask)\";\r\n    }\r\n\r\n    function voteThroughAdmin(string memory _voterId, uint256 choice) public returns(string memory) {\r\n        if(!map_voterid_details[_voterId].isVoted) {\r\n            Candidates[choice].votes++;\r\n            string memory temp_walletKey = Candidates[choice].walletKey;\r\n            candidatesMap[temp_walletKey].votes++;\r\n            map_voterid_details[_voterId].isVoted = true;\r\n            for(uint256 i=0;i<Voters.length;i++) {\r\n                if(areStringsEqual(Voters[i].voterId, _voterId)){\r\n                    Voters[i].isVoted = true;\r\n                    break;\r\n                }\r\n            }\r\n            return \"Vote casted successfully!\";\r\n        }\r\n        return \"Voter has already voted!\";\r\n    }\r\n    /* Voting Functions END */ \r\n\r\n    /* Utility Functions START. */\r\n    function areStringsEqual(string memory S1, string memory S2) public pure returns(bool){\r\n        return keccak256(bytes(S1)) == keccak256(bytes(S2));\r\n    }\r\n\r\n    function sampleValue() public pure returns(uint){\r\n        return 5;\r\n    }\r\n    /* Utility Functions END. */\r\n}\r\n",
  "sourcePath": "D:\\Blockchain-Projects\\BlockVote\\contracts\\BlockVote.sol",
  "compiler": {
    "name": "solc",
    "version": "0.8.13+commit.abaa5c0e.Emscripten.clang"
  },
  "schemaVersion": "3.4.4",
  "updatedAt": "2022-03-31T15:13:52.530Z",
  "networkType": "ethereum",
  "devdoc": {
    "kind": "dev",
    "methods": {},
    "version": 1
  },
  "userdoc": {
    "kind": "user",
    "methods": {},
    "version": 1
  }
}