{
  "contractName": "BlockVote",
  "abi": [
    {
      "inputs": [
        {
          "internalType": "uint256",
          "name": "",
          "type": "uint256"
        }
      ],
      "name": "Admins",
      "outputs": [
        {
          "internalType": "string",
          "name": "name",
          "type": "string"
        },
        {
          "internalType": "string",
          "name": "mobileNo",
          "type": "string"
        },
        {
          "internalType": "string",
          "name": "walletKey",
          "type": "string"
        }
      ],
      "stateMutability": "view",
      "type": "function",
      "constant": true
    },
    {
      "inputs": [
        {
          "internalType": "uint256",
          "name": "",
          "type": "uint256"
        }
      ],
      "name": "Candidates",
      "outputs": [
        {
          "internalType": "string",
          "name": "name",
          "type": "string"
        },
        {
          "internalType": "string",
          "name": "mobileNo",
          "type": "string"
        },
        {
          "internalType": "string",
          "name": "homeAddress",
          "type": "string"
        },
        {
          "internalType": "string",
          "name": "aadharCardNo",
          "type": "string"
        },
        {
          "internalType": "string",
          "name": "voterId",
          "type": "string"
        },
        {
          "internalType": "string",
          "name": "walletKey",
          "type": "string"
        },
        {
          "internalType": "string",
          "name": "politicalParty",
          "type": "string"
        },
        {
          "internalType": "uint256",
          "name": "votes",
          "type": "uint256"
        },
        {
          "internalType": "string",
          "name": "symbolUrl",
          "type": "string"
        }
      ],
      "stateMutability": "view",
      "type": "function",
      "constant": true
    },
    {
      "inputs": [],
      "name": "ECI",
      "outputs": [
        {
          "internalType": "string",
          "name": "name",
          "type": "string"
        },
        {
          "internalType": "string",
          "name": "mobileNo",
          "type": "string"
        },
        {
          "internalType": "string",
          "name": "walletKey",
          "type": "string"
        }
      ],
      "stateMutability": "view",
      "type": "function",
      "constant": true
    },
    {
      "inputs": [],
      "name": "NOTA",
      "outputs": [
        {
          "internalType": "string",
          "name": "name",
          "type": "string"
        },
        {
          "internalType": "string",
          "name": "mobileNo",
          "type": "string"
        },
        {
          "internalType": "string",
          "name": "homeAddress",
          "type": "string"
        },
        {
          "internalType": "string",
          "name": "aadharCardNo",
          "type": "string"
        },
        {
          "internalType": "string",
          "name": "voterId",
          "type": "string"
        },
        {
          "internalType": "string",
          "name": "walletKey",
          "type": "string"
        },
        {
          "internalType": "string",
          "name": "politicalParty",
          "type": "string"
        },
        {
          "internalType": "uint256",
          "name": "votes",
          "type": "uint256"
        },
        {
          "internalType": "string",
          "name": "symbolUrl",
          "type": "string"
        }
      ],
      "stateMutability": "view",
      "type": "function",
      "constant": true
    },
    {
      "inputs": [
        {
          "internalType": "uint256",
          "name": "",
          "type": "uint256"
        }
      ],
      "name": "Voters",
      "outputs": [
        {
          "internalType": "string",
          "name": "name",
          "type": "string"
        },
        {
          "internalType": "string",
          "name": "mobileNo",
          "type": "string"
        },
        {
          "internalType": "string",
          "name": "homeAddress",
          "type": "string"
        },
        {
          "internalType": "string",
          "name": "aadharCardNo",
          "type": "string"
        },
        {
          "internalType": "string",
          "name": "voterId",
          "type": "string"
        },
        {
          "internalType": "string",
          "name": "walletKey",
          "type": "string"
        },
        {
          "internalType": "bool",
          "name": "isVoted",
          "type": "bool"
        }
      ],
      "stateMutability": "view",
      "type": "function",
      "constant": true
    },
    {
      "inputs": [
        {
          "internalType": "uint256",
          "name": "",
          "type": "uint256"
        }
      ],
      "name": "_candidates",
      "outputs": [
        {
          "internalType": "string",
          "name": "",
          "type": "string"
        }
      ],
      "stateMutability": "view",
      "type": "function",
      "constant": true
    },
    {
      "inputs": [
        {
          "internalType": "uint256",
          "name": "",
          "type": "uint256"
        }
      ],
      "name": "_symbolUrls",
      "outputs": [
        {
          "internalType": "string",
          "name": "",
          "type": "string"
        }
      ],
      "stateMutability": "view",
      "type": "function",
      "constant": true
    },
    {
      "inputs": [
        {
          "internalType": "uint256",
          "name": "",
          "type": "uint256"
        }
      ],
      "name": "_votes",
      "outputs": [
        {
          "internalType": "uint256",
          "name": "",
          "type": "uint256"
        }
      ],
      "stateMutability": "view",
      "type": "function",
      "constant": true
    },
    {
      "inputs": [
        {
          "internalType": "uint256",
          "name": "",
          "type": "uint256"
        }
      ],
      "name": "candidate_names",
      "outputs": [
        {
          "internalType": "string",
          "name": "",
          "type": "string"
        }
      ],
      "stateMutability": "view",
      "type": "function",
      "constant": true
    },
    {
      "inputs": [
        {
          "internalType": "uint256",
          "name": "",
          "type": "uint256"
        }
      ],
      "name": "candidate_urls",
      "outputs": [
        {
          "internalType": "string",
          "name": "",
          "type": "string"
        }
      ],
      "stateMutability": "view",
      "type": "function",
      "constant": true
    },
    {
      "inputs": [
        {
          "internalType": "string",
          "name": "",
          "type": "string"
        }
      ],
      "name": "candidatesMap",
      "outputs": [
        {
          "internalType": "string",
          "name": "name",
          "type": "string"
        },
        {
          "internalType": "string",
          "name": "mobileNo",
          "type": "string"
        },
        {
          "internalType": "string",
          "name": "homeAddress",
          "type": "string"
        },
        {
          "internalType": "string",
          "name": "aadharCardNo",
          "type": "string"
        },
        {
          "internalType": "string",
          "name": "voterId",
          "type": "string"
        },
        {
          "internalType": "string",
          "name": "walletKey",
          "type": "string"
        },
        {
          "internalType": "string",
          "name": "politicalParty",
          "type": "string"
        },
        {
          "internalType": "uint256",
          "name": "votes",
          "type": "uint256"
        },
        {
          "internalType": "string",
          "name": "symbolUrl",
          "type": "string"
        }
      ],
      "stateMutability": "view",
      "type": "function",
      "constant": true
    },
    {
      "inputs": [
        {
          "internalType": "string",
          "name": "",
          "type": "string"
        }
      ],
      "name": "mapWalletKey2Admin",
      "outputs": [
        {
          "internalType": "string",
          "name": "name",
          "type": "string"
        },
        {
          "internalType": "string",
          "name": "mobileNo",
          "type": "string"
        },
        {
          "internalType": "string",
          "name": "walletKey",
          "type": "string"
        }
      ],
      "stateMutability": "view",
      "type": "function",
      "constant": true
    },
    {
      "inputs": [
        {
          "internalType": "string",
          "name": "",
          "type": "string"
        }
      ],
      "name": "map_voterid_details",
      "outputs": [
        {
          "internalType": "string",
          "name": "name",
          "type": "string"
        },
        {
          "internalType": "string",
          "name": "mobileNo",
          "type": "string"
        },
        {
          "internalType": "string",
          "name": "homeAddress",
          "type": "string"
        },
        {
          "internalType": "string",
          "name": "aadharCardNo",
          "type": "string"
        },
        {
          "internalType": "string",
          "name": "voterId",
          "type": "string"
        },
        {
          "internalType": "string",
          "name": "walletKey",
          "type": "string"
        },
        {
          "internalType": "bool",
          "name": "isVoted",
          "type": "bool"
        }
      ],
      "stateMutability": "view",
      "type": "function",
      "constant": true
    },
    {
      "inputs": [
        {
          "internalType": "string",
          "name": "",
          "type": "string"
        }
      ],
      "name": "map_walletKey_voterid",
      "outputs": [
        {
          "internalType": "string",
          "name": "",
          "type": "string"
        }
      ],
      "stateMutability": "view",
      "type": "function",
      "constant": true
    },
    {
      "inputs": [],
      "name": "startVoting",
      "outputs": [],
      "stateMutability": "nonpayable",
      "type": "function"
    },
    {
      "inputs": [],
      "name": "endVoting",
      "outputs": [],
      "stateMutability": "nonpayable",
      "type": "function"
    },
    {
      "inputs": [],
      "name": "getElectionStatus",
      "outputs": [
        {
          "internalType": "string",
          "name": "",
          "type": "string"
        }
      ],
      "stateMutability": "view",
      "type": "function",
      "constant": true
    },
    {
      "inputs": [],
      "name": "getAddAdminState",
      "outputs": [
        {
          "internalType": "uint256",
          "name": "",
          "type": "uint256"
        }
      ],
      "stateMutability": "view",
      "type": "function",
      "constant": true
    },
    {
      "inputs": [
        {
          "internalType": "string",
          "name": "_walletKey",
          "type": "string"
        }
      ],
      "name": "authenticateECI",
      "outputs": [
        {
          "internalType": "bool",
          "name": "",
          "type": "bool"
        }
      ],
      "stateMutability": "view",
      "type": "function",
      "constant": true
    },
    {
      "inputs": [
        {
          "internalType": "string",
          "name": "ECI_Key",
          "type": "string"
        },
        {
          "internalType": "string",
          "name": "adName",
          "type": "string"
        },
        {
          "internalType": "string",
          "name": "adMoNo",
          "type": "string"
        },
        {
          "internalType": "string",
          "name": "adEthKey",
          "type": "string"
        }
      ],
      "name": "addAdmin",
      "outputs": [],
      "stateMutability": "nonpayable",
      "type": "function"
    },
    {
      "inputs": [],
      "name": "adminLength",
      "outputs": [
        {
          "internalType": "uint256",
          "name": "",
          "type": "uint256"
        }
      ],
      "stateMutability": "view",
      "type": "function",
      "constant": true
    },
    {
      "inputs": [],
      "name": "getAllAdmins",
      "outputs": [
        {
          "components": [
            {
              "internalType": "string",
              "name": "name",
              "type": "string"
            },
            {
              "internalType": "string",
              "name": "mobileNo",
              "type": "string"
            },
            {
              "internalType": "string",
              "name": "walletKey",
              "type": "string"
            }
          ],
          "internalType": "struct Admin[]",
          "name": "",
          "type": "tuple[]"
        }
      ],
      "stateMutability": "view",
      "type": "function",
      "constant": true
    },
    {
      "inputs": [
        {
          "internalType": "string",
          "name": "_walletKey",
          "type": "string"
        }
      ],
      "name": "authenticateAdmin",
      "outputs": [
        {
          "internalType": "bool",
          "name": "",
          "type": "bool"
        }
      ],
      "stateMutability": "view",
      "type": "function",
      "constant": true
    },
    {
      "inputs": [],
      "name": "getAddVoterState",
      "outputs": [
        {
          "internalType": "uint256",
          "name": "",
          "type": "uint256"
        }
      ],
      "stateMutability": "view",
      "type": "function",
      "constant": true
    },
    {
      "inputs": [
        {
          "internalType": "string",
          "name": "_name",
          "type": "string"
        },
        {
          "internalType": "string",
          "name": "_mobileNo",
          "type": "string"
        },
        {
          "internalType": "string",
          "name": "_homeAddress",
          "type": "string"
        },
        {
          "internalType": "string",
          "name": "_aadharCardNo",
          "type": "string"
        },
        {
          "internalType": "string",
          "name": "_voterId",
          "type": "string"
        },
        {
          "internalType": "string",
          "name": "_walletKey",
          "type": "string"
        }
      ],
      "name": "addVoter",
      "outputs": [],
      "stateMutability": "nonpayable",
      "type": "function"
    },
    {
      "inputs": [
        {
          "internalType": "string",
          "name": "_walletKey",
          "type": "string"
        }
      ],
      "name": "getAllVoters",
      "outputs": [
        {
          "internalType": "string",
          "name": "",
          "type": "string"
        }
      ],
      "stateMutability": "view",
      "type": "function",
      "constant": true
    },
    {
      "inputs": [
        {
          "internalType": "string",
          "name": "_voterid",
          "type": "string"
        }
      ],
      "name": "hasVoted",
      "outputs": [
        {
          "internalType": "bool",
          "name": "",
          "type": "bool"
        }
      ],
      "stateMutability": "view",
      "type": "function",
      "constant": true
    },
    {
      "inputs": [
        {
          "components": [
            {
              "internalType": "string",
              "name": "name",
              "type": "string"
            },
            {
              "internalType": "string",
              "name": "mobileNo",
              "type": "string"
            },
            {
              "internalType": "string",
              "name": "homeAddress",
              "type": "string"
            },
            {
              "internalType": "string",
              "name": "aadharCardNo",
              "type": "string"
            },
            {
              "internalType": "string",
              "name": "voterId",
              "type": "string"
            },
            {
              "internalType": "string",
              "name": "walletKey",
              "type": "string"
            },
            {
              "internalType": "bool",
              "name": "isVoted",
              "type": "bool"
            }
          ],
          "internalType": "struct Voter",
          "name": "item",
          "type": "tuple"
        }
      ],
      "name": "isVoterRegistered",
      "outputs": [
        {
          "internalType": "bool",
          "name": "",
          "type": "bool"
        }
      ],
      "stateMutability": "view",
      "type": "function",
      "constant": true
    },
    {
      "inputs": [
        {
          "internalType": "string",
          "name": "_walletKey",
          "type": "string"
        }
      ],
      "name": "authenticateVoter",
      "outputs": [
        {
          "internalType": "bool",
          "name": "",
          "type": "bool"
        }
      ],
      "stateMutability": "nonpayable",
      "type": "function"
    },
    {
      "inputs": [
        {
          "internalType": "string",
          "name": "_walletKey",
          "type": "string"
        }
      ],
      "name": "getVoterId",
      "outputs": [
        {
          "internalType": "string",
          "name": "",
          "type": "string"
        }
      ],
      "stateMutability": "nonpayable",
      "type": "function"
    },
    {
      "inputs": [
        {
          "internalType": "string",
          "name": "_voterid",
          "type": "string"
        }
      ],
      "name": "setVoterId",
      "outputs": [],
      "stateMutability": "nonpayable",
      "type": "function"
    },
    {
      "inputs": [],
      "name": "voterLength",
      "outputs": [
        {
          "internalType": "uint256",
          "name": "",
          "type": "uint256"
        }
      ],
      "stateMutability": "view",
      "type": "function",
      "constant": true
    },
    {
      "inputs": [
        {
          "internalType": "string",
          "name": "_voterid",
          "type": "string"
        }
      ],
      "name": "getVoterMobileNumber",
      "outputs": [
        {
          "internalType": "string",
          "name": "",
          "type": "string"
        }
      ],
      "stateMutability": "view",
      "type": "function",
      "constant": true
    },
    {
      "inputs": [
        {
          "internalType": "string",
          "name": "_name",
          "type": "string"
        },
        {
          "internalType": "string",
          "name": "_mobileNo",
          "type": "string"
        },
        {
          "internalType": "string",
          "name": "_homeAddress",
          "type": "string"
        },
        {
          "internalType": "string",
          "name": "_aadharCardNo",
          "type": "string"
        },
        {
          "internalType": "string",
          "name": "_voterId",
          "type": "string"
        },
        {
          "internalType": "string",
          "name": "_walletKey",
          "type": "string"
        },
        {
          "internalType": "string",
          "name": "_politicalParty",
          "type": "string"
        },
        {
          "internalType": "string",
          "name": "_symbolUrl",
          "type": "string"
        }
      ],
      "name": "addCandidate",
      "outputs": [],
      "stateMutability": "nonpayable",
      "type": "function"
    },
    {
      "inputs": [
        {
          "internalType": "string",
          "name": "_walletKey",
          "type": "string"
        }
      ],
      "name": "isCandidateRegistered",
      "outputs": [
        {
          "internalType": "bool",
          "name": "",
          "type": "bool"
        }
      ],
      "stateMutability": "view",
      "type": "function",
      "constant": true
    },
    {
      "inputs": [],
      "name": "getCandidates",
      "outputs": [
        {
          "internalType": "string[]",
          "name": "",
          "type": "string[]"
        }
      ],
      "stateMutability": "nonpayable",
      "type": "function"
    },
    {
      "inputs": [],
      "name": "getUrls",
      "outputs": [
        {
          "internalType": "string[]",
          "name": "",
          "type": "string[]"
        }
      ],
      "stateMutability": "nonpayable",
      "type": "function"
    },
    {
      "inputs": [],
      "name": "getResults",
      "outputs": [
        {
          "internalType": "string[]",
          "name": "",
          "type": "string[]"
        },
        {
          "internalType": "uint256[]",
          "name": "",
          "type": "uint256[]"
        },
        {
          "internalType": "string[]",
          "name": "",
          "type": "string[]"
        }
      ],
      "stateMutability": "nonpayable",
      "type": "function"
    },
    {
      "inputs": [],
      "name": "setVoteState",
      "outputs": [],
      "stateMutability": "nonpayable",
      "type": "function"
    },
    {
      "inputs": [],
      "name": "getVoteState",
      "outputs": [
        {
          "internalType": "uint256",
          "name": "",
          "type": "uint256"
        }
      ],
      "stateMutability": "view",
      "type": "function",
      "constant": true
    },
    {
      "inputs": [
        {
          "internalType": "string",
          "name": "_voterId",
          "type": "string"
        },
        {
          "internalType": "string",
          "name": "_walletKey",
          "type": "string"
        },
        {
          "internalType": "uint256",
          "name": "choice",
          "type": "uint256"
        }
      ],
      "name": "vote",
      "outputs": [
        {
          "internalType": "string",
          "name": "",
          "type": "string"
        }
      ],
      "stateMutability": "nonpayable",
      "type": "function"
    },
    {
      "inputs": [],
      "name": "getVoteThroughAdminState",
      "outputs": [
        {
          "internalType": "uint256",
          "name": "",
          "type": "uint256"
        }
      ],
      "stateMutability": "view",
      "type": "function",
      "constant": true
    },
    {
      "inputs": [
        {
          "internalType": "string",
          "name": "_voterId",
          "type": "string"
        },
        {
          "internalType": "uint256",
          "name": "choice",
          "type": "uint256"
        }
      ],
      "name": "voteThroughAdmin",
      "outputs": [
        {
          "internalType": "string",
          "name": "",
          "type": "string"
        }
      ],
      "stateMutability": "nonpayable",
      "type": "function"
    },
    {
      "inputs": [
        {
          "internalType": "string",
          "name": "S1",
          "type": "string"
        },
        {
          "internalType": "string",
          "name": "S2",
          "type": "string"
        }
      ],
      "name": "areStringsEqual",
      "outputs": [
        {
          "internalType": "bool",
          "name": "",
          "type": "bool"
        }
      ],
      "stateMutability": "pure",
      "type": "function",
      "constant": true
    },
    {
      "inputs": [],
      "name": "sampleValue",
      "outputs": [
        {
          "internalType": "uint256",
          "name": "",
          "type": "uint256"
        }
      ],
      "stateMutability": "pure",
      "type": "function",
      "constant": true
    }
  ],
  "bytecode": "0x608060405260405180606001604052806040518060400160405280600c81526020017f4543495f4f6666696369616c000000000000000000000000000000000000000081525081526020016040518060400160405280600a81526020017f313233343536373839300000000000000000000000000000000000000000000081525081526020016040518060600160405280602a815260200162005ef1602a9139815250600080820151816000019080519060200190620000c1929190620003f8565b506020820151816001019080519060200190620000e0929190620003f8565b506040820151816002019080519060200190620000ff929190620003f8565b5050506040518061012001604052806040518060400160405280600481526020017f4e4f54410000000000000000000000000000000000000000000000000000000081525081526020016040518060200160405280600081525081526020016040518060200160405280600081525081526020016040518060200160405280600081525081526020016040518060400160405280600481526020017f4e4f54410000000000000000000000000000000000000000000000000000000081525081526020016040518060400160405280600481526020017f4e4f54410000000000000000000000000000000000000000000000000000000081525081526020016040518060400160405280600481526020017f4e4f5441000000000000000000000000000000000000000000000000000000008152508152602001600081526020016040518060600160405280603b815260200162005f1b603b9139815250600360008201518160000190805190602001906200027d929190620003f8565b5060208201518160010190805190602001906200029c929190620003f8565b506040820151816002019080519060200190620002bb929190620003f8565b506060820151816003019080519060200190620002da929190620003f8565b506080820151816004019080519060200190620002f9929190620003f8565b5060a082015181600501908051906020019062000318929190620003f8565b5060c082015181600601908051906020019062000337929190620003f8565b5060e0820151816007015561010082015181600801908051906020019062000361929190620003f8565b50505060405180602001604052806000815250600c90805190602001906200038b929190620003f8565b506040518060400160405280600981526020017f707265566f74696e67000000000000000000000000000000000000000000000081525060169080519060200190620003d9929190620003f8565b506000601d556000601e55348015620003f157600080fd5b506200050c565b8280546200040690620004d7565b90600052602060002090601f0160209004810192826200042a576000855562000476565b82601f106200044557805160ff191683800117855562000476565b8280016001018555821562000476579182015b828111156200047557825182559160200191906001019062000458565b5b50905062000485919062000489565b5090565b5b80821115620004a45760008160009055506001016200048a565b5090565b7f4e487b7100000000000000000000000000000000000000000000000000000000600052602260045260246000fd5b60006002820490506001821680620004f057607f821691505b602082108103620005065762000505620004a8565b5b50919050565b6159d5806200051c6000396000f3fe608060405234801561001057600080fd5b506004361061027f5760003560e01c80637a4c96ad1161015c578063ab9c7fa4116100ce578063da06e07f11610087578063da06e07f14610884578063e9523c97146108a2578063eb03cd22146108c0578063ecfb02fb146108f0578063f3725146146108fa578063f6249c04146109325761027f565b8063ab9c7fa414610796578063aebd20f0146107b4578063b1496cd4146107ea578063bea488941461081a578063c3403ddf1461084a578063c4082bea146108545761027f565b80639f89a4b2116101205780639f89a4b21461069a578063a3a8908d146106cc578063a5a75248146106fe578063a69945fb1461072e578063a72540511461075e578063a7d27b031461077a5761027f565b80637a4c96ad146105b85780637d112d64146105e85780638a25d072146106185780639c35d98b146106345780639f6e5e6d1461066a5761027f565b80634fbe75c1116101f5578063565e802a116101b9578063565e802a146104de5780635982f6101461050e578063609b62581461052c578063622eaa141461054a578063648a305a1461056a5780637820d3841461059a5761027f565b80634fbe75c1146103f85780635097086f146104285780635143eda41461045857806351b090651461048857806354c8a386146104b85761027f565b80631ec6b60a116102475780631ec6b60a14610318578063290e9212146103225780632ec660431461035a57806339bfeae31461038a5780634717f97c146103ba578063481edc12146103da5761027f565b806301ceb30a1461028457806306a49fce146102a2578063077e7856146102c0578063122902a6146102de57806313bad72f146102fc575b600080fd5b61028c610962565b6040516102999190614900565b60405180910390f35b6102aa61096c565b6040516102b79190614a76565b60405180910390f35b6102c8610acd565b6040516102d59190614900565b60405180910390f35b6102e6610ad7565b6040516102f39190614ae2565b60405180910390f35b61031660048036038101906103119190614c4d565b610b69565b005b610320610e20565b005b61033c60048036038101906103379190614e0f565b610e6e565b60405161035199989796959493929190614e3c565b60405180910390f35b610374600480360381019061036f9190614f01565b61130c565b6040516103819190614ae2565b60405180910390f35b6103a4600480360381019061039f9190614f01565b6113c2565b6040516103b19190614f65565b60405180910390f35b6103c26113fa565b6040516103d19392919061503e565b60405180910390f35b6103e2611811565b6040516103ef9190614900565b60405180910390f35b610412600480360381019061040d919061521c565b61181b565b60405161041f9190614f65565b60405180910390f35b610442600480360381019061043d9190615265565b6118fa565b60405161044f9190614ae2565b60405180910390f35b610472600480360381019061046d9190614e0f565b611c45565b60405161047f9190614ae2565b60405180910390f35b6104a2600480360381019061049d9190614e0f565b611cf1565b6040516104af9190614ae2565b60405180910390f35b6104c0611d9d565b6040516104d599989796959493929190614e3c565b60405180910390f35b6104f860048036038101906104f39190614f01565b612219565b6040516105059190614f65565b60405180910390f35b6105166122f4565b6040516105239190614900565b60405180910390f35b610534612301565b6040516105419190614900565b60405180910390f35b61055261230a565b604051610561939291906152c1565b60405180910390f35b610584600480360381019061057f9190614e0f565b6124ba565b6040516105919190614ae2565b60405180910390f35b6105a2612566565b6040516105af9190614900565b60405180910390f35b6105d260048036038101906105cd919061530d565b612573565b6040516105df9190614ae2565b60405180910390f35b61060260048036038101906105fd9190614f01565b612997565b60405161060f9190614f65565b60405180910390f35b610632600480360381019061062d9190615398565b612a7a565b005b61064e60048036038101906106499190614e0f565b612d1d565b604051610661979695949392919061546f565b60405180910390f35b610684600480360381019061067f9190614e0f565b6130ac565b6040516106919190614ae2565b60405180910390f35b6106b460048036038101906106af9190614e0f565b613158565b6040516106c3939291906152c1565b60405180910390f35b6106e660048036038101906106e19190614f01565b61332a565b6040516106f5939291906152c1565b60405180910390f35b61071860048036038101906107139190614f01565b613502565b6040516107259190614ae2565b60405180910390f35b61074860048036038101906107439190614f01565b6135b2565b6040516107559190614f65565b60405180910390f35b61077860048036038101906107739190615508565b61368d565b005b610794600480360381019061078f9190614f01565b61391a565b005b61079e613934565b6040516107ab9190614900565b60405180910390f35b6107ce60048036038101906107c99190614f01565b61393e565b6040516107e1979695949392919061546f565b60405180910390f35b61080460048036038101906107ff919061563d565b613cd3565b6040516108119190614f65565b60405180910390f35b610834600480360381019061082f9190614e0f565b613cee565b6040516108419190614900565b60405180910390f35b610852613d12565b005b61086e60048036038101906108699190614f01565b613d60565b60405161087b9190614ae2565b60405180910390f35b61088c613e13565b6040516108999190614a76565b60405180910390f35b6108aa613f74565b6040516108b791906157d5565b60405180910390f35b6108da60048036038101906108d59190614f01565b614189565b6040516108e79190614f65565b60405180910390f35b6108f8614229565b005b610914600480360381019061090f9190614f01565b614233565b60405161092999989796959493929190614e3c565b60405180910390f35b61094c60048036038101906109479190614f01565b6146d7565b6040516109599190614ae2565b60405180910390f35b6000601854905090565b606060005b600f805490508110156109f5576010600f8281548110610994576109936157f7565b5b9060005260206000209060090201600001908060018154018082558091505060019003906000526020600020016000909190919091509080546109d690615855565b6109e19291906147b7565b5080806109ed906158b5565b915050610971565b506010805480602002602001604051908101604052809291908181526020016000905b82821015610ac4578382906000526020600020018054610a3790615855565b80601f0160208091040260200160405190810160405280929190818152602001828054610a6390615855565b8015610ab05780601f10610a8557610100808354040283529160200191610ab0565b820191906000526020600020905b815481529060010190602001808311610a9357829003601f168201915b505050505081526020019060010190610a18565b50505050905090565b6000601e54905090565b606060168054610ae690615855565b80601f0160208091040260200160405190810160405280929190818152602001828054610b1290615855565b8015610b5f5780601f10610b3457610100808354040283529160200191610b5f565b820191906000526020600020905b815481529060010190602001808311610b4257829003601f168201915b5050505050905090565b60006040518061012001604052808a815260200189815260200188815260200187815260200186815260200185815260200184815260200160008152602001838152509050610bb784612219565b610e0c57600f8190806001815401808255809150506001900390600052602060002090600902016000909190919091506000820151816000019080519060200190610c03929190614844565b506020820151816001019080519060200190610c20929190614844565b506040820151816002019080519060200190610c3d929190614844565b506060820151816003019080519060200190610c5a929190614844565b506080820151816004019080519060200190610c77929190614844565b5060a0820151816005019080519060200190610c94929190614844565b5060c0820151816006019080519060200190610cb1929190614844565b5060e08201518160070155610100820151816008019080519060200190610cd9929190614844565b50505080601585604051610ced9190615939565b90815260200160405180910390206000820151816000019080519060200190610d17929190614844565b506020820151816001019080519060200190610d34929190614844565b506040820151816002019080519060200190610d51929190614844565b506060820151816003019080519060200190610d6e929190614844565b506080820151816004019080519060200190610d8b929190614844565b5060a0820151816005019080519060200190610da8929190614844565b5060c0820151816006019080519060200190610dc5929190614844565b5060e08201518160070155610100820151816008019080519060200190610ded929190614844565b50905050610dff89898989898961368d565b6001601981905550610e15565b60026019819055505b505050505050505050565b6040518060400160405280600681526020017f566f74696e67000000000000000000000000000000000000000000000000000081525060169080519060200190610e6b929190614844565b50565b600f8181548110610e7e57600080fd5b9060005260206000209060090201600091509050806000018054610ea190615855565b80601f0160208091040260200160405190810160405280929190818152602001828054610ecd90615855565b8015610f1a5780601f10610eef57610100808354040283529160200191610f1a565b820191906000526020600020905b815481529060010190602001808311610efd57829003601f168201915b505050505090806001018054610f2f90615855565b80601f0160208091040260200160405190810160405280929190818152602001828054610f5b90615855565b8015610fa85780601f10610f7d57610100808354040283529160200191610fa8565b820191906000526020600020905b815481529060010190602001808311610f8b57829003601f168201915b505050505090806002018054610fbd90615855565b80601f0160208091040260200160405190810160405280929190818152602001828054610fe990615855565b80156110365780601f1061100b57610100808354040283529160200191611036565b820191906000526020600020905b81548152906001019060200180831161101957829003601f168201915b50505050509080600301805461104b90615855565b80601f016020809104026020016040519081016040528092919081815260200182805461107790615855565b80156110c45780601f10611099576101008083540402835291602001916110c4565b820191906000526020600020905b8154815290600101906020018083116110a757829003601f168201915b5050505050908060040180546110d990615855565b80601f016020809104026020016040519081016040528092919081815260200182805461110590615855565b80156111525780601f1061112757610100808354040283529160200191611152565b820191906000526020600020905b81548152906001019060200180831161113557829003601f168201915b50505050509080600501805461116790615855565b80601f016020809104026020016040519081016040528092919081815260200182805461119390615855565b80156111e05780601f106111b5576101008083540402835291602001916111e0565b820191906000526020600020905b8154815290600101906020018083116111c357829003601f168201915b5050505050908060060180546111f590615855565b80601f016020809104026020016040519081016040528092919081815260200182805461122190615855565b801561126e5780601f106112435761010080835404028352916020019161126e565b820191906000526020600020905b81548152906001019060200180831161125157829003601f168201915b50505050509080600701549080600801805461128990615855565b80601f01602080910402602001604051908101604052809291908181526020018280546112b590615855565b80156113025780601f106112d757610100808354040283529160200191611302565b820191906000526020600020905b8154815290600101906020018083116112e557829003601f168201915b5050505050905089565b601381805160208101820180518482526020830160208501208183528095505050505050600091509050805461134190615855565b80601f016020809104026020016040519081016040528092919081815260200182805461136d90615855565b80156113ba5780601f1061138f576101008083540402835291602001916113ba565b820191906000526020600020905b81548152906001019060200180831161139d57829003601f168201915b505050505081565b60006014826040516113d49190615939565b908152602001604051809103902060060160009054906101000a900460ff169050919050565b60608060606114c86016805461140f90615855565b80601f016020809104026020016040519081016040528092919081815260200182805461143b90615855565b80156114885780601f1061145d57610100808354040283529160200191611488565b820191906000526020600020905b81548152906001019060200180831161146b57829003601f168201915b50505050506040518060400160405280600681526020017f526573756c740000000000000000000000000000000000000000000000000000815250613cd3565b156116085760005b600f8054905081101561160657601a600f82815481106114f3576114f26157f7565b5b90600052602060002090600902016000019080600181540180825580915050600190039060005260206000200160009091909190915090805461153590615855565b6115409291906147b7565b50601b600f8281548110611557576115566157f7565b5b9060005260206000209060090201600701549080600181540180825580915050600190039060005260206000200160009091909190915055601c600f82815481106115a5576115a46157f7565b5b9060005260206000209060090201600801908060018154018082558091505060019003906000526020600020016000909190919091509080546115e790615855565b6115f29291906147b7565b5080806115fe906158b5565b9150506114d0565b505b601a601b601c82805480602002602001604051908101604052809291908181526020016000905b828210156116db57838290600052602060002001805461164e90615855565b80601f016020809104026020016040519081016040528092919081815260200182805461167a90615855565b80156116c75780601f1061169c576101008083540402835291602001916116c7565b820191906000526020600020905b8154815290600101906020018083116116aa57829003601f168201915b50505050508152602001906001019061162f565b5050505092508180548060200260200160405190810160405280929190818152602001828054801561172c57602002820191906000526020600020905b815481526020019060010190808311611718575b5050505050915080805480602002602001604051908101604052809291908181526020016000905b8282101561180057838290600052602060002001805461177390615855565b80601f016020809104026020016040519081016040528092919081815260200182805461179f90615855565b80156117ec5780601f106117c1576101008083540402835291602001916117ec565b820191906000526020600020905b8154815290600101906020018083116117cf57829003601f168201915b505050505081526020019060010190611754565b505050509050925092509250909192565b6000601754905090565b60006118e3601483608001516040516118349190615939565b9081526020016040518091039020600001805461185090615855565b80601f016020809104026020016040519081016040528092919081815260200182805461187c90615855565b80156118c95780601f1061189e576101008083540402835291602001916118c9565b820191906000526020600020905b8154815290600101906020018083116118ac57829003601f168201915b505050505060405180602001604052806000815250613cd3565b6118f057600190506118f5565b600090505b919050565b60606000601e819055506014836040516119149190615939565b908152602001604051809103902060060160009054906101000a900460ff16611bfe57600f828154811061194b5761194a6157f7565b5b9060005260206000209060090201600701600081548092919061196d906158b5565b91905055506000600f8381548110611988576119876157f7565b5b906000526020600020906009020160050180546119a490615855565b80601f01602080910402602001604051908101604052809291908181526020018280546119d090615855565b8015611a1d5780601f106119f257610100808354040283529160200191611a1d565b820191906000526020600020905b815481529060010190602001808311611a0057829003601f168201915b50505050509050601581604051611a349190615939565b90815260200160405180910390206007016000815480929190611a56906158b5565b91905055506001601485604051611a6d9190615939565b908152602001604051809103902060060160006101000a81548160ff02191690831515021790555060005b600e80549050811015611bb757611b5c600e8281548110611abc57611abb6157f7565b5b90600052602060002090600702016004018054611ad890615855565b80601f0160208091040260200160405190810160405280929190818152602001828054611b0490615855565b8015611b515780601f10611b2657610100808354040283529160200191611b51565b820191906000526020600020905b815481529060010190602001808311611b3457829003601f168201915b505050505086613cd3565b15611ba4576001600e8281548110611b7757611b766157f7565b5b906000526020600020906007020160060160006101000a81548160ff021916908315150217905550611bb7565b8080611baf906158b5565b915050611a98565b506001601e819055506040518060400160405280601981526020017f566f746520636173746564207375636365737366756c6c792100000000000000815250915050611c3f565b6002601e819055506040518060400160405280601881526020017f566f7465722068617320616c726561647920766f74656421000000000000000081525090505b92915050565b60118181548110611c5557600080fd5b906000526020600020016000915090508054611c7090615855565b80601f0160208091040260200160405190810160405280929190818152602001828054611c9c90615855565b8015611ce95780601f10611cbe57610100808354040283529160200191611ce9565b820191906000526020600020905b815481529060010190602001808311611ccc57829003601f168201915b505050505081565b60108181548110611d0157600080fd5b906000526020600020016000915090508054611d1c90615855565b80601f0160208091040260200160405190810160405280929190818152602001828054611d4890615855565b8015611d955780601f10611d6a57610100808354040283529160200191611d95565b820191906000526020600020905b815481529060010190602001808311611d7857829003601f168201915b505050505081565b6003806000018054611dae90615855565b80601f0160208091040260200160405190810160405280929190818152602001828054611dda90615855565b8015611e275780601f10611dfc57610100808354040283529160200191611e27565b820191906000526020600020905b815481529060010190602001808311611e0a57829003601f168201915b505050505090806001018054611e3c90615855565b80601f0160208091040260200160405190810160405280929190818152602001828054611e6890615855565b8015611eb55780601f10611e8a57610100808354040283529160200191611eb5565b820191906000526020600020905b815481529060010190602001808311611e9857829003601f168201915b505050505090806002018054611eca90615855565b80601f0160208091040260200160405190810160405280929190818152602001828054611ef690615855565b8015611f435780601f10611f1857610100808354040283529160200191611f43565b820191906000526020600020905b815481529060010190602001808311611f2657829003601f168201915b505050505090806003018054611f5890615855565b80601f0160208091040260200160405190810160405280929190818152602001828054611f8490615855565b8015611fd15780601f10611fa657610100808354040283529160200191611fd1565b820191906000526020600020905b815481529060010190602001808311611fb457829003601f168201915b505050505090806004018054611fe690615855565b80601f016020809104026020016040519081016040528092919081815260200182805461201290615855565b801561205f5780601f106120345761010080835404028352916020019161205f565b820191906000526020600020905b81548152906001019060200180831161204257829003601f168201915b50505050509080600501805461207490615855565b80601f01602080910402602001604051908101604052809291908181526020018280546120a090615855565b80156120ed5780601f106120c2576101008083540402835291602001916120ed565b820191906000526020600020905b8154815290600101906020018083116120d057829003601f168201915b50505050509080600601805461210290615855565b80601f016020809104026020016040519081016040528092919081815260200182805461212e90615855565b801561217b5780601f106121505761010080835404028352916020019161217b565b820191906000526020600020905b81548152906001019060200180831161215e57829003601f168201915b50505050509080600701549080600801805461219690615855565b80601f01602080910402602001604051908101604052809291908181526020018280546121c290615855565b801561220f5780601f106121e45761010080835404028352916020019161220f565b820191906000526020600020905b8154815290600101906020018083116121f257829003601f168201915b5050505050905089565b60006122dd60158360405161222e9190615939565b9081526020016040518091039020600001805461224a90615855565b80601f016020809104026020016040519081016040528092919081815260200182805461227690615855565b80156122c35780601f10612298576101008083540402835291602001916122c3565b820191906000526020600020905b8154815290600101906020018083116122a657829003601f168201915b505050505060405180602001604052806000815250613cd3565b6122ea57600190506122ef565b600090505b919050565b6000600d80549050905090565b60006005905090565b600080600001805461231b90615855565b80601f016020809104026020016040519081016040528092919081815260200182805461234790615855565b80156123945780601f1061236957610100808354040283529160200191612394565b820191906000526020600020905b81548152906001019060200180831161237757829003601f168201915b5050505050908060010180546123a990615855565b80601f01602080910402602001604051908101604052809291908181526020018280546123d590615855565b80156124225780601f106123f757610100808354040283529160200191612422565b820191906000526020600020905b81548152906001019060200180831161240557829003601f168201915b50505050509080600201805461243790615855565b80601f016020809104026020016040519081016040528092919081815260200182805461246390615855565b80156124b05780601f10612485576101008083540402835291602001916124b0565b820191906000526020600020905b81548152906001019060200180831161249357829003601f168201915b5050505050905083565b601a81815481106124ca57600080fd5b9060005260206000200160009150905080546124e590615855565b80601f016020809104026020016040519081016040528092919081815260200182805461251190615855565b801561255e5780601f106125335761010080835404028352916020019161255e565b820191906000526020600020905b81548152906001019060200180831161254157829003601f168201915b505050505081565b6000600e80549050905090565b606061257d614229565b6126306014856040516125909190615939565b908152602001604051809103902060050180546125ac90615855565b80601f01602080910402602001604051908101604052809291908181526020018280546125d890615855565b80156126255780601f106125fa57610100808354040283529160200191612625565b820191906000526020600020905b81548152906001019060200180831161260857829003601f168201915b505050505084613cd3565b15612974576014846040516126459190615939565b908152602001604051809103902060060160009054906101000a900460ff1661292f57600f828154811061267c5761267b6157f7565b5b9060005260206000209060090201600701600081548092919061269e906158b5565b91905055506000600f83815481106126b9576126b86157f7565b5b906000526020600020906009020160050180546126d590615855565b80601f016020809104026020016040519081016040528092919081815260200182805461270190615855565b801561274e5780601f106127235761010080835404028352916020019161274e565b820191906000526020600020905b81548152906001019060200180831161273157829003601f168201915b505050505090506015816040516127659190615939565b90815260200160405180910390206007016000815480929190612787906158b5565b9190505550600160148660405161279e9190615939565b908152602001604051809103902060060160006101000a81548160ff02191690831515021790555060005b600e805490508110156128e85761288d600e82815481106127ed576127ec6157f7565b5b9060005260206000209060070201600401805461280990615855565b80601f016020809104026020016040519081016040528092919081815260200182805461283590615855565b80156128825780601f1061285757610100808354040283529160200191612882565b820191906000526020600020905b81548152906001019060200180831161286557829003601f168201915b505050505087613cd3565b156128d5576001600e82815481106128a8576128a76157f7565b5b906000526020600020906007020160060160006101000a81548160ff0219169083151502179055506128e8565b80806128e0906158b5565b9150506127c9565b506001601d819055506040518060400160405280601981526020017f566f746520636173746564207375636365737366756c6c792100000000000000815250915050612990565b6002601d819055506040518060400160405280601881526020017f566f7465722068617320616c726561647920766f7465642100000000000000008152509050612990565b6040518060800160405280604f8152602001615951604f913990505b9392505050565b6000612a6360146129a7846146d7565b6040516129b49190615939565b908152602001604051809103902060000180546129d090615855565b80601f01602080910402602001604051908101604052809291908181526020018280546129fc90615855565b8015612a495780601f10612a1e57610100808354040283529160200191612a49565b820191906000526020600020905b815481529060010190602001808311612a2c57829003601f168201915b505050505060405180602001604052806000815250613cd3565b612a705760019050612a75565b600090505b919050565b612a826147a3565b612b198460006002018054612a9690615855565b80601f0160208091040260200160405190810160405280929190818152602001828054612ac290615855565b8015612b0f5780601f10612ae457610100808354040283529160200191612b0f565b820191906000526020600020905b815481529060010190602001808311612af257829003601f168201915b5050505050613cd3565b15612d0e57612bd1601282604051612b319190615939565b90815260200160405180910390206002018054612b4d90615855565b80601f0160208091040260200160405190810160405280929190818152602001828054612b7990615855565b8015612bc65780601f10612b9b57610100808354040283529160200191612bc6565b820191906000526020600020905b815481529060010190602001808311612ba957829003601f168201915b505050505082613cd3565b612d005760006040518060600160405280858152602001848152602001838152509050600d8190806001815401808255809150506001900390600052602060002090600302016000909190919091506000820151816000019080519060200190612c3c929190614844565b506020820151816001019080519060200190612c59929190614844565b506040820151816002019080519060200190612c76929190614844565b50505080601283604051612c8a9190615939565b90815260200160405180910390206000820151816000019080519060200190612cb4929190614844565b506020820151816001019080519060200190612cd1929190614844565b506040820151816002019080519060200190612cee929190614844565b50905050600160178190555050612d09565b60026017819055505b612d17565b60036017819055505b50505050565b600e8181548110612d2d57600080fd5b9060005260206000209060070201600091509050806000018054612d5090615855565b80601f0160208091040260200160405190810160405280929190818152602001828054612d7c90615855565b8015612dc95780601f10612d9e57610100808354040283529160200191612dc9565b820191906000526020600020905b815481529060010190602001808311612dac57829003601f168201915b505050505090806001018054612dde90615855565b80601f0160208091040260200160405190810160405280929190818152602001828054612e0a90615855565b8015612e575780601f10612e2c57610100808354040283529160200191612e57565b820191906000526020600020905b815481529060010190602001808311612e3a57829003601f168201915b505050505090806002018054612e6c90615855565b80601f0160208091040260200160405190810160405280929190818152602001828054612e9890615855565b8015612ee55780601f10612eba57610100808354040283529160200191612ee5565b820191906000526020600020905b815481529060010190602001808311612ec857829003601f168201915b505050505090806003018054612efa90615855565b80601f0160208091040260200160405190810160405280929190818152602001828054612f2690615855565b8015612f735780601f10612f4857610100808354040283529160200191612f73565b820191906000526020600020905b815481529060010190602001808311612f5657829003601f168201915b505050505090806004018054612f8890615855565b80601f0160208091040260200160405190810160405280929190818152602001828054612fb490615855565b80156130015780601f10612fd657610100808354040283529160200191613001565b820191906000526020600020905b815481529060010190602001808311612fe457829003601f168201915b50505050509080600501805461301690615855565b80601f016020809104026020016040519081016040528092919081815260200182805461304290615855565b801561308f5780601f106130645761010080835404028352916020019161308f565b820191906000526020600020905b81548152906001019060200180831161307257829003601f168201915b5050505050908060060160009054906101000a900460ff16905087565b601c81815481106130bc57600080fd5b9060005260206000200160009150905080546130d790615855565b80601f016020809104026020016040519081016040528092919081815260200182805461310390615855565b80156131505780601f1061312557610100808354040283529160200191613150565b820191906000526020600020905b81548152906001019060200180831161313357829003601f168201915b505050505081565b600d818154811061316857600080fd5b906000526020600020906003020160009150905080600001805461318b90615855565b80601f01602080910402602001604051908101604052809291908181526020018280546131b790615855565b80156132045780601f106131d957610100808354040283529160200191613204565b820191906000526020600020905b8154815290600101906020018083116131e757829003601f168201915b50505050509080600101805461321990615855565b80601f016020809104026020016040519081016040528092919081815260200182805461324590615855565b80156132925780601f1061326757610100808354040283529160200191613292565b820191906000526020600020905b81548152906001019060200180831161327557829003601f168201915b5050505050908060020180546132a790615855565b80601f01602080910402602001604051908101604052809291908181526020018280546132d390615855565b80156133205780601f106132f557610100808354040283529160200191613320565b820191906000526020600020905b81548152906001019060200180831161330357829003601f168201915b5050505050905083565b60128180516020810182018051848252602083016020850120818352809550505050505060009150905080600001805461336390615855565b80601f016020809104026020016040519081016040528092919081815260200182805461338f90615855565b80156133dc5780601f106133b1576101008083540402835291602001916133dc565b820191906000526020600020905b8154815290600101906020018083116133bf57829003601f168201915b5050505050908060010180546133f190615855565b80601f016020809104026020016040519081016040528092919081815260200182805461341d90615855565b801561346a5780601f1061343f5761010080835404028352916020019161346a565b820191906000526020600020905b81548152906001019060200180831161344d57829003601f168201915b50505050509080600201805461347f90615855565b80601f01602080910402602001604051908101604052809291908181526020018280546134ab90615855565b80156134f85780601f106134cd576101008083540402835291602001916134f8565b820191906000526020600020905b8154815290600101906020018083116134db57829003601f168201915b5050505050905083565b60606013826040516135149190615939565b9081526020016040518091039020805461352d90615855565b80601f016020809104026020016040519081016040528092919081815260200182805461355990615855565b80156135a65780601f1061357b576101008083540402835291602001916135a6565b820191906000526020600020905b81548152906001019060200180831161358957829003601f168201915b50505050509050919050565b60006136766012836040516135c79190615939565b908152602001604051809103902060000180546135e390615855565b80601f016020809104026020016040519081016040528092919081815260200182805461360f90615855565b801561365c5780601f106136315761010080835404028352916020019161365c565b820191906000526020600020905b81548152906001019060200180831161363f57829003601f168201915b505050505060405180602001604052806000815250613cd3565b6136835760019050613688565b600090505b919050565b6136956147ad565b60006040518060e001604052808881526020018781526020018681526020018581526020018481526020018381526020016000151581525090506136d88161181b565b61390857600e8190806001815401808255809150506001900390600052602060002090600702016000909190919091506000820151816000019080519060200190613724929190614844565b506020820151816001019080519060200190613741929190614844565b50604082015181600201908051906020019061375e929190614844565b50606082015181600301908051906020019061377b929190614844565b506080820151816004019080519060200190613798929190614844565b5060a08201518160050190805190602001906137b5929190614844565b5060c08201518160060160006101000a81548160ff0219169083151502179055505050806014846040516137e99190615939565b90815260200160405180910390206000820151816000019080519060200190613813929190614844565b506020820151816001019080519060200190613830929190614844565b50604082015181600201908051906020019061384d929190614844565b50606082015181600301908051906020019061386a929190614844565b506080820151816004019080519060200190613887929190614844565b5060a08201518160050190805190602001906138a4929190614844565b5060c08201518160060160006101000a81548160ff021916908315150217905550905050826013836040516138d99190615939565b908152602001604051809103902090805190602001906138fa929190614844565b506001601881905550613911565b60026018819055505b50505050505050565b80600c9080519060200190613930929190614844565b5050565b6000601d54905090565b60148180516020810182018051848252602083016020850120818352809550505050505060009150905080600001805461397790615855565b80601f01602080910402602001604051908101604052809291908181526020018280546139a390615855565b80156139f05780601f106139c5576101008083540402835291602001916139f0565b820191906000526020600020905b8154815290600101906020018083116139d357829003601f168201915b505050505090806001018054613a0590615855565b80601f0160208091040260200160405190810160405280929190818152602001828054613a3190615855565b8015613a7e5780601f10613a5357610100808354040283529160200191613a7e565b820191906000526020600020905b815481529060010190602001808311613a6157829003601f168201915b505050505090806002018054613a9390615855565b80601f0160208091040260200160405190810160405280929190818152602001828054613abf90615855565b8015613b0c5780601f10613ae157610100808354040283529160200191613b0c565b820191906000526020600020905b815481529060010190602001808311613aef57829003601f168201915b505050505090806003018054613b2190615855565b80601f0160208091040260200160405190810160405280929190818152602001828054613b4d90615855565b8015613b9a5780601f10613b6f57610100808354040283529160200191613b9a565b820191906000526020600020905b815481529060010190602001808311613b7d57829003601f168201915b505050505090806004018054613baf90615855565b80601f0160208091040260200160405190810160405280929190818152602001828054613bdb90615855565b8015613c285780601f10613bfd57610100808354040283529160200191613c28565b820191906000526020600020905b815481529060010190602001808311613c0b57829003601f168201915b505050505090806005018054613c3d90615855565b80601f0160208091040260200160405190810160405280929190818152602001828054613c6990615855565b8015613cb65780601f10613c8b57610100808354040283529160200191613cb6565b820191906000526020600020905b815481529060010190602001808311613c9957829003601f168201915b5050505050908060060160009054906101000a900460ff16905087565b60008180519060200120838051906020012014905092915050565b601b8181548110613cfe57600080fd5b906000526020600020016000915090505481565b6040518060400160405280600681526020017f526573756c74000000000000000000000000000000000000000000000000000081525060169080519060200190613d5d929190614844565b50565b6060601482604051613d729190615939565b90815260200160405180910390206001018054613d8e90615855565b80601f0160208091040260200160405190810160405280929190818152602001828054613dba90615855565b8015613e075780601f10613ddc57610100808354040283529160200191613e07565b820191906000526020600020905b815481529060010190602001808311613dea57829003601f168201915b50505050509050919050565b606060005b600f80549050811015613e9c576011600f8281548110613e3b57613e3a6157f7565b5b906000526020600020906009020160080190806001815401808255809150506001900390600052602060002001600090919091909150908054613e7d90615855565b613e889291906147b7565b508080613e94906158b5565b915050613e18565b506011805480602002602001604051908101604052809291908181526020016000905b82821015613f6b578382906000526020600020018054613ede90615855565b80601f0160208091040260200160405190810160405280929190818152602001828054613f0a90615855565b8015613f575780601f10613f2c57610100808354040283529160200191613f57565b820191906000526020600020905b815481529060010190602001808311613f3a57829003601f168201915b505050505081526020019060010190613ebf565b50505050905090565b6060600d805480602002602001604051908101604052809291908181526020016000905b828210156141805783829060005260206000209060030201604051806060016040529081600082018054613fcb90615855565b80601f0160208091040260200160405190810160405280929190818152602001828054613ff790615855565b80156140445780601f1061401957610100808354040283529160200191614044565b820191906000526020600020905b81548152906001019060200180831161402757829003601f168201915b5050505050815260200160018201805461405d90615855565b80601f016020809104026020016040519081016040528092919081815260200182805461408990615855565b80156140d65780601f106140ab576101008083540402835291602001916140d6565b820191906000526020600020905b8154815290600101906020018083116140b957829003601f168201915b505050505081526020016002820180546140ef90615855565b80601f016020809104026020016040519081016040528092919081815260200182805461411b90615855565b80156141685780601f1061413d57610100808354040283529160200191614168565b820191906000526020600020905b81548152906001019060200180831161414b57829003601f168201915b50505050508152505081526020019060010190613f98565b50505050905090565b6000614222826000600201805461419f90615855565b80601f01602080910402602001604051908101604052809291908181526020018280546141cb90615855565b80156142185780601f106141ed57610100808354040283529160200191614218565b820191906000526020600020905b8154815290600101906020018083116141fb57829003601f168201915b5050505050613cd3565b9050919050565b6000601d81905550565b60158180516020810182018051848252602083016020850120818352809550505050505060009150905080600001805461426c90615855565b80601f016020809104026020016040519081016040528092919081815260200182805461429890615855565b80156142e55780601f106142ba576101008083540402835291602001916142e5565b820191906000526020600020905b8154815290600101906020018083116142c857829003601f168201915b5050505050908060010180546142fa90615855565b80601f016020809104026020016040519081016040528092919081815260200182805461432690615855565b80156143735780601f1061434857610100808354040283529160200191614373565b820191906000526020600020905b81548152906001019060200180831161435657829003601f168201915b50505050509080600201805461438890615855565b80601f01602080910402602001604051908101604052809291908181526020018280546143b490615855565b80156144015780601f106143d657610100808354040283529160200191614401565b820191906000526020600020905b8154815290600101906020018083116143e457829003601f168201915b50505050509080600301805461441690615855565b80601f016020809104026020016040519081016040528092919081815260200182805461444290615855565b801561448f5780601f106144645761010080835404028352916020019161448f565b820191906000526020600020905b81548152906001019060200180831161447257829003601f168201915b5050505050908060040180546144a490615855565b80601f01602080910402602001604051908101604052809291908181526020018280546144d090615855565b801561451d5780601f106144f25761010080835404028352916020019161451d565b820191906000526020600020905b81548152906001019060200180831161450057829003601f168201915b50505050509080600501805461453290615855565b80601f016020809104026020016040519081016040528092919081815260200182805461455e90615855565b80156145ab5780601f10614580576101008083540402835291602001916145ab565b820191906000526020600020905b81548152906001019060200180831161458e57829003601f168201915b5050505050908060060180546145c090615855565b80601f01602080910402602001604051908101604052809291908181526020018280546145ec90615855565b80156146395780601f1061460e57610100808354040283529160200191614639565b820191906000526020600020905b81548152906001019060200180831161461c57829003601f168201915b50505050509080600701549080600801805461465490615855565b80601f016020809104026020016040519081016040528092919081815260200182805461468090615855565b80156146cd5780601f106146a2576101008083540402835291602001916146cd565b820191906000526020600020905b8154815290600101906020018083116146b057829003601f168201915b5050505050905089565b60606013826040516146e99190615939565b9081526020016040518091039020600c90805461470590615855565b6147109291906147b7565b50600c805461471e90615855565b80601f016020809104026020016040519081016040528092919081815260200182805461474a90615855565b80156147975780601f1061476c57610100808354040283529160200191614797565b820191906000526020600020905b81548152906001019060200180831161477a57829003601f168201915b50505050509050919050565b6000601781905550565b6000601881905550565b8280546147c390615855565b90600052602060002090601f0160209004810192826147e55760008555614833565b82601f106147f65780548555614833565b8280016001018555821561483357600052602060002091601f016020900482015b82811115614832578254825591600101919060010190614817565b5b50905061484091906148ca565b5090565b82805461485090615855565b90600052602060002090601f01602090048101928261487257600085556148b9565b82601f1061488b57805160ff19168380011785556148b9565b828001600101855582156148b9579182015b828111156148b857825182559160200191906001019061489d565b5b5090506148c691906148ca565b5090565b5b808211156148e35760008160009055506001016148cb565b5090565b6000819050919050565b6148fa816148e7565b82525050565b600060208201905061491560008301846148f1565b92915050565b600081519050919050565b600082825260208201905092915050565b6000819050602082019050919050565b600081519050919050565b600082825260208201905092915050565b60005b83811015614981578082015181840152602081019050614966565b83811115614990576000848401525b50505050565b6000601f19601f8301169050919050565b60006149b282614947565b6149bc8185614952565b93506149cc818560208601614963565b6149d581614996565b840191505092915050565b60006149ec83836149a7565b905092915050565b6000602082019050919050565b6000614a0c8261491b565b614a168185614926565b935083602082028501614a2885614937565b8060005b85811015614a645784840389528151614a4585826149e0565b9450614a50836149f4565b925060208a01995050600181019050614a2c565b50829750879550505050505092915050565b60006020820190508181036000830152614a908184614a01565b905092915050565b600082825260208201905092915050565b6000614ab482614947565b614abe8185614a98565b9350614ace818560208601614963565b614ad781614996565b840191505092915050565b60006020820190508181036000830152614afc8184614aa9565b905092915050565b6000604051905090565b600080fd5b600080fd5b600080fd5b600080fd5b7f4e487b7100000000000000000000000000000000000000000000000000000000600052604160045260246000fd5b614b5a82614996565b810181811067ffffffffffffffff82111715614b7957614b78614b22565b5b80604052505050565b6000614b8c614b04565b9050614b988282614b51565b919050565b600067ffffffffffffffff821115614bb857614bb7614b22565b5b614bc182614996565b9050602081019050919050565b82818337600083830152505050565b6000614bf0614beb84614b9d565b614b82565b905082815260208101848484011115614c0c57614c0b614b1d565b5b614c17848285614bce565b509392505050565b600082601f830112614c3457614c33614b18565b5b8135614c44848260208601614bdd565b91505092915050565b600080600080600080600080610100898b031215614c6e57614c6d614b0e565b5b600089013567ffffffffffffffff811115614c8c57614c8b614b13565b5b614c988b828c01614c1f565b985050602089013567ffffffffffffffff811115614cb957614cb8614b13565b5b614cc58b828c01614c1f565b975050604089013567ffffffffffffffff811115614ce657614ce5614b13565b5b614cf28b828c01614c1f565b965050606089013567ffffffffffffffff811115614d1357614d12614b13565b5b614d1f8b828c01614c1f565b955050608089013567ffffffffffffffff811115614d4057614d3f614b13565b5b614d4c8b828c01614c1f565b94505060a089013567ffffffffffffffff811115614d6d57614d6c614b13565b5b614d798b828c01614c1f565b93505060c089013567ffffffffffffffff811115614d9a57614d99614b13565b5b614da68b828c01614c1f565b92505060e089013567ffffffffffffffff811115614dc757614dc6614b13565b5b614dd38b828c01614c1f565b9150509295985092959890939650565b614dec816148e7565b8114614df757600080fd5b50565b600081359050614e0981614de3565b92915050565b600060208284031215614e2557614e24614b0e565b5b6000614e3384828501614dfa565b91505092915050565b6000610120820190508181036000830152614e57818c614aa9565b90508181036020830152614e6b818b614aa9565b90508181036040830152614e7f818a614aa9565b90508181036060830152614e938189614aa9565b90508181036080830152614ea78188614aa9565b905081810360a0830152614ebb8187614aa9565b905081810360c0830152614ecf8186614aa9565b9050614ede60e08301856148f1565b818103610100830152614ef18184614aa9565b90509a9950505050505050505050565b600060208284031215614f1757614f16614b0e565b5b600082013567ffffffffffffffff811115614f3557614f34614b13565b5b614f4184828501614c1f565b91505092915050565b60008115159050919050565b614f5f81614f4a565b82525050565b6000602082019050614f7a6000830184614f56565b92915050565b600081519050919050565b600082825260208201905092915050565b6000819050602082019050919050565b614fb5816148e7565b82525050565b6000614fc78383614fac565b60208301905092915050565b6000602082019050919050565b6000614feb82614f80565b614ff58185614f8b565b935061500083614f9c565b8060005b838110156150315781516150188882614fbb565b975061502383614fd3565b925050600181019050615004565b5085935050505092915050565b600060608201905081810360008301526150588186614a01565b9050818103602083015261506c8185614fe0565b905081810360408301526150808184614a01565b9050949350505050565b600080fd5b600080fd5b61509d81614f4a565b81146150a857600080fd5b50565b6000813590506150ba81615094565b92915050565b600060e082840312156150d6576150d561508a565b5b6150e060e0614b82565b9050600082013567ffffffffffffffff811115615100576150ff61508f565b5b61510c84828501614c1f565b600083015250602082013567ffffffffffffffff8111156151305761512f61508f565b5b61513c84828501614c1f565b602083015250604082013567ffffffffffffffff8111156151605761515f61508f565b5b61516c84828501614c1f565b604083015250606082013567ffffffffffffffff8111156151905761518f61508f565b5b61519c84828501614c1f565b606083015250608082013567ffffffffffffffff8111156151c0576151bf61508f565b5b6151cc84828501614c1f565b60808301525060a082013567ffffffffffffffff8111156151f0576151ef61508f565b5b6151fc84828501614c1f565b60a08301525060c0615210848285016150ab565b60c08301525092915050565b60006020828403121561523257615231614b0e565b5b600082013567ffffffffffffffff8111156152505761524f614b13565b5b61525c848285016150c0565b91505092915050565b6000806040838503121561527c5761527b614b0e565b5b600083013567ffffffffffffffff81111561529a57615299614b13565b5b6152a685828601614c1f565b92505060206152b785828601614dfa565b9150509250929050565b600060608201905081810360008301526152db8186614aa9565b905081810360208301526152ef8185614aa9565b905081810360408301526153038184614aa9565b9050949350505050565b60008060006060848603121561532657615325614b0e565b5b600084013567ffffffffffffffff81111561534457615343614b13565b5b61535086828701614c1f565b935050602084013567ffffffffffffffff81111561537157615370614b13565b5b61537d86828701614c1f565b925050604061538e86828701614dfa565b9150509250925092565b600080600080608085870312156153b2576153b1614b0e565b5b600085013567ffffffffffffffff8111156153d0576153cf614b13565b5b6153dc87828801614c1f565b945050602085013567ffffffffffffffff8111156153fd576153fc614b13565b5b61540987828801614c1f565b935050604085013567ffffffffffffffff81111561542a57615429614b13565b5b61543687828801614c1f565b925050606085013567ffffffffffffffff81111561545757615456614b13565b5b61546387828801614c1f565b91505092959194509250565b600060e0820190508181036000830152615489818a614aa9565b9050818103602083015261549d8189614aa9565b905081810360408301526154b18188614aa9565b905081810360608301526154c58187614aa9565b905081810360808301526154d98186614aa9565b905081810360a08301526154ed8185614aa9565b90506154fc60c0830184614f56565b98975050505050505050565b60008060008060008060c0878903121561552557615524614b0e565b5b600087013567ffffffffffffffff81111561554357615542614b13565b5b61554f89828a01614c1f565b965050602087013567ffffffffffffffff8111156155705761556f614b13565b5b61557c89828a01614c1f565b955050604087013567ffffffffffffffff81111561559d5761559c614b13565b5b6155a989828a01614c1f565b945050606087013567ffffffffffffffff8111156155ca576155c9614b13565b5b6155d689828a01614c1f565b935050608087013567ffffffffffffffff8111156155f7576155f6614b13565b5b61560389828a01614c1f565b92505060a087013567ffffffffffffffff81111561562457615623614b13565b5b61563089828a01614c1f565b9150509295509295509295565b6000806040838503121561565457615653614b0e565b5b600083013567ffffffffffffffff81111561567257615671614b13565b5b61567e85828601614c1f565b925050602083013567ffffffffffffffff81111561569f5761569e614b13565b5b6156ab85828601614c1f565b9150509250929050565b600081519050919050565b600082825260208201905092915050565b6000819050602082019050919050565b600060608301600083015184820360008601526156fe82826149a7565b9150506020830151848203602086015261571882826149a7565b9150506040830151848203604086015261573282826149a7565b9150508091505092915050565b600061574b83836156e1565b905092915050565b6000602082019050919050565b600061576b826156b5565b61577581856156c0565b935083602082028501615787856156d1565b8060005b858110156157c357848403895281516157a4858261573f565b94506157af83615753565b925060208a0199505060018101905061578b565b50829750879550505050505092915050565b600060208201905081810360008301526157ef8184615760565b905092915050565b7f4e487b7100000000000000000000000000000000000000000000000000000000600052603260045260246000fd5b7f4e487b7100000000000000000000000000000000000000000000000000000000600052602260045260246000fd5b6000600282049050600182168061586d57607f821691505b6020821081036158805761587f615826565b5b50919050565b7f4e487b7100000000000000000000000000000000000000000000000000000000600052601160045260246000fd5b60006158c0826148e7565b91507fffffffffffffffffffffffffffffffffffffffffffffffffffffffffffffffff82036158f2576158f1615886565b5b600182019050919050565b600081905092915050565b600061591382614947565b61591d81856158fd565b935061592d818560208601614963565b80840191505092915050565b60006159458284615908565b91508190509291505056fe436f756c64206e6f742063617374206120766f74652c20566f746572206e6f742072656769737465726564212028747279206368616e67696e67206163636f756e74206f6e206d6574616d61736b29a26469706673582212200c1e4299e12f779858badc34a6a89ad17c334b672d3d4dd915c7f87ea0aedef564736f6c634300080d003330784236363346646533356335393645353937413536363064653637323862346243333032636236373768747470733a2f2f7777772e6f6e65696e6469612e636f6d2f696d672f323031362f30332f6e6f74612d30342d313435373038363136322e6a7067",
  "immutableReferences": {},
  "source": "// SPDX-License-Identifier: MIT\r\npragma solidity ^0.8.10;\r\n\r\nstruct Admin{\r\n    string name;\r\n    string mobileNo;\r\n    string walletKey;\r\n}\r\n\r\nstruct Voter {\r\n    string name;\r\n    string mobileNo;\r\n    string homeAddress;\r\n    string aadharCardNo;\r\n    string voterId;\r\n    string walletKey;\r\n    bool isVoted;\r\n}\r\n\r\nstruct Candidate {\r\n    string name;\r\n    string mobileNo;\r\n    string homeAddress;\r\n    string aadharCardNo;\r\n    string voterId;\r\n    string walletKey;\r\n    string politicalParty;\r\n    uint256 votes;\r\n    string symbolUrl;\r\n}\r\n\r\ncontract BlockVote{\r\n    /* Global Variables START. */\r\n    Admin public ECI = Admin({name:\"ECI_Official\", mobileNo:\"1234567890\", walletKey:\"0xB663Fde35c596E597A5660de6728b4bC302cb677\"});\r\n    Candidate public NOTA = Candidate({name:\"NOTA\", mobileNo:\"\", homeAddress:\"\", aadharCardNo:\"\", voterId:\"NOTA\", walletKey:\"NOTA\", politicalParty:\"NOTA\", votes:0, symbolUrl:\"https://www.oneindia.com/img/2016/03/nota-04-1457086162.jpg\"});\r\n    string voterId_main=\"\";\r\n    Admin[] public Admins;\r\n    Voter[] public Voters;\r\n    Candidate[] public Candidates;\r\n    string[] public candidate_names;\r\n    string[] public candidate_urls;\r\n    mapping (string=>Admin) public mapWalletKey2Admin;\r\n    // walletKey : voterId\r\n    mapping(string=>string) public map_walletKey_voterid;\r\n    // voterid : Voter;\r\n    mapping(string=>Voter) public map_voterid_details;\r\n    // wallet address : Candidate\r\n    mapping(string=>Candidate) public candidatesMap;\r\n    string votingPhase = \"preVoting\"; // Voting, Result\r\n    /* Global Variables END. */\r\n\r\n    /* ECI Functions START. */\r\n    uint addAdminState;     // 0 -> Not added, 1 -> Added succesfully, 2 -> Admin already exist, 3 -> Invalid ECI.\r\n    \r\n    function startVoting() public {\r\n        votingPhase = \"Voting\";\r\n    }\r\n\r\n    function endVoting() public {\r\n        votingPhase = \"Result\";\r\n    }\r\n    \r\n    function getElectionStatus() public view returns(string memory) {\r\n        return votingPhase;\r\n    }\r\n\r\n    // Set addAdminState = 0.\r\n    function resetAddAdminState() private{\r\n        addAdminState = 0;\r\n    }\r\n\r\n    // Returns state of the last addAdmin call.\r\n    function getAddAdminState() public view returns(uint){\r\n        return addAdminState;\r\n    }\r\n\r\n    function authenticateECI(string memory _walletKey) public view returns(bool) {\r\n        return areStringsEqual(_walletKey, ECI.walletKey);\r\n    }\r\n\r\n    // Add an admin to the blockchain.\r\n    function addAdmin(string memory ECI_Key,string memory adName, string memory adMoNo, string memory adEthKey) public{\r\n        resetAddAdminState();\r\n        if(areStringsEqual(ECI_Key, ECI.walletKey)){\r\n            if(!areStringsEqual(mapWalletKey2Admin[adEthKey].walletKey, adEthKey)) {\r\n                Admin memory newAdmin = Admin({\r\n                    name:adName, \r\n                    mobileNo:adMoNo,\r\n                    walletKey:adEthKey\r\n                });\r\n                Admins.push(newAdmin);\r\n                mapWalletKey2Admin[adEthKey] = newAdmin;\r\n                addAdminState = 1;\r\n            }\r\n            else\r\n                addAdminState = 2;\r\n        }\r\n        else\r\n            addAdminState = 3;   \r\n    }\r\n\r\n    // Returns total number of admins in the blockchain.\r\n    function adminLength() public view returns(uint){\r\n        return Admins.length;\r\n    }\r\n\r\n    // Returns all admins in the blockchain.\r\n    function getAllAdmins() public view returns(Admin[] memory){\r\n        return Admins;\r\n    }\r\n\r\n    function authenticateAdmin(string memory _walletKey) public view returns(bool) {\r\n        if(!areStringsEqual(mapWalletKey2Admin[_walletKey].name,\"\")) return true;\r\n        else return false;\r\n    }\r\n\r\n    /* ECI Functions END. */\r\n\r\n    /* Admin Functions START. */\r\n    /* Admin Functions END. */\r\n\r\n    /* Voter Functions START. */\r\n    uint addVoterState;     // 0: not added, 1: added successfully, 2: already exists\r\n    function resetAddVoterState() private {\r\n        addVoterState = 0;\r\n    }\r\n    function getAddVoterState() public view returns(uint) {\r\n        return addVoterState;\r\n    }\r\n    function addVoter(string memory _name, string memory _mobileNo, string memory _homeAddress,\r\n     string memory _aadharCardNo, string memory _voterId, string memory _walletKey) public {\r\n        resetAddVoterState();\r\n         \r\n        Voter memory newVoter = Voter({\r\n                    name:_name, \r\n                    mobileNo:_mobileNo,\r\n                    homeAddress:_homeAddress,\r\n                    aadharCardNo:_aadharCardNo,\r\n                    voterId:_voterId,\r\n                    walletKey:_walletKey,\r\n                    isVoted:false\r\n        });\r\n        \r\n        if(!isVoterRegistered(newVoter)) {\r\n            Voters.push(newVoter);\r\n            map_voterid_details[_voterId] = newVoter;\r\n            map_walletKey_voterid[_walletKey] = _voterId;\r\n            addVoterState = 1;\r\n        }\r\n        else {\r\n            addVoterState = 2;\r\n        }\r\n        \r\n    }\r\n    function getAllVoters(string memory _walletKey) public view returns(string memory) {\r\n        return map_walletKey_voterid[_walletKey];\r\n    }\r\n    function hasVoted(string memory _voterid) public view returns(bool){\r\n        return map_voterid_details[_voterid].isVoted;\r\n    }\r\n\r\n    function isVoterRegistered(Voter memory item) public view returns(bool) {\r\n        if(!areStringsEqual(map_voterid_details[item.voterId].name,\"\")) return true;\r\n        else return false;\r\n    }\r\n\r\n    function authenticateVoter(string memory _walletKey) public returns(bool) {\r\n        if(!areStringsEqual(map_voterid_details[getVoterId(_walletKey)].name,\"\")) return true;\r\n        else return false;\r\n    }\r\n\r\n    function getVoterId(string memory _walletKey) public returns(string memory) {\r\n        voterId_main = map_walletKey_voterid[_walletKey];\r\n        return voterId_main;\r\n    }\r\n\r\n    function setVoterId(string memory _voterid) public {\r\n        voterId_main = _voterid;\r\n    }\r\n\r\n    function voterLength() public view returns(uint) {\r\n        return Voters.length;\r\n    }\r\n\r\n    function getVoterMobileNumber(string memory _voterid) public view returns(string memory) {\r\n        return map_voterid_details[_voterid].mobileNo;\r\n    }\r\n\r\n    /* Voter Functions END. */\r\n    \r\n    /* Candidate Functions START. */\r\n    uint addCandidateState; // 0: not added, 1: successfully added, 2: already exists\r\n    function addCandidate(string memory _name, string memory _mobileNo, string memory _homeAddress,\r\n     string memory _aadharCardNo, string memory _voterId, string memory _walletKey, string memory _politicalParty, string memory _symbolUrl) public {\r\n        \r\n        Candidate memory newCandidate = Candidate({\r\n                    name:_name, \r\n                    mobileNo:_mobileNo,\r\n                    homeAddress:_homeAddress,\r\n                    aadharCardNo:_aadharCardNo,\r\n                    voterId:_voterId,\r\n                    walletKey:_walletKey,\r\n                    politicalParty:_politicalParty,\r\n                    votes: 0,\r\n                    symbolUrl: _symbolUrl\r\n        });\r\n        if(!isCandidateRegistered(_walletKey)) {\r\n            Candidates.push(newCandidate);\r\n            candidatesMap[_walletKey] = newCandidate;\r\n            addVoter( _name, _mobileNo,  _homeAddress,\r\n                _aadharCardNo, _voterId,  _walletKey);\r\n            addCandidateState = 1;\r\n        }\r\n        else {\r\n            addCandidateState = 2;\r\n        }   \r\n    }\r\n\r\n    function isCandidateRegistered(string memory _walletKey) public view returns(bool){\r\n        if(!areStringsEqual(candidatesMap[_walletKey].name,\"\"))return true;\r\n        else return false;\r\n    }\r\n\r\n    function getCandidates() public returns(string[] memory) {\r\n        for(uint256 i=0;i<Candidates.length;i++) {\r\n        candidate_names.push(Candidates[i].name);\r\n        }\r\n        return candidate_names;\r\n    }\r\n\r\n    function getUrls() public returns(string[] memory) {\r\n        for(uint256 i=0;i<Candidates.length;i++) {\r\n            candidate_urls.push(Candidates[i].symbolUrl);\r\n        }\r\n        return candidate_urls;\r\n    }\r\n    \r\n    \r\n\r\n    /* Candidate Functions END. */\r\n\r\n    /* Results Functions START */\r\n    /* returns (candidates, votes, symbolUrls), receives object with 3 keys (0 : candidates array, 1 : votes array, 2: symbolUrls array) */\r\n    \r\n    string[] public _candidates;\r\n    uint256[] public _votes;\r\n    string[] public _symbolUrls;\r\n    function getResults() public returns(string[] memory, uint256[] memory, string[] memory) {\r\n        if(areStringsEqual(votingPhase, \"Result\")){\r\n            for(uint256 i=0;i<Candidates.length;i++) {\r\n                _candidates.push(Candidates[i].name);\r\n                _votes.push(Candidates[i].votes);\r\n                _symbolUrls.push(Candidates[i].symbolUrl);\r\n            }    \r\n        }\r\n        return (_candidates, _votes, _symbolUrls);\r\n    }\r\n    /* Results Functions END */\r\n\r\n    /* Voting Functions START */ \r\n    uint voteState = 0; //0:not voted, 1: successfully voted, 2:already voted\r\n    function setVoteState() public {\r\n        voteState = 0;\r\n    }\r\n    function getVoteState() public view returns(uint) {\r\n        return voteState;\r\n    }\r\n    function vote(string memory _voterId, string memory _walletKey, uint256 choice) public returns(string memory) {\r\n        setVoteState();\r\n        if(areStringsEqual(map_voterid_details[_voterId].walletKey, _walletKey)) {\r\n            if(!map_voterid_details[_voterId].isVoted) {\r\n                Candidates[choice].votes++;\r\n                string memory temp_walletKey = Candidates[choice].walletKey;\r\n                candidatesMap[temp_walletKey].votes++;\r\n                map_voterid_details[_voterId].isVoted = true;\r\n                for(uint256 i=0;i<Voters.length;i++) {\r\n                    if(areStringsEqual(Voters[i].voterId, _voterId)){\r\n                        Voters[i].isVoted = true;\r\n                        break;\r\n                    }\r\n                }\r\n                voteState = 1;\r\n                return \"Vote casted successfully!\";\r\n                \r\n            }\r\n            voteState = 2;\r\n            return \"Voter has already voted!\";\r\n        }\r\n        return \"Could not cast a vote, Voter not registered! (try changing account on metamask)\";\r\n    }\r\n    uint voteThroughAdminState = 0; // 0: not voted, 1:successfully voted, 2:already voted\r\n    function getVoteThroughAdminState() public view returns(uint) {\r\n        return voteThroughAdminState;\r\n    }\r\n    function voteThroughAdmin(string memory _voterId, uint256 choice) public returns(string memory) {\r\n        voteThroughAdminState = 0;\r\n        if(!map_voterid_details[_voterId].isVoted) {\r\n            Candidates[choice].votes++;\r\n            string memory temp_walletKey = Candidates[choice].walletKey;\r\n            candidatesMap[temp_walletKey].votes++;\r\n            map_voterid_details[_voterId].isVoted = true;\r\n            for(uint256 i=0;i<Voters.length;i++) {\r\n                if(areStringsEqual(Voters[i].voterId, _voterId)){\r\n                    Voters[i].isVoted = true;\r\n                    break;\r\n                }\r\n            }\r\n            voteThroughAdminState = 1;\r\n            return \"Vote casted successfully!\";\r\n        }\r\n        voteThroughAdminState = 2;\r\n        return \"Voter has already voted!\";\r\n    }\r\n    /* Voting Functions END */ \r\n\r\n    /* Utility Functions START. */\r\n    function areStringsEqual(string memory S1, string memory S2) public pure returns(bool){\r\n        return keccak256(bytes(S1)) == keccak256(bytes(S2));\r\n    }\r\n\r\n    function sampleValue() public pure returns(uint){\r\n        return 5;\r\n    }\r\n    /* Utility Functions END. */\r\n}\r\n",
  "sourcePath": "D:\\Blockchain-Projects\\BlockVote\\contracts\\BlockVote.sol",
  "compiler": {
    "name": "solc",
    "version": "0.8.13+commit.abaa5c0e.Emscripten.clang"
  },
  "schemaVersion": "3.4.4",
  "updatedAt": "2022-04-05T11:23:22.661Z",
  "networkType": "ethereum",
  "devdoc": {
    "kind": "dev",
    "methods": {},
    "version": 1
  },
  "userdoc": {
    "kind": "user",
    "methods": {},
    "version": 1
  }
}