{
  "contractName": "BlockVote",
  "abi": [
    {
      "inputs": [
        {
          "internalType": "uint256",
          "name": "",
          "type": "uint256"
        }
      ],
      "name": "Admins",
      "outputs": [
        {
          "internalType": "string",
          "name": "name",
          "type": "string"
        },
        {
          "internalType": "string",
          "name": "mobileNo",
          "type": "string"
        },
        {
          "internalType": "string",
          "name": "walletKey",
          "type": "string"
        }
      ],
      "stateMutability": "view",
      "type": "function",
      "constant": true
    },
    {
      "inputs": [
        {
          "internalType": "uint256",
          "name": "",
          "type": "uint256"
        }
      ],
      "name": "Candidates",
      "outputs": [
        {
          "internalType": "string",
          "name": "name",
          "type": "string"
        },
        {
          "internalType": "string",
          "name": "mobileNo",
          "type": "string"
        },
        {
          "internalType": "string",
          "name": "homeAddress",
          "type": "string"
        },
        {
          "internalType": "string",
          "name": "aadharCardNo",
          "type": "string"
        },
        {
          "internalType": "string",
          "name": "voterId",
          "type": "string"
        },
        {
          "internalType": "string",
          "name": "walletKey",
          "type": "string"
        },
        {
          "internalType": "string",
          "name": "politicalParty",
          "type": "string"
        },
        {
          "internalType": "uint256",
          "name": "votes",
          "type": "uint256"
        },
        {
          "internalType": "string",
          "name": "symbolUrl",
          "type": "string"
        }
      ],
      "stateMutability": "view",
      "type": "function",
      "constant": true
    },
    {
      "inputs": [],
      "name": "ECI",
      "outputs": [
        {
          "internalType": "string",
          "name": "name",
          "type": "string"
        },
        {
          "internalType": "string",
          "name": "mobileNo",
          "type": "string"
        },
        {
          "internalType": "string",
          "name": "walletKey",
          "type": "string"
        }
      ],
      "stateMutability": "view",
      "type": "function",
      "constant": true
    },
    {
      "inputs": [
        {
          "internalType": "uint256",
          "name": "",
          "type": "uint256"
        }
      ],
      "name": "Voters",
      "outputs": [
        {
          "internalType": "string",
          "name": "name",
          "type": "string"
        },
        {
          "internalType": "string",
          "name": "mobileNo",
          "type": "string"
        },
        {
          "internalType": "string",
          "name": "homeAddress",
          "type": "string"
        },
        {
          "internalType": "string",
          "name": "aadharCardNo",
          "type": "string"
        },
        {
          "internalType": "string",
          "name": "voterId",
          "type": "string"
        },
        {
          "internalType": "string",
          "name": "walletKey",
          "type": "string"
        },
        {
          "internalType": "bool",
          "name": "isVoted",
          "type": "bool"
        }
      ],
      "stateMutability": "view",
      "type": "function",
      "constant": true
    },
    {
      "inputs": [
        {
          "internalType": "uint256",
          "name": "",
          "type": "uint256"
        }
      ],
      "name": "_candidates",
      "outputs": [
        {
          "internalType": "string",
          "name": "",
          "type": "string"
        }
      ],
      "stateMutability": "view",
      "type": "function",
      "constant": true
    },
    {
      "inputs": [
        {
          "internalType": "uint256",
          "name": "",
          "type": "uint256"
        }
      ],
      "name": "_symbolUrls",
      "outputs": [
        {
          "internalType": "string",
          "name": "",
          "type": "string"
        }
      ],
      "stateMutability": "view",
      "type": "function",
      "constant": true
    },
    {
      "inputs": [
        {
          "internalType": "uint256",
          "name": "",
          "type": "uint256"
        }
      ],
      "name": "_votes",
      "outputs": [
        {
          "internalType": "uint256",
          "name": "",
          "type": "uint256"
        }
      ],
      "stateMutability": "view",
      "type": "function",
      "constant": true
    },
    {
      "inputs": [
        {
          "internalType": "uint256",
          "name": "",
          "type": "uint256"
        }
      ],
      "name": "candidate_names",
      "outputs": [
        {
          "internalType": "string",
          "name": "",
          "type": "string"
        }
      ],
      "stateMutability": "view",
      "type": "function",
      "constant": true
    },
    {
      "inputs": [
        {
          "internalType": "uint256",
          "name": "",
          "type": "uint256"
        }
      ],
      "name": "candidate_urls",
      "outputs": [
        {
          "internalType": "string",
          "name": "",
          "type": "string"
        }
      ],
      "stateMutability": "view",
      "type": "function",
      "constant": true
    },
    {
      "inputs": [
        {
          "internalType": "string",
          "name": "",
          "type": "string"
        }
      ],
      "name": "candidatesMap",
      "outputs": [
        {
          "internalType": "string",
          "name": "name",
          "type": "string"
        },
        {
          "internalType": "string",
          "name": "mobileNo",
          "type": "string"
        },
        {
          "internalType": "string",
          "name": "homeAddress",
          "type": "string"
        },
        {
          "internalType": "string",
          "name": "aadharCardNo",
          "type": "string"
        },
        {
          "internalType": "string",
          "name": "voterId",
          "type": "string"
        },
        {
          "internalType": "string",
          "name": "walletKey",
          "type": "string"
        },
        {
          "internalType": "string",
          "name": "politicalParty",
          "type": "string"
        },
        {
          "internalType": "uint256",
          "name": "votes",
          "type": "uint256"
        },
        {
          "internalType": "string",
          "name": "symbolUrl",
          "type": "string"
        }
      ],
      "stateMutability": "view",
      "type": "function",
      "constant": true
    },
    {
      "inputs": [
        {
          "internalType": "string",
          "name": "",
          "type": "string"
        }
      ],
      "name": "mapWalletKey2Admin",
      "outputs": [
        {
          "internalType": "string",
          "name": "name",
          "type": "string"
        },
        {
          "internalType": "string",
          "name": "mobileNo",
          "type": "string"
        },
        {
          "internalType": "string",
          "name": "walletKey",
          "type": "string"
        }
      ],
      "stateMutability": "view",
      "type": "function",
      "constant": true
    },
    {
      "inputs": [
        {
          "internalType": "string",
          "name": "",
          "type": "string"
        }
      ],
      "name": "map_voterid_details",
      "outputs": [
        {
          "internalType": "string",
          "name": "name",
          "type": "string"
        },
        {
          "internalType": "string",
          "name": "mobileNo",
          "type": "string"
        },
        {
          "internalType": "string",
          "name": "homeAddress",
          "type": "string"
        },
        {
          "internalType": "string",
          "name": "aadharCardNo",
          "type": "string"
        },
        {
          "internalType": "string",
          "name": "voterId",
          "type": "string"
        },
        {
          "internalType": "string",
          "name": "walletKey",
          "type": "string"
        },
        {
          "internalType": "bool",
          "name": "isVoted",
          "type": "bool"
        }
      ],
      "stateMutability": "view",
      "type": "function",
      "constant": true
    },
    {
      "inputs": [
        {
          "internalType": "string",
          "name": "",
          "type": "string"
        }
      ],
      "name": "map_walletKey_voterid",
      "outputs": [
        {
          "internalType": "string",
          "name": "",
          "type": "string"
        }
      ],
      "stateMutability": "view",
      "type": "function",
      "constant": true
    },
    {
      "inputs": [],
      "name": "startVoting",
      "outputs": [],
      "stateMutability": "nonpayable",
      "type": "function"
    },
    {
      "inputs": [],
      "name": "endVoting",
      "outputs": [],
      "stateMutability": "nonpayable",
      "type": "function"
    },
    {
      "inputs": [],
      "name": "getElectionStatus",
      "outputs": [
        {
          "internalType": "string",
          "name": "",
          "type": "string"
        }
      ],
      "stateMutability": "view",
      "type": "function",
      "constant": true
    },
    {
      "inputs": [],
      "name": "getAddAdminState",
      "outputs": [
        {
          "internalType": "uint256",
          "name": "",
          "type": "uint256"
        }
      ],
      "stateMutability": "view",
      "type": "function",
      "constant": true
    },
    {
      "inputs": [
        {
          "internalType": "string",
          "name": "_walletKey",
          "type": "string"
        }
      ],
      "name": "authenticateECI",
      "outputs": [
        {
          "internalType": "bool",
          "name": "",
          "type": "bool"
        }
      ],
      "stateMutability": "view",
      "type": "function",
      "constant": true
    },
    {
      "inputs": [
        {
          "internalType": "string",
          "name": "ECI_Key",
          "type": "string"
        },
        {
          "internalType": "string",
          "name": "adName",
          "type": "string"
        },
        {
          "internalType": "string",
          "name": "adMoNo",
          "type": "string"
        },
        {
          "internalType": "string",
          "name": "adEthKey",
          "type": "string"
        }
      ],
      "name": "addAdmin",
      "outputs": [],
      "stateMutability": "nonpayable",
      "type": "function"
    },
    {
      "inputs": [],
      "name": "adminLength",
      "outputs": [
        {
          "internalType": "uint256",
          "name": "",
          "type": "uint256"
        }
      ],
      "stateMutability": "view",
      "type": "function",
      "constant": true
    },
    {
      "inputs": [],
      "name": "getAllAdmins",
      "outputs": [
        {
          "components": [
            {
              "internalType": "string",
              "name": "name",
              "type": "string"
            },
            {
              "internalType": "string",
              "name": "mobileNo",
              "type": "string"
            },
            {
              "internalType": "string",
              "name": "walletKey",
              "type": "string"
            }
          ],
          "internalType": "struct Admin[]",
          "name": "",
          "type": "tuple[]"
        }
      ],
      "stateMutability": "view",
      "type": "function",
      "constant": true
    },
    {
      "inputs": [
        {
          "internalType": "string",
          "name": "_walletKey",
          "type": "string"
        }
      ],
      "name": "authenticateAdmin",
      "outputs": [
        {
          "internalType": "bool",
          "name": "",
          "type": "bool"
        }
      ],
      "stateMutability": "view",
      "type": "function",
      "constant": true
    },
    {
      "inputs": [],
      "name": "getAddVoterState",
      "outputs": [
        {
          "internalType": "uint256",
          "name": "",
          "type": "uint256"
        }
      ],
      "stateMutability": "view",
      "type": "function",
      "constant": true
    },
    {
      "inputs": [
        {
          "internalType": "string",
          "name": "_name",
          "type": "string"
        },
        {
          "internalType": "string",
          "name": "_mobileNo",
          "type": "string"
        },
        {
          "internalType": "string",
          "name": "_homeAddress",
          "type": "string"
        },
        {
          "internalType": "string",
          "name": "_aadharCardNo",
          "type": "string"
        },
        {
          "internalType": "string",
          "name": "_voterId",
          "type": "string"
        },
        {
          "internalType": "string",
          "name": "_walletKey",
          "type": "string"
        }
      ],
      "name": "addVoter",
      "outputs": [],
      "stateMutability": "nonpayable",
      "type": "function"
    },
    {
      "inputs": [
        {
          "internalType": "string",
          "name": "_walletKey",
          "type": "string"
        }
      ],
      "name": "getAllVoters",
      "outputs": [
        {
          "internalType": "string",
          "name": "",
          "type": "string"
        }
      ],
      "stateMutability": "view",
      "type": "function",
      "constant": true
    },
    {
      "inputs": [
        {
          "internalType": "string",
          "name": "_voterid",
          "type": "string"
        }
      ],
      "name": "hasVoted",
      "outputs": [
        {
          "internalType": "bool",
          "name": "",
          "type": "bool"
        }
      ],
      "stateMutability": "view",
      "type": "function",
      "constant": true
    },
    {
      "inputs": [
        {
          "components": [
            {
              "internalType": "string",
              "name": "name",
              "type": "string"
            },
            {
              "internalType": "string",
              "name": "mobileNo",
              "type": "string"
            },
            {
              "internalType": "string",
              "name": "homeAddress",
              "type": "string"
            },
            {
              "internalType": "string",
              "name": "aadharCardNo",
              "type": "string"
            },
            {
              "internalType": "string",
              "name": "voterId",
              "type": "string"
            },
            {
              "internalType": "string",
              "name": "walletKey",
              "type": "string"
            },
            {
              "internalType": "bool",
              "name": "isVoted",
              "type": "bool"
            }
          ],
          "internalType": "struct Voter",
          "name": "item",
          "type": "tuple"
        }
      ],
      "name": "isVoterRegistered",
      "outputs": [
        {
          "internalType": "bool",
          "name": "",
          "type": "bool"
        }
      ],
      "stateMutability": "view",
      "type": "function",
      "constant": true
    },
    {
      "inputs": [
        {
          "internalType": "string",
          "name": "_walletKey",
          "type": "string"
        }
      ],
      "name": "authenticateVoter",
      "outputs": [
        {
          "internalType": "bool",
          "name": "",
          "type": "bool"
        }
      ],
      "stateMutability": "nonpayable",
      "type": "function"
    },
    {
      "inputs": [
        {
          "internalType": "string",
          "name": "_walletKey",
          "type": "string"
        }
      ],
      "name": "getVoterId",
      "outputs": [
        {
          "internalType": "string",
          "name": "",
          "type": "string"
        }
      ],
      "stateMutability": "nonpayable",
      "type": "function"
    },
    {
      "inputs": [
        {
          "internalType": "string",
          "name": "_voterid",
          "type": "string"
        }
      ],
      "name": "setVoterId",
      "outputs": [],
      "stateMutability": "nonpayable",
      "type": "function"
    },
    {
      "inputs": [],
      "name": "voterLength",
      "outputs": [
        {
          "internalType": "uint256",
          "name": "",
          "type": "uint256"
        }
      ],
      "stateMutability": "view",
      "type": "function",
      "constant": true
    },
    {
      "inputs": [
        {
          "internalType": "string",
          "name": "_voterid",
          "type": "string"
        }
      ],
      "name": "getVoterMobileNumber",
      "outputs": [
        {
          "internalType": "string",
          "name": "",
          "type": "string"
        }
      ],
      "stateMutability": "view",
      "type": "function",
      "constant": true
    },
    {
      "inputs": [
        {
          "internalType": "string",
          "name": "_name",
          "type": "string"
        },
        {
          "internalType": "string",
          "name": "_mobileNo",
          "type": "string"
        },
        {
          "internalType": "string",
          "name": "_homeAddress",
          "type": "string"
        },
        {
          "internalType": "string",
          "name": "_aadharCardNo",
          "type": "string"
        },
        {
          "internalType": "string",
          "name": "_voterId",
          "type": "string"
        },
        {
          "internalType": "string",
          "name": "_walletKey",
          "type": "string"
        },
        {
          "internalType": "string",
          "name": "_politicalParty",
          "type": "string"
        },
        {
          "internalType": "string",
          "name": "_symbolUrl",
          "type": "string"
        }
      ],
      "name": "addCandidate",
      "outputs": [],
      "stateMutability": "nonpayable",
      "type": "function"
    },
    {
      "inputs": [
        {
          "internalType": "string",
          "name": "_walletKey",
          "type": "string"
        }
      ],
      "name": "isCandidateRegistered",
      "outputs": [
        {
          "internalType": "bool",
          "name": "",
          "type": "bool"
        }
      ],
      "stateMutability": "view",
      "type": "function",
      "constant": true
    },
    {
      "inputs": [],
      "name": "getCandidates",
      "outputs": [
        {
          "internalType": "string[]",
          "name": "",
          "type": "string[]"
        }
      ],
      "stateMutability": "nonpayable",
      "type": "function"
    },
    {
      "inputs": [],
      "name": "getUrls",
      "outputs": [
        {
          "internalType": "string[]",
          "name": "",
          "type": "string[]"
        }
      ],
      "stateMutability": "nonpayable",
      "type": "function"
    },
    {
      "inputs": [],
      "name": "getResults",
      "outputs": [
        {
          "internalType": "string[]",
          "name": "",
          "type": "string[]"
        },
        {
          "internalType": "uint256[]",
          "name": "",
          "type": "uint256[]"
        },
        {
          "internalType": "string[]",
          "name": "",
          "type": "string[]"
        }
      ],
      "stateMutability": "nonpayable",
      "type": "function"
    },
    {
      "inputs": [],
      "name": "setVoteState",
      "outputs": [],
      "stateMutability": "nonpayable",
      "type": "function"
    },
    {
      "inputs": [],
      "name": "getVoteState",
      "outputs": [
        {
          "internalType": "uint256",
          "name": "",
          "type": "uint256"
        }
      ],
      "stateMutability": "view",
      "type": "function",
      "constant": true
    },
    {
      "inputs": [
        {
          "internalType": "string",
          "name": "_voterId",
          "type": "string"
        },
        {
          "internalType": "string",
          "name": "_walletKey",
          "type": "string"
        },
        {
          "internalType": "uint256",
          "name": "choice",
          "type": "uint256"
        }
      ],
      "name": "vote",
      "outputs": [
        {
          "internalType": "string",
          "name": "",
          "type": "string"
        }
      ],
      "stateMutability": "nonpayable",
      "type": "function"
    },
    {
      "inputs": [],
      "name": "getVoteThroughAdminState",
      "outputs": [
        {
          "internalType": "uint256",
          "name": "",
          "type": "uint256"
        }
      ],
      "stateMutability": "view",
      "type": "function",
      "constant": true
    },
    {
      "inputs": [
        {
          "internalType": "string",
          "name": "_voterId",
          "type": "string"
        },
        {
          "internalType": "uint256",
          "name": "choice",
          "type": "uint256"
        }
      ],
      "name": "voteThroughAdmin",
      "outputs": [
        {
          "internalType": "string",
          "name": "",
          "type": "string"
        }
      ],
      "stateMutability": "nonpayable",
      "type": "function"
    },
    {
      "inputs": [
        {
          "internalType": "string",
          "name": "S1",
          "type": "string"
        },
        {
          "internalType": "string",
          "name": "S2",
          "type": "string"
        }
      ],
      "name": "areStringsEqual",
      "outputs": [
        {
          "internalType": "bool",
          "name": "",
          "type": "bool"
        }
      ],
      "stateMutability": "pure",
      "type": "function",
      "constant": true
    },
    {
      "inputs": [],
      "name": "sampleValue",
      "outputs": [
        {
          "internalType": "uint256",
          "name": "",
          "type": "uint256"
        }
      ],
      "stateMutability": "pure",
      "type": "function",
      "constant": true
    }
  ],
  "bytecode": "0x608060405260405180606001604052806040518060400160405280600c81526020017f4543495f4f6666696369616c000000000000000000000000000000000000000081525081526020016040518060400160405280600a81526020017f313233343536373839300000000000000000000000000000000000000000000081525081526020016040518060600160405280602a8152602001620057e2602a9139815250600080820151816000019080519060200190620000c192919062000196565b506020820151816001019080519060200190620000e092919062000196565b506040820151816002019080519060200190620000ff92919062000196565b50505060405180602001604052806000815250600390805190602001906200012992919062000196565b506040518060400160405280600981526020017f707265566f74696e670000000000000000000000000000000000000000000000815250600d90805190602001906200017792919062000196565b50600060145560006015553480156200018f57600080fd5b50620002aa565b828054620001a49062000275565b90600052602060002090601f016020900481019282620001c8576000855562000214565b82601f10620001e357805160ff191683800117855562000214565b8280016001018555821562000214579182015b8281111562000213578251825591602001919060010190620001f6565b5b50905062000223919062000227565b5090565b5b808211156200024257600081600090555060010162000228565b5090565b7f4e487b7100000000000000000000000000000000000000000000000000000000600052602260045260246000fd5b600060028204905060018216806200028e57607f821691505b602082108103620002a457620002a362000246565b5b50919050565b61552880620002ba6000396000f3fe608060405234801561001057600080fd5b50600436106102745760003560e01c80637d112d6411610151578063aebd20f0116100c3578063da06e07f11610087578063da06e07f14610853578063e9523c9714610871578063eb03cd221461088f578063ecfb02fb146108bf578063f3725146146108c9578063f6249c041461090157610274565b8063aebd20f014610783578063b1496cd4146107b9578063bea48894146107e9578063c3403ddf14610819578063c4082bea1461082357610274565b8063a3a8908d11610115578063a3a8908d1461069b578063a5a75248146106cd578063a69945fb146106fd578063a72540511461072d578063a7d27b0314610749578063ab9c7fa41461076557610274565b80637d112d64146105b75780638a25d072146105e75780639c35d98b146106035780639f6e5e6d146106395780639f89a4b21461066957610274565b80634fbe75c1116101ea5780635982f610116101ae5780635982f610146104dd578063609b6258146104fb578063622eaa1414610519578063648a305a146105395780637820d384146105695780637a4c96ad1461058757610274565b80634fbe75c1146103ed5780635097086f1461041d5780635143eda41461044d57806351b090651461047d578063565e802a146104ad57610274565b80631ec6b60a1161023c5780631ec6b60a1461030d578063290e9212146103175780632ec660431461034f57806339bfeae31461037f5780634717f97c146103af578063481edc12146103cf57610274565b806301ceb30a1461027957806306a49fce14610297578063077e7856146102b5578063122902a6146102d357806313bad72f146102f1575b600080fd5b610281610931565b60405161028e9190614453565b60405180910390f35b61029f61093b565b6040516102ac91906145c9565b60405180910390f35b6102bd610a9c565b6040516102ca9190614453565b60405180910390f35b6102db610aa6565b6040516102e89190614635565b60405180910390f35b61030b600480360381019061030691906147a0565b610b38565b005b610315610def565b005b610331600480360381019061032c9190614962565b610e3d565b6040516103469998979695949392919061498f565b60405180910390f35b61036960048036038101906103649190614a54565b6112db565b6040516103769190614635565b60405180910390f35b61039960048036038101906103949190614a54565b611391565b6040516103a69190614ab8565b60405180910390f35b6103b76113c9565b6040516103c693929190614b91565b60405180910390f35b6103d76117e0565b6040516103e49190614453565b60405180910390f35b61040760048036038101906104029190614d6f565b6117ea565b6040516104149190614ab8565b60405180910390f35b61043760048036038101906104329190614db8565b6118c9565b6040516104449190614635565b60405180910390f35b61046760048036038101906104629190614962565b611c14565b6040516104749190614635565b60405180910390f35b61049760048036038101906104929190614962565b611cc0565b6040516104a49190614635565b60405180910390f35b6104c760048036038101906104c29190614a54565b611d6c565b6040516104d49190614ab8565b60405180910390f35b6104e5611e47565b6040516104f29190614453565b60405180910390f35b610503611e54565b6040516105109190614453565b60405180910390f35b610521611e5d565b60405161053093929190614e14565b60405180910390f35b610553600480360381019061054e9190614962565b61200d565b6040516105609190614635565b60405180910390f35b6105716120b9565b60405161057e9190614453565b60405180910390f35b6105a1600480360381019061059c9190614e60565b6120c6565b6040516105ae9190614635565b60405180910390f35b6105d160048036038101906105cc9190614a54565b6124ea565b6040516105de9190614ab8565b60405180910390f35b61060160048036038101906105fc9190614eeb565b6125cd565b005b61061d60048036038101906106189190614962565b612870565b6040516106309796959493929190614fc2565b60405180910390f35b610653600480360381019061064e9190614962565b612bff565b6040516106609190614635565b60405180910390f35b610683600480360381019061067e9190614962565b612cab565b60405161069293929190614e14565b60405180910390f35b6106b560048036038101906106b09190614a54565b612e7d565b6040516106c493929190614e14565b60405180910390f35b6106e760048036038101906106e29190614a54565b613055565b6040516106f49190614635565b60405180910390f35b61071760048036038101906107129190614a54565b613105565b6040516107249190614ab8565b60405180910390f35b6107476004803603810190610742919061505b565b6131e0565b005b610763600480360381019061075e9190614a54565b61346d565b005b61076d613487565b60405161077a9190614453565b60405180910390f35b61079d60048036038101906107989190614a54565b613491565b6040516107b09796959493929190614fc2565b60405180910390f35b6107d360048036038101906107ce9190615190565b613826565b6040516107e09190614ab8565b60405180910390f35b61080360048036038101906107fe9190614962565b613841565b6040516108109190614453565b60405180910390f35b610821613865565b005b61083d60048036038101906108389190614a54565b6138b3565b60405161084a9190614635565b60405180910390f35b61085b613966565b60405161086891906145c9565b60405180910390f35b610879613ac7565b6040516108869190615328565b60405180910390f35b6108a960048036038101906108a49190614a54565b613cdc565b6040516108b69190614ab8565b60405180910390f35b6108c7613d7c565b005b6108e360048036038101906108de9190614a54565b613d86565b6040516108f89998979695949392919061498f565b60405180910390f35b61091b60048036038101906109169190614a54565b61422a565b6040516109289190614635565b60405180910390f35b6000600f54905090565b606060005b6006805490508110156109c4576007600682815481106109635761096261534a565b5b9060005260206000209060090201600001908060018154018082558091505060019003906000526020600020016000909190919091509080546109a5906153a8565b6109b092919061430a565b5080806109bc90615408565b915050610940565b506007805480602002602001604051908101604052809291908181526020016000905b82821015610a93578382906000526020600020018054610a06906153a8565b80601f0160208091040260200160405190810160405280929190818152602001828054610a32906153a8565b8015610a7f5780601f10610a5457610100808354040283529160200191610a7f565b820191906000526020600020905b815481529060010190602001808311610a6257829003601f168201915b5050505050815260200190600101906109e7565b50505050905090565b6000601554905090565b6060600d8054610ab5906153a8565b80601f0160208091040260200160405190810160405280929190818152602001828054610ae1906153a8565b8015610b2e5780601f10610b0357610100808354040283529160200191610b2e565b820191906000526020600020905b815481529060010190602001808311610b1157829003601f168201915b5050505050905090565b60006040518061012001604052808a815260200189815260200188815260200187815260200186815260200185815260200184815260200160008152602001838152509050610b8684611d6c565b610ddb5760068190806001815401808255809150506001900390600052602060002090600902016000909190919091506000820151816000019080519060200190610bd2929190614397565b506020820151816001019080519060200190610bef929190614397565b506040820151816002019080519060200190610c0c929190614397565b506060820151816003019080519060200190610c29929190614397565b506080820151816004019080519060200190610c46929190614397565b5060a0820151816005019080519060200190610c63929190614397565b5060c0820151816006019080519060200190610c80929190614397565b5060e08201518160070155610100820151816008019080519060200190610ca8929190614397565b50505080600c85604051610cbc919061548c565b90815260200160405180910390206000820151816000019080519060200190610ce6929190614397565b506020820151816001019080519060200190610d03929190614397565b506040820151816002019080519060200190610d20929190614397565b506060820151816003019080519060200190610d3d929190614397565b506080820151816004019080519060200190610d5a929190614397565b5060a0820151816005019080519060200190610d77929190614397565b5060c0820151816006019080519060200190610d94929190614397565b5060e08201518160070155610100820151816008019080519060200190610dbc929190614397565b50905050610dce8989898989896131e0565b6001601081905550610de4565b60026010819055505b505050505050505050565b6040518060400160405280600681526020017f566f74696e670000000000000000000000000000000000000000000000000000815250600d9080519060200190610e3a929190614397565b50565b60068181548110610e4d57600080fd5b9060005260206000209060090201600091509050806000018054610e70906153a8565b80601f0160208091040260200160405190810160405280929190818152602001828054610e9c906153a8565b8015610ee95780601f10610ebe57610100808354040283529160200191610ee9565b820191906000526020600020905b815481529060010190602001808311610ecc57829003601f168201915b505050505090806001018054610efe906153a8565b80601f0160208091040260200160405190810160405280929190818152602001828054610f2a906153a8565b8015610f775780601f10610f4c57610100808354040283529160200191610f77565b820191906000526020600020905b815481529060010190602001808311610f5a57829003601f168201915b505050505090806002018054610f8c906153a8565b80601f0160208091040260200160405190810160405280929190818152602001828054610fb8906153a8565b80156110055780601f10610fda57610100808354040283529160200191611005565b820191906000526020600020905b815481529060010190602001808311610fe857829003601f168201915b50505050509080600301805461101a906153a8565b80601f0160208091040260200160405190810160405280929190818152602001828054611046906153a8565b80156110935780601f1061106857610100808354040283529160200191611093565b820191906000526020600020905b81548152906001019060200180831161107657829003601f168201915b5050505050908060040180546110a8906153a8565b80601f01602080910402602001604051908101604052809291908181526020018280546110d4906153a8565b80156111215780601f106110f657610100808354040283529160200191611121565b820191906000526020600020905b81548152906001019060200180831161110457829003601f168201915b505050505090806005018054611136906153a8565b80601f0160208091040260200160405190810160405280929190818152602001828054611162906153a8565b80156111af5780601f10611184576101008083540402835291602001916111af565b820191906000526020600020905b81548152906001019060200180831161119257829003601f168201915b5050505050908060060180546111c4906153a8565b80601f01602080910402602001604051908101604052809291908181526020018280546111f0906153a8565b801561123d5780601f106112125761010080835404028352916020019161123d565b820191906000526020600020905b81548152906001019060200180831161122057829003601f168201915b505050505090806007015490806008018054611258906153a8565b80601f0160208091040260200160405190810160405280929190818152602001828054611284906153a8565b80156112d15780601f106112a6576101008083540402835291602001916112d1565b820191906000526020600020905b8154815290600101906020018083116112b457829003601f168201915b5050505050905089565b600a818051602081018201805184825260208301602085012081835280955050505050506000915090508054611310906153a8565b80601f016020809104026020016040519081016040528092919081815260200182805461133c906153a8565b80156113895780601f1061135e57610100808354040283529160200191611389565b820191906000526020600020905b81548152906001019060200180831161136c57829003601f168201915b505050505081565b6000600b826040516113a3919061548c565b908152602001604051809103902060060160009054906101000a900460ff169050919050565b6060806060611497600d80546113de906153a8565b80601f016020809104026020016040519081016040528092919081815260200182805461140a906153a8565b80156114575780601f1061142c57610100808354040283529160200191611457565b820191906000526020600020905b81548152906001019060200180831161143a57829003601f168201915b50505050506040518060400160405280600681526020017f526573756c740000000000000000000000000000000000000000000000000000815250613826565b156115d75760005b6006805490508110156115d5576011600682815481106114c2576114c161534a565b5b906000526020600020906009020160000190806001815401808255809150506001900390600052602060002001600090919091909150908054611504906153a8565b61150f92919061430a565b506012600682815481106115265761152561534a565b5b90600052602060002090600902016007015490806001815401808255809150506001900390600052602060002001600090919091909150556013600682815481106115745761157361534a565b5b9060005260206000209060090201600801908060018154018082558091505060019003906000526020600020016000909190919091509080546115b6906153a8565b6115c192919061430a565b5080806115cd90615408565b91505061149f565b505b60116012601382805480602002602001604051908101604052809291908181526020016000905b828210156116aa57838290600052602060002001805461161d906153a8565b80601f0160208091040260200160405190810160405280929190818152602001828054611649906153a8565b80156116965780601f1061166b57610100808354040283529160200191611696565b820191906000526020600020905b81548152906001019060200180831161167957829003601f168201915b5050505050815260200190600101906115fe565b505050509250818054806020026020016040519081016040528092919081815260200182805480156116fb57602002820191906000526020600020905b8154815260200190600101908083116116e7575b5050505050915080805480602002602001604051908101604052809291908181526020016000905b828210156117cf578382906000526020600020018054611742906153a8565b80601f016020809104026020016040519081016040528092919081815260200182805461176e906153a8565b80156117bb5780601f10611790576101008083540402835291602001916117bb565b820191906000526020600020905b81548152906001019060200180831161179e57829003601f168201915b505050505081526020019060010190611723565b505050509050925092509250909192565b6000600e54905090565b60006118b2600b8360800151604051611803919061548c565b9081526020016040518091039020600001805461181f906153a8565b80601f016020809104026020016040519081016040528092919081815260200182805461184b906153a8565b80156118985780601f1061186d57610100808354040283529160200191611898565b820191906000526020600020905b81548152906001019060200180831161187b57829003601f168201915b505050505060405180602001604052806000815250613826565b6118bf57600190506118c4565b600090505b919050565b60606000601581905550600b836040516118e3919061548c565b908152602001604051809103902060060160009054906101000a900460ff16611bcd576006828154811061191a5761191961534a565b5b9060005260206000209060090201600701600081548092919061193c90615408565b91905055506000600683815481106119575761195661534a565b5b90600052602060002090600902016005018054611973906153a8565b80601f016020809104026020016040519081016040528092919081815260200182805461199f906153a8565b80156119ec5780601f106119c1576101008083540402835291602001916119ec565b820191906000526020600020905b8154815290600101906020018083116119cf57829003601f168201915b50505050509050600c81604051611a03919061548c565b90815260200160405180910390206007016000815480929190611a2590615408565b91905055506001600b85604051611a3c919061548c565b908152602001604051809103902060060160006101000a81548160ff02191690831515021790555060005b600580549050811015611b8657611b2b60058281548110611a8b57611a8a61534a565b5b90600052602060002090600702016004018054611aa7906153a8565b80601f0160208091040260200160405190810160405280929190818152602001828054611ad3906153a8565b8015611b205780601f10611af557610100808354040283529160200191611b20565b820191906000526020600020905b815481529060010190602001808311611b0357829003601f168201915b505050505086613826565b15611b7357600160058281548110611b4657611b4561534a565b5b906000526020600020906007020160060160006101000a81548160ff021916908315150217905550611b86565b8080611b7e90615408565b915050611a67565b5060016015819055506040518060400160405280601981526020017f566f746520636173746564207375636365737366756c6c792100000000000000815250915050611c0e565b60026015819055506040518060400160405280601881526020017f566f7465722068617320616c726561647920766f74656421000000000000000081525090505b92915050565b60088181548110611c2457600080fd5b906000526020600020016000915090508054611c3f906153a8565b80601f0160208091040260200160405190810160405280929190818152602001828054611c6b906153a8565b8015611cb85780601f10611c8d57610100808354040283529160200191611cb8565b820191906000526020600020905b815481529060010190602001808311611c9b57829003601f168201915b505050505081565b60078181548110611cd057600080fd5b906000526020600020016000915090508054611ceb906153a8565b80601f0160208091040260200160405190810160405280929190818152602001828054611d17906153a8565b8015611d645780601f10611d3957610100808354040283529160200191611d64565b820191906000526020600020905b815481529060010190602001808311611d4757829003601f168201915b505050505081565b6000611e30600c83604051611d81919061548c565b90815260200160405180910390206000018054611d9d906153a8565b80601f0160208091040260200160405190810160405280929190818152602001828054611dc9906153a8565b8015611e165780601f10611deb57610100808354040283529160200191611e16565b820191906000526020600020905b815481529060010190602001808311611df957829003601f168201915b505050505060405180602001604052806000815250613826565b611e3d5760019050611e42565b600090505b919050565b6000600480549050905090565b60006005905090565b6000806000018054611e6e906153a8565b80601f0160208091040260200160405190810160405280929190818152602001828054611e9a906153a8565b8015611ee75780601f10611ebc57610100808354040283529160200191611ee7565b820191906000526020600020905b815481529060010190602001808311611eca57829003601f168201915b505050505090806001018054611efc906153a8565b80601f0160208091040260200160405190810160405280929190818152602001828054611f28906153a8565b8015611f755780601f10611f4a57610100808354040283529160200191611f75565b820191906000526020600020905b815481529060010190602001808311611f5857829003601f168201915b505050505090806002018054611f8a906153a8565b80601f0160208091040260200160405190810160405280929190818152602001828054611fb6906153a8565b80156120035780601f10611fd857610100808354040283529160200191612003565b820191906000526020600020905b815481529060010190602001808311611fe657829003601f168201915b5050505050905083565b6011818154811061201d57600080fd5b906000526020600020016000915090508054612038906153a8565b80601f0160208091040260200160405190810160405280929190818152602001828054612064906153a8565b80156120b15780601f10612086576101008083540402835291602001916120b1565b820191906000526020600020905b81548152906001019060200180831161209457829003601f168201915b505050505081565b6000600580549050905090565b60606120d0613d7c565b612183600b856040516120e3919061548c565b908152602001604051809103902060050180546120ff906153a8565b80601f016020809104026020016040519081016040528092919081815260200182805461212b906153a8565b80156121785780601f1061214d57610100808354040283529160200191612178565b820191906000526020600020905b81548152906001019060200180831161215b57829003601f168201915b505050505084613826565b156124c757600b84604051612198919061548c565b908152602001604051809103902060060160009054906101000a900460ff1661248257600682815481106121cf576121ce61534a565b5b906000526020600020906009020160070160008154809291906121f190615408565b919050555060006006838154811061220c5761220b61534a565b5b90600052602060002090600902016005018054612228906153a8565b80601f0160208091040260200160405190810160405280929190818152602001828054612254906153a8565b80156122a15780601f10612276576101008083540402835291602001916122a1565b820191906000526020600020905b81548152906001019060200180831161228457829003601f168201915b50505050509050600c816040516122b8919061548c565b908152602001604051809103902060070160008154809291906122da90615408565b91905055506001600b866040516122f1919061548c565b908152602001604051809103902060060160006101000a81548160ff02191690831515021790555060005b60058054905081101561243b576123e0600582815481106123405761233f61534a565b5b9060005260206000209060070201600401805461235c906153a8565b80601f0160208091040260200160405190810160405280929190818152602001828054612388906153a8565b80156123d55780601f106123aa576101008083540402835291602001916123d5565b820191906000526020600020905b8154815290600101906020018083116123b857829003601f168201915b505050505087613826565b15612428576001600582815481106123fb576123fa61534a565b5b906000526020600020906007020160060160006101000a81548160ff02191690831515021790555061243b565b808061243390615408565b91505061231c565b5060016014819055506040518060400160405280601981526020017f566f746520636173746564207375636365737366756c6c7921000000000000008152509150506124e3565b60026014819055506040518060400160405280601881526020017f566f7465722068617320616c726561647920766f74656421000000000000000081525090506124e3565b6040518060800160405280604f81526020016154a4604f913990505b9392505050565b60006125b6600b6124fa8461422a565b604051612507919061548c565b90815260200160405180910390206000018054612523906153a8565b80601f016020809104026020016040519081016040528092919081815260200182805461254f906153a8565b801561259c5780601f106125715761010080835404028352916020019161259c565b820191906000526020600020905b81548152906001019060200180831161257f57829003601f168201915b505050505060405180602001604052806000815250613826565b6125c357600190506125c8565b600090505b919050565b6125d56142f6565b61266c84600060020180546125e9906153a8565b80601f0160208091040260200160405190810160405280929190818152602001828054612615906153a8565b80156126625780601f1061263757610100808354040283529160200191612662565b820191906000526020600020905b81548152906001019060200180831161264557829003601f168201915b5050505050613826565b1561286157612724600982604051612684919061548c565b908152602001604051809103902060020180546126a0906153a8565b80601f01602080910402602001604051908101604052809291908181526020018280546126cc906153a8565b80156127195780601f106126ee57610100808354040283529160200191612719565b820191906000526020600020905b8154815290600101906020018083116126fc57829003601f168201915b505050505082613826565b61285357600060405180606001604052808581526020018481526020018381525090506004819080600181540180825580915050600190039060005260206000209060030201600090919091909150600082015181600001908051906020019061278f929190614397565b5060208201518160010190805190602001906127ac929190614397565b5060408201518160020190805190602001906127c9929190614397565b505050806009836040516127dd919061548c565b90815260200160405180910390206000820151816000019080519060200190612807929190614397565b506020820151816001019080519060200190612824929190614397565b506040820151816002019080519060200190612841929190614397565b509050506001600e819055505061285c565b6002600e819055505b61286a565b6003600e819055505b50505050565b6005818154811061288057600080fd5b90600052602060002090600702016000915090508060000180546128a3906153a8565b80601f01602080910402602001604051908101604052809291908181526020018280546128cf906153a8565b801561291c5780601f106128f15761010080835404028352916020019161291c565b820191906000526020600020905b8154815290600101906020018083116128ff57829003601f168201915b505050505090806001018054612931906153a8565b80601f016020809104026020016040519081016040528092919081815260200182805461295d906153a8565b80156129aa5780601f1061297f576101008083540402835291602001916129aa565b820191906000526020600020905b81548152906001019060200180831161298d57829003601f168201915b5050505050908060020180546129bf906153a8565b80601f01602080910402602001604051908101604052809291908181526020018280546129eb906153a8565b8015612a385780601f10612a0d57610100808354040283529160200191612a38565b820191906000526020600020905b815481529060010190602001808311612a1b57829003601f168201915b505050505090806003018054612a4d906153a8565b80601f0160208091040260200160405190810160405280929190818152602001828054612a79906153a8565b8015612ac65780601f10612a9b57610100808354040283529160200191612ac6565b820191906000526020600020905b815481529060010190602001808311612aa957829003601f168201915b505050505090806004018054612adb906153a8565b80601f0160208091040260200160405190810160405280929190818152602001828054612b07906153a8565b8015612b545780601f10612b2957610100808354040283529160200191612b54565b820191906000526020600020905b815481529060010190602001808311612b3757829003601f168201915b505050505090806005018054612b69906153a8565b80601f0160208091040260200160405190810160405280929190818152602001828054612b95906153a8565b8015612be25780601f10612bb757610100808354040283529160200191612be2565b820191906000526020600020905b815481529060010190602001808311612bc557829003601f168201915b5050505050908060060160009054906101000a900460ff16905087565b60138181548110612c0f57600080fd5b906000526020600020016000915090508054612c2a906153a8565b80601f0160208091040260200160405190810160405280929190818152602001828054612c56906153a8565b8015612ca35780601f10612c7857610100808354040283529160200191612ca3565b820191906000526020600020905b815481529060010190602001808311612c8657829003601f168201915b505050505081565b60048181548110612cbb57600080fd5b9060005260206000209060030201600091509050806000018054612cde906153a8565b80601f0160208091040260200160405190810160405280929190818152602001828054612d0a906153a8565b8015612d575780601f10612d2c57610100808354040283529160200191612d57565b820191906000526020600020905b815481529060010190602001808311612d3a57829003601f168201915b505050505090806001018054612d6c906153a8565b80601f0160208091040260200160405190810160405280929190818152602001828054612d98906153a8565b8015612de55780601f10612dba57610100808354040283529160200191612de5565b820191906000526020600020905b815481529060010190602001808311612dc857829003601f168201915b505050505090806002018054612dfa906153a8565b80601f0160208091040260200160405190810160405280929190818152602001828054612e26906153a8565b8015612e735780601f10612e4857610100808354040283529160200191612e73565b820191906000526020600020905b815481529060010190602001808311612e5657829003601f168201915b5050505050905083565b600981805160208101820180518482526020830160208501208183528095505050505050600091509050806000018054612eb6906153a8565b80601f0160208091040260200160405190810160405280929190818152602001828054612ee2906153a8565b8015612f2f5780601f10612f0457610100808354040283529160200191612f2f565b820191906000526020600020905b815481529060010190602001808311612f1257829003601f168201915b505050505090806001018054612f44906153a8565b80601f0160208091040260200160405190810160405280929190818152602001828054612f70906153a8565b8015612fbd5780601f10612f9257610100808354040283529160200191612fbd565b820191906000526020600020905b815481529060010190602001808311612fa057829003601f168201915b505050505090806002018054612fd2906153a8565b80601f0160208091040260200160405190810160405280929190818152602001828054612ffe906153a8565b801561304b5780601f106130205761010080835404028352916020019161304b565b820191906000526020600020905b81548152906001019060200180831161302e57829003601f168201915b5050505050905083565b6060600a82604051613067919061548c565b90815260200160405180910390208054613080906153a8565b80601f01602080910402602001604051908101604052809291908181526020018280546130ac906153a8565b80156130f95780601f106130ce576101008083540402835291602001916130f9565b820191906000526020600020905b8154815290600101906020018083116130dc57829003601f168201915b50505050509050919050565b60006131c960098360405161311a919061548c565b90815260200160405180910390206000018054613136906153a8565b80601f0160208091040260200160405190810160405280929190818152602001828054613162906153a8565b80156131af5780601f10613184576101008083540402835291602001916131af565b820191906000526020600020905b81548152906001019060200180831161319257829003601f168201915b505050505060405180602001604052806000815250613826565b6131d657600190506131db565b600090505b919050565b6131e8614300565b60006040518060e0016040528088815260200187815260200186815260200185815260200184815260200183815260200160001515815250905061322b816117ea565b61345b5760058190806001815401808255809150506001900390600052602060002090600702016000909190919091506000820151816000019080519060200190613277929190614397565b506020820151816001019080519060200190613294929190614397565b5060408201518160020190805190602001906132b1929190614397565b5060608201518160030190805190602001906132ce929190614397565b5060808201518160040190805190602001906132eb929190614397565b5060a0820151816005019080519060200190613308929190614397565b5060c08201518160060160006101000a81548160ff021916908315150217905550505080600b8460405161333c919061548c565b90815260200160405180910390206000820151816000019080519060200190613366929190614397565b506020820151816001019080519060200190613383929190614397565b5060408201518160020190805190602001906133a0929190614397565b5060608201518160030190805190602001906133bd929190614397565b5060808201518160040190805190602001906133da929190614397565b5060a08201518160050190805190602001906133f7929190614397565b5060c08201518160060160006101000a81548160ff02191690831515021790555090505082600a8360405161342c919061548c565b9081526020016040518091039020908051906020019061344d929190614397565b506001600f81905550613464565b6002600f819055505b50505050505050565b8060039080519060200190613483929190614397565b5050565b6000601454905090565b600b818051602081018201805184825260208301602085012081835280955050505050506000915090508060000180546134ca906153a8565b80601f01602080910402602001604051908101604052809291908181526020018280546134f6906153a8565b80156135435780601f1061351857610100808354040283529160200191613543565b820191906000526020600020905b81548152906001019060200180831161352657829003601f168201915b505050505090806001018054613558906153a8565b80601f0160208091040260200160405190810160405280929190818152602001828054613584906153a8565b80156135d15780601f106135a6576101008083540402835291602001916135d1565b820191906000526020600020905b8154815290600101906020018083116135b457829003601f168201915b5050505050908060020180546135e6906153a8565b80601f0160208091040260200160405190810160405280929190818152602001828054613612906153a8565b801561365f5780601f106136345761010080835404028352916020019161365f565b820191906000526020600020905b81548152906001019060200180831161364257829003601f168201915b505050505090806003018054613674906153a8565b80601f01602080910402602001604051908101604052809291908181526020018280546136a0906153a8565b80156136ed5780601f106136c2576101008083540402835291602001916136ed565b820191906000526020600020905b8154815290600101906020018083116136d057829003601f168201915b505050505090806004018054613702906153a8565b80601f016020809104026020016040519081016040528092919081815260200182805461372e906153a8565b801561377b5780601f106137505761010080835404028352916020019161377b565b820191906000526020600020905b81548152906001019060200180831161375e57829003601f168201915b505050505090806005018054613790906153a8565b80601f01602080910402602001604051908101604052809291908181526020018280546137bc906153a8565b80156138095780601f106137de57610100808354040283529160200191613809565b820191906000526020600020905b8154815290600101906020018083116137ec57829003601f168201915b5050505050908060060160009054906101000a900460ff16905087565b60008180519060200120838051906020012014905092915050565b6012818154811061385157600080fd5b906000526020600020016000915090505481565b6040518060400160405280600681526020017f526573756c740000000000000000000000000000000000000000000000000000815250600d90805190602001906138b0929190614397565b50565b6060600b826040516138c5919061548c565b908152602001604051809103902060010180546138e1906153a8565b80601f016020809104026020016040519081016040528092919081815260200182805461390d906153a8565b801561395a5780601f1061392f5761010080835404028352916020019161395a565b820191906000526020600020905b81548152906001019060200180831161393d57829003601f168201915b50505050509050919050565b606060005b6006805490508110156139ef5760086006828154811061398e5761398d61534a565b5b9060005260206000209060090201600801908060018154018082558091505060019003906000526020600020016000909190919091509080546139d0906153a8565b6139db92919061430a565b5080806139e790615408565b91505061396b565b506008805480602002602001604051908101604052809291908181526020016000905b82821015613abe578382906000526020600020018054613a31906153a8565b80601f0160208091040260200160405190810160405280929190818152602001828054613a5d906153a8565b8015613aaa5780601f10613a7f57610100808354040283529160200191613aaa565b820191906000526020600020905b815481529060010190602001808311613a8d57829003601f168201915b505050505081526020019060010190613a12565b50505050905090565b60606004805480602002602001604051908101604052809291908181526020016000905b82821015613cd35783829060005260206000209060030201604051806060016040529081600082018054613b1e906153a8565b80601f0160208091040260200160405190810160405280929190818152602001828054613b4a906153a8565b8015613b975780601f10613b6c57610100808354040283529160200191613b97565b820191906000526020600020905b815481529060010190602001808311613b7a57829003601f168201915b50505050508152602001600182018054613bb0906153a8565b80601f0160208091040260200160405190810160405280929190818152602001828054613bdc906153a8565b8015613c295780601f10613bfe57610100808354040283529160200191613c29565b820191906000526020600020905b815481529060010190602001808311613c0c57829003601f168201915b50505050508152602001600282018054613c42906153a8565b80601f0160208091040260200160405190810160405280929190818152602001828054613c6e906153a8565b8015613cbb5780601f10613c9057610100808354040283529160200191613cbb565b820191906000526020600020905b815481529060010190602001808311613c9e57829003601f168201915b50505050508152505081526020019060010190613aeb565b50505050905090565b6000613d758260006002018054613cf2906153a8565b80601f0160208091040260200160405190810160405280929190818152602001828054613d1e906153a8565b8015613d6b5780601f10613d4057610100808354040283529160200191613d6b565b820191906000526020600020905b815481529060010190602001808311613d4e57829003601f168201915b5050505050613826565b9050919050565b6000601481905550565b600c81805160208101820180518482526020830160208501208183528095505050505050600091509050806000018054613dbf906153a8565b80601f0160208091040260200160405190810160405280929190818152602001828054613deb906153a8565b8015613e385780601f10613e0d57610100808354040283529160200191613e38565b820191906000526020600020905b815481529060010190602001808311613e1b57829003601f168201915b505050505090806001018054613e4d906153a8565b80601f0160208091040260200160405190810160405280929190818152602001828054613e79906153a8565b8015613ec65780601f10613e9b57610100808354040283529160200191613ec6565b820191906000526020600020905b815481529060010190602001808311613ea957829003601f168201915b505050505090806002018054613edb906153a8565b80601f0160208091040260200160405190810160405280929190818152602001828054613f07906153a8565b8015613f545780601f10613f2957610100808354040283529160200191613f54565b820191906000526020600020905b815481529060010190602001808311613f3757829003601f168201915b505050505090806003018054613f69906153a8565b80601f0160208091040260200160405190810160405280929190818152602001828054613f95906153a8565b8015613fe25780601f10613fb757610100808354040283529160200191613fe2565b820191906000526020600020905b815481529060010190602001808311613fc557829003601f168201915b505050505090806004018054613ff7906153a8565b80601f0160208091040260200160405190810160405280929190818152602001828054614023906153a8565b80156140705780601f1061404557610100808354040283529160200191614070565b820191906000526020600020905b81548152906001019060200180831161405357829003601f168201915b505050505090806005018054614085906153a8565b80601f01602080910402602001604051908101604052809291908181526020018280546140b1906153a8565b80156140fe5780601f106140d3576101008083540402835291602001916140fe565b820191906000526020600020905b8154815290600101906020018083116140e157829003601f168201915b505050505090806006018054614113906153a8565b80601f016020809104026020016040519081016040528092919081815260200182805461413f906153a8565b801561418c5780601f106141615761010080835404028352916020019161418c565b820191906000526020600020905b81548152906001019060200180831161416f57829003601f168201915b5050505050908060070154908060080180546141a7906153a8565b80601f01602080910402602001604051908101604052809291908181526020018280546141d3906153a8565b80156142205780601f106141f557610100808354040283529160200191614220565b820191906000526020600020905b81548152906001019060200180831161420357829003601f168201915b5050505050905089565b6060600a8260405161423c919061548c565b90815260200160405180910390206003908054614258906153a8565b61426392919061430a565b5060038054614271906153a8565b80601f016020809104026020016040519081016040528092919081815260200182805461429d906153a8565b80156142ea5780601f106142bf576101008083540402835291602001916142ea565b820191906000526020600020905b8154815290600101906020018083116142cd57829003601f168201915b50505050509050919050565b6000600e81905550565b6000600f81905550565b828054614316906153a8565b90600052602060002090601f0160209004810192826143385760008555614386565b82601f106143495780548555614386565b8280016001018555821561438657600052602060002091601f016020900482015b8281111561438557825482559160010191906001019061436a565b5b509050614393919061441d565b5090565b8280546143a3906153a8565b90600052602060002090601f0160209004810192826143c5576000855561440c565b82601f106143de57805160ff191683800117855561440c565b8280016001018555821561440c579182015b8281111561440b5782518255916020019190600101906143f0565b5b509050614419919061441d565b5090565b5b8082111561443657600081600090555060010161441e565b5090565b6000819050919050565b61444d8161443a565b82525050565b60006020820190506144686000830184614444565b92915050565b600081519050919050565b600082825260208201905092915050565b6000819050602082019050919050565b600081519050919050565b600082825260208201905092915050565b60005b838110156144d45780820151818401526020810190506144b9565b838111156144e3576000848401525b50505050565b6000601f19601f8301169050919050565b60006145058261449a565b61450f81856144a5565b935061451f8185602086016144b6565b614528816144e9565b840191505092915050565b600061453f83836144fa565b905092915050565b6000602082019050919050565b600061455f8261446e565b6145698185614479565b93508360208202850161457b8561448a565b8060005b858110156145b757848403895281516145988582614533565b94506145a383614547565b925060208a0199505060018101905061457f565b50829750879550505050505092915050565b600060208201905081810360008301526145e38184614554565b905092915050565b600082825260208201905092915050565b60006146078261449a565b61461181856145eb565b93506146218185602086016144b6565b61462a816144e9565b840191505092915050565b6000602082019050818103600083015261464f81846145fc565b905092915050565b6000604051905090565b600080fd5b600080fd5b600080fd5b600080fd5b7f4e487b7100000000000000000000000000000000000000000000000000000000600052604160045260246000fd5b6146ad826144e9565b810181811067ffffffffffffffff821117156146cc576146cb614675565b5b80604052505050565b60006146df614657565b90506146eb82826146a4565b919050565b600067ffffffffffffffff82111561470b5761470a614675565b5b614714826144e9565b9050602081019050919050565b82818337600083830152505050565b600061474361473e846146f0565b6146d5565b90508281526020810184848401111561475f5761475e614670565b5b61476a848285614721565b509392505050565b600082601f8301126147875761478661466b565b5b8135614797848260208601614730565b91505092915050565b600080600080600080600080610100898b0312156147c1576147c0614661565b5b600089013567ffffffffffffffff8111156147df576147de614666565b5b6147eb8b828c01614772565b985050602089013567ffffffffffffffff81111561480c5761480b614666565b5b6148188b828c01614772565b975050604089013567ffffffffffffffff81111561483957614838614666565b5b6148458b828c01614772565b965050606089013567ffffffffffffffff81111561486657614865614666565b5b6148728b828c01614772565b955050608089013567ffffffffffffffff81111561489357614892614666565b5b61489f8b828c01614772565b94505060a089013567ffffffffffffffff8111156148c0576148bf614666565b5b6148cc8b828c01614772565b93505060c089013567ffffffffffffffff8111156148ed576148ec614666565b5b6148f98b828c01614772565b92505060e089013567ffffffffffffffff81111561491a57614919614666565b5b6149268b828c01614772565b9150509295985092959890939650565b61493f8161443a565b811461494a57600080fd5b50565b60008135905061495c81614936565b92915050565b60006020828403121561497857614977614661565b5b60006149868482850161494d565b91505092915050565b60006101208201905081810360008301526149aa818c6145fc565b905081810360208301526149be818b6145fc565b905081810360408301526149d2818a6145fc565b905081810360608301526149e681896145fc565b905081810360808301526149fa81886145fc565b905081810360a0830152614a0e81876145fc565b905081810360c0830152614a2281866145fc565b9050614a3160e0830185614444565b818103610100830152614a4481846145fc565b90509a9950505050505050505050565b600060208284031215614a6a57614a69614661565b5b600082013567ffffffffffffffff811115614a8857614a87614666565b5b614a9484828501614772565b91505092915050565b60008115159050919050565b614ab281614a9d565b82525050565b6000602082019050614acd6000830184614aa9565b92915050565b600081519050919050565b600082825260208201905092915050565b6000819050602082019050919050565b614b088161443a565b82525050565b6000614b1a8383614aff565b60208301905092915050565b6000602082019050919050565b6000614b3e82614ad3565b614b488185614ade565b9350614b5383614aef565b8060005b83811015614b84578151614b6b8882614b0e565b9750614b7683614b26565b925050600181019050614b57565b5085935050505092915050565b60006060820190508181036000830152614bab8186614554565b90508181036020830152614bbf8185614b33565b90508181036040830152614bd38184614554565b9050949350505050565b600080fd5b600080fd5b614bf081614a9d565b8114614bfb57600080fd5b50565b600081359050614c0d81614be7565b92915050565b600060e08284031215614c2957614c28614bdd565b5b614c3360e06146d5565b9050600082013567ffffffffffffffff811115614c5357614c52614be2565b5b614c5f84828501614772565b600083015250602082013567ffffffffffffffff811115614c8357614c82614be2565b5b614c8f84828501614772565b602083015250604082013567ffffffffffffffff811115614cb357614cb2614be2565b5b614cbf84828501614772565b604083015250606082013567ffffffffffffffff811115614ce357614ce2614be2565b5b614cef84828501614772565b606083015250608082013567ffffffffffffffff811115614d1357614d12614be2565b5b614d1f84828501614772565b60808301525060a082013567ffffffffffffffff811115614d4357614d42614be2565b5b614d4f84828501614772565b60a08301525060c0614d6384828501614bfe565b60c08301525092915050565b600060208284031215614d8557614d84614661565b5b600082013567ffffffffffffffff811115614da357614da2614666565b5b614daf84828501614c13565b91505092915050565b60008060408385031215614dcf57614dce614661565b5b600083013567ffffffffffffffff811115614ded57614dec614666565b5b614df985828601614772565b9250506020614e0a8582860161494d565b9150509250929050565b60006060820190508181036000830152614e2e81866145fc565b90508181036020830152614e4281856145fc565b90508181036040830152614e5681846145fc565b9050949350505050565b600080600060608486031215614e7957614e78614661565b5b600084013567ffffffffffffffff811115614e9757614e96614666565b5b614ea386828701614772565b935050602084013567ffffffffffffffff811115614ec457614ec3614666565b5b614ed086828701614772565b9250506040614ee18682870161494d565b9150509250925092565b60008060008060808587031215614f0557614f04614661565b5b600085013567ffffffffffffffff811115614f2357614f22614666565b5b614f2f87828801614772565b945050602085013567ffffffffffffffff811115614f5057614f4f614666565b5b614f5c87828801614772565b935050604085013567ffffffffffffffff811115614f7d57614f7c614666565b5b614f8987828801614772565b925050606085013567ffffffffffffffff811115614faa57614fa9614666565b5b614fb687828801614772565b91505092959194509250565b600060e0820190508181036000830152614fdc818a6145fc565b90508181036020830152614ff081896145fc565b9050818103604083015261500481886145fc565b9050818103606083015261501881876145fc565b9050818103608083015261502c81866145fc565b905081810360a083015261504081856145fc565b905061504f60c0830184614aa9565b98975050505050505050565b60008060008060008060c0878903121561507857615077614661565b5b600087013567ffffffffffffffff81111561509657615095614666565b5b6150a289828a01614772565b965050602087013567ffffffffffffffff8111156150c3576150c2614666565b5b6150cf89828a01614772565b955050604087013567ffffffffffffffff8111156150f0576150ef614666565b5b6150fc89828a01614772565b945050606087013567ffffffffffffffff81111561511d5761511c614666565b5b61512989828a01614772565b935050608087013567ffffffffffffffff81111561514a57615149614666565b5b61515689828a01614772565b92505060a087013567ffffffffffffffff81111561517757615176614666565b5b61518389828a01614772565b9150509295509295509295565b600080604083850312156151a7576151a6614661565b5b600083013567ffffffffffffffff8111156151c5576151c4614666565b5b6151d185828601614772565b925050602083013567ffffffffffffffff8111156151f2576151f1614666565b5b6151fe85828601614772565b9150509250929050565b600081519050919050565b600082825260208201905092915050565b6000819050602082019050919050565b6000606083016000830151848203600086015261525182826144fa565b9150506020830151848203602086015261526b82826144fa565b9150506040830151848203604086015261528582826144fa565b9150508091505092915050565b600061529e8383615234565b905092915050565b6000602082019050919050565b60006152be82615208565b6152c88185615213565b9350836020820285016152da85615224565b8060005b8581101561531657848403895281516152f78582615292565b9450615302836152a6565b925060208a019950506001810190506152de565b50829750879550505050505092915050565b6000602082019050818103600083015261534281846152b3565b905092915050565b7f4e487b7100000000000000000000000000000000000000000000000000000000600052603260045260246000fd5b7f4e487b7100000000000000000000000000000000000000000000000000000000600052602260045260246000fd5b600060028204905060018216806153c057607f821691505b6020821081036153d3576153d2615379565b5b50919050565b7f4e487b7100000000000000000000000000000000000000000000000000000000600052601160045260246000fd5b60006154138261443a565b91507fffffffffffffffffffffffffffffffffffffffffffffffffffffffffffffffff8203615445576154446153d9565b5b600182019050919050565b600081905092915050565b60006154668261449a565b6154708185615450565b93506154808185602086016144b6565b80840191505092915050565b6000615498828461545b565b91508190509291505056fe436f756c64206e6f742063617374206120766f74652c20566f746572206e6f742072656769737465726564212028747279206368616e67696e67206163636f756e74206f6e206d6574616d61736b29a264697066735822122012ffc4ae62fbfef79dba66a2bae6e94acbb874c1cc170a04139f21cbc884fc9a64736f6c634300080d0033307842363633466465333563353936453539374135363630646536373238623462433330326362363737",
  "immutableReferences": {},
  "source": "// SPDX-License-Identifier: MIT\r\npragma solidity ^0.8.10;\r\n\r\nstruct Admin{\r\n    string name;\r\n    string mobileNo;\r\n    string walletKey;\r\n}\r\n\r\nstruct Voter {\r\n    string name;\r\n    string mobileNo;\r\n    string homeAddress;\r\n    string aadharCardNo;\r\n    string voterId;\r\n    string walletKey;\r\n    bool isVoted;\r\n}\r\n\r\nstruct Candidate {\r\n    string name;\r\n    string mobileNo;\r\n    string homeAddress;\r\n    string aadharCardNo;\r\n    string voterId;\r\n    string walletKey;\r\n    string politicalParty;\r\n    uint256 votes;\r\n    string symbolUrl;\r\n}\r\n\r\ncontract BlockVote{\r\n    /* Global Variables START. */\r\n    Admin public ECI = Admin({name:\"ECI_Official\", mobileNo:\"1234567890\", walletKey:\"0xB663Fde35c596E597A5660de6728b4bC302cb677\"});\r\n    string voterId_main=\"\";\r\n    Admin[] public Admins;\r\n    Voter[] public Voters;\r\n    Candidate[] public Candidates;\r\n    string[] public candidate_names;\r\n    string[] public candidate_urls;\r\n    mapping (string=>Admin) public mapWalletKey2Admin;\r\n    // walletKey : voterId\r\n    mapping(string=>string) public map_walletKey_voterid;\r\n    // voterid : Voter;\r\n    mapping(string=>Voter) public map_voterid_details;\r\n    // wallet address : Candidate\r\n    mapping(string=>Candidate) public candidatesMap;\r\n    string votingPhase = \"preVoting\"; // Voting, Result\r\n    /* Global Variables END. */\r\n\r\n    /* ECI Functions START. */\r\n    uint addAdminState;     // 0 -> Not added, 1 -> Added succesfully, 2 -> Admin already exist, 3 -> Invalid ECI.\r\n    \r\n    function startVoting() public {\r\n        votingPhase = \"Voting\";\r\n    }\r\n\r\n    function endVoting() public {\r\n        votingPhase = \"Result\";\r\n    }\r\n    \r\n    function getElectionStatus() public view returns(string memory) {\r\n        return votingPhase;\r\n    }\r\n\r\n    // Set addAdminState = 0.\r\n    function resetAddAdminState() private{\r\n        addAdminState = 0;\r\n    }\r\n\r\n    // Returns state of the last addAdmin call.\r\n    function getAddAdminState() public view returns(uint){\r\n        return addAdminState;\r\n    }\r\n\r\n    function authenticateECI(string memory _walletKey) public view returns(bool) {\r\n        return areStringsEqual(_walletKey, ECI.walletKey);\r\n    }\r\n\r\n    // Add an admin to the blockchain.\r\n    function addAdmin(string memory ECI_Key,string memory adName, string memory adMoNo, string memory adEthKey) public{\r\n        resetAddAdminState();\r\n        if(areStringsEqual(ECI_Key, ECI.walletKey)){\r\n            if(!areStringsEqual(mapWalletKey2Admin[adEthKey].walletKey, adEthKey)) {\r\n                Admin memory newAdmin = Admin({\r\n                    name:adName, \r\n                    mobileNo:adMoNo,\r\n                    walletKey:adEthKey\r\n                });\r\n                Admins.push(newAdmin);\r\n                mapWalletKey2Admin[adEthKey] = newAdmin;\r\n                addAdminState = 1;\r\n            }\r\n            else\r\n                addAdminState = 2;\r\n        }\r\n        else\r\n            addAdminState = 3;   \r\n    }\r\n\r\n    // Returns total number of admins in the blockchain.\r\n    function adminLength() public view returns(uint){\r\n        return Admins.length;\r\n    }\r\n\r\n    // Returns all admins in the blockchain.\r\n    function getAllAdmins() public view returns(Admin[] memory){\r\n        return Admins;\r\n    }\r\n\r\n    function authenticateAdmin(string memory _walletKey) public view returns(bool) {\r\n        if(!areStringsEqual(mapWalletKey2Admin[_walletKey].name,\"\")) return true;\r\n        else return false;\r\n    }\r\n\r\n    /* ECI Functions END. */\r\n\r\n    /* Admin Functions START. */\r\n    /* Admin Functions END. */\r\n\r\n    /* Voter Functions START. */\r\n    uint addVoterState;     // 0: not added, 1: added successfully, 2: already exists\r\n    function resetAddVoterState() private {\r\n        addVoterState = 0;\r\n    }\r\n    function getAddVoterState() public view returns(uint) {\r\n        return addVoterState;\r\n    }\r\n    function addVoter(string memory _name, string memory _mobileNo, string memory _homeAddress,\r\n     string memory _aadharCardNo, string memory _voterId, string memory _walletKey) public {\r\n        resetAddVoterState();\r\n         \r\n        Voter memory newVoter = Voter({\r\n                    name:_name, \r\n                    mobileNo:_mobileNo,\r\n                    homeAddress:_homeAddress,\r\n                    aadharCardNo:_aadharCardNo,\r\n                    voterId:_voterId,\r\n                    walletKey:_walletKey,\r\n                    isVoted:false\r\n        });\r\n        \r\n        if(!isVoterRegistered(newVoter)) {\r\n            Voters.push(newVoter);\r\n            map_voterid_details[_voterId] = newVoter;\r\n            map_walletKey_voterid[_walletKey] = _voterId;\r\n            addVoterState = 1;\r\n        }\r\n        else {\r\n            addVoterState = 2;\r\n        }\r\n        \r\n    }\r\n    function getAllVoters(string memory _walletKey) public view returns(string memory) {\r\n        return map_walletKey_voterid[_walletKey];\r\n    }\r\n    function hasVoted(string memory _voterid) public view returns(bool){\r\n        return map_voterid_details[_voterid].isVoted;\r\n    }\r\n\r\n    function isVoterRegistered(Voter memory item) public view returns(bool) {\r\n        if(!areStringsEqual(map_voterid_details[item.voterId].name,\"\")) return true;\r\n        else return false;\r\n    }\r\n\r\n    function authenticateVoter(string memory _walletKey) public returns(bool) {\r\n        if(!areStringsEqual(map_voterid_details[getVoterId(_walletKey)].name,\"\")) return true;\r\n        else return false;\r\n    }\r\n\r\n    function getVoterId(string memory _walletKey) public returns(string memory) {\r\n        voterId_main = map_walletKey_voterid[_walletKey];\r\n        return voterId_main;\r\n    }\r\n\r\n    function setVoterId(string memory _voterid) public {\r\n        voterId_main = _voterid;\r\n    }\r\n\r\n    function voterLength() public view returns(uint) {\r\n        return Voters.length;\r\n    }\r\n\r\n    function getVoterMobileNumber(string memory _voterid) public view returns(string memory) {\r\n        return map_voterid_details[_voterid].mobileNo;\r\n    }\r\n\r\n    /* Voter Functions END. */\r\n    \r\n    /* Candidate Functions START. */\r\n    uint addCandidateState; // 0: not added, 1: successfully added, 2: already exists\r\n    function addCandidate(string memory _name, string memory _mobileNo, string memory _homeAddress,\r\n     string memory _aadharCardNo, string memory _voterId, string memory _walletKey, string memory _politicalParty, string memory _symbolUrl) public {\r\n        Candidate memory newCandidate = Candidate({\r\n                    name:_name, \r\n                    mobileNo:_mobileNo,\r\n                    homeAddress:_homeAddress,\r\n                    aadharCardNo:_aadharCardNo,\r\n                    voterId:_voterId,\r\n                    walletKey:_walletKey,\r\n                    politicalParty:_politicalParty,\r\n                    votes: 0,\r\n                    symbolUrl: _symbolUrl\r\n        });\r\n        if(!isCandidateRegistered(_walletKey)) {\r\n            Candidates.push(newCandidate);\r\n            candidatesMap[_walletKey] = newCandidate;\r\n            addVoter( _name, _mobileNo,  _homeAddress,\r\n                _aadharCardNo, _voterId,  _walletKey);\r\n            addCandidateState = 1;\r\n        }\r\n        else {\r\n            addCandidateState = 2;\r\n        }   \r\n    }\r\n\r\n    function isCandidateRegistered(string memory _walletKey) public view returns(bool){\r\n        if(!areStringsEqual(candidatesMap[_walletKey].name,\"\"))return true;\r\n        else return false;\r\n    }\r\n\r\n    function getCandidates() public returns(string[] memory) {\r\n        for(uint256 i=0;i<Candidates.length;i++) {\r\n        candidate_names.push(Candidates[i].name);\r\n        }\r\n        return candidate_names;\r\n    }\r\n\r\n    function getUrls() public returns(string[] memory) {\r\n        for(uint256 i=0;i<Candidates.length;i++) {\r\n            candidate_urls.push(Candidates[i].symbolUrl);\r\n        }\r\n        return candidate_urls;\r\n    }\r\n    \r\n    \r\n\r\n    /* Candidate Functions END. */\r\n\r\n    /* Results Functions START */\r\n    /* returns (candidates, votes, symbolUrls), receives object with 3 keys (0 : candidates array, 1 : votes array, 2: symbolUrls array) */\r\n    \r\n    string[] public _candidates;\r\n    uint256[] public _votes;\r\n    string[] public _symbolUrls;\r\n    function getResults() public returns(string[] memory, uint256[] memory, string[] memory) {\r\n        if(areStringsEqual(votingPhase, \"Result\")){\r\n            for(uint256 i=0;i<Candidates.length;i++) {\r\n                _candidates.push(Candidates[i].name);\r\n                _votes.push(Candidates[i].votes);\r\n                _symbolUrls.push(Candidates[i].symbolUrl);\r\n            }    \r\n        }\r\n        return (_candidates, _votes, _symbolUrls);\r\n    }\r\n    /* Results Functions END */\r\n\r\n    /* Voting Functions START */ \r\n    uint voteState = 0; //0:not voted, 1: successfully voted, 2:already voted\r\n    function setVoteState() public {\r\n        voteState = 0;\r\n    }\r\n    function getVoteState() public view returns(uint) {\r\n        return voteState;\r\n    }\r\n    function vote(string memory _voterId, string memory _walletKey, uint256 choice) public returns(string memory) {\r\n        setVoteState();\r\n        if(areStringsEqual(map_voterid_details[_voterId].walletKey, _walletKey)) {\r\n            if(!map_voterid_details[_voterId].isVoted) {\r\n                Candidates[choice].votes++;\r\n                string memory temp_walletKey = Candidates[choice].walletKey;\r\n                candidatesMap[temp_walletKey].votes++;\r\n                map_voterid_details[_voterId].isVoted = true;\r\n                for(uint256 i=0;i<Voters.length;i++) {\r\n                    if(areStringsEqual(Voters[i].voterId, _voterId)){\r\n                        Voters[i].isVoted = true;\r\n                        break;\r\n                    }\r\n                }\r\n                voteState = 1;\r\n                return \"Vote casted successfully!\";\r\n                \r\n            }\r\n            voteState = 2;\r\n            return \"Voter has already voted!\";\r\n        }\r\n        return \"Could not cast a vote, Voter not registered! (try changing account on metamask)\";\r\n    }\r\n    uint voteThroughAdminState = 0; // 0: not voted, 1:successfully voted, 2:already voted\r\n    function getVoteThroughAdminState() public view returns(uint) {\r\n        return voteThroughAdminState;\r\n    }\r\n    function voteThroughAdmin(string memory _voterId, uint256 choice) public returns(string memory) {\r\n        voteThroughAdminState = 0;\r\n        if(!map_voterid_details[_voterId].isVoted) {\r\n            Candidates[choice].votes++;\r\n            string memory temp_walletKey = Candidates[choice].walletKey;\r\n            candidatesMap[temp_walletKey].votes++;\r\n            map_voterid_details[_voterId].isVoted = true;\r\n            for(uint256 i=0;i<Voters.length;i++) {\r\n                if(areStringsEqual(Voters[i].voterId, _voterId)){\r\n                    Voters[i].isVoted = true;\r\n                    break;\r\n                }\r\n            }\r\n            voteThroughAdminState = 1;\r\n            return \"Vote casted successfully!\";\r\n        }\r\n        voteThroughAdminState = 2;\r\n        return \"Voter has already voted!\";\r\n    }\r\n    /* Voting Functions END */ \r\n\r\n    /* Utility Functions START. */\r\n    function areStringsEqual(string memory S1, string memory S2) public pure returns(bool){\r\n        return keccak256(bytes(S1)) == keccak256(bytes(S2));\r\n    }\r\n\r\n    function sampleValue() public pure returns(uint){\r\n        return 5;\r\n    }\r\n    /* Utility Functions END. */\r\n}\r\n",
  "sourcePath": "D:\\Blockchain-Projects\\BlockVote\\contracts\\BlockVote.sol",
  "compiler": {
    "name": "solc",
    "version": "0.8.13+commit.abaa5c0e.Emscripten.clang"
  },
  "schemaVersion": "3.4.4",
  "updatedAt": "2022-04-04T10:11:48.298Z",
  "networkType": "ethereum",
  "devdoc": {
    "kind": "dev",
    "methods": {},
    "version": 1
  },
  "userdoc": {
    "kind": "user",
    "methods": {},
    "version": 1
  }
}