{
  "contractName": "BlockVote",
  "abi": [
    {
      "inputs": [
        {
          "internalType": "uint256",
          "name": "",
          "type": "uint256"
        }
      ],
      "name": "Admins",
      "outputs": [
        {
          "internalType": "string",
          "name": "name",
          "type": "string"
        },
        {
          "internalType": "string",
          "name": "mobileNo",
          "type": "string"
        },
        {
          "internalType": "string",
          "name": "walletKey",
          "type": "string"
        }
      ],
      "stateMutability": "view",
      "type": "function",
      "constant": true
    },
    {
      "inputs": [
        {
          "internalType": "uint256",
          "name": "",
          "type": "uint256"
        }
      ],
      "name": "Candidates",
      "outputs": [
        {
          "internalType": "string",
          "name": "name",
          "type": "string"
        },
        {
          "internalType": "string",
          "name": "mobileNo",
          "type": "string"
        },
        {
          "internalType": "string",
          "name": "homeAddress",
          "type": "string"
        },
        {
          "internalType": "string",
          "name": "aadharCardNo",
          "type": "string"
        },
        {
          "internalType": "string",
          "name": "voterId",
          "type": "string"
        },
        {
          "internalType": "string",
          "name": "walletKey",
          "type": "string"
        },
        {
          "internalType": "string",
          "name": "politicalParty",
          "type": "string"
        },
        {
          "internalType": "uint256",
          "name": "votes",
          "type": "uint256"
        },
        {
          "internalType": "string",
          "name": "symbolUrl",
          "type": "string"
        }
      ],
      "stateMutability": "view",
      "type": "function",
      "constant": true
    },
    {
      "inputs": [],
      "name": "ECI",
      "outputs": [
        {
          "internalType": "string",
          "name": "name",
          "type": "string"
        },
        {
          "internalType": "string",
          "name": "mobileNo",
          "type": "string"
        },
        {
          "internalType": "string",
          "name": "walletKey",
          "type": "string"
        }
      ],
      "stateMutability": "view",
      "type": "function",
      "constant": true
    },
    {
      "inputs": [
        {
          "internalType": "uint256",
          "name": "",
          "type": "uint256"
        }
      ],
      "name": "Voters",
      "outputs": [
        {
          "internalType": "string",
          "name": "name",
          "type": "string"
        },
        {
          "internalType": "string",
          "name": "mobileNo",
          "type": "string"
        },
        {
          "internalType": "string",
          "name": "homeAddress",
          "type": "string"
        },
        {
          "internalType": "string",
          "name": "aadharCardNo",
          "type": "string"
        },
        {
          "internalType": "string",
          "name": "voterId",
          "type": "string"
        },
        {
          "internalType": "string",
          "name": "walletKey",
          "type": "string"
        },
        {
          "internalType": "bool",
          "name": "isVoted",
          "type": "bool"
        }
      ],
      "stateMutability": "view",
      "type": "function",
      "constant": true
    },
    {
      "inputs": [
        {
          "internalType": "uint256",
          "name": "",
          "type": "uint256"
        }
      ],
      "name": "_candidates",
      "outputs": [
        {
          "internalType": "string",
          "name": "",
          "type": "string"
        }
      ],
      "stateMutability": "view",
      "type": "function",
      "constant": true
    },
    {
      "inputs": [
        {
          "internalType": "uint256",
          "name": "",
          "type": "uint256"
        }
      ],
      "name": "_symbolUrls",
      "outputs": [
        {
          "internalType": "string",
          "name": "",
          "type": "string"
        }
      ],
      "stateMutability": "view",
      "type": "function",
      "constant": true
    },
    {
      "inputs": [
        {
          "internalType": "uint256",
          "name": "",
          "type": "uint256"
        }
      ],
      "name": "_votes",
      "outputs": [
        {
          "internalType": "uint256",
          "name": "",
          "type": "uint256"
        }
      ],
      "stateMutability": "view",
      "type": "function",
      "constant": true
    },
    {
      "inputs": [
        {
          "internalType": "uint256",
          "name": "",
          "type": "uint256"
        }
      ],
      "name": "candidate_names",
      "outputs": [
        {
          "internalType": "string",
          "name": "",
          "type": "string"
        }
      ],
      "stateMutability": "view",
      "type": "function",
      "constant": true
    },
    {
      "inputs": [
        {
          "internalType": "string",
          "name": "",
          "type": "string"
        }
      ],
      "name": "candidatesMap",
      "outputs": [
        {
          "internalType": "string",
          "name": "name",
          "type": "string"
        },
        {
          "internalType": "string",
          "name": "mobileNo",
          "type": "string"
        },
        {
          "internalType": "string",
          "name": "homeAddress",
          "type": "string"
        },
        {
          "internalType": "string",
          "name": "aadharCardNo",
          "type": "string"
        },
        {
          "internalType": "string",
          "name": "voterId",
          "type": "string"
        },
        {
          "internalType": "string",
          "name": "walletKey",
          "type": "string"
        },
        {
          "internalType": "string",
          "name": "politicalParty",
          "type": "string"
        },
        {
          "internalType": "uint256",
          "name": "votes",
          "type": "uint256"
        },
        {
          "internalType": "string",
          "name": "symbolUrl",
          "type": "string"
        }
      ],
      "stateMutability": "view",
      "type": "function",
      "constant": true
    },
    {
      "inputs": [
        {
          "internalType": "string",
          "name": "",
          "type": "string"
        }
      ],
      "name": "mapWalletKey2Admin",
      "outputs": [
        {
          "internalType": "string",
          "name": "name",
          "type": "string"
        },
        {
          "internalType": "string",
          "name": "mobileNo",
          "type": "string"
        },
        {
          "internalType": "string",
          "name": "walletKey",
          "type": "string"
        }
      ],
      "stateMutability": "view",
      "type": "function",
      "constant": true
    },
    {
      "inputs": [
        {
          "internalType": "string",
          "name": "",
          "type": "string"
        }
      ],
      "name": "map_voterid_details",
      "outputs": [
        {
          "internalType": "string",
          "name": "name",
          "type": "string"
        },
        {
          "internalType": "string",
          "name": "mobileNo",
          "type": "string"
        },
        {
          "internalType": "string",
          "name": "homeAddress",
          "type": "string"
        },
        {
          "internalType": "string",
          "name": "aadharCardNo",
          "type": "string"
        },
        {
          "internalType": "string",
          "name": "voterId",
          "type": "string"
        },
        {
          "internalType": "string",
          "name": "walletKey",
          "type": "string"
        },
        {
          "internalType": "bool",
          "name": "isVoted",
          "type": "bool"
        }
      ],
      "stateMutability": "view",
      "type": "function",
      "constant": true
    },
    {
      "inputs": [
        {
          "internalType": "string",
          "name": "",
          "type": "string"
        }
      ],
      "name": "map_walletKey_voterid",
      "outputs": [
        {
          "internalType": "string",
          "name": "",
          "type": "string"
        }
      ],
      "stateMutability": "view",
      "type": "function",
      "constant": true
    },
    {
      "inputs": [],
      "name": "startVoting",
      "outputs": [],
      "stateMutability": "nonpayable",
      "type": "function"
    },
    {
      "inputs": [],
      "name": "endVoting",
      "outputs": [],
      "stateMutability": "nonpayable",
      "type": "function"
    },
    {
      "inputs": [],
      "name": "getAddAdminState",
      "outputs": [
        {
          "internalType": "uint256",
          "name": "",
          "type": "uint256"
        }
      ],
      "stateMutability": "view",
      "type": "function",
      "constant": true
    },
    {
      "inputs": [
        {
          "internalType": "string",
          "name": "_walletKey",
          "type": "string"
        }
      ],
      "name": "authenticateECI",
      "outputs": [
        {
          "internalType": "bool",
          "name": "",
          "type": "bool"
        }
      ],
      "stateMutability": "view",
      "type": "function",
      "constant": true
    },
    {
      "inputs": [
        {
          "internalType": "string",
          "name": "ECI_Key",
          "type": "string"
        },
        {
          "internalType": "string",
          "name": "adName",
          "type": "string"
        },
        {
          "internalType": "string",
          "name": "adMoNo",
          "type": "string"
        },
        {
          "internalType": "string",
          "name": "adEthKey",
          "type": "string"
        }
      ],
      "name": "addAdmin",
      "outputs": [],
      "stateMutability": "nonpayable",
      "type": "function"
    },
    {
      "inputs": [],
      "name": "adminLength",
      "outputs": [
        {
          "internalType": "uint256",
          "name": "",
          "type": "uint256"
        }
      ],
      "stateMutability": "view",
      "type": "function",
      "constant": true
    },
    {
      "inputs": [],
      "name": "getAllAdmins",
      "outputs": [
        {
          "components": [
            {
              "internalType": "string",
              "name": "name",
              "type": "string"
            },
            {
              "internalType": "string",
              "name": "mobileNo",
              "type": "string"
            },
            {
              "internalType": "string",
              "name": "walletKey",
              "type": "string"
            }
          ],
          "internalType": "struct Admin[]",
          "name": "",
          "type": "tuple[]"
        }
      ],
      "stateMutability": "view",
      "type": "function",
      "constant": true
    },
    {
      "inputs": [
        {
          "internalType": "string",
          "name": "_name",
          "type": "string"
        },
        {
          "internalType": "string",
          "name": "_mobileNo",
          "type": "string"
        },
        {
          "internalType": "string",
          "name": "_homeAddress",
          "type": "string"
        },
        {
          "internalType": "string",
          "name": "_aadharCardNo",
          "type": "string"
        },
        {
          "internalType": "string",
          "name": "_voterId",
          "type": "string"
        },
        {
          "internalType": "string",
          "name": "_walletKey",
          "type": "string"
        }
      ],
      "name": "addVoter",
      "outputs": [],
      "stateMutability": "nonpayable",
      "type": "function"
    },
    {
      "inputs": [
        {
          "internalType": "string",
          "name": "_voterid",
          "type": "string"
        }
      ],
      "name": "hasVoted",
      "outputs": [
        {
          "internalType": "bool",
          "name": "",
          "type": "bool"
        }
      ],
      "stateMutability": "view",
      "type": "function",
      "constant": true
    },
    {
      "inputs": [
        {
          "components": [
            {
              "internalType": "string",
              "name": "name",
              "type": "string"
            },
            {
              "internalType": "string",
              "name": "mobileNo",
              "type": "string"
            },
            {
              "internalType": "string",
              "name": "homeAddress",
              "type": "string"
            },
            {
              "internalType": "string",
              "name": "aadharCardNo",
              "type": "string"
            },
            {
              "internalType": "string",
              "name": "voterId",
              "type": "string"
            },
            {
              "internalType": "string",
              "name": "walletKey",
              "type": "string"
            },
            {
              "internalType": "bool",
              "name": "isVoted",
              "type": "bool"
            }
          ],
          "internalType": "struct Voter",
          "name": "item",
          "type": "tuple"
        }
      ],
      "name": "isVoterRegistered",
      "outputs": [
        {
          "internalType": "bool",
          "name": "",
          "type": "bool"
        }
      ],
      "stateMutability": "view",
      "type": "function",
      "constant": true
    },
    {
      "inputs": [
        {
          "internalType": "string",
          "name": "_walletKey",
          "type": "string"
        }
      ],
      "name": "authenticateVoter",
      "outputs": [
        {
          "internalType": "bool",
          "name": "",
          "type": "bool"
        }
      ],
      "stateMutability": "nonpayable",
      "type": "function"
    },
    {
      "inputs": [
        {
          "internalType": "string",
          "name": "_walletKey",
          "type": "string"
        }
      ],
      "name": "getVoterId",
      "outputs": [
        {
          "internalType": "string",
          "name": "",
          "type": "string"
        }
      ],
      "stateMutability": "nonpayable",
      "type": "function"
    },
    {
      "inputs": [
        {
          "internalType": "string",
          "name": "_voterid",
          "type": "string"
        }
      ],
      "name": "setVoterId",
      "outputs": [],
      "stateMutability": "nonpayable",
      "type": "function"
    },
    {
      "inputs": [],
      "name": "voterLength",
      "outputs": [
        {
          "internalType": "uint256",
          "name": "",
          "type": "uint256"
        }
      ],
      "stateMutability": "view",
      "type": "function",
      "constant": true
    },
    {
      "inputs": [
        {
          "internalType": "string",
          "name": "_voterid",
          "type": "string"
        }
      ],
      "name": "getVoterMobileNumber",
      "outputs": [
        {
          "internalType": "string",
          "name": "",
          "type": "string"
        }
      ],
      "stateMutability": "view",
      "type": "function",
      "constant": true
    },
    {
      "inputs": [
        {
          "internalType": "string",
          "name": "_name",
          "type": "string"
        },
        {
          "internalType": "string",
          "name": "_mobileNo",
          "type": "string"
        },
        {
          "internalType": "string",
          "name": "_homeAddress",
          "type": "string"
        },
        {
          "internalType": "string",
          "name": "_aadharCardNo",
          "type": "string"
        },
        {
          "internalType": "string",
          "name": "_voterId",
          "type": "string"
        },
        {
          "internalType": "string",
          "name": "_walletKey",
          "type": "string"
        },
        {
          "internalType": "string",
          "name": "_politicalParty",
          "type": "string"
        },
        {
          "internalType": "string",
          "name": "_symbolUrl",
          "type": "string"
        }
      ],
      "name": "addCandidate",
      "outputs": [],
      "stateMutability": "nonpayable",
      "type": "function"
    },
    {
      "inputs": [
        {
          "internalType": "string",
          "name": "_walletKey",
          "type": "string"
        }
      ],
      "name": "isCandidateRegistered",
      "outputs": [
        {
          "internalType": "bool",
          "name": "",
          "type": "bool"
        }
      ],
      "stateMutability": "view",
      "type": "function",
      "constant": true
    },
    {
      "inputs": [],
      "name": "getCandidates",
      "outputs": [
        {
          "internalType": "string[]",
          "name": "",
          "type": "string[]"
        }
      ],
      "stateMutability": "nonpayable",
      "type": "function"
    },
    {
      "inputs": [],
      "name": "getResults",
      "outputs": [
        {
          "internalType": "string[]",
          "name": "",
          "type": "string[]"
        },
        {
          "internalType": "uint256[]",
          "name": "",
          "type": "uint256[]"
        },
        {
          "internalType": "string[]",
          "name": "",
          "type": "string[]"
        }
      ],
      "stateMutability": "nonpayable",
      "type": "function"
    },
    {
      "inputs": [
        {
          "internalType": "string",
          "name": "_voterId",
          "type": "string"
        },
        {
          "internalType": "string",
          "name": "_walletKey",
          "type": "string"
        },
        {
          "internalType": "uint256",
          "name": "choice",
          "type": "uint256"
        }
      ],
      "name": "vote",
      "outputs": [
        {
          "internalType": "string",
          "name": "",
          "type": "string"
        }
      ],
      "stateMutability": "nonpayable",
      "type": "function"
    },
    {
      "inputs": [
        {
          "internalType": "string",
          "name": "_voterId",
          "type": "string"
        },
        {
          "internalType": "uint256",
          "name": "choice",
          "type": "uint256"
        }
      ],
      "name": "voteThroughAdmin",
      "outputs": [
        {
          "internalType": "string",
          "name": "",
          "type": "string"
        }
      ],
      "stateMutability": "nonpayable",
      "type": "function"
    },
    {
      "inputs": [
        {
          "internalType": "string",
          "name": "S1",
          "type": "string"
        },
        {
          "internalType": "string",
          "name": "S2",
          "type": "string"
        }
      ],
      "name": "areStringsEqual",
      "outputs": [
        {
          "internalType": "bool",
          "name": "",
          "type": "bool"
        }
      ],
      "stateMutability": "pure",
      "type": "function",
      "constant": true
    },
    {
      "inputs": [],
      "name": "sampleValue",
      "outputs": [
        {
          "internalType": "uint256",
          "name": "",
          "type": "uint256"
        }
      ],
      "stateMutability": "pure",
      "type": "function",
      "constant": true
    }
  ],
  "bytecode": "0x608060405260405180606001604052806040518060400160405280600c81526020017f4543495f4f6666696369616c000000000000000000000000000000000000000081525081526020016040518060400160405280600a81526020017f313233343536373839300000000000000000000000000000000000000000000081525081526020016040518060600160405280602a815260200162005187602a9139815250600080820151816000019080519060200190620000c19291906200018c565b506020820151816001019080519060200190620000e09291906200018c565b506040820151816002019080519060200190620000ff9291906200018c565b5050506040518060200160405280600081525060039080519060200190620001299291906200018c565b506040518060400160405280600981526020017f707265566f74696e670000000000000000000000000000000000000000000000815250600c9080519060200190620001779291906200018c565b503480156200018557600080fd5b50620002a0565b8280546200019a906200026b565b90600052602060002090601f016020900481019282620001be57600085556200020a565b82601f10620001d957805160ff19168380011785556200020a565b828001600101855582156200020a579182015b8281111562000209578251825591602001919060010190620001ec565b5b5090506200021991906200021d565b5090565b5b80821115620002385760008160009055506001016200021e565b5090565b7f4e487b7100000000000000000000000000000000000000000000000000000000600052602260045260246000fd5b600060028204905060018216806200028457607f821691505b6020821081036200029a57620002996200023c565b5b50919050565b614ed780620002b06000396000f3fe608060405234801561001057600080fd5b50600436106102115760003560e01c80637a4c96ad11610125578063aebd20f0116100ad578063c4082bea1161007c578063c4082bea146106b8578063e9523c97146106e8578063eb03cd2214610706578063f372514614610736578063f6249c041461076e57610211565b8063aebd20f014610618578063b1496cd41461064e578063bea488941461067e578063c3403ddf146106ae57610211565b80639f6e5e6d116100f45780639f6e5e6d1461054c5780639f89a4b21461057c578063a3a8908d146105ae578063a7254051146105e0578063a7d27b03146105fc57610211565b80637a4c96ad1461049a5780637d112d64146104ca5780638a25d072146104fa5780639c35d98b1461051657610211565b80634fbe75c1116101a85780635982f610116101775780635982f610146103f0578063609b62581461040e578063622eaa141461042c578063648a305a1461044c5780637820d3841461047c57610211565b80634fbe75c1146103305780635097086f1461036057806351b0906514610390578063565e802a146103c057610211565b80632ec66043116101e45780632ec660431461029257806339bfeae3146102c25780634717f97c146102f2578063481edc121461031257610211565b806306a49fce1461021657806313bad72f146102345780631ec6b60a14610250578063290e92121461025a575b600080fd5b61021e61079e565b60405161022b9190613f44565b60405180910390f35b61024e600480360381019061024991906140af565b6108ff565b005b610258610ba1565b005b610274600480360381019061026f919061427b565b610bef565b60405161028999989796959493929190614301565b60405180910390f35b6102ac60048036038101906102a791906143c6565b61108d565b6040516102b9919061440f565b60405180910390f35b6102dc60048036038101906102d791906143c6565b611143565b6040516102e9919061444c565b60405180910390f35b6102fa61117b565b60405161030993929190614525565b60405180910390f35b61031a611592565b6040516103279190614571565b60405180910390f35b61034a6004803603810190610345919061471e565b61159c565b604051610357919061444c565b60405180910390f35b61037a60048036038101906103759190614767565b61167b565b604051610387919061440f565b60405180910390f35b6103aa60048036038101906103a5919061427b565b6119ae565b6040516103b7919061440f565b60405180910390f35b6103da60048036038101906103d591906143c6565b611a5a565b6040516103e7919061444c565b60405180910390f35b6103f8611b35565b6040516104059190614571565b60405180910390f35b610416611b42565b6040516104239190614571565b60405180910390f35b610434611b4b565b604051610443939291906147c3565b60405180910390f35b6104666004803603810190610461919061427b565b611cfb565b604051610473919061440f565b60405180910390f35b610484611da7565b6040516104919190614571565b60405180910390f35b6104b460048036038101906104af919061480f565b611db4565b6040516104c1919061440f565b60405180910390f35b6104e460048036038101906104df91906143c6565b6121c0565b6040516104f1919061444c565b60405180910390f35b610514600480360381019061050f919061489a565b6122a3565b005b610530600480360381019061052b919061427b565b612546565b6040516105439796959493929190614971565b60405180910390f35b6105666004803603810190610561919061427b565b6128d5565b604051610573919061440f565b60405180910390f35b6105966004803603810190610591919061427b565b612981565b6040516105a5939291906147c3565b60405180910390f35b6105c860048036038101906105c391906143c6565b612b53565b6040516105d7939291906147c3565b60405180910390f35b6105fa60048036038101906105f59190614a0a565b612d2b565b005b610616600480360381019061061191906143c6565b612f9b565b005b610632600480360381019061062d91906143c6565b612fb5565b6040516106459796959493929190614971565b60405180910390f35b61066860048036038101906106639190614b3f565b61334a565b604051610675919061444c565b60405180910390f35b6106986004803603810190610693919061427b565b613365565b6040516106a59190614571565b60405180910390f35b6106b6613389565b005b6106d260048036038101906106cd91906143c6565b6133d7565b6040516106df919061440f565b60405180910390f35b6106f061348a565b6040516106fd9190614cd7565b60405180910390f35b610720600480360381019061071b91906143c6565b61369f565b60405161072d919061444c565b60405180910390f35b610750600480360381019061074b91906143c6565b61373f565b60405161076599989796959493929190614301565b60405180910390f35b610788600480360381019061078391906143c6565b613be3565b604051610795919061440f565b60405180910390f35b606060005b600680549050811015610827576007600682815481106107c6576107c5614cf9565b5b90600052602060002090600902016000019080600181540180825580915050600190039060005260206000200160009091909190915090805461080890614d57565b610813929190613cb9565b50808061081f90614db7565b9150506107a3565b506007805480602002602001604051908101604052809291908181526020016000905b828210156108f657838290600052602060002001805461086990614d57565b80601f016020809104026020016040519081016040528092919081815260200182805461089590614d57565b80156108e25780601f106108b7576101008083540402835291602001916108e2565b820191906000526020600020905b8154815290600101906020018083116108c557829003601f168201915b50505050508152602001906001019061084a565b50505050905090565b60006040518061012001604052808a81526020018981526020018881526020018781526020018681526020018581526020018481526020016000815260200183815250905061094d84611a5a565b610b965760068190806001815401808255809150506001900390600052602060002090600902016000909190919091506000820151816000019080519060200190610999929190613d46565b5060208201518160010190805190602001906109b6929190613d46565b5060408201518160020190805190602001906109d3929190613d46565b5060608201518160030190805190602001906109f0929190613d46565b506080820151816004019080519060200190610a0d929190613d46565b5060a0820151816005019080519060200190610a2a929190613d46565b5060c0820151816006019080519060200190610a47929190613d46565b5060e08201518160070155610100820151816008019080519060200190610a6f929190613d46565b50505080600b85604051610a839190614e3b565b90815260200160405180910390206000820151816000019080519060200190610aad929190613d46565b506020820151816001019080519060200190610aca929190613d46565b506040820151816002019080519060200190610ae7929190613d46565b506060820151816003019080519060200190610b04929190613d46565b506080820151816004019080519060200190610b21929190613d46565b5060a0820151816005019080519060200190610b3e929190613d46565b5060c0820151816006019080519060200190610b5b929190613d46565b5060e08201518160070155610100820151816008019080519060200190610b83929190613d46565b50905050610b95898989898989612d2b565b5b505050505050505050565b6040518060400160405280600681526020017f566f74696e670000000000000000000000000000000000000000000000000000815250600c9080519060200190610bec929190613d46565b50565b60068181548110610bff57600080fd5b9060005260206000209060090201600091509050806000018054610c2290614d57565b80601f0160208091040260200160405190810160405280929190818152602001828054610c4e90614d57565b8015610c9b5780601f10610c7057610100808354040283529160200191610c9b565b820191906000526020600020905b815481529060010190602001808311610c7e57829003601f168201915b505050505090806001018054610cb090614d57565b80601f0160208091040260200160405190810160405280929190818152602001828054610cdc90614d57565b8015610d295780601f10610cfe57610100808354040283529160200191610d29565b820191906000526020600020905b815481529060010190602001808311610d0c57829003601f168201915b505050505090806002018054610d3e90614d57565b80601f0160208091040260200160405190810160405280929190818152602001828054610d6a90614d57565b8015610db75780601f10610d8c57610100808354040283529160200191610db7565b820191906000526020600020905b815481529060010190602001808311610d9a57829003601f168201915b505050505090806003018054610dcc90614d57565b80601f0160208091040260200160405190810160405280929190818152602001828054610df890614d57565b8015610e455780601f10610e1a57610100808354040283529160200191610e45565b820191906000526020600020905b815481529060010190602001808311610e2857829003601f168201915b505050505090806004018054610e5a90614d57565b80601f0160208091040260200160405190810160405280929190818152602001828054610e8690614d57565b8015610ed35780601f10610ea857610100808354040283529160200191610ed3565b820191906000526020600020905b815481529060010190602001808311610eb657829003601f168201915b505050505090806005018054610ee890614d57565b80601f0160208091040260200160405190810160405280929190818152602001828054610f1490614d57565b8015610f615780601f10610f3657610100808354040283529160200191610f61565b820191906000526020600020905b815481529060010190602001808311610f4457829003601f168201915b505050505090806006018054610f7690614d57565b80601f0160208091040260200160405190810160405280929190818152602001828054610fa290614d57565b8015610fef5780601f10610fc457610100808354040283529160200191610fef565b820191906000526020600020905b815481529060010190602001808311610fd257829003601f168201915b50505050509080600701549080600801805461100a90614d57565b80601f016020809104026020016040519081016040528092919081815260200182805461103690614d57565b80156110835780601f1061105857610100808354040283529160200191611083565b820191906000526020600020905b81548152906001019060200180831161106657829003601f168201915b5050505050905089565b60098180516020810182018051848252602083016020850120818352809550505050505060009150905080546110c290614d57565b80601f01602080910402602001604051908101604052809291908181526020018280546110ee90614d57565b801561113b5780601f106111105761010080835404028352916020019161113b565b820191906000526020600020905b81548152906001019060200180831161111e57829003601f168201915b505050505081565b6000600a826040516111559190614e3b565b908152602001604051809103902060060160009054906101000a900460ff169050919050565b6060806060611249600c805461119090614d57565b80601f01602080910402602001604051908101604052809291908181526020018280546111bc90614d57565b80156112095780601f106111de57610100808354040283529160200191611209565b820191906000526020600020905b8154815290600101906020018083116111ec57829003601f168201915b50505050506040518060400160405280600681526020017f526573756c74000000000000000000000000000000000000000000000000000081525061334a565b156113895760005b60068054905081101561138757600e6006828154811061127457611273614cf9565b5b9060005260206000209060090201600001908060018154018082558091505060019003906000526020600020016000909190919091509080546112b690614d57565b6112c1929190613cb9565b50600f600682815481106112d8576112d7614cf9565b5b906000526020600020906009020160070154908060018154018082558091505060019003906000526020600020016000909190919091505560106006828154811061132657611325614cf9565b5b90600052602060002090600902016008019080600181540180825580915050600190039060005260206000200160009091909190915090805461136890614d57565b611373929190613cb9565b50808061137f90614db7565b915050611251565b505b600e600f601082805480602002602001604051908101604052809291908181526020016000905b8282101561145c5783829060005260206000200180546113cf90614d57565b80601f01602080910402602001604051908101604052809291908181526020018280546113fb90614d57565b80156114485780601f1061141d57610100808354040283529160200191611448565b820191906000526020600020905b81548152906001019060200180831161142b57829003601f168201915b5050505050815260200190600101906113b0565b505050509250818054806020026020016040519081016040528092919081815260200182805480156114ad57602002820191906000526020600020905b815481526020019060010190808311611499575b5050505050915080805480602002602001604051908101604052809291908181526020016000905b828210156115815783829060005260206000200180546114f490614d57565b80601f016020809104026020016040519081016040528092919081815260200182805461152090614d57565b801561156d5780601f106115425761010080835404028352916020019161156d565b820191906000526020600020905b81548152906001019060200180831161155057829003601f168201915b5050505050815260200190600101906114d5565b505050509050925092509250909192565b6000600d54905090565b6000611664600a83608001516040516115b59190614e3b565b908152602001604051809103902060000180546115d190614d57565b80601f01602080910402602001604051908101604052809291908181526020018280546115fd90614d57565b801561164a5780601f1061161f5761010080835404028352916020019161164a565b820191906000526020600020905b81548152906001019060200180831161162d57829003601f168201915b50505050506040518060200160405280600081525061334a565b6116715760019050611676565b600090505b919050565b6060600a8360405161168d9190614e3b565b908152602001604051809103902060060160009054906101000a900460ff1661196f57600682815481106116c4576116c3614cf9565b5b906000526020600020906009020160070160008154809291906116e690614db7565b919050555060006006838154811061170157611700614cf9565b5b9060005260206000209060090201600501805461171d90614d57565b80601f016020809104026020016040519081016040528092919081815260200182805461174990614d57565b80156117965780601f1061176b57610100808354040283529160200191611796565b820191906000526020600020905b81548152906001019060200180831161177957829003601f168201915b50505050509050600b816040516117ad9190614e3b565b908152602001604051809103902060070160008154809291906117cf90614db7565b91905055506001600a856040516117e69190614e3b565b908152602001604051809103902060060160006101000a81548160ff02191690831515021790555060005b600580549050811015611930576118d56005828154811061183557611834614cf9565b5b9060005260206000209060070201600401805461185190614d57565b80601f016020809104026020016040519081016040528092919081815260200182805461187d90614d57565b80156118ca5780601f1061189f576101008083540402835291602001916118ca565b820191906000526020600020905b8154815290600101906020018083116118ad57829003601f168201915b50505050508661334a565b1561191d576001600582815481106118f0576118ef614cf9565b5b906000526020600020906007020160060160006101000a81548160ff021916908315150217905550611930565b808061192890614db7565b915050611811565b506040518060400160405280601981526020017f566f746520636173746564207375636365737366756c6c7921000000000000008152509150506119a8565b6040518060400160405280601881526020017f566f7465722068617320616c726561647920766f74656421000000000000000081525090505b92915050565b600781815481106119be57600080fd5b9060005260206000200160009150905080546119d990614d57565b80601f0160208091040260200160405190810160405280929190818152602001828054611a0590614d57565b8015611a525780601f10611a2757610100808354040283529160200191611a52565b820191906000526020600020905b815481529060010190602001808311611a3557829003601f168201915b505050505081565b6000611b1e600b83604051611a6f9190614e3b565b90815260200160405180910390206000018054611a8b90614d57565b80601f0160208091040260200160405190810160405280929190818152602001828054611ab790614d57565b8015611b045780601f10611ad957610100808354040283529160200191611b04565b820191906000526020600020905b815481529060010190602001808311611ae757829003601f168201915b50505050506040518060200160405280600081525061334a565b611b2b5760019050611b30565b600090505b919050565b6000600480549050905090565b60006005905090565b6000806000018054611b5c90614d57565b80601f0160208091040260200160405190810160405280929190818152602001828054611b8890614d57565b8015611bd55780601f10611baa57610100808354040283529160200191611bd5565b820191906000526020600020905b815481529060010190602001808311611bb857829003601f168201915b505050505090806001018054611bea90614d57565b80601f0160208091040260200160405190810160405280929190818152602001828054611c1690614d57565b8015611c635780601f10611c3857610100808354040283529160200191611c63565b820191906000526020600020905b815481529060010190602001808311611c4657829003601f168201915b505050505090806002018054611c7890614d57565b80601f0160208091040260200160405190810160405280929190818152602001828054611ca490614d57565b8015611cf15780601f10611cc657610100808354040283529160200191611cf1565b820191906000526020600020905b815481529060010190602001808311611cd457829003601f168201915b5050505050905083565b600e8181548110611d0b57600080fd5b906000526020600020016000915090508054611d2690614d57565b80601f0160208091040260200160405190810160405280929190818152602001828054611d5290614d57565b8015611d9f5780601f10611d7457610100808354040283529160200191611d9f565b820191906000526020600020905b815481529060010190602001808311611d8257829003601f168201915b505050505081565b6000600580549050905090565b6060611e69600a85604051611dc99190614e3b565b90815260200160405180910390206005018054611de590614d57565b80601f0160208091040260200160405190810160405280929190818152602001828054611e1190614d57565b8015611e5e5780601f10611e3357610100808354040283529160200191611e5e565b820191906000526020600020905b815481529060010190602001808311611e4157829003601f168201915b50505050508461334a565b1561219d57600a84604051611e7e9190614e3b565b908152602001604051809103902060060160009054906101000a900460ff166121605760068281548110611eb557611eb4614cf9565b5b90600052602060002090600902016007016000815480929190611ed790614db7565b9190505550600060068381548110611ef257611ef1614cf9565b5b90600052602060002090600902016005018054611f0e90614d57565b80601f0160208091040260200160405190810160405280929190818152602001828054611f3a90614d57565b8015611f875780601f10611f5c57610100808354040283529160200191611f87565b820191906000526020600020905b815481529060010190602001808311611f6a57829003601f168201915b50505050509050600b81604051611f9e9190614e3b565b90815260200160405180910390206007016000815480929190611fc090614db7565b91905055506001600a86604051611fd79190614e3b565b908152602001604051809103902060060160006101000a81548160ff02191690831515021790555060005b600580549050811015612121576120c66005828154811061202657612025614cf9565b5b9060005260206000209060070201600401805461204290614d57565b80601f016020809104026020016040519081016040528092919081815260200182805461206e90614d57565b80156120bb5780601f10612090576101008083540402835291602001916120bb565b820191906000526020600020905b81548152906001019060200180831161209e57829003601f168201915b50505050508761334a565b1561210e576001600582815481106120e1576120e0614cf9565b5b906000526020600020906007020160060160006101000a81548160ff021916908315150217905550612121565b808061211990614db7565b915050612002565b506040518060400160405280601981526020017f566f746520636173746564207375636365737366756c6c7921000000000000008152509150506121b9565b6040518060400160405280601881526020017f566f7465722068617320616c726561647920766f74656421000000000000000081525090506121b9565b6040518060800160405280604f8152602001614e53604f913990505b9392505050565b600061228c600a6121d084613be3565b6040516121dd9190614e3b565b908152602001604051809103902060000180546121f990614d57565b80601f016020809104026020016040519081016040528092919081815260200182805461222590614d57565b80156122725780601f1061224757610100808354040283529160200191612272565b820191906000526020600020905b81548152906001019060200180831161225557829003601f168201915b50505050506040518060200160405280600081525061334a565b612299576001905061229e565b600090505b919050565b6122ab613caf565b61234284600060020180546122bf90614d57565b80601f01602080910402602001604051908101604052809291908181526020018280546122eb90614d57565b80156123385780601f1061230d57610100808354040283529160200191612338565b820191906000526020600020905b81548152906001019060200180831161231b57829003601f168201915b505050505061334a565b15612537576123fa60088260405161235a9190614e3b565b9081526020016040518091039020600201805461237690614d57565b80601f01602080910402602001604051908101604052809291908181526020018280546123a290614d57565b80156123ef5780601f106123c4576101008083540402835291602001916123ef565b820191906000526020600020905b8154815290600101906020018083116123d257829003601f168201915b50505050508261334a565b612529576000604051806060016040528085815260200184815260200183815250905060048190806001815401808255809150506001900390600052602060002090600302016000909190919091506000820151816000019080519060200190612465929190613d46565b506020820151816001019080519060200190612482929190613d46565b50604082015181600201908051906020019061249f929190613d46565b505050806008836040516124b39190614e3b565b908152602001604051809103902060008201518160000190805190602001906124dd929190613d46565b5060208201518160010190805190602001906124fa929190613d46565b506040820151816002019080519060200190612517929190613d46565b509050506001600d8190555050612532565b6002600d819055505b612540565b6003600d819055505b50505050565b6005818154811061255657600080fd5b906000526020600020906007020160009150905080600001805461257990614d57565b80601f01602080910402602001604051908101604052809291908181526020018280546125a590614d57565b80156125f25780601f106125c7576101008083540402835291602001916125f2565b820191906000526020600020905b8154815290600101906020018083116125d557829003601f168201915b50505050509080600101805461260790614d57565b80601f016020809104026020016040519081016040528092919081815260200182805461263390614d57565b80156126805780601f1061265557610100808354040283529160200191612680565b820191906000526020600020905b81548152906001019060200180831161266357829003601f168201915b50505050509080600201805461269590614d57565b80601f01602080910402602001604051908101604052809291908181526020018280546126c190614d57565b801561270e5780601f106126e35761010080835404028352916020019161270e565b820191906000526020600020905b8154815290600101906020018083116126f157829003601f168201915b50505050509080600301805461272390614d57565b80601f016020809104026020016040519081016040528092919081815260200182805461274f90614d57565b801561279c5780601f106127715761010080835404028352916020019161279c565b820191906000526020600020905b81548152906001019060200180831161277f57829003601f168201915b5050505050908060040180546127b190614d57565b80601f01602080910402602001604051908101604052809291908181526020018280546127dd90614d57565b801561282a5780601f106127ff5761010080835404028352916020019161282a565b820191906000526020600020905b81548152906001019060200180831161280d57829003601f168201915b50505050509080600501805461283f90614d57565b80601f016020809104026020016040519081016040528092919081815260200182805461286b90614d57565b80156128b85780601f1061288d576101008083540402835291602001916128b8565b820191906000526020600020905b81548152906001019060200180831161289b57829003601f168201915b5050505050908060060160009054906101000a900460ff16905087565b601081815481106128e557600080fd5b90600052602060002001600091509050805461290090614d57565b80601f016020809104026020016040519081016040528092919081815260200182805461292c90614d57565b80156129795780601f1061294e57610100808354040283529160200191612979565b820191906000526020600020905b81548152906001019060200180831161295c57829003601f168201915b505050505081565b6004818154811061299157600080fd5b90600052602060002090600302016000915090508060000180546129b490614d57565b80601f01602080910402602001604051908101604052809291908181526020018280546129e090614d57565b8015612a2d5780601f10612a0257610100808354040283529160200191612a2d565b820191906000526020600020905b815481529060010190602001808311612a1057829003601f168201915b505050505090806001018054612a4290614d57565b80601f0160208091040260200160405190810160405280929190818152602001828054612a6e90614d57565b8015612abb5780601f10612a9057610100808354040283529160200191612abb565b820191906000526020600020905b815481529060010190602001808311612a9e57829003601f168201915b505050505090806002018054612ad090614d57565b80601f0160208091040260200160405190810160405280929190818152602001828054612afc90614d57565b8015612b495780601f10612b1e57610100808354040283529160200191612b49565b820191906000526020600020905b815481529060010190602001808311612b2c57829003601f168201915b5050505050905083565b600881805160208101820180518482526020830160208501208183528095505050505050600091509050806000018054612b8c90614d57565b80601f0160208091040260200160405190810160405280929190818152602001828054612bb890614d57565b8015612c055780601f10612bda57610100808354040283529160200191612c05565b820191906000526020600020905b815481529060010190602001808311612be857829003601f168201915b505050505090806001018054612c1a90614d57565b80601f0160208091040260200160405190810160405280929190818152602001828054612c4690614d57565b8015612c935780601f10612c6857610100808354040283529160200191612c93565b820191906000526020600020905b815481529060010190602001808311612c7657829003601f168201915b505050505090806002018054612ca890614d57565b80601f0160208091040260200160405190810160405280929190818152602001828054612cd490614d57565b8015612d215780601f10612cf657610100808354040283529160200191612d21565b820191906000526020600020905b815481529060010190602001808311612d0457829003601f168201915b5050505050905083565b60006040518060e00160405280888152602001878152602001868152602001858152602001848152602001838152602001600015158152509050612d6e8161159c565b612f925760058190806001815401808255809150506001900390600052602060002090600702016000909190919091506000820151816000019080519060200190612dba929190613d46565b506020820151816001019080519060200190612dd7929190613d46565b506040820151816002019080519060200190612df4929190613d46565b506060820151816003019080519060200190612e11929190613d46565b506080820151816004019080519060200190612e2e929190613d46565b5060a0820151816005019080519060200190612e4b929190613d46565b5060c08201518160060160006101000a81548160ff021916908315150217905550505080600a83604051612e7f9190614e3b565b90815260200160405180910390206000820151816000019080519060200190612ea9929190613d46565b506020820151816001019080519060200190612ec6929190613d46565b506040820151816002019080519060200190612ee3929190613d46565b506060820151816003019080519060200190612f00929190613d46565b506080820151816004019080519060200190612f1d929190613d46565b5060a0820151816005019080519060200190612f3a929190613d46565b5060c08201518160060160006101000a81548160ff02191690831515021790555090505082600983604051612f6f9190614e3b565b90815260200160405180910390209080519060200190612f90929190613d46565b505b50505050505050565b8060039080519060200190612fb1929190613d46565b5050565b600a81805160208101820180518482526020830160208501208183528095505050505050600091509050806000018054612fee90614d57565b80601f016020809104026020016040519081016040528092919081815260200182805461301a90614d57565b80156130675780601f1061303c57610100808354040283529160200191613067565b820191906000526020600020905b81548152906001019060200180831161304a57829003601f168201915b50505050509080600101805461307c90614d57565b80601f01602080910402602001604051908101604052809291908181526020018280546130a890614d57565b80156130f55780601f106130ca576101008083540402835291602001916130f5565b820191906000526020600020905b8154815290600101906020018083116130d857829003601f168201915b50505050509080600201805461310a90614d57565b80601f016020809104026020016040519081016040528092919081815260200182805461313690614d57565b80156131835780601f1061315857610100808354040283529160200191613183565b820191906000526020600020905b81548152906001019060200180831161316657829003601f168201915b50505050509080600301805461319890614d57565b80601f01602080910402602001604051908101604052809291908181526020018280546131c490614d57565b80156132115780601f106131e657610100808354040283529160200191613211565b820191906000526020600020905b8154815290600101906020018083116131f457829003601f168201915b50505050509080600401805461322690614d57565b80601f016020809104026020016040519081016040528092919081815260200182805461325290614d57565b801561329f5780601f106132745761010080835404028352916020019161329f565b820191906000526020600020905b81548152906001019060200180831161328257829003601f168201915b5050505050908060050180546132b490614d57565b80601f01602080910402602001604051908101604052809291908181526020018280546132e090614d57565b801561332d5780601f106133025761010080835404028352916020019161332d565b820191906000526020600020905b81548152906001019060200180831161331057829003601f168201915b5050505050908060060160009054906101000a900460ff16905087565b60008180519060200120838051906020012014905092915050565b600f818154811061337557600080fd5b906000526020600020016000915090505481565b6040518060400160405280600681526020017f526573756c740000000000000000000000000000000000000000000000000000815250600c90805190602001906133d4929190613d46565b50565b6060600a826040516133e99190614e3b565b9081526020016040518091039020600101805461340590614d57565b80601f016020809104026020016040519081016040528092919081815260200182805461343190614d57565b801561347e5780601f106134535761010080835404028352916020019161347e565b820191906000526020600020905b81548152906001019060200180831161346157829003601f168201915b50505050509050919050565b60606004805480602002602001604051908101604052809291908181526020016000905b8282101561369657838290600052602060002090600302016040518060600160405290816000820180546134e190614d57565b80601f016020809104026020016040519081016040528092919081815260200182805461350d90614d57565b801561355a5780601f1061352f5761010080835404028352916020019161355a565b820191906000526020600020905b81548152906001019060200180831161353d57829003601f168201915b5050505050815260200160018201805461357390614d57565b80601f016020809104026020016040519081016040528092919081815260200182805461359f90614d57565b80156135ec5780601f106135c1576101008083540402835291602001916135ec565b820191906000526020600020905b8154815290600101906020018083116135cf57829003601f168201915b5050505050815260200160028201805461360590614d57565b80601f016020809104026020016040519081016040528092919081815260200182805461363190614d57565b801561367e5780601f106136535761010080835404028352916020019161367e565b820191906000526020600020905b81548152906001019060200180831161366157829003601f168201915b505050505081525050815260200190600101906134ae565b50505050905090565b600061373882600060020180546136b590614d57565b80601f01602080910402602001604051908101604052809291908181526020018280546136e190614d57565b801561372e5780601f106137035761010080835404028352916020019161372e565b820191906000526020600020905b81548152906001019060200180831161371157829003601f168201915b505050505061334a565b9050919050565b600b8180516020810182018051848252602083016020850120818352809550505050505060009150905080600001805461377890614d57565b80601f01602080910402602001604051908101604052809291908181526020018280546137a490614d57565b80156137f15780601f106137c6576101008083540402835291602001916137f1565b820191906000526020600020905b8154815290600101906020018083116137d457829003601f168201915b50505050509080600101805461380690614d57565b80601f016020809104026020016040519081016040528092919081815260200182805461383290614d57565b801561387f5780601f106138545761010080835404028352916020019161387f565b820191906000526020600020905b81548152906001019060200180831161386257829003601f168201915b50505050509080600201805461389490614d57565b80601f01602080910402602001604051908101604052809291908181526020018280546138c090614d57565b801561390d5780601f106138e25761010080835404028352916020019161390d565b820191906000526020600020905b8154815290600101906020018083116138f057829003601f168201915b50505050509080600301805461392290614d57565b80601f016020809104026020016040519081016040528092919081815260200182805461394e90614d57565b801561399b5780601f106139705761010080835404028352916020019161399b565b820191906000526020600020905b81548152906001019060200180831161397e57829003601f168201915b5050505050908060040180546139b090614d57565b80601f01602080910402602001604051908101604052809291908181526020018280546139dc90614d57565b8015613a295780601f106139fe57610100808354040283529160200191613a29565b820191906000526020600020905b815481529060010190602001808311613a0c57829003601f168201915b505050505090806005018054613a3e90614d57565b80601f0160208091040260200160405190810160405280929190818152602001828054613a6a90614d57565b8015613ab75780601f10613a8c57610100808354040283529160200191613ab7565b820191906000526020600020905b815481529060010190602001808311613a9a57829003601f168201915b505050505090806006018054613acc90614d57565b80601f0160208091040260200160405190810160405280929190818152602001828054613af890614d57565b8015613b455780601f10613b1a57610100808354040283529160200191613b45565b820191906000526020600020905b815481529060010190602001808311613b2857829003601f168201915b505050505090806007015490806008018054613b6090614d57565b80601f0160208091040260200160405190810160405280929190818152602001828054613b8c90614d57565b8015613bd95780601f10613bae57610100808354040283529160200191613bd9565b820191906000526020600020905b815481529060010190602001808311613bbc57829003601f168201915b5050505050905089565b6060600982604051613bf59190614e3b565b90815260200160405180910390206003908054613c1190614d57565b613c1c929190613cb9565b5060038054613c2a90614d57565b80601f0160208091040260200160405190810160405280929190818152602001828054613c5690614d57565b8015613ca35780601f10613c7857610100808354040283529160200191613ca3565b820191906000526020600020905b815481529060010190602001808311613c8657829003601f168201915b50505050509050919050565b6000600d81905550565b828054613cc590614d57565b90600052602060002090601f016020900481019282613ce75760008555613d35565b82601f10613cf85780548555613d35565b82800160010185558215613d3557600052602060002091601f016020900482015b82811115613d34578254825591600101919060010190613d19565b5b509050613d429190613dcc565b5090565b828054613d5290614d57565b90600052602060002090601f016020900481019282613d745760008555613dbb565b82601f10613d8d57805160ff1916838001178555613dbb565b82800160010185558215613dbb579182015b82811115613dba578251825591602001919060010190613d9f565b5b509050613dc89190613dcc565b5090565b5b80821115613de5576000816000905550600101613dcd565b5090565b600081519050919050565b600082825260208201905092915050565b6000819050602082019050919050565b600081519050919050565b600082825260208201905092915050565b60005b83811015613e4f578082015181840152602081019050613e34565b83811115613e5e576000848401525b50505050565b6000601f19601f8301169050919050565b6000613e8082613e15565b613e8a8185613e20565b9350613e9a818560208601613e31565b613ea381613e64565b840191505092915050565b6000613eba8383613e75565b905092915050565b6000602082019050919050565b6000613eda82613de9565b613ee48185613df4565b935083602082028501613ef685613e05565b8060005b85811015613f325784840389528151613f138582613eae565b9450613f1e83613ec2565b925060208a01995050600181019050613efa565b50829750879550505050505092915050565b60006020820190508181036000830152613f5e8184613ecf565b905092915050565b6000604051905090565b600080fd5b600080fd5b600080fd5b600080fd5b7f4e487b7100000000000000000000000000000000000000000000000000000000600052604160045260246000fd5b613fbc82613e64565b810181811067ffffffffffffffff82111715613fdb57613fda613f84565b5b80604052505050565b6000613fee613f66565b9050613ffa8282613fb3565b919050565b600067ffffffffffffffff82111561401a57614019613f84565b5b61402382613e64565b9050602081019050919050565b82818337600083830152505050565b600061405261404d84613fff565b613fe4565b90508281526020810184848401111561406e5761406d613f7f565b5b614079848285614030565b509392505050565b600082601f83011261409657614095613f7a565b5b81356140a684826020860161403f565b91505092915050565b600080600080600080600080610100898b0312156140d0576140cf613f70565b5b600089013567ffffffffffffffff8111156140ee576140ed613f75565b5b6140fa8b828c01614081565b985050602089013567ffffffffffffffff81111561411b5761411a613f75565b5b6141278b828c01614081565b975050604089013567ffffffffffffffff81111561414857614147613f75565b5b6141548b828c01614081565b965050606089013567ffffffffffffffff81111561417557614174613f75565b5b6141818b828c01614081565b955050608089013567ffffffffffffffff8111156141a2576141a1613f75565b5b6141ae8b828c01614081565b94505060a089013567ffffffffffffffff8111156141cf576141ce613f75565b5b6141db8b828c01614081565b93505060c089013567ffffffffffffffff8111156141fc576141fb613f75565b5b6142088b828c01614081565b92505060e089013567ffffffffffffffff81111561422957614228613f75565b5b6142358b828c01614081565b9150509295985092959890939650565b6000819050919050565b61425881614245565b811461426357600080fd5b50565b6000813590506142758161424f565b92915050565b60006020828403121561429157614290613f70565b5b600061429f84828501614266565b91505092915050565b600082825260208201905092915050565b60006142c482613e15565b6142ce81856142a8565b93506142de818560208601613e31565b6142e781613e64565b840191505092915050565b6142fb81614245565b82525050565b600061012082019050818103600083015261431c818c6142b9565b90508181036020830152614330818b6142b9565b90508181036040830152614344818a6142b9565b9050818103606083015261435881896142b9565b9050818103608083015261436c81886142b9565b905081810360a083015261438081876142b9565b905081810360c083015261439481866142b9565b90506143a360e08301856142f2565b8181036101008301526143b681846142b9565b90509a9950505050505050505050565b6000602082840312156143dc576143db613f70565b5b600082013567ffffffffffffffff8111156143fa576143f9613f75565b5b61440684828501614081565b91505092915050565b6000602082019050818103600083015261442981846142b9565b905092915050565b60008115159050919050565b61444681614431565b82525050565b6000602082019050614461600083018461443d565b92915050565b600081519050919050565b600082825260208201905092915050565b6000819050602082019050919050565b61449c81614245565b82525050565b60006144ae8383614493565b60208301905092915050565b6000602082019050919050565b60006144d282614467565b6144dc8185614472565b93506144e783614483565b8060005b838110156145185781516144ff88826144a2565b975061450a836144ba565b9250506001810190506144eb565b5085935050505092915050565b6000606082019050818103600083015261453f8186613ecf565b9050818103602083015261455381856144c7565b905081810360408301526145678184613ecf565b9050949350505050565b600060208201905061458660008301846142f2565b92915050565b600080fd5b600080fd5b61459f81614431565b81146145aa57600080fd5b50565b6000813590506145bc81614596565b92915050565b600060e082840312156145d8576145d761458c565b5b6145e260e0613fe4565b9050600082013567ffffffffffffffff81111561460257614601614591565b5b61460e84828501614081565b600083015250602082013567ffffffffffffffff81111561463257614631614591565b5b61463e84828501614081565b602083015250604082013567ffffffffffffffff81111561466257614661614591565b5b61466e84828501614081565b604083015250606082013567ffffffffffffffff81111561469257614691614591565b5b61469e84828501614081565b606083015250608082013567ffffffffffffffff8111156146c2576146c1614591565b5b6146ce84828501614081565b60808301525060a082013567ffffffffffffffff8111156146f2576146f1614591565b5b6146fe84828501614081565b60a08301525060c0614712848285016145ad565b60c08301525092915050565b60006020828403121561473457614733613f70565b5b600082013567ffffffffffffffff81111561475257614751613f75565b5b61475e848285016145c2565b91505092915050565b6000806040838503121561477e5761477d613f70565b5b600083013567ffffffffffffffff81111561479c5761479b613f75565b5b6147a885828601614081565b92505060206147b985828601614266565b9150509250929050565b600060608201905081810360008301526147dd81866142b9565b905081810360208301526147f181856142b9565b9050818103604083015261480581846142b9565b9050949350505050565b60008060006060848603121561482857614827613f70565b5b600084013567ffffffffffffffff81111561484657614845613f75565b5b61485286828701614081565b935050602084013567ffffffffffffffff81111561487357614872613f75565b5b61487f86828701614081565b925050604061489086828701614266565b9150509250925092565b600080600080608085870312156148b4576148b3613f70565b5b600085013567ffffffffffffffff8111156148d2576148d1613f75565b5b6148de87828801614081565b945050602085013567ffffffffffffffff8111156148ff576148fe613f75565b5b61490b87828801614081565b935050604085013567ffffffffffffffff81111561492c5761492b613f75565b5b61493887828801614081565b925050606085013567ffffffffffffffff81111561495957614958613f75565b5b61496587828801614081565b91505092959194509250565b600060e082019050818103600083015261498b818a6142b9565b9050818103602083015261499f81896142b9565b905081810360408301526149b381886142b9565b905081810360608301526149c781876142b9565b905081810360808301526149db81866142b9565b905081810360a08301526149ef81856142b9565b90506149fe60c083018461443d565b98975050505050505050565b60008060008060008060c08789031215614a2757614a26613f70565b5b600087013567ffffffffffffffff811115614a4557614a44613f75565b5b614a5189828a01614081565b965050602087013567ffffffffffffffff811115614a7257614a71613f75565b5b614a7e89828a01614081565b955050604087013567ffffffffffffffff811115614a9f57614a9e613f75565b5b614aab89828a01614081565b945050606087013567ffffffffffffffff811115614acc57614acb613f75565b5b614ad889828a01614081565b935050608087013567ffffffffffffffff811115614af957614af8613f75565b5b614b0589828a01614081565b92505060a087013567ffffffffffffffff811115614b2657614b25613f75565b5b614b3289828a01614081565b9150509295509295509295565b60008060408385031215614b5657614b55613f70565b5b600083013567ffffffffffffffff811115614b7457614b73613f75565b5b614b8085828601614081565b925050602083013567ffffffffffffffff811115614ba157614ba0613f75565b5b614bad85828601614081565b9150509250929050565b600081519050919050565b600082825260208201905092915050565b6000819050602082019050919050565b60006060830160008301518482036000860152614c008282613e75565b91505060208301518482036020860152614c1a8282613e75565b91505060408301518482036040860152614c348282613e75565b9150508091505092915050565b6000614c4d8383614be3565b905092915050565b6000602082019050919050565b6000614c6d82614bb7565b614c778185614bc2565b935083602082028501614c8985614bd3565b8060005b85811015614cc55784840389528151614ca68582614c41565b9450614cb183614c55565b925060208a01995050600181019050614c8d565b50829750879550505050505092915050565b60006020820190508181036000830152614cf18184614c62565b905092915050565b7f4e487b7100000000000000000000000000000000000000000000000000000000600052603260045260246000fd5b7f4e487b7100000000000000000000000000000000000000000000000000000000600052602260045260246000fd5b60006002820490506001821680614d6f57607f821691505b602082108103614d8257614d81614d28565b5b50919050565b7f4e487b7100000000000000000000000000000000000000000000000000000000600052601160045260246000fd5b6000614dc282614245565b91507fffffffffffffffffffffffffffffffffffffffffffffffffffffffffffffffff8203614df457614df3614d88565b5b600182019050919050565b600081905092915050565b6000614e1582613e15565b614e1f8185614dff565b9350614e2f818560208601613e31565b80840191505092915050565b6000614e478284614e0a565b91508190509291505056fe436f756c64206e6f742063617374206120766f74652c20566f746572206e6f742072656769737465726564212028747279206368616e67696e67206163636f756e74206f6e206d6574616d61736b29a2646970667358221220057b9c4b8b480a313e626e8a7179af30fb4c542278bf6f49e4cfbc34c1830eb164736f6c634300080d0033307842363633466465333563353936453539374135363630646536373238623462433330326362363737",
  "immutableReferences": {},
  "source": "// SPDX-License-Identifier: MIT\r\npragma solidity ^0.8.10;\r\n\r\nstruct Admin{\r\n    string name;\r\n    string mobileNo;\r\n    string walletKey;\r\n}\r\n\r\nstruct Voter {\r\n    string name;\r\n    string mobileNo;\r\n    string homeAddress;\r\n    string aadharCardNo;\r\n    string voterId;\r\n    string walletKey;\r\n    bool isVoted;\r\n}\r\n\r\nstruct Candidate {\r\n    string name;\r\n    string mobileNo;\r\n    string homeAddress;\r\n    string aadharCardNo;\r\n    string voterId;\r\n    string walletKey;\r\n    string politicalParty;\r\n    uint256 votes;\r\n    string symbolUrl;\r\n}\r\n\r\ncontract BlockVote{\r\n    /* Global Variables START. */\r\n    Admin public ECI = Admin({name:\"ECI_Official\", mobileNo:\"1234567890\", walletKey:\"0xB663Fde35c596E597A5660de6728b4bC302cb677\"});\r\n    string voterId_main=\"\";\r\n    Admin[] public Admins;\r\n    Voter[] public Voters;\r\n    Candidate[] public Candidates;\r\n    string[] public candidate_names;\r\n    mapping (string=>Admin) public mapWalletKey2Admin;\r\n    // walletKey : voterId\r\n    mapping(string=>string) public map_walletKey_voterid;\r\n    // voterid : Voter;\r\n    mapping(string=>Voter) public map_voterid_details;\r\n    // wallet address : Candidate\r\n    mapping(string=>Candidate) public candidatesMap;\r\n    string votingPhase = \"preVoting\"; // Voting, Result\r\n    /* Global Variables END. */\r\n\r\n    /* ECI Functions START. */\r\n    uint addAdminState;     // 0 -> Not added, 1 -> Added succesfully, 2 -> Admin already exist, 3 -> Invalid ECI.\r\n    \r\n    function startVoting() public {\r\n        votingPhase = \"Voting\";\r\n    }\r\n\r\n    function endVoting() public {\r\n        votingPhase = \"Result\";\r\n    }\r\n\r\n    // Set addAdminState = 0.\r\n    function resetAddAdminState() private{\r\n        addAdminState = 0;\r\n    }\r\n\r\n    // Returns state of the last addAdmin call.\r\n    function getAddAdminState() public view returns(uint){\r\n        return addAdminState;\r\n    }\r\n\r\n    function authenticateECI(string memory _walletKey) public view returns(bool) {\r\n        return areStringsEqual(_walletKey, ECI.walletKey);\r\n    }\r\n\r\n    // Add an admin to the blockchain.\r\n    function addAdmin(string memory ECI_Key,string memory adName, string memory adMoNo, string memory adEthKey) public{\r\n        resetAddAdminState();\r\n        if(areStringsEqual(ECI_Key, ECI.walletKey)){\r\n            if(!areStringsEqual(mapWalletKey2Admin[adEthKey].walletKey, adEthKey)) {\r\n                Admin memory newAdmin = Admin({\r\n                    name:adName, \r\n                    mobileNo:adMoNo,\r\n                    walletKey:adEthKey\r\n                });\r\n                Admins.push(newAdmin);\r\n                mapWalletKey2Admin[adEthKey] = newAdmin;\r\n                addAdminState = 1;\r\n            }\r\n            else\r\n                addAdminState = 2;\r\n        }\r\n        else\r\n            addAdminState = 3;   \r\n    }\r\n\r\n    // Returns total number of admins in the blockchain.\r\n    function adminLength() public view returns(uint){\r\n        return Admins.length;\r\n    }\r\n\r\n    // Returns all admins in the blockchain.\r\n    function getAllAdmins() public view returns(Admin[] memory){\r\n        return Admins;\r\n    }\r\n\r\n    /* ECI Functions END. */\r\n\r\n    /* Admin Functions START. */\r\n    /* Admin Functions END. */\r\n\r\n    /* Voter Functions START. */\r\n    \r\n    function addVoter(string memory _name, string memory _mobileNo, string memory _homeAddress,\r\n     string memory _aadharCardNo, string memory _voterId, string memory _walletKey) public {\r\n        Voter memory newVoter = Voter({\r\n                    name:_name, \r\n                    mobileNo:_mobileNo,\r\n                    homeAddress:_homeAddress,\r\n                    aadharCardNo:_aadharCardNo,\r\n                    voterId:_voterId,\r\n                    walletKey:_walletKey,\r\n                    isVoted:false\r\n        });\r\n        if(!isVoterRegistered(newVoter)) {\r\n            Voters.push(newVoter);\r\n            map_voterid_details[_walletKey] = newVoter;\r\n            map_walletKey_voterid[_walletKey] = _voterId;\r\n        }\r\n        \r\n    }\r\n\r\n    function hasVoted(string memory _voterid) public view returns(bool){\r\n        return map_voterid_details[_voterid].isVoted;\r\n    }\r\n\r\n    function isVoterRegistered(Voter memory item) public view returns(bool) {\r\n        if(!areStringsEqual(map_voterid_details[item.voterId].name,\"\")) return true;\r\n        else return false;\r\n    }\r\n\r\n    function authenticateVoter(string memory _walletKey) public returns(bool) {\r\n        if(!areStringsEqual(map_voterid_details[getVoterId(_walletKey)].name,\"\")) return true;\r\n        else return false;\r\n    }\r\n\r\n    function getVoterId(string memory _walletKey) public returns(string memory) {\r\n        voterId_main = map_walletKey_voterid[_walletKey];\r\n        return voterId_main;\r\n    }\r\n\r\n    function setVoterId(string memory _voterid) public {\r\n        voterId_main = _voterid;\r\n    }\r\n\r\n    function voterLength() public view returns(uint) {\r\n        return Voters.length;\r\n    }\r\n\r\n    function getVoterMobileNumber(string memory _voterid) public view returns(string memory) {\r\n        return map_voterid_details[_voterid].mobileNo;\r\n    }\r\n\r\n    /* Voter Functions END. */\r\n    \r\n    /* Candidate Functions START. */\r\n    function addCandidate(string memory _name, string memory _mobileNo, string memory _homeAddress,\r\n     string memory _aadharCardNo, string memory _voterId, string memory _walletKey, string memory _politicalParty, string memory _symbolUrl) public {\r\n        Candidate memory newCandidate = Candidate({\r\n                    name:_name, \r\n                    mobileNo:_mobileNo,\r\n                    homeAddress:_homeAddress,\r\n                    aadharCardNo:_aadharCardNo,\r\n                    voterId:_voterId,\r\n                    walletKey:_walletKey,\r\n                    politicalParty:_politicalParty,\r\n                    votes: 0,\r\n                    symbolUrl: _symbolUrl\r\n        });\r\n        if(!isCandidateRegistered(_walletKey)) {\r\n            Candidates.push(newCandidate);\r\n            candidatesMap[_walletKey] = newCandidate;\r\n            addVoter( _name, _mobileNo,  _homeAddress,\r\n                _aadharCardNo, _voterId,  _walletKey);\r\n        }   \r\n    }\r\n\r\n    function isCandidateRegistered(string memory _walletKey) public view returns(bool){\r\n        if(!areStringsEqual(candidatesMap[_walletKey].name,\"\"))return true;\r\n        else return false;\r\n    }\r\n\r\n    function getCandidates() public returns(string[] memory) {\r\n        for(uint256 i=0;i<Candidates.length;i++) {\r\n        candidate_names.push(Candidates[i].name);\r\n        }\r\n        return candidate_names;\r\n    }\r\n    \r\n\r\n    /* Candidate Functions END. */\r\n\r\n    /* Results Functions START */\r\n    /* returns (candidates, votes, symbolUrls), receives object with 3 keys (0 : candidates array, 1 : votes array, 2: symbolUrls array) */\r\n    \r\n    string[] public _candidates;\r\n    uint256[] public _votes;\r\n    string[] public _symbolUrls;\r\n    function getResults() public returns(string[] memory, uint256[] memory, string[] memory) {\r\n        if(areStringsEqual(votingPhase, \"Result\")){\r\n            for(uint256 i=0;i<Candidates.length;i++) {\r\n                _candidates.push(Candidates[i].name);\r\n                _votes.push(Candidates[i].votes);\r\n                _symbolUrls.push(Candidates[i].symbolUrl);\r\n            }    \r\n        }\r\n        return (_candidates, _votes, _symbolUrls);\r\n    }\r\n    /* Results Functions END */\r\n\r\n    /* Voting Functions START */ \r\n    \r\n    function vote(string memory _voterId, string memory _walletKey, uint256 choice) public returns(string memory) {\r\n        if(areStringsEqual(map_voterid_details[_voterId].walletKey, _walletKey)) {\r\n            if(!map_voterid_details[_voterId].isVoted) {\r\n                Candidates[choice].votes++;\r\n                string memory temp_walletKey = Candidates[choice].walletKey;\r\n                candidatesMap[temp_walletKey].votes++;\r\n                map_voterid_details[_voterId].isVoted = true;\r\n                for(uint256 i=0;i<Voters.length;i++) {\r\n                    if(areStringsEqual(Voters[i].voterId, _voterId)){\r\n                        Voters[i].isVoted = true;\r\n                        break;\r\n                    }\r\n                }\r\n                return \"Vote casted successfully!\";\r\n            }\r\n            return \"Voter has already voted!\";\r\n        }\r\n        return \"Could not cast a vote, Voter not registered! (try changing account on metamask)\";\r\n    }\r\n\r\n    function voteThroughAdmin(string memory _voterId, uint256 choice) public returns(string memory) {\r\n        if(!map_voterid_details[_voterId].isVoted) {\r\n            Candidates[choice].votes++;\r\n            string memory temp_walletKey = Candidates[choice].walletKey;\r\n            candidatesMap[temp_walletKey].votes++;\r\n            map_voterid_details[_voterId].isVoted = true;\r\n            for(uint256 i=0;i<Voters.length;i++) {\r\n                if(areStringsEqual(Voters[i].voterId, _voterId)){\r\n                    Voters[i].isVoted = true;\r\n                    break;\r\n                }\r\n            }\r\n            return \"Vote casted successfully!\";\r\n        }\r\n        return \"Voter has already voted!\";\r\n    }\r\n    /* Voting Functions END */ \r\n\r\n    /* Utility Functions START. */\r\n    function areStringsEqual(string memory S1, string memory S2) public pure returns(bool){\r\n        return keccak256(bytes(S1)) == keccak256(bytes(S2));\r\n    }\r\n\r\n    function sampleValue() public pure returns(uint){\r\n        return 5;\r\n    }\r\n    /* Utility Functions END. */\r\n}\r\n",
  "sourcePath": "D:\\Blockchain-Projects\\BlockVote\\contracts\\BlockVote.sol",
  "compiler": {
    "name": "solc",
    "version": "0.8.13+commit.abaa5c0e.Emscripten.clang"
  },
  "schemaVersion": "3.4.4",
  "updatedAt": "2022-03-31T11:36:16.680Z",
  "networkType": "ethereum",
  "devdoc": {
    "kind": "dev",
    "methods": {},
    "version": 1
  },
  "userdoc": {
    "kind": "user",
    "methods": {},
    "version": 1
  }
}