{
  "contractName": "BlockVote",
  "abi": [
    {
      "inputs": [
        {
          "internalType": "uint256",
          "name": "",
          "type": "uint256"
        }
      ],
      "name": "Admins",
      "outputs": [
        {
          "internalType": "string",
          "name": "name",
          "type": "string"
        },
        {
          "internalType": "string",
          "name": "mobileNo",
          "type": "string"
        },
        {
          "internalType": "string",
          "name": "walletKey",
          "type": "string"
        }
      ],
      "stateMutability": "view",
      "type": "function",
      "constant": true
    },
    {
      "inputs": [],
      "name": "ECI",
      "outputs": [
        {
          "internalType": "string",
          "name": "name",
          "type": "string"
        },
        {
          "internalType": "string",
          "name": "mobileNo",
          "type": "string"
        },
        {
          "internalType": "string",
          "name": "walletKey",
          "type": "string"
        }
      ],
      "stateMutability": "view",
      "type": "function",
      "constant": true
    },
    {
      "inputs": [
        {
          "internalType": "uint256",
          "name": "",
          "type": "uint256"
        }
      ],
      "name": "Voters",
      "outputs": [
        {
          "internalType": "string",
          "name": "name",
          "type": "string"
        },
        {
          "internalType": "string",
          "name": "mobileNo",
          "type": "string"
        },
        {
          "internalType": "string",
          "name": "homeAddress",
          "type": "string"
        },
        {
          "internalType": "string",
          "name": "aadharCardNo",
          "type": "string"
        },
        {
          "internalType": "string",
          "name": "voterId",
          "type": "string"
        },
        {
          "internalType": "string",
          "name": "walletKey",
          "type": "string"
        },
        {
          "internalType": "bool",
          "name": "isVoted",
          "type": "bool"
        }
      ],
      "stateMutability": "view",
      "type": "function",
      "constant": true
    },
    {
      "inputs": [
        {
          "internalType": "string",
          "name": "",
          "type": "string"
        }
      ],
      "name": "mapWalletKey2Admin",
      "outputs": [
        {
          "internalType": "string",
          "name": "name",
          "type": "string"
        },
        {
          "internalType": "string",
          "name": "mobileNo",
          "type": "string"
        },
        {
          "internalType": "string",
          "name": "walletKey",
          "type": "string"
        }
      ],
      "stateMutability": "view",
      "type": "function",
      "constant": true
    },
    {
      "inputs": [
        {
          "internalType": "string",
          "name": "",
          "type": "string"
        }
      ],
      "name": "map_voterid_details",
      "outputs": [
        {
          "internalType": "string",
          "name": "name",
          "type": "string"
        },
        {
          "internalType": "string",
          "name": "mobileNo",
          "type": "string"
        },
        {
          "internalType": "string",
          "name": "homeAddress",
          "type": "string"
        },
        {
          "internalType": "string",
          "name": "aadharCardNo",
          "type": "string"
        },
        {
          "internalType": "string",
          "name": "voterId",
          "type": "string"
        },
        {
          "internalType": "string",
          "name": "walletKey",
          "type": "string"
        },
        {
          "internalType": "bool",
          "name": "isVoted",
          "type": "bool"
        }
      ],
      "stateMutability": "view",
      "type": "function",
      "constant": true
    },
    {
      "inputs": [
        {
          "internalType": "string",
          "name": "",
          "type": "string"
        }
      ],
      "name": "map_walletKey_voterid",
      "outputs": [
        {
          "internalType": "string",
          "name": "",
          "type": "string"
        }
      ],
      "stateMutability": "view",
      "type": "function",
      "constant": true
    },
    {
      "inputs": [],
      "name": "startVoting",
      "outputs": [],
      "stateMutability": "nonpayable",
      "type": "function"
    },
    {
      "inputs": [],
      "name": "endVoting",
      "outputs": [],
      "stateMutability": "nonpayable",
      "type": "function"
    },
    {
      "inputs": [],
      "name": "getAddAdminState",
      "outputs": [
        {
          "internalType": "uint256",
          "name": "",
          "type": "uint256"
        }
      ],
      "stateMutability": "view",
      "type": "function",
      "constant": true
    },
    {
      "inputs": [
        {
          "internalType": "string",
          "name": "ECI_Key",
          "type": "string"
        },
        {
          "internalType": "string",
          "name": "adName",
          "type": "string"
        },
        {
          "internalType": "string",
          "name": "adMoNo",
          "type": "string"
        },
        {
          "internalType": "string",
          "name": "adEthKey",
          "type": "string"
        }
      ],
      "name": "addAdmin",
      "outputs": [],
      "stateMutability": "nonpayable",
      "type": "function"
    },
    {
      "inputs": [],
      "name": "adminLength",
      "outputs": [
        {
          "internalType": "uint256",
          "name": "",
          "type": "uint256"
        }
      ],
      "stateMutability": "view",
      "type": "function",
      "constant": true
    },
    {
      "inputs": [],
      "name": "getAllAdmins",
      "outputs": [
        {
          "components": [
            {
              "internalType": "string",
              "name": "name",
              "type": "string"
            },
            {
              "internalType": "string",
              "name": "mobileNo",
              "type": "string"
            },
            {
              "internalType": "string",
              "name": "walletKey",
              "type": "string"
            }
          ],
          "internalType": "struct Admin[]",
          "name": "",
          "type": "tuple[]"
        }
      ],
      "stateMutability": "view",
      "type": "function",
      "constant": true
    },
    {
      "inputs": [
        {
          "internalType": "string",
          "name": "_name",
          "type": "string"
        },
        {
          "internalType": "string",
          "name": "_mobileNo",
          "type": "string"
        },
        {
          "internalType": "string",
          "name": "_homeAddress",
          "type": "string"
        },
        {
          "internalType": "string",
          "name": "_aadharCardNo",
          "type": "string"
        },
        {
          "internalType": "string",
          "name": "_voterId",
          "type": "string"
        },
        {
          "internalType": "string",
          "name": "_walletKey",
          "type": "string"
        }
      ],
      "name": "addVoter",
      "outputs": [],
      "stateMutability": "nonpayable",
      "type": "function"
    },
    {
      "inputs": [
        {
          "internalType": "string",
          "name": "_voterid",
          "type": "string"
        }
      ],
      "name": "hasVoted",
      "outputs": [
        {
          "internalType": "bool",
          "name": "",
          "type": "bool"
        }
      ],
      "stateMutability": "view",
      "type": "function",
      "constant": true
    },
    {
      "inputs": [
        {
          "components": [
            {
              "internalType": "string",
              "name": "name",
              "type": "string"
            },
            {
              "internalType": "string",
              "name": "mobileNo",
              "type": "string"
            },
            {
              "internalType": "string",
              "name": "homeAddress",
              "type": "string"
            },
            {
              "internalType": "string",
              "name": "aadharCardNo",
              "type": "string"
            },
            {
              "internalType": "string",
              "name": "voterId",
              "type": "string"
            },
            {
              "internalType": "string",
              "name": "walletKey",
              "type": "string"
            },
            {
              "internalType": "bool",
              "name": "isVoted",
              "type": "bool"
            }
          ],
          "internalType": "struct Voter",
          "name": "item",
          "type": "tuple"
        }
      ],
      "name": "isVoterRegistered",
      "outputs": [
        {
          "internalType": "bool",
          "name": "",
          "type": "bool"
        }
      ],
      "stateMutability": "view",
      "type": "function",
      "constant": true
    },
    {
      "inputs": [
        {
          "internalType": "string",
          "name": "_walletKey",
          "type": "string"
        }
      ],
      "name": "authenticateVoter",
      "outputs": [
        {
          "internalType": "bool",
          "name": "",
          "type": "bool"
        }
      ],
      "stateMutability": "nonpayable",
      "type": "function"
    },
    {
      "inputs": [
        {
          "internalType": "string",
          "name": "_walletKey",
          "type": "string"
        }
      ],
      "name": "getVoterId",
      "outputs": [
        {
          "internalType": "string",
          "name": "",
          "type": "string"
        }
      ],
      "stateMutability": "nonpayable",
      "type": "function"
    },
    {
      "inputs": [
        {
          "internalType": "string",
          "name": "_voterid",
          "type": "string"
        }
      ],
      "name": "setVoterId",
      "outputs": [],
      "stateMutability": "nonpayable",
      "type": "function"
    },
    {
      "inputs": [],
      "name": "voterLength",
      "outputs": [
        {
          "internalType": "uint256",
          "name": "",
          "type": "uint256"
        }
      ],
      "stateMutability": "view",
      "type": "function",
      "constant": true
    },
    {
      "inputs": [
        {
          "internalType": "string",
          "name": "S1",
          "type": "string"
        },
        {
          "internalType": "string",
          "name": "S2",
          "type": "string"
        }
      ],
      "name": "areStringsEqual",
      "outputs": [
        {
          "internalType": "bool",
          "name": "",
          "type": "bool"
        }
      ],
      "stateMutability": "pure",
      "type": "function",
      "constant": true
    }
  ],
  "bytecode": "0x608060405260405180606001604052806040518060400160405280600c81526020017f4543495f4f6666696369616c000000000000000000000000000000000000000081525081526020016040518060400160405280600a81526020017f313233343536373839300000000000000000000000000000000000000000000081525081526020016040518060600160405280602a815260200162002aeb602a9139815250600080820151816000019080519060200190620000c19291906200018c565b506020820151816001019080519060200190620000e09291906200018c565b506040820151816002019080519060200190620000ff9291906200018c565b5050506040518060200160405280600081525060039080519060200190620001299291906200018c565b506040518060400160405280600981526020017f707265566f74696e67000000000000000000000000000000000000000000000081525060099080519060200190620001779291906200018c565b503480156200018557600080fd5b50620002a0565b8280546200019a906200026b565b90600052602060002090601f016020900481019282620001be57600085556200020a565b82601f10620001d957805160ff19168380011785556200020a565b828001600101855582156200020a579182015b8281111562000209578251825591602001919060010190620001ec565b5b5090506200021991906200021d565b5090565b5b80821115620002385760008160009055506001016200021e565b5090565b7f4e487b7100000000000000000000000000000000000000000000000000000000600052602260045260246000fd5b600060028204905060018216806200028457607f821691505b6020821081036200029a57620002996200023c565b5b50919050565b61283b80620002b06000396000f3fe608060405234801561001057600080fd5b506004361061012c5760003560e01c80639c35d98b116100ad578063aebd20f011610071578063aebd20f014610363578063b1496cd414610399578063c3403ddf146103c9578063e9523c97146103d3578063f6249c04146103f15761012c565b80639c35d98b146102915780639f89a4b2146102c7578063a3a8908d146102f9578063a72540511461032b578063a7d27b03146103475761012c565b80635982f610116100f45780635982f610146101e9578063622eaa14146102075780637820d384146102275780637d112d64146102455780638a25d072146102755761012c565b80631ec6b60a146101315780632ec660431461013b57806339bfeae31461016b578063481edc121461019b5780634fbe75c1146101b9575b600080fd5b610139610421565b005b61015560048036038101906101509190611ecc565b61046f565b6040516101629190611f9d565b60405180910390f35b61018560048036038101906101809190611ecc565b610525565b6040516101929190611fda565b60405180910390f35b6101a361055d565b6040516101b0919061200e565b60405180910390f35b6101d360048036038101906101ce91906121bb565b610567565b6040516101e09190611fda565b60405180910390f35b6101f1610646565b6040516101fe919061200e565b60405180910390f35b61020f610653565b60405161021e93929190612204565b60405180910390f35b61022f610803565b60405161023c919061200e565b60405180910390f35b61025f600480360381019061025a9190611ecc565b610810565b60405161026c9190611fda565b60405180910390f35b61028f600480360381019061028a9190612250565b6108f3565b005b6102ab60048036038101906102a69190612353565b610b96565b6040516102be9796959493929190612380565b60405180910390f35b6102e160048036038101906102dc9190612353565b610f25565b6040516102f093929190612204565b60405180910390f35b610313600480360381019061030e9190611ecc565b6110f7565b60405161032293929190612204565b60405180910390f35b61034560048036038101906103409190612419565b6112cf565b005b610361600480360381019061035c9190611ecc565b61153f565b005b61037d60048036038101906103789190611ecc565b611559565b6040516103909796959493929190612380565b60405180910390f35b6103b360048036038101906103ae919061254e565b6118ee565b6040516103c09190611fda565b60405180910390f35b6103d1611909565b005b6103db611957565b6040516103e89190612730565b60405180910390f35b61040b60048036038101906104069190611ecc565b611b6c565b6040516104189190611f9d565b60405180910390f35b6040518060400160405280600681526020017f566f74696e6700000000000000000000000000000000000000000000000000008152506009908051906020019061046c929190611c42565b50565b60078180516020810182018051848252602083016020850120818352809550505050505060009150905080546104a490612781565b80601f01602080910402602001604051908101604052809291908181526020018280546104d090612781565b801561051d5780601f106104f25761010080835404028352916020019161051d565b820191906000526020600020905b81548152906001019060200180831161050057829003601f168201915b505050505081565b600060088260405161053791906127ee565b908152602001604051809103902060060160009054906101000a900460ff169050919050565b6000600a54905090565b600061062f6008836080015160405161058091906127ee565b9081526020016040518091039020600001805461059c90612781565b80601f01602080910402602001604051908101604052809291908181526020018280546105c890612781565b80156106155780601f106105ea57610100808354040283529160200191610615565b820191906000526020600020905b8154815290600101906020018083116105f857829003601f168201915b5050505050604051806020016040528060008152506118ee565b61063c5760019050610641565b600090505b919050565b6000600480549050905090565b600080600001805461066490612781565b80601f016020809104026020016040519081016040528092919081815260200182805461069090612781565b80156106dd5780601f106106b2576101008083540402835291602001916106dd565b820191906000526020600020905b8154815290600101906020018083116106c057829003601f168201915b5050505050908060010180546106f290612781565b80601f016020809104026020016040519081016040528092919081815260200182805461071e90612781565b801561076b5780601f106107405761010080835404028352916020019161076b565b820191906000526020600020905b81548152906001019060200180831161074e57829003601f168201915b50505050509080600201805461078090612781565b80601f01602080910402602001604051908101604052809291908181526020018280546107ac90612781565b80156107f95780601f106107ce576101008083540402835291602001916107f9565b820191906000526020600020905b8154815290600101906020018083116107dc57829003601f168201915b5050505050905083565b6000600580549050905090565b60006108dc600861082084611b6c565b60405161082d91906127ee565b9081526020016040518091039020600001805461084990612781565b80601f016020809104026020016040519081016040528092919081815260200182805461087590612781565b80156108c25780601f10610897576101008083540402835291602001916108c2565b820191906000526020600020905b8154815290600101906020018083116108a557829003601f168201915b5050505050604051806020016040528060008152506118ee565b6108e957600190506108ee565b600090505b919050565b6108fb611c38565b610992846000600201805461090f90612781565b80601f016020809104026020016040519081016040528092919081815260200182805461093b90612781565b80156109885780601f1061095d57610100808354040283529160200191610988565b820191906000526020600020905b81548152906001019060200180831161096b57829003601f168201915b50505050506118ee565b15610b8757610a4a6006826040516109aa91906127ee565b908152602001604051809103902060020180546109c690612781565b80601f01602080910402602001604051908101604052809291908181526020018280546109f290612781565b8015610a3f5780601f10610a1457610100808354040283529160200191610a3f565b820191906000526020600020905b815481529060010190602001808311610a2257829003601f168201915b5050505050826118ee565b610b79576000604051806060016040528085815260200184815260200183815250905060048190806001815401808255809150506001900390600052602060002090600302016000909190919091506000820151816000019080519060200190610ab5929190611c42565b506020820151816001019080519060200190610ad2929190611c42565b506040820151816002019080519060200190610aef929190611c42565b50505080600683604051610b0391906127ee565b90815260200160405180910390206000820151816000019080519060200190610b2d929190611c42565b506020820151816001019080519060200190610b4a929190611c42565b506040820151816002019080519060200190610b67929190611c42565b509050506001600a8190555050610b82565b6002600a819055505b610b90565b6003600a819055505b50505050565b60058181548110610ba657600080fd5b9060005260206000209060070201600091509050806000018054610bc990612781565b80601f0160208091040260200160405190810160405280929190818152602001828054610bf590612781565b8015610c425780601f10610c1757610100808354040283529160200191610c42565b820191906000526020600020905b815481529060010190602001808311610c2557829003601f168201915b505050505090806001018054610c5790612781565b80601f0160208091040260200160405190810160405280929190818152602001828054610c8390612781565b8015610cd05780601f10610ca557610100808354040283529160200191610cd0565b820191906000526020600020905b815481529060010190602001808311610cb357829003601f168201915b505050505090806002018054610ce590612781565b80601f0160208091040260200160405190810160405280929190818152602001828054610d1190612781565b8015610d5e5780601f10610d3357610100808354040283529160200191610d5e565b820191906000526020600020905b815481529060010190602001808311610d4157829003601f168201915b505050505090806003018054610d7390612781565b80601f0160208091040260200160405190810160405280929190818152602001828054610d9f90612781565b8015610dec5780601f10610dc157610100808354040283529160200191610dec565b820191906000526020600020905b815481529060010190602001808311610dcf57829003601f168201915b505050505090806004018054610e0190612781565b80601f0160208091040260200160405190810160405280929190818152602001828054610e2d90612781565b8015610e7a5780601f10610e4f57610100808354040283529160200191610e7a565b820191906000526020600020905b815481529060010190602001808311610e5d57829003601f168201915b505050505090806005018054610e8f90612781565b80601f0160208091040260200160405190810160405280929190818152602001828054610ebb90612781565b8015610f085780601f10610edd57610100808354040283529160200191610f08565b820191906000526020600020905b815481529060010190602001808311610eeb57829003601f168201915b5050505050908060060160009054906101000a900460ff16905087565b60048181548110610f3557600080fd5b9060005260206000209060030201600091509050806000018054610f5890612781565b80601f0160208091040260200160405190810160405280929190818152602001828054610f8490612781565b8015610fd15780601f10610fa657610100808354040283529160200191610fd1565b820191906000526020600020905b815481529060010190602001808311610fb457829003601f168201915b505050505090806001018054610fe690612781565b80601f016020809104026020016040519081016040528092919081815260200182805461101290612781565b801561105f5780601f106110345761010080835404028352916020019161105f565b820191906000526020600020905b81548152906001019060200180831161104257829003601f168201915b50505050509080600201805461107490612781565b80601f01602080910402602001604051908101604052809291908181526020018280546110a090612781565b80156110ed5780601f106110c2576101008083540402835291602001916110ed565b820191906000526020600020905b8154815290600101906020018083116110d057829003601f168201915b5050505050905083565b60068180516020810182018051848252602083016020850120818352809550505050505060009150905080600001805461113090612781565b80601f016020809104026020016040519081016040528092919081815260200182805461115c90612781565b80156111a95780601f1061117e576101008083540402835291602001916111a9565b820191906000526020600020905b81548152906001019060200180831161118c57829003601f168201915b5050505050908060010180546111be90612781565b80601f01602080910402602001604051908101604052809291908181526020018280546111ea90612781565b80156112375780601f1061120c57610100808354040283529160200191611237565b820191906000526020600020905b81548152906001019060200180831161121a57829003601f168201915b50505050509080600201805461124c90612781565b80601f016020809104026020016040519081016040528092919081815260200182805461127890612781565b80156112c55780601f1061129a576101008083540402835291602001916112c5565b820191906000526020600020905b8154815290600101906020018083116112a857829003601f168201915b5050505050905083565b60006040518060e0016040528088815260200187815260200186815260200185815260200184815260200183815260200160001515815250905061131281610567565b611536576005819080600181540180825580915050600190039060005260206000209060070201600090919091909150600082015181600001908051906020019061135e929190611c42565b50602082015181600101908051906020019061137b929190611c42565b506040820151816002019080519060200190611398929190611c42565b5060608201518160030190805190602001906113b5929190611c42565b5060808201518160040190805190602001906113d2929190611c42565b5060a08201518160050190805190602001906113ef929190611c42565b5060c08201518160060160006101000a81548160ff02191690831515021790555050508060088360405161142391906127ee565b9081526020016040518091039020600082015181600001908051906020019061144d929190611c42565b50602082015181600101908051906020019061146a929190611c42565b506040820151816002019080519060200190611487929190611c42565b5060608201518160030190805190602001906114a4929190611c42565b5060808201518160040190805190602001906114c1929190611c42565b5060a08201518160050190805190602001906114de929190611c42565b5060c08201518160060160006101000a81548160ff0219169083151502179055509050508260078360405161151391906127ee565b90815260200160405180910390209080519060200190611534929190611c42565b505b50505050505050565b8060039080519060200190611555929190611c42565b5050565b60088180516020810182018051848252602083016020850120818352809550505050505060009150905080600001805461159290612781565b80601f01602080910402602001604051908101604052809291908181526020018280546115be90612781565b801561160b5780601f106115e05761010080835404028352916020019161160b565b820191906000526020600020905b8154815290600101906020018083116115ee57829003601f168201915b50505050509080600101805461162090612781565b80601f016020809104026020016040519081016040528092919081815260200182805461164c90612781565b80156116995780601f1061166e57610100808354040283529160200191611699565b820191906000526020600020905b81548152906001019060200180831161167c57829003601f168201915b5050505050908060020180546116ae90612781565b80601f01602080910402602001604051908101604052809291908181526020018280546116da90612781565b80156117275780601f106116fc57610100808354040283529160200191611727565b820191906000526020600020905b81548152906001019060200180831161170a57829003601f168201915b50505050509080600301805461173c90612781565b80601f016020809104026020016040519081016040528092919081815260200182805461176890612781565b80156117b55780601f1061178a576101008083540402835291602001916117b5565b820191906000526020600020905b81548152906001019060200180831161179857829003601f168201915b5050505050908060040180546117ca90612781565b80601f01602080910402602001604051908101604052809291908181526020018280546117f690612781565b80156118435780601f1061181857610100808354040283529160200191611843565b820191906000526020600020905b81548152906001019060200180831161182657829003601f168201915b50505050509080600501805461185890612781565b80601f016020809104026020016040519081016040528092919081815260200182805461188490612781565b80156118d15780601f106118a6576101008083540402835291602001916118d1565b820191906000526020600020905b8154815290600101906020018083116118b457829003601f168201915b5050505050908060060160009054906101000a900460ff16905087565b60008180519060200120838051906020012014905092915050565b6040518060400160405280600681526020017f526573756c74000000000000000000000000000000000000000000000000000081525060099080519060200190611954929190611c42565b50565b60606004805480602002602001604051908101604052809291908181526020016000905b82821015611b6357838290600052602060002090600302016040518060600160405290816000820180546119ae90612781565b80601f01602080910402602001604051908101604052809291908181526020018280546119da90612781565b8015611a275780601f106119fc57610100808354040283529160200191611a27565b820191906000526020600020905b815481529060010190602001808311611a0a57829003601f168201915b50505050508152602001600182018054611a4090612781565b80601f0160208091040260200160405190810160405280929190818152602001828054611a6c90612781565b8015611ab95780601f10611a8e57610100808354040283529160200191611ab9565b820191906000526020600020905b815481529060010190602001808311611a9c57829003601f168201915b50505050508152602001600282018054611ad290612781565b80601f0160208091040260200160405190810160405280929190818152602001828054611afe90612781565b8015611b4b5780601f10611b2057610100808354040283529160200191611b4b565b820191906000526020600020905b815481529060010190602001808311611b2e57829003601f168201915b5050505050815250508152602001906001019061197b565b50505050905090565b6060600782604051611b7e91906127ee565b90815260200160405180910390206003908054611b9a90612781565b611ba5929190611cc8565b5060038054611bb390612781565b80601f0160208091040260200160405190810160405280929190818152602001828054611bdf90612781565b8015611c2c5780601f10611c0157610100808354040283529160200191611c2c565b820191906000526020600020905b815481529060010190602001808311611c0f57829003601f168201915b50505050509050919050565b6000600a81905550565b828054611c4e90612781565b90600052602060002090601f016020900481019282611c705760008555611cb7565b82601f10611c8957805160ff1916838001178555611cb7565b82800160010185558215611cb7579182015b82811115611cb6578251825591602001919060010190611c9b565b5b509050611cc49190611d55565b5090565b828054611cd490612781565b90600052602060002090601f016020900481019282611cf65760008555611d44565b82601f10611d075780548555611d44565b82800160010185558215611d4457600052602060002091601f016020900482015b82811115611d43578254825591600101919060010190611d28565b5b509050611d519190611d55565b5090565b5b80821115611d6e576000816000905550600101611d56565b5090565b6000604051905090565b600080fd5b600080fd5b600080fd5b600080fd5b6000601f19601f8301169050919050565b7f4e487b7100000000000000000000000000000000000000000000000000000000600052604160045260246000fd5b611dd982611d90565b810181811067ffffffffffffffff82111715611df857611df7611da1565b5b80604052505050565b6000611e0b611d72565b9050611e178282611dd0565b919050565b600067ffffffffffffffff821115611e3757611e36611da1565b5b611e4082611d90565b9050602081019050919050565b82818337600083830152505050565b6000611e6f611e6a84611e1c565b611e01565b905082815260208101848484011115611e8b57611e8a611d8b565b5b611e96848285611e4d565b509392505050565b600082601f830112611eb357611eb2611d86565b5b8135611ec3848260208601611e5c565b91505092915050565b600060208284031215611ee257611ee1611d7c565b5b600082013567ffffffffffffffff811115611f0057611eff611d81565b5b611f0c84828501611e9e565b91505092915050565b600081519050919050565b600082825260208201905092915050565b60005b83811015611f4f578082015181840152602081019050611f34565b83811115611f5e576000848401525b50505050565b6000611f6f82611f15565b611f798185611f20565b9350611f89818560208601611f31565b611f9281611d90565b840191505092915050565b60006020820190508181036000830152611fb78184611f64565b905092915050565b60008115159050919050565b611fd481611fbf565b82525050565b6000602082019050611fef6000830184611fcb565b92915050565b6000819050919050565b61200881611ff5565b82525050565b60006020820190506120236000830184611fff565b92915050565b600080fd5b600080fd5b61203c81611fbf565b811461204757600080fd5b50565b60008135905061205981612033565b92915050565b600060e0828403121561207557612074612029565b5b61207f60e0611e01565b9050600082013567ffffffffffffffff81111561209f5761209e61202e565b5b6120ab84828501611e9e565b600083015250602082013567ffffffffffffffff8111156120cf576120ce61202e565b5b6120db84828501611e9e565b602083015250604082013567ffffffffffffffff8111156120ff576120fe61202e565b5b61210b84828501611e9e565b604083015250606082013567ffffffffffffffff81111561212f5761212e61202e565b5b61213b84828501611e9e565b606083015250608082013567ffffffffffffffff81111561215f5761215e61202e565b5b61216b84828501611e9e565b60808301525060a082013567ffffffffffffffff81111561218f5761218e61202e565b5b61219b84828501611e9e565b60a08301525060c06121af8482850161204a565b60c08301525092915050565b6000602082840312156121d1576121d0611d7c565b5b600082013567ffffffffffffffff8111156121ef576121ee611d81565b5b6121fb8482850161205f565b91505092915050565b6000606082019050818103600083015261221e8186611f64565b905081810360208301526122328185611f64565b905081810360408301526122468184611f64565b9050949350505050565b6000806000806080858703121561226a57612269611d7c565b5b600085013567ffffffffffffffff81111561228857612287611d81565b5b61229487828801611e9e565b945050602085013567ffffffffffffffff8111156122b5576122b4611d81565b5b6122c187828801611e9e565b935050604085013567ffffffffffffffff8111156122e2576122e1611d81565b5b6122ee87828801611e9e565b925050606085013567ffffffffffffffff81111561230f5761230e611d81565b5b61231b87828801611e9e565b91505092959194509250565b61233081611ff5565b811461233b57600080fd5b50565b60008135905061234d81612327565b92915050565b60006020828403121561236957612368611d7c565b5b60006123778482850161233e565b91505092915050565b600060e082019050818103600083015261239a818a611f64565b905081810360208301526123ae8189611f64565b905081810360408301526123c28188611f64565b905081810360608301526123d68187611f64565b905081810360808301526123ea8186611f64565b905081810360a08301526123fe8185611f64565b905061240d60c0830184611fcb565b98975050505050505050565b60008060008060008060c0878903121561243657612435611d7c565b5b600087013567ffffffffffffffff81111561245457612453611d81565b5b61246089828a01611e9e565b965050602087013567ffffffffffffffff81111561248157612480611d81565b5b61248d89828a01611e9e565b955050604087013567ffffffffffffffff8111156124ae576124ad611d81565b5b6124ba89828a01611e9e565b945050606087013567ffffffffffffffff8111156124db576124da611d81565b5b6124e789828a01611e9e565b935050608087013567ffffffffffffffff81111561250857612507611d81565b5b61251489828a01611e9e565b92505060a087013567ffffffffffffffff81111561253557612534611d81565b5b61254189828a01611e9e565b9150509295509295509295565b6000806040838503121561256557612564611d7c565b5b600083013567ffffffffffffffff81111561258357612582611d81565b5b61258f85828601611e9e565b925050602083013567ffffffffffffffff8111156125b0576125af611d81565b5b6125bc85828601611e9e565b9150509250929050565b600081519050919050565b600082825260208201905092915050565b6000819050602082019050919050565b600082825260208201905092915050565b600061260e82611f15565b61261881856125f2565b9350612628818560208601611f31565b61263181611d90565b840191505092915050565b600060608301600083015184820360008601526126598282612603565b915050602083015184820360208601526126738282612603565b9150506040830151848203604086015261268d8282612603565b9150508091505092915050565b60006126a6838361263c565b905092915050565b6000602082019050919050565b60006126c6826125c6565b6126d081856125d1565b9350836020820285016126e2856125e2565b8060005b8581101561271e57848403895281516126ff858261269a565b945061270a836126ae565b925060208a019950506001810190506126e6565b50829750879550505050505092915050565b6000602082019050818103600083015261274a81846126bb565b905092915050565b7f4e487b7100000000000000000000000000000000000000000000000000000000600052602260045260246000fd5b6000600282049050600182168061279957607f821691505b6020821081036127ac576127ab612752565b5b50919050565b600081905092915050565b60006127c882611f15565b6127d281856127b2565b93506127e2818560208601611f31565b80840191505092915050565b60006127fa82846127bd565b91508190509291505056fea2646970667358221220b58898d1b4d1d78c259a4d2abef9d4e7810acb2e1a44f4a77cf143f53527c37564736f6c634300080d0033307842363633466465333563353936453539374135363630646536373238623462433330326362363737",
  "immutableReferences": {},
  "source": "// SPDX-License-Identifier: MIT\r\npragma solidity ^0.8.10;\r\n\r\nstruct Admin{\r\n    string name;\r\n    string mobileNo;\r\n    string walletKey;\r\n}\r\n\r\nstruct Voter {\r\n    string name;\r\n    string mobileNo;\r\n    string homeAddress;\r\n    string aadharCardNo;\r\n    string voterId;\r\n    string walletKey;\r\n    bool isVoted;\r\n}\r\n\r\nstruct Candidate {\r\n    string name;\r\n    string mobileNo;\r\n    string homeAddress;\r\n    string aadharCardNo;\r\n    string voterId;\r\n    string walletKey;\r\n    string politicalParty;\r\n    uint256 votes;\r\n}\r\n\r\ncontract BlockVote{\r\n    /* Global Variables START. */\r\n    Admin public ECI = Admin({name:\"ECI_Official\", mobileNo:\"1234567890\", walletKey:\"0xB663Fde35c596E597A5660de6728b4bC302cb677\"});\r\n    string voterId_main=\"\";\r\n    Admin[] public Admins;\r\n    Voter[] public Voters;\r\n    mapping (string=>Admin) public mapWalletKey2Admin;\r\n    // walletKey : voterId\r\n    mapping(string=>string) public map_walletKey_voterid;\r\n    // voterid : Voter;\r\n    mapping(string=>Voter) public map_voterid_details;\r\n    string votingPhase = \"preVoting\";\r\n    /* Global Variables END. */\r\n\r\n    /* ECI Functions START. */\r\n    uint addAdminState;     // 0 -> Not added, 1 -> Added succesfully, 2 -> Admin already exist, 3 -> Invalid ECI.\r\n    \r\n    function startVoting() public {\r\n        votingPhase = \"Voting\";\r\n    }\r\n\r\n    function endVoting() public {\r\n        votingPhase = \"Result\";\r\n    }\r\n\r\n    // Set addAdminState = 0.\r\n    function resetAddAdminState() private{\r\n        addAdminState = 0;\r\n    }\r\n\r\n    // Returns state of the last addAdmin call.\r\n    function getAddAdminState() public view returns(uint){\r\n        return addAdminState;\r\n    }\r\n\r\n    // Add an admin to the blockchain.\r\n    function addAdmin(string memory ECI_Key,string memory adName, string memory adMoNo, string memory adEthKey) public{\r\n        resetAddAdminState();\r\n        if(areStringsEqual(ECI_Key, ECI.walletKey)){\r\n            if(!areStringsEqual(mapWalletKey2Admin[adEthKey].walletKey, adEthKey)) {\r\n                Admin memory newAdmin = Admin({\r\n                    name:adName, \r\n                    mobileNo:adMoNo,\r\n                    walletKey:adEthKey\r\n                });\r\n                Admins.push(newAdmin);\r\n                mapWalletKey2Admin[adEthKey] = newAdmin;\r\n                addAdminState = 1;\r\n            }\r\n            else\r\n                addAdminState = 2;\r\n        }\r\n        else\r\n            addAdminState = 3;   \r\n    }\r\n\r\n    // Returns total number of admins in the blockchain.\r\n    function adminLength() public view returns(uint){\r\n        return Admins.length;\r\n    }\r\n\r\n    // Returns all admins in the blockchain.\r\n    function getAllAdmins() public view returns(Admin[] memory){\r\n        return Admins;\r\n    }\r\n\r\n    /* ECI Functions END. */\r\n\r\n    /* Admin Functions START. */\r\n    /* Admin Functions END. */\r\n\r\n    /* Voter Functions START. */\r\n    \r\n    function addVoter(string memory _name, string memory _mobileNo, string memory _homeAddress,\r\n     string memory _aadharCardNo, string memory _voterId, string memory _walletKey) public {\r\n        Voter memory newVoter = Voter({\r\n                    name:_name, \r\n                    mobileNo:_mobileNo,\r\n                    homeAddress:_homeAddress,\r\n                    aadharCardNo:_aadharCardNo,\r\n                    voterId:_voterId,\r\n                    walletKey:_walletKey,\r\n                    isVoted:false\r\n        });\r\n        if(!isVoterRegistered(newVoter)) {\r\n            Voters.push(newVoter);\r\n            map_voterid_details[_walletKey] = newVoter;\r\n            map_walletKey_voterid[_walletKey] = _voterId;\r\n        }\r\n        \r\n    }\r\n\r\n    function hasVoted(string memory _voterid) public view returns(bool){\r\n        return map_voterid_details[_voterid].isVoted;\r\n    }\r\n\r\n    function isVoterRegistered(Voter memory item) public view returns(bool) {\r\n        if(!areStringsEqual(map_voterid_details[item.voterId].name,\"\")) return true;\r\n        else return false;\r\n    }\r\n\r\n    function authenticateVoter(string memory _walletKey) public returns(bool) {\r\n        if(!areStringsEqual(map_voterid_details[getVoterId(_walletKey)].name,\"\")) return true;\r\n        else return false;\r\n    }\r\n\r\n    function getVoterId(string memory _walletKey) public returns(string memory) {\r\n        voterId_main = map_walletKey_voterid[_walletKey];\r\n        return voterId_main;\r\n    }\r\n\r\n    function setVoterId(string memory _voterid) public {\r\n        voterId_main = _voterid;\r\n    }\r\n\r\n    function voterLength() public view returns(uint) {\r\n        return Voters.length;\r\n    }\r\n\r\n    /* Voter Functions END. */\r\n    \r\n    /* Candidate Functions START. */\r\n\r\n    \r\n\r\n    /* Candidate Functions END. */\r\n\r\n    /* Utility Functions START. */\r\n    function areStringsEqual(string memory S1, string memory S2) public pure returns(bool){\r\n        return keccak256(bytes(S1)) == keccak256(bytes(S2));\r\n    }\r\n    /* Utility Functions END. */\r\n}\r\n",
  "sourcePath": "D:\\Blockchain-Projects\\BlockVote\\contracts\\BlockVote.sol",
  "compiler": {
    "name": "solc",
    "version": "0.8.13+commit.abaa5c0e.Emscripten.clang"
  },
  "schemaVersion": "3.4.4",
  "updatedAt": "2022-03-31T04:48:36.782Z",
  "networkType": "ethereum",
  "devdoc": {
    "kind": "dev",
    "methods": {},
    "version": 1
  },
  "userdoc": {
    "kind": "user",
    "methods": {},
    "version": 1
  }
}