{
  "contractName": "BlockVote",
  "abi": [
    {
      "inputs": [
        {
          "internalType": "uint256",
          "name": "",
          "type": "uint256"
        }
      ],
      "name": "Admins",
      "outputs": [
        {
          "internalType": "string",
          "name": "name",
          "type": "string"
        },
        {
          "internalType": "string",
          "name": "mobileNo",
          "type": "string"
        },
        {
          "internalType": "string",
          "name": "walletKey",
          "type": "string"
        }
      ],
      "stateMutability": "view",
      "type": "function",
      "constant": true
    },
    {
      "inputs": [],
      "name": "ECI",
      "outputs": [
        {
          "internalType": "string",
          "name": "name",
          "type": "string"
        },
        {
          "internalType": "string",
          "name": "mobileNo",
          "type": "string"
        },
        {
          "internalType": "string",
          "name": "walletKey",
          "type": "string"
        }
      ],
      "stateMutability": "view",
      "type": "function",
      "constant": true
    },
    {
      "inputs": [
        {
          "internalType": "string",
          "name": "",
          "type": "string"
        }
      ],
      "name": "mapWalletKey2Admin",
      "outputs": [
        {
          "internalType": "string",
          "name": "name",
          "type": "string"
        },
        {
          "internalType": "string",
          "name": "mobileNo",
          "type": "string"
        },
        {
          "internalType": "string",
          "name": "walletKey",
          "type": "string"
        }
      ],
      "stateMutability": "view",
      "type": "function",
      "constant": true
    },
    {
      "inputs": [],
      "name": "startVoting",
      "outputs": [],
      "stateMutability": "nonpayable",
      "type": "function"
    },
    {
      "inputs": [],
      "name": "endVoting",
      "outputs": [],
      "stateMutability": "nonpayable",
      "type": "function"
    },
    {
      "inputs": [],
      "name": "getAddAdminState",
      "outputs": [
        {
          "internalType": "uint256",
          "name": "",
          "type": "uint256"
        }
      ],
      "stateMutability": "view",
      "type": "function",
      "constant": true
    },
    {
      "inputs": [
        {
          "internalType": "string",
          "name": "ECI_Key",
          "type": "string"
        },
        {
          "internalType": "string",
          "name": "adName",
          "type": "string"
        },
        {
          "internalType": "string",
          "name": "adMoNo",
          "type": "string"
        },
        {
          "internalType": "string",
          "name": "adEthKey",
          "type": "string"
        }
      ],
      "name": "addAdmin",
      "outputs": [],
      "stateMutability": "nonpayable",
      "type": "function"
    },
    {
      "inputs": [],
      "name": "adminLength",
      "outputs": [
        {
          "internalType": "uint256",
          "name": "",
          "type": "uint256"
        }
      ],
      "stateMutability": "view",
      "type": "function",
      "constant": true
    },
    {
      "inputs": [],
      "name": "getAllAdmins",
      "outputs": [
        {
          "components": [
            {
              "internalType": "string",
              "name": "name",
              "type": "string"
            },
            {
              "internalType": "string",
              "name": "mobileNo",
              "type": "string"
            },
            {
              "internalType": "string",
              "name": "walletKey",
              "type": "string"
            }
          ],
          "internalType": "struct Admin[]",
          "name": "",
          "type": "tuple[]"
        }
      ],
      "stateMutability": "view",
      "type": "function",
      "constant": true
    },
    {
      "inputs": [
        {
          "internalType": "string",
          "name": "S1",
          "type": "string"
        },
        {
          "internalType": "string",
          "name": "S2",
          "type": "string"
        }
      ],
      "name": "areStringsEqual",
      "outputs": [
        {
          "internalType": "bool",
          "name": "",
          "type": "bool"
        }
      ],
      "stateMutability": "pure",
      "type": "function",
      "constant": true
    }
  ],
  "bytecode": "0x608060405260405180606001604052806040518060400160405280600c81526020017f4543495f4f6666696369616c000000000000000000000000000000000000000081525081526020016040518060400160405280600a81526020017f313233343536373839300000000000000000000000000000000000000000000081525081526020016040518060600160405280602a8152602001620016f4602a9139815250600080820151816000019080519060200190620000c192919062000164565b506020820151816001019080519060200190620000e092919062000164565b506040820151816002019080519060200190620000ff92919062000164565b5050506040518060400160405280600981526020017f707265566f74696e670000000000000000000000000000000000000000000000815250600590805190602001906200014f92919062000164565b503480156200015d57600080fd5b5062000278565b828054620001729062000243565b90600052602060002090601f016020900481019282620001965760008555620001e2565b82601f10620001b157805160ff1916838001178555620001e2565b82800160010185558215620001e2579182015b82811115620001e1578251825591602001919060010190620001c4565b5b509050620001f19190620001f5565b5090565b5b8082111562000210576000816000905550600101620001f6565b5090565b7f4e487b7100000000000000000000000000000000000000000000000000000000600052602260045260246000fd5b600060028204905060018216806200025c57607f821691505b60208210810362000272576200027162000214565b5b50919050565b61146c80620002886000396000f3fe608060405234801561001057600080fd5b506004361061009e5760003560e01c80639f89a4b2116100665780639f89a4b214610125578063a3a8908d14610157578063b1496cd414610189578063c3403ddf146101b9578063e9523c97146101c35761009e565b80631ec6b60a146100a3578063481edc12146100ad5780635982f610146100cb578063622eaa14146100e95780638a25d07214610109575b600080fd5b6100ab6101e1565b005b6100b561022f565b6040516100c29190610d87565b60405180910390f35b6100d3610239565b6040516100e09190610d87565b60405180910390f35b6100f1610246565b60405161010093929190610e3b565b60405180910390f35b610123600480360381019061011e9190610fd0565b6103f6565b005b61013f600480360381019061013a91906110d3565b610699565b60405161014e93929190610e3b565b60405180910390f35b610171600480360381019061016c9190611100565b61086b565b60405161018093929190610e3b565b60405180910390f35b6101a3600480360381019061019e9190611149565b610a43565b6040516101b091906111dc565b60405180910390f35b6101c1610a5e565b005b6101cb610aac565b6040516101d89190611361565b60405180910390f35b6040518060400160405280600681526020017f566f74696e6700000000000000000000000000000000000000000000000000008152506005908051906020019061022c929190610ccb565b50565b6000600654905090565b6000600380549050905090565b6000806000018054610257906113b2565b80601f0160208091040260200160405190810160405280929190818152602001828054610283906113b2565b80156102d05780601f106102a5576101008083540402835291602001916102d0565b820191906000526020600020905b8154815290600101906020018083116102b357829003601f168201915b5050505050908060010180546102e5906113b2565b80601f0160208091040260200160405190810160405280929190818152602001828054610311906113b2565b801561035e5780601f106103335761010080835404028352916020019161035e565b820191906000526020600020905b81548152906001019060200180831161034157829003601f168201915b505050505090806002018054610373906113b2565b80601f016020809104026020016040519081016040528092919081815260200182805461039f906113b2565b80156103ec5780601f106103c1576101008083540402835291602001916103ec565b820191906000526020600020905b8154815290600101906020018083116103cf57829003601f168201915b5050505050905083565b6103fe610cc1565b6104958460006002018054610412906113b2565b80601f016020809104026020016040519081016040528092919081815260200182805461043e906113b2565b801561048b5780601f106104605761010080835404028352916020019161048b565b820191906000526020600020905b81548152906001019060200180831161046e57829003601f168201915b5050505050610a43565b1561068a5761054d6004826040516104ad919061141f565b908152602001604051809103902060020180546104c9906113b2565b80601f01602080910402602001604051908101604052809291908181526020018280546104f5906113b2565b80156105425780601f1061051757610100808354040283529160200191610542565b820191906000526020600020905b81548152906001019060200180831161052557829003601f168201915b505050505082610a43565b61067c5760006040518060600160405280858152602001848152602001838152509050600381908060018154018082558091505060019003906000526020600020906003020160009091909190915060008201518160000190805190602001906105b8929190610ccb565b5060208201518160010190805190602001906105d5929190610ccb565b5060408201518160020190805190602001906105f2929190610ccb565b50505080600483604051610606919061141f565b90815260200160405180910390206000820151816000019080519060200190610630929190610ccb565b50602082015181600101908051906020019061064d929190610ccb565b50604082015181600201908051906020019061066a929190610ccb565b50905050600160068190555050610685565b60026006819055505b610693565b60036006819055505b50505050565b600381815481106106a957600080fd5b90600052602060002090600302016000915090508060000180546106cc906113b2565b80601f01602080910402602001604051908101604052809291908181526020018280546106f8906113b2565b80156107455780601f1061071a57610100808354040283529160200191610745565b820191906000526020600020905b81548152906001019060200180831161072857829003601f168201915b50505050509080600101805461075a906113b2565b80601f0160208091040260200160405190810160405280929190818152602001828054610786906113b2565b80156107d35780601f106107a8576101008083540402835291602001916107d3565b820191906000526020600020905b8154815290600101906020018083116107b657829003601f168201915b5050505050908060020180546107e8906113b2565b80601f0160208091040260200160405190810160405280929190818152602001828054610814906113b2565b80156108615780601f1061083657610100808354040283529160200191610861565b820191906000526020600020905b81548152906001019060200180831161084457829003601f168201915b5050505050905083565b6004818051602081018201805184825260208301602085012081835280955050505050506000915090508060000180546108a4906113b2565b80601f01602080910402602001604051908101604052809291908181526020018280546108d0906113b2565b801561091d5780601f106108f25761010080835404028352916020019161091d565b820191906000526020600020905b81548152906001019060200180831161090057829003601f168201915b505050505090806001018054610932906113b2565b80601f016020809104026020016040519081016040528092919081815260200182805461095e906113b2565b80156109ab5780601f10610980576101008083540402835291602001916109ab565b820191906000526020600020905b81548152906001019060200180831161098e57829003601f168201915b5050505050908060020180546109c0906113b2565b80601f01602080910402602001604051908101604052809291908181526020018280546109ec906113b2565b8015610a395780601f10610a0e57610100808354040283529160200191610a39565b820191906000526020600020905b815481529060010190602001808311610a1c57829003601f168201915b5050505050905083565b60008180519060200120838051906020012014905092915050565b6040518060400160405280600681526020017f526573756c74000000000000000000000000000000000000000000000000000081525060059080519060200190610aa9929190610ccb565b50565b60606003805480602002602001604051908101604052809291908181526020016000905b82821015610cb85783829060005260206000209060030201604051806060016040529081600082018054610b03906113b2565b80601f0160208091040260200160405190810160405280929190818152602001828054610b2f906113b2565b8015610b7c5780601f10610b5157610100808354040283529160200191610b7c565b820191906000526020600020905b815481529060010190602001808311610b5f57829003601f168201915b50505050508152602001600182018054610b95906113b2565b80601f0160208091040260200160405190810160405280929190818152602001828054610bc1906113b2565b8015610c0e5780601f10610be357610100808354040283529160200191610c0e565b820191906000526020600020905b815481529060010190602001808311610bf157829003601f168201915b50505050508152602001600282018054610c27906113b2565b80601f0160208091040260200160405190810160405280929190818152602001828054610c53906113b2565b8015610ca05780601f10610c7557610100808354040283529160200191610ca0565b820191906000526020600020905b815481529060010190602001808311610c8357829003601f168201915b50505050508152505081526020019060010190610ad0565b50505050905090565b6000600681905550565b828054610cd7906113b2565b90600052602060002090601f016020900481019282610cf95760008555610d40565b82601f10610d1257805160ff1916838001178555610d40565b82800160010185558215610d40579182015b82811115610d3f578251825591602001919060010190610d24565b5b509050610d4d9190610d51565b5090565b5b80821115610d6a576000816000905550600101610d52565b5090565b6000819050919050565b610d8181610d6e565b82525050565b6000602082019050610d9c6000830184610d78565b92915050565b600081519050919050565b600082825260208201905092915050565b60005b83811015610ddc578082015181840152602081019050610dc1565b83811115610deb576000848401525b50505050565b6000601f19601f8301169050919050565b6000610e0d82610da2565b610e178185610dad565b9350610e27818560208601610dbe565b610e3081610df1565b840191505092915050565b60006060820190508181036000830152610e558186610e02565b90508181036020830152610e698185610e02565b90508181036040830152610e7d8184610e02565b9050949350505050565b6000604051905090565b600080fd5b600080fd5b600080fd5b600080fd5b7f4e487b7100000000000000000000000000000000000000000000000000000000600052604160045260246000fd5b610edd82610df1565b810181811067ffffffffffffffff82111715610efc57610efb610ea5565b5b80604052505050565b6000610f0f610e87565b9050610f1b8282610ed4565b919050565b600067ffffffffffffffff821115610f3b57610f3a610ea5565b5b610f4482610df1565b9050602081019050919050565b82818337600083830152505050565b6000610f73610f6e84610f20565b610f05565b905082815260208101848484011115610f8f57610f8e610ea0565b5b610f9a848285610f51565b509392505050565b600082601f830112610fb757610fb6610e9b565b5b8135610fc7848260208601610f60565b91505092915050565b60008060008060808587031215610fea57610fe9610e91565b5b600085013567ffffffffffffffff81111561100857611007610e96565b5b61101487828801610fa2565b945050602085013567ffffffffffffffff81111561103557611034610e96565b5b61104187828801610fa2565b935050604085013567ffffffffffffffff81111561106257611061610e96565b5b61106e87828801610fa2565b925050606085013567ffffffffffffffff81111561108f5761108e610e96565b5b61109b87828801610fa2565b91505092959194509250565b6110b081610d6e565b81146110bb57600080fd5b50565b6000813590506110cd816110a7565b92915050565b6000602082840312156110e9576110e8610e91565b5b60006110f7848285016110be565b91505092915050565b60006020828403121561111657611115610e91565b5b600082013567ffffffffffffffff81111561113457611133610e96565b5b61114084828501610fa2565b91505092915050565b600080604083850312156111605761115f610e91565b5b600083013567ffffffffffffffff81111561117e5761117d610e96565b5b61118a85828601610fa2565b925050602083013567ffffffffffffffff8111156111ab576111aa610e96565b5b6111b785828601610fa2565b9150509250929050565b60008115159050919050565b6111d6816111c1565b82525050565b60006020820190506111f160008301846111cd565b92915050565b600081519050919050565b600082825260208201905092915050565b6000819050602082019050919050565b600082825260208201905092915050565b600061123f82610da2565b6112498185611223565b9350611259818560208601610dbe565b61126281610df1565b840191505092915050565b6000606083016000830151848203600086015261128a8282611234565b915050602083015184820360208601526112a48282611234565b915050604083015184820360408601526112be8282611234565b9150508091505092915050565b60006112d7838361126d565b905092915050565b6000602082019050919050565b60006112f7826111f7565b6113018185611202565b93508360208202850161131385611213565b8060005b8581101561134f578484038952815161133085826112cb565b945061133b836112df565b925060208a01995050600181019050611317565b50829750879550505050505092915050565b6000602082019050818103600083015261137b81846112ec565b905092915050565b7f4e487b7100000000000000000000000000000000000000000000000000000000600052602260045260246000fd5b600060028204905060018216806113ca57607f821691505b6020821081036113dd576113dc611383565b5b50919050565b600081905092915050565b60006113f982610da2565b61140381856113e3565b9350611413818560208601610dbe565b80840191505092915050565b600061142b82846113ee565b91508190509291505056fea26469706673582212201381a3da8121c872c15cddfb1a844176b46c39d55dca8eb89e9b86080b4e8f5c64736f6c634300080d0033307842363633466465333563353936453539374135363630646536373238623462433330326362363737",
  "immutableReferences": {},
  "source": "// SPDX-License-Identifier: MIT\r\npragma solidity ^0.8.10;\r\n\r\nstruct Admin{\r\n    string name;\r\n    string mobileNo;\r\n    string walletKey;\r\n}\r\n\r\ncontract BlockVote{\r\n    /* Global Variables START. */\r\n    Admin public  ECI = Admin({name:\"ECI_Official\", mobileNo:\"1234567890\", walletKey:\"0xB663Fde35c596E597A5660de6728b4bC302cb677\"});\r\n    \r\n    Admin[] public Admins;\r\n    mapping (string=>Admin) public mapWalletKey2Admin;\r\n    string votingPhase = \"preVoting\";\r\n    /* Global Variables END. */\r\n\r\n    /* ECI Functions START. */\r\n    uint addAdminState;     // 0 -> Not added, 1 -> Added succesfully, 2 -> Admin already exist, 3 -> Invalid ECI.\r\n    \r\n    function startVoting() public {\r\n        votingPhase = \"Voting\";\r\n    }\r\n\r\n    function endVoting() public {\r\n        votingPhase = \"Result\";\r\n    }\r\n\r\n    // Set addAdminState = 0.\r\n    function resetAddAdminState() private{\r\n        addAdminState = 0;\r\n    }\r\n\r\n    // Returns state of the last addAdmin call.\r\n    function getAddAdminState() public view returns(uint){\r\n        return addAdminState;\r\n    }\r\n\r\n    // Add an admin to the blockchain.\r\n    function addAdmin(string memory ECI_Key,string memory adName, string memory adMoNo, string memory adEthKey) public{\r\n        resetAddAdminState();\r\n        if(areStringsEqual(ECI_Key, ECI.walletKey)){\r\n            if(!areStringsEqual(mapWalletKey2Admin[adEthKey].walletKey, adEthKey)) {\r\n                Admin memory newAdmin = Admin({\r\n                    name:adName, \r\n                    mobileNo:adMoNo,\r\n                    walletKey:adEthKey\r\n                });\r\n                Admins.push(newAdmin);\r\n                mapWalletKey2Admin[adEthKey] = newAdmin;\r\n                addAdminState = 1;\r\n            }\r\n            else\r\n                addAdminState = 2;\r\n        }\r\n        else\r\n            addAdminState = 3;   \r\n    }\r\n\r\n    // Returns total number of admins in the blockchain.\r\n    function adminLength() public view returns(uint){\r\n        return Admins.length;\r\n    }\r\n\r\n    // Returns all admins in the blockchain.\r\n    function getAllAdmins() public view returns(Admin[] memory){\r\n        return Admins;\r\n    }\r\n\r\n    /* ECI Functions END. */\r\n\r\n    /* Admin Functions START. */\r\n    /* Admin Functions END. */\r\n\r\n    /* Voter Functions START. */\r\n    /* Voter Functions END. */\r\n    \r\n    /* Candidate Functions START. */\r\n    /* Candidate Functions END. */\r\n\r\n    /* Utility Functions START. */\r\n    function areStringsEqual(string memory S1, string memory S2) public pure returns(bool){\r\n        return keccak256(bytes(S1)) == keccak256(bytes(S2));\r\n    }\r\n    /* Utility Functions END. */\r\n}\r\n",
  "sourcePath": "D:\\Blockchain-Projects\\BlockVote\\contracts\\BlockVote.sol",
  "compiler": {
    "name": "solc",
    "version": "0.8.13+commit.abaa5c0e.Emscripten.clang"
  },
  "schemaVersion": "3.4.4",
  "updatedAt": "2022-03-30T15:31:14.959Z",
  "networkType": "ethereum",
  "devdoc": {
    "kind": "dev",
    "methods": {},
    "version": 1
  },
  "userdoc": {
    "kind": "user",
    "methods": {},
    "version": 1
  }
}