{
  "contractName": "BlockVote",
  "abi": [
    {
      "inputs": [
        {
          "internalType": "uint256",
          "name": "",
          "type": "uint256"
        }
      ],
      "name": "Admins",
      "outputs": [
        {
          "internalType": "string",
          "name": "name",
          "type": "string"
        },
        {
          "internalType": "string",
          "name": "mobileNo",
          "type": "string"
        },
        {
          "internalType": "string",
          "name": "walletKey",
          "type": "string"
        }
      ],
      "stateMutability": "view",
      "type": "function",
      "constant": true
    },
    {
      "inputs": [
        {
          "internalType": "uint256",
          "name": "",
          "type": "uint256"
        }
      ],
      "name": "Candidates",
      "outputs": [
        {
          "internalType": "string",
          "name": "name",
          "type": "string"
        },
        {
          "internalType": "string",
          "name": "mobileNo",
          "type": "string"
        },
        {
          "internalType": "string",
          "name": "homeAddress",
          "type": "string"
        },
        {
          "internalType": "string",
          "name": "aadharCardNo",
          "type": "string"
        },
        {
          "internalType": "string",
          "name": "voterId",
          "type": "string"
        },
        {
          "internalType": "string",
          "name": "walletKey",
          "type": "string"
        },
        {
          "internalType": "string",
          "name": "politicalParty",
          "type": "string"
        },
        {
          "internalType": "uint256",
          "name": "votes",
          "type": "uint256"
        },
        {
          "internalType": "string",
          "name": "symbolUrl",
          "type": "string"
        }
      ],
      "stateMutability": "view",
      "type": "function",
      "constant": true
    },
    {
      "inputs": [],
      "name": "ECI",
      "outputs": [
        {
          "internalType": "string",
          "name": "name",
          "type": "string"
        },
        {
          "internalType": "string",
          "name": "mobileNo",
          "type": "string"
        },
        {
          "internalType": "string",
          "name": "walletKey",
          "type": "string"
        }
      ],
      "stateMutability": "view",
      "type": "function",
      "constant": true
    },
    {
      "inputs": [
        {
          "internalType": "uint256",
          "name": "",
          "type": "uint256"
        }
      ],
      "name": "Voters",
      "outputs": [
        {
          "internalType": "string",
          "name": "name",
          "type": "string"
        },
        {
          "internalType": "string",
          "name": "mobileNo",
          "type": "string"
        },
        {
          "internalType": "string",
          "name": "homeAddress",
          "type": "string"
        },
        {
          "internalType": "string",
          "name": "aadharCardNo",
          "type": "string"
        },
        {
          "internalType": "string",
          "name": "voterId",
          "type": "string"
        },
        {
          "internalType": "string",
          "name": "walletKey",
          "type": "string"
        },
        {
          "internalType": "bool",
          "name": "isVoted",
          "type": "bool"
        }
      ],
      "stateMutability": "view",
      "type": "function",
      "constant": true
    },
    {
      "inputs": [
        {
          "internalType": "uint256",
          "name": "",
          "type": "uint256"
        }
      ],
      "name": "_candidates",
      "outputs": [
        {
          "internalType": "string",
          "name": "",
          "type": "string"
        }
      ],
      "stateMutability": "view",
      "type": "function",
      "constant": true
    },
    {
      "inputs": [
        {
          "internalType": "uint256",
          "name": "",
          "type": "uint256"
        }
      ],
      "name": "_symbolUrls",
      "outputs": [
        {
          "internalType": "string",
          "name": "",
          "type": "string"
        }
      ],
      "stateMutability": "view",
      "type": "function",
      "constant": true
    },
    {
      "inputs": [
        {
          "internalType": "uint256",
          "name": "",
          "type": "uint256"
        }
      ],
      "name": "_votes",
      "outputs": [
        {
          "internalType": "uint256",
          "name": "",
          "type": "uint256"
        }
      ],
      "stateMutability": "view",
      "type": "function",
      "constant": true
    },
    {
      "inputs": [
        {
          "internalType": "uint256",
          "name": "",
          "type": "uint256"
        }
      ],
      "name": "candidate_names",
      "outputs": [
        {
          "internalType": "string",
          "name": "",
          "type": "string"
        }
      ],
      "stateMutability": "view",
      "type": "function",
      "constant": true
    },
    {
      "inputs": [
        {
          "internalType": "string",
          "name": "",
          "type": "string"
        }
      ],
      "name": "candidatesMap",
      "outputs": [
        {
          "internalType": "string",
          "name": "name",
          "type": "string"
        },
        {
          "internalType": "string",
          "name": "mobileNo",
          "type": "string"
        },
        {
          "internalType": "string",
          "name": "homeAddress",
          "type": "string"
        },
        {
          "internalType": "string",
          "name": "aadharCardNo",
          "type": "string"
        },
        {
          "internalType": "string",
          "name": "voterId",
          "type": "string"
        },
        {
          "internalType": "string",
          "name": "walletKey",
          "type": "string"
        },
        {
          "internalType": "string",
          "name": "politicalParty",
          "type": "string"
        },
        {
          "internalType": "uint256",
          "name": "votes",
          "type": "uint256"
        },
        {
          "internalType": "string",
          "name": "symbolUrl",
          "type": "string"
        }
      ],
      "stateMutability": "view",
      "type": "function",
      "constant": true
    },
    {
      "inputs": [
        {
          "internalType": "string",
          "name": "",
          "type": "string"
        }
      ],
      "name": "mapWalletKey2Admin",
      "outputs": [
        {
          "internalType": "string",
          "name": "name",
          "type": "string"
        },
        {
          "internalType": "string",
          "name": "mobileNo",
          "type": "string"
        },
        {
          "internalType": "string",
          "name": "walletKey",
          "type": "string"
        }
      ],
      "stateMutability": "view",
      "type": "function",
      "constant": true
    },
    {
      "inputs": [
        {
          "internalType": "string",
          "name": "",
          "type": "string"
        }
      ],
      "name": "map_voterid_details",
      "outputs": [
        {
          "internalType": "string",
          "name": "name",
          "type": "string"
        },
        {
          "internalType": "string",
          "name": "mobileNo",
          "type": "string"
        },
        {
          "internalType": "string",
          "name": "homeAddress",
          "type": "string"
        },
        {
          "internalType": "string",
          "name": "aadharCardNo",
          "type": "string"
        },
        {
          "internalType": "string",
          "name": "voterId",
          "type": "string"
        },
        {
          "internalType": "string",
          "name": "walletKey",
          "type": "string"
        },
        {
          "internalType": "bool",
          "name": "isVoted",
          "type": "bool"
        }
      ],
      "stateMutability": "view",
      "type": "function",
      "constant": true
    },
    {
      "inputs": [
        {
          "internalType": "string",
          "name": "",
          "type": "string"
        }
      ],
      "name": "map_walletKey_voterid",
      "outputs": [
        {
          "internalType": "string",
          "name": "",
          "type": "string"
        }
      ],
      "stateMutability": "view",
      "type": "function",
      "constant": true
    },
    {
      "inputs": [],
      "name": "startVoting",
      "outputs": [],
      "stateMutability": "nonpayable",
      "type": "function"
    },
    {
      "inputs": [],
      "name": "endVoting",
      "outputs": [],
      "stateMutability": "nonpayable",
      "type": "function"
    },
    {
      "inputs": [],
      "name": "getAddAdminState",
      "outputs": [
        {
          "internalType": "uint256",
          "name": "",
          "type": "uint256"
        }
      ],
      "stateMutability": "view",
      "type": "function",
      "constant": true
    },
    {
      "inputs": [
        {
          "internalType": "string",
          "name": "_walletKey",
          "type": "string"
        }
      ],
      "name": "authenticateECI",
      "outputs": [
        {
          "internalType": "bool",
          "name": "",
          "type": "bool"
        }
      ],
      "stateMutability": "view",
      "type": "function",
      "constant": true
    },
    {
      "inputs": [
        {
          "internalType": "string",
          "name": "ECI_Key",
          "type": "string"
        },
        {
          "internalType": "string",
          "name": "adName",
          "type": "string"
        },
        {
          "internalType": "string",
          "name": "adMoNo",
          "type": "string"
        },
        {
          "internalType": "string",
          "name": "adEthKey",
          "type": "string"
        }
      ],
      "name": "addAdmin",
      "outputs": [],
      "stateMutability": "nonpayable",
      "type": "function"
    },
    {
      "inputs": [],
      "name": "adminLength",
      "outputs": [
        {
          "internalType": "uint256",
          "name": "",
          "type": "uint256"
        }
      ],
      "stateMutability": "view",
      "type": "function",
      "constant": true
    },
    {
      "inputs": [],
      "name": "getAllAdmins",
      "outputs": [
        {
          "components": [
            {
              "internalType": "string",
              "name": "name",
              "type": "string"
            },
            {
              "internalType": "string",
              "name": "mobileNo",
              "type": "string"
            },
            {
              "internalType": "string",
              "name": "walletKey",
              "type": "string"
            }
          ],
          "internalType": "struct Admin[]",
          "name": "",
          "type": "tuple[]"
        }
      ],
      "stateMutability": "view",
      "type": "function",
      "constant": true
    },
    {
      "inputs": [
        {
          "internalType": "string",
          "name": "_walletKey",
          "type": "string"
        }
      ],
      "name": "authenticateAdmin",
      "outputs": [
        {
          "internalType": "bool",
          "name": "",
          "type": "bool"
        }
      ],
      "stateMutability": "view",
      "type": "function",
      "constant": true
    },
    {
      "inputs": [],
      "name": "getAddVoterState",
      "outputs": [
        {
          "internalType": "uint256",
          "name": "",
          "type": "uint256"
        }
      ],
      "stateMutability": "view",
      "type": "function",
      "constant": true
    },
    {
      "inputs": [
        {
          "internalType": "string",
          "name": "_name",
          "type": "string"
        },
        {
          "internalType": "string",
          "name": "_mobileNo",
          "type": "string"
        },
        {
          "internalType": "string",
          "name": "_homeAddress",
          "type": "string"
        },
        {
          "internalType": "string",
          "name": "_aadharCardNo",
          "type": "string"
        },
        {
          "internalType": "string",
          "name": "_voterId",
          "type": "string"
        },
        {
          "internalType": "string",
          "name": "_walletKey",
          "type": "string"
        }
      ],
      "name": "addVoter",
      "outputs": [],
      "stateMutability": "nonpayable",
      "type": "function"
    },
    {
      "inputs": [
        {
          "internalType": "string",
          "name": "_walletKey",
          "type": "string"
        }
      ],
      "name": "getAllVoters",
      "outputs": [
        {
          "internalType": "string",
          "name": "",
          "type": "string"
        }
      ],
      "stateMutability": "nonpayable",
      "type": "function"
    },
    {
      "inputs": [
        {
          "internalType": "string",
          "name": "_voterid",
          "type": "string"
        }
      ],
      "name": "hasVoted",
      "outputs": [
        {
          "internalType": "bool",
          "name": "",
          "type": "bool"
        }
      ],
      "stateMutability": "view",
      "type": "function",
      "constant": true
    },
    {
      "inputs": [
        {
          "components": [
            {
              "internalType": "string",
              "name": "name",
              "type": "string"
            },
            {
              "internalType": "string",
              "name": "mobileNo",
              "type": "string"
            },
            {
              "internalType": "string",
              "name": "homeAddress",
              "type": "string"
            },
            {
              "internalType": "string",
              "name": "aadharCardNo",
              "type": "string"
            },
            {
              "internalType": "string",
              "name": "voterId",
              "type": "string"
            },
            {
              "internalType": "string",
              "name": "walletKey",
              "type": "string"
            },
            {
              "internalType": "bool",
              "name": "isVoted",
              "type": "bool"
            }
          ],
          "internalType": "struct Voter",
          "name": "item",
          "type": "tuple"
        }
      ],
      "name": "isVoterRegistered",
      "outputs": [
        {
          "internalType": "bool",
          "name": "",
          "type": "bool"
        }
      ],
      "stateMutability": "view",
      "type": "function",
      "constant": true
    },
    {
      "inputs": [
        {
          "internalType": "string",
          "name": "_walletKey",
          "type": "string"
        }
      ],
      "name": "authenticateVoter",
      "outputs": [
        {
          "internalType": "bool",
          "name": "",
          "type": "bool"
        }
      ],
      "stateMutability": "nonpayable",
      "type": "function"
    },
    {
      "inputs": [
        {
          "internalType": "string",
          "name": "_walletKey",
          "type": "string"
        }
      ],
      "name": "getVoterId",
      "outputs": [
        {
          "internalType": "string",
          "name": "",
          "type": "string"
        }
      ],
      "stateMutability": "nonpayable",
      "type": "function"
    },
    {
      "inputs": [
        {
          "internalType": "string",
          "name": "_voterid",
          "type": "string"
        }
      ],
      "name": "setVoterId",
      "outputs": [],
      "stateMutability": "nonpayable",
      "type": "function"
    },
    {
      "inputs": [],
      "name": "voterLength",
      "outputs": [
        {
          "internalType": "uint256",
          "name": "",
          "type": "uint256"
        }
      ],
      "stateMutability": "view",
      "type": "function",
      "constant": true
    },
    {
      "inputs": [
        {
          "internalType": "string",
          "name": "_voterid",
          "type": "string"
        }
      ],
      "name": "getVoterMobileNumber",
      "outputs": [
        {
          "internalType": "string",
          "name": "",
          "type": "string"
        }
      ],
      "stateMutability": "view",
      "type": "function",
      "constant": true
    },
    {
      "inputs": [
        {
          "internalType": "string",
          "name": "_name",
          "type": "string"
        },
        {
          "internalType": "string",
          "name": "_mobileNo",
          "type": "string"
        },
        {
          "internalType": "string",
          "name": "_homeAddress",
          "type": "string"
        },
        {
          "internalType": "string",
          "name": "_aadharCardNo",
          "type": "string"
        },
        {
          "internalType": "string",
          "name": "_voterId",
          "type": "string"
        },
        {
          "internalType": "string",
          "name": "_walletKey",
          "type": "string"
        },
        {
          "internalType": "string",
          "name": "_politicalParty",
          "type": "string"
        },
        {
          "internalType": "string",
          "name": "_symbolUrl",
          "type": "string"
        }
      ],
      "name": "addCandidate",
      "outputs": [],
      "stateMutability": "nonpayable",
      "type": "function"
    },
    {
      "inputs": [
        {
          "internalType": "string",
          "name": "_walletKey",
          "type": "string"
        }
      ],
      "name": "isCandidateRegistered",
      "outputs": [
        {
          "internalType": "bool",
          "name": "",
          "type": "bool"
        }
      ],
      "stateMutability": "view",
      "type": "function",
      "constant": true
    },
    {
      "inputs": [],
      "name": "getCandidates",
      "outputs": [
        {
          "internalType": "string[]",
          "name": "",
          "type": "string[]"
        }
      ],
      "stateMutability": "nonpayable",
      "type": "function"
    },
    {
      "inputs": [],
      "name": "getResults",
      "outputs": [
        {
          "internalType": "string[]",
          "name": "",
          "type": "string[]"
        },
        {
          "internalType": "uint256[]",
          "name": "",
          "type": "uint256[]"
        },
        {
          "internalType": "string[]",
          "name": "",
          "type": "string[]"
        }
      ],
      "stateMutability": "nonpayable",
      "type": "function"
    },
    {
      "inputs": [
        {
          "internalType": "string",
          "name": "_voterId",
          "type": "string"
        },
        {
          "internalType": "string",
          "name": "_walletKey",
          "type": "string"
        },
        {
          "internalType": "uint256",
          "name": "choice",
          "type": "uint256"
        }
      ],
      "name": "vote",
      "outputs": [
        {
          "internalType": "string",
          "name": "",
          "type": "string"
        }
      ],
      "stateMutability": "nonpayable",
      "type": "function"
    },
    {
      "inputs": [
        {
          "internalType": "string",
          "name": "_voterId",
          "type": "string"
        },
        {
          "internalType": "uint256",
          "name": "choice",
          "type": "uint256"
        }
      ],
      "name": "voteThroughAdmin",
      "outputs": [
        {
          "internalType": "string",
          "name": "",
          "type": "string"
        }
      ],
      "stateMutability": "nonpayable",
      "type": "function"
    },
    {
      "inputs": [
        {
          "internalType": "string",
          "name": "S1",
          "type": "string"
        },
        {
          "internalType": "string",
          "name": "S2",
          "type": "string"
        }
      ],
      "name": "areStringsEqual",
      "outputs": [
        {
          "internalType": "bool",
          "name": "",
          "type": "bool"
        }
      ],
      "stateMutability": "pure",
      "type": "function",
      "constant": true
    },
    {
      "inputs": [],
      "name": "sampleValue",
      "outputs": [
        {
          "internalType": "uint256",
          "name": "",
          "type": "uint256"
        }
      ],
      "stateMutability": "pure",
      "type": "function",
      "constant": true
    }
  ],
  "bytecode": "0x608060405260405180606001604052806040518060400160405280600c81526020017f4543495f4f6666696369616c000000000000000000000000000000000000000081525081526020016040518060400160405280600a81526020017f313233343536373839300000000000000000000000000000000000000000000081525081526020016040518060600160405280602a8152602001620053f7602a9139815250600080820151816000019080519060200190620000c19291906200018c565b506020820151816001019080519060200190620000e09291906200018c565b506040820151816002019080519060200190620000ff9291906200018c565b5050506040518060200160405280600081525060039080519060200190620001299291906200018c565b506040518060400160405280600981526020017f707265566f74696e670000000000000000000000000000000000000000000000815250600c9080519060200190620001779291906200018c565b503480156200018557600080fd5b50620002a0565b8280546200019a906200026b565b90600052602060002090601f016020900481019282620001be57600085556200020a565b82601f10620001d957805160ff19168380011785556200020a565b828001600101855582156200020a579182015b8281111562000209578251825591602001919060010190620001ec565b5b5090506200021991906200021d565b5090565b5b80821115620002385760008160009055506001016200021e565b5090565b7f4e487b7100000000000000000000000000000000000000000000000000000000600052602260045260246000fd5b600060028204905060018216806200028457607f821691505b6020821081036200029a57620002996200023c565b5b50919050565b61514780620002b06000396000f3fe608060405234801561001057600080fd5b50600436106102325760003560e01c80637d112d6411610130578063a7d27b03116100b8578063c4082bea1161007c578063c4082bea14610757578063e9523c9714610787578063eb03cd22146107a5578063f3725146146107d5578063f6249c041461080d57610232565b8063a7d27b031461069b578063aebd20f0146106b7578063b1496cd4146106ed578063bea488941461071d578063c3403ddf1461074d57610232565b80639f89a4b2116100ff5780639f89a4b2146105bb578063a3a8908d146105ed578063a5a752481461061f578063a69945fb1461064f578063a72540511461067f57610232565b80637d112d64146105095780638a25d072146105395780639c35d98b146105555780639f6e5e6d1461058b57610232565b80634fbe75c1116101be578063609b625811610182578063609b62581461044d578063622eaa141461046b578063648a305a1461048b5780637820d384146104bb5780637a4c96ad146104d957610232565b80634fbe75c11461036f5780635097086f1461039f57806351b09065146103cf578063565e802a146103ff5780635982f6101461042f57610232565b8063290e921211610205578063290e9212146102995780632ec66043146102d157806339bfeae3146103015780634717f97c14610331578063481edc121461035157610232565b806301ceb30a1461023757806306a49fce1461025557806313bad72f146102735780631ec6b60a1461028f575b600080fd5b61023f61083d565b60405161024c9190614072565b60405180910390f35b61025d610847565b60405161026a91906141e8565b60405180910390f35b61028d60048036038101906102889190614353565b6109a8565b005b610297610c5f565b005b6102b360048036038101906102ae9190614515565b610cad565b6040516102c89998979695949392919061458c565b60405180910390f35b6102eb60048036038101906102e69190614651565b61114b565b6040516102f8919061469a565b60405180910390f35b61031b60048036038101906103169190614651565b611201565b60405161032891906146d7565b60405180910390f35b610339611239565b604051610348939291906147b0565b60405180910390f35b610359611650565b6040516103669190614072565b60405180910390f35b6103896004803603810190610384919061498e565b61165a565b60405161039691906146d7565b60405180910390f35b6103b960048036038101906103b491906149d7565b611739565b6040516103c6919061469a565b60405180910390f35b6103e960048036038101906103e49190614515565b611a6c565b6040516103f6919061469a565b60405180910390f35b61041960048036038101906104149190614651565b611b18565b60405161042691906146d7565b60405180910390f35b610437611bf3565b6040516104449190614072565b60405180910390f35b610455611c00565b6040516104629190614072565b60405180910390f35b610473611c09565b60405161048293929190614a33565b60405180910390f35b6104a560048036038101906104a09190614515565b611db9565b6040516104b2919061469a565b60405180910390f35b6104c3611e65565b6040516104d09190614072565b60405180910390f35b6104f360048036038101906104ee9190614a7f565b611e72565b604051610500919061469a565b60405180910390f35b610523600480360381019061051e9190614651565b61227e565b60405161053091906146d7565b60405180910390f35b610553600480360381019061054e9190614b0a565b612361565b005b61056f600480360381019061056a9190614515565b612604565b6040516105829796959493929190614be1565b60405180910390f35b6105a560048036038101906105a09190614515565b612993565b6040516105b2919061469a565b60405180910390f35b6105d560048036038101906105d09190614515565b612a3f565b6040516105e493929190614a33565b60405180910390f35b61060760048036038101906106029190614651565b612c11565b60405161061693929190614a33565b60405180910390f35b61063960048036038101906106349190614651565b612de9565b604051610646919061469a565b60405180910390f35b61066960048036038101906106649190614651565b612e99565b60405161067691906146d7565b60405180910390f35b61069960048036038101906106949190614c7a565b612f74565b005b6106b560048036038101906106b09190614651565b613201565b005b6106d160048036038101906106cc9190614651565b61321b565b6040516106e49796959493929190614be1565b60405180910390f35b61070760048036038101906107029190614daf565b6135b0565b60405161071491906146d7565b60405180910390f35b61073760048036038101906107329190614515565b6135cb565b6040516107449190614072565b60405180910390f35b6107556135ef565b005b610771600480360381019061076c9190614651565b61363d565b60405161077e919061469a565b60405180910390f35b61078f6136f0565b60405161079c9190614f47565b60405180910390f35b6107bf60048036038101906107ba9190614651565b613905565b6040516107cc91906146d7565b60405180910390f35b6107ef60048036038101906107ea9190614651565b6139a5565b6040516108049998979695949392919061458c565b60405180910390f35b61082760048036038101906108229190614651565b613e49565b604051610834919061469a565b60405180910390f35b6000600e54905090565b606060005b6006805490508110156108d05760076006828154811061086f5761086e614f69565b5b9060005260206000209060090201600001908060018154018082558091505060019003906000526020600020016000909190919091509080546108b190614fc7565b6108bc929190613f29565b5080806108c890615027565b91505061084c565b506007805480602002602001604051908101604052809291908181526020016000905b8282101561099f57838290600052602060002001805461091290614fc7565b80601f016020809104026020016040519081016040528092919081815260200182805461093e90614fc7565b801561098b5780601f106109605761010080835404028352916020019161098b565b820191906000526020600020905b81548152906001019060200180831161096e57829003601f168201915b5050505050815260200190600101906108f3565b50505050905090565b60006040518061012001604052808a8152602001898152602001888152602001878152602001868152602001858152602001848152602001600081526020018381525090506109f684611b18565b610c4b5760068190806001815401808255809150506001900390600052602060002090600902016000909190919091506000820151816000019080519060200190610a42929190613fb6565b506020820151816001019080519060200190610a5f929190613fb6565b506040820151816002019080519060200190610a7c929190613fb6565b506060820151816003019080519060200190610a99929190613fb6565b506080820151816004019080519060200190610ab6929190613fb6565b5060a0820151816005019080519060200190610ad3929190613fb6565b5060c0820151816006019080519060200190610af0929190613fb6565b5060e08201518160070155610100820151816008019080519060200190610b18929190613fb6565b50505080600b85604051610b2c91906150ab565b90815260200160405180910390206000820151816000019080519060200190610b56929190613fb6565b506020820151816001019080519060200190610b73929190613fb6565b506040820151816002019080519060200190610b90929190613fb6565b506060820151816003019080519060200190610bad929190613fb6565b506080820151816004019080519060200190610bca929190613fb6565b5060a0820151816005019080519060200190610be7929190613fb6565b5060c0820151816006019080519060200190610c04929190613fb6565b5060e08201518160070155610100820151816008019080519060200190610c2c929190613fb6565b50905050610c3e898989898989612f74565b6001600f81905550610c54565b6002600f819055505b505050505050505050565b6040518060400160405280600681526020017f566f74696e670000000000000000000000000000000000000000000000000000815250600c9080519060200190610caa929190613fb6565b50565b60068181548110610cbd57600080fd5b9060005260206000209060090201600091509050806000018054610ce090614fc7565b80601f0160208091040260200160405190810160405280929190818152602001828054610d0c90614fc7565b8015610d595780601f10610d2e57610100808354040283529160200191610d59565b820191906000526020600020905b815481529060010190602001808311610d3c57829003601f168201915b505050505090806001018054610d6e90614fc7565b80601f0160208091040260200160405190810160405280929190818152602001828054610d9a90614fc7565b8015610de75780601f10610dbc57610100808354040283529160200191610de7565b820191906000526020600020905b815481529060010190602001808311610dca57829003601f168201915b505050505090806002018054610dfc90614fc7565b80601f0160208091040260200160405190810160405280929190818152602001828054610e2890614fc7565b8015610e755780601f10610e4a57610100808354040283529160200191610e75565b820191906000526020600020905b815481529060010190602001808311610e5857829003601f168201915b505050505090806003018054610e8a90614fc7565b80601f0160208091040260200160405190810160405280929190818152602001828054610eb690614fc7565b8015610f035780601f10610ed857610100808354040283529160200191610f03565b820191906000526020600020905b815481529060010190602001808311610ee657829003601f168201915b505050505090806004018054610f1890614fc7565b80601f0160208091040260200160405190810160405280929190818152602001828054610f4490614fc7565b8015610f915780601f10610f6657610100808354040283529160200191610f91565b820191906000526020600020905b815481529060010190602001808311610f7457829003601f168201915b505050505090806005018054610fa690614fc7565b80601f0160208091040260200160405190810160405280929190818152602001828054610fd290614fc7565b801561101f5780601f10610ff45761010080835404028352916020019161101f565b820191906000526020600020905b81548152906001019060200180831161100257829003601f168201915b50505050509080600601805461103490614fc7565b80601f016020809104026020016040519081016040528092919081815260200182805461106090614fc7565b80156110ad5780601f10611082576101008083540402835291602001916110ad565b820191906000526020600020905b81548152906001019060200180831161109057829003601f168201915b5050505050908060070154908060080180546110c890614fc7565b80601f01602080910402602001604051908101604052809291908181526020018280546110f490614fc7565b80156111415780601f1061111657610100808354040283529160200191611141565b820191906000526020600020905b81548152906001019060200180831161112457829003601f168201915b5050505050905089565b600981805160208101820180518482526020830160208501208183528095505050505050600091509050805461118090614fc7565b80601f01602080910402602001604051908101604052809291908181526020018280546111ac90614fc7565b80156111f95780601f106111ce576101008083540402835291602001916111f9565b820191906000526020600020905b8154815290600101906020018083116111dc57829003601f168201915b505050505081565b6000600a8260405161121391906150ab565b908152602001604051809103902060060160009054906101000a900460ff169050919050565b6060806060611307600c805461124e90614fc7565b80601f016020809104026020016040519081016040528092919081815260200182805461127a90614fc7565b80156112c75780601f1061129c576101008083540402835291602001916112c7565b820191906000526020600020905b8154815290600101906020018083116112aa57829003601f168201915b50505050506040518060400160405280600681526020017f526573756c7400000000000000000000000000000000000000000000000000008152506135b0565b156114475760005b6006805490508110156114455760106006828154811061133257611331614f69565b5b90600052602060002090600902016000019080600181540180825580915050600190039060005260206000200160009091909190915090805461137490614fc7565b61137f929190613f29565b5060116006828154811061139657611395614f69565b5b90600052602060002090600902016007015490806001815401808255809150506001900390600052602060002001600090919091909150556012600682815481106113e4576113e3614f69565b5b90600052602060002090600902016008019080600181540180825580915050600190039060005260206000200160009091909190915090805461142690614fc7565b611431929190613f29565b50808061143d90615027565b91505061130f565b505b60106011601282805480602002602001604051908101604052809291908181526020016000905b8282101561151a57838290600052602060002001805461148d90614fc7565b80601f01602080910402602001604051908101604052809291908181526020018280546114b990614fc7565b80156115065780601f106114db57610100808354040283529160200191611506565b820191906000526020600020905b8154815290600101906020018083116114e957829003601f168201915b50505050508152602001906001019061146e565b5050505092508180548060200260200160405190810160405280929190818152602001828054801561156b57602002820191906000526020600020905b815481526020019060010190808311611557575b5050505050915080805480602002602001604051908101604052809291908181526020016000905b8282101561163f5783829060005260206000200180546115b290614fc7565b80601f01602080910402602001604051908101604052809291908181526020018280546115de90614fc7565b801561162b5780601f106116005761010080835404028352916020019161162b565b820191906000526020600020905b81548152906001019060200180831161160e57829003601f168201915b505050505081526020019060010190611593565b505050509050925092509250909192565b6000600d54905090565b6000611722600a836080015160405161167391906150ab565b9081526020016040518091039020600001805461168f90614fc7565b80601f01602080910402602001604051908101604052809291908181526020018280546116bb90614fc7565b80156117085780601f106116dd57610100808354040283529160200191611708565b820191906000526020600020905b8154815290600101906020018083116116eb57829003601f168201915b5050505050604051806020016040528060008152506135b0565b61172f5760019050611734565b600090505b919050565b6060600a8360405161174b91906150ab565b908152602001604051809103902060060160009054906101000a900460ff16611a2d576006828154811061178257611781614f69565b5b906000526020600020906009020160070160008154809291906117a490615027565b91905055506000600683815481106117bf576117be614f69565b5b906000526020600020906009020160050180546117db90614fc7565b80601f016020809104026020016040519081016040528092919081815260200182805461180790614fc7565b80156118545780601f1061182957610100808354040283529160200191611854565b820191906000526020600020905b81548152906001019060200180831161183757829003601f168201915b50505050509050600b8160405161186b91906150ab565b9081526020016040518091039020600701600081548092919061188d90615027565b91905055506001600a856040516118a491906150ab565b908152602001604051809103902060060160006101000a81548160ff02191690831515021790555060005b6005805490508110156119ee57611993600582815481106118f3576118f2614f69565b5b9060005260206000209060070201600401805461190f90614fc7565b80601f016020809104026020016040519081016040528092919081815260200182805461193b90614fc7565b80156119885780601f1061195d57610100808354040283529160200191611988565b820191906000526020600020905b81548152906001019060200180831161196b57829003601f168201915b5050505050866135b0565b156119db576001600582815481106119ae576119ad614f69565b5b906000526020600020906007020160060160006101000a81548160ff0219169083151502179055506119ee565b80806119e690615027565b9150506118cf565b506040518060400160405280601981526020017f566f746520636173746564207375636365737366756c6c792100000000000000815250915050611a66565b6040518060400160405280601881526020017f566f7465722068617320616c726561647920766f74656421000000000000000081525090505b92915050565b60078181548110611a7c57600080fd5b906000526020600020016000915090508054611a9790614fc7565b80601f0160208091040260200160405190810160405280929190818152602001828054611ac390614fc7565b8015611b105780601f10611ae557610100808354040283529160200191611b10565b820191906000526020600020905b815481529060010190602001808311611af357829003601f168201915b505050505081565b6000611bdc600b83604051611b2d91906150ab565b90815260200160405180910390206000018054611b4990614fc7565b80601f0160208091040260200160405190810160405280929190818152602001828054611b7590614fc7565b8015611bc25780601f10611b9757610100808354040283529160200191611bc2565b820191906000526020600020905b815481529060010190602001808311611ba557829003601f168201915b5050505050604051806020016040528060008152506135b0565b611be95760019050611bee565b600090505b919050565b6000600480549050905090565b60006005905090565b6000806000018054611c1a90614fc7565b80601f0160208091040260200160405190810160405280929190818152602001828054611c4690614fc7565b8015611c935780601f10611c6857610100808354040283529160200191611c93565b820191906000526020600020905b815481529060010190602001808311611c7657829003601f168201915b505050505090806001018054611ca890614fc7565b80601f0160208091040260200160405190810160405280929190818152602001828054611cd490614fc7565b8015611d215780601f10611cf657610100808354040283529160200191611d21565b820191906000526020600020905b815481529060010190602001808311611d0457829003601f168201915b505050505090806002018054611d3690614fc7565b80601f0160208091040260200160405190810160405280929190818152602001828054611d6290614fc7565b8015611daf5780601f10611d8457610100808354040283529160200191611daf565b820191906000526020600020905b815481529060010190602001808311611d9257829003601f168201915b5050505050905083565b60108181548110611dc957600080fd5b906000526020600020016000915090508054611de490614fc7565b80601f0160208091040260200160405190810160405280929190818152602001828054611e1090614fc7565b8015611e5d5780601f10611e3257610100808354040283529160200191611e5d565b820191906000526020600020905b815481529060010190602001808311611e4057829003601f168201915b505050505081565b6000600580549050905090565b6060611f27600a85604051611e8791906150ab565b90815260200160405180910390206005018054611ea390614fc7565b80601f0160208091040260200160405190810160405280929190818152602001828054611ecf90614fc7565b8015611f1c5780601f10611ef157610100808354040283529160200191611f1c565b820191906000526020600020905b815481529060010190602001808311611eff57829003601f168201915b5050505050846135b0565b1561225b57600a84604051611f3c91906150ab565b908152602001604051809103902060060160009054906101000a900460ff1661221e5760068281548110611f7357611f72614f69565b5b90600052602060002090600902016007016000815480929190611f9590615027565b9190505550600060068381548110611fb057611faf614f69565b5b90600052602060002090600902016005018054611fcc90614fc7565b80601f0160208091040260200160405190810160405280929190818152602001828054611ff890614fc7565b80156120455780601f1061201a57610100808354040283529160200191612045565b820191906000526020600020905b81548152906001019060200180831161202857829003601f168201915b50505050509050600b8160405161205c91906150ab565b9081526020016040518091039020600701600081548092919061207e90615027565b91905055506001600a8660405161209591906150ab565b908152602001604051809103902060060160006101000a81548160ff02191690831515021790555060005b6005805490508110156121df57612184600582815481106120e4576120e3614f69565b5b9060005260206000209060070201600401805461210090614fc7565b80601f016020809104026020016040519081016040528092919081815260200182805461212c90614fc7565b80156121795780601f1061214e57610100808354040283529160200191612179565b820191906000526020600020905b81548152906001019060200180831161215c57829003601f168201915b5050505050876135b0565b156121cc5760016005828154811061219f5761219e614f69565b5b906000526020600020906007020160060160006101000a81548160ff0219169083151502179055506121df565b80806121d790615027565b9150506120c0565b506040518060400160405280601981526020017f566f746520636173746564207375636365737366756c6c792100000000000000815250915050612277565b6040518060400160405280601881526020017f566f7465722068617320616c726561647920766f7465642100000000000000008152509050612277565b6040518060800160405280604f81526020016150c3604f913990505b9392505050565b600061234a600a61228e84613e49565b60405161229b91906150ab565b908152602001604051809103902060000180546122b790614fc7565b80601f01602080910402602001604051908101604052809291908181526020018280546122e390614fc7565b80156123305780601f1061230557610100808354040283529160200191612330565b820191906000526020600020905b81548152906001019060200180831161231357829003601f168201915b5050505050604051806020016040528060008152506135b0565b612357576001905061235c565b600090505b919050565b612369613f15565b612400846000600201805461237d90614fc7565b80601f01602080910402602001604051908101604052809291908181526020018280546123a990614fc7565b80156123f65780601f106123cb576101008083540402835291602001916123f6565b820191906000526020600020905b8154815290600101906020018083116123d957829003601f168201915b50505050506135b0565b156125f5576124b860088260405161241891906150ab565b9081526020016040518091039020600201805461243490614fc7565b80601f016020809104026020016040519081016040528092919081815260200182805461246090614fc7565b80156124ad5780601f10612482576101008083540402835291602001916124ad565b820191906000526020600020905b81548152906001019060200180831161249057829003601f168201915b5050505050826135b0565b6125e7576000604051806060016040528085815260200184815260200183815250905060048190806001815401808255809150506001900390600052602060002090600302016000909190919091506000820151816000019080519060200190612523929190613fb6565b506020820151816001019080519060200190612540929190613fb6565b50604082015181600201908051906020019061255d929190613fb6565b5050508060088360405161257191906150ab565b9081526020016040518091039020600082015181600001908051906020019061259b929190613fb6565b5060208201518160010190805190602001906125b8929190613fb6565b5060408201518160020190805190602001906125d5929190613fb6565b509050506001600d81905550506125f0565b6002600d819055505b6125fe565b6003600d819055505b50505050565b6005818154811061261457600080fd5b906000526020600020906007020160009150905080600001805461263790614fc7565b80601f016020809104026020016040519081016040528092919081815260200182805461266390614fc7565b80156126b05780601f10612685576101008083540402835291602001916126b0565b820191906000526020600020905b81548152906001019060200180831161269357829003601f168201915b5050505050908060010180546126c590614fc7565b80601f01602080910402602001604051908101604052809291908181526020018280546126f190614fc7565b801561273e5780601f106127135761010080835404028352916020019161273e565b820191906000526020600020905b81548152906001019060200180831161272157829003601f168201915b50505050509080600201805461275390614fc7565b80601f016020809104026020016040519081016040528092919081815260200182805461277f90614fc7565b80156127cc5780601f106127a1576101008083540402835291602001916127cc565b820191906000526020600020905b8154815290600101906020018083116127af57829003601f168201915b5050505050908060030180546127e190614fc7565b80601f016020809104026020016040519081016040528092919081815260200182805461280d90614fc7565b801561285a5780601f1061282f5761010080835404028352916020019161285a565b820191906000526020600020905b81548152906001019060200180831161283d57829003601f168201915b50505050509080600401805461286f90614fc7565b80601f016020809104026020016040519081016040528092919081815260200182805461289b90614fc7565b80156128e85780601f106128bd576101008083540402835291602001916128e8565b820191906000526020600020905b8154815290600101906020018083116128cb57829003601f168201915b5050505050908060050180546128fd90614fc7565b80601f016020809104026020016040519081016040528092919081815260200182805461292990614fc7565b80156129765780601f1061294b57610100808354040283529160200191612976565b820191906000526020600020905b81548152906001019060200180831161295957829003601f168201915b5050505050908060060160009054906101000a900460ff16905087565b601281815481106129a357600080fd5b9060005260206000200160009150905080546129be90614fc7565b80601f01602080910402602001604051908101604052809291908181526020018280546129ea90614fc7565b8015612a375780601f10612a0c57610100808354040283529160200191612a37565b820191906000526020600020905b815481529060010190602001808311612a1a57829003601f168201915b505050505081565b60048181548110612a4f57600080fd5b9060005260206000209060030201600091509050806000018054612a7290614fc7565b80601f0160208091040260200160405190810160405280929190818152602001828054612a9e90614fc7565b8015612aeb5780601f10612ac057610100808354040283529160200191612aeb565b820191906000526020600020905b815481529060010190602001808311612ace57829003601f168201915b505050505090806001018054612b0090614fc7565b80601f0160208091040260200160405190810160405280929190818152602001828054612b2c90614fc7565b8015612b795780601f10612b4e57610100808354040283529160200191612b79565b820191906000526020600020905b815481529060010190602001808311612b5c57829003601f168201915b505050505090806002018054612b8e90614fc7565b80601f0160208091040260200160405190810160405280929190818152602001828054612bba90614fc7565b8015612c075780601f10612bdc57610100808354040283529160200191612c07565b820191906000526020600020905b815481529060010190602001808311612bea57829003601f168201915b5050505050905083565b600881805160208101820180518482526020830160208501208183528095505050505050600091509050806000018054612c4a90614fc7565b80601f0160208091040260200160405190810160405280929190818152602001828054612c7690614fc7565b8015612cc35780601f10612c9857610100808354040283529160200191612cc3565b820191906000526020600020905b815481529060010190602001808311612ca657829003601f168201915b505050505090806001018054612cd890614fc7565b80601f0160208091040260200160405190810160405280929190818152602001828054612d0490614fc7565b8015612d515780601f10612d2657610100808354040283529160200191612d51565b820191906000526020600020905b815481529060010190602001808311612d3457829003601f168201915b505050505090806002018054612d6690614fc7565b80601f0160208091040260200160405190810160405280929190818152602001828054612d9290614fc7565b8015612ddf5780601f10612db457610100808354040283529160200191612ddf565b820191906000526020600020905b815481529060010190602001808311612dc257829003601f168201915b5050505050905083565b6060600982604051612dfb91906150ab565b90815260200160405180910390208054612e1490614fc7565b80601f0160208091040260200160405190810160405280929190818152602001828054612e4090614fc7565b8015612e8d5780601f10612e6257610100808354040283529160200191612e8d565b820191906000526020600020905b815481529060010190602001808311612e7057829003601f168201915b50505050509050919050565b6000612f5d600883604051612eae91906150ab565b90815260200160405180910390206000018054612eca90614fc7565b80601f0160208091040260200160405190810160405280929190818152602001828054612ef690614fc7565b8015612f435780601f10612f1857610100808354040283529160200191612f43565b820191906000526020600020905b815481529060010190602001808311612f2657829003601f168201915b5050505050604051806020016040528060008152506135b0565b612f6a5760019050612f6f565b600090505b919050565b612f7c613f1f565b60006040518060e00160405280888152602001878152602001868152602001858152602001848152602001838152602001600015158152509050612fbf8161165a565b6131ef576005819080600181540180825580915050600190039060005260206000209060070201600090919091909150600082015181600001908051906020019061300b929190613fb6565b506020820151816001019080519060200190613028929190613fb6565b506040820151816002019080519060200190613045929190613fb6565b506060820151816003019080519060200190613062929190613fb6565b50608082015181600401908051906020019061307f929190613fb6565b5060a082015181600501908051906020019061309c929190613fb6565b5060c08201518160060160006101000a81548160ff021916908315150217905550505080600a846040516130d091906150ab565b908152602001604051809103902060008201518160000190805190602001906130fa929190613fb6565b506020820151816001019080519060200190613117929190613fb6565b506040820151816002019080519060200190613134929190613fb6565b506060820151816003019080519060200190613151929190613fb6565b50608082015181600401908051906020019061316e929190613fb6565b5060a082015181600501908051906020019061318b929190613fb6565b5060c08201518160060160006101000a81548160ff021916908315150217905550905050826009836040516131c091906150ab565b908152602001604051809103902090805190602001906131e1929190613fb6565b506001600e819055506131f8565b6002600e819055505b50505050505050565b8060039080519060200190613217929190613fb6565b5050565b600a8180516020810182018051848252602083016020850120818352809550505050505060009150905080600001805461325490614fc7565b80601f016020809104026020016040519081016040528092919081815260200182805461328090614fc7565b80156132cd5780601f106132a2576101008083540402835291602001916132cd565b820191906000526020600020905b8154815290600101906020018083116132b057829003601f168201915b5050505050908060010180546132e290614fc7565b80601f016020809104026020016040519081016040528092919081815260200182805461330e90614fc7565b801561335b5780601f106133305761010080835404028352916020019161335b565b820191906000526020600020905b81548152906001019060200180831161333e57829003601f168201915b50505050509080600201805461337090614fc7565b80601f016020809104026020016040519081016040528092919081815260200182805461339c90614fc7565b80156133e95780601f106133be576101008083540402835291602001916133e9565b820191906000526020600020905b8154815290600101906020018083116133cc57829003601f168201915b5050505050908060030180546133fe90614fc7565b80601f016020809104026020016040519081016040528092919081815260200182805461342a90614fc7565b80156134775780601f1061344c57610100808354040283529160200191613477565b820191906000526020600020905b81548152906001019060200180831161345a57829003601f168201915b50505050509080600401805461348c90614fc7565b80601f01602080910402602001604051908101604052809291908181526020018280546134b890614fc7565b80156135055780601f106134da57610100808354040283529160200191613505565b820191906000526020600020905b8154815290600101906020018083116134e857829003601f168201915b50505050509080600501805461351a90614fc7565b80601f016020809104026020016040519081016040528092919081815260200182805461354690614fc7565b80156135935780601f1061356857610100808354040283529160200191613593565b820191906000526020600020905b81548152906001019060200180831161357657829003601f168201915b5050505050908060060160009054906101000a900460ff16905087565b60008180519060200120838051906020012014905092915050565b601181815481106135db57600080fd5b906000526020600020016000915090505481565b6040518060400160405280600681526020017f526573756c740000000000000000000000000000000000000000000000000000815250600c908051906020019061363a929190613fb6565b50565b6060600a8260405161364f91906150ab565b9081526020016040518091039020600101805461366b90614fc7565b80601f016020809104026020016040519081016040528092919081815260200182805461369790614fc7565b80156136e45780601f106136b9576101008083540402835291602001916136e4565b820191906000526020600020905b8154815290600101906020018083116136c757829003601f168201915b50505050509050919050565b60606004805480602002602001604051908101604052809291908181526020016000905b828210156138fc578382906000526020600020906003020160405180606001604052908160008201805461374790614fc7565b80601f016020809104026020016040519081016040528092919081815260200182805461377390614fc7565b80156137c05780601f10613795576101008083540402835291602001916137c0565b820191906000526020600020905b8154815290600101906020018083116137a357829003601f168201915b505050505081526020016001820180546137d990614fc7565b80601f016020809104026020016040519081016040528092919081815260200182805461380590614fc7565b80156138525780601f1061382757610100808354040283529160200191613852565b820191906000526020600020905b81548152906001019060200180831161383557829003601f168201915b5050505050815260200160028201805461386b90614fc7565b80601f016020809104026020016040519081016040528092919081815260200182805461389790614fc7565b80156138e45780601f106138b9576101008083540402835291602001916138e4565b820191906000526020600020905b8154815290600101906020018083116138c757829003601f168201915b50505050508152505081526020019060010190613714565b50505050905090565b600061399e826000600201805461391b90614fc7565b80601f016020809104026020016040519081016040528092919081815260200182805461394790614fc7565b80156139945780601f1061396957610100808354040283529160200191613994565b820191906000526020600020905b81548152906001019060200180831161397757829003601f168201915b50505050506135b0565b9050919050565b600b818051602081018201805184825260208301602085012081835280955050505050506000915090508060000180546139de90614fc7565b80601f0160208091040260200160405190810160405280929190818152602001828054613a0a90614fc7565b8015613a575780601f10613a2c57610100808354040283529160200191613a57565b820191906000526020600020905b815481529060010190602001808311613a3a57829003601f168201915b505050505090806001018054613a6c90614fc7565b80601f0160208091040260200160405190810160405280929190818152602001828054613a9890614fc7565b8015613ae55780601f10613aba57610100808354040283529160200191613ae5565b820191906000526020600020905b815481529060010190602001808311613ac857829003601f168201915b505050505090806002018054613afa90614fc7565b80601f0160208091040260200160405190810160405280929190818152602001828054613b2690614fc7565b8015613b735780601f10613b4857610100808354040283529160200191613b73565b820191906000526020600020905b815481529060010190602001808311613b5657829003601f168201915b505050505090806003018054613b8890614fc7565b80601f0160208091040260200160405190810160405280929190818152602001828054613bb490614fc7565b8015613c015780601f10613bd657610100808354040283529160200191613c01565b820191906000526020600020905b815481529060010190602001808311613be457829003601f168201915b505050505090806004018054613c1690614fc7565b80601f0160208091040260200160405190810160405280929190818152602001828054613c4290614fc7565b8015613c8f5780601f10613c6457610100808354040283529160200191613c8f565b820191906000526020600020905b815481529060010190602001808311613c7257829003601f168201915b505050505090806005018054613ca490614fc7565b80601f0160208091040260200160405190810160405280929190818152602001828054613cd090614fc7565b8015613d1d5780601f10613cf257610100808354040283529160200191613d1d565b820191906000526020600020905b815481529060010190602001808311613d0057829003601f168201915b505050505090806006018054613d3290614fc7565b80601f0160208091040260200160405190810160405280929190818152602001828054613d5e90614fc7565b8015613dab5780601f10613d8057610100808354040283529160200191613dab565b820191906000526020600020905b815481529060010190602001808311613d8e57829003601f168201915b505050505090806007015490806008018054613dc690614fc7565b80601f0160208091040260200160405190810160405280929190818152602001828054613df290614fc7565b8015613e3f5780601f10613e1457610100808354040283529160200191613e3f565b820191906000526020600020905b815481529060010190602001808311613e2257829003601f168201915b5050505050905089565b6060600982604051613e5b91906150ab565b90815260200160405180910390206003908054613e7790614fc7565b613e82929190613f29565b5060038054613e9090614fc7565b80601f0160208091040260200160405190810160405280929190818152602001828054613ebc90614fc7565b8015613f095780601f10613ede57610100808354040283529160200191613f09565b820191906000526020600020905b815481529060010190602001808311613eec57829003601f168201915b50505050509050919050565b6000600d81905550565b6000600e81905550565b828054613f3590614fc7565b90600052602060002090601f016020900481019282613f575760008555613fa5565b82601f10613f685780548555613fa5565b82800160010185558215613fa557600052602060002091601f016020900482015b82811115613fa4578254825591600101919060010190613f89565b5b509050613fb2919061403c565b5090565b828054613fc290614fc7565b90600052602060002090601f016020900481019282613fe4576000855561402b565b82601f10613ffd57805160ff191683800117855561402b565b8280016001018555821561402b579182015b8281111561402a57825182559160200191906001019061400f565b5b509050614038919061403c565b5090565b5b8082111561405557600081600090555060010161403d565b5090565b6000819050919050565b61406c81614059565b82525050565b60006020820190506140876000830184614063565b92915050565b600081519050919050565b600082825260208201905092915050565b6000819050602082019050919050565b600081519050919050565b600082825260208201905092915050565b60005b838110156140f35780820151818401526020810190506140d8565b83811115614102576000848401525b50505050565b6000601f19601f8301169050919050565b6000614124826140b9565b61412e81856140c4565b935061413e8185602086016140d5565b61414781614108565b840191505092915050565b600061415e8383614119565b905092915050565b6000602082019050919050565b600061417e8261408d565b6141888185614098565b93508360208202850161419a856140a9565b8060005b858110156141d657848403895281516141b78582614152565b94506141c283614166565b925060208a0199505060018101905061419e565b50829750879550505050505092915050565b600060208201905081810360008301526142028184614173565b905092915050565b6000604051905090565b600080fd5b600080fd5b600080fd5b600080fd5b7f4e487b7100000000000000000000000000000000000000000000000000000000600052604160045260246000fd5b61426082614108565b810181811067ffffffffffffffff8211171561427f5761427e614228565b5b80604052505050565b600061429261420a565b905061429e8282614257565b919050565b600067ffffffffffffffff8211156142be576142bd614228565b5b6142c782614108565b9050602081019050919050565b82818337600083830152505050565b60006142f66142f1846142a3565b614288565b90508281526020810184848401111561431257614311614223565b5b61431d8482856142d4565b509392505050565b600082601f83011261433a5761433961421e565b5b813561434a8482602086016142e3565b91505092915050565b600080600080600080600080610100898b03121561437457614373614214565b5b600089013567ffffffffffffffff81111561439257614391614219565b5b61439e8b828c01614325565b985050602089013567ffffffffffffffff8111156143bf576143be614219565b5b6143cb8b828c01614325565b975050604089013567ffffffffffffffff8111156143ec576143eb614219565b5b6143f88b828c01614325565b965050606089013567ffffffffffffffff81111561441957614418614219565b5b6144258b828c01614325565b955050608089013567ffffffffffffffff81111561444657614445614219565b5b6144528b828c01614325565b94505060a089013567ffffffffffffffff81111561447357614472614219565b5b61447f8b828c01614325565b93505060c089013567ffffffffffffffff8111156144a05761449f614219565b5b6144ac8b828c01614325565b92505060e089013567ffffffffffffffff8111156144cd576144cc614219565b5b6144d98b828c01614325565b9150509295985092959890939650565b6144f281614059565b81146144fd57600080fd5b50565b60008135905061450f816144e9565b92915050565b60006020828403121561452b5761452a614214565b5b600061453984828501614500565b91505092915050565b600082825260208201905092915050565b600061455e826140b9565b6145688185614542565b93506145788185602086016140d5565b61458181614108565b840191505092915050565b60006101208201905081810360008301526145a7818c614553565b905081810360208301526145bb818b614553565b905081810360408301526145cf818a614553565b905081810360608301526145e38189614553565b905081810360808301526145f78188614553565b905081810360a083015261460b8187614553565b905081810360c083015261461f8186614553565b905061462e60e0830185614063565b8181036101008301526146418184614553565b90509a9950505050505050505050565b60006020828403121561466757614666614214565b5b600082013567ffffffffffffffff81111561468557614684614219565b5b61469184828501614325565b91505092915050565b600060208201905081810360008301526146b48184614553565b905092915050565b60008115159050919050565b6146d1816146bc565b82525050565b60006020820190506146ec60008301846146c8565b92915050565b600081519050919050565b600082825260208201905092915050565b6000819050602082019050919050565b61472781614059565b82525050565b6000614739838361471e565b60208301905092915050565b6000602082019050919050565b600061475d826146f2565b61476781856146fd565b93506147728361470e565b8060005b838110156147a357815161478a888261472d565b975061479583614745565b925050600181019050614776565b5085935050505092915050565b600060608201905081810360008301526147ca8186614173565b905081810360208301526147de8185614752565b905081810360408301526147f28184614173565b9050949350505050565b600080fd5b600080fd5b61480f816146bc565b811461481a57600080fd5b50565b60008135905061482c81614806565b92915050565b600060e08284031215614848576148476147fc565b5b61485260e0614288565b9050600082013567ffffffffffffffff81111561487257614871614801565b5b61487e84828501614325565b600083015250602082013567ffffffffffffffff8111156148a2576148a1614801565b5b6148ae84828501614325565b602083015250604082013567ffffffffffffffff8111156148d2576148d1614801565b5b6148de84828501614325565b604083015250606082013567ffffffffffffffff81111561490257614901614801565b5b61490e84828501614325565b606083015250608082013567ffffffffffffffff81111561493257614931614801565b5b61493e84828501614325565b60808301525060a082013567ffffffffffffffff81111561496257614961614801565b5b61496e84828501614325565b60a08301525060c06149828482850161481d565b60c08301525092915050565b6000602082840312156149a4576149a3614214565b5b600082013567ffffffffffffffff8111156149c2576149c1614219565b5b6149ce84828501614832565b91505092915050565b600080604083850312156149ee576149ed614214565b5b600083013567ffffffffffffffff811115614a0c57614a0b614219565b5b614a1885828601614325565b9250506020614a2985828601614500565b9150509250929050565b60006060820190508181036000830152614a4d8186614553565b90508181036020830152614a618185614553565b90508181036040830152614a758184614553565b9050949350505050565b600080600060608486031215614a9857614a97614214565b5b600084013567ffffffffffffffff811115614ab657614ab5614219565b5b614ac286828701614325565b935050602084013567ffffffffffffffff811115614ae357614ae2614219565b5b614aef86828701614325565b9250506040614b0086828701614500565b9150509250925092565b60008060008060808587031215614b2457614b23614214565b5b600085013567ffffffffffffffff811115614b4257614b41614219565b5b614b4e87828801614325565b945050602085013567ffffffffffffffff811115614b6f57614b6e614219565b5b614b7b87828801614325565b935050604085013567ffffffffffffffff811115614b9c57614b9b614219565b5b614ba887828801614325565b925050606085013567ffffffffffffffff811115614bc957614bc8614219565b5b614bd587828801614325565b91505092959194509250565b600060e0820190508181036000830152614bfb818a614553565b90508181036020830152614c0f8189614553565b90508181036040830152614c238188614553565b90508181036060830152614c378187614553565b90508181036080830152614c4b8186614553565b905081810360a0830152614c5f8185614553565b9050614c6e60c08301846146c8565b98975050505050505050565b60008060008060008060c08789031215614c9757614c96614214565b5b600087013567ffffffffffffffff811115614cb557614cb4614219565b5b614cc189828a01614325565b965050602087013567ffffffffffffffff811115614ce257614ce1614219565b5b614cee89828a01614325565b955050604087013567ffffffffffffffff811115614d0f57614d0e614219565b5b614d1b89828a01614325565b945050606087013567ffffffffffffffff811115614d3c57614d3b614219565b5b614d4889828a01614325565b935050608087013567ffffffffffffffff811115614d6957614d68614219565b5b614d7589828a01614325565b92505060a087013567ffffffffffffffff811115614d9657614d95614219565b5b614da289828a01614325565b9150509295509295509295565b60008060408385031215614dc657614dc5614214565b5b600083013567ffffffffffffffff811115614de457614de3614219565b5b614df085828601614325565b925050602083013567ffffffffffffffff811115614e1157614e10614219565b5b614e1d85828601614325565b9150509250929050565b600081519050919050565b600082825260208201905092915050565b6000819050602082019050919050565b60006060830160008301518482036000860152614e708282614119565b91505060208301518482036020860152614e8a8282614119565b91505060408301518482036040860152614ea48282614119565b9150508091505092915050565b6000614ebd8383614e53565b905092915050565b6000602082019050919050565b6000614edd82614e27565b614ee78185614e32565b935083602082028501614ef985614e43565b8060005b85811015614f355784840389528151614f168582614eb1565b9450614f2183614ec5565b925060208a01995050600181019050614efd565b50829750879550505050505092915050565b60006020820190508181036000830152614f618184614ed2565b905092915050565b7f4e487b7100000000000000000000000000000000000000000000000000000000600052603260045260246000fd5b7f4e487b7100000000000000000000000000000000000000000000000000000000600052602260045260246000fd5b60006002820490506001821680614fdf57607f821691505b602082108103614ff257614ff1614f98565b5b50919050565b7f4e487b7100000000000000000000000000000000000000000000000000000000600052601160045260246000fd5b600061503282614059565b91507fffffffffffffffffffffffffffffffffffffffffffffffffffffffffffffffff820361506457615063614ff8565b5b600182019050919050565b600081905092915050565b6000615085826140b9565b61508f818561506f565b935061509f8185602086016140d5565b80840191505092915050565b60006150b7828461507a565b91508190509291505056fe436f756c64206e6f742063617374206120766f74652c20566f746572206e6f742072656769737465726564212028747279206368616e67696e67206163636f756e74206f6e206d6574616d61736b29a2646970667358221220c0df7cff767b1d4bcdb2eb40cf4376fc77421d4a0e8076b24c30ca0bda68092a64736f6c634300080d0033307842363633466465333563353936453539374135363630646536373238623462433330326362363737",
  "immutableReferences": {},
  "source": "// SPDX-License-Identifier: MIT\r\npragma solidity ^0.8.10;\r\n\r\nstruct Admin{\r\n    string name;\r\n    string mobileNo;\r\n    string walletKey;\r\n}\r\n\r\nstruct Voter {\r\n    string name;\r\n    string mobileNo;\r\n    string homeAddress;\r\n    string aadharCardNo;\r\n    string voterId;\r\n    string walletKey;\r\n    bool isVoted;\r\n}\r\n\r\nstruct Candidate {\r\n    string name;\r\n    string mobileNo;\r\n    string homeAddress;\r\n    string aadharCardNo;\r\n    string voterId;\r\n    string walletKey;\r\n    string politicalParty;\r\n    uint256 votes;\r\n    string symbolUrl;\r\n}\r\n\r\ncontract BlockVote{\r\n    /* Global Variables START. */\r\n    Admin public ECI = Admin({name:\"ECI_Official\", mobileNo:\"1234567890\", walletKey:\"0xB663Fde35c596E597A5660de6728b4bC302cb677\"});\r\n    string voterId_main=\"\";\r\n    Admin[] public Admins;\r\n    Voter[] public Voters;\r\n    Candidate[] public Candidates;\r\n    string[] public candidate_names;\r\n    mapping (string=>Admin) public mapWalletKey2Admin;\r\n    // walletKey : voterId\r\n    mapping(string=>string) public map_walletKey_voterid;\r\n    // voterid : Voter;\r\n    mapping(string=>Voter) public map_voterid_details;\r\n    // wallet address : Candidate\r\n    mapping(string=>Candidate) public candidatesMap;\r\n    string votingPhase = \"preVoting\"; // Voting, Result\r\n    /* Global Variables END. */\r\n\r\n    /* ECI Functions START. */\r\n    uint addAdminState;     // 0 -> Not added, 1 -> Added succesfully, 2 -> Admin already exist, 3 -> Invalid ECI.\r\n    \r\n    function startVoting() public {\r\n        votingPhase = \"Voting\";\r\n    }\r\n\r\n    function endVoting() public {\r\n        votingPhase = \"Result\";\r\n    }\r\n\r\n    // Set addAdminState = 0.\r\n    function resetAddAdminState() private{\r\n        addAdminState = 0;\r\n    }\r\n\r\n    // Returns state of the last addAdmin call.\r\n    function getAddAdminState() public view returns(uint){\r\n        return addAdminState;\r\n    }\r\n\r\n    function authenticateECI(string memory _walletKey) public view returns(bool) {\r\n        return areStringsEqual(_walletKey, ECI.walletKey);\r\n    }\r\n\r\n    // Add an admin to the blockchain.\r\n    function addAdmin(string memory ECI_Key,string memory adName, string memory adMoNo, string memory adEthKey) public{\r\n        resetAddAdminState();\r\n        if(areStringsEqual(ECI_Key, ECI.walletKey)){\r\n            if(!areStringsEqual(mapWalletKey2Admin[adEthKey].walletKey, adEthKey)) {\r\n                Admin memory newAdmin = Admin({\r\n                    name:adName, \r\n                    mobileNo:adMoNo,\r\n                    walletKey:adEthKey\r\n                });\r\n                Admins.push(newAdmin);\r\n                mapWalletKey2Admin[adEthKey] = newAdmin;\r\n                addAdminState = 1;\r\n            }\r\n            else\r\n                addAdminState = 2;\r\n        }\r\n        else\r\n            addAdminState = 3;   \r\n    }\r\n\r\n    // Returns total number of admins in the blockchain.\r\n    function adminLength() public view returns(uint){\r\n        return Admins.length;\r\n    }\r\n\r\n    // Returns all admins in the blockchain.\r\n    function getAllAdmins() public view returns(Admin[] memory){\r\n        return Admins;\r\n    }\r\n\r\n    function authenticateAdmin(string memory _walletKey) public view returns(bool) {\r\n        if(!areStringsEqual(mapWalletKey2Admin[_walletKey].name,\"\")) return true;\r\n        else return false;\r\n    }\r\n\r\n    /* ECI Functions END. */\r\n\r\n    /* Admin Functions START. */\r\n    /* Admin Functions END. */\r\n\r\n    /* Voter Functions START. */\r\n    uint addVoterState;     // 0: not added, 1: added successfully, 2: already exists\r\n    function resetAddVoterState() private {\r\n        addVoterState = 0;\r\n    }\r\n    function getAddVoterState() public view returns(uint) {\r\n        return addVoterState;\r\n    }\r\n    function addVoter(string memory _name, string memory _mobileNo, string memory _homeAddress,\r\n     string memory _aadharCardNo, string memory _voterId, string memory _walletKey) public {\r\n        resetAddVoterState();\r\n         \r\n        Voter memory newVoter = Voter({\r\n                    name:_name, \r\n                    mobileNo:_mobileNo,\r\n                    homeAddress:_homeAddress,\r\n                    aadharCardNo:_aadharCardNo,\r\n                    voterId:_voterId,\r\n                    walletKey:_walletKey,\r\n                    isVoted:false\r\n        });\r\n        \r\n        if(!isVoterRegistered(newVoter)) {\r\n            Voters.push(newVoter);\r\n            map_voterid_details[_voterId] = newVoter;\r\n            map_walletKey_voterid[_walletKey] = _voterId;\r\n            addVoterState = 1;\r\n        }\r\n        else {\r\n            addVoterState = 2;\r\n        }\r\n        \r\n    }\r\n    function getAllVoters(string memory _walletKey) public returns(string memory) {\r\n        return map_walletKey_voterid[_walletKey];\r\n    }\r\n    function hasVoted(string memory _voterid) public view returns(bool){\r\n        return map_voterid_details[_voterid].isVoted;\r\n    }\r\n\r\n    function isVoterRegistered(Voter memory item) public view returns(bool) {\r\n        if(!areStringsEqual(map_voterid_details[item.voterId].name,\"\")) return true;\r\n        else return false;\r\n    }\r\n\r\n    function authenticateVoter(string memory _walletKey) public returns(bool) {\r\n        if(!areStringsEqual(map_voterid_details[getVoterId(_walletKey)].name,\"\")) return true;\r\n        else return false;\r\n    }\r\n\r\n    function getVoterId(string memory _walletKey) public returns(string memory) {\r\n        voterId_main = map_walletKey_voterid[_walletKey];\r\n        return voterId_main;\r\n    }\r\n\r\n    function setVoterId(string memory _voterid) public {\r\n        voterId_main = _voterid;\r\n    }\r\n\r\n    function voterLength() public view returns(uint) {\r\n        return Voters.length;\r\n    }\r\n\r\n    function getVoterMobileNumber(string memory _voterid) public view returns(string memory) {\r\n        return map_voterid_details[_voterid].mobileNo;\r\n    }\r\n\r\n    /* Voter Functions END. */\r\n    \r\n    /* Candidate Functions START. */\r\n    uint addCandidateState; // 0: not added, 1: successfully added, 2: already exists\r\n    function addCandidate(string memory _name, string memory _mobileNo, string memory _homeAddress,\r\n     string memory _aadharCardNo, string memory _voterId, string memory _walletKey, string memory _politicalParty, string memory _symbolUrl) public {\r\n        Candidate memory newCandidate = Candidate({\r\n                    name:_name, \r\n                    mobileNo:_mobileNo,\r\n                    homeAddress:_homeAddress,\r\n                    aadharCardNo:_aadharCardNo,\r\n                    voterId:_voterId,\r\n                    walletKey:_walletKey,\r\n                    politicalParty:_politicalParty,\r\n                    votes: 0,\r\n                    symbolUrl: _symbolUrl\r\n        });\r\n        if(!isCandidateRegistered(_walletKey)) {\r\n            Candidates.push(newCandidate);\r\n            candidatesMap[_walletKey] = newCandidate;\r\n            addVoter( _name, _mobileNo,  _homeAddress,\r\n                _aadharCardNo, _voterId,  _walletKey);\r\n            addCandidateState = 1;\r\n        }\r\n        else {\r\n            addCandidateState = 2;\r\n        }   \r\n    }\r\n\r\n    function isCandidateRegistered(string memory _walletKey) public view returns(bool){\r\n        if(!areStringsEqual(candidatesMap[_walletKey].name,\"\"))return true;\r\n        else return false;\r\n    }\r\n\r\n    function getCandidates() public returns(string[] memory) {\r\n        for(uint256 i=0;i<Candidates.length;i++) {\r\n        candidate_names.push(Candidates[i].name);\r\n        }\r\n        return candidate_names;\r\n    }\r\n    \r\n\r\n    /* Candidate Functions END. */\r\n\r\n    /* Results Functions START */\r\n    /* returns (candidates, votes, symbolUrls), receives object with 3 keys (0 : candidates array, 1 : votes array, 2: symbolUrls array) */\r\n    \r\n    string[] public _candidates;\r\n    uint256[] public _votes;\r\n    string[] public _symbolUrls;\r\n    function getResults() public returns(string[] memory, uint256[] memory, string[] memory) {\r\n        if(areStringsEqual(votingPhase, \"Result\")){\r\n            for(uint256 i=0;i<Candidates.length;i++) {\r\n                _candidates.push(Candidates[i].name);\r\n                _votes.push(Candidates[i].votes);\r\n                _symbolUrls.push(Candidates[i].symbolUrl);\r\n            }    \r\n        }\r\n        return (_candidates, _votes, _symbolUrls);\r\n    }\r\n    /* Results Functions END */\r\n\r\n    /* Voting Functions START */ \r\n    \r\n    function vote(string memory _voterId, string memory _walletKey, uint256 choice) public returns(string memory) {\r\n        if(areStringsEqual(map_voterid_details[_voterId].walletKey, _walletKey)) {\r\n            if(!map_voterid_details[_voterId].isVoted) {\r\n                Candidates[choice].votes++;\r\n                string memory temp_walletKey = Candidates[choice].walletKey;\r\n                candidatesMap[temp_walletKey].votes++;\r\n                map_voterid_details[_voterId].isVoted = true;\r\n                for(uint256 i=0;i<Voters.length;i++) {\r\n                    if(areStringsEqual(Voters[i].voterId, _voterId)){\r\n                        Voters[i].isVoted = true;\r\n                        break;\r\n                    }\r\n                }\r\n                return \"Vote casted successfully!\";\r\n            }\r\n            return \"Voter has already voted!\";\r\n        }\r\n        return \"Could not cast a vote, Voter not registered! (try changing account on metamask)\";\r\n    }\r\n\r\n    function voteThroughAdmin(string memory _voterId, uint256 choice) public returns(string memory) {\r\n        if(!map_voterid_details[_voterId].isVoted) {\r\n            Candidates[choice].votes++;\r\n            string memory temp_walletKey = Candidates[choice].walletKey;\r\n            candidatesMap[temp_walletKey].votes++;\r\n            map_voterid_details[_voterId].isVoted = true;\r\n            for(uint256 i=0;i<Voters.length;i++) {\r\n                if(areStringsEqual(Voters[i].voterId, _voterId)){\r\n                    Voters[i].isVoted = true;\r\n                    break;\r\n                }\r\n            }\r\n            return \"Vote casted successfully!\";\r\n        }\r\n        return \"Voter has already voted!\";\r\n    }\r\n    /* Voting Functions END */ \r\n\r\n    /* Utility Functions START. */\r\n    function areStringsEqual(string memory S1, string memory S2) public pure returns(bool){\r\n        return keccak256(bytes(S1)) == keccak256(bytes(S2));\r\n    }\r\n\r\n    function sampleValue() public pure returns(uint){\r\n        return 5;\r\n    }\r\n    /* Utility Functions END. */\r\n}\r\n",
  "sourcePath": "D:\\Blockchain-Projects\\BlockVote\\contracts\\BlockVote.sol",
  "compiler": {
    "name": "solc",
    "version": "0.8.13+commit.abaa5c0e.Emscripten.clang"
  },
  "schemaVersion": "3.4.4",
  "updatedAt": "2022-04-01T06:03:58.228Z",
  "networkType": "ethereum",
  "devdoc": {
    "kind": "dev",
    "methods": {},
    "version": 1
  },
  "userdoc": {
    "kind": "user",
    "methods": {},
    "version": 1
  }
}