{
  "contractName": "CandidateCon",
  "abi": [
    {
      "inputs": [
        {
          "internalType": "string",
          "name": "_name",
          "type": "string"
        },
        {
          "internalType": "string",
          "name": "_mobileNo",
          "type": "string"
        },
        {
          "internalType": "string",
          "name": "_homeAddress",
          "type": "string"
        },
        {
          "internalType": "string",
          "name": "_aadharCardNo",
          "type": "string"
        },
        {
          "internalType": "string",
          "name": "_voterId",
          "type": "string"
        },
        {
          "internalType": "string",
          "name": "_walletKey",
          "type": "string"
        },
        {
          "internalType": "string",
          "name": "_politicalParty",
          "type": "string"
        }
      ],
      "stateMutability": "nonpayable",
      "type": "constructor"
    },
    {
      "inputs": [
        {
          "internalType": "uint256",
          "name": "",
          "type": "uint256"
        }
      ],
      "name": "_candidates",
      "outputs": [
        {
          "internalType": "string",
          "name": "",
          "type": "string"
        }
      ],
      "stateMutability": "view",
      "type": "function"
    },
    {
      "inputs": [
        {
          "internalType": "uint256",
          "name": "",
          "type": "uint256"
        }
      ],
      "name": "_votes",
      "outputs": [
        {
          "internalType": "uint256",
          "name": "",
          "type": "uint256"
        }
      ],
      "stateMutability": "view",
      "type": "function"
    },
    {
      "inputs": [
        {
          "components": [
            {
              "internalType": "string",
              "name": "name",
              "type": "string"
            },
            {
              "internalType": "string",
              "name": "mobileNo",
              "type": "string"
            },
            {
              "internalType": "string",
              "name": "walletKey",
              "type": "string"
            }
          ],
          "internalType": "struct Admin",
          "name": "item",
          "type": "tuple"
        }
      ],
      "name": "addAdmin",
      "outputs": [],
      "stateMutability": "nonpayable",
      "type": "function"
    },
    {
      "inputs": [
        {
          "components": [
            {
              "internalType": "string",
              "name": "name",
              "type": "string"
            },
            {
              "internalType": "string",
              "name": "mobileNo",
              "type": "string"
            },
            {
              "internalType": "string",
              "name": "homeAddress",
              "type": "string"
            },
            {
              "internalType": "string",
              "name": "aadharCardNo",
              "type": "string"
            },
            {
              "internalType": "string",
              "name": "voterId",
              "type": "string"
            },
            {
              "internalType": "string",
              "name": "walletKey",
              "type": "string"
            },
            {
              "internalType": "string",
              "name": "politicalParty",
              "type": "string"
            },
            {
              "internalType": "uint256",
              "name": "votes",
              "type": "uint256"
            }
          ],
          "internalType": "struct Candidate",
          "name": "item",
          "type": "tuple"
        }
      ],
      "name": "addCandidate",
      "outputs": [],
      "stateMutability": "nonpayable",
      "type": "function"
    },
    {
      "inputs": [
        {
          "internalType": "string",
          "name": "walletKey",
          "type": "string"
        },
        {
          "components": [
            {
              "internalType": "string",
              "name": "name",
              "type": "string"
            },
            {
              "internalType": "string",
              "name": "mobileNo",
              "type": "string"
            },
            {
              "internalType": "string",
              "name": "walletKey",
              "type": "string"
            }
          ],
          "internalType": "struct Admin",
          "name": "a",
          "type": "tuple"
        }
      ],
      "name": "addToAdminsMap",
      "outputs": [],
      "stateMutability": "nonpayable",
      "type": "function"
    },
    {
      "inputs": [
        {
          "internalType": "string",
          "name": "walletKey",
          "type": "string"
        },
        {
          "components": [
            {
              "internalType": "string",
              "name": "name",
              "type": "string"
            },
            {
              "internalType": "string",
              "name": "mobileNo",
              "type": "string"
            },
            {
              "internalType": "string",
              "name": "homeAddress",
              "type": "string"
            },
            {
              "internalType": "string",
              "name": "aadharCardNo",
              "type": "string"
            },
            {
              "internalType": "string",
              "name": "voterId",
              "type": "string"
            },
            {
              "internalType": "string",
              "name": "walletKey",
              "type": "string"
            },
            {
              "internalType": "string",
              "name": "politicalParty",
              "type": "string"
            },
            {
              "internalType": "uint256",
              "name": "votes",
              "type": "uint256"
            }
          ],
          "internalType": "struct Candidate",
          "name": "c",
          "type": "tuple"
        }
      ],
      "name": "addToCandidatesMap",
      "outputs": [],
      "stateMutability": "nonpayable",
      "type": "function"
    },
    {
      "inputs": [
        {
          "components": [
            {
              "internalType": "string",
              "name": "name",
              "type": "string"
            },
            {
              "internalType": "string",
              "name": "mobileNo",
              "type": "string"
            },
            {
              "internalType": "string",
              "name": "homeAddress",
              "type": "string"
            },
            {
              "internalType": "string",
              "name": "aadharCardNo",
              "type": "string"
            },
            {
              "internalType": "string",
              "name": "voterId",
              "type": "string"
            },
            {
              "internalType": "string",
              "name": "walletKey",
              "type": "string"
            },
            {
              "internalType": "bool",
              "name": "isVoted",
              "type": "bool"
            }
          ],
          "internalType": "struct Voter",
          "name": "item",
          "type": "tuple"
        }
      ],
      "name": "addVoter",
      "outputs": [
        {
          "internalType": "string",
          "name": "",
          "type": "string"
        }
      ],
      "stateMutability": "nonpayable",
      "type": "function"
    },
    {
      "inputs": [],
      "name": "adminLength",
      "outputs": [
        {
          "internalType": "uint256",
          "name": "",
          "type": "uint256"
        }
      ],
      "stateMutability": "view",
      "type": "function"
    },
    {
      "inputs": [
        {
          "internalType": "uint256",
          "name": "",
          "type": "uint256"
        }
      ],
      "name": "admins",
      "outputs": [
        {
          "internalType": "string",
          "name": "name",
          "type": "string"
        },
        {
          "internalType": "string",
          "name": "mobileNo",
          "type": "string"
        },
        {
          "internalType": "string",
          "name": "walletKey",
          "type": "string"
        }
      ],
      "stateMutability": "view",
      "type": "function"
    },
    {
      "inputs": [
        {
          "internalType": "string",
          "name": "",
          "type": "string"
        }
      ],
      "name": "adminsMap",
      "outputs": [
        {
          "internalType": "string",
          "name": "name",
          "type": "string"
        },
        {
          "internalType": "string",
          "name": "mobileNo",
          "type": "string"
        },
        {
          "internalType": "string",
          "name": "walletKey",
          "type": "string"
        }
      ],
      "stateMutability": "view",
      "type": "function"
    },
    {
      "inputs": [
        {
          "internalType": "string",
          "name": "s1",
          "type": "string"
        },
        {
          "internalType": "string",
          "name": "s2",
          "type": "string"
        }
      ],
      "name": "areStringsEqual",
      "outputs": [
        {
          "internalType": "bool",
          "name": "",
          "type": "bool"
        }
      ],
      "stateMutability": "pure",
      "type": "function"
    },
    {
      "inputs": [
        {
          "internalType": "string",
          "name": "_walletKey",
          "type": "string"
        }
      ],
      "name": "authenticateAdmin",
      "outputs": [
        {
          "internalType": "bool",
          "name": "",
          "type": "bool"
        }
      ],
      "stateMutability": "view",
      "type": "function"
    },
    {
      "inputs": [],
      "name": "c",
      "outputs": [
        {
          "internalType": "string",
          "name": "name",
          "type": "string"
        },
        {
          "internalType": "string",
          "name": "mobileNo",
          "type": "string"
        },
        {
          "internalType": "string",
          "name": "homeAddress",
          "type": "string"
        },
        {
          "internalType": "string",
          "name": "aadharCardNo",
          "type": "string"
        },
        {
          "internalType": "string",
          "name": "voterId",
          "type": "string"
        },
        {
          "internalType": "string",
          "name": "walletKey",
          "type": "string"
        },
        {
          "internalType": "string",
          "name": "politicalParty",
          "type": "string"
        },
        {
          "internalType": "uint256",
          "name": "votes",
          "type": "uint256"
        }
      ],
      "stateMutability": "view",
      "type": "function"
    },
    {
      "inputs": [
        {
          "internalType": "uint256",
          "name": "",
          "type": "uint256"
        }
      ],
      "name": "candidate_names",
      "outputs": [
        {
          "internalType": "string",
          "name": "",
          "type": "string"
        }
      ],
      "stateMutability": "view",
      "type": "function"
    },
    {
      "inputs": [
        {
          "internalType": "uint256",
          "name": "",
          "type": "uint256"
        }
      ],
      "name": "candidates",
      "outputs": [
        {
          "internalType": "string",
          "name": "name",
          "type": "string"
        },
        {
          "internalType": "string",
          "name": "mobileNo",
          "type": "string"
        },
        {
          "internalType": "string",
          "name": "homeAddress",
          "type": "string"
        },
        {
          "internalType": "string",
          "name": "aadharCardNo",
          "type": "string"
        },
        {
          "internalType": "string",
          "name": "voterId",
          "type": "string"
        },
        {
          "internalType": "string",
          "name": "walletKey",
          "type": "string"
        },
        {
          "internalType": "string",
          "name": "politicalParty",
          "type": "string"
        },
        {
          "internalType": "uint256",
          "name": "votes",
          "type": "uint256"
        }
      ],
      "stateMutability": "view",
      "type": "function"
    },
    {
      "inputs": [
        {
          "internalType": "string",
          "name": "",
          "type": "string"
        }
      ],
      "name": "candidatesMap",
      "outputs": [
        {
          "internalType": "string",
          "name": "name",
          "type": "string"
        },
        {
          "internalType": "string",
          "name": "mobileNo",
          "type": "string"
        },
        {
          "internalType": "string",
          "name": "homeAddress",
          "type": "string"
        },
        {
          "internalType": "string",
          "name": "aadharCardNo",
          "type": "string"
        },
        {
          "internalType": "string",
          "name": "voterId",
          "type": "string"
        },
        {
          "internalType": "string",
          "name": "walletKey",
          "type": "string"
        },
        {
          "internalType": "string",
          "name": "politicalParty",
          "type": "string"
        },
        {
          "internalType": "uint256",
          "name": "votes",
          "type": "uint256"
        }
      ],
      "stateMutability": "view",
      "type": "function"
    },
    {
      "inputs": [],
      "name": "getCandidates",
      "outputs": [
        {
          "internalType": "string[]",
          "name": "",
          "type": "string[]"
        }
      ],
      "stateMutability": "nonpayable",
      "type": "function"
    },
    {
      "inputs": [],
      "name": "getResults",
      "outputs": [
        {
          "internalType": "string[]",
          "name": "",
          "type": "string[]"
        },
        {
          "internalType": "uint256[]",
          "name": "",
          "type": "uint256[]"
        }
      ],
      "stateMutability": "nonpayable",
      "type": "function"
    },
    {
      "inputs": [
        {
          "internalType": "string",
          "name": "_walletKey",
          "type": "string"
        }
      ],
      "name": "getVoterId",
      "outputs": [
        {
          "internalType": "string",
          "name": "",
          "type": "string"
        }
      ],
      "stateMutability": "nonpayable",
      "type": "function"
    },
    {
      "inputs": [
        {
          "internalType": "string",
          "name": "_voterid",
          "type": "string"
        }
      ],
      "name": "hasVoted",
      "outputs": [
        {
          "internalType": "bool",
          "name": "",
          "type": "bool"
        }
      ],
      "stateMutability": "view",
      "type": "function"
    },
    {
      "inputs": [
        {
          "internalType": "string",
          "name": "_walletKey",
          "type": "string"
        }
      ],
      "name": "isAdminRegistered",
      "outputs": [
        {
          "internalType": "bool",
          "name": "",
          "type": "bool"
        }
      ],
      "stateMutability": "view",
      "type": "function"
    },
    {
      "inputs": [
        {
          "internalType": "string",
          "name": "_walletKey",
          "type": "string"
        }
      ],
      "name": "isCandidateRegistered",
      "outputs": [
        {
          "internalType": "bool",
          "name": "",
          "type": "bool"
        }
      ],
      "stateMutability": "view",
      "type": "function"
    },
    {
      "inputs": [
        {
          "components": [
            {
              "internalType": "string",
              "name": "name",
              "type": "string"
            },
            {
              "internalType": "string",
              "name": "mobileNo",
              "type": "string"
            },
            {
              "internalType": "string",
              "name": "homeAddress",
              "type": "string"
            },
            {
              "internalType": "string",
              "name": "aadharCardNo",
              "type": "string"
            },
            {
              "internalType": "string",
              "name": "voterId",
              "type": "string"
            },
            {
              "internalType": "string",
              "name": "walletKey",
              "type": "string"
            },
            {
              "internalType": "bool",
              "name": "isVoted",
              "type": "bool"
            }
          ],
          "internalType": "struct Voter",
          "name": "item",
          "type": "tuple"
        }
      ],
      "name": "isVoterRegistered",
      "outputs": [
        {
          "internalType": "bool",
          "name": "",
          "type": "bool"
        }
      ],
      "stateMutability": "view",
      "type": "function"
    },
    {
      "inputs": [
        {
          "internalType": "string",
          "name": "",
          "type": "string"
        }
      ],
      "name": "map_voterid_details",
      "outputs": [
        {
          "internalType": "string",
          "name": "name",
          "type": "string"
        },
        {
          "internalType": "string",
          "name": "mobileNo",
          "type": "string"
        },
        {
          "internalType": "string",
          "name": "homeAddress",
          "type": "string"
        },
        {
          "internalType": "string",
          "name": "aadharCardNo",
          "type": "string"
        },
        {
          "internalType": "string",
          "name": "voterId",
          "type": "string"
        },
        {
          "internalType": "string",
          "name": "walletKey",
          "type": "string"
        },
        {
          "internalType": "bool",
          "name": "isVoted",
          "type": "bool"
        }
      ],
      "stateMutability": "view",
      "type": "function"
    },
    {
      "inputs": [
        {
          "internalType": "string",
          "name": "",
          "type": "string"
        }
      ],
      "name": "map_walletKey_voterid",
      "outputs": [
        {
          "internalType": "string",
          "name": "",
          "type": "string"
        }
      ],
      "stateMutability": "view",
      "type": "function"
    },
    {
      "inputs": [
        {
          "internalType": "string",
          "name": "_voterid",
          "type": "string"
        },
        {
          "components": [
            {
              "internalType": "string",
              "name": "name",
              "type": "string"
            },
            {
              "internalType": "string",
              "name": "mobileNo",
              "type": "string"
            },
            {
              "internalType": "string",
              "name": "homeAddress",
              "type": "string"
            },
            {
              "internalType": "string",
              "name": "aadharCardNo",
              "type": "string"
            },
            {
              "internalType": "string",
              "name": "voterId",
              "type": "string"
            },
            {
              "internalType": "string",
              "name": "walletKey",
              "type": "string"
            },
            {
              "internalType": "bool",
              "name": "isVoted",
              "type": "bool"
            }
          ],
          "internalType": "struct Voter",
          "name": "v",
          "type": "tuple"
        }
      ],
      "name": "setMapVoterDetails",
      "outputs": [],
      "stateMutability": "nonpayable",
      "type": "function"
    },
    {
      "inputs": [
        {
          "internalType": "string",
          "name": "_voterid",
          "type": "string"
        }
      ],
      "name": "setVoterId",
      "outputs": [],
      "stateMutability": "nonpayable",
      "type": "function"
    },
    {
      "inputs": [
        {
          "internalType": "string",
          "name": "_voterId",
          "type": "string"
        },
        {
          "internalType": "string",
          "name": "_walletKey",
          "type": "string"
        },
        {
          "internalType": "uint256",
          "name": "choice",
          "type": "uint256"
        }
      ],
      "name": "vote",
      "outputs": [
        {
          "internalType": "bool",
          "name": "",
          "type": "bool"
        }
      ],
      "stateMutability": "nonpayable",
      "type": "function"
    },
    {
      "inputs": [
        {
          "internalType": "string",
          "name": "_voterId",
          "type": "string"
        },
        {
          "internalType": "uint256",
          "name": "choice",
          "type": "uint256"
        }
      ],
      "name": "voteThroughAdmin",
      "outputs": [
        {
          "internalType": "bool",
          "name": "",
          "type": "bool"
        }
      ],
      "stateMutability": "nonpayable",
      "type": "function"
    },
    {
      "inputs": [],
      "name": "voterLength",
      "outputs": [
        {
          "internalType": "uint256",
          "name": "",
          "type": "uint256"
        }
      ],
      "stateMutability": "view",
      "type": "function"
    },
    {
      "inputs": [
        {
          "internalType": "uint256",
          "name": "",
          "type": "uint256"
        }
      ],
      "name": "voters",
      "outputs": [
        {
          "internalType": "string",
          "name": "name",
          "type": "string"
        },
        {
          "internalType": "string",
          "name": "mobileNo",
          "type": "string"
        },
        {
          "internalType": "string",
          "name": "homeAddress",
          "type": "string"
        },
        {
          "internalType": "string",
          "name": "aadharCardNo",
          "type": "string"
        },
        {
          "internalType": "string",
          "name": "voterId",
          "type": "string"
        },
        {
          "internalType": "string",
          "name": "walletKey",
          "type": "string"
        },
        {
          "internalType": "bool",
          "name": "isVoted",
          "type": "bool"
        }
      ],
      "stateMutability": "view",
      "type": "function"
    }
  ],
  "bytecode": "0x60806040526000805560405180602001604052806000815250600190805190602001906200002f92919062000e65565b506040518060400160405280600981526020017f707265566f74696e670000000000000000000000000000000000000000000000815250600590805190602001906200007d92919062000e65565b503480156200008b57600080fd5b5060405162005a9a38038062005a9a8339818101604052810190620000b19190620010b2565b86600d6000019080519060200190620000cc92919062000e65565b5085600d6001019080519060200190620000e892919062000e65565b5084600d60020190805190602001906200010492919062000e65565b5083600d60030190805190602001906200012092919062000e65565b5082600d60040190805190602001906200013c92919062000e65565b5081600d60050190805190602001906200015892919062000e65565b5080600d60060190805190602001906200017492919062000e65565b506000600d60070181905550620005de600d60405180610100016040529081600082018054620001a4906200126d565b80601f0160208091040260200160405190810160405280929190818152602001828054620001d2906200126d565b8015620002235780601f10620001f75761010080835404028352916020019162000223565b820191906000526020600020905b8154815290600101906020018083116200020557829003601f168201915b505050505081526020016001820180546200023e906200126d565b80601f01602080910402602001604051908101604052809291908181526020018280546200026c906200126d565b8015620002bd5780601f106200029157610100808354040283529160200191620002bd565b820191906000526020600020905b8154815290600101906020018083116200029f57829003601f168201915b50505050508152602001600282018054620002d8906200126d565b80601f016020809104026020016040519081016040528092919081815260200182805462000306906200126d565b8015620003575780601f106200032b5761010080835404028352916020019162000357565b820191906000526020600020905b8154815290600101906020018083116200033957829003601f168201915b5050505050815260200160038201805462000372906200126d565b80601f0160208091040260200160405190810160405280929190818152602001828054620003a0906200126d565b8015620003f15780601f10620003c557610100808354040283529160200191620003f1565b820191906000526020600020905b815481529060010190602001808311620003d357829003601f168201915b505050505081526020016004820180546200040c906200126d565b80601f01602080910402602001604051908101604052809291908181526020018280546200043a906200126d565b80156200048b5780601f106200045f576101008083540402835291602001916200048b565b820191906000526020600020905b8154815290600101906020018083116200046d57829003601f168201915b50505050508152602001600582018054620004a6906200126d565b80601f0160208091040260200160405190810160405280929190818152602001828054620004d4906200126d565b8015620005255780601f10620004f95761010080835404028352916020019162000525565b820191906000526020600020905b8154815290600101906020018083116200050757829003601f168201915b5050505050815260200160068201805462000540906200126d565b80601f01602080910402602001604051908101604052809291908181526020018280546200056e906200126d565b8015620005bf5780601f106200059357610100808354040283529160200191620005bf565b820191906000526020600020905b815481529060010190602001808311620005a157829003601f168201915b5050505050815260200160078201548152505062000a4a60201b60201c565b62000a3d82600d6040518061010001604052908160008201805462000603906200126d565b80601f016020809104026020016040519081016040528092919081815260200182805462000631906200126d565b8015620006825780601f10620006565761010080835404028352916020019162000682565b820191906000526020600020905b8154815290600101906020018083116200066457829003601f168201915b505050505081526020016001820180546200069d906200126d565b80601f0160208091040260200160405190810160405280929190818152602001828054620006cb906200126d565b80156200071c5780601f10620006f0576101008083540402835291602001916200071c565b820191906000526020600020905b815481529060010190602001808311620006fe57829003601f168201915b5050505050815260200160028201805462000737906200126d565b80601f016020809104026020016040519081016040528092919081815260200182805462000765906200126d565b8015620007b65780601f106200078a57610100808354040283529160200191620007b6565b820191906000526020600020905b8154815290600101906020018083116200079857829003601f168201915b50505050508152602001600382018054620007d1906200126d565b80601f0160208091040260200160405190810160405280929190818152602001828054620007ff906200126d565b8015620008505780601f10620008245761010080835404028352916020019162000850565b820191906000526020600020905b8154815290600101906020018083116200083257829003601f168201915b505050505081526020016004820180546200086b906200126d565b80601f016020809104026020016040519081016040528092919081815260200182805462000899906200126d565b8015620008ea5780601f10620008be57610100808354040283529160200191620008ea565b820191906000526020600020905b815481529060010190602001808311620008cc57829003601f168201915b5050505050815260200160058201805462000905906200126d565b80601f016020809104026020016040519081016040528092919081815260200182805462000933906200126d565b8015620009845780601f10620009585761010080835404028352916020019162000984565b820191906000526020600020905b8154815290600101906020018083116200096657829003601f168201915b505050505081526020016006820180546200099f906200126d565b80601f0160208091040260200160405190810160405280929190818152602001828054620009cd906200126d565b801562000a1e5780601f10620009f25761010080835404028352916020019162000a1e565b820191906000526020600020905b81548152906001019060200180831162000a0057829003601f168201915b5050505050815260200160078201548152505062000c5d60201b60201c565b5050505050505062001402565b62000a5f8160a0015162000d6860201b60201c565b15801562000b42575062000b416005805462000a7b906200126d565b80601f016020809104026020016040519081016040528092919081815260200182805462000aa9906200126d565b801562000afa5780601f1062000ace5761010080835404028352916020019162000afa565b820191906000526020600020905b81548152906001019060200180831162000adc57829003601f168201915b50505050506040518060400160405280600981526020017f707265566f74696e67000000000000000000000000000000000000000000000081525062000df660201b60201c565b5b1562000c5a576004819080600181540180825580915050600190039060005260206000209060080201600090919091909150600082015181600001908051906020019062000b9292919062000e65565b50602082015181600101908051906020019062000bb192919062000e65565b50604082015181600201908051906020019062000bd092919062000e65565b50606082015181600301908051906020019062000bef92919062000e65565b50608082015181600401908051906020019062000c0e92919062000e65565b5060a082015181600501908051906020019062000c2d92919062000e65565b5060c082015181600601908051906020019062000c4c92919062000e65565b5060e0820151816007015550505b50565b8060098360405162000c709190620012ef565b9081526020016040518091039020600082015181600001908051906020019062000c9c92919062000e65565b50602082015181600101908051906020019062000cbb92919062000e65565b50604082015181600201908051906020019062000cda92919062000e65565b50606082015181600301908051906020019062000cf992919062000e65565b50608082015181600401908051906020019062000d1892919062000e65565b5060a082015181600501908051906020019062000d3792919062000e65565b5060c082015181600601908051906020019062000d5692919062000e65565b5060e082015181600701559050505050565b600060405160200162000d7b9062001332565b6040516020818303038152906040528051906020012060098360405162000da39190620012ef565b908152602001604051809103902060000160405160200162000dc69190620013e9565b604051602081830303815290604052805190602001201462000dec576001905062000df1565b600090505b919050565b60008160405160200162000e0b9190620012ef565b604051602081830303815290604052805190602001208360405160200162000e349190620012ef565b604051602081830303815290604052805190602001200362000e5a576001905062000e5f565b600090505b92915050565b82805462000e73906200126d565b90600052602060002090601f01602090048101928262000e97576000855562000ee3565b82601f1062000eb257805160ff191683800117855562000ee3565b8280016001018555821562000ee3579182015b8281111562000ee257825182559160200191906001019062000ec5565b5b50905062000ef2919062000ef6565b5090565b5b8082111562000f1157600081600090555060010162000ef7565b5090565b6000604051905090565b600080fd5b600080fd5b600080fd5b600080fd5b6000601f19601f8301169050919050565b7f4e487b7100000000000000000000000000000000000000000000000000000000600052604160045260246000fd5b62000f7e8262000f33565b810181811067ffffffffffffffff8211171562000fa05762000f9f62000f44565b5b80604052505050565b600062000fb562000f15565b905062000fc3828262000f73565b919050565b600067ffffffffffffffff82111562000fe65762000fe562000f44565b5b62000ff18262000f33565b9050602081019050919050565b60005b838110156200101e57808201518184015260208101905062001001565b838111156200102e576000848401525b50505050565b60006200104b620010458462000fc8565b62000fa9565b9050828152602081018484840111156200106a576200106962000f2e565b5b6200107784828562000ffe565b509392505050565b600082601f83011262001097576200109662000f29565b5b8151620010a984826020860162001034565b91505092915050565b600080600080600080600060e0888a031215620010d457620010d362000f1f565b5b600088015167ffffffffffffffff811115620010f557620010f462000f24565b5b620011038a828b016200107f565b975050602088015167ffffffffffffffff81111562001127576200112662000f24565b5b620011358a828b016200107f565b965050604088015167ffffffffffffffff81111562001159576200115862000f24565b5b620011678a828b016200107f565b955050606088015167ffffffffffffffff8111156200118b576200118a62000f24565b5b620011998a828b016200107f565b945050608088015167ffffffffffffffff811115620011bd57620011bc62000f24565b5b620011cb8a828b016200107f565b93505060a088015167ffffffffffffffff811115620011ef57620011ee62000f24565b5b620011fd8a828b016200107f565b92505060c088015167ffffffffffffffff81111562001221576200122062000f24565b5b6200122f8a828b016200107f565b91505092959891949750929550565b7f4e487b7100000000000000000000000000000000000000000000000000000000600052602260045260246000fd5b600060028204905060018216806200128657607f821691505b6020821081036200129c576200129b6200123e565b5b50919050565b600081519050919050565b600081905092915050565b6000620012c582620012a2565b620012d18185620012ad565b9350620012e381856020860162000ffe565b80840191505092915050565b6000620012fd8284620012b8565b915081905092915050565b50565b60006200131a600083620012ad565b9150620013278262001308565b600082019050919050565b60006200133f826200130b565b9150819050919050565b60008190508160005260206000209050919050565b600081546200136d816200126d565b620013798186620012ad565b94506001821660008114620013975760018114620013a957620013e0565b60ff19831686528186019350620013e0565b620013b48562001349565b60005b83811015620013d857815481890152600182019150602081019050620013b7565b838801955050505b50505092915050565b6000620013f782846200135e565b915081905092915050565b61468880620014126000396000f3fe608060405234801561001057600080fd5b50600436106101e55760003560e01c806361e221e41161010f578063b1496cd4116100a2578063da58c7d911610071578063da58c7d914610641578063f372514614610677578063f6249c04146106ae578063fe06e087146106de576101e5565b8063b1496cd41461058a578063bea48894146105ba578063c38c5b23146105ea578063c3da42b81461061c576101e5565b80639c0585b0116100de5780639c0585b0146104d8578063a69945fb14610508578063a7d27b0314610538578063aebd20f014610554576101e5565b806361e221e41461043e578063648a305a1461045a5780637820d3841461048a5780637a4c96ad146104a8576101e5565b8063455ab588116101875780635097086f116101565780635097086f1461039057806351b09065146103c0578063565e802a146103f05780635982f61014610420576101e5565b8063455ab588146103095780634717f97c1461032557806348c82952146103445780634fbe75c114610360576101e5565b806322d2ee01116101c357806322d2ee01146102565780632ec66043146102725780633477ee2e146102a257806339bfeae3146102d9576101e5565b806306a49fce146101ea57806314bfd6d0146102085780632054449e1461023a575b600080fd5b6101f261070e565b6040516101ff919061372d565b60405180910390f35b610222600480360381019061021d9190613799565b61086f565b60405161023193929190613810565b60405180910390f35b610254600480360381019061024f9190613a53565b610a41565b005b610270600480360381019061026b9190613c59565b610abe565b005b61028c60048036038101906102879190613cd1565b610bb9565b6040516102999190613d1a565b60405180910390f35b6102bc60048036038101906102b79190613799565b610c6f565b6040516102d0989796959493929190613d4b565b60405180910390f35b6102f360048036038101906102ee9190613cd1565b61107f565b6040516103009190613e15565b60405180910390f35b610323600480360381019061031e9190613e30565b6110b7565b005b61032d6112a2565b60405161033b929190613f37565b60405180910390f35b61035e600480360381019061035991906140f6565b61157b565b005b61037a6004803603810190610375919061416e565b6116aa565b6040516103879190613e15565b60405180910390f35b6103aa60048036038101906103a591906141b7565b611734565b6040516103b79190613e15565b60405180910390f35b6103da60048036038101906103d59190613799565b611915565b6040516103e79190613d1a565b60405180910390f35b61040a60048036038101906104059190613cd1565b6119c1565b6040516104179190613e15565b60405180910390f35b610428611a47565b6040516104359190614213565b60405180910390f35b6104586004803603810190610453919061422e565b611a54565b005b610474600480360381019061046f9190613799565b611bd0565b6040516104819190613d1a565b60405180910390f35b610492611c7c565b60405161049f9190614213565b60405180910390f35b6104c260048036038101906104bd9190614277565b611c89565b6040516104cf9190613e15565b60405180910390f35b6104f260048036038101906104ed9190613cd1565b611f2c565b6040516104ff9190613e15565b60405180910390f35b610522600480360381019061051d9190613cd1565b611fb2565b60405161052f9190613e15565b60405180910390f35b610552600480360381019061054d9190613cd1565b611fd5565b005b61056e60048036038101906105699190613cd1565b611fef565b6040516105819796959493929190614302565b60405180910390f35b6105a4600480360381019061059f919061439b565b612384565b6040516105b19190613e15565b60405180910390f35b6105d460048036038101906105cf9190613799565b6123ed565b6040516105e19190614213565b60405180910390f35b61060460048036038101906105ff9190613cd1565b612411565b60405161061393929190613810565b60405180910390f35b6106246125e9565b604051610638989796959493929190613d4b565b60405180910390f35b61065b60048036038101906106569190613799565b6129d7565b60405161066e9796959493929190614302565b60405180910390f35b610691600480360381019061068c9190613cd1565b612d66565b6040516106a5989796959493929190613d4b565b60405180910390f35b6106c860048036038101906106c39190613cd1565b61317c565b6040516106d59190613d1a565b60405180910390f35b6106f860048036038101906106f3919061416e565b613248565b6040516107059190613d1a565b60405180910390f35b606060005b60048054905081101561079757600a6004828154811061073657610735614413565b5b90600052602060002090600802016000019080600181540180825580915050600190039060005260206000200160009091909190915090805461077890614471565b6107839291906134a2565b50808061078f906144d1565b915050610713565b50600a805480602002602001604051908101604052809291908181526020016000905b828210156108665783829060005260206000200180546107d990614471565b80601f016020809104026020016040519081016040528092919081815260200182805461080590614471565b80156108525780601f1061082757610100808354040283529160200191610852565b820191906000526020600020905b81548152906001019060200180831161083557829003601f168201915b5050505050815260200190600101906107ba565b50505050905090565b6003818154811061087f57600080fd5b90600052602060002090600302016000915090508060000180546108a290614471565b80601f01602080910402602001604051908101604052809291908181526020018280546108ce90614471565b801561091b5780601f106108f05761010080835404028352916020019161091b565b820191906000526020600020905b8154815290600101906020018083116108fe57829003601f168201915b50505050509080600101805461093090614471565b80601f016020809104026020016040519081016040528092919081815260200182805461095c90614471565b80156109a95780601f1061097e576101008083540402835291602001916109a9565b820191906000526020600020905b81548152906001019060200180831161098c57829003601f168201915b5050505050908060020180546109be90614471565b80601f01602080910402602001604051908101604052809291908181526020018280546109ea90614471565b8015610a375780601f10610a0c57610100808354040283529160200191610a37565b820191906000526020600020905b815481529060010190602001808311610a1a57829003601f168201915b5050505050905083565b80600883604051610a529190614555565b90815260200160405180910390206000820151816000019080519060200190610a7c92919061352f565b506020820151816001019080519060200190610a9992919061352f565b506040820151816002019080519060200190610ab692919061352f565b509050505050565b80600983604051610acf9190614555565b90815260200160405180910390206000820151816000019080519060200190610af992919061352f565b506020820151816001019080519060200190610b1692919061352f565b506040820151816002019080519060200190610b3392919061352f565b506060820151816003019080519060200190610b5092919061352f565b506080820151816004019080519060200190610b6d92919061352f565b5060a0820151816005019080519060200190610b8a92919061352f565b5060c0820151816006019080519060200190610ba792919061352f565b5060e082015181600701559050505050565b6006818051602081018201805184825260208301602085012081835280955050505050506000915090508054610bee90614471565b80601f0160208091040260200160405190810160405280929190818152602001828054610c1a90614471565b8015610c675780601f10610c3c57610100808354040283529160200191610c67565b820191906000526020600020905b815481529060010190602001808311610c4a57829003601f168201915b505050505081565b60048181548110610c7f57600080fd5b9060005260206000209060080201600091509050806000018054610ca290614471565b80601f0160208091040260200160405190810160405280929190818152602001828054610cce90614471565b8015610d1b5780601f10610cf057610100808354040283529160200191610d1b565b820191906000526020600020905b815481529060010190602001808311610cfe57829003601f168201915b505050505090806001018054610d3090614471565b80601f0160208091040260200160405190810160405280929190818152602001828054610d5c90614471565b8015610da95780601f10610d7e57610100808354040283529160200191610da9565b820191906000526020600020905b815481529060010190602001808311610d8c57829003601f168201915b505050505090806002018054610dbe90614471565b80601f0160208091040260200160405190810160405280929190818152602001828054610dea90614471565b8015610e375780601f10610e0c57610100808354040283529160200191610e37565b820191906000526020600020905b815481529060010190602001808311610e1a57829003601f168201915b505050505090806003018054610e4c90614471565b80601f0160208091040260200160405190810160405280929190818152602001828054610e7890614471565b8015610ec55780601f10610e9a57610100808354040283529160200191610ec5565b820191906000526020600020905b815481529060010190602001808311610ea857829003601f168201915b505050505090806004018054610eda90614471565b80601f0160208091040260200160405190810160405280929190818152602001828054610f0690614471565b8015610f535780601f10610f2857610100808354040283529160200191610f53565b820191906000526020600020905b815481529060010190602001808311610f3657829003601f168201915b505050505090806005018054610f6890614471565b80601f0160208091040260200160405190810160405280929190818152602001828054610f9490614471565b8015610fe15780601f10610fb657610100808354040283529160200191610fe1565b820191906000526020600020905b815481529060010190602001808311610fc457829003601f168201915b505050505090806006018054610ff690614471565b80601f016020809104026020016040519081016040528092919081815260200182805461102290614471565b801561106f5780601f106110445761010080835404028352916020019161106f565b820191906000526020600020905b81548152906001019060200180831161105257829003601f168201915b5050505050908060070154905088565b60006007826040516110919190614555565b908152602001604051809103902060060160009054906101000a900460ff169050919050565b6110c48160a001516119c1565b1580156111965750611195600580546110dc90614471565b80601f016020809104026020016040519081016040528092919081815260200182805461110890614471565b80156111555780601f1061112a57610100808354040283529160200191611155565b820191906000526020600020905b81548152906001019060200180831161113857829003601f168201915b50505050506040518060400160405280600981526020017f707265566f74696e670000000000000000000000000000000000000000000000815250612384565b5b1561129f57600481908060018154018082558091505060019003906000526020600020906008020160009091909190915060008201518160000190805190602001906111e392919061352f565b50602082015181600101908051906020019061120092919061352f565b50604082015181600201908051906020019061121d92919061352f565b50606082015181600301908051906020019061123a92919061352f565b50608082015181600401908051906020019061125792919061352f565b5060a082015181600501908051906020019061127492919061352f565b5060c082015181600601908051906020019061129192919061352f565b5060e0820151816007015550505b50565b60608061136e600580546112b590614471565b80601f01602080910402602001604051908101604052809291908181526020018280546112e190614471565b801561132e5780601f106113035761010080835404028352916020019161132e565b820191906000526020600020905b81548152906001019060200180831161131157829003601f168201915b50505050506040518060400160405280600681526020017f526573756c740000000000000000000000000000000000000000000000000000815250612384565b1561144a5760005b60048054905081101561144857600b6004828154811061139957611398614413565b5b9060005260206000209060080201600001908060018154018082558091505060019003906000526020600020016000909190919091509080546113db90614471565b6113e69291906134a2565b50600c600482815481106113fd576113fc614413565b5b90600052602060002090600802016007015490806001815401808255809150506001900390600052602060002001600090919091909150558080611440906144d1565b915050611376565b505b600b600c81805480602002602001604051908101604052809291908181526020016000905b8282101561151b57838290600052602060002001805461148e90614471565b80601f01602080910402602001604051908101604052809291908181526020018280546114ba90614471565b80156115075780601f106114dc57610100808354040283529160200191611507565b820191906000526020600020905b8154815290600101906020018083116114ea57829003601f168201915b50505050508152602001906001019061146f565b5050505091508080548060200260200160405190810160405280929190818152602001828054801561156c57602002820191906000526020600020905b815481526020019060010190808311611558575b50505050509050915091509091565b8060078360405161158c9190614555565b908152602001604051809103902060008201518160000190805190602001906115b692919061352f565b5060208201518160010190805190602001906115d392919061352f565b5060408201518160020190805190602001906115f092919061352f565b50606082015181600301908051906020019061160d92919061352f565b50608082015181600401908051906020019061162a92919061352f565b5060a082015181600501908051906020019061164792919061352f565b5060c08201518160060160006101000a81548160ff021916908315150217905550905050806080015160068260a001516040516116849190614555565b908152602001604051809103902090805190602001906116a592919061352f565b505050565b60006040516020016116bb90614592565b60405160208183030381529060405280519060200120600783608001516040516116e59190614555565b9081526020016040518091039020600001604051602001611706919061463b565b604051602081830303815290604052805190602001201461172a576001905061172f565b600090505b919050565b60006007836040516117469190614555565b908152602001604051809103902060060160009054906101000a900460ff1661190a576004828154811061177d5761177c614413565b5b9060005260206000209060080201600701600081548092919061179f906144d1565b919050555060016007846040516117b69190614555565b908152602001604051809103902060060160006101000a81548160ff02191690831515021790555060005b600280549050811015611900576118a56002828154811061180557611804614413565b5b9060005260206000209060070201600401805461182190614471565b80601f016020809104026020016040519081016040528092919081815260200182805461184d90614471565b801561189a5780601f1061186f5761010080835404028352916020019161189a565b820191906000526020600020905b81548152906001019060200180831161187d57829003601f168201915b505050505085612384565b156118ed576001600282815481106118c0576118bf614413565b5b906000526020600020906007020160060160006101000a81548160ff021916908315150217905550611900565b80806118f8906144d1565b9150506117e1565b506001905061190f565b600090505b92915050565b600a818154811061192557600080fd5b90600052602060002001600091509050805461194090614471565b80601f016020809104026020016040519081016040528092919081815260200182805461196c90614471565b80156119b95780601f1061198e576101008083540402835291602001916119b9565b820191906000526020600020905b81548152906001019060200180831161199c57829003601f168201915b505050505081565b60006040516020016119d290614592565b604051602081830303815290604052805190602001206009836040516119f89190614555565b9081526020016040518091039020600001604051602001611a19919061463b565b6040516020818303038152906040528051906020012014611a3d5760019050611a42565b600090505b919050565b6000600380549050905090565b611a618160400151611f2c565b158015611b345750611b3260058054611a7990614471565b80601f0160208091040260200160405190810160405280929190818152602001828054611aa590614471565b8015611af25780601f10611ac757610100808354040283529160200191611af2565b820191906000526020600020905b815481529060010190602001808311611ad557829003601f168201915b50505050506040518060400160405280600681526020017f526573756c740000000000000000000000000000000000000000000000000000815250612384565b155b15611bcd5760038190806001815401808255809150506001900390600052602060002090600302016000909190919091506000820151816000019080519060200190611b8192919061352f565b506020820151816001019080519060200190611b9e92919061352f565b506040820151816002019080519060200190611bbb92919061352f565b505050611bcc816040015182610a41565b5b50565b600b8181548110611be057600080fd5b906000526020600020016000915090508054611bfb90614471565b80601f0160208091040260200160405190810160405280929190818152602001828054611c2790614471565b8015611c745780601f10611c4957610100808354040283529160200191611c74565b820191906000526020600020905b815481529060010190602001808311611c5757829003601f168201915b505050505081565b6000600280549050905090565b6000611d3e600785604051611c9e9190614555565b90815260200160405180910390206005018054611cba90614471565b80601f0160208091040260200160405190810160405280929190818152602001828054611ce690614471565b8015611d335780601f10611d0857610100808354040283529160200191611d33565b820191906000526020600020905b815481529060010190602001808311611d1657829003601f168201915b505050505084612384565b15611f2057600784604051611d539190614555565b908152602001604051809103902060060160009054906101000a900460ff16611f175760048281548110611d8a57611d89614413565b5b90600052602060002090600802016007016000815480929190611dac906144d1565b91905055506001600785604051611dc39190614555565b908152602001604051809103902060060160006101000a81548160ff02191690831515021790555060005b600280549050811015611f0d57611eb260028281548110611e1257611e11614413565b5b90600052602060002090600702016004018054611e2e90614471565b80601f0160208091040260200160405190810160405280929190818152602001828054611e5a90614471565b8015611ea75780601f10611e7c57610100808354040283529160200191611ea7565b820191906000526020600020905b815481529060010190602001808311611e8a57829003601f168201915b505050505086612384565b15611efa57600160028281548110611ecd57611ecc614413565b5b906000526020600020906007020160060160006101000a81548160ff021916908315150217905550611f0d565b8080611f05906144d1565b915050611dee565b5060019050611f25565b60009050611f25565b600090505b9392505050565b6000604051602001611f3d90614592565b60405160208183030381529060405280519060200120600883604051611f639190614555565b9081526020016040518091039020600001604051602001611f84919061463b565b6040516020818303038152906040528051906020012014611fa85760019050611fad565b600090505b919050565b6000611fbd82611f2c565b15611fcb5760019050611fd0565b600090505b919050565b8060019080519060200190611feb92919061352f565b5050565b60078180516020810182018051848252602083016020850120818352809550505050505060009150905080600001805461202890614471565b80601f016020809104026020016040519081016040528092919081815260200182805461205490614471565b80156120a15780601f10612076576101008083540402835291602001916120a1565b820191906000526020600020905b81548152906001019060200180831161208457829003601f168201915b5050505050908060010180546120b690614471565b80601f01602080910402602001604051908101604052809291908181526020018280546120e290614471565b801561212f5780601f106121045761010080835404028352916020019161212f565b820191906000526020600020905b81548152906001019060200180831161211257829003601f168201915b50505050509080600201805461214490614471565b80601f016020809104026020016040519081016040528092919081815260200182805461217090614471565b80156121bd5780601f10612192576101008083540402835291602001916121bd565b820191906000526020600020905b8154815290600101906020018083116121a057829003601f168201915b5050505050908060030180546121d290614471565b80601f01602080910402602001604051908101604052809291908181526020018280546121fe90614471565b801561224b5780601f106122205761010080835404028352916020019161224b565b820191906000526020600020905b81548152906001019060200180831161222e57829003601f168201915b50505050509080600401805461226090614471565b80601f016020809104026020016040519081016040528092919081815260200182805461228c90614471565b80156122d95780601f106122ae576101008083540402835291602001916122d9565b820191906000526020600020905b8154815290600101906020018083116122bc57829003601f168201915b5050505050908060050180546122ee90614471565b80601f016020809104026020016040519081016040528092919081815260200182805461231a90614471565b80156123675780601f1061233c57610100808354040283529160200191612367565b820191906000526020600020905b81548152906001019060200180831161234a57829003601f168201915b5050505050908060060160009054906101000a900460ff16905087565b6000816040516020016123979190614555565b60405160208183030381529060405280519060200120836040516020016123be9190614555565b60405160208183030381529060405280519060200120036123e257600190506123e7565b600090505b92915050565b600c81815481106123fd57600080fd5b906000526020600020016000915090505481565b60088180516020810182018051848252602083016020850120818352809550505050505060009150905080600001805461244a90614471565b80601f016020809104026020016040519081016040528092919081815260200182805461247690614471565b80156124c35780601f10612498576101008083540402835291602001916124c3565b820191906000526020600020905b8154815290600101906020018083116124a657829003601f168201915b5050505050908060010180546124d890614471565b80601f016020809104026020016040519081016040528092919081815260200182805461250490614471565b80156125515780601f1061252657610100808354040283529160200191612551565b820191906000526020600020905b81548152906001019060200180831161253457829003601f168201915b50505050509080600201805461256690614471565b80601f016020809104026020016040519081016040528092919081815260200182805461259290614471565b80156125df5780601f106125b4576101008083540402835291602001916125df565b820191906000526020600020905b8154815290600101906020018083116125c257829003601f168201915b5050505050905083565b600d8060000180546125fa90614471565b80601f016020809104026020016040519081016040528092919081815260200182805461262690614471565b80156126735780601f1061264857610100808354040283529160200191612673565b820191906000526020600020905b81548152906001019060200180831161265657829003601f168201915b50505050509080600101805461268890614471565b80601f01602080910402602001604051908101604052809291908181526020018280546126b490614471565b80156127015780601f106126d657610100808354040283529160200191612701565b820191906000526020600020905b8154815290600101906020018083116126e457829003601f168201915b50505050509080600201805461271690614471565b80601f016020809104026020016040519081016040528092919081815260200182805461274290614471565b801561278f5780601f106127645761010080835404028352916020019161278f565b820191906000526020600020905b81548152906001019060200180831161277257829003601f168201915b5050505050908060030180546127a490614471565b80601f01602080910402602001604051908101604052809291908181526020018280546127d090614471565b801561281d5780601f106127f25761010080835404028352916020019161281d565b820191906000526020600020905b81548152906001019060200180831161280057829003601f168201915b50505050509080600401805461283290614471565b80601f016020809104026020016040519081016040528092919081815260200182805461285e90614471565b80156128ab5780601f10612880576101008083540402835291602001916128ab565b820191906000526020600020905b81548152906001019060200180831161288e57829003601f168201915b5050505050908060050180546128c090614471565b80601f01602080910402602001604051908101604052809291908181526020018280546128ec90614471565b80156129395780601f1061290e57610100808354040283529160200191612939565b820191906000526020600020905b81548152906001019060200180831161291c57829003601f168201915b50505050509080600601805461294e90614471565b80601f016020809104026020016040519081016040528092919081815260200182805461297a90614471565b80156129c75780601f1061299c576101008083540402835291602001916129c7565b820191906000526020600020905b8154815290600101906020018083116129aa57829003601f168201915b5050505050908060070154905088565b600281815481106129e757600080fd5b9060005260206000209060070201600091509050806000018054612a0a90614471565b80601f0160208091040260200160405190810160405280929190818152602001828054612a3690614471565b8015612a835780601f10612a5857610100808354040283529160200191612a83565b820191906000526020600020905b815481529060010190602001808311612a6657829003601f168201915b505050505090806001018054612a9890614471565b80601f0160208091040260200160405190810160405280929190818152602001828054612ac490614471565b8015612b115780601f10612ae657610100808354040283529160200191612b11565b820191906000526020600020905b815481529060010190602001808311612af457829003601f168201915b505050505090806002018054612b2690614471565b80601f0160208091040260200160405190810160405280929190818152602001828054612b5290614471565b8015612b9f5780601f10612b7457610100808354040283529160200191612b9f565b820191906000526020600020905b815481529060010190602001808311612b8257829003601f168201915b505050505090806003018054612bb490614471565b80601f0160208091040260200160405190810160405280929190818152602001828054612be090614471565b8015612c2d5780601f10612c0257610100808354040283529160200191612c2d565b820191906000526020600020905b815481529060010190602001808311612c1057829003601f168201915b505050505090806004018054612c4290614471565b80601f0160208091040260200160405190810160405280929190818152602001828054612c6e90614471565b8015612cbb5780601f10612c9057610100808354040283529160200191612cbb565b820191906000526020600020905b815481529060010190602001808311612c9e57829003601f168201915b505050505090806005018054612cd090614471565b80601f0160208091040260200160405190810160405280929190818152602001828054612cfc90614471565b8015612d495780601f10612d1e57610100808354040283529160200191612d49565b820191906000526020600020905b815481529060010190602001808311612d2c57829003601f168201915b5050505050908060060160009054906101000a900460ff16905087565b600981805160208101820180518482526020830160208501208183528095505050505050600091509050806000018054612d9f90614471565b80601f0160208091040260200160405190810160405280929190818152602001828054612dcb90614471565b8015612e185780601f10612ded57610100808354040283529160200191612e18565b820191906000526020600020905b815481529060010190602001808311612dfb57829003601f168201915b505050505090806001018054612e2d90614471565b80601f0160208091040260200160405190810160405280929190818152602001828054612e5990614471565b8015612ea65780601f10612e7b57610100808354040283529160200191612ea6565b820191906000526020600020905b815481529060010190602001808311612e8957829003601f168201915b505050505090806002018054612ebb90614471565b80601f0160208091040260200160405190810160405280929190818152602001828054612ee790614471565b8015612f345780601f10612f0957610100808354040283529160200191612f34565b820191906000526020600020905b815481529060010190602001808311612f1757829003601f168201915b505050505090806003018054612f4990614471565b80601f0160208091040260200160405190810160405280929190818152602001828054612f7590614471565b8015612fc25780601f10612f9757610100808354040283529160200191612fc2565b820191906000526020600020905b815481529060010190602001808311612fa557829003601f168201915b505050505090806004018054612fd790614471565b80601f016020809104026020016040519081016040528092919081815260200182805461300390614471565b80156130505780601f1061302557610100808354040283529160200191613050565b820191906000526020600020905b81548152906001019060200180831161303357829003601f168201915b50505050509080600501805461306590614471565b80601f016020809104026020016040519081016040528092919081815260200182805461309190614471565b80156130de5780601f106130b3576101008083540402835291602001916130de565b820191906000526020600020905b8154815290600101906020018083116130c157829003601f168201915b5050505050908060060180546130f390614471565b80601f016020809104026020016040519081016040528092919081815260200182805461311f90614471565b801561316c5780601f106131415761010080835404028352916020019161316c565b820191906000526020600020905b81548152906001019060200180831161314f57829003601f168201915b5050505050908060070154905088565b606060068260405161318e9190614555565b908152602001604051809103902060019080546131aa90614471565b6131b59291906134a2565b50600180546131c390614471565b80601f01602080910402602001604051908101604052809291908181526020018280546131ef90614471565b801561323c5780601f106132115761010080835404028352916020019161323c565b820191906000526020600020905b81548152906001019060200180831161321f57829003601f168201915b50505050509050919050565b6060613253826116aa565b15801561332657506133246005805461326b90614471565b80601f016020809104026020016040519081016040528092919081815260200182805461329790614471565b80156132e45780601f106132b9576101008083540402835291602001916132e4565b820191906000526020600020905b8154815290600101906020018083116132c757829003601f168201915b50505050506040518060400160405280600681526020017f526573756c740000000000000000000000000000000000000000000000000000815250612384565b155b15613464576002829080600181540180825580915050600190039060005260206000209060070201600090919091909150600082015181600001908051906020019061337392919061352f565b50602082015181600101908051906020019061339092919061352f565b5060408201518160020190805190602001906133ad92919061352f565b5060608201518160030190805190602001906133ca92919061352f565b5060808201518160040190805190602001906133e792919061352f565b5060a082015181600501908051906020019061340492919061352f565b5060c08201518160060160006101000a81548160ff02191690831515021790555050506040518060400160405280600a81526020017f7573657220616464656400000000000000000000000000000000000000000000815250905061349d565b6040518060400160405280601381526020017f7573657220616c7265616479206578697374730000000000000000000000000081525090505b919050565b8280546134ae90614471565b90600052602060002090601f0160209004810192826134d0576000855561351e565b82601f106134e1578054855561351e565b8280016001018555821561351e57600052602060002091601f016020900482015b8281111561351d578254825591600101919060010190613502565b5b50905061352b91906135b5565b5090565b82805461353b90614471565b90600052602060002090601f01602090048101928261355d57600085556135a4565b82601f1061357657805160ff19168380011785556135a4565b828001600101855582156135a4579182015b828111156135a3578251825591602001919060010190613588565b5b5090506135b191906135b5565b5090565b5b808211156135ce5760008160009055506001016135b6565b5090565b600081519050919050565b600082825260208201905092915050565b6000819050602082019050919050565b600081519050919050565b600082825260208201905092915050565b60005b8381101561363857808201518184015260208101905061361d565b83811115613647576000848401525b50505050565b6000601f19601f8301169050919050565b6000613669826135fe565b6136738185613609565b935061368381856020860161361a565b61368c8161364d565b840191505092915050565b60006136a3838361365e565b905092915050565b6000602082019050919050565b60006136c3826135d2565b6136cd81856135dd565b9350836020820285016136df856135ee565b8060005b8581101561371b57848403895281516136fc8582613697565b9450613707836136ab565b925060208a019950506001810190506136e3565b50829750879550505050505092915050565b6000602082019050818103600083015261374781846136b8565b905092915050565b6000604051905090565b600080fd5b600080fd5b6000819050919050565b61377681613763565b811461378157600080fd5b50565b6000813590506137938161376d565b92915050565b6000602082840312156137af576137ae613759565b5b60006137bd84828501613784565b91505092915050565b600082825260208201905092915050565b60006137e2826135fe565b6137ec81856137c6565b93506137fc81856020860161361a565b6138058161364d565b840191505092915050565b6000606082019050818103600083015261382a81866137d7565b9050818103602083015261383e81856137d7565b9050818103604083015261385281846137d7565b9050949350505050565b600080fd5b600080fd5b7f4e487b7100000000000000000000000000000000000000000000000000000000600052604160045260246000fd5b61389e8261364d565b810181811067ffffffffffffffff821117156138bd576138bc613866565b5b80604052505050565b60006138d061374f565b90506138dc8282613895565b919050565b600067ffffffffffffffff8211156138fc576138fb613866565b5b6139058261364d565b9050602081019050919050565b82818337600083830152505050565b600061393461392f846138e1565b6138c6565b9050828152602081018484840111156139505761394f613861565b5b61395b848285613912565b509392505050565b600082601f8301126139785761397761385c565b5b8135613988848260208601613921565b91505092915050565b600080fd5b600080fd5b6000606082840312156139b1576139b0613991565b5b6139bb60606138c6565b9050600082013567ffffffffffffffff8111156139db576139da613996565b5b6139e784828501613963565b600083015250602082013567ffffffffffffffff811115613a0b57613a0a613996565b5b613a1784828501613963565b602083015250604082013567ffffffffffffffff811115613a3b57613a3a613996565b5b613a4784828501613963565b60408301525092915050565b60008060408385031215613a6a57613a69613759565b5b600083013567ffffffffffffffff811115613a8857613a8761375e565b5b613a9485828601613963565b925050602083013567ffffffffffffffff811115613ab557613ab461375e565b5b613ac18582860161399b565b9150509250929050565b60006101008284031215613ae257613ae1613991565b5b613aed6101006138c6565b9050600082013567ffffffffffffffff811115613b0d57613b0c613996565b5b613b1984828501613963565b600083015250602082013567ffffffffffffffff811115613b3d57613b3c613996565b5b613b4984828501613963565b602083015250604082013567ffffffffffffffff811115613b6d57613b6c613996565b5b613b7984828501613963565b604083015250606082013567ffffffffffffffff811115613b9d57613b9c613996565b5b613ba984828501613963565b606083015250608082013567ffffffffffffffff811115613bcd57613bcc613996565b5b613bd984828501613963565b60808301525060a082013567ffffffffffffffff811115613bfd57613bfc613996565b5b613c0984828501613963565b60a08301525060c082013567ffffffffffffffff811115613c2d57613c2c613996565b5b613c3984828501613963565b60c08301525060e0613c4d84828501613784565b60e08301525092915050565b60008060408385031215613c7057613c6f613759565b5b600083013567ffffffffffffffff811115613c8e57613c8d61375e565b5b613c9a85828601613963565b925050602083013567ffffffffffffffff811115613cbb57613cba61375e565b5b613cc785828601613acb565b9150509250929050565b600060208284031215613ce757613ce6613759565b5b600082013567ffffffffffffffff811115613d0557613d0461375e565b5b613d1184828501613963565b91505092915050565b60006020820190508181036000830152613d3481846137d7565b905092915050565b613d4581613763565b82525050565b6000610100820190508181036000830152613d66818b6137d7565b90508181036020830152613d7a818a6137d7565b90508181036040830152613d8e81896137d7565b90508181036060830152613da281886137d7565b90508181036080830152613db681876137d7565b905081810360a0830152613dca81866137d7565b905081810360c0830152613dde81856137d7565b9050613ded60e0830184613d3c565b9998505050505050505050565b60008115159050919050565b613e0f81613dfa565b82525050565b6000602082019050613e2a6000830184613e06565b92915050565b600060208284031215613e4657613e45613759565b5b600082013567ffffffffffffffff811115613e6457613e6361375e565b5b613e7084828501613acb565b91505092915050565b600081519050919050565b600082825260208201905092915050565b6000819050602082019050919050565b613eae81613763565b82525050565b6000613ec08383613ea5565b60208301905092915050565b6000602082019050919050565b6000613ee482613e79565b613eee8185613e84565b9350613ef983613e95565b8060005b83811015613f2a578151613f118882613eb4565b9750613f1c83613ecc565b925050600181019050613efd565b5085935050505092915050565b60006040820190508181036000830152613f5181856136b8565b90508181036020830152613f658184613ed9565b90509392505050565b613f7781613dfa565b8114613f8257600080fd5b50565b600081359050613f9481613f6e565b92915050565b600060e08284031215613fb057613faf613991565b5b613fba60e06138c6565b9050600082013567ffffffffffffffff811115613fda57613fd9613996565b5b613fe684828501613963565b600083015250602082013567ffffffffffffffff81111561400a57614009613996565b5b61401684828501613963565b602083015250604082013567ffffffffffffffff81111561403a57614039613996565b5b61404684828501613963565b604083015250606082013567ffffffffffffffff81111561406a57614069613996565b5b61407684828501613963565b606083015250608082013567ffffffffffffffff81111561409a57614099613996565b5b6140a684828501613963565b60808301525060a082013567ffffffffffffffff8111156140ca576140c9613996565b5b6140d684828501613963565b60a08301525060c06140ea84828501613f85565b60c08301525092915050565b6000806040838503121561410d5761410c613759565b5b600083013567ffffffffffffffff81111561412b5761412a61375e565b5b61413785828601613963565b925050602083013567ffffffffffffffff8111156141585761415761375e565b5b61416485828601613f9a565b9150509250929050565b60006020828403121561418457614183613759565b5b600082013567ffffffffffffffff8111156141a2576141a161375e565b5b6141ae84828501613f9a565b91505092915050565b600080604083850312156141ce576141cd613759565b5b600083013567ffffffffffffffff8111156141ec576141eb61375e565b5b6141f885828601613963565b925050602061420985828601613784565b9150509250929050565b60006020820190506142286000830184613d3c565b92915050565b60006020828403121561424457614243613759565b5b600082013567ffffffffffffffff8111156142625761426161375e565b5b61426e8482850161399b565b91505092915050565b6000806000606084860312156142905761428f613759565b5b600084013567ffffffffffffffff8111156142ae576142ad61375e565b5b6142ba86828701613963565b935050602084013567ffffffffffffffff8111156142db576142da61375e565b5b6142e786828701613963565b92505060406142f886828701613784565b9150509250925092565b600060e082019050818103600083015261431c818a6137d7565b9050818103602083015261433081896137d7565b9050818103604083015261434481886137d7565b9050818103606083015261435881876137d7565b9050818103608083015261436c81866137d7565b905081810360a083015261438081856137d7565b905061438f60c0830184613e06565b98975050505050505050565b600080604083850312156143b2576143b1613759565b5b600083013567ffffffffffffffff8111156143d0576143cf61375e565b5b6143dc85828601613963565b925050602083013567ffffffffffffffff8111156143fd576143fc61375e565b5b61440985828601613963565b9150509250929050565b7f4e487b7100000000000000000000000000000000000000000000000000000000600052603260045260246000fd5b7f4e487b7100000000000000000000000000000000000000000000000000000000600052602260045260246000fd5b6000600282049050600182168061448957607f821691505b60208210810361449c5761449b614442565b5b50919050565b7f4e487b7100000000000000000000000000000000000000000000000000000000600052601160045260246000fd5b60006144dc82613763565b91507fffffffffffffffffffffffffffffffffffffffffffffffffffffffffffffffff820361450e5761450d6144a2565b5b600182019050919050565b600081905092915050565b600061452f826135fe565b6145398185614519565b935061454981856020860161361a565b80840191505092915050565b60006145618284614524565b915081905092915050565b50565b600061457c600083614519565b91506145878261456c565b600082019050919050565b600061459d8261456f565b9150819050919050565b60008190508160005260206000209050919050565b600081546145c981614471565b6145d38186614519565b945060018216600081146145ee57600181146145ff57614632565b60ff19831686528186019350614632565b614608856145a7565b60005b8381101561462a5781548189015260018201915060208101905061460b565b838801955050505b50505092915050565b600061464782846145bc565b91508190509291505056fea2646970667358221220d5190dbc1256b55020d1e487b5031918649d32c5b655e307f3543b9e01eb9dff64736f6c634300080d0033",
  "immutableReferences": {},
  "source": "// SPDX-License-Identifier: MIT\r\npragma solidity ^0.8.10;\r\npragma experimental ABIEncoderV2;\r\n\r\nstruct Admin {\r\n    string name;\r\n    string mobileNo;\r\n    string walletKey;\r\n}\r\n\r\nstruct ECI {\r\n    string name;\r\n    string mobileNo;\r\n    string walletKey;\r\n}\r\n\r\nstruct Voter {\r\n    string name;\r\n    string mobileNo;\r\n    string homeAddress;\r\n    string aadharCardNo;\r\n    string voterId;\r\n    string walletKey;\r\n    bool isVoted;\r\n}\r\n\r\nstruct Candidate {\r\n    string name;\r\n    string mobileNo;\r\n    string homeAddress;\r\n    string aadharCardNo;\r\n    string voterId;\r\n    string walletKey;\r\n    string politicalParty;\r\n    uint256 votes;\r\n}\r\n\r\ncontract BlockVote {\r\n    uint transactionHelper = 0;\r\n    string voterId_main=\"\";\r\n    Voter[] public voters;\r\n    Admin[] public admins;\r\n    Candidate[] public candidates;\r\n    string votingPhase = \"preVoting\"; // Voting, Result\r\n\r\n    function areStringsEqual(string memory s1, string memory s2) public pure returns(bool){\r\n        if(keccak256(abi.encodePacked(s1)) == keccak256(abi.encodePacked((s2)))) return true;\r\n        else return false;\r\n    }\r\n    \r\n    // walletKey : voterId\r\n    mapping(string=>string) public map_walletKey_voterid;\r\n\r\n    // voterid : Voter;\r\n    mapping(string=>Voter) public map_voterid_details;\r\n    function setMapVoterDetails(string memory _voterid, Voter memory v) public {\r\n        map_voterid_details[_voterid] = v;\r\n        map_walletKey_voterid[v.walletKey] = v.voterId;\r\n    }\r\n\r\n    function hasVoted(string memory _voterid) public view returns(bool){\r\n        return map_voterid_details[_voterid].isVoted;\r\n    }\r\n\r\n    // Voter ////////////////////////////////////////// \r\n    function isVoterRegistered(Voter memory item) public view returns(bool) {\r\n        if(keccak256(abi.encodePacked((map_voterid_details[item.voterId].name))) != keccak256(abi.encodePacked((\"\")))) return true;\r\n        else return false;\r\n    }\r\n    function addVoter(Voter memory item) public returns(string memory) {\r\n        if(!isVoterRegistered(item) && !areStringsEqual(votingPhase,\"Result\")) {\r\n            voters.push(item);\r\n            return \"user added\";\r\n        }\r\n        else return \"user already exists\";\r\n            \r\n    }\r\n\r\n    function getVoterId(string memory _walletKey) public returns(string memory) {\r\n        voterId_main = map_walletKey_voterid[_walletKey];\r\n        return voterId_main;\r\n    }\r\n\r\n    function setVoterId(string memory _voterid) public {\r\n        voterId_main = _voterid;\r\n    }\r\n\r\n    function voterLength() public view returns(uint) {\r\n        return voters.length;\r\n    }\r\n    /////////////////////////////////////////////////\r\n\r\n    // Admin /////////////////////////////////////////\r\n    \r\n    function addAdmin(Admin memory item) public {\r\n        if(!isAdminRegistered(item.walletKey) && !areStringsEqual(votingPhase,\"Result\")){\r\n            admins.push(item);\r\n            addToAdminsMap(item.walletKey, item);\r\n        }\r\n    }\r\n\r\n    mapping(string=>Admin) public adminsMap;\r\n    function addToAdminsMap(string memory walletKey, Admin memory a) public {\r\n        adminsMap[walletKey] = a;\r\n    }\r\n\r\n    function isAdminRegistered(string memory _walletKey) public view returns(bool){\r\n        if(keccak256(abi.encodePacked((adminsMap[_walletKey].name))) != keccak256(abi.encodePacked((\"\")))) return true;\r\n        else return false;\r\n    }\r\n\r\n    function authenticateAdmin(string memory _walletKey) public view returns(bool){\r\n        if(isAdminRegistered(_walletKey)) return true;\r\n        else return false;\r\n    }\r\n\r\n    function adminLength() public view returns(uint) {\r\n        return admins.length;\r\n    }\r\n    ////////////////////////////////////////////////////\r\n\r\n\r\n    // Candidate ///////////////////////////////////////\r\n\r\n    function isCandidateRegistered(string memory _walletKey) public view returns(bool){\r\n        if(keccak256(abi.encodePacked((candidatesMap[_walletKey].name))) != keccak256(abi.encodePacked((\"\")))) return true;\r\n        else return false;\r\n    }\r\n\r\n    function addCandidate(Candidate memory item) public {\r\n        if(!isCandidateRegistered(item.walletKey) && areStringsEqual(votingPhase,\"preVoting\"))\r\n            candidates.push(item);\r\n    }\r\n\r\n    mapping(string=>Candidate) public candidatesMap;\r\n    function addToCandidatesMap(string memory walletKey, Candidate memory c) public {\r\n        candidatesMap[walletKey] = c;\r\n    }\r\n    string[] public candidate_names;\r\n    function getCandidates() public returns(string[] memory) {\r\n        for(uint256 i=0;i<candidates.length;i++) {\r\n        candidate_names.push(candidates[i].name);\r\n        }\r\n        return candidate_names;\r\n    }\r\n\r\n    ////////////////////////////////////////////////////\r\n\r\n\r\n    // Results ////////////////////////////////////////////////////////\r\n    /* returns (candidates, votes), receives object with 2 keys (0 : candidates array, 1 : votes array)\r\n    */\r\n    string[] public _candidates;\r\n    uint256[] public _votes;\r\n    function getResults() public returns(string[] memory, uint256[] memory) {\r\n        if(areStringsEqual(votingPhase, \"Result\")){\r\n            for(uint256 i=0;i<candidates.length;i++) {\r\n                _candidates.push(candidates[i].name);\r\n                _votes.push(candidates[i].votes);\r\n            }    \r\n        }\r\n        return (_candidates, _votes);\r\n    }\r\n    ////////////////////////////////////////////////////////////////////\r\n    // Vote /////////////////////////////////////////////////////////////\r\n    function vote(string memory _voterId, string memory _walletKey, uint256 choice) public returns(bool) {\r\n        if(areStringsEqual(map_voterid_details[_voterId].walletKey, _walletKey)) {\r\n            if(!map_voterid_details[_voterId].isVoted) {\r\n                candidates[choice].votes++;\r\n                map_voterid_details[_voterId].isVoted = true;\r\n                for(uint256 i=0;i<voters.length;i++) {\r\n                    if(areStringsEqual(voters[i].voterId, _voterId)){\r\n                        voters[i].isVoted = true;\r\n                        break;\r\n                    }\r\n                }\r\n                return true;\r\n            }\r\n            return false;\r\n        }\r\n        return false;\r\n    }\r\n\r\n    function voteThroughAdmin(string memory _voterId, uint256 choice) public returns(bool) {\r\n        if(!map_voterid_details[_voterId].isVoted) {\r\n            candidates[choice].votes++;\r\n            map_voterid_details[_voterId].isVoted = true;\r\n            for(uint256 i=0;i<voters.length;i++) {\r\n                if(areStringsEqual(voters[i].voterId, _voterId)){\r\n                    voters[i].isVoted = true;\r\n                    break;\r\n                }\r\n            }\r\n            return true;\r\n        }\r\n        return false;\r\n    }\r\n\r\n    /////////////////////////////////////////////////////////////////////\r\n}\r\n\r\ncontract AdminCon is BlockVote{\r\n    Admin public a;\r\n\r\n    constructor(string memory _name, string memory _mobileNo, string memory  _walletKey) {\r\n        a.name = _name;\r\n        a.mobileNo = _mobileNo;\r\n        a.walletKey = _walletKey;\r\n        // addAdmin(a);\r\n        // addToAdminsMap(_walletKey,a);\r\n    }\r\n\r\n}\r\n\r\ncontract ECICon is BlockVote {\r\n    Admin public e;\r\n\r\n    constructor() {\r\n        e.name = \"ECI\";\r\n        e.mobileNo = \"9876543210\";\r\n        e.walletKey = \"0x0fd90aA56caF2Bdf9Ea57836e24799f49361F15f\";\r\n    }\r\n\r\n    function getECI() public view returns(string memory) {\r\n       return e.walletKey;\r\n    }\r\n\r\n    function authenticateECI(string memory _walletKey) public pure returns(bool) {\r\n        if(areStringsEqual(_walletKey, \"0x0fd90aA56caF2Bdf9Ea57836e24799f49361F15f\")) return true;\r\n        else return false;\r\n    }\r\n\r\n    function setAdmin(string memory _name, string memory _mobileNo, string memory _walletKey) public {\r\n        Admin memory newAdmin = Admin({\r\n            name:_name, \r\n            mobileNo:_mobileNo,\r\n            walletKey:_walletKey\r\n        });\r\n        addAdmin(newAdmin);\r\n\r\n    }\r\n\r\n    function startVoting() public {\r\n        votingPhase = \"Voting\";\r\n    }\r\n\r\n    function endVoting() public {\r\n        votingPhase = \"Result\";\r\n    }\r\n}\r\n\r\ncontract VoterCon is BlockVote {\r\n    Voter public v;\r\n    \r\n    constructor(string memory _name, string memory _mobileNo, string memory _homeAddress,\r\n     string memory _aadharCardNo, string memory _voterId, string memory _walletKey) {\r\n        v.name = _name;\r\n        v.mobileNo = _mobileNo;\r\n        v.homeAddress = _homeAddress;\r\n        v.aadharCardNo = _aadharCardNo;\r\n        v.voterId = _voterId;\r\n        v.walletKey = _walletKey;\r\n        v.isVoted = false;\r\n        addVoter(v);\r\n        setMapVoterDetails(_voterId, v);\r\n     }\r\n}\r\n\r\ncontract CandidateCon is BlockVote {\r\n    Candidate public c;\r\n\r\n    constructor(string memory _name, string memory _mobileNo, string memory _homeAddress,\r\n     string memory _aadharCardNo, string memory _voterId, string memory _walletKey, string memory _politicalParty) {\r\n        c.name = _name;\r\n        c.mobileNo = _mobileNo;\r\n        c.homeAddress = _homeAddress;\r\n        c.aadharCardNo = _aadharCardNo;\r\n        c.voterId = _voterId;\r\n        c.walletKey = _walletKey;\r\n        c.politicalParty = _politicalParty;\r\n        c.votes = 0;\r\n        addCandidate(c);\r\n        addToCandidatesMap(_walletKey, c);\r\n    }\r\n}\r\n",
  "sourcePath": "E:\\BlockVote\\contracts\\BlockVote - Copy.sol",
  "compiler": {
    "name": "solc",
    "version": "0.8.13+commit.abaa5c0e.Emscripten.clang"
  },
  "schemaVersion": "3.4.4",
  "updatedAt": "2022-03-30T14:48:29.034Z",
  "devdoc": {
    "kind": "dev",
    "methods": {},
    "version": 1
  },
  "userdoc": {
    "kind": "user",
    "methods": {},
    "version": 1
  }
}