{
  "contractName": "ECICon",
  "abi": [
    {
      "inputs": [],
      "stateMutability": "nonpayable",
      "type": "constructor"
    },
    {
      "inputs": [
        {
          "internalType": "uint256",
          "name": "",
          "type": "uint256"
        }
      ],
      "name": "_candidates",
      "outputs": [
        {
          "internalType": "string",
          "name": "",
          "type": "string"
        }
      ],
      "stateMutability": "view",
      "type": "function"
    },
    {
      "inputs": [
        {
          "internalType": "uint256",
          "name": "",
          "type": "uint256"
        }
      ],
      "name": "_votes",
      "outputs": [
        {
          "internalType": "uint256",
          "name": "",
          "type": "uint256"
        }
      ],
      "stateMutability": "view",
      "type": "function"
    },
    {
      "inputs": [
        {
          "components": [
            {
              "internalType": "string",
              "name": "name",
              "type": "string"
            },
            {
              "internalType": "string",
              "name": "mobileNo",
              "type": "string"
            },
            {
              "internalType": "string",
              "name": "walletKey",
              "type": "string"
            }
          ],
          "internalType": "struct Admin",
          "name": "item",
          "type": "tuple"
        }
      ],
      "name": "addAdmin",
      "outputs": [],
      "stateMutability": "nonpayable",
      "type": "function"
    },
    {
      "inputs": [
        {
          "components": [
            {
              "internalType": "string",
              "name": "name",
              "type": "string"
            },
            {
              "internalType": "string",
              "name": "mobileNo",
              "type": "string"
            },
            {
              "internalType": "string",
              "name": "homeAddress",
              "type": "string"
            },
            {
              "internalType": "string",
              "name": "aadharCardNo",
              "type": "string"
            },
            {
              "internalType": "string",
              "name": "voterId",
              "type": "string"
            },
            {
              "internalType": "string",
              "name": "walletKey",
              "type": "string"
            },
            {
              "internalType": "string",
              "name": "politicalParty",
              "type": "string"
            },
            {
              "internalType": "uint256",
              "name": "votes",
              "type": "uint256"
            }
          ],
          "internalType": "struct Candidate",
          "name": "item",
          "type": "tuple"
        }
      ],
      "name": "addCandidate",
      "outputs": [],
      "stateMutability": "nonpayable",
      "type": "function"
    },
    {
      "inputs": [
        {
          "internalType": "string",
          "name": "walletKey",
          "type": "string"
        },
        {
          "components": [
            {
              "internalType": "string",
              "name": "name",
              "type": "string"
            },
            {
              "internalType": "string",
              "name": "mobileNo",
              "type": "string"
            },
            {
              "internalType": "string",
              "name": "walletKey",
              "type": "string"
            }
          ],
          "internalType": "struct Admin",
          "name": "a",
          "type": "tuple"
        }
      ],
      "name": "addToAdminsMap",
      "outputs": [],
      "stateMutability": "nonpayable",
      "type": "function"
    },
    {
      "inputs": [
        {
          "internalType": "string",
          "name": "walletKey",
          "type": "string"
        },
        {
          "components": [
            {
              "internalType": "string",
              "name": "name",
              "type": "string"
            },
            {
              "internalType": "string",
              "name": "mobileNo",
              "type": "string"
            },
            {
              "internalType": "string",
              "name": "homeAddress",
              "type": "string"
            },
            {
              "internalType": "string",
              "name": "aadharCardNo",
              "type": "string"
            },
            {
              "internalType": "string",
              "name": "voterId",
              "type": "string"
            },
            {
              "internalType": "string",
              "name": "walletKey",
              "type": "string"
            },
            {
              "internalType": "string",
              "name": "politicalParty",
              "type": "string"
            },
            {
              "internalType": "uint256",
              "name": "votes",
              "type": "uint256"
            }
          ],
          "internalType": "struct Candidate",
          "name": "c",
          "type": "tuple"
        }
      ],
      "name": "addToCandidatesMap",
      "outputs": [],
      "stateMutability": "nonpayable",
      "type": "function"
    },
    {
      "inputs": [
        {
          "components": [
            {
              "internalType": "string",
              "name": "name",
              "type": "string"
            },
            {
              "internalType": "string",
              "name": "mobileNo",
              "type": "string"
            },
            {
              "internalType": "string",
              "name": "homeAddress",
              "type": "string"
            },
            {
              "internalType": "string",
              "name": "aadharCardNo",
              "type": "string"
            },
            {
              "internalType": "string",
              "name": "voterId",
              "type": "string"
            },
            {
              "internalType": "string",
              "name": "walletKey",
              "type": "string"
            },
            {
              "internalType": "bool",
              "name": "isVoted",
              "type": "bool"
            }
          ],
          "internalType": "struct Voter",
          "name": "item",
          "type": "tuple"
        }
      ],
      "name": "addVoter",
      "outputs": [
        {
          "internalType": "string",
          "name": "",
          "type": "string"
        }
      ],
      "stateMutability": "nonpayable",
      "type": "function"
    },
    {
      "inputs": [],
      "name": "adminLength",
      "outputs": [
        {
          "internalType": "uint256",
          "name": "",
          "type": "uint256"
        }
      ],
      "stateMutability": "view",
      "type": "function"
    },
    {
      "inputs": [
        {
          "internalType": "uint256",
          "name": "",
          "type": "uint256"
        }
      ],
      "name": "admins",
      "outputs": [
        {
          "internalType": "string",
          "name": "name",
          "type": "string"
        },
        {
          "internalType": "string",
          "name": "mobileNo",
          "type": "string"
        },
        {
          "internalType": "string",
          "name": "walletKey",
          "type": "string"
        }
      ],
      "stateMutability": "view",
      "type": "function"
    },
    {
      "inputs": [
        {
          "internalType": "string",
          "name": "",
          "type": "string"
        }
      ],
      "name": "adminsMap",
      "outputs": [
        {
          "internalType": "string",
          "name": "name",
          "type": "string"
        },
        {
          "internalType": "string",
          "name": "mobileNo",
          "type": "string"
        },
        {
          "internalType": "string",
          "name": "walletKey",
          "type": "string"
        }
      ],
      "stateMutability": "view",
      "type": "function"
    },
    {
      "inputs": [
        {
          "internalType": "string",
          "name": "s1",
          "type": "string"
        },
        {
          "internalType": "string",
          "name": "s2",
          "type": "string"
        }
      ],
      "name": "areStringsEqual",
      "outputs": [
        {
          "internalType": "bool",
          "name": "",
          "type": "bool"
        }
      ],
      "stateMutability": "pure",
      "type": "function"
    },
    {
      "inputs": [
        {
          "internalType": "string",
          "name": "_walletKey",
          "type": "string"
        }
      ],
      "name": "authenticateAdmin",
      "outputs": [
        {
          "internalType": "bool",
          "name": "",
          "type": "bool"
        }
      ],
      "stateMutability": "view",
      "type": "function"
    },
    {
      "inputs": [
        {
          "internalType": "uint256",
          "name": "",
          "type": "uint256"
        }
      ],
      "name": "candidate_names",
      "outputs": [
        {
          "internalType": "string",
          "name": "",
          "type": "string"
        }
      ],
      "stateMutability": "view",
      "type": "function"
    },
    {
      "inputs": [
        {
          "internalType": "uint256",
          "name": "",
          "type": "uint256"
        }
      ],
      "name": "candidates",
      "outputs": [
        {
          "internalType": "string",
          "name": "name",
          "type": "string"
        },
        {
          "internalType": "string",
          "name": "mobileNo",
          "type": "string"
        },
        {
          "internalType": "string",
          "name": "homeAddress",
          "type": "string"
        },
        {
          "internalType": "string",
          "name": "aadharCardNo",
          "type": "string"
        },
        {
          "internalType": "string",
          "name": "voterId",
          "type": "string"
        },
        {
          "internalType": "string",
          "name": "walletKey",
          "type": "string"
        },
        {
          "internalType": "string",
          "name": "politicalParty",
          "type": "string"
        },
        {
          "internalType": "uint256",
          "name": "votes",
          "type": "uint256"
        }
      ],
      "stateMutability": "view",
      "type": "function"
    },
    {
      "inputs": [
        {
          "internalType": "string",
          "name": "",
          "type": "string"
        }
      ],
      "name": "candidatesMap",
      "outputs": [
        {
          "internalType": "string",
          "name": "name",
          "type": "string"
        },
        {
          "internalType": "string",
          "name": "mobileNo",
          "type": "string"
        },
        {
          "internalType": "string",
          "name": "homeAddress",
          "type": "string"
        },
        {
          "internalType": "string",
          "name": "aadharCardNo",
          "type": "string"
        },
        {
          "internalType": "string",
          "name": "voterId",
          "type": "string"
        },
        {
          "internalType": "string",
          "name": "walletKey",
          "type": "string"
        },
        {
          "internalType": "string",
          "name": "politicalParty",
          "type": "string"
        },
        {
          "internalType": "uint256",
          "name": "votes",
          "type": "uint256"
        }
      ],
      "stateMutability": "view",
      "type": "function"
    },
    {
      "inputs": [],
      "name": "e",
      "outputs": [
        {
          "internalType": "string",
          "name": "name",
          "type": "string"
        },
        {
          "internalType": "string",
          "name": "mobileNo",
          "type": "string"
        },
        {
          "internalType": "string",
          "name": "walletKey",
          "type": "string"
        }
      ],
      "stateMutability": "view",
      "type": "function"
    },
    {
      "inputs": [],
      "name": "getCandidates",
      "outputs": [
        {
          "internalType": "string[]",
          "name": "",
          "type": "string[]"
        }
      ],
      "stateMutability": "nonpayable",
      "type": "function"
    },
    {
      "inputs": [],
      "name": "getResults",
      "outputs": [
        {
          "internalType": "string[]",
          "name": "",
          "type": "string[]"
        },
        {
          "internalType": "uint256[]",
          "name": "",
          "type": "uint256[]"
        }
      ],
      "stateMutability": "nonpayable",
      "type": "function"
    },
    {
      "inputs": [
        {
          "internalType": "string",
          "name": "_walletKey",
          "type": "string"
        }
      ],
      "name": "getVoterId",
      "outputs": [
        {
          "internalType": "string",
          "name": "",
          "type": "string"
        }
      ],
      "stateMutability": "nonpayable",
      "type": "function"
    },
    {
      "inputs": [
        {
          "internalType": "string",
          "name": "_voterid",
          "type": "string"
        }
      ],
      "name": "hasVoted",
      "outputs": [
        {
          "internalType": "bool",
          "name": "",
          "type": "bool"
        }
      ],
      "stateMutability": "view",
      "type": "function"
    },
    {
      "inputs": [
        {
          "internalType": "string",
          "name": "_walletKey",
          "type": "string"
        }
      ],
      "name": "isAdminRegistered",
      "outputs": [
        {
          "internalType": "bool",
          "name": "",
          "type": "bool"
        }
      ],
      "stateMutability": "view",
      "type": "function"
    },
    {
      "inputs": [
        {
          "internalType": "string",
          "name": "_walletKey",
          "type": "string"
        }
      ],
      "name": "isCandidateRegistered",
      "outputs": [
        {
          "internalType": "bool",
          "name": "",
          "type": "bool"
        }
      ],
      "stateMutability": "view",
      "type": "function"
    },
    {
      "inputs": [
        {
          "components": [
            {
              "internalType": "string",
              "name": "name",
              "type": "string"
            },
            {
              "internalType": "string",
              "name": "mobileNo",
              "type": "string"
            },
            {
              "internalType": "string",
              "name": "homeAddress",
              "type": "string"
            },
            {
              "internalType": "string",
              "name": "aadharCardNo",
              "type": "string"
            },
            {
              "internalType": "string",
              "name": "voterId",
              "type": "string"
            },
            {
              "internalType": "string",
              "name": "walletKey",
              "type": "string"
            },
            {
              "internalType": "bool",
              "name": "isVoted",
              "type": "bool"
            }
          ],
          "internalType": "struct Voter",
          "name": "item",
          "type": "tuple"
        }
      ],
      "name": "isVoterRegistered",
      "outputs": [
        {
          "internalType": "bool",
          "name": "",
          "type": "bool"
        }
      ],
      "stateMutability": "view",
      "type": "function"
    },
    {
      "inputs": [
        {
          "internalType": "string",
          "name": "",
          "type": "string"
        }
      ],
      "name": "map_voterid_details",
      "outputs": [
        {
          "internalType": "string",
          "name": "name",
          "type": "string"
        },
        {
          "internalType": "string",
          "name": "mobileNo",
          "type": "string"
        },
        {
          "internalType": "string",
          "name": "homeAddress",
          "type": "string"
        },
        {
          "internalType": "string",
          "name": "aadharCardNo",
          "type": "string"
        },
        {
          "internalType": "string",
          "name": "voterId",
          "type": "string"
        },
        {
          "internalType": "string",
          "name": "walletKey",
          "type": "string"
        },
        {
          "internalType": "bool",
          "name": "isVoted",
          "type": "bool"
        }
      ],
      "stateMutability": "view",
      "type": "function"
    },
    {
      "inputs": [
        {
          "internalType": "string",
          "name": "",
          "type": "string"
        }
      ],
      "name": "map_walletKey_voterid",
      "outputs": [
        {
          "internalType": "string",
          "name": "",
          "type": "string"
        }
      ],
      "stateMutability": "view",
      "type": "function"
    },
    {
      "inputs": [
        {
          "internalType": "string",
          "name": "_voterid",
          "type": "string"
        },
        {
          "components": [
            {
              "internalType": "string",
              "name": "name",
              "type": "string"
            },
            {
              "internalType": "string",
              "name": "mobileNo",
              "type": "string"
            },
            {
              "internalType": "string",
              "name": "homeAddress",
              "type": "string"
            },
            {
              "internalType": "string",
              "name": "aadharCardNo",
              "type": "string"
            },
            {
              "internalType": "string",
              "name": "voterId",
              "type": "string"
            },
            {
              "internalType": "string",
              "name": "walletKey",
              "type": "string"
            },
            {
              "internalType": "bool",
              "name": "isVoted",
              "type": "bool"
            }
          ],
          "internalType": "struct Voter",
          "name": "v",
          "type": "tuple"
        }
      ],
      "name": "setMapVoterDetails",
      "outputs": [],
      "stateMutability": "nonpayable",
      "type": "function"
    },
    {
      "inputs": [
        {
          "internalType": "string",
          "name": "_voterid",
          "type": "string"
        }
      ],
      "name": "setVoterId",
      "outputs": [],
      "stateMutability": "nonpayable",
      "type": "function"
    },
    {
      "inputs": [
        {
          "internalType": "string",
          "name": "_voterId",
          "type": "string"
        },
        {
          "internalType": "string",
          "name": "_walletKey",
          "type": "string"
        },
        {
          "internalType": "uint256",
          "name": "choice",
          "type": "uint256"
        }
      ],
      "name": "vote",
      "outputs": [
        {
          "internalType": "bool",
          "name": "",
          "type": "bool"
        }
      ],
      "stateMutability": "nonpayable",
      "type": "function"
    },
    {
      "inputs": [
        {
          "internalType": "string",
          "name": "_voterId",
          "type": "string"
        },
        {
          "internalType": "uint256",
          "name": "choice",
          "type": "uint256"
        }
      ],
      "name": "voteThroughAdmin",
      "outputs": [
        {
          "internalType": "bool",
          "name": "",
          "type": "bool"
        }
      ],
      "stateMutability": "nonpayable",
      "type": "function"
    },
    {
      "inputs": [],
      "name": "voterLength",
      "outputs": [
        {
          "internalType": "uint256",
          "name": "",
          "type": "uint256"
        }
      ],
      "stateMutability": "view",
      "type": "function"
    },
    {
      "inputs": [
        {
          "internalType": "uint256",
          "name": "",
          "type": "uint256"
        }
      ],
      "name": "voters",
      "outputs": [
        {
          "internalType": "string",
          "name": "name",
          "type": "string"
        },
        {
          "internalType": "string",
          "name": "mobileNo",
          "type": "string"
        },
        {
          "internalType": "string",
          "name": "homeAddress",
          "type": "string"
        },
        {
          "internalType": "string",
          "name": "aadharCardNo",
          "type": "string"
        },
        {
          "internalType": "string",
          "name": "voterId",
          "type": "string"
        },
        {
          "internalType": "string",
          "name": "walletKey",
          "type": "string"
        },
        {
          "internalType": "bool",
          "name": "isVoted",
          "type": "bool"
        }
      ],
      "stateMutability": "view",
      "type": "function"
    },
    {
      "inputs": [],
      "name": "getECI",
      "outputs": [
        {
          "internalType": "string",
          "name": "",
          "type": "string"
        }
      ],
      "stateMutability": "view",
      "type": "function"
    },
    {
      "inputs": [
        {
          "internalType": "string",
          "name": "_walletKey",
          "type": "string"
        }
      ],
      "name": "authenticateECI",
      "outputs": [
        {
          "internalType": "bool",
          "name": "",
          "type": "bool"
        }
      ],
      "stateMutability": "pure",
      "type": "function"
    },
    {
      "inputs": [
        {
          "internalType": "string",
          "name": "_name",
          "type": "string"
        },
        {
          "internalType": "string",
          "name": "_mobileNo",
          "type": "string"
        },
        {
          "internalType": "string",
          "name": "_walletKey",
          "type": "string"
        }
      ],
      "name": "setAdmin",
      "outputs": [],
      "stateMutability": "nonpayable",
      "type": "function"
    },
    {
      "inputs": [],
      "name": "startVoting",
      "outputs": [],
      "stateMutability": "nonpayable",
      "type": "function"
    },
    {
      "inputs": [],
      "name": "endVoting",
      "outputs": [],
      "stateMutability": "nonpayable",
      "type": "function"
    }
  ],
  "bytecode": "0x60806040526000805560405180602001604052806000815250600190805190602001906200002f92919062000169565b506040518060400160405280600981526020017f707265566f74696e670000000000000000000000000000000000000000000000815250600590805190602001906200007d92919062000169565b503480156200008b57600080fd5b506040518060400160405280600381526020017f4543490000000000000000000000000000000000000000000000000000000000815250600d6000019080519060200190620000dc92919062000169565b506040518060400160405280600a81526020017f3938373635343332313000000000000000000000000000000000000000000000815250600d60010190805190602001906200012d92919062000169565b506040518060600160405280602a8152602001620049f3602a9139600d60020190805190602001906200016292919062000169565b506200027d565b828054620001779062000248565b90600052602060002090601f0160209004810192826200019b5760008555620001e7565b82601f10620001b657805160ff1916838001178555620001e7565b82800160010185558215620001e7579182015b82811115620001e6578251825591602001919060010190620001c9565b5b509050620001f69190620001fa565b5090565b5b8082111562000215576000816000905550600101620001fb565b5090565b7f4e487b7100000000000000000000000000000000000000000000000000000000600052602260045260246000fd5b600060028204905060018216806200026157607f821691505b60208210810362000277576200027662000219565b5b50919050565b614766806200028d6000396000f3fe608060405234801561001057600080fd5b506004361061021c5760003560e01c8063648a305a11610125578063bea48894116100ad578063eb03cd221161007c578063eb03cd22146106d7578063f372514614610707578063f6249c041461073e578063fe06e0871461076e578063ffae15ba1461079e5761021c565b8063bea4889414610635578063c3403ddf14610665578063c38c5b231461066f578063da58c7d9146106a15761021c565b80639c0585b0116100f45780639c0585b014610553578063a69945fb14610583578063a7d27b03146105b3578063aebd20f0146105cf578063b1496cd4146106055761021c565b8063648a305a146104b75780637820d384146104e75780637a4c96ad1461050557806398f15870146105355761021c565b80634717f97c116101a85780635097086f116101775780635097086f146103ed57806351b090651461041d578063565e802a1461044d5780635982f6101461047d57806361e221e41461049b5761021c565b80634717f97c146103665780634784d0181461038557806348c82952146103a15780634fbe75c1146103bd5761021c565b806322d2ee01116101ef57806322d2ee01146102975780632ec66043146102b35780633477ee2e146102e357806339bfeae31461031a578063455ab5881461034a5761021c565b806306a49fce1461022157806314bfd6d01461023f5780631ec6b60a146102715780632054449e1461027b575b600080fd5b6102296107be565b604051610236919061373a565b60405180910390f35b610259600480360381019061025491906137a6565b61091f565b6040516102689392919061381d565b60405180910390f35b610279610af1565b005b61029560048036038101906102909190613a60565b610b3f565b005b6102b160048036038101906102ac9190613c66565b610bbc565b005b6102cd60048036038101906102c89190613cde565b610cb7565b6040516102da9190613d27565b60405180910390f35b6102fd60048036038101906102f891906137a6565b610d6d565b604051610311989796959493929190613d58565b60405180910390f35b610334600480360381019061032f9190613cde565b61117d565b6040516103419190613e22565b60405180910390f35b610364600480360381019061035f9190613e3d565b6111b5565b005b61036e6113a0565b60405161037c929190613f44565b60405180910390f35b61039f600480360381019061039a9190613f7b565b611679565b005b6103bb60048036038101906103b691906141aa565b6116a7565b005b6103d760048036038101906103d29190614222565b6117d6565b6040516103e49190613e22565b60405180910390f35b6104076004803603810190610402919061426b565b611860565b6040516104149190613e22565b60405180910390f35b610437600480360381019061043291906137a6565b611a41565b6040516104449190613d27565b60405180910390f35b61046760048036038101906104629190613cde565b611aed565b6040516104749190613e22565b60405180910390f35b610485611b73565b60405161049291906142c7565b60405180910390f35b6104b560048036038101906104b091906142e2565b611b80565b005b6104d160048036038101906104cc91906137a6565b611cfc565b6040516104de9190613d27565b60405180910390f35b6104ef611da8565b6040516104fc91906142c7565b60405180910390f35b61051f600480360381019061051a919061432b565b611db5565b60405161052c9190613e22565b60405180910390f35b61053d612058565b60405161054a9190613d27565b60405180910390f35b61056d60048036038101906105689190613cde565b6120ed565b60405161057a9190613e22565b60405180910390f35b61059d60048036038101906105989190613cde565b612173565b6040516105aa9190613e22565b60405180910390f35b6105cd60048036038101906105c89190613cde565b612196565b005b6105e960048036038101906105e49190613cde565b6121b0565b6040516105fc97969594939291906143b6565b60405180910390f35b61061f600480360381019061061a919061444f565b612545565b60405161062c9190613e22565b60405180910390f35b61064f600480360381019061064a91906137a6565b6125ae565b60405161065c91906142c7565b60405180910390f35b61066d6125d2565b005b61068960048036038101906106849190613cde565b612620565b6040516106989392919061381d565b60405180910390f35b6106bb60048036038101906106b691906137a6565b6127f8565b6040516106ce97969594939291906143b6565b60405180910390f35b6106f160048036038101906106ec9190613cde565b612b87565b6040516106fe9190613e22565b60405180910390f35b610721600480360381019061071c9190613cde565b612bc3565b604051610735989796959493929190613d58565b60405180910390f35b61075860048036038101906107539190613cde565b612fd9565b6040516107659190613d27565b60405180910390f35b61078860048036038101906107839190614222565b6130a5565b6040516107959190613d27565b60405180910390f35b6107a66132ff565b6040516107b59392919061381d565b60405180910390f35b606060005b60048054905081101561084757600a600482815481106107e6576107e56144c7565b5b90600052602060002090600802016000019080600181540180825580915050600190039060005260206000200160009091909190915090805461082890614525565b6108339291906134af565b50808061083f90614585565b9150506107c3565b50600a805480602002602001604051908101604052809291908181526020016000905b8282101561091657838290600052602060002001805461088990614525565b80601f01602080910402602001604051908101604052809291908181526020018280546108b590614525565b80156109025780601f106108d757610100808354040283529160200191610902565b820191906000526020600020905b8154815290600101906020018083116108e557829003601f168201915b50505050508152602001906001019061086a565b50505050905090565b6003818154811061092f57600080fd5b906000526020600020906003020160009150905080600001805461095290614525565b80601f016020809104026020016040519081016040528092919081815260200182805461097e90614525565b80156109cb5780601f106109a0576101008083540402835291602001916109cb565b820191906000526020600020905b8154815290600101906020018083116109ae57829003601f168201915b5050505050908060010180546109e090614525565b80601f0160208091040260200160405190810160405280929190818152602001828054610a0c90614525565b8015610a595780601f10610a2e57610100808354040283529160200191610a59565b820191906000526020600020905b815481529060010190602001808311610a3c57829003601f168201915b505050505090806002018054610a6e90614525565b80601f0160208091040260200160405190810160405280929190818152602001828054610a9a90614525565b8015610ae75780601f10610abc57610100808354040283529160200191610ae7565b820191906000526020600020905b815481529060010190602001808311610aca57829003601f168201915b5050505050905083565b6040518060400160405280600681526020017f566f74696e67000000000000000000000000000000000000000000000000000081525060059080519060200190610b3c92919061353c565b50565b80600883604051610b509190614609565b90815260200160405180910390206000820151816000019080519060200190610b7a92919061353c565b506020820151816001019080519060200190610b9792919061353c565b506040820151816002019080519060200190610bb492919061353c565b509050505050565b80600983604051610bcd9190614609565b90815260200160405180910390206000820151816000019080519060200190610bf792919061353c565b506020820151816001019080519060200190610c1492919061353c565b506040820151816002019080519060200190610c3192919061353c565b506060820151816003019080519060200190610c4e92919061353c565b506080820151816004019080519060200190610c6b92919061353c565b5060a0820151816005019080519060200190610c8892919061353c565b5060c0820151816006019080519060200190610ca592919061353c565b5060e082015181600701559050505050565b6006818051602081018201805184825260208301602085012081835280955050505050506000915090508054610cec90614525565b80601f0160208091040260200160405190810160405280929190818152602001828054610d1890614525565b8015610d655780601f10610d3a57610100808354040283529160200191610d65565b820191906000526020600020905b815481529060010190602001808311610d4857829003601f168201915b505050505081565b60048181548110610d7d57600080fd5b9060005260206000209060080201600091509050806000018054610da090614525565b80601f0160208091040260200160405190810160405280929190818152602001828054610dcc90614525565b8015610e195780601f10610dee57610100808354040283529160200191610e19565b820191906000526020600020905b815481529060010190602001808311610dfc57829003601f168201915b505050505090806001018054610e2e90614525565b80601f0160208091040260200160405190810160405280929190818152602001828054610e5a90614525565b8015610ea75780601f10610e7c57610100808354040283529160200191610ea7565b820191906000526020600020905b815481529060010190602001808311610e8a57829003601f168201915b505050505090806002018054610ebc90614525565b80601f0160208091040260200160405190810160405280929190818152602001828054610ee890614525565b8015610f355780601f10610f0a57610100808354040283529160200191610f35565b820191906000526020600020905b815481529060010190602001808311610f1857829003601f168201915b505050505090806003018054610f4a90614525565b80601f0160208091040260200160405190810160405280929190818152602001828054610f7690614525565b8015610fc35780601f10610f9857610100808354040283529160200191610fc3565b820191906000526020600020905b815481529060010190602001808311610fa657829003601f168201915b505050505090806004018054610fd890614525565b80601f016020809104026020016040519081016040528092919081815260200182805461100490614525565b80156110515780601f1061102657610100808354040283529160200191611051565b820191906000526020600020905b81548152906001019060200180831161103457829003601f168201915b50505050509080600501805461106690614525565b80601f016020809104026020016040519081016040528092919081815260200182805461109290614525565b80156110df5780601f106110b4576101008083540402835291602001916110df565b820191906000526020600020905b8154815290600101906020018083116110c257829003601f168201915b5050505050908060060180546110f490614525565b80601f016020809104026020016040519081016040528092919081815260200182805461112090614525565b801561116d5780601f106111425761010080835404028352916020019161116d565b820191906000526020600020905b81548152906001019060200180831161115057829003601f168201915b5050505050908060070154905088565b600060078260405161118f9190614609565b908152602001604051809103902060060160009054906101000a900460ff169050919050565b6111c28160a00151611aed565b1580156112945750611293600580546111da90614525565b80601f016020809104026020016040519081016040528092919081815260200182805461120690614525565b80156112535780601f1061122857610100808354040283529160200191611253565b820191906000526020600020905b81548152906001019060200180831161123657829003601f168201915b50505050506040518060400160405280600981526020017f707265566f74696e670000000000000000000000000000000000000000000000815250612545565b5b1561139d57600481908060018154018082558091505060019003906000526020600020906008020160009091909190915060008201518160000190805190602001906112e192919061353c565b5060208201518160010190805190602001906112fe92919061353c565b50604082015181600201908051906020019061131b92919061353c565b50606082015181600301908051906020019061133892919061353c565b50608082015181600401908051906020019061135592919061353c565b5060a082015181600501908051906020019061137292919061353c565b5060c082015181600601908051906020019061138f92919061353c565b5060e0820151816007015550505b50565b60608061146c600580546113b390614525565b80601f01602080910402602001604051908101604052809291908181526020018280546113df90614525565b801561142c5780601f106114015761010080835404028352916020019161142c565b820191906000526020600020905b81548152906001019060200180831161140f57829003601f168201915b50505050506040518060400160405280600681526020017f526573756c740000000000000000000000000000000000000000000000000000815250612545565b156115485760005b60048054905081101561154657600b60048281548110611497576114966144c7565b5b9060005260206000209060080201600001908060018154018082558091505060019003906000526020600020016000909190919091509080546114d990614525565b6114e49291906134af565b50600c600482815481106114fb576114fa6144c7565b5b9060005260206000209060080201600701549080600181540180825580915050600190039060005260206000200160009091909190915055808061153e90614585565b915050611474565b505b600b600c81805480602002602001604051908101604052809291908181526020016000905b8282101561161957838290600052602060002001805461158c90614525565b80601f01602080910402602001604051908101604052809291908181526020018280546115b890614525565b80156116055780601f106115da57610100808354040283529160200191611605565b820191906000526020600020905b8154815290600101906020018083116115e857829003601f168201915b50505050508152602001906001019061156d565b5050505091508080548060200260200160405190810160405280929190818152602001828054801561166a57602002820191906000526020600020905b815481526020019060010190808311611656575b50505050509050915091509091565b600060405180606001604052808581526020018481526020018381525090506116a181611b80565b50505050565b806007836040516116b89190614609565b908152602001604051809103902060008201518160000190805190602001906116e292919061353c565b5060208201518160010190805190602001906116ff92919061353c565b50604082015181600201908051906020019061171c92919061353c565b50606082015181600301908051906020019061173992919061353c565b50608082015181600401908051906020019061175692919061353c565b5060a082015181600501908051906020019061177392919061353c565b5060c08201518160060160006101000a81548160ff021916908315150217905550905050806080015160068260a001516040516117b09190614609565b908152602001604051809103902090805190602001906117d192919061353c565b505050565b60006040516020016117e790614646565b60405160208183030381529060405280519060200120600783608001516040516118119190614609565b908152602001604051809103902060000160405160200161183291906146ef565b6040516020818303038152906040528051906020012014611856576001905061185b565b600090505b919050565b60006007836040516118729190614609565b908152602001604051809103902060060160009054906101000a900460ff16611a3657600482815481106118a9576118a86144c7565b5b906000526020600020906008020160070160008154809291906118cb90614585565b919050555060016007846040516118e29190614609565b908152602001604051809103902060060160006101000a81548160ff02191690831515021790555060005b600280549050811015611a2c576119d160028281548110611931576119306144c7565b5b9060005260206000209060070201600401805461194d90614525565b80601f016020809104026020016040519081016040528092919081815260200182805461197990614525565b80156119c65780601f1061199b576101008083540402835291602001916119c6565b820191906000526020600020905b8154815290600101906020018083116119a957829003601f168201915b505050505085612545565b15611a19576001600282815481106119ec576119eb6144c7565b5b906000526020600020906007020160060160006101000a81548160ff021916908315150217905550611a2c565b8080611a2490614585565b91505061190d565b5060019050611a3b565b600090505b92915050565b600a8181548110611a5157600080fd5b906000526020600020016000915090508054611a6c90614525565b80601f0160208091040260200160405190810160405280929190818152602001828054611a9890614525565b8015611ae55780601f10611aba57610100808354040283529160200191611ae5565b820191906000526020600020905b815481529060010190602001808311611ac857829003601f168201915b505050505081565b6000604051602001611afe90614646565b60405160208183030381529060405280519060200120600983604051611b249190614609565b9081526020016040518091039020600001604051602001611b4591906146ef565b6040516020818303038152906040528051906020012014611b695760019050611b6e565b600090505b919050565b6000600380549050905090565b611b8d81604001516120ed565b158015611c605750611c5e60058054611ba590614525565b80601f0160208091040260200160405190810160405280929190818152602001828054611bd190614525565b8015611c1e5780601f10611bf357610100808354040283529160200191611c1e565b820191906000526020600020905b815481529060010190602001808311611c0157829003601f168201915b50505050506040518060400160405280600681526020017f526573756c740000000000000000000000000000000000000000000000000000815250612545565b155b15611cf95760038190806001815401808255809150506001900390600052602060002090600302016000909190919091506000820151816000019080519060200190611cad92919061353c565b506020820151816001019080519060200190611cca92919061353c565b506040820151816002019080519060200190611ce792919061353c565b505050611cf8816040015182610b3f565b5b50565b600b8181548110611d0c57600080fd5b906000526020600020016000915090508054611d2790614525565b80601f0160208091040260200160405190810160405280929190818152602001828054611d5390614525565b8015611da05780601f10611d7557610100808354040283529160200191611da0565b820191906000526020600020905b815481529060010190602001808311611d8357829003601f168201915b505050505081565b6000600280549050905090565b6000611e6a600785604051611dca9190614609565b90815260200160405180910390206005018054611de690614525565b80601f0160208091040260200160405190810160405280929190818152602001828054611e1290614525565b8015611e5f5780601f10611e3457610100808354040283529160200191611e5f565b820191906000526020600020905b815481529060010190602001808311611e4257829003601f168201915b505050505084612545565b1561204c57600784604051611e7f9190614609565b908152602001604051809103902060060160009054906101000a900460ff166120435760048281548110611eb657611eb56144c7565b5b90600052602060002090600802016007016000815480929190611ed890614585565b91905055506001600785604051611eef9190614609565b908152602001604051809103902060060160006101000a81548160ff02191690831515021790555060005b60028054905081101561203957611fde60028281548110611f3e57611f3d6144c7565b5b90600052602060002090600702016004018054611f5a90614525565b80601f0160208091040260200160405190810160405280929190818152602001828054611f8690614525565b8015611fd35780601f10611fa857610100808354040283529160200191611fd3565b820191906000526020600020905b815481529060010190602001808311611fb657829003601f168201915b505050505086612545565b1561202657600160028281548110611ff957611ff86144c7565b5b906000526020600020906007020160060160006101000a81548160ff021916908315150217905550612039565b808061203190614585565b915050611f1a565b5060019050612051565b60009050612051565b600090505b9392505050565b6060600d600201805461206a90614525565b80601f016020809104026020016040519081016040528092919081815260200182805461209690614525565b80156120e35780601f106120b8576101008083540402835291602001916120e3565b820191906000526020600020905b8154815290600101906020018083116120c657829003601f168201915b5050505050905090565b60006040516020016120fe90614646565b604051602081830303815290604052805190602001206008836040516121249190614609565b908152602001604051809103902060000160405160200161214591906146ef565b6040516020818303038152906040528051906020012014612169576001905061216e565b600090505b919050565b600061217e826120ed565b1561218c5760019050612191565b600090505b919050565b80600190805190602001906121ac92919061353c565b5050565b6007818051602081018201805184825260208301602085012081835280955050505050506000915090508060000180546121e990614525565b80601f016020809104026020016040519081016040528092919081815260200182805461221590614525565b80156122625780601f1061223757610100808354040283529160200191612262565b820191906000526020600020905b81548152906001019060200180831161224557829003601f168201915b50505050509080600101805461227790614525565b80601f01602080910402602001604051908101604052809291908181526020018280546122a390614525565b80156122f05780601f106122c5576101008083540402835291602001916122f0565b820191906000526020600020905b8154815290600101906020018083116122d357829003601f168201915b50505050509080600201805461230590614525565b80601f016020809104026020016040519081016040528092919081815260200182805461233190614525565b801561237e5780601f106123535761010080835404028352916020019161237e565b820191906000526020600020905b81548152906001019060200180831161236157829003601f168201915b50505050509080600301805461239390614525565b80601f01602080910402602001604051908101604052809291908181526020018280546123bf90614525565b801561240c5780601f106123e15761010080835404028352916020019161240c565b820191906000526020600020905b8154815290600101906020018083116123ef57829003601f168201915b50505050509080600401805461242190614525565b80601f016020809104026020016040519081016040528092919081815260200182805461244d90614525565b801561249a5780601f1061246f5761010080835404028352916020019161249a565b820191906000526020600020905b81548152906001019060200180831161247d57829003601f168201915b5050505050908060050180546124af90614525565b80601f01602080910402602001604051908101604052809291908181526020018280546124db90614525565b80156125285780601f106124fd57610100808354040283529160200191612528565b820191906000526020600020905b81548152906001019060200180831161250b57829003601f168201915b5050505050908060060160009054906101000a900460ff16905087565b6000816040516020016125589190614609565b604051602081830303815290604052805190602001208360405160200161257f9190614609565b60405160208183030381529060405280519060200120036125a357600190506125a8565b600090505b92915050565b600c81815481106125be57600080fd5b906000526020600020016000915090505481565b6040518060400160405280600681526020017f526573756c7400000000000000000000000000000000000000000000000000008152506005908051906020019061261d92919061353c565b50565b60088180516020810182018051848252602083016020850120818352809550505050505060009150905080600001805461265990614525565b80601f016020809104026020016040519081016040528092919081815260200182805461268590614525565b80156126d25780601f106126a7576101008083540402835291602001916126d2565b820191906000526020600020905b8154815290600101906020018083116126b557829003601f168201915b5050505050908060010180546126e790614525565b80601f016020809104026020016040519081016040528092919081815260200182805461271390614525565b80156127605780601f1061273557610100808354040283529160200191612760565b820191906000526020600020905b81548152906001019060200180831161274357829003601f168201915b50505050509080600201805461277590614525565b80601f01602080910402602001604051908101604052809291908181526020018280546127a190614525565b80156127ee5780601f106127c3576101008083540402835291602001916127ee565b820191906000526020600020905b8154815290600101906020018083116127d157829003601f168201915b5050505050905083565b6002818154811061280857600080fd5b906000526020600020906007020160009150905080600001805461282b90614525565b80601f016020809104026020016040519081016040528092919081815260200182805461285790614525565b80156128a45780601f10612879576101008083540402835291602001916128a4565b820191906000526020600020905b81548152906001019060200180831161288757829003601f168201915b5050505050908060010180546128b990614525565b80601f01602080910402602001604051908101604052809291908181526020018280546128e590614525565b80156129325780601f1061290757610100808354040283529160200191612932565b820191906000526020600020905b81548152906001019060200180831161291557829003601f168201915b50505050509080600201805461294790614525565b80601f016020809104026020016040519081016040528092919081815260200182805461297390614525565b80156129c05780601f10612995576101008083540402835291602001916129c0565b820191906000526020600020905b8154815290600101906020018083116129a357829003601f168201915b5050505050908060030180546129d590614525565b80601f0160208091040260200160405190810160405280929190818152602001828054612a0190614525565b8015612a4e5780601f10612a2357610100808354040283529160200191612a4e565b820191906000526020600020905b815481529060010190602001808311612a3157829003601f168201915b505050505090806004018054612a6390614525565b80601f0160208091040260200160405190810160405280929190818152602001828054612a8f90614525565b8015612adc5780601f10612ab157610100808354040283529160200191612adc565b820191906000526020600020905b815481529060010190602001808311612abf57829003601f168201915b505050505090806005018054612af190614525565b80601f0160208091040260200160405190810160405280929190818152602001828054612b1d90614525565b8015612b6a5780601f10612b3f57610100808354040283529160200191612b6a565b820191906000526020600020905b815481529060010190602001808311612b4d57829003601f168201915b5050505050908060060160009054906101000a900460ff16905087565b6000612bab826040518060600160405280602a8152602001614707602a9139612545565b15612bb95760019050612bbe565b600090505b919050565b600981805160208101820180518482526020830160208501208183528095505050505050600091509050806000018054612bfc90614525565b80601f0160208091040260200160405190810160405280929190818152602001828054612c2890614525565b8015612c755780601f10612c4a57610100808354040283529160200191612c75565b820191906000526020600020905b815481529060010190602001808311612c5857829003601f168201915b505050505090806001018054612c8a90614525565b80601f0160208091040260200160405190810160405280929190818152602001828054612cb690614525565b8015612d035780601f10612cd857610100808354040283529160200191612d03565b820191906000526020600020905b815481529060010190602001808311612ce657829003601f168201915b505050505090806002018054612d1890614525565b80601f0160208091040260200160405190810160405280929190818152602001828054612d4490614525565b8015612d915780601f10612d6657610100808354040283529160200191612d91565b820191906000526020600020905b815481529060010190602001808311612d7457829003601f168201915b505050505090806003018054612da690614525565b80601f0160208091040260200160405190810160405280929190818152602001828054612dd290614525565b8015612e1f5780601f10612df457610100808354040283529160200191612e1f565b820191906000526020600020905b815481529060010190602001808311612e0257829003601f168201915b505050505090806004018054612e3490614525565b80601f0160208091040260200160405190810160405280929190818152602001828054612e6090614525565b8015612ead5780601f10612e8257610100808354040283529160200191612ead565b820191906000526020600020905b815481529060010190602001808311612e9057829003601f168201915b505050505090806005018054612ec290614525565b80601f0160208091040260200160405190810160405280929190818152602001828054612eee90614525565b8015612f3b5780601f10612f1057610100808354040283529160200191612f3b565b820191906000526020600020905b815481529060010190602001808311612f1e57829003601f168201915b505050505090806006018054612f5090614525565b80601f0160208091040260200160405190810160405280929190818152602001828054612f7c90614525565b8015612fc95780601f10612f9e57610100808354040283529160200191612fc9565b820191906000526020600020905b815481529060010190602001808311612fac57829003601f168201915b5050505050908060070154905088565b6060600682604051612feb9190614609565b9081526020016040518091039020600190805461300790614525565b6130129291906134af565b506001805461302090614525565b80601f016020809104026020016040519081016040528092919081815260200182805461304c90614525565b80156130995780601f1061306e57610100808354040283529160200191613099565b820191906000526020600020905b81548152906001019060200180831161307c57829003601f168201915b50505050509050919050565b60606130b0826117d6565b1580156131835750613181600580546130c890614525565b80601f01602080910402602001604051908101604052809291908181526020018280546130f490614525565b80156131415780601f1061311657610100808354040283529160200191613141565b820191906000526020600020905b81548152906001019060200180831161312457829003601f168201915b50505050506040518060400160405280600681526020017f526573756c740000000000000000000000000000000000000000000000000000815250612545565b155b156132c157600282908060018154018082558091505060019003906000526020600020906007020160009091909190915060008201518160000190805190602001906131d092919061353c565b5060208201518160010190805190602001906131ed92919061353c565b50604082015181600201908051906020019061320a92919061353c565b50606082015181600301908051906020019061322792919061353c565b50608082015181600401908051906020019061324492919061353c565b5060a082015181600501908051906020019061326192919061353c565b5060c08201518160060160006101000a81548160ff02191690831515021790555050506040518060400160405280600a81526020017f757365722061646465640000000000000000000000000000000000000000000081525090506132fa565b6040518060400160405280601381526020017f7573657220616c7265616479206578697374730000000000000000000000000081525090505b919050565b600d80600001805461331090614525565b80601f016020809104026020016040519081016040528092919081815260200182805461333c90614525565b80156133895780601f1061335e57610100808354040283529160200191613389565b820191906000526020600020905b81548152906001019060200180831161336c57829003601f168201915b50505050509080600101805461339e90614525565b80601f01602080910402602001604051908101604052809291908181526020018280546133ca90614525565b80156134175780601f106133ec57610100808354040283529160200191613417565b820191906000526020600020905b8154815290600101906020018083116133fa57829003601f168201915b50505050509080600201805461342c90614525565b80601f016020809104026020016040519081016040528092919081815260200182805461345890614525565b80156134a55780601f1061347a576101008083540402835291602001916134a5565b820191906000526020600020905b81548152906001019060200180831161348857829003601f168201915b5050505050905083565b8280546134bb90614525565b90600052602060002090601f0160209004810192826134dd576000855561352b565b82601f106134ee578054855561352b565b8280016001018555821561352b57600052602060002091601f016020900482015b8281111561352a57825482559160010191906001019061350f565b5b50905061353891906135c2565b5090565b82805461354890614525565b90600052602060002090601f01602090048101928261356a57600085556135b1565b82601f1061358357805160ff19168380011785556135b1565b828001600101855582156135b1579182015b828111156135b0578251825591602001919060010190613595565b5b5090506135be91906135c2565b5090565b5b808211156135db5760008160009055506001016135c3565b5090565b600081519050919050565b600082825260208201905092915050565b6000819050602082019050919050565b600081519050919050565b600082825260208201905092915050565b60005b8381101561364557808201518184015260208101905061362a565b83811115613654576000848401525b50505050565b6000601f19601f8301169050919050565b60006136768261360b565b6136808185613616565b9350613690818560208601613627565b6136998161365a565b840191505092915050565b60006136b0838361366b565b905092915050565b6000602082019050919050565b60006136d0826135df565b6136da81856135ea565b9350836020820285016136ec856135fb565b8060005b85811015613728578484038952815161370985826136a4565b9450613714836136b8565b925060208a019950506001810190506136f0565b50829750879550505050505092915050565b6000602082019050818103600083015261375481846136c5565b905092915050565b6000604051905090565b600080fd5b600080fd5b6000819050919050565b61378381613770565b811461378e57600080fd5b50565b6000813590506137a08161377a565b92915050565b6000602082840312156137bc576137bb613766565b5b60006137ca84828501613791565b91505092915050565b600082825260208201905092915050565b60006137ef8261360b565b6137f981856137d3565b9350613809818560208601613627565b6138128161365a565b840191505092915050565b6000606082019050818103600083015261383781866137e4565b9050818103602083015261384b81856137e4565b9050818103604083015261385f81846137e4565b9050949350505050565b600080fd5b600080fd5b7f4e487b7100000000000000000000000000000000000000000000000000000000600052604160045260246000fd5b6138ab8261365a565b810181811067ffffffffffffffff821117156138ca576138c9613873565b5b80604052505050565b60006138dd61375c565b90506138e982826138a2565b919050565b600067ffffffffffffffff82111561390957613908613873565b5b6139128261365a565b9050602081019050919050565b82818337600083830152505050565b600061394161393c846138ee565b6138d3565b90508281526020810184848401111561395d5761395c61386e565b5b61396884828561391f565b509392505050565b600082601f83011261398557613984613869565b5b813561399584826020860161392e565b91505092915050565b600080fd5b600080fd5b6000606082840312156139be576139bd61399e565b5b6139c860606138d3565b9050600082013567ffffffffffffffff8111156139e8576139e76139a3565b5b6139f484828501613970565b600083015250602082013567ffffffffffffffff811115613a1857613a176139a3565b5b613a2484828501613970565b602083015250604082013567ffffffffffffffff811115613a4857613a476139a3565b5b613a5484828501613970565b60408301525092915050565b60008060408385031215613a7757613a76613766565b5b600083013567ffffffffffffffff811115613a9557613a9461376b565b5b613aa185828601613970565b925050602083013567ffffffffffffffff811115613ac257613ac161376b565b5b613ace858286016139a8565b9150509250929050565b60006101008284031215613aef57613aee61399e565b5b613afa6101006138d3565b9050600082013567ffffffffffffffff811115613b1a57613b196139a3565b5b613b2684828501613970565b600083015250602082013567ffffffffffffffff811115613b4a57613b496139a3565b5b613b5684828501613970565b602083015250604082013567ffffffffffffffff811115613b7a57613b796139a3565b5b613b8684828501613970565b604083015250606082013567ffffffffffffffff811115613baa57613ba96139a3565b5b613bb684828501613970565b606083015250608082013567ffffffffffffffff811115613bda57613bd96139a3565b5b613be684828501613970565b60808301525060a082013567ffffffffffffffff811115613c0a57613c096139a3565b5b613c1684828501613970565b60a08301525060c082013567ffffffffffffffff811115613c3a57613c396139a3565b5b613c4684828501613970565b60c08301525060e0613c5a84828501613791565b60e08301525092915050565b60008060408385031215613c7d57613c7c613766565b5b600083013567ffffffffffffffff811115613c9b57613c9a61376b565b5b613ca785828601613970565b925050602083013567ffffffffffffffff811115613cc857613cc761376b565b5b613cd485828601613ad8565b9150509250929050565b600060208284031215613cf457613cf3613766565b5b600082013567ffffffffffffffff811115613d1257613d1161376b565b5b613d1e84828501613970565b91505092915050565b60006020820190508181036000830152613d4181846137e4565b905092915050565b613d5281613770565b82525050565b6000610100820190508181036000830152613d73818b6137e4565b90508181036020830152613d87818a6137e4565b90508181036040830152613d9b81896137e4565b90508181036060830152613daf81886137e4565b90508181036080830152613dc381876137e4565b905081810360a0830152613dd781866137e4565b905081810360c0830152613deb81856137e4565b9050613dfa60e0830184613d49565b9998505050505050505050565b60008115159050919050565b613e1c81613e07565b82525050565b6000602082019050613e376000830184613e13565b92915050565b600060208284031215613e5357613e52613766565b5b600082013567ffffffffffffffff811115613e7157613e7061376b565b5b613e7d84828501613ad8565b91505092915050565b600081519050919050565b600082825260208201905092915050565b6000819050602082019050919050565b613ebb81613770565b82525050565b6000613ecd8383613eb2565b60208301905092915050565b6000602082019050919050565b6000613ef182613e86565b613efb8185613e91565b9350613f0683613ea2565b8060005b83811015613f37578151613f1e8882613ec1565b9750613f2983613ed9565b925050600181019050613f0a565b5085935050505092915050565b60006040820190508181036000830152613f5e81856136c5565b90508181036020830152613f728184613ee6565b90509392505050565b600080600060608486031215613f9457613f93613766565b5b600084013567ffffffffffffffff811115613fb257613fb161376b565b5b613fbe86828701613970565b935050602084013567ffffffffffffffff811115613fdf57613fde61376b565b5b613feb86828701613970565b925050604084013567ffffffffffffffff81111561400c5761400b61376b565b5b61401886828701613970565b9150509250925092565b61402b81613e07565b811461403657600080fd5b50565b60008135905061404881614022565b92915050565b600060e082840312156140645761406361399e565b5b61406e60e06138d3565b9050600082013567ffffffffffffffff81111561408e5761408d6139a3565b5b61409a84828501613970565b600083015250602082013567ffffffffffffffff8111156140be576140bd6139a3565b5b6140ca84828501613970565b602083015250604082013567ffffffffffffffff8111156140ee576140ed6139a3565b5b6140fa84828501613970565b604083015250606082013567ffffffffffffffff81111561411e5761411d6139a3565b5b61412a84828501613970565b606083015250608082013567ffffffffffffffff81111561414e5761414d6139a3565b5b61415a84828501613970565b60808301525060a082013567ffffffffffffffff81111561417e5761417d6139a3565b5b61418a84828501613970565b60a08301525060c061419e84828501614039565b60c08301525092915050565b600080604083850312156141c1576141c0613766565b5b600083013567ffffffffffffffff8111156141df576141de61376b565b5b6141eb85828601613970565b925050602083013567ffffffffffffffff81111561420c5761420b61376b565b5b6142188582860161404e565b9150509250929050565b60006020828403121561423857614237613766565b5b600082013567ffffffffffffffff8111156142565761425561376b565b5b6142628482850161404e565b91505092915050565b6000806040838503121561428257614281613766565b5b600083013567ffffffffffffffff8111156142a05761429f61376b565b5b6142ac85828601613970565b92505060206142bd85828601613791565b9150509250929050565b60006020820190506142dc6000830184613d49565b92915050565b6000602082840312156142f8576142f7613766565b5b600082013567ffffffffffffffff8111156143165761431561376b565b5b614322848285016139a8565b91505092915050565b60008060006060848603121561434457614343613766565b5b600084013567ffffffffffffffff8111156143625761436161376b565b5b61436e86828701613970565b935050602084013567ffffffffffffffff81111561438f5761438e61376b565b5b61439b86828701613970565b92505060406143ac86828701613791565b9150509250925092565b600060e08201905081810360008301526143d0818a6137e4565b905081810360208301526143e481896137e4565b905081810360408301526143f881886137e4565b9050818103606083015261440c81876137e4565b9050818103608083015261442081866137e4565b905081810360a083015261443481856137e4565b905061444360c0830184613e13565b98975050505050505050565b6000806040838503121561446657614465613766565b5b600083013567ffffffffffffffff8111156144845761448361376b565b5b61449085828601613970565b925050602083013567ffffffffffffffff8111156144b1576144b061376b565b5b6144bd85828601613970565b9150509250929050565b7f4e487b7100000000000000000000000000000000000000000000000000000000600052603260045260246000fd5b7f4e487b7100000000000000000000000000000000000000000000000000000000600052602260045260246000fd5b6000600282049050600182168061453d57607f821691505b6020821081036145505761454f6144f6565b5b50919050565b7f4e487b7100000000000000000000000000000000000000000000000000000000600052601160045260246000fd5b600061459082613770565b91507fffffffffffffffffffffffffffffffffffffffffffffffffffffffffffffffff82036145c2576145c1614556565b5b600182019050919050565b600081905092915050565b60006145e38261360b565b6145ed81856145cd565b93506145fd818560208601613627565b80840191505092915050565b600061461582846145d8565b915081905092915050565b50565b60006146306000836145cd565b915061463b82614620565b600082019050919050565b600061465182614623565b9150819050919050565b60008190508160005260206000209050919050565b6000815461467d81614525565b61468781866145cd565b945060018216600081146146a257600181146146b3576146e6565b60ff198316865281860193506146e6565b6146bc8561465b565b60005b838110156146de578154818901526001820191506020810190506146bf565b838801955050505b50505092915050565b60006146fb8284614670565b91508190509291505056fe307830666439306141353663614632426466394561353738333665323437393966343933363146313566a26469706673582212206ef84c27928441d8148058e832ae44a1691899f3078caf11b5a2f25e91d0a83a64736f6c634300080d0033307830666439306141353663614632426466394561353738333665323437393966343933363146313566",
  "immutableReferences": {},
  "source": "// SPDX-License-Identifier: MIT\r\npragma solidity ^0.8.10;\r\npragma experimental ABIEncoderV2;\r\n\r\nstruct Admin {\r\n    string name;\r\n    string mobileNo;\r\n    string walletKey;\r\n}\r\n\r\nstruct ECI {\r\n    string name;\r\n    string mobileNo;\r\n    string walletKey;\r\n}\r\n\r\nstruct Voter {\r\n    string name;\r\n    string mobileNo;\r\n    string homeAddress;\r\n    string aadharCardNo;\r\n    string voterId;\r\n    string walletKey;\r\n    bool isVoted;\r\n}\r\n\r\nstruct Candidate {\r\n    string name;\r\n    string mobileNo;\r\n    string homeAddress;\r\n    string aadharCardNo;\r\n    string voterId;\r\n    string walletKey;\r\n    string politicalParty;\r\n    uint256 votes;\r\n}\r\n\r\ncontract BlockVote {\r\n    uint transactionHelper = 0;\r\n    string voterId_main=\"\";\r\n    Voter[] public voters;\r\n    Admin[] public admins;\r\n    Candidate[] public candidates;\r\n    string votingPhase = \"preVoting\"; // Voting, Result\r\n\r\n    function areStringsEqual(string memory s1, string memory s2) public pure returns(bool){\r\n        if(keccak256(abi.encodePacked(s1)) == keccak256(abi.encodePacked((s2)))) return true;\r\n        else return false;\r\n    }\r\n    \r\n    // walletKey : voterId\r\n    mapping(string=>string) public map_walletKey_voterid;\r\n\r\n    // voterid : Voter;\r\n    mapping(string=>Voter) public map_voterid_details;\r\n    function setMapVoterDetails(string memory _voterid, Voter memory v) public {\r\n        map_voterid_details[_voterid] = v;\r\n        map_walletKey_voterid[v.walletKey] = v.voterId;\r\n    }\r\n\r\n    function hasVoted(string memory _voterid) public view returns(bool){\r\n        return map_voterid_details[_voterid].isVoted;\r\n    }\r\n\r\n    // Voter ////////////////////////////////////////// \r\n    function isVoterRegistered(Voter memory item) public view returns(bool) {\r\n        if(keccak256(abi.encodePacked((map_voterid_details[item.voterId].name))) != keccak256(abi.encodePacked((\"\")))) return true;\r\n        else return false;\r\n    }\r\n    function addVoter(Voter memory item) public returns(string memory) {\r\n        if(!isVoterRegistered(item) && !areStringsEqual(votingPhase,\"Result\")) {\r\n            voters.push(item);\r\n            return \"user added\";\r\n        }\r\n        else return \"user already exists\";\r\n            \r\n    }\r\n\r\n    function getVoterId(string memory _walletKey) public returns(string memory) {\r\n        voterId_main = map_walletKey_voterid[_walletKey];\r\n        return voterId_main;\r\n    }\r\n\r\n    function setVoterId(string memory _voterid) public {\r\n        voterId_main = _voterid;\r\n    }\r\n\r\n    function voterLength() public view returns(uint) {\r\n        return voters.length;\r\n    }\r\n    /////////////////////////////////////////////////\r\n\r\n    // Admin /////////////////////////////////////////\r\n    \r\n    function addAdmin(Admin memory item) public {\r\n        if(!isAdminRegistered(item.walletKey) && !areStringsEqual(votingPhase,\"Result\")){\r\n            admins.push(item);\r\n            addToAdminsMap(item.walletKey, item);\r\n        }\r\n    }\r\n\r\n    mapping(string=>Admin) public adminsMap;\r\n    function addToAdminsMap(string memory walletKey, Admin memory a) public {\r\n        adminsMap[walletKey] = a;\r\n    }\r\n\r\n    function isAdminRegistered(string memory _walletKey) public view returns(bool){\r\n        if(keccak256(abi.encodePacked((adminsMap[_walletKey].name))) != keccak256(abi.encodePacked((\"\")))) return true;\r\n        else return false;\r\n    }\r\n\r\n    function authenticateAdmin(string memory _walletKey) public view returns(bool){\r\n        if(isAdminRegistered(_walletKey)) return true;\r\n        else return false;\r\n    }\r\n\r\n    function adminLength() public view returns(uint) {\r\n        return admins.length;\r\n    }\r\n    ////////////////////////////////////////////////////\r\n\r\n\r\n    // Candidate ///////////////////////////////////////\r\n\r\n    function isCandidateRegistered(string memory _walletKey) public view returns(bool){\r\n        if(keccak256(abi.encodePacked((candidatesMap[_walletKey].name))) != keccak256(abi.encodePacked((\"\")))) return true;\r\n        else return false;\r\n    }\r\n\r\n    function addCandidate(Candidate memory item) public {\r\n        if(!isCandidateRegistered(item.walletKey) && areStringsEqual(votingPhase,\"preVoting\"))\r\n            candidates.push(item);\r\n    }\r\n\r\n    mapping(string=>Candidate) public candidatesMap;\r\n    function addToCandidatesMap(string memory walletKey, Candidate memory c) public {\r\n        candidatesMap[walletKey] = c;\r\n    }\r\n    string[] public candidate_names;\r\n    function getCandidates() public returns(string[] memory) {\r\n        for(uint256 i=0;i<candidates.length;i++) {\r\n        candidate_names.push(candidates[i].name);\r\n        }\r\n        return candidate_names;\r\n    }\r\n\r\n    ////////////////////////////////////////////////////\r\n\r\n\r\n    // Results ////////////////////////////////////////////////////////\r\n    /* returns (candidates, votes), receives object with 2 keys (0 : candidates array, 1 : votes array)\r\n    */\r\n    string[] public _candidates;\r\n    uint256[] public _votes;\r\n    function getResults() public returns(string[] memory, uint256[] memory) {\r\n        if(areStringsEqual(votingPhase, \"Result\")){\r\n            for(uint256 i=0;i<candidates.length;i++) {\r\n                _candidates.push(candidates[i].name);\r\n                _votes.push(candidates[i].votes);\r\n            }    \r\n        }\r\n        return (_candidates, _votes);\r\n    }\r\n    ////////////////////////////////////////////////////////////////////\r\n    // Vote /////////////////////////////////////////////////////////////\r\n    function vote(string memory _voterId, string memory _walletKey, uint256 choice) public returns(bool) {\r\n        if(areStringsEqual(map_voterid_details[_voterId].walletKey, _walletKey)) {\r\n            if(!map_voterid_details[_voterId].isVoted) {\r\n                candidates[choice].votes++;\r\n                map_voterid_details[_voterId].isVoted = true;\r\n                for(uint256 i=0;i<voters.length;i++) {\r\n                    if(areStringsEqual(voters[i].voterId, _voterId)){\r\n                        voters[i].isVoted = true;\r\n                        break;\r\n                    }\r\n                }\r\n                return true;\r\n            }\r\n            return false;\r\n        }\r\n        return false;\r\n    }\r\n\r\n    function voteThroughAdmin(string memory _voterId, uint256 choice) public returns(bool) {\r\n        if(!map_voterid_details[_voterId].isVoted) {\r\n            candidates[choice].votes++;\r\n            map_voterid_details[_voterId].isVoted = true;\r\n            for(uint256 i=0;i<voters.length;i++) {\r\n                if(areStringsEqual(voters[i].voterId, _voterId)){\r\n                    voters[i].isVoted = true;\r\n                    break;\r\n                }\r\n            }\r\n            return true;\r\n        }\r\n        return false;\r\n    }\r\n\r\n    /////////////////////////////////////////////////////////////////////\r\n}\r\n\r\ncontract AdminCon is BlockVote{\r\n    Admin public a;\r\n\r\n    constructor(string memory _name, string memory _mobileNo, string memory  _walletKey) {\r\n        a.name = _name;\r\n        a.mobileNo = _mobileNo;\r\n        a.walletKey = _walletKey;\r\n        // addAdmin(a);\r\n        // addToAdminsMap(_walletKey,a);\r\n    }\r\n\r\n}\r\n\r\ncontract ECICon is BlockVote {\r\n    Admin public e;\r\n\r\n    constructor() {\r\n        e.name = \"ECI\";\r\n        e.mobileNo = \"9876543210\";\r\n        e.walletKey = \"0x0fd90aA56caF2Bdf9Ea57836e24799f49361F15f\";\r\n    }\r\n\r\n    function getECI() public view returns(string memory) {\r\n       return e.walletKey;\r\n    }\r\n\r\n    function authenticateECI(string memory _walletKey) public pure returns(bool) {\r\n        if(areStringsEqual(_walletKey, \"0x0fd90aA56caF2Bdf9Ea57836e24799f49361F15f\")) return true;\r\n        else return false;\r\n    }\r\n\r\n    function setAdmin(string memory _name, string memory _mobileNo, string memory _walletKey) public {\r\n        Admin memory newAdmin = Admin({\r\n            name:_name, \r\n            mobileNo:_mobileNo,\r\n            walletKey:_walletKey\r\n        });\r\n        addAdmin(newAdmin);\r\n\r\n    }\r\n\r\n    function startVoting() public {\r\n        votingPhase = \"Voting\";\r\n    }\r\n\r\n    function endVoting() public {\r\n        votingPhase = \"Result\";\r\n    }\r\n}\r\n\r\ncontract VoterCon is BlockVote {\r\n    Voter public v;\r\n    \r\n    constructor(string memory _name, string memory _mobileNo, string memory _homeAddress,\r\n     string memory _aadharCardNo, string memory _voterId, string memory _walletKey) {\r\n        v.name = _name;\r\n        v.mobileNo = _mobileNo;\r\n        v.homeAddress = _homeAddress;\r\n        v.aadharCardNo = _aadharCardNo;\r\n        v.voterId = _voterId;\r\n        v.walletKey = _walletKey;\r\n        v.isVoted = false;\r\n        addVoter(v);\r\n        setMapVoterDetails(_voterId, v);\r\n     }\r\n}\r\n\r\ncontract CandidateCon is BlockVote {\r\n    Candidate public c;\r\n\r\n    constructor(string memory _name, string memory _mobileNo, string memory _homeAddress,\r\n     string memory _aadharCardNo, string memory _voterId, string memory _walletKey, string memory _politicalParty) {\r\n        c.name = _name;\r\n        c.mobileNo = _mobileNo;\r\n        c.homeAddress = _homeAddress;\r\n        c.aadharCardNo = _aadharCardNo;\r\n        c.voterId = _voterId;\r\n        c.walletKey = _walletKey;\r\n        c.politicalParty = _politicalParty;\r\n        c.votes = 0;\r\n        addCandidate(c);\r\n        addToCandidatesMap(_walletKey, c);\r\n    }\r\n}\r\n",
  "sourcePath": "D:\\Blockchain-Projects\\BlockVote\\contracts\\BlockVote - Copy.sol",
  "compiler": {
    "name": "solc",
    "version": "0.8.13+commit.abaa5c0e.Emscripten.clang"
  },
  "schemaVersion": "3.4.4",
  "updatedAt": "2022-04-10T08:47:37.657Z",
  "devdoc": {
    "kind": "dev",
    "methods": {},
    "version": 1
  },
  "userdoc": {
    "kind": "user",
    "methods": {},
    "version": 1
  }
}