{
  "contractName": "ECICon",
  "abi": [
    {
      "inputs": [],
      "stateMutability": "nonpayable",
      "type": "constructor"
    },
    {
      "inputs": [
        {
          "internalType": "uint256",
          "name": "",
          "type": "uint256"
        }
      ],
      "name": "_candidates",
      "outputs": [
        {
          "internalType": "string",
          "name": "",
          "type": "string"
        }
      ],
      "stateMutability": "view",
      "type": "function"
    },
    {
      "inputs": [
        {
          "internalType": "uint256",
          "name": "",
          "type": "uint256"
        }
      ],
      "name": "_votes",
      "outputs": [
        {
          "internalType": "uint256",
          "name": "",
          "type": "uint256"
        }
      ],
      "stateMutability": "view",
      "type": "function"
    },
    {
      "inputs": [
        {
          "components": [
            {
              "internalType": "string",
              "name": "name",
              "type": "string"
            },
            {
              "internalType": "string",
              "name": "mobileNo",
              "type": "string"
            },
            {
              "internalType": "string",
              "name": "walletKey",
              "type": "string"
            }
          ],
          "internalType": "struct Admin",
          "name": "item",
          "type": "tuple"
        }
      ],
      "name": "addAdmin",
      "outputs": [],
      "stateMutability": "nonpayable",
      "type": "function"
    },
    {
      "inputs": [
        {
          "components": [
            {
              "internalType": "string",
              "name": "name",
              "type": "string"
            },
            {
              "internalType": "string",
              "name": "mobileNo",
              "type": "string"
            },
            {
              "internalType": "string",
              "name": "homeAddress",
              "type": "string"
            },
            {
              "internalType": "string",
              "name": "aadharCardNo",
              "type": "string"
            },
            {
              "internalType": "string",
              "name": "voterId",
              "type": "string"
            },
            {
              "internalType": "string",
              "name": "walletKey",
              "type": "string"
            },
            {
              "internalType": "string",
              "name": "politicalParty",
              "type": "string"
            },
            {
              "internalType": "uint256",
              "name": "votes",
              "type": "uint256"
            }
          ],
          "internalType": "struct Candidate",
          "name": "item",
          "type": "tuple"
        }
      ],
      "name": "addCandidate",
      "outputs": [],
      "stateMutability": "nonpayable",
      "type": "function"
    },
    {
      "inputs": [
        {
          "internalType": "string",
          "name": "walletKey",
          "type": "string"
        },
        {
          "components": [
            {
              "internalType": "string",
              "name": "name",
              "type": "string"
            },
            {
              "internalType": "string",
              "name": "mobileNo",
              "type": "string"
            },
            {
              "internalType": "string",
              "name": "walletKey",
              "type": "string"
            }
          ],
          "internalType": "struct Admin",
          "name": "a",
          "type": "tuple"
        }
      ],
      "name": "addToAdminsMap",
      "outputs": [],
      "stateMutability": "nonpayable",
      "type": "function"
    },
    {
      "inputs": [
        {
          "internalType": "string",
          "name": "walletKey",
          "type": "string"
        },
        {
          "components": [
            {
              "internalType": "string",
              "name": "name",
              "type": "string"
            },
            {
              "internalType": "string",
              "name": "mobileNo",
              "type": "string"
            },
            {
              "internalType": "string",
              "name": "homeAddress",
              "type": "string"
            },
            {
              "internalType": "string",
              "name": "aadharCardNo",
              "type": "string"
            },
            {
              "internalType": "string",
              "name": "voterId",
              "type": "string"
            },
            {
              "internalType": "string",
              "name": "walletKey",
              "type": "string"
            },
            {
              "internalType": "string",
              "name": "politicalParty",
              "type": "string"
            },
            {
              "internalType": "uint256",
              "name": "votes",
              "type": "uint256"
            }
          ],
          "internalType": "struct Candidate",
          "name": "c",
          "type": "tuple"
        }
      ],
      "name": "addToCandidatesMap",
      "outputs": [],
      "stateMutability": "nonpayable",
      "type": "function"
    },
    {
      "inputs": [
        {
          "components": [
            {
              "internalType": "string",
              "name": "name",
              "type": "string"
            },
            {
              "internalType": "string",
              "name": "mobileNo",
              "type": "string"
            },
            {
              "internalType": "string",
              "name": "homeAddress",
              "type": "string"
            },
            {
              "internalType": "string",
              "name": "aadharCardNo",
              "type": "string"
            },
            {
              "internalType": "string",
              "name": "voterId",
              "type": "string"
            },
            {
              "internalType": "string",
              "name": "walletKey",
              "type": "string"
            },
            {
              "internalType": "bool",
              "name": "isVoted",
              "type": "bool"
            }
          ],
          "internalType": "struct Voter",
          "name": "item",
          "type": "tuple"
        }
      ],
      "name": "addVoter",
      "outputs": [
        {
          "internalType": "string",
          "name": "",
          "type": "string"
        }
      ],
      "stateMutability": "nonpayable",
      "type": "function"
    },
    {
      "inputs": [],
      "name": "adminLength",
      "outputs": [
        {
          "internalType": "uint256",
          "name": "",
          "type": "uint256"
        }
      ],
      "stateMutability": "view",
      "type": "function"
    },
    {
      "inputs": [
        {
          "internalType": "uint256",
          "name": "",
          "type": "uint256"
        }
      ],
      "name": "admins",
      "outputs": [
        {
          "internalType": "string",
          "name": "name",
          "type": "string"
        },
        {
          "internalType": "string",
          "name": "mobileNo",
          "type": "string"
        },
        {
          "internalType": "string",
          "name": "walletKey",
          "type": "string"
        }
      ],
      "stateMutability": "view",
      "type": "function"
    },
    {
      "inputs": [
        {
          "internalType": "string",
          "name": "",
          "type": "string"
        }
      ],
      "name": "adminsMap",
      "outputs": [
        {
          "internalType": "string",
          "name": "name",
          "type": "string"
        },
        {
          "internalType": "string",
          "name": "mobileNo",
          "type": "string"
        },
        {
          "internalType": "string",
          "name": "walletKey",
          "type": "string"
        }
      ],
      "stateMutability": "view",
      "type": "function"
    },
    {
      "inputs": [
        {
          "internalType": "string",
          "name": "s1",
          "type": "string"
        },
        {
          "internalType": "string",
          "name": "s2",
          "type": "string"
        }
      ],
      "name": "areStringsEqual",
      "outputs": [
        {
          "internalType": "bool",
          "name": "",
          "type": "bool"
        }
      ],
      "stateMutability": "pure",
      "type": "function"
    },
    {
      "inputs": [
        {
          "internalType": "string",
          "name": "_walletKey",
          "type": "string"
        }
      ],
      "name": "authenticateAdmin",
      "outputs": [
        {
          "internalType": "bool",
          "name": "",
          "type": "bool"
        }
      ],
      "stateMutability": "view",
      "type": "function"
    },
    {
      "inputs": [
        {
          "internalType": "uint256",
          "name": "",
          "type": "uint256"
        }
      ],
      "name": "candidate_names",
      "outputs": [
        {
          "internalType": "string",
          "name": "",
          "type": "string"
        }
      ],
      "stateMutability": "view",
      "type": "function"
    },
    {
      "inputs": [
        {
          "internalType": "uint256",
          "name": "",
          "type": "uint256"
        }
      ],
      "name": "candidates",
      "outputs": [
        {
          "internalType": "string",
          "name": "name",
          "type": "string"
        },
        {
          "internalType": "string",
          "name": "mobileNo",
          "type": "string"
        },
        {
          "internalType": "string",
          "name": "homeAddress",
          "type": "string"
        },
        {
          "internalType": "string",
          "name": "aadharCardNo",
          "type": "string"
        },
        {
          "internalType": "string",
          "name": "voterId",
          "type": "string"
        },
        {
          "internalType": "string",
          "name": "walletKey",
          "type": "string"
        },
        {
          "internalType": "string",
          "name": "politicalParty",
          "type": "string"
        },
        {
          "internalType": "uint256",
          "name": "votes",
          "type": "uint256"
        }
      ],
      "stateMutability": "view",
      "type": "function"
    },
    {
      "inputs": [
        {
          "internalType": "string",
          "name": "",
          "type": "string"
        }
      ],
      "name": "candidatesMap",
      "outputs": [
        {
          "internalType": "string",
          "name": "name",
          "type": "string"
        },
        {
          "internalType": "string",
          "name": "mobileNo",
          "type": "string"
        },
        {
          "internalType": "string",
          "name": "homeAddress",
          "type": "string"
        },
        {
          "internalType": "string",
          "name": "aadharCardNo",
          "type": "string"
        },
        {
          "internalType": "string",
          "name": "voterId",
          "type": "string"
        },
        {
          "internalType": "string",
          "name": "walletKey",
          "type": "string"
        },
        {
          "internalType": "string",
          "name": "politicalParty",
          "type": "string"
        },
        {
          "internalType": "uint256",
          "name": "votes",
          "type": "uint256"
        }
      ],
      "stateMutability": "view",
      "type": "function"
    },
    {
      "inputs": [],
      "name": "e",
      "outputs": [
        {
          "internalType": "string",
          "name": "name",
          "type": "string"
        },
        {
          "internalType": "string",
          "name": "mobileNo",
          "type": "string"
        },
        {
          "internalType": "string",
          "name": "walletKey",
          "type": "string"
        }
      ],
      "stateMutability": "view",
      "type": "function"
    },
    {
      "inputs": [],
      "name": "getCandidates",
      "outputs": [
        {
          "internalType": "string[]",
          "name": "",
          "type": "string[]"
        }
      ],
      "stateMutability": "nonpayable",
      "type": "function"
    },
    {
      "inputs": [],
      "name": "getResults",
      "outputs": [
        {
          "internalType": "string[]",
          "name": "",
          "type": "string[]"
        },
        {
          "internalType": "uint256[]",
          "name": "",
          "type": "uint256[]"
        }
      ],
      "stateMutability": "nonpayable",
      "type": "function"
    },
    {
      "inputs": [
        {
          "internalType": "string",
          "name": "_walletKey",
          "type": "string"
        }
      ],
      "name": "getVoterId",
      "outputs": [
        {
          "internalType": "string",
          "name": "",
          "type": "string"
        }
      ],
      "stateMutability": "nonpayable",
      "type": "function"
    },
    {
      "inputs": [
        {
          "internalType": "string",
          "name": "_voterid",
          "type": "string"
        }
      ],
      "name": "hasVoted",
      "outputs": [
        {
          "internalType": "bool",
          "name": "",
          "type": "bool"
        }
      ],
      "stateMutability": "view",
      "type": "function"
    },
    {
      "inputs": [
        {
          "internalType": "string",
          "name": "_walletKey",
          "type": "string"
        }
      ],
      "name": "isAdminRegistered",
      "outputs": [
        {
          "internalType": "bool",
          "name": "",
          "type": "bool"
        }
      ],
      "stateMutability": "view",
      "type": "function"
    },
    {
      "inputs": [
        {
          "internalType": "string",
          "name": "_walletKey",
          "type": "string"
        }
      ],
      "name": "isCandidateRegistered",
      "outputs": [
        {
          "internalType": "bool",
          "name": "",
          "type": "bool"
        }
      ],
      "stateMutability": "view",
      "type": "function"
    },
    {
      "inputs": [
        {
          "components": [
            {
              "internalType": "string",
              "name": "name",
              "type": "string"
            },
            {
              "internalType": "string",
              "name": "mobileNo",
              "type": "string"
            },
            {
              "internalType": "string",
              "name": "homeAddress",
              "type": "string"
            },
            {
              "internalType": "string",
              "name": "aadharCardNo",
              "type": "string"
            },
            {
              "internalType": "string",
              "name": "voterId",
              "type": "string"
            },
            {
              "internalType": "string",
              "name": "walletKey",
              "type": "string"
            },
            {
              "internalType": "bool",
              "name": "isVoted",
              "type": "bool"
            }
          ],
          "internalType": "struct Voter",
          "name": "item",
          "type": "tuple"
        }
      ],
      "name": "isVoterRegistered",
      "outputs": [
        {
          "internalType": "bool",
          "name": "",
          "type": "bool"
        }
      ],
      "stateMutability": "view",
      "type": "function"
    },
    {
      "inputs": [
        {
          "internalType": "string",
          "name": "",
          "type": "string"
        }
      ],
      "name": "map_voterid_details",
      "outputs": [
        {
          "internalType": "string",
          "name": "name",
          "type": "string"
        },
        {
          "internalType": "string",
          "name": "mobileNo",
          "type": "string"
        },
        {
          "internalType": "string",
          "name": "homeAddress",
          "type": "string"
        },
        {
          "internalType": "string",
          "name": "aadharCardNo",
          "type": "string"
        },
        {
          "internalType": "string",
          "name": "voterId",
          "type": "string"
        },
        {
          "internalType": "string",
          "name": "walletKey",
          "type": "string"
        },
        {
          "internalType": "bool",
          "name": "isVoted",
          "type": "bool"
        }
      ],
      "stateMutability": "view",
      "type": "function"
    },
    {
      "inputs": [
        {
          "internalType": "string",
          "name": "",
          "type": "string"
        }
      ],
      "name": "map_walletKey_voterid",
      "outputs": [
        {
          "internalType": "string",
          "name": "",
          "type": "string"
        }
      ],
      "stateMutability": "view",
      "type": "function"
    },
    {
      "inputs": [
        {
          "internalType": "string",
          "name": "_voterid",
          "type": "string"
        },
        {
          "components": [
            {
              "internalType": "string",
              "name": "name",
              "type": "string"
            },
            {
              "internalType": "string",
              "name": "mobileNo",
              "type": "string"
            },
            {
              "internalType": "string",
              "name": "homeAddress",
              "type": "string"
            },
            {
              "internalType": "string",
              "name": "aadharCardNo",
              "type": "string"
            },
            {
              "internalType": "string",
              "name": "voterId",
              "type": "string"
            },
            {
              "internalType": "string",
              "name": "walletKey",
              "type": "string"
            },
            {
              "internalType": "bool",
              "name": "isVoted",
              "type": "bool"
            }
          ],
          "internalType": "struct Voter",
          "name": "v",
          "type": "tuple"
        }
      ],
      "name": "setMapVoterDetails",
      "outputs": [],
      "stateMutability": "nonpayable",
      "type": "function"
    },
    {
      "inputs": [
        {
          "internalType": "string",
          "name": "_voterid",
          "type": "string"
        }
      ],
      "name": "setVoterId",
      "outputs": [],
      "stateMutability": "nonpayable",
      "type": "function"
    },
    {
      "inputs": [
        {
          "internalType": "string",
          "name": "_voterId",
          "type": "string"
        },
        {
          "internalType": "string",
          "name": "_walletKey",
          "type": "string"
        },
        {
          "internalType": "uint256",
          "name": "choice",
          "type": "uint256"
        }
      ],
      "name": "vote",
      "outputs": [
        {
          "internalType": "bool",
          "name": "",
          "type": "bool"
        }
      ],
      "stateMutability": "nonpayable",
      "type": "function"
    },
    {
      "inputs": [
        {
          "internalType": "string",
          "name": "_voterId",
          "type": "string"
        },
        {
          "internalType": "uint256",
          "name": "choice",
          "type": "uint256"
        }
      ],
      "name": "voteThroughAdmin",
      "outputs": [
        {
          "internalType": "bool",
          "name": "",
          "type": "bool"
        }
      ],
      "stateMutability": "nonpayable",
      "type": "function"
    },
    {
      "inputs": [],
      "name": "voterLength",
      "outputs": [
        {
          "internalType": "uint256",
          "name": "",
          "type": "uint256"
        }
      ],
      "stateMutability": "view",
      "type": "function"
    },
    {
      "inputs": [
        {
          "internalType": "uint256",
          "name": "",
          "type": "uint256"
        }
      ],
      "name": "voters",
      "outputs": [
        {
          "internalType": "string",
          "name": "name",
          "type": "string"
        },
        {
          "internalType": "string",
          "name": "mobileNo",
          "type": "string"
        },
        {
          "internalType": "string",
          "name": "homeAddress",
          "type": "string"
        },
        {
          "internalType": "string",
          "name": "aadharCardNo",
          "type": "string"
        },
        {
          "internalType": "string",
          "name": "voterId",
          "type": "string"
        },
        {
          "internalType": "string",
          "name": "walletKey",
          "type": "string"
        },
        {
          "internalType": "bool",
          "name": "isVoted",
          "type": "bool"
        }
      ],
      "stateMutability": "view",
      "type": "function"
    },
    {
      "inputs": [],
      "name": "getECI",
      "outputs": [
        {
          "internalType": "string",
          "name": "",
          "type": "string"
        }
      ],
      "stateMutability": "view",
      "type": "function"
    },
    {
      "inputs": [
        {
          "internalType": "string",
          "name": "_walletKey",
          "type": "string"
        }
      ],
      "name": "authenticateECI",
      "outputs": [
        {
          "internalType": "bool",
          "name": "",
          "type": "bool"
        }
      ],
      "stateMutability": "pure",
      "type": "function"
    },
    {
      "inputs": [
        {
          "internalType": "string",
          "name": "_name",
          "type": "string"
        },
        {
          "internalType": "string",
          "name": "_mobileNo",
          "type": "string"
        },
        {
          "internalType": "string",
          "name": "_walletKey",
          "type": "string"
        }
      ],
      "name": "setAdmin",
      "outputs": [],
      "stateMutability": "nonpayable",
      "type": "function"
    },
    {
      "inputs": [],
      "name": "startVoting",
      "outputs": [],
      "stateMutability": "nonpayable",
      "type": "function"
    },
    {
      "inputs": [],
      "name": "endVoting",
      "outputs": [],
      "stateMutability": "nonpayable",
      "type": "function"
    }
  ],
  "bytecode": "0x60806040526000805560405180602001604052806000815250600190805190602001906200002f92919062000169565b506040518060400160405280600981526020017f707265566f74696e670000000000000000000000000000000000000000000000815250600590805190602001906200007d92919062000169565b503480156200008b57600080fd5b506040518060400160405280600381526020017f4543490000000000000000000000000000000000000000000000000000000000815250600d6000019080519060200190620000dc92919062000169565b506040518060400160405280600a81526020017f3938373635343332313000000000000000000000000000000000000000000000815250600d60010190805190602001906200012d92919062000169565b506040518060600160405280602a815260200162004a7a602a9139600d60020190805190602001906200016292919062000169565b506200027d565b828054620001779062000248565b90600052602060002090601f0160209004810192826200019b5760008555620001e7565b82601f10620001b657805160ff1916838001178555620001e7565b82800160010185558215620001e7579182015b82811115620001e6578251825591602001919060010190620001c9565b5b509050620001f69190620001fa565b5090565b5b8082111562000215576000816000905550600101620001fb565b5090565b7f4e487b7100000000000000000000000000000000000000000000000000000000600052602260045260246000fd5b600060028204905060018216806200026157607f821691505b60208210810362000277576200027662000219565b5b50919050565b6147ed806200028d6000396000f3fe608060405234801561001057600080fd5b506004361061021c5760003560e01c8063648a305a11610125578063bea48894116100ad578063eb03cd221161007c578063eb03cd22146106d7578063f372514614610707578063f6249c041461073e578063fe06e0871461076e578063ffae15ba1461079e5761021c565b8063bea4889414610635578063c3403ddf14610665578063c38c5b231461066f578063da58c7d9146106a15761021c565b80639c0585b0116100f45780639c0585b014610553578063a69945fb14610583578063a7d27b03146105b3578063aebd20f0146105cf578063b1496cd4146106055761021c565b8063648a305a146104b75780637820d384146104e75780637a4c96ad1461050557806398f15870146105355761021c565b80634717f97c116101a85780635097086f116101775780635097086f146103ed57806351b090651461041d578063565e802a1461044d5780635982f6101461047d57806361e221e41461049b5761021c565b80634717f97c146103665780634784d0181461038557806348c82952146103a15780634fbe75c1146103bd5761021c565b806322d2ee01116101ef57806322d2ee01146102975780632ec66043146102b35780633477ee2e146102e357806339bfeae31461031a578063455ab5881461034a5761021c565b806306a49fce1461022157806314bfd6d01461023f5780631ec6b60a146102715780632054449e1461027b575b600080fd5b6102296107be565b6040516102369190613764565b60405180910390f35b610259600480360381019061025491906137d0565b61091f565b60405161026893929190613847565b60405180910390f35b610279610af1565b005b61029560048036038101906102909190613a8a565b610b3f565b005b6102b160048036038101906102ac9190613c90565b610bbc565b005b6102cd60048036038101906102c89190613d08565b610cb7565b6040516102da9190613d51565b60405180910390f35b6102fd60048036038101906102f891906137d0565b610d6d565b604051610311989796959493929190613d82565b60405180910390f35b610334600480360381019061032f9190613d08565b61117d565b6040516103419190613e4c565b60405180910390f35b610364600480360381019061035f9190613e67565b6111b5565b005b61036e6113a0565b60405161037c929190613f6e565b60405180910390f35b61039f600480360381019061039a9190613fa5565b611679565b005b6103bb60048036038101906103b691906141d4565b6116a7565b005b6103d760048036038101906103d2919061424c565b6117d6565b6040516103e49190613e4c565b60405180910390f35b61040760048036038101906104029190614295565b611860565b6040516104149190613e4c565b60405180910390f35b610437600480360381019061043291906137d0565b611a41565b6040516104449190613d51565b60405180910390f35b61046760048036038101906104629190613d08565b611aed565b6040516104749190613e4c565b60405180910390f35b610485611b73565b60405161049291906142f1565b60405180910390f35b6104b560048036038101906104b0919061430c565b611b80565b005b6104d160048036038101906104cc91906137d0565b611cfc565b6040516104de9190613d51565b60405180910390f35b6104ef611da8565b6040516104fc91906142f1565b60405180910390f35b61051f600480360381019061051a9190614355565b611db5565b60405161052c9190613e4c565b60405180910390f35b61053d612058565b60405161054a9190613d51565b60405180910390f35b61056d60048036038101906105689190613d08565b6120ed565b60405161057a9190613e4c565b60405180910390f35b61059d60048036038101906105989190613d08565b612173565b6040516105aa9190613e4c565b60405180910390f35b6105cd60048036038101906105c89190613d08565b612196565b005b6105e960048036038101906105e49190613d08565b6121b0565b6040516105fc97969594939291906143e0565b60405180910390f35b61061f600480360381019061061a9190614479565b612545565b60405161062c9190613e4c565b60405180910390f35b61064f600480360381019061064a91906137d0565b6125ae565b60405161065c91906142f1565b60405180910390f35b61066d6125d2565b005b61068960048036038101906106849190613d08565b612620565b60405161069893929190613847565b60405180910390f35b6106bb60048036038101906106b691906137d0565b6127f8565b6040516106ce97969594939291906143e0565b60405180910390f35b6106f160048036038101906106ec9190613d08565b612b87565b6040516106fe9190613e4c565b60405180910390f35b610721600480360381019061071c9190613d08565b612bed565b604051610735989796959493929190613d82565b60405180910390f35b61075860048036038101906107539190613d08565b613003565b6040516107659190613d51565b60405180910390f35b6107886004803603810190610783919061424c565b6130cf565b6040516107959190613d51565b60405180910390f35b6107a6613329565b6040516107b593929190613847565b60405180910390f35b606060005b60048054905081101561084757600a600482815481106107e6576107e56144f1565b5b9060005260206000209060080201600001908060018154018082558091505060019003906000526020600020016000909190919091509080546108289061454f565b6108339291906134d9565b50808061083f906145af565b9150506107c3565b50600a805480602002602001604051908101604052809291908181526020016000905b828210156109165783829060005260206000200180546108899061454f565b80601f01602080910402602001604051908101604052809291908181526020018280546108b59061454f565b80156109025780601f106108d757610100808354040283529160200191610902565b820191906000526020600020905b8154815290600101906020018083116108e557829003601f168201915b50505050508152602001906001019061086a565b50505050905090565b6003818154811061092f57600080fd5b90600052602060002090600302016000915090508060000180546109529061454f565b80601f016020809104026020016040519081016040528092919081815260200182805461097e9061454f565b80156109cb5780601f106109a0576101008083540402835291602001916109cb565b820191906000526020600020905b8154815290600101906020018083116109ae57829003601f168201915b5050505050908060010180546109e09061454f565b80601f0160208091040260200160405190810160405280929190818152602001828054610a0c9061454f565b8015610a595780601f10610a2e57610100808354040283529160200191610a59565b820191906000526020600020905b815481529060010190602001808311610a3c57829003601f168201915b505050505090806002018054610a6e9061454f565b80601f0160208091040260200160405190810160405280929190818152602001828054610a9a9061454f565b8015610ae75780601f10610abc57610100808354040283529160200191610ae7565b820191906000526020600020905b815481529060010190602001808311610aca57829003601f168201915b5050505050905083565b6040518060400160405280600681526020017f566f74696e67000000000000000000000000000000000000000000000000000081525060059080519060200190610b3c929190613566565b50565b80600883604051610b509190614633565b90815260200160405180910390206000820151816000019080519060200190610b7a929190613566565b506020820151816001019080519060200190610b97929190613566565b506040820151816002019080519060200190610bb4929190613566565b509050505050565b80600983604051610bcd9190614633565b90815260200160405180910390206000820151816000019080519060200190610bf7929190613566565b506020820151816001019080519060200190610c14929190613566565b506040820151816002019080519060200190610c31929190613566565b506060820151816003019080519060200190610c4e929190613566565b506080820151816004019080519060200190610c6b929190613566565b5060a0820151816005019080519060200190610c88929190613566565b5060c0820151816006019080519060200190610ca5929190613566565b5060e082015181600701559050505050565b6006818051602081018201805184825260208301602085012081835280955050505050506000915090508054610cec9061454f565b80601f0160208091040260200160405190810160405280929190818152602001828054610d189061454f565b8015610d655780601f10610d3a57610100808354040283529160200191610d65565b820191906000526020600020905b815481529060010190602001808311610d4857829003601f168201915b505050505081565b60048181548110610d7d57600080fd5b9060005260206000209060080201600091509050806000018054610da09061454f565b80601f0160208091040260200160405190810160405280929190818152602001828054610dcc9061454f565b8015610e195780601f10610dee57610100808354040283529160200191610e19565b820191906000526020600020905b815481529060010190602001808311610dfc57829003601f168201915b505050505090806001018054610e2e9061454f565b80601f0160208091040260200160405190810160405280929190818152602001828054610e5a9061454f565b8015610ea75780601f10610e7c57610100808354040283529160200191610ea7565b820191906000526020600020905b815481529060010190602001808311610e8a57829003601f168201915b505050505090806002018054610ebc9061454f565b80601f0160208091040260200160405190810160405280929190818152602001828054610ee89061454f565b8015610f355780601f10610f0a57610100808354040283529160200191610f35565b820191906000526020600020905b815481529060010190602001808311610f1857829003601f168201915b505050505090806003018054610f4a9061454f565b80601f0160208091040260200160405190810160405280929190818152602001828054610f769061454f565b8015610fc35780601f10610f9857610100808354040283529160200191610fc3565b820191906000526020600020905b815481529060010190602001808311610fa657829003601f168201915b505050505090806004018054610fd89061454f565b80601f01602080910402602001604051908101604052809291908181526020018280546110049061454f565b80156110515780601f1061102657610100808354040283529160200191611051565b820191906000526020600020905b81548152906001019060200180831161103457829003601f168201915b5050505050908060050180546110669061454f565b80601f01602080910402602001604051908101604052809291908181526020018280546110929061454f565b80156110df5780601f106110b4576101008083540402835291602001916110df565b820191906000526020600020905b8154815290600101906020018083116110c257829003601f168201915b5050505050908060060180546110f49061454f565b80601f01602080910402602001604051908101604052809291908181526020018280546111209061454f565b801561116d5780601f106111425761010080835404028352916020019161116d565b820191906000526020600020905b81548152906001019060200180831161115057829003601f168201915b5050505050908060070154905088565b600060078260405161118f9190614633565b908152602001604051809103902060060160009054906101000a900460ff169050919050565b6111c28160a00151611aed565b1580156112945750611293600580546111da9061454f565b80601f01602080910402602001604051908101604052809291908181526020018280546112069061454f565b80156112535780601f1061122857610100808354040283529160200191611253565b820191906000526020600020905b81548152906001019060200180831161123657829003601f168201915b50505050506040518060400160405280600981526020017f707265566f74696e670000000000000000000000000000000000000000000000815250612545565b5b1561139d57600481908060018154018082558091505060019003906000526020600020906008020160009091909190915060008201518160000190805190602001906112e1929190613566565b5060208201518160010190805190602001906112fe929190613566565b50604082015181600201908051906020019061131b929190613566565b506060820151816003019080519060200190611338929190613566565b506080820151816004019080519060200190611355929190613566565b5060a0820151816005019080519060200190611372929190613566565b5060c082015181600601908051906020019061138f929190613566565b5060e0820151816007015550505b50565b60608061146c600580546113b39061454f565b80601f01602080910402602001604051908101604052809291908181526020018280546113df9061454f565b801561142c5780601f106114015761010080835404028352916020019161142c565b820191906000526020600020905b81548152906001019060200180831161140f57829003601f168201915b50505050506040518060400160405280600681526020017f526573756c740000000000000000000000000000000000000000000000000000815250612545565b156115485760005b60048054905081101561154657600b60048281548110611497576114966144f1565b5b9060005260206000209060080201600001908060018154018082558091505060019003906000526020600020016000909190919091509080546114d99061454f565b6114e49291906134d9565b50600c600482815481106114fb576114fa6144f1565b5b9060005260206000209060080201600701549080600181540180825580915050600190039060005260206000200160009091909190915055808061153e906145af565b915050611474565b505b600b600c81805480602002602001604051908101604052809291908181526020016000905b8282101561161957838290600052602060002001805461158c9061454f565b80601f01602080910402602001604051908101604052809291908181526020018280546115b89061454f565b80156116055780601f106115da57610100808354040283529160200191611605565b820191906000526020600020905b8154815290600101906020018083116115e857829003601f168201915b50505050508152602001906001019061156d565b5050505091508080548060200260200160405190810160405280929190818152602001828054801561166a57602002820191906000526020600020905b815481526020019060010190808311611656575b50505050509050915091509091565b600060405180606001604052808581526020018481526020018381525090506116a181611b80565b50505050565b806007836040516116b89190614633565b908152602001604051809103902060008201518160000190805190602001906116e2929190613566565b5060208201518160010190805190602001906116ff929190613566565b50604082015181600201908051906020019061171c929190613566565b506060820151816003019080519060200190611739929190613566565b506080820151816004019080519060200190611756929190613566565b5060a0820151816005019080519060200190611773929190613566565b5060c08201518160060160006101000a81548160ff021916908315150217905550905050806080015160068260a001516040516117b09190614633565b908152602001604051809103902090805190602001906117d1929190613566565b505050565b60006040516020016117e790614670565b60405160208183030381529060405280519060200120600783608001516040516118119190614633565b90815260200160405180910390206000016040516020016118329190614719565b6040516020818303038152906040528051906020012014611856576001905061185b565b600090505b919050565b60006007836040516118729190614633565b908152602001604051809103902060060160009054906101000a900460ff16611a3657600482815481106118a9576118a86144f1565b5b906000526020600020906008020160070160008154809291906118cb906145af565b919050555060016007846040516118e29190614633565b908152602001604051809103902060060160006101000a81548160ff02191690831515021790555060005b600280549050811015611a2c576119d160028281548110611931576119306144f1565b5b9060005260206000209060070201600401805461194d9061454f565b80601f01602080910402602001604051908101604052809291908181526020018280546119799061454f565b80156119c65780601f1061199b576101008083540402835291602001916119c6565b820191906000526020600020905b8154815290600101906020018083116119a957829003601f168201915b505050505085612545565b15611a19576001600282815481106119ec576119eb6144f1565b5b906000526020600020906007020160060160006101000a81548160ff021916908315150217905550611a2c565b8080611a24906145af565b91505061190d565b5060019050611a3b565b600090505b92915050565b600a8181548110611a5157600080fd5b906000526020600020016000915090508054611a6c9061454f565b80601f0160208091040260200160405190810160405280929190818152602001828054611a989061454f565b8015611ae55780601f10611aba57610100808354040283529160200191611ae5565b820191906000526020600020905b815481529060010190602001808311611ac857829003601f168201915b505050505081565b6000604051602001611afe90614670565b60405160208183030381529060405280519060200120600983604051611b249190614633565b9081526020016040518091039020600001604051602001611b459190614719565b6040516020818303038152906040528051906020012014611b695760019050611b6e565b600090505b919050565b6000600380549050905090565b611b8d81604001516120ed565b158015611c605750611c5e60058054611ba59061454f565b80601f0160208091040260200160405190810160405280929190818152602001828054611bd19061454f565b8015611c1e5780601f10611bf357610100808354040283529160200191611c1e565b820191906000526020600020905b815481529060010190602001808311611c0157829003601f168201915b50505050506040518060400160405280600681526020017f526573756c740000000000000000000000000000000000000000000000000000815250612545565b155b15611ceb5760038190806001815401808255809150506001900390600052602060002090600302016000909190919091506000820151816000019080519060200190611cad929190613566565b506020820151816001019080519060200190611cca929190613566565b506040820151816002019080519060200190611ce7929190613566565b5050505b611cf9816040015182610b3f565b50565b600b8181548110611d0c57600080fd5b906000526020600020016000915090508054611d279061454f565b80601f0160208091040260200160405190810160405280929190818152602001828054611d539061454f565b8015611da05780601f10611d7557610100808354040283529160200191611da0565b820191906000526020600020905b815481529060010190602001808311611d8357829003601f168201915b505050505081565b6000600280549050905090565b6000611e6a600785604051611dca9190614633565b90815260200160405180910390206005018054611de69061454f565b80601f0160208091040260200160405190810160405280929190818152602001828054611e129061454f565b8015611e5f5780601f10611e3457610100808354040283529160200191611e5f565b820191906000526020600020905b815481529060010190602001808311611e4257829003601f168201915b505050505084612545565b1561204c57600784604051611e7f9190614633565b908152602001604051809103902060060160009054906101000a900460ff166120435760048281548110611eb657611eb56144f1565b5b90600052602060002090600802016007016000815480929190611ed8906145af565b91905055506001600785604051611eef9190614633565b908152602001604051809103902060060160006101000a81548160ff02191690831515021790555060005b60028054905081101561203957611fde60028281548110611f3e57611f3d6144f1565b5b90600052602060002090600702016004018054611f5a9061454f565b80601f0160208091040260200160405190810160405280929190818152602001828054611f869061454f565b8015611fd35780601f10611fa857610100808354040283529160200191611fd3565b820191906000526020600020905b815481529060010190602001808311611fb657829003601f168201915b505050505086612545565b1561202657600160028281548110611ff957611ff86144f1565b5b906000526020600020906007020160060160006101000a81548160ff021916908315150217905550612039565b8080612031906145af565b915050611f1a565b5060019050612051565b60009050612051565b600090505b9392505050565b6060600d600201805461206a9061454f565b80601f01602080910402602001604051908101604052809291908181526020018280546120969061454f565b80156120e35780601f106120b8576101008083540402835291602001916120e3565b820191906000526020600020905b8154815290600101906020018083116120c657829003601f168201915b5050505050905090565b60006040516020016120fe90614670565b604051602081830303815290604052805190602001206008836040516121249190614633565b90815260200160405180910390206000016040516020016121459190614719565b6040516020818303038152906040528051906020012014612169576001905061216e565b600090505b919050565b600061217e826120ed565b1561218c5760019050612191565b600090505b919050565b80600190805190602001906121ac929190613566565b5050565b6007818051602081018201805184825260208301602085012081835280955050505050506000915090508060000180546121e99061454f565b80601f01602080910402602001604051908101604052809291908181526020018280546122159061454f565b80156122625780601f1061223757610100808354040283529160200191612262565b820191906000526020600020905b81548152906001019060200180831161224557829003601f168201915b5050505050908060010180546122779061454f565b80601f01602080910402602001604051908101604052809291908181526020018280546122a39061454f565b80156122f05780601f106122c5576101008083540402835291602001916122f0565b820191906000526020600020905b8154815290600101906020018083116122d357829003601f168201915b5050505050908060020180546123059061454f565b80601f01602080910402602001604051908101604052809291908181526020018280546123319061454f565b801561237e5780601f106123535761010080835404028352916020019161237e565b820191906000526020600020905b81548152906001019060200180831161236157829003601f168201915b5050505050908060030180546123939061454f565b80601f01602080910402602001604051908101604052809291908181526020018280546123bf9061454f565b801561240c5780601f106123e15761010080835404028352916020019161240c565b820191906000526020600020905b8154815290600101906020018083116123ef57829003601f168201915b5050505050908060040180546124219061454f565b80601f016020809104026020016040519081016040528092919081815260200182805461244d9061454f565b801561249a5780601f1061246f5761010080835404028352916020019161249a565b820191906000526020600020905b81548152906001019060200180831161247d57829003601f168201915b5050505050908060050180546124af9061454f565b80601f01602080910402602001604051908101604052809291908181526020018280546124db9061454f565b80156125285780601f106124fd57610100808354040283529160200191612528565b820191906000526020600020905b81548152906001019060200180831161250b57829003601f168201915b5050505050908060060160009054906101000a900460ff16905087565b6000816040516020016125589190614633565b604051602081830303815290604052805190602001208360405160200161257f9190614633565b60405160208183030381529060405280519060200120036125a357600190506125a8565b600090505b92915050565b600c81815481106125be57600080fd5b906000526020600020016000915090505481565b6040518060400160405280600681526020017f526573756c7400000000000000000000000000000000000000000000000000008152506005908051906020019061261d929190613566565b50565b6008818051602081018201805184825260208301602085012081835280955050505050506000915090508060000180546126599061454f565b80601f01602080910402602001604051908101604052809291908181526020018280546126859061454f565b80156126d25780601f106126a7576101008083540402835291602001916126d2565b820191906000526020600020905b8154815290600101906020018083116126b557829003601f168201915b5050505050908060010180546126e79061454f565b80601f01602080910402602001604051908101604052809291908181526020018280546127139061454f565b80156127605780601f1061273557610100808354040283529160200191612760565b820191906000526020600020905b81548152906001019060200180831161274357829003601f168201915b5050505050908060020180546127759061454f565b80601f01602080910402602001604051908101604052809291908181526020018280546127a19061454f565b80156127ee5780601f106127c3576101008083540402835291602001916127ee565b820191906000526020600020905b8154815290600101906020018083116127d157829003601f168201915b5050505050905083565b6002818154811061280857600080fd5b906000526020600020906007020160009150905080600001805461282b9061454f565b80601f01602080910402602001604051908101604052809291908181526020018280546128579061454f565b80156128a45780601f10612879576101008083540402835291602001916128a4565b820191906000526020600020905b81548152906001019060200180831161288757829003601f168201915b5050505050908060010180546128b99061454f565b80601f01602080910402602001604051908101604052809291908181526020018280546128e59061454f565b80156129325780601f1061290757610100808354040283529160200191612932565b820191906000526020600020905b81548152906001019060200180831161291557829003601f168201915b5050505050908060020180546129479061454f565b80601f01602080910402602001604051908101604052809291908181526020018280546129739061454f565b80156129c05780601f10612995576101008083540402835291602001916129c0565b820191906000526020600020905b8154815290600101906020018083116129a357829003601f168201915b5050505050908060030180546129d59061454f565b80601f0160208091040260200160405190810160405280929190818152602001828054612a019061454f565b8015612a4e5780601f10612a2357610100808354040283529160200191612a4e565b820191906000526020600020905b815481529060010190602001808311612a3157829003601f168201915b505050505090806004018054612a639061454f565b80601f0160208091040260200160405190810160405280929190818152602001828054612a8f9061454f565b8015612adc5780601f10612ab157610100808354040283529160200191612adc565b820191906000526020600020905b815481529060010190602001808311612abf57829003601f168201915b505050505090806005018054612af19061454f565b80601f0160208091040260200160405190810160405280929190818152602001828054612b1d9061454f565b8015612b6a5780601f10612b3f57610100808354040283529160200191612b6a565b820191906000526020600020905b815481529060010190602001808311612b4d57829003601f168201915b5050505050908060060160009054906101000a900460ff16905087565b6000604051602001612b98906147a2565b6040516020818303038152906040528051906020012082604051602001612bbf9190614633565b6040516020818303038152906040528051906020012003612be35760019050612be8565b600090505b919050565b600981805160208101820180518482526020830160208501208183528095505050505050600091509050806000018054612c269061454f565b80601f0160208091040260200160405190810160405280929190818152602001828054612c529061454f565b8015612c9f5780601f10612c7457610100808354040283529160200191612c9f565b820191906000526020600020905b815481529060010190602001808311612c8257829003601f168201915b505050505090806001018054612cb49061454f565b80601f0160208091040260200160405190810160405280929190818152602001828054612ce09061454f565b8015612d2d5780601f10612d0257610100808354040283529160200191612d2d565b820191906000526020600020905b815481529060010190602001808311612d1057829003601f168201915b505050505090806002018054612d429061454f565b80601f0160208091040260200160405190810160405280929190818152602001828054612d6e9061454f565b8015612dbb5780601f10612d9057610100808354040283529160200191612dbb565b820191906000526020600020905b815481529060010190602001808311612d9e57829003601f168201915b505050505090806003018054612dd09061454f565b80601f0160208091040260200160405190810160405280929190818152602001828054612dfc9061454f565b8015612e495780601f10612e1e57610100808354040283529160200191612e49565b820191906000526020600020905b815481529060010190602001808311612e2c57829003601f168201915b505050505090806004018054612e5e9061454f565b80601f0160208091040260200160405190810160405280929190818152602001828054612e8a9061454f565b8015612ed75780601f10612eac57610100808354040283529160200191612ed7565b820191906000526020600020905b815481529060010190602001808311612eba57829003601f168201915b505050505090806005018054612eec9061454f565b80601f0160208091040260200160405190810160405280929190818152602001828054612f189061454f565b8015612f655780601f10612f3a57610100808354040283529160200191612f65565b820191906000526020600020905b815481529060010190602001808311612f4857829003601f168201915b505050505090806006018054612f7a9061454f565b80601f0160208091040260200160405190810160405280929190818152602001828054612fa69061454f565b8015612ff35780601f10612fc857610100808354040283529160200191612ff3565b820191906000526020600020905b815481529060010190602001808311612fd657829003601f168201915b5050505050908060070154905088565b60606006826040516130159190614633565b908152602001604051809103902060019080546130319061454f565b61303c9291906134d9565b506001805461304a9061454f565b80601f01602080910402602001604051908101604052809291908181526020018280546130769061454f565b80156130c35780601f10613098576101008083540402835291602001916130c3565b820191906000526020600020905b8154815290600101906020018083116130a657829003601f168201915b50505050509050919050565b60606130da826117d6565b1580156131ad57506131ab600580546130f29061454f565b80601f016020809104026020016040519081016040528092919081815260200182805461311e9061454f565b801561316b5780601f106131405761010080835404028352916020019161316b565b820191906000526020600020905b81548152906001019060200180831161314e57829003601f168201915b50505050506040518060400160405280600681526020017f526573756c740000000000000000000000000000000000000000000000000000815250612545565b155b156132eb57600282908060018154018082558091505060019003906000526020600020906007020160009091909190915060008201518160000190805190602001906131fa929190613566565b506020820151816001019080519060200190613217929190613566565b506040820151816002019080519060200190613234929190613566565b506060820151816003019080519060200190613251929190613566565b50608082015181600401908051906020019061326e929190613566565b5060a082015181600501908051906020019061328b929190613566565b5060c08201518160060160006101000a81548160ff02191690831515021790555050506040518060400160405280600a81526020017f75736572206164646564000000000000000000000000000000000000000000008152509050613324565b6040518060400160405280601381526020017f7573657220616c7265616479206578697374730000000000000000000000000081525090505b919050565b600d80600001805461333a9061454f565b80601f01602080910402602001604051908101604052809291908181526020018280546133669061454f565b80156133b35780601f10613388576101008083540402835291602001916133b3565b820191906000526020600020905b81548152906001019060200180831161339657829003601f168201915b5050505050908060010180546133c89061454f565b80601f01602080910402602001604051908101604052809291908181526020018280546133f49061454f565b80156134415780601f1061341657610100808354040283529160200191613441565b820191906000526020600020905b81548152906001019060200180831161342457829003601f168201915b5050505050908060020180546134569061454f565b80601f01602080910402602001604051908101604052809291908181526020018280546134829061454f565b80156134cf5780601f106134a4576101008083540402835291602001916134cf565b820191906000526020600020905b8154815290600101906020018083116134b257829003601f168201915b5050505050905083565b8280546134e59061454f565b90600052602060002090601f0160209004810192826135075760008555613555565b82601f106135185780548555613555565b8280016001018555821561355557600052602060002091601f016020900482015b82811115613554578254825591600101919060010190613539565b5b50905061356291906135ec565b5090565b8280546135729061454f565b90600052602060002090601f01602090048101928261359457600085556135db565b82601f106135ad57805160ff19168380011785556135db565b828001600101855582156135db579182015b828111156135da5782518255916020019190600101906135bf565b5b5090506135e891906135ec565b5090565b5b808211156136055760008160009055506001016135ed565b5090565b600081519050919050565b600082825260208201905092915050565b6000819050602082019050919050565b600081519050919050565b600082825260208201905092915050565b60005b8381101561366f578082015181840152602081019050613654565b8381111561367e576000848401525b50505050565b6000601f19601f8301169050919050565b60006136a082613635565b6136aa8185613640565b93506136ba818560208601613651565b6136c381613684565b840191505092915050565b60006136da8383613695565b905092915050565b6000602082019050919050565b60006136fa82613609565b6137048185613614565b93508360208202850161371685613625565b8060005b85811015613752578484038952815161373385826136ce565b945061373e836136e2565b925060208a0199505060018101905061371a565b50829750879550505050505092915050565b6000602082019050818103600083015261377e81846136ef565b905092915050565b6000604051905090565b600080fd5b600080fd5b6000819050919050565b6137ad8161379a565b81146137b857600080fd5b50565b6000813590506137ca816137a4565b92915050565b6000602082840312156137e6576137e5613790565b5b60006137f4848285016137bb565b91505092915050565b600082825260208201905092915050565b600061381982613635565b61382381856137fd565b9350613833818560208601613651565b61383c81613684565b840191505092915050565b60006060820190508181036000830152613861818661380e565b90508181036020830152613875818561380e565b90508181036040830152613889818461380e565b9050949350505050565b600080fd5b600080fd5b7f4e487b7100000000000000000000000000000000000000000000000000000000600052604160045260246000fd5b6138d582613684565b810181811067ffffffffffffffff821117156138f4576138f361389d565b5b80604052505050565b6000613907613786565b905061391382826138cc565b919050565b600067ffffffffffffffff8211156139335761393261389d565b5b61393c82613684565b9050602081019050919050565b82818337600083830152505050565b600061396b61396684613918565b6138fd565b90508281526020810184848401111561398757613986613898565b5b613992848285613949565b509392505050565b600082601f8301126139af576139ae613893565b5b81356139bf848260208601613958565b91505092915050565b600080fd5b600080fd5b6000606082840312156139e8576139e76139c8565b5b6139f260606138fd565b9050600082013567ffffffffffffffff811115613a1257613a116139cd565b5b613a1e8482850161399a565b600083015250602082013567ffffffffffffffff811115613a4257613a416139cd565b5b613a4e8482850161399a565b602083015250604082013567ffffffffffffffff811115613a7257613a716139cd565b5b613a7e8482850161399a565b60408301525092915050565b60008060408385031215613aa157613aa0613790565b5b600083013567ffffffffffffffff811115613abf57613abe613795565b5b613acb8582860161399a565b925050602083013567ffffffffffffffff811115613aec57613aeb613795565b5b613af8858286016139d2565b9150509250929050565b60006101008284031215613b1957613b186139c8565b5b613b246101006138fd565b9050600082013567ffffffffffffffff811115613b4457613b436139cd565b5b613b508482850161399a565b600083015250602082013567ffffffffffffffff811115613b7457613b736139cd565b5b613b808482850161399a565b602083015250604082013567ffffffffffffffff811115613ba457613ba36139cd565b5b613bb08482850161399a565b604083015250606082013567ffffffffffffffff811115613bd457613bd36139cd565b5b613be08482850161399a565b606083015250608082013567ffffffffffffffff811115613c0457613c036139cd565b5b613c108482850161399a565b60808301525060a082013567ffffffffffffffff811115613c3457613c336139cd565b5b613c408482850161399a565b60a08301525060c082013567ffffffffffffffff811115613c6457613c636139cd565b5b613c708482850161399a565b60c08301525060e0613c84848285016137bb565b60e08301525092915050565b60008060408385031215613ca757613ca6613790565b5b600083013567ffffffffffffffff811115613cc557613cc4613795565b5b613cd18582860161399a565b925050602083013567ffffffffffffffff811115613cf257613cf1613795565b5b613cfe85828601613b02565b9150509250929050565b600060208284031215613d1e57613d1d613790565b5b600082013567ffffffffffffffff811115613d3c57613d3b613795565b5b613d488482850161399a565b91505092915050565b60006020820190508181036000830152613d6b818461380e565b905092915050565b613d7c8161379a565b82525050565b6000610100820190508181036000830152613d9d818b61380e565b90508181036020830152613db1818a61380e565b90508181036040830152613dc5818961380e565b90508181036060830152613dd9818861380e565b90508181036080830152613ded818761380e565b905081810360a0830152613e01818661380e565b905081810360c0830152613e15818561380e565b9050613e2460e0830184613d73565b9998505050505050505050565b60008115159050919050565b613e4681613e31565b82525050565b6000602082019050613e616000830184613e3d565b92915050565b600060208284031215613e7d57613e7c613790565b5b600082013567ffffffffffffffff811115613e9b57613e9a613795565b5b613ea784828501613b02565b91505092915050565b600081519050919050565b600082825260208201905092915050565b6000819050602082019050919050565b613ee58161379a565b82525050565b6000613ef78383613edc565b60208301905092915050565b6000602082019050919050565b6000613f1b82613eb0565b613f258185613ebb565b9350613f3083613ecc565b8060005b83811015613f61578151613f488882613eeb565b9750613f5383613f03565b925050600181019050613f34565b5085935050505092915050565b60006040820190508181036000830152613f8881856136ef565b90508181036020830152613f9c8184613f10565b90509392505050565b600080600060608486031215613fbe57613fbd613790565b5b600084013567ffffffffffffffff811115613fdc57613fdb613795565b5b613fe88682870161399a565b935050602084013567ffffffffffffffff81111561400957614008613795565b5b6140158682870161399a565b925050604084013567ffffffffffffffff81111561403657614035613795565b5b6140428682870161399a565b9150509250925092565b61405581613e31565b811461406057600080fd5b50565b6000813590506140728161404c565b92915050565b600060e0828403121561408e5761408d6139c8565b5b61409860e06138fd565b9050600082013567ffffffffffffffff8111156140b8576140b76139cd565b5b6140c48482850161399a565b600083015250602082013567ffffffffffffffff8111156140e8576140e76139cd565b5b6140f48482850161399a565b602083015250604082013567ffffffffffffffff811115614118576141176139cd565b5b6141248482850161399a565b604083015250606082013567ffffffffffffffff811115614148576141476139cd565b5b6141548482850161399a565b606083015250608082013567ffffffffffffffff811115614178576141776139cd565b5b6141848482850161399a565b60808301525060a082013567ffffffffffffffff8111156141a8576141a76139cd565b5b6141b48482850161399a565b60a08301525060c06141c884828501614063565b60c08301525092915050565b600080604083850312156141eb576141ea613790565b5b600083013567ffffffffffffffff81111561420957614208613795565b5b6142158582860161399a565b925050602083013567ffffffffffffffff81111561423657614235613795565b5b61424285828601614078565b9150509250929050565b60006020828403121561426257614261613790565b5b600082013567ffffffffffffffff8111156142805761427f613795565b5b61428c84828501614078565b91505092915050565b600080604083850312156142ac576142ab613790565b5b600083013567ffffffffffffffff8111156142ca576142c9613795565b5b6142d68582860161399a565b92505060206142e7858286016137bb565b9150509250929050565b60006020820190506143066000830184613d73565b92915050565b60006020828403121561432257614321613790565b5b600082013567ffffffffffffffff8111156143405761433f613795565b5b61434c848285016139d2565b91505092915050565b60008060006060848603121561436e5761436d613790565b5b600084013567ffffffffffffffff81111561438c5761438b613795565b5b6143988682870161399a565b935050602084013567ffffffffffffffff8111156143b9576143b8613795565b5b6143c58682870161399a565b92505060406143d6868287016137bb565b9150509250925092565b600060e08201905081810360008301526143fa818a61380e565b9050818103602083015261440e818961380e565b90508181036040830152614422818861380e565b90508181036060830152614436818761380e565b9050818103608083015261444a818661380e565b905081810360a083015261445e818561380e565b905061446d60c0830184613e3d565b98975050505050505050565b600080604083850312156144905761448f613790565b5b600083013567ffffffffffffffff8111156144ae576144ad613795565b5b6144ba8582860161399a565b925050602083013567ffffffffffffffff8111156144db576144da613795565b5b6144e78582860161399a565b9150509250929050565b7f4e487b7100000000000000000000000000000000000000000000000000000000600052603260045260246000fd5b7f4e487b7100000000000000000000000000000000000000000000000000000000600052602260045260246000fd5b6000600282049050600182168061456757607f821691505b60208210810361457a57614579614520565b5b50919050565b7f4e487b7100000000000000000000000000000000000000000000000000000000600052601160045260246000fd5b60006145ba8261379a565b91507fffffffffffffffffffffffffffffffffffffffffffffffffffffffffffffffff82036145ec576145eb614580565b5b600182019050919050565b600081905092915050565b600061460d82613635565b61461781856145f7565b9350614627818560208601613651565b80840191505092915050565b600061463f8284614602565b915081905092915050565b50565b600061465a6000836145f7565b91506146658261464a565b600082019050919050565b600061467b8261464d565b9150819050919050565b60008190508160005260206000209050919050565b600081546146a78161454f565b6146b181866145f7565b945060018216600081146146cc57600181146146dd57614710565b60ff19831686528186019350614710565b6146e685614685565b60005b83811015614708578154818901526001820191506020810190506146e9565b838801955050505b50505092915050565b6000614725828461469a565b915081905092915050565b7f307842363633466465333563353936453539374135363630646536373238623460008201527f6243333032636236373700000000000000000000000000000000000000000000602082015250565b600061478c602a836145f7565b915061479782614730565b602a82019050919050565b60006147ad8261477f565b915081905091905056fea264697066735822122000c7f50e40018323c77dba170cdf6b7f144cc438907f5a5248e7250307a9136c64736f6c634300080d0033307842363633466465333563353936453539374135363630646536373238623462433330326362363737",
  "immutableReferences": {},
  "source": "// SPDX-License-Identifier: GPL-3.0\r\npragma solidity ^0.8.10;\r\npragma experimental ABIEncoderV2;\r\n\r\nstruct Admin {\r\n    string name;\r\n    string mobileNo;\r\n    string walletKey;\r\n}\r\n\r\nstruct ECI {\r\n    string name;\r\n    string mobileNo;\r\n    string walletKey;\r\n}\r\n\r\nstruct Voter {\r\n    string name;\r\n    string mobileNo;\r\n    string homeAddress;\r\n    string aadharCardNo;\r\n    string voterId;\r\n    string walletKey;\r\n    bool isVoted;\r\n\r\n}\r\n\r\nstruct Candidate {\r\n    string name; string mobileNo;\r\n    string homeAddress; string aadharCardNo; string voterId;\r\n    string walletKey; string politicalParty;\r\n    uint256 votes;\r\n}\r\n\r\ncontract BlockVote {\r\n    uint transactionHelper = 0;\r\n    string voterId_main=\"\";\r\n    Voter[] public voters;\r\n    Admin[] public admins;\r\n    Candidate[] public candidates;\r\n    string votingPhase = \"preVoting\"; // Voting, Result\r\n\r\n    function areStringsEqual(string memory s1, string memory s2) public pure returns(bool){\r\n        if(keccak256(abi.encodePacked(s1)) == keccak256(abi.encodePacked((s2)))) return true;\r\n        else return false;\r\n    }\r\n    \r\n    // walletKey : voterId\r\n    mapping(string=>string) public map_walletKey_voterid;\r\n\r\n    // voterid : Voter;\r\n    mapping(string=>Voter) public map_voterid_details;\r\n    function setMapVoterDetails(string memory _voterid, Voter memory v) public {\r\n        map_voterid_details[_voterid] = v;\r\n        map_walletKey_voterid[v.walletKey] = v.voterId;\r\n    }\r\n\r\n    function hasVoted(string memory _voterid) public view returns(bool){\r\n        return map_voterid_details[_voterid].isVoted;\r\n    }\r\n\r\n    // Voter ////////////////////////////////////////// \r\n    function isVoterRegistered(Voter memory item) public view returns(bool) {\r\n        if(keccak256(abi.encodePacked((map_voterid_details[item.voterId].name))) != keccak256(abi.encodePacked((\"\")))) return true;\r\n        else return false;\r\n    }\r\n    function addVoter(Voter memory item) public returns(string memory) {\r\n        if(!isVoterRegistered(item) && !areStringsEqual(votingPhase,\"Result\")) {\r\n            voters.push(item);\r\n            return \"user added\";\r\n        }\r\n        else return \"user already exists\";\r\n            \r\n    }\r\n\r\n    function getVoterId(string memory _walletKey) public returns(string memory) {\r\n        voterId_main = map_walletKey_voterid[_walletKey];\r\n        return voterId_main;\r\n    }\r\n\r\n    function setVoterId(string memory _voterid) public {\r\n        voterId_main = _voterid;\r\n    }\r\n\r\n    function voterLength() public view returns(uint) {\r\n        return voters.length;\r\n    }\r\n    /////////////////////////////////////////////////\r\n\r\n    // Admin /////////////////////////////////////////\r\n    \r\n    function addAdmin(Admin memory item) public {\r\n        if(!isAdminRegistered(item.walletKey) && !areStringsEqual(votingPhase,\"Result\"))\r\n            admins.push(item);\r\n            addToAdminsMap(item.walletKey, item);\r\n    }\r\n\r\n    mapping(string=>Admin) public adminsMap;\r\n    function addToAdminsMap(string memory walletKey, Admin memory a) public {\r\n        adminsMap[walletKey] = a;\r\n    }\r\n\r\n    function isAdminRegistered(string memory _walletKey) public view returns(bool){\r\n        if(keccak256(abi.encodePacked((adminsMap[_walletKey].name))) != keccak256(abi.encodePacked((\"\")))) return true;\r\n        else return false;\r\n    }\r\n\r\n    function authenticateAdmin(string memory _walletKey) public view returns(bool){\r\n        if(isAdminRegistered(_walletKey)) return true;\r\n        else return false;\r\n    }\r\n\r\n    function adminLength() public view returns(uint) {\r\n        return admins.length;\r\n    }\r\n    ////////////////////////////////////////////////////\r\n\r\n\r\n    // Candidate ///////////////////////////////////////\r\n\r\n    function isCandidateRegistered(string memory _walletKey) public view returns(bool){\r\n        if(keccak256(abi.encodePacked((candidatesMap[_walletKey].name))) != keccak256(abi.encodePacked((\"\")))) return true;\r\n        else return false;\r\n    }\r\n\r\n    function addCandidate(Candidate memory item) public {\r\n        if(!isCandidateRegistered(item.walletKey) && areStringsEqual(votingPhase,\"preVoting\"))\r\n            candidates.push(item);\r\n    }\r\n\r\n    mapping(string=>Candidate) public candidatesMap;\r\n    function addToCandidatesMap(string memory walletKey, Candidate memory c) public {\r\n        candidatesMap[walletKey] = c;\r\n    }\r\n    string[] public candidate_names;\r\n    function getCandidates() public returns(string[] memory) {\r\n        for(uint256 i=0;i<candidates.length;i++) {\r\n        candidate_names.push(candidates[i].name);\r\n        }\r\n        return candidate_names;\r\n    }\r\n\r\n    ////////////////////////////////////////////////////\r\n\r\n\r\n    // Results ////////////////////////////////////////////////////////\r\n    /* returns (candidates, votes), receives object with 2 keys (0 : candidates array, 1 : votes array)\r\n    */\r\n    string[] public _candidates;\r\n    uint256[] public _votes;\r\n    function getResults() public returns(string[] memory, uint256[] memory) {\r\n        if(areStringsEqual(votingPhase, \"Result\")){\r\n            for(uint256 i=0;i<candidates.length;i++) {\r\n                _candidates.push(candidates[i].name);\r\n                _votes.push(candidates[i].votes);\r\n            }    \r\n        }\r\n        return (_candidates, _votes);\r\n    }\r\n    ////////////////////////////////////////////////////////////////////\r\n    // Vote /////////////////////////////////////////////////////////////\r\n    function vote(string memory _voterId, string memory _walletKey, uint256 choice) public returns(bool) {\r\n        if(areStringsEqual(map_voterid_details[_voterId].walletKey, _walletKey)) {\r\n            if(!map_voterid_details[_voterId].isVoted) {\r\n                candidates[choice].votes++;\r\n                map_voterid_details[_voterId].isVoted = true;\r\n                for(uint256 i=0;i<voters.length;i++) {\r\n                    if(areStringsEqual(voters[i].voterId, _voterId)){\r\n                        voters[i].isVoted = true;\r\n                        break;\r\n                    }\r\n                }\r\n                return true;\r\n            }\r\n            return false;\r\n        }\r\n        return false;\r\n    }\r\n\r\n    function voteThroughAdmin(string memory _voterId, uint256 choice) public returns(bool) {\r\n        if(!map_voterid_details[_voterId].isVoted) {\r\n            candidates[choice].votes++;\r\n            map_voterid_details[_voterId].isVoted = true;\r\n            for(uint256 i=0;i<voters.length;i++) {\r\n                if(areStringsEqual(voters[i].voterId, _voterId)){\r\n                    voters[i].isVoted = true;\r\n                    break;\r\n                }\r\n            }\r\n            return true;\r\n        }\r\n        return false;\r\n    }\r\n\r\n    /////////////////////////////////////////////////////////////////////\r\n}\r\n\r\ncontract AdminCon is BlockVote{\r\n    Admin public a;\r\n\r\n    constructor(string memory _name, string memory _mobileNo, string memory  _walletKey) {\r\n        a.name = _name;\r\n        a.mobileNo = _mobileNo;\r\n        a.walletKey = _walletKey;\r\n        addAdmin(a);\r\n        addToAdminsMap(_walletKey,a);\r\n    }\r\n\r\n}\r\n\r\ncontract ECICon is BlockVote {\r\n    Admin public e;\r\n\r\n    constructor() {\r\n        e.name = \"ECI\";\r\n        e.mobileNo = \"9876543210\";\r\n        e.walletKey = \"0xB663Fde35c596E597A5660de6728b4bC302cb677\";\r\n    }\r\n\r\n    function getECI() public view returns(string memory) {\r\n       return e.walletKey;\r\n    }\r\n\r\n    function authenticateECI(string memory _walletKey) public pure returns(bool) {\r\n        if(keccak256(abi.encodePacked(_walletKey)) == keccak256(abi.encodePacked((\"0xB663Fde35c596E597A5660de6728b4bC302cb677\")))) return true;\r\n        else return false;\r\n    }\r\n\r\n    function setAdmin(string memory _name, string memory _mobileNo, string memory _walletKey) public {\r\n        Admin memory newAdmin = Admin({\r\n            name:_name, \r\n            mobileNo:_mobileNo,\r\n            walletKey:_walletKey\r\n        });\r\n        addAdmin(newAdmin);\r\n\r\n    }\r\n\r\n    function startVoting() public {\r\n        votingPhase = \"Voting\";\r\n    }\r\n\r\n    function endVoting() public {\r\n        votingPhase = \"Result\";\r\n    }\r\n}\r\n\r\ncontract VoterCon is BlockVote {\r\n    Voter public v;\r\n    \r\n    constructor(string memory _name, string memory _mobileNo, string memory _homeAddress,\r\n     string memory _aadharCardNo, string memory _voterId, string memory _walletKey) {\r\n        v.name = _name;\r\n        v.mobileNo = _mobileNo;\r\n        v.homeAddress = _homeAddress;\r\n        v.aadharCardNo = _aadharCardNo;\r\n        v.voterId = _voterId;\r\n        v.walletKey = _walletKey;\r\n        v.isVoted = false;\r\n        addVoter(v);\r\n        setMapVoterDetails(_voterId, v);\r\n     }\r\n}\r\n\r\ncontract CandidateCon is BlockVote {\r\n    Candidate public c;\r\n\r\n    constructor(string memory _name, string memory _mobileNo, string memory _homeAddress,\r\n     string memory _aadharCardNo, string memory _voterId, string memory _walletKey, string memory _politicalParty) {\r\n        c.name = _name;\r\n        c.mobileNo = _mobileNo;\r\n        c.homeAddress = _homeAddress;\r\n        c.aadharCardNo = _aadharCardNo;\r\n        c.voterId = _voterId;\r\n        c.walletKey = _walletKey;\r\n        c.politicalParty = _politicalParty;\r\n        c.votes = 0;\r\n        addCandidate(c);\r\n        addToCandidatesMap(_walletKey, c);\r\n    }\r\n}",
  "sourcePath": "E:\\BlockVote\\contracts\\BlockVote.sol",
  "compiler": {
    "name": "solc",
    "version": "0.8.13+commit.abaa5c0e.Emscripten.clang"
  },
  "schemaVersion": "3.4.4",
  "updatedAt": "2022-03-28T17:37:50.872Z",
  "devdoc": {
    "kind": "dev",
    "methods": {},
    "version": 1
  },
  "userdoc": {
    "kind": "user",
    "methods": {},
    "version": 1
  }
}