{
  "contractName": "SimpleStorage",
  "abi": [
    {
      "constant": false,
      "inputs": [
        {
          "internalType": "uint256",
          "name": "x",
          "type": "uint256"
        }
      ],
      "name": "set",
      "outputs": [],
      "payable": false,
      "stateMutability": "nonpayable",
      "type": "function"
    },
    {
      "constant": false,
      "inputs": [
        {
          "internalType": "string",
          "name": "name",
          "type": "string"
        },
        {
          "internalType": "uint256",
          "name": "_votes",
          "type": "uint256"
        }
      ],
      "name": "setmap",
      "outputs": [],
      "payable": false,
      "stateMutability": "nonpayable",
      "type": "function"
    },
    {
      "constant": true,
      "inputs": [],
      "name": "get",
      "outputs": [
        {
          "internalType": "uint256",
          "name": "",
          "type": "uint256"
        }
      ],
      "payable": false,
      "stateMutability": "view",
      "type": "function"
    },
    {
      "constant": true,
      "inputs": [],
      "name": "getMap",
      "outputs": [
        {
          "internalType": "string[]",
          "name": "",
          "type": "string[]"
        },
        {
          "internalType": "uint256[]",
          "name": "",
          "type": "uint256[]"
        }
      ],
      "payable": false,
      "stateMutability": "view",
      "type": "function"
    }
  ],
  "bytecode": "0x6080604052600760015534801561001557600080fd5b5061075d806100256000396000f3fe608060405234801561001057600080fd5b506004361061004c5760003560e01c806346f2eedf1461005157806360fe47b11461006d5780636d4ce63c14610089578063ad3de14c146100a7575b600080fd5b61006b6004803603610066919081019061039a565b6100c6565b005b610087600480360361008291908101906103ee565b610135565b005b61009161013f565b60405161009e91906105a4565b60405180910390f35b6100af610148565b6040516100bd92919061056d565b60405180910390f35b600282908060018154018082558091505090600182039060005260206000200160009091929091909150908051906020019061010392919061028c565b505060038190806001815401808255809150509060018203906000526020600020016000909192909190915055505050565b8060008190555050565b60008054905090565b6060806002600381805480602002602001604051908101604052809291908181526020016000905b8282101561022c578382906000526020600020018054600181600116156101000203166002900480601f0160208091040260200160405190810160405280929190818152602001828054600181600116156101000203166002900480156102185780601f106101ed57610100808354040283529160200191610218565b820191906000526020600020905b8154815290600101906020018083116101fb57829003601f168201915b505050505081526020019060010190610170565b5050505091508080548060200260200160405190810160405280929190818152602001828054801561027d57602002820191906000526020600020905b815481526020019060010190808311610269575b50505050509050915091509091565b828054600181600116156101000203166002900490600052602060002090601f016020900481019282601f106102cd57805160ff19168380011785556102fb565b828001600101855582156102fb579182015b828111156102fa5782518255916020019190600101906102df565b5b509050610308919061030c565b5090565b61032e91905b8082111561032a576000816000905550600101610312565b5090565b90565b600082601f83011261034257600080fd5b8135610355610350826105ec565b6105bf565b9150808252602083016020830185838301111561037157600080fd5b61037c8382846106b0565b50505092915050565b60008135905061039481610703565b92915050565b600080604083850312156103ad57600080fd5b600083013567ffffffffffffffff8111156103c757600080fd5b6103d385828601610331565b92505060206103e485828601610385565b9150509250929050565b60006020828403121561040057600080fd5b600061040e84828501610385565b91505092915050565b60006104238383610516565b905092915050565b6000610437838361054f565b60208301905092915050565b600061044e82610638565b6104588185610673565b93508360208202850161046a85610618565b8060005b858110156104a657848403895281516104878582610417565b945061049283610659565b925060208a0199505060018101905061046e565b50829750879550505050505092915050565b60006104c382610643565b6104cd8185610684565b93506104d883610628565b8060005b838110156105095781516104f0888261042b565b97506104fb83610666565b9250506001810190506104dc565b5085935050505092915050565b60006105218261064e565b61052b8185610695565b935061053b8185602086016106bf565b610544816106f2565b840191505092915050565b610558816106a6565b82525050565b610567816106a6565b82525050565b600060408201905081810360008301526105878185610443565b9050818103602083015261059b81846104b8565b90509392505050565b60006020820190506105b9600083018461055e565b92915050565b6000604051905081810181811067ffffffffffffffff821117156105e257600080fd5b8060405250919050565b600067ffffffffffffffff82111561060357600080fd5b601f19601f8301169050602081019050919050565b6000819050602082019050919050565b6000819050602082019050919050565b600081519050919050565b600081519050919050565b600081519050919050565b6000602082019050919050565b6000602082019050919050565b600082825260208201905092915050565b600082825260208201905092915050565b600082825260208201905092915050565b6000819050919050565b82818337600083830152505050565b60005b838110156106dd5780820151818401526020810190506106c2565b838111156106ec576000848401525b50505050565b6000601f19601f8301169050919050565b61070c816106a6565b811461071757600080fd5b5056fea365627a7a723158200375f3026654d18fa9a38b85b5f68cbc6eb59143736c6433bc29e18e76ac38b76c6578706572696d656e74616cf564736f6c63430005100040",
  "source": "// SPDX-License-Identifier: MIT\r\npragma solidity >=0.4.21 <0.9.0;\r\npragma experimental ABIEncoderV2;\r\n\r\ncontract SimpleStorage {\r\n  uint storedData;\r\n  uint256 atharva = 7;\r\n  string[] candy;\r\n  uint256[] votes;\r\n\r\n  function set(uint x) public {\r\n    storedData = x;\r\n  }\r\n\r\n  function setmap(string memory name, uint256 _votes) public {\r\n    candy.push(name);\r\n    votes.push(_votes);\r\n  }\r\n\r\n  function get() public view returns (uint) {\r\n    \r\n    return storedData;\r\n  }\r\n\r\n  function getMap() public view returns(string[] memory, uint256[] memory) {\r\n    return (candy, votes);\r\n  }\r\n}\r\n\r\n",
  "sourcePath": "D:\\Blockchain-Projects\\BlockVote\\contracts\\SimpleStorage.sol",
  "compiler": {
    "name": "solc",
    "version": "0.5.16+commit.9c3226ce.Emscripten.clang"
  },
  "schemaVersion": "3.4.4",
  "updatedAt": "2022-03-23T10:31:23.084Z",
  "networkType": "ethereum",
  "devdoc": {
    "methods": {}
  },
  "userdoc": {
    "methods": {}
  }
}