{
  "contractName": "SimpleStorage",
  "abi": [
    {
      "inputs": [
        {
          "internalType": "uint256",
          "name": "x",
          "type": "uint256"
        }
      ],
      "name": "set",
      "outputs": [],
      "stateMutability": "nonpayable",
      "type": "function"
    },
    {
      "inputs": [
        {
          "internalType": "string",
          "name": "name",
          "type": "string"
        },
        {
          "internalType": "uint256",
          "name": "_votes",
          "type": "uint256"
        }
      ],
      "name": "setmap",
      "outputs": [],
      "stateMutability": "nonpayable",
      "type": "function"
    },
    {
      "inputs": [],
      "name": "get",
      "outputs": [
        {
          "internalType": "uint256",
          "name": "",
          "type": "uint256"
        }
      ],
      "stateMutability": "view",
      "type": "function",
      "constant": true
    },
    {
      "inputs": [],
      "name": "getMap",
      "outputs": [
        {
          "internalType": "string[]",
          "name": "",
          "type": "string[]"
        },
        {
          "internalType": "uint256[]",
          "name": "",
          "type": "uint256[]"
        }
      ],
      "stateMutability": "view",
      "type": "function",
      "constant": true
    }
  ],
  "bytecode": "0x6080604052600760015534801561001557600080fd5b50610831806100256000396000f3fe608060405234801561001057600080fd5b506004361061004c5760003560e01c806346f2eedf1461005157806360fe47b11461006d5780636d4ce63c14610089578063ad3de14c146100a7575b600080fd5b61006b600480360381019061006691906104a9565b6100c6565b005b61008760048036038101906100829190610505565b61012f565b005b610091610139565b60405161009e9190610541565b60405180910390f35b6100af610142565b6040516100bd929190610764565b60405180910390f35b600282908060018154018082558091505060019003906000526020600020016000909190919091509080519060200190610101929190610276565b5060038190806001815401808255809150506001900390600052602060002001600090919091909150555050565b8060008190555050565b60008054905090565b6060806002600381805480602002602001604051908101604052809291908181526020016000905b82821015610216578382906000526020600020018054610189906107ca565b80601f01602080910402602001604051908101604052809291908181526020018280546101b5906107ca565b80156102025780601f106101d757610100808354040283529160200191610202565b820191906000526020600020905b8154815290600101906020018083116101e557829003601f168201915b50505050508152602001906001019061016a565b5050505091508080548060200260200160405190810160405280929190818152602001828054801561026757602002820191906000526020600020905b815481526020019060010190808311610253575b50505050509050915091509091565b828054610282906107ca565b90600052602060002090601f0160209004810192826102a457600085556102eb565b82601f106102bd57805160ff19168380011785556102eb565b828001600101855582156102eb579182015b828111156102ea5782518255916020019190600101906102cf565b5b5090506102f891906102fc565b5090565b5b808211156103155760008160009055506001016102fd565b5090565b6000604051905090565b600080fd5b600080fd5b600080fd5b600080fd5b6000601f19601f8301169050919050565b7f4e487b7100000000000000000000000000000000000000000000000000000000600052604160045260246000fd5b61038082610337565b810181811067ffffffffffffffff8211171561039f5761039e610348565b5b80604052505050565b60006103b2610319565b90506103be8282610377565b919050565b600067ffffffffffffffff8211156103de576103dd610348565b5b6103e782610337565b9050602081019050919050565b82818337600083830152505050565b6000610416610411846103c3565b6103a8565b90508281526020810184848401111561043257610431610332565b5b61043d8482856103f4565b509392505050565b600082601f83011261045a5761045961032d565b5b813561046a848260208601610403565b91505092915050565b6000819050919050565b61048681610473565b811461049157600080fd5b50565b6000813590506104a38161047d565b92915050565b600080604083850312156104c0576104bf610323565b5b600083013567ffffffffffffffff8111156104de576104dd610328565b5b6104ea85828601610445565b92505060206104fb85828601610494565b9150509250929050565b60006020828403121561051b5761051a610323565b5b600061052984828501610494565b91505092915050565b61053b81610473565b82525050565b60006020820190506105566000830184610532565b92915050565b600081519050919050565b600082825260208201905092915050565b6000819050602082019050919050565b600081519050919050565b600082825260208201905092915050565b60005b838110156105c25780820151818401526020810190506105a7565b838111156105d1576000848401525b50505050565b60006105e282610588565b6105ec8185610593565b93506105fc8185602086016105a4565b61060581610337565b840191505092915050565b600061061c83836105d7565b905092915050565b6000602082019050919050565b600061063c8261055c565b6106468185610567565b93508360208202850161065885610578565b8060005b8581101561069457848403895281516106758582610610565b945061068083610624565b925060208a0199505060018101905061065c565b50829750879550505050505092915050565b600081519050919050565b600082825260208201905092915050565b6000819050602082019050919050565b6106db81610473565b82525050565b60006106ed83836106d2565b60208301905092915050565b6000602082019050919050565b6000610711826106a6565b61071b81856106b1565b9350610726836106c2565b8060005b8381101561075757815161073e88826106e1565b9750610749836106f9565b92505060018101905061072a565b5085935050505092915050565b6000604082019050818103600083015261077e8185610631565b905081810360208301526107928184610706565b90509392505050565b7f4e487b7100000000000000000000000000000000000000000000000000000000600052602260045260246000fd5b600060028204905060018216806107e257607f821691505b6020821081036107f5576107f461079b565b5b5091905056fea264697066735822122044b7b3b4e7539b40e094a6fb6c02673d4eb334cc395cd17e9f11f01ea57ee0e064736f6c634300080d0033",
  "immutableReferences": {},
  "source": "// SPDX-License-Identifier: MIT\r\npragma solidity >=0.4.21 <0.9.0;\r\npragma experimental ABIEncoderV2;\r\n\r\ncontract SimpleStorage {\r\n  uint storedData;\r\n  uint256 atharva = 7;\r\n  string[] candy;\r\n  uint256[] votes;\r\n\r\n  function set(uint x) public {\r\n    storedData = x;\r\n  }\r\n\r\n  function setmap(string memory name, uint256 _votes) public {\r\n    candy.push(name);\r\n    votes.push(_votes);\r\n  }\r\n\r\n  function get() public view returns (uint) {\r\n    \r\n    return storedData;\r\n  }\r\n\r\n  function getMap() public view returns(string[] memory, uint256[] memory) {\r\n    return (candy, votes);\r\n  }\r\n}\r\n\r\n",
  "sourcePath": "E:\\BlockVote\\contracts\\SimpleStorage.sol",
  "compiler": {
    "name": "solc",
    "version": "0.8.13+commit.abaa5c0e.Emscripten.clang"
  },
  "schemaVersion": "3.4.4",
  "updatedAt": "2022-03-28T17:37:54.540Z",
  "networkType": "ethereum",
  "devdoc": {
    "kind": "dev",
    "methods": {},
    "version": 1
  },
  "userdoc": {
    "kind": "user",
    "methods": {},
    "version": 1
  }
}