{
  "contractName": "TmpBlockVote",
  "abi": [
    {
      "inputs": [
        {
          "internalType": "uint256",
          "name": "",
          "type": "uint256"
        }
      ],
      "name": "Admins",
      "outputs": [
        {
          "internalType": "string",
          "name": "name",
          "type": "string"
        },
        {
          "internalType": "string",
          "name": "mobileNo",
          "type": "string"
        },
        {
          "internalType": "string",
          "name": "walletKey",
          "type": "string"
        }
      ],
      "stateMutability": "view",
      "type": "function"
    },
    {
      "inputs": [
        {
          "internalType": "uint256",
          "name": "n",
          "type": "uint256"
        }
      ],
      "name": "setT",
      "outputs": [],
      "stateMutability": "nonpayable",
      "type": "function"
    },
    {
      "inputs": [],
      "name": "getT",
      "outputs": [
        {
          "internalType": "uint256",
          "name": "",
          "type": "uint256"
        }
      ],
      "stateMutability": "view",
      "type": "function"
    },
    {
      "inputs": [
        {
          "internalType": "string",
          "name": "adName",
          "type": "string"
        },
        {
          "internalType": "string",
          "name": "adMoNo",
          "type": "string"
        },
        {
          "internalType": "string",
          "name": "adEthKey",
          "type": "string"
        }
      ],
      "name": "addAdmin",
      "outputs": [],
      "stateMutability": "nonpayable",
      "type": "function"
    },
    {
      "inputs": [],
      "name": "adminLength",
      "outputs": [
        {
          "internalType": "uint256",
          "name": "",
          "type": "uint256"
        }
      ],
      "stateMutability": "view",
      "type": "function"
    },
    {
      "inputs": [],
      "name": "getAllAdmins",
      "outputs": [
        {
          "components": [
            {
              "internalType": "string",
              "name": "name",
              "type": "string"
            },
            {
              "internalType": "string",
              "name": "mobileNo",
              "type": "string"
            },
            {
              "internalType": "string",
              "name": "walletKey",
              "type": "string"
            }
          ],
          "internalType": "struct Admin[]",
          "name": "",
          "type": "tuple[]"
        }
      ],
      "stateMutability": "view",
      "type": "function"
    }
  ],
  "bytecode": "0x608060405234801561001057600080fd5b50610c03806100206000396000f3fe608060405234801561001057600080fd5b50600436106100625760003560e01c806322554f34146100675780635982f610146100855780639f89a4b2146100a3578063dc4db7c0146100d5578063e9523c97146100f1578063f5f319411461010f575b600080fd5b61006f61012b565b60405161007c9190610698565b60405180910390f35b61008d610134565b60405161009a9190610698565b60405180910390f35b6100bd60048036038101906100b891906106f3565b610141565b6040516100cc939291906107b9565b60405180910390f35b6100ef60048036038101906100ea919061093a565b610313565b005b6100f96103bd565b6040516101069190610b4b565b60405180910390f35b610129600480360381019061012491906106f3565b6105d2565b005b60008054905090565b6000600180549050905090565b6001818154811061015157600080fd5b906000526020600020906003020160009150905080600001805461017490610b9c565b80601f01602080910402602001604051908101604052809291908181526020018280546101a090610b9c565b80156101ed5780601f106101c2576101008083540402835291602001916101ed565b820191906000526020600020905b8154815290600101906020018083116101d057829003601f168201915b50505050509080600101805461020290610b9c565b80601f016020809104026020016040519081016040528092919081815260200182805461022e90610b9c565b801561027b5780601f106102505761010080835404028352916020019161027b565b820191906000526020600020905b81548152906001019060200180831161025e57829003601f168201915b50505050509080600201805461029090610b9c565b80601f01602080910402602001604051908101604052809291908181526020018280546102bc90610b9c565b80156103095780601f106102de57610100808354040283529160200191610309565b820191906000526020600020905b8154815290600101906020018083116102ec57829003601f168201915b5050505050905083565b600060405180606001604052808581526020018481526020018381525090506001819080600181540180825580915050600190039060005260206000209060030201600090919091909150600082015181600001908051906020019061037a9291906105dc565b5060208201518160010190805190602001906103979291906105dc565b5060408201518160020190805190602001906103b49291906105dc565b50505050505050565b60606001805480602002602001604051908101604052809291908181526020016000905b828210156105c9578382906000526020600020906003020160405180606001604052908160008201805461041490610b9c565b80601f016020809104026020016040519081016040528092919081815260200182805461044090610b9c565b801561048d5780601f106104625761010080835404028352916020019161048d565b820191906000526020600020905b81548152906001019060200180831161047057829003601f168201915b505050505081526020016001820180546104a690610b9c565b80601f01602080910402602001604051908101604052809291908181526020018280546104d290610b9c565b801561051f5780601f106104f45761010080835404028352916020019161051f565b820191906000526020600020905b81548152906001019060200180831161050257829003601f168201915b5050505050815260200160028201805461053890610b9c565b80601f016020809104026020016040519081016040528092919081815260200182805461056490610b9c565b80156105b15780601f10610586576101008083540402835291602001916105b1565b820191906000526020600020905b81548152906001019060200180831161059457829003601f168201915b505050505081525050815260200190600101906103e1565b50505050905090565b8060008190555050565b8280546105e890610b9c565b90600052602060002090601f01602090048101928261060a5760008555610651565b82601f1061062357805160ff1916838001178555610651565b82800160010185558215610651579182015b82811115610650578251825591602001919060010190610635565b5b50905061065e9190610662565b5090565b5b8082111561067b576000816000905550600101610663565b5090565b6000819050919050565b6106928161067f565b82525050565b60006020820190506106ad6000830184610689565b92915050565b6000604051905090565b600080fd5b600080fd5b6106d08161067f565b81146106db57600080fd5b50565b6000813590506106ed816106c7565b92915050565b600060208284031215610709576107086106bd565b5b6000610717848285016106de565b91505092915050565b600081519050919050565b600082825260208201905092915050565b60005b8381101561075a57808201518184015260208101905061073f565b83811115610769576000848401525b50505050565b6000601f19601f8301169050919050565b600061078b82610720565b610795818561072b565b93506107a581856020860161073c565b6107ae8161076f565b840191505092915050565b600060608201905081810360008301526107d38186610780565b905081810360208301526107e78185610780565b905081810360408301526107fb8184610780565b9050949350505050565b600080fd5b600080fd5b7f4e487b7100000000000000000000000000000000000000000000000000000000600052604160045260246000fd5b6108478261076f565b810181811067ffffffffffffffff821117156108665761086561080f565b5b80604052505050565b60006108796106b3565b9050610885828261083e565b919050565b600067ffffffffffffffff8211156108a5576108a461080f565b5b6108ae8261076f565b9050602081019050919050565b82818337600083830152505050565b60006108dd6108d88461088a565b61086f565b9050828152602081018484840111156108f9576108f861080a565b5b6109048482856108bb565b509392505050565b600082601f83011261092157610920610805565b5b81356109318482602086016108ca565b91505092915050565b600080600060608486031215610953576109526106bd565b5b600084013567ffffffffffffffff811115610971576109706106c2565b5b61097d8682870161090c565b935050602084013567ffffffffffffffff81111561099e5761099d6106c2565b5b6109aa8682870161090c565b925050604084013567ffffffffffffffff8111156109cb576109ca6106c2565b5b6109d78682870161090c565b9150509250925092565b600081519050919050565b600082825260208201905092915050565b6000819050602082019050919050565b600082825260208201905092915050565b6000610a2982610720565b610a338185610a0d565b9350610a4381856020860161073c565b610a4c8161076f565b840191505092915050565b60006060830160008301518482036000860152610a748282610a1e565b91505060208301518482036020860152610a8e8282610a1e565b91505060408301518482036040860152610aa88282610a1e565b9150508091505092915050565b6000610ac18383610a57565b905092915050565b6000602082019050919050565b6000610ae1826109e1565b610aeb81856109ec565b935083602082028501610afd856109fd565b8060005b85811015610b395784840389528151610b1a8582610ab5565b9450610b2583610ac9565b925060208a01995050600181019050610b01565b50829750879550505050505092915050565b60006020820190508181036000830152610b658184610ad6565b905092915050565b7f4e487b7100000000000000000000000000000000000000000000000000000000600052602260045260246000fd5b60006002820490506001821680610bb457607f821691505b602082108103610bc757610bc6610b6d565b5b5091905056fea26469706673582212209f3b3191a170323f3c78626b413fe9595e756a22017b7ed28f6fa873d209938d64736f6c634300080d0033",
  "immutableReferences": {},
  "source": "// SPDX-License-Identifier: MIT\r\npragma solidity ^0.8.10;\r\n\r\nstruct Admin{\r\n    string name;\r\n    string mobileNo;\r\n    string walletKey;\r\n}\r\n\r\ncontract TmpBlockVote{\r\n    uint t;\r\n    Admin[] public Admins;\r\n\r\n    function setT(uint n) public{\r\n        t=n;\r\n    }\r\n    function getT() public view returns(uint){\r\n        return t;\r\n    }\r\n    \r\n    function addAdmin(string memory adName, string memory adMoNo, string memory adEthKey) public {\r\n        Admin memory newAdmin = Admin({\r\n            name:adName, \r\n            mobileNo:adMoNo,\r\n            walletKey:adEthKey\r\n        });\r\n        Admins.push(newAdmin);\r\n    }\r\n\r\n    function adminLength() public view returns(uint){\r\n        return Admins.length;\r\n    }\r\n\r\n    function getAllAdmins() public view returns(Admin[] memory){\r\n        return Admins;\r\n    }\r\n}\r\n\r\ncontract TmpEciContract is TmpBlockVote {\r\n    function getTmp() public view returns(uint){\r\n        return t;\r\n    }\r\n}",
  "sourcePath": "D:\\Blockchain-Projects\\BlockVote\\contracts\\TmpBlockVote.sol",
  "compiler": {
    "name": "solc",
    "version": "0.8.13+commit.abaa5c0e.Emscripten.clang"
  },
  "schemaVersion": "3.4.4",
  "updatedAt": "2022-04-07T09:35:47.547Z",
  "devdoc": {
    "kind": "dev",
    "methods": {},
    "version": 1
  },
  "userdoc": {
    "kind": "user",
    "methods": {},
    "version": 1
  }
}