{
  "contractName": "TmpEciContract",
  "abi": [
    {
      "inputs": [
        {
          "internalType": "uint256",
          "name": "",
          "type": "uint256"
        }
      ],
      "name": "Admins",
      "outputs": [
        {
          "internalType": "string",
          "name": "name",
          "type": "string"
        },
        {
          "internalType": "string",
          "name": "mobileNo",
          "type": "string"
        },
        {
          "internalType": "string",
          "name": "walletKey",
          "type": "string"
        }
      ],
      "stateMutability": "view",
      "type": "function"
    },
    {
      "inputs": [
        {
          "internalType": "string",
          "name": "adName",
          "type": "string"
        },
        {
          "internalType": "string",
          "name": "adMoNo",
          "type": "string"
        },
        {
          "internalType": "string",
          "name": "adEthKey",
          "type": "string"
        }
      ],
      "name": "addAdmin",
      "outputs": [],
      "stateMutability": "nonpayable",
      "type": "function"
    },
    {
      "inputs": [],
      "name": "adminLength",
      "outputs": [
        {
          "internalType": "uint256",
          "name": "",
          "type": "uint256"
        }
      ],
      "stateMutability": "view",
      "type": "function"
    },
    {
      "inputs": [],
      "name": "getAllAdmins",
      "outputs": [
        {
          "components": [
            {
              "internalType": "string",
              "name": "name",
              "type": "string"
            },
            {
              "internalType": "string",
              "name": "mobileNo",
              "type": "string"
            },
            {
              "internalType": "string",
              "name": "walletKey",
              "type": "string"
            }
          ],
          "internalType": "struct Admin[]",
          "name": "",
          "type": "tuple[]"
        }
      ],
      "stateMutability": "view",
      "type": "function"
    },
    {
      "inputs": [],
      "name": "getT",
      "outputs": [
        {
          "internalType": "uint256",
          "name": "",
          "type": "uint256"
        }
      ],
      "stateMutability": "view",
      "type": "function"
    },
    {
      "inputs": [
        {
          "internalType": "uint256",
          "name": "n",
          "type": "uint256"
        }
      ],
      "name": "setT",
      "outputs": [],
      "stateMutability": "nonpayable",
      "type": "function"
    },
    {
      "inputs": [],
      "name": "getTmp",
      "outputs": [
        {
          "internalType": "uint256",
          "name": "",
          "type": "uint256"
        }
      ],
      "stateMutability": "view",
      "type": "function"
    }
  ],
  "bytecode": "0x608060405234801561001057600080fd5b50610c45806100206000396000f3fe608060405234801561001057600080fd5b506004361061007d5760003560e01c8063b80ebb841161005b578063b80ebb84146100f0578063dc4db7c01461010e578063e9523c971461012a578063f5f31941146101485761007d565b806322554f34146100825780635982f610146100a05780639f89a4b2146100be575b600080fd5b61008a610164565b60405161009791906106da565b60405180910390f35b6100a861016d565b6040516100b591906106da565b60405180910390f35b6100d860048036038101906100d39190610735565b61017a565b6040516100e7939291906107fb565b60405180910390f35b6100f861034c565b60405161010591906106da565b60405180910390f35b6101286004803603810190610123919061097c565b610355565b005b6101326103ff565b60405161013f9190610b8d565b60405180910390f35b610162600480360381019061015d9190610735565b610614565b005b60008054905090565b6000600180549050905090565b6001818154811061018a57600080fd5b90600052602060002090600302016000915090508060000180546101ad90610bde565b80601f01602080910402602001604051908101604052809291908181526020018280546101d990610bde565b80156102265780601f106101fb57610100808354040283529160200191610226565b820191906000526020600020905b81548152906001019060200180831161020957829003601f168201915b50505050509080600101805461023b90610bde565b80601f016020809104026020016040519081016040528092919081815260200182805461026790610bde565b80156102b45780601f10610289576101008083540402835291602001916102b4565b820191906000526020600020905b81548152906001019060200180831161029757829003601f168201915b5050505050908060020180546102c990610bde565b80601f01602080910402602001604051908101604052809291908181526020018280546102f590610bde565b80156103425780601f1061031757610100808354040283529160200191610342565b820191906000526020600020905b81548152906001019060200180831161032557829003601f168201915b5050505050905083565b60008054905090565b60006040518060600160405280858152602001848152602001838152509050600181908060018154018082558091505060019003906000526020600020906003020160009091909190915060008201518160000190805190602001906103bc92919061061e565b5060208201518160010190805190602001906103d992919061061e565b5060408201518160020190805190602001906103f692919061061e565b50505050505050565b60606001805480602002602001604051908101604052809291908181526020016000905b8282101561060b578382906000526020600020906003020160405180606001604052908160008201805461045690610bde565b80601f016020809104026020016040519081016040528092919081815260200182805461048290610bde565b80156104cf5780601f106104a4576101008083540402835291602001916104cf565b820191906000526020600020905b8154815290600101906020018083116104b257829003601f168201915b505050505081526020016001820180546104e890610bde565b80601f016020809104026020016040519081016040528092919081815260200182805461051490610bde565b80156105615780601f1061053657610100808354040283529160200191610561565b820191906000526020600020905b81548152906001019060200180831161054457829003601f168201915b5050505050815260200160028201805461057a90610bde565b80601f01602080910402602001604051908101604052809291908181526020018280546105a690610bde565b80156105f35780601f106105c8576101008083540402835291602001916105f3565b820191906000526020600020905b8154815290600101906020018083116105d657829003601f168201915b50505050508152505081526020019060010190610423565b50505050905090565b8060008190555050565b82805461062a90610bde565b90600052602060002090601f01602090048101928261064c5760008555610693565b82601f1061066557805160ff1916838001178555610693565b82800160010185558215610693579182015b82811115610692578251825591602001919060010190610677565b5b5090506106a091906106a4565b5090565b5b808211156106bd5760008160009055506001016106a5565b5090565b6000819050919050565b6106d4816106c1565b82525050565b60006020820190506106ef60008301846106cb565b92915050565b6000604051905090565b600080fd5b600080fd5b610712816106c1565b811461071d57600080fd5b50565b60008135905061072f81610709565b92915050565b60006020828403121561074b5761074a6106ff565b5b600061075984828501610720565b91505092915050565b600081519050919050565b600082825260208201905092915050565b60005b8381101561079c578082015181840152602081019050610781565b838111156107ab576000848401525b50505050565b6000601f19601f8301169050919050565b60006107cd82610762565b6107d7818561076d565b93506107e781856020860161077e565b6107f0816107b1565b840191505092915050565b6000606082019050818103600083015261081581866107c2565b9050818103602083015261082981856107c2565b9050818103604083015261083d81846107c2565b9050949350505050565b600080fd5b600080fd5b7f4e487b7100000000000000000000000000000000000000000000000000000000600052604160045260246000fd5b610889826107b1565b810181811067ffffffffffffffff821117156108a8576108a7610851565b5b80604052505050565b60006108bb6106f5565b90506108c78282610880565b919050565b600067ffffffffffffffff8211156108e7576108e6610851565b5b6108f0826107b1565b9050602081019050919050565b82818337600083830152505050565b600061091f61091a846108cc565b6108b1565b90508281526020810184848401111561093b5761093a61084c565b5b6109468482856108fd565b509392505050565b600082601f83011261096357610962610847565b5b813561097384826020860161090c565b91505092915050565b600080600060608486031215610995576109946106ff565b5b600084013567ffffffffffffffff8111156109b3576109b2610704565b5b6109bf8682870161094e565b935050602084013567ffffffffffffffff8111156109e0576109df610704565b5b6109ec8682870161094e565b925050604084013567ffffffffffffffff811115610a0d57610a0c610704565b5b610a198682870161094e565b9150509250925092565b600081519050919050565b600082825260208201905092915050565b6000819050602082019050919050565b600082825260208201905092915050565b6000610a6b82610762565b610a758185610a4f565b9350610a8581856020860161077e565b610a8e816107b1565b840191505092915050565b60006060830160008301518482036000860152610ab68282610a60565b91505060208301518482036020860152610ad08282610a60565b91505060408301518482036040860152610aea8282610a60565b9150508091505092915050565b6000610b038383610a99565b905092915050565b6000602082019050919050565b6000610b2382610a23565b610b2d8185610a2e565b935083602082028501610b3f85610a3f565b8060005b85811015610b7b5784840389528151610b5c8582610af7565b9450610b6783610b0b565b925060208a01995050600181019050610b43565b50829750879550505050505092915050565b60006020820190508181036000830152610ba78184610b18565b905092915050565b7f4e487b7100000000000000000000000000000000000000000000000000000000600052602260045260246000fd5b60006002820490506001821680610bf657607f821691505b602082108103610c0957610c08610baf565b5b5091905056fea2646970667358221220d58f4ec95c79b3cf7007a5e05ad7190bf2235e26a758890443420f1b57ce3d4064736f6c634300080d0033",
  "immutableReferences": {},
  "source": "// SPDX-License-Identifier: MIT\r\npragma solidity ^0.8.10;\r\n\r\nstruct Admin{\r\n    string name;\r\n    string mobileNo;\r\n    string walletKey;\r\n}\r\n\r\ncontract TmpBlockVote{\r\n    uint t;\r\n    Admin[] public Admins;\r\n\r\n    function setT(uint n) public{\r\n        t=n;\r\n    }\r\n    function getT() public view returns(uint){\r\n        return t;\r\n    }\r\n    \r\n    function addAdmin(string memory adName, string memory adMoNo, string memory adEthKey) public {\r\n        Admin memory newAdmin = Admin({\r\n            name:adName, \r\n            mobileNo:adMoNo,\r\n            walletKey:adEthKey\r\n        });\r\n        Admins.push(newAdmin);\r\n    }\r\n\r\n    function adminLength() public view returns(uint){\r\n        return Admins.length;\r\n    }\r\n\r\n    function getAllAdmins() public view returns(Admin[] memory){\r\n        return Admins;\r\n    }\r\n}\r\n\r\ncontract TmpEciContract is TmpBlockVote {\r\n    function getTmp() public view returns(uint){\r\n        return t;\r\n    }\r\n}",
  "sourcePath": "D:\\Blockchain-Projects\\BlockVote\\contracts\\TmpBlockVote.sol",
  "compiler": {
    "name": "solc",
    "version": "0.8.13+commit.abaa5c0e.Emscripten.clang"
  },
  "schemaVersion": "3.4.4",
  "updatedAt": "2022-03-31T15:13:46.819Z",
  "devdoc": {
    "kind": "dev",
    "methods": {},
    "version": 1
  },
  "userdoc": {
    "kind": "user",
    "methods": {},
    "version": 1
  }
}