{
  "contractName": "VoterCon",
  "abi": [
    {
      "inputs": [
        {
          "internalType": "string",
          "name": "_name",
          "type": "string"
        },
        {
          "internalType": "string",
          "name": "_mobileNo",
          "type": "string"
        },
        {
          "internalType": "string",
          "name": "_homeAddress",
          "type": "string"
        },
        {
          "internalType": "string",
          "name": "_aadharCardNo",
          "type": "string"
        },
        {
          "internalType": "string",
          "name": "_voterId",
          "type": "string"
        },
        {
          "internalType": "string",
          "name": "_walletKey",
          "type": "string"
        }
      ],
      "stateMutability": "nonpayable",
      "type": "constructor"
    },
    {
      "inputs": [
        {
          "internalType": "uint256",
          "name": "",
          "type": "uint256"
        }
      ],
      "name": "_candidates",
      "outputs": [
        {
          "internalType": "string",
          "name": "",
          "type": "string"
        }
      ],
      "stateMutability": "view",
      "type": "function"
    },
    {
      "inputs": [
        {
          "internalType": "uint256",
          "name": "",
          "type": "uint256"
        }
      ],
      "name": "_votes",
      "outputs": [
        {
          "internalType": "uint256",
          "name": "",
          "type": "uint256"
        }
      ],
      "stateMutability": "view",
      "type": "function"
    },
    {
      "inputs": [
        {
          "components": [
            {
              "internalType": "string",
              "name": "name",
              "type": "string"
            },
            {
              "internalType": "string",
              "name": "mobileNo",
              "type": "string"
            },
            {
              "internalType": "string",
              "name": "walletKey",
              "type": "string"
            }
          ],
          "internalType": "struct Admin",
          "name": "item",
          "type": "tuple"
        }
      ],
      "name": "addAdmin",
      "outputs": [],
      "stateMutability": "nonpayable",
      "type": "function"
    },
    {
      "inputs": [
        {
          "components": [
            {
              "internalType": "string",
              "name": "name",
              "type": "string"
            },
            {
              "internalType": "string",
              "name": "mobileNo",
              "type": "string"
            },
            {
              "internalType": "string",
              "name": "homeAddress",
              "type": "string"
            },
            {
              "internalType": "string",
              "name": "aadharCardNo",
              "type": "string"
            },
            {
              "internalType": "string",
              "name": "voterId",
              "type": "string"
            },
            {
              "internalType": "string",
              "name": "walletKey",
              "type": "string"
            },
            {
              "internalType": "string",
              "name": "politicalParty",
              "type": "string"
            },
            {
              "internalType": "uint256",
              "name": "votes",
              "type": "uint256"
            }
          ],
          "internalType": "struct Candidate",
          "name": "item",
          "type": "tuple"
        }
      ],
      "name": "addCandidate",
      "outputs": [],
      "stateMutability": "nonpayable",
      "type": "function"
    },
    {
      "inputs": [
        {
          "internalType": "string",
          "name": "walletKey",
          "type": "string"
        },
        {
          "components": [
            {
              "internalType": "string",
              "name": "name",
              "type": "string"
            },
            {
              "internalType": "string",
              "name": "mobileNo",
              "type": "string"
            },
            {
              "internalType": "string",
              "name": "walletKey",
              "type": "string"
            }
          ],
          "internalType": "struct Admin",
          "name": "a",
          "type": "tuple"
        }
      ],
      "name": "addToAdminsMap",
      "outputs": [],
      "stateMutability": "nonpayable",
      "type": "function"
    },
    {
      "inputs": [
        {
          "internalType": "string",
          "name": "walletKey",
          "type": "string"
        },
        {
          "components": [
            {
              "internalType": "string",
              "name": "name",
              "type": "string"
            },
            {
              "internalType": "string",
              "name": "mobileNo",
              "type": "string"
            },
            {
              "internalType": "string",
              "name": "homeAddress",
              "type": "string"
            },
            {
              "internalType": "string",
              "name": "aadharCardNo",
              "type": "string"
            },
            {
              "internalType": "string",
              "name": "voterId",
              "type": "string"
            },
            {
              "internalType": "string",
              "name": "walletKey",
              "type": "string"
            },
            {
              "internalType": "string",
              "name": "politicalParty",
              "type": "string"
            },
            {
              "internalType": "uint256",
              "name": "votes",
              "type": "uint256"
            }
          ],
          "internalType": "struct Candidate",
          "name": "c",
          "type": "tuple"
        }
      ],
      "name": "addToCandidatesMap",
      "outputs": [],
      "stateMutability": "nonpayable",
      "type": "function"
    },
    {
      "inputs": [
        {
          "components": [
            {
              "internalType": "string",
              "name": "name",
              "type": "string"
            },
            {
              "internalType": "string",
              "name": "mobileNo",
              "type": "string"
            },
            {
              "internalType": "string",
              "name": "homeAddress",
              "type": "string"
            },
            {
              "internalType": "string",
              "name": "aadharCardNo",
              "type": "string"
            },
            {
              "internalType": "string",
              "name": "voterId",
              "type": "string"
            },
            {
              "internalType": "string",
              "name": "walletKey",
              "type": "string"
            },
            {
              "internalType": "bool",
              "name": "isVoted",
              "type": "bool"
            }
          ],
          "internalType": "struct Voter",
          "name": "item",
          "type": "tuple"
        }
      ],
      "name": "addVoter",
      "outputs": [
        {
          "internalType": "string",
          "name": "",
          "type": "string"
        }
      ],
      "stateMutability": "nonpayable",
      "type": "function"
    },
    {
      "inputs": [],
      "name": "adminLength",
      "outputs": [
        {
          "internalType": "uint256",
          "name": "",
          "type": "uint256"
        }
      ],
      "stateMutability": "view",
      "type": "function"
    },
    {
      "inputs": [
        {
          "internalType": "uint256",
          "name": "",
          "type": "uint256"
        }
      ],
      "name": "admins",
      "outputs": [
        {
          "internalType": "string",
          "name": "name",
          "type": "string"
        },
        {
          "internalType": "string",
          "name": "mobileNo",
          "type": "string"
        },
        {
          "internalType": "string",
          "name": "walletKey",
          "type": "string"
        }
      ],
      "stateMutability": "view",
      "type": "function"
    },
    {
      "inputs": [
        {
          "internalType": "string",
          "name": "",
          "type": "string"
        }
      ],
      "name": "adminsMap",
      "outputs": [
        {
          "internalType": "string",
          "name": "name",
          "type": "string"
        },
        {
          "internalType": "string",
          "name": "mobileNo",
          "type": "string"
        },
        {
          "internalType": "string",
          "name": "walletKey",
          "type": "string"
        }
      ],
      "stateMutability": "view",
      "type": "function"
    },
    {
      "inputs": [
        {
          "internalType": "string",
          "name": "s1",
          "type": "string"
        },
        {
          "internalType": "string",
          "name": "s2",
          "type": "string"
        }
      ],
      "name": "areStringsEqual",
      "outputs": [
        {
          "internalType": "bool",
          "name": "",
          "type": "bool"
        }
      ],
      "stateMutability": "pure",
      "type": "function"
    },
    {
      "inputs": [
        {
          "internalType": "string",
          "name": "_walletKey",
          "type": "string"
        }
      ],
      "name": "authenticateAdmin",
      "outputs": [
        {
          "internalType": "bool",
          "name": "",
          "type": "bool"
        }
      ],
      "stateMutability": "view",
      "type": "function"
    },
    {
      "inputs": [
        {
          "internalType": "uint256",
          "name": "",
          "type": "uint256"
        }
      ],
      "name": "candidate_names",
      "outputs": [
        {
          "internalType": "string",
          "name": "",
          "type": "string"
        }
      ],
      "stateMutability": "view",
      "type": "function"
    },
    {
      "inputs": [
        {
          "internalType": "uint256",
          "name": "",
          "type": "uint256"
        }
      ],
      "name": "candidates",
      "outputs": [
        {
          "internalType": "string",
          "name": "name",
          "type": "string"
        },
        {
          "internalType": "string",
          "name": "mobileNo",
          "type": "string"
        },
        {
          "internalType": "string",
          "name": "homeAddress",
          "type": "string"
        },
        {
          "internalType": "string",
          "name": "aadharCardNo",
          "type": "string"
        },
        {
          "internalType": "string",
          "name": "voterId",
          "type": "string"
        },
        {
          "internalType": "string",
          "name": "walletKey",
          "type": "string"
        },
        {
          "internalType": "string",
          "name": "politicalParty",
          "type": "string"
        },
        {
          "internalType": "uint256",
          "name": "votes",
          "type": "uint256"
        }
      ],
      "stateMutability": "view",
      "type": "function"
    },
    {
      "inputs": [
        {
          "internalType": "string",
          "name": "",
          "type": "string"
        }
      ],
      "name": "candidatesMap",
      "outputs": [
        {
          "internalType": "string",
          "name": "name",
          "type": "string"
        },
        {
          "internalType": "string",
          "name": "mobileNo",
          "type": "string"
        },
        {
          "internalType": "string",
          "name": "homeAddress",
          "type": "string"
        },
        {
          "internalType": "string",
          "name": "aadharCardNo",
          "type": "string"
        },
        {
          "internalType": "string",
          "name": "voterId",
          "type": "string"
        },
        {
          "internalType": "string",
          "name": "walletKey",
          "type": "string"
        },
        {
          "internalType": "string",
          "name": "politicalParty",
          "type": "string"
        },
        {
          "internalType": "uint256",
          "name": "votes",
          "type": "uint256"
        }
      ],
      "stateMutability": "view",
      "type": "function"
    },
    {
      "inputs": [],
      "name": "getCandidates",
      "outputs": [
        {
          "internalType": "string[]",
          "name": "",
          "type": "string[]"
        }
      ],
      "stateMutability": "nonpayable",
      "type": "function"
    },
    {
      "inputs": [],
      "name": "getResults",
      "outputs": [
        {
          "internalType": "string[]",
          "name": "",
          "type": "string[]"
        },
        {
          "internalType": "uint256[]",
          "name": "",
          "type": "uint256[]"
        }
      ],
      "stateMutability": "nonpayable",
      "type": "function"
    },
    {
      "inputs": [
        {
          "internalType": "string",
          "name": "_walletKey",
          "type": "string"
        }
      ],
      "name": "getVoterId",
      "outputs": [
        {
          "internalType": "string",
          "name": "",
          "type": "string"
        }
      ],
      "stateMutability": "nonpayable",
      "type": "function"
    },
    {
      "inputs": [
        {
          "internalType": "string",
          "name": "_voterid",
          "type": "string"
        }
      ],
      "name": "hasVoted",
      "outputs": [
        {
          "internalType": "bool",
          "name": "",
          "type": "bool"
        }
      ],
      "stateMutability": "view",
      "type": "function"
    },
    {
      "inputs": [
        {
          "internalType": "string",
          "name": "_walletKey",
          "type": "string"
        }
      ],
      "name": "isAdminRegistered",
      "outputs": [
        {
          "internalType": "bool",
          "name": "",
          "type": "bool"
        }
      ],
      "stateMutability": "view",
      "type": "function"
    },
    {
      "inputs": [
        {
          "internalType": "string",
          "name": "_walletKey",
          "type": "string"
        }
      ],
      "name": "isCandidateRegistered",
      "outputs": [
        {
          "internalType": "bool",
          "name": "",
          "type": "bool"
        }
      ],
      "stateMutability": "view",
      "type": "function"
    },
    {
      "inputs": [
        {
          "components": [
            {
              "internalType": "string",
              "name": "name",
              "type": "string"
            },
            {
              "internalType": "string",
              "name": "mobileNo",
              "type": "string"
            },
            {
              "internalType": "string",
              "name": "homeAddress",
              "type": "string"
            },
            {
              "internalType": "string",
              "name": "aadharCardNo",
              "type": "string"
            },
            {
              "internalType": "string",
              "name": "voterId",
              "type": "string"
            },
            {
              "internalType": "string",
              "name": "walletKey",
              "type": "string"
            },
            {
              "internalType": "bool",
              "name": "isVoted",
              "type": "bool"
            }
          ],
          "internalType": "struct Voter",
          "name": "item",
          "type": "tuple"
        }
      ],
      "name": "isVoterRegistered",
      "outputs": [
        {
          "internalType": "bool",
          "name": "",
          "type": "bool"
        }
      ],
      "stateMutability": "view",
      "type": "function"
    },
    {
      "inputs": [
        {
          "internalType": "string",
          "name": "",
          "type": "string"
        }
      ],
      "name": "map_voterid_details",
      "outputs": [
        {
          "internalType": "string",
          "name": "name",
          "type": "string"
        },
        {
          "internalType": "string",
          "name": "mobileNo",
          "type": "string"
        },
        {
          "internalType": "string",
          "name": "homeAddress",
          "type": "string"
        },
        {
          "internalType": "string",
          "name": "aadharCardNo",
          "type": "string"
        },
        {
          "internalType": "string",
          "name": "voterId",
          "type": "string"
        },
        {
          "internalType": "string",
          "name": "walletKey",
          "type": "string"
        },
        {
          "internalType": "bool",
          "name": "isVoted",
          "type": "bool"
        }
      ],
      "stateMutability": "view",
      "type": "function"
    },
    {
      "inputs": [
        {
          "internalType": "string",
          "name": "",
          "type": "string"
        }
      ],
      "name": "map_walletKey_voterid",
      "outputs": [
        {
          "internalType": "string",
          "name": "",
          "type": "string"
        }
      ],
      "stateMutability": "view",
      "type": "function"
    },
    {
      "inputs": [
        {
          "internalType": "string",
          "name": "_voterid",
          "type": "string"
        },
        {
          "components": [
            {
              "internalType": "string",
              "name": "name",
              "type": "string"
            },
            {
              "internalType": "string",
              "name": "mobileNo",
              "type": "string"
            },
            {
              "internalType": "string",
              "name": "homeAddress",
              "type": "string"
            },
            {
              "internalType": "string",
              "name": "aadharCardNo",
              "type": "string"
            },
            {
              "internalType": "string",
              "name": "voterId",
              "type": "string"
            },
            {
              "internalType": "string",
              "name": "walletKey",
              "type": "string"
            },
            {
              "internalType": "bool",
              "name": "isVoted",
              "type": "bool"
            }
          ],
          "internalType": "struct Voter",
          "name": "v",
          "type": "tuple"
        }
      ],
      "name": "setMapVoterDetails",
      "outputs": [],
      "stateMutability": "nonpayable",
      "type": "function"
    },
    {
      "inputs": [
        {
          "internalType": "string",
          "name": "_voterid",
          "type": "string"
        }
      ],
      "name": "setVoterId",
      "outputs": [],
      "stateMutability": "nonpayable",
      "type": "function"
    },
    {
      "inputs": [],
      "name": "v",
      "outputs": [
        {
          "internalType": "string",
          "name": "name",
          "type": "string"
        },
        {
          "internalType": "string",
          "name": "mobileNo",
          "type": "string"
        },
        {
          "internalType": "string",
          "name": "homeAddress",
          "type": "string"
        },
        {
          "internalType": "string",
          "name": "aadharCardNo",
          "type": "string"
        },
        {
          "internalType": "string",
          "name": "voterId",
          "type": "string"
        },
        {
          "internalType": "string",
          "name": "walletKey",
          "type": "string"
        },
        {
          "internalType": "bool",
          "name": "isVoted",
          "type": "bool"
        }
      ],
      "stateMutability": "view",
      "type": "function"
    },
    {
      "inputs": [
        {
          "internalType": "string",
          "name": "_voterId",
          "type": "string"
        },
        {
          "internalType": "string",
          "name": "_walletKey",
          "type": "string"
        },
        {
          "internalType": "uint256",
          "name": "choice",
          "type": "uint256"
        }
      ],
      "name": "vote",
      "outputs": [
        {
          "internalType": "bool",
          "name": "",
          "type": "bool"
        }
      ],
      "stateMutability": "nonpayable",
      "type": "function"
    },
    {
      "inputs": [
        {
          "internalType": "string",
          "name": "_voterId",
          "type": "string"
        },
        {
          "internalType": "uint256",
          "name": "choice",
          "type": "uint256"
        }
      ],
      "name": "voteThroughAdmin",
      "outputs": [
        {
          "internalType": "bool",
          "name": "",
          "type": "bool"
        }
      ],
      "stateMutability": "nonpayable",
      "type": "function"
    },
    {
      "inputs": [],
      "name": "voterLength",
      "outputs": [
        {
          "internalType": "uint256",
          "name": "",
          "type": "uint256"
        }
      ],
      "stateMutability": "view",
      "type": "function"
    },
    {
      "inputs": [
        {
          "internalType": "uint256",
          "name": "",
          "type": "uint256"
        }
      ],
      "name": "voters",
      "outputs": [
        {
          "internalType": "string",
          "name": "name",
          "type": "string"
        },
        {
          "internalType": "string",
          "name": "mobileNo",
          "type": "string"
        },
        {
          "internalType": "string",
          "name": "homeAddress",
          "type": "string"
        },
        {
          "internalType": "string",
          "name": "aadharCardNo",
          "type": "string"
        },
        {
          "internalType": "string",
          "name": "voterId",
          "type": "string"
        },
        {
          "internalType": "string",
          "name": "walletKey",
          "type": "string"
        },
        {
          "internalType": "bool",
          "name": "isVoted",
          "type": "bool"
        }
      ],
      "stateMutability": "view",
      "type": "function"
    }
  ],
  "bytecode": "0x60806040526000805560405180602001604052806000815250600190805190602001906200002f92919062000df0565b506040518060400160405280600981526020017f707265566f74696e670000000000000000000000000000000000000000000000815250600590805190602001906200007d92919062000df0565b503480156200008b57600080fd5b506040516200596d3803806200596d8339818101604052810190620000b191906200103d565b85600d6000019080519060200190620000cc92919062000df0565b5084600d6001019080519060200190620000e892919062000df0565b5083600d60020190805190602001906200010492919062000df0565b5082600d60030190805190602001906200012092919062000df0565b5081600d60040190805190602001906200013c92919062000df0565b5080600d60050190805190602001906200015892919062000df0565b506000600d60060160006101000a81548160ff0219169083151502179055506200054b600d6040518060e00160405290816000820180546200019a90620011c2565b80601f0160208091040260200160405190810160405280929190818152602001828054620001c890620011c2565b8015620002195780601f10620001ed5761010080835404028352916020019162000219565b820191906000526020600020905b815481529060010190602001808311620001fb57829003601f168201915b505050505081526020016001820180546200023490620011c2565b80601f01602080910402602001604051908101604052809291908181526020018280546200026290620011c2565b8015620002b35780601f106200028757610100808354040283529160200191620002b3565b820191906000526020600020905b8154815290600101906020018083116200029557829003601f168201915b50505050508152602001600282018054620002ce90620011c2565b80601f0160208091040260200160405190810160405280929190818152602001828054620002fc90620011c2565b80156200034d5780601f1062000321576101008083540402835291602001916200034d565b820191906000526020600020905b8154815290600101906020018083116200032f57829003601f168201915b505050505081526020016003820180546200036890620011c2565b80601f01602080910402602001604051908101604052809291908181526020018280546200039690620011c2565b8015620003e75780601f10620003bb57610100808354040283529160200191620003e7565b820191906000526020600020905b815481529060010190602001808311620003c957829003601f168201915b505050505081526020016004820180546200040290620011c2565b80601f01602080910402602001604051908101604052809291908181526020018280546200043090620011c2565b8015620004815780601f10620004555761010080835404028352916020019162000481565b820191906000526020600020905b8154815290600101906020018083116200046357829003601f168201915b505050505081526020016005820180546200049c90620011c2565b80601f0160208091040260200160405190810160405280929190818152602001828054620004ca90620011c2565b80156200051b5780601f10620004ef576101008083540402835291602001916200051b565b820191906000526020600020905b815481529060010190602001808311620004fd57829003601f168201915b505050505081526020016006820160009054906101000a900460ff1615151515815250506200092d60201b60201c565b506200092182600d6040518060e00160405290816000820180546200057090620011c2565b80601f01602080910402602001604051908101604052809291908181526020018280546200059e90620011c2565b8015620005ef5780601f10620005c357610100808354040283529160200191620005ef565b820191906000526020600020905b815481529060010190602001808311620005d157829003601f168201915b505050505081526020016001820180546200060a90620011c2565b80601f01602080910402602001604051908101604052809291908181526020018280546200063890620011c2565b8015620006895780601f106200065d5761010080835404028352916020019162000689565b820191906000526020600020905b8154815290600101906020018083116200066b57829003601f168201915b50505050508152602001600282018054620006a490620011c2565b80601f0160208091040260200160405190810160405280929190818152602001828054620006d290620011c2565b8015620007235780601f10620006f75761010080835404028352916020019162000723565b820191906000526020600020905b8154815290600101906020018083116200070557829003601f168201915b505050505081526020016003820180546200073e90620011c2565b80601f01602080910402602001604051908101604052809291908181526020018280546200076c90620011c2565b8015620007bd5780601f106200079157610100808354040283529160200191620007bd565b820191906000526020600020905b8154815290600101906020018083116200079f57829003601f168201915b50505050508152602001600482018054620007d890620011c2565b80601f01602080910402602001604051908101604052809291908181526020018280546200080690620011c2565b8015620008575780601f106200082b5761010080835404028352916020019162000857565b820191906000526020600020905b8154815290600101906020018083116200083957829003601f168201915b505050505081526020016005820180546200087290620011c2565b80601f0160208091040260200160405190810160405280929190818152602001828054620008a090620011c2565b8015620008f15780601f10620008c557610100808354040283529160200191620008f1565b820191906000526020600020905b815481529060010190602001808311620008d357829003601f168201915b505050505081526020016006820160009054906101000a900460ff16151515158152505062000bae60201b60201c565b50505050505062001357565b6060620009408262000cef60201b60201c565b15801562000a24575062000a22600580546200095c90620011c2565b80601f01602080910402602001604051908101604052809291908181526020018280546200098a90620011c2565b8015620009db5780601f10620009af57610100808354040283529160200191620009db565b820191906000526020600020905b815481529060010190602001808311620009bd57829003601f168201915b50505050506040518060400160405280600681526020017f526573756c74000000000000000000000000000000000000000000000000000081525062000d8160201b60201c565b155b1562000b70576002829080600181540180825580915050600190039060005260206000209060070201600090919091909150600082015181600001908051906020019062000a7492919062000df0565b50602082015181600101908051906020019062000a9392919062000df0565b50604082015181600201908051906020019062000ab292919062000df0565b50606082015181600301908051906020019062000ad192919062000df0565b50608082015181600401908051906020019062000af092919062000df0565b5060a082015181600501908051906020019062000b0f92919062000df0565b5060c08201518160060160006101000a81548160ff02191690831515021790555050506040518060400160405280600a81526020017f7573657220616464656400000000000000000000000000000000000000000000815250905062000ba9565b6040518060400160405280601381526020017f7573657220616c7265616479206578697374730000000000000000000000000081525090505b919050565b8060078360405162000bc1919062001244565b9081526020016040518091039020600082015181600001908051906020019062000bed92919062000df0565b50602082015181600101908051906020019062000c0c92919062000df0565b50604082015181600201908051906020019062000c2b92919062000df0565b50606082015181600301908051906020019062000c4a92919062000df0565b50608082015181600401908051906020019062000c6992919062000df0565b5060a082015181600501908051906020019062000c8892919062000df0565b5060c08201518160060160006101000a81548160ff021916908315150217905550905050806080015160068260a0015160405162000cc7919062001244565b9081526020016040518091039020908051906020019062000cea92919062000df0565b505050565b600060405160200162000d029062001287565b604051602081830303815290604052805190602001206007836080015160405162000d2e919062001244565b908152602001604051809103902060000160405160200162000d5191906200133e565b604051602081830303815290604052805190602001201462000d77576001905062000d7c565b600090505b919050565b60008160405160200162000d96919062001244565b604051602081830303815290604052805190602001208360405160200162000dbf919062001244565b604051602081830303815290604052805190602001200362000de5576001905062000dea565b600090505b92915050565b82805462000dfe90620011c2565b90600052602060002090601f01602090048101928262000e22576000855562000e6e565b82601f1062000e3d57805160ff191683800117855562000e6e565b8280016001018555821562000e6e579182015b8281111562000e6d57825182559160200191906001019062000e50565b5b50905062000e7d919062000e81565b5090565b5b8082111562000e9c57600081600090555060010162000e82565b5090565b6000604051905090565b600080fd5b600080fd5b600080fd5b600080fd5b6000601f19601f8301169050919050565b7f4e487b7100000000000000000000000000000000000000000000000000000000600052604160045260246000fd5b62000f098262000ebe565b810181811067ffffffffffffffff8211171562000f2b5762000f2a62000ecf565b5b80604052505050565b600062000f4062000ea0565b905062000f4e828262000efe565b919050565b600067ffffffffffffffff82111562000f715762000f7062000ecf565b5b62000f7c8262000ebe565b9050602081019050919050565b60005b8381101562000fa957808201518184015260208101905062000f8c565b8381111562000fb9576000848401525b50505050565b600062000fd662000fd08462000f53565b62000f34565b90508281526020810184848401111562000ff55762000ff462000eb9565b5b6200100284828562000f89565b509392505050565b600082601f83011262001022576200102162000eb4565b5b81516200103484826020860162000fbf565b91505092915050565b60008060008060008060c087890312156200105d576200105c62000eaa565b5b600087015167ffffffffffffffff8111156200107e576200107d62000eaf565b5b6200108c89828a016200100a565b965050602087015167ffffffffffffffff811115620010b057620010af62000eaf565b5b620010be89828a016200100a565b955050604087015167ffffffffffffffff811115620010e257620010e162000eaf565b5b620010f089828a016200100a565b945050606087015167ffffffffffffffff81111562001114576200111362000eaf565b5b6200112289828a016200100a565b935050608087015167ffffffffffffffff81111562001146576200114562000eaf565b5b6200115489828a016200100a565b92505060a087015167ffffffffffffffff81111562001178576200117762000eaf565b5b6200118689828a016200100a565b9150509295509295509295565b7f4e487b7100000000000000000000000000000000000000000000000000000000600052602260045260246000fd5b60006002820490506001821680620011db57607f821691505b602082108103620011f157620011f062001193565b5b50919050565b600081519050919050565b600081905092915050565b60006200121a82620011f7565b62001226818562001202565b93506200123881856020860162000f89565b80840191505092915050565b60006200125282846200120d565b915081905092915050565b50565b60006200126f60008362001202565b91506200127c826200125d565b600082019050919050565b6000620012948262001260565b9150819050919050565b60008190508160005260206000209050919050565b60008154620012c281620011c2565b620012ce818662001202565b94506001821660008114620012ec5760018114620012fe5762001335565b60ff1983168652818601935062001335565b62001309856200129e565b60005b838110156200132d578154818901526001820191506020810190506200130c565b838801955050505b50505092915050565b60006200134c8284620012b3565b915081905092915050565b61460680620013676000396000f3fe608060405234801561001057600080fd5b50600436106101e55760003560e01c806361e221e41161010f578063aebd20f0116100a2578063da58c7d911610071578063da58c7d914610640578063f372514614610676578063f6249c04146106ad578063fe06e087146106dd576101e5565b8063aebd20f014610578578063b1496cd4146105ae578063bea48894146105de578063c38c5b231461060e576101e5565b80637c2efcba116100de5780637c2efcba146104d85780639c0585b0146104fc578063a69945fb1461052c578063a7d27b031461055c576101e5565b806361e221e41461043e578063648a305a1461045a5780637820d3841461048a5780637a4c96ad146104a8576101e5565b8063455ab588116101875780635097086f116101565780635097086f1461039057806351b09065146103c0578063565e802a146103f05780635982f61014610420576101e5565b8063455ab588146103095780634717f97c1461032557806348c82952146103445780634fbe75c114610360576101e5565b806322d2ee01116101c357806322d2ee01146102565780632ec66043146102725780633477ee2e146102a257806339bfeae3146102d9576101e5565b806306a49fce146101ea57806314bfd6d0146102085780632054449e1461023a575b600080fd5b6101f261070d565b6040516101ff91906136ab565b60405180910390f35b610222600480360381019061021d9190613717565b61086e565b6040516102319392919061378e565b60405180910390f35b610254600480360381019061024f91906139d1565b610a40565b005b610270600480360381019061026b9190613bd7565b610abd565b005b61028c60048036038101906102879190613c4f565b610bb8565b6040516102999190613c98565b60405180910390f35b6102bc60048036038101906102b79190613717565b610c6e565b6040516102d0989796959493929190613cc9565b60405180910390f35b6102f360048036038101906102ee9190613c4f565b61107e565b6040516103009190613d93565b60405180910390f35b610323600480360381019061031e9190613dae565b6110b6565b005b61032d6112a1565b60405161033b929190613eb5565b60405180910390f35b61035e60048036038101906103599190614074565b61157a565b005b61037a600480360381019061037591906140ec565b6116a9565b6040516103879190613d93565b60405180910390f35b6103aa60048036038101906103a59190614135565b611733565b6040516103b79190613d93565b60405180910390f35b6103da60048036038101906103d59190613717565b611914565b6040516103e79190613c98565b60405180910390f35b61040a60048036038101906104059190613c4f565b6119c0565b6040516104179190613d93565b60405180910390f35b610428611a46565b6040516104359190614191565b60405180910390f35b610458600480360381019061045391906141ac565b611a53565b005b610474600480360381019061046f9190613717565b611bcf565b6040516104819190613c98565b60405180910390f35b610492611c7b565b60405161049f9190614191565b60405180910390f35b6104c260048036038101906104bd91906141f5565b611c88565b6040516104cf9190613d93565b60405180910390f35b6104e0611f2b565b6040516104f39796959493929190614280565b60405180910390f35b61051660048036038101906105119190613c4f565b612298565b6040516105239190613d93565b60405180910390f35b61054660048036038101906105419190613c4f565b61231e565b6040516105539190613d93565b60405180910390f35b61057660048036038101906105719190613c4f565b612341565b005b610592600480360381019061058d9190613c4f565b61235b565b6040516105a59796959493929190614280565b60405180910390f35b6105c860048036038101906105c39190614319565b6126f0565b6040516105d59190613d93565b60405180910390f35b6105f860048036038101906105f39190613717565b612759565b6040516106059190614191565b60405180910390f35b61062860048036038101906106239190613c4f565b61277d565b6040516106379392919061378e565b60405180910390f35b61065a60048036038101906106559190613717565b612955565b60405161066d9796959493929190614280565b60405180910390f35b610690600480360381019061068b9190613c4f565b612ce4565b6040516106a4989796959493929190613cc9565b60405180910390f35b6106c760048036038101906106c29190613c4f565b6130fa565b6040516106d49190613c98565b60405180910390f35b6106f760048036038101906106f291906140ec565b6131c6565b6040516107049190613c98565b60405180910390f35b606060005b60048054905081101561079657600a6004828154811061073557610734614391565b5b906000526020600020906008020160000190806001815401808255809150506001900390600052602060002001600090919091909150908054610777906143ef565b610782929190613420565b50808061078e9061444f565b915050610712565b50600a805480602002602001604051908101604052809291908181526020016000905b828210156108655783829060005260206000200180546107d8906143ef565b80601f0160208091040260200160405190810160405280929190818152602001828054610804906143ef565b80156108515780601f1061082657610100808354040283529160200191610851565b820191906000526020600020905b81548152906001019060200180831161083457829003601f168201915b5050505050815260200190600101906107b9565b50505050905090565b6003818154811061087e57600080fd5b90600052602060002090600302016000915090508060000180546108a1906143ef565b80601f01602080910402602001604051908101604052809291908181526020018280546108cd906143ef565b801561091a5780601f106108ef5761010080835404028352916020019161091a565b820191906000526020600020905b8154815290600101906020018083116108fd57829003601f168201915b50505050509080600101805461092f906143ef565b80601f016020809104026020016040519081016040528092919081815260200182805461095b906143ef565b80156109a85780601f1061097d576101008083540402835291602001916109a8565b820191906000526020600020905b81548152906001019060200180831161098b57829003601f168201915b5050505050908060020180546109bd906143ef565b80601f01602080910402602001604051908101604052809291908181526020018280546109e9906143ef565b8015610a365780601f10610a0b57610100808354040283529160200191610a36565b820191906000526020600020905b815481529060010190602001808311610a1957829003601f168201915b5050505050905083565b80600883604051610a5191906144d3565b90815260200160405180910390206000820151816000019080519060200190610a7b9291906134ad565b506020820151816001019080519060200190610a989291906134ad565b506040820151816002019080519060200190610ab59291906134ad565b509050505050565b80600983604051610ace91906144d3565b90815260200160405180910390206000820151816000019080519060200190610af89291906134ad565b506020820151816001019080519060200190610b159291906134ad565b506040820151816002019080519060200190610b329291906134ad565b506060820151816003019080519060200190610b4f9291906134ad565b506080820151816004019080519060200190610b6c9291906134ad565b5060a0820151816005019080519060200190610b899291906134ad565b5060c0820151816006019080519060200190610ba69291906134ad565b5060e082015181600701559050505050565b6006818051602081018201805184825260208301602085012081835280955050505050506000915090508054610bed906143ef565b80601f0160208091040260200160405190810160405280929190818152602001828054610c19906143ef565b8015610c665780601f10610c3b57610100808354040283529160200191610c66565b820191906000526020600020905b815481529060010190602001808311610c4957829003601f168201915b505050505081565b60048181548110610c7e57600080fd5b9060005260206000209060080201600091509050806000018054610ca1906143ef565b80601f0160208091040260200160405190810160405280929190818152602001828054610ccd906143ef565b8015610d1a5780601f10610cef57610100808354040283529160200191610d1a565b820191906000526020600020905b815481529060010190602001808311610cfd57829003601f168201915b505050505090806001018054610d2f906143ef565b80601f0160208091040260200160405190810160405280929190818152602001828054610d5b906143ef565b8015610da85780601f10610d7d57610100808354040283529160200191610da8565b820191906000526020600020905b815481529060010190602001808311610d8b57829003601f168201915b505050505090806002018054610dbd906143ef565b80601f0160208091040260200160405190810160405280929190818152602001828054610de9906143ef565b8015610e365780601f10610e0b57610100808354040283529160200191610e36565b820191906000526020600020905b815481529060010190602001808311610e1957829003601f168201915b505050505090806003018054610e4b906143ef565b80601f0160208091040260200160405190810160405280929190818152602001828054610e77906143ef565b8015610ec45780601f10610e9957610100808354040283529160200191610ec4565b820191906000526020600020905b815481529060010190602001808311610ea757829003601f168201915b505050505090806004018054610ed9906143ef565b80601f0160208091040260200160405190810160405280929190818152602001828054610f05906143ef565b8015610f525780601f10610f2757610100808354040283529160200191610f52565b820191906000526020600020905b815481529060010190602001808311610f3557829003601f168201915b505050505090806005018054610f67906143ef565b80601f0160208091040260200160405190810160405280929190818152602001828054610f93906143ef565b8015610fe05780601f10610fb557610100808354040283529160200191610fe0565b820191906000526020600020905b815481529060010190602001808311610fc357829003601f168201915b505050505090806006018054610ff5906143ef565b80601f0160208091040260200160405190810160405280929190818152602001828054611021906143ef565b801561106e5780601f106110435761010080835404028352916020019161106e565b820191906000526020600020905b81548152906001019060200180831161105157829003601f168201915b5050505050908060070154905088565b600060078260405161109091906144d3565b908152602001604051809103902060060160009054906101000a900460ff169050919050565b6110c38160a001516119c0565b1580156111955750611194600580546110db906143ef565b80601f0160208091040260200160405190810160405280929190818152602001828054611107906143ef565b80156111545780601f1061112957610100808354040283529160200191611154565b820191906000526020600020905b81548152906001019060200180831161113757829003601f168201915b50505050506040518060400160405280600981526020017f707265566f74696e6700000000000000000000000000000000000000000000008152506126f0565b5b1561129e57600481908060018154018082558091505060019003906000526020600020906008020160009091909190915060008201518160000190805190602001906111e29291906134ad565b5060208201518160010190805190602001906111ff9291906134ad565b50604082015181600201908051906020019061121c9291906134ad565b5060608201518160030190805190602001906112399291906134ad565b5060808201518160040190805190602001906112569291906134ad565b5060a08201518160050190805190602001906112739291906134ad565b5060c08201518160060190805190602001906112909291906134ad565b5060e0820151816007015550505b50565b60608061136d600580546112b4906143ef565b80601f01602080910402602001604051908101604052809291908181526020018280546112e0906143ef565b801561132d5780601f106113025761010080835404028352916020019161132d565b820191906000526020600020905b81548152906001019060200180831161131057829003601f168201915b50505050506040518060400160405280600681526020017f526573756c7400000000000000000000000000000000000000000000000000008152506126f0565b156114495760005b60048054905081101561144757600b6004828154811061139857611397614391565b5b9060005260206000209060080201600001908060018154018082558091505060019003906000526020600020016000909190919091509080546113da906143ef565b6113e5929190613420565b50600c600482815481106113fc576113fb614391565b5b9060005260206000209060080201600701549080600181540180825580915050600190039060005260206000200160009091909190915055808061143f9061444f565b915050611375565b505b600b600c81805480602002602001604051908101604052809291908181526020016000905b8282101561151a57838290600052602060002001805461148d906143ef565b80601f01602080910402602001604051908101604052809291908181526020018280546114b9906143ef565b80156115065780601f106114db57610100808354040283529160200191611506565b820191906000526020600020905b8154815290600101906020018083116114e957829003601f168201915b50505050508152602001906001019061146e565b5050505091508080548060200260200160405190810160405280929190818152602001828054801561156b57602002820191906000526020600020905b815481526020019060010190808311611557575b50505050509050915091509091565b8060078360405161158b91906144d3565b908152602001604051809103902060008201518160000190805190602001906115b59291906134ad565b5060208201518160010190805190602001906115d29291906134ad565b5060408201518160020190805190602001906115ef9291906134ad565b50606082015181600301908051906020019061160c9291906134ad565b5060808201518160040190805190602001906116299291906134ad565b5060a08201518160050190805190602001906116469291906134ad565b5060c08201518160060160006101000a81548160ff021916908315150217905550905050806080015160068260a0015160405161168391906144d3565b908152602001604051809103902090805190602001906116a49291906134ad565b505050565b60006040516020016116ba90614510565b60405160208183030381529060405280519060200120600783608001516040516116e491906144d3565b908152602001604051809103902060000160405160200161170591906145b9565b6040516020818303038152906040528051906020012014611729576001905061172e565b600090505b919050565b600060078360405161174591906144d3565b908152602001604051809103902060060160009054906101000a900460ff16611909576004828154811061177c5761177b614391565b5b9060005260206000209060080201600701600081548092919061179e9061444f565b919050555060016007846040516117b591906144d3565b908152602001604051809103902060060160006101000a81548160ff02191690831515021790555060005b6002805490508110156118ff576118a46002828154811061180457611803614391565b5b90600052602060002090600702016004018054611820906143ef565b80601f016020809104026020016040519081016040528092919081815260200182805461184c906143ef565b80156118995780601f1061186e57610100808354040283529160200191611899565b820191906000526020600020905b81548152906001019060200180831161187c57829003601f168201915b5050505050856126f0565b156118ec576001600282815481106118bf576118be614391565b5b906000526020600020906007020160060160006101000a81548160ff0219169083151502179055506118ff565b80806118f79061444f565b9150506117e0565b506001905061190e565b600090505b92915050565b600a818154811061192457600080fd5b90600052602060002001600091509050805461193f906143ef565b80601f016020809104026020016040519081016040528092919081815260200182805461196b906143ef565b80156119b85780601f1061198d576101008083540402835291602001916119b8565b820191906000526020600020905b81548152906001019060200180831161199b57829003601f168201915b505050505081565b60006040516020016119d190614510565b604051602081830303815290604052805190602001206009836040516119f791906144d3565b9081526020016040518091039020600001604051602001611a1891906145b9565b6040516020818303038152906040528051906020012014611a3c5760019050611a41565b600090505b919050565b6000600380549050905090565b611a608160400151612298565b158015611b335750611b3160058054611a78906143ef565b80601f0160208091040260200160405190810160405280929190818152602001828054611aa4906143ef565b8015611af15780601f10611ac657610100808354040283529160200191611af1565b820191906000526020600020905b815481529060010190602001808311611ad457829003601f168201915b50505050506040518060400160405280600681526020017f526573756c7400000000000000000000000000000000000000000000000000008152506126f0565b155b15611bcc5760038190806001815401808255809150506001900390600052602060002090600302016000909190919091506000820151816000019080519060200190611b809291906134ad565b506020820151816001019080519060200190611b9d9291906134ad565b506040820151816002019080519060200190611bba9291906134ad565b505050611bcb816040015182610a40565b5b50565b600b8181548110611bdf57600080fd5b906000526020600020016000915090508054611bfa906143ef565b80601f0160208091040260200160405190810160405280929190818152602001828054611c26906143ef565b8015611c735780601f10611c4857610100808354040283529160200191611c73565b820191906000526020600020905b815481529060010190602001808311611c5657829003601f168201915b505050505081565b6000600280549050905090565b6000611d3d600785604051611c9d91906144d3565b90815260200160405180910390206005018054611cb9906143ef565b80601f0160208091040260200160405190810160405280929190818152602001828054611ce5906143ef565b8015611d325780601f10611d0757610100808354040283529160200191611d32565b820191906000526020600020905b815481529060010190602001808311611d1557829003601f168201915b5050505050846126f0565b15611f1f57600784604051611d5291906144d3565b908152602001604051809103902060060160009054906101000a900460ff16611f165760048281548110611d8957611d88614391565b5b90600052602060002090600802016007016000815480929190611dab9061444f565b91905055506001600785604051611dc291906144d3565b908152602001604051809103902060060160006101000a81548160ff02191690831515021790555060005b600280549050811015611f0c57611eb160028281548110611e1157611e10614391565b5b90600052602060002090600702016004018054611e2d906143ef565b80601f0160208091040260200160405190810160405280929190818152602001828054611e59906143ef565b8015611ea65780601f10611e7b57610100808354040283529160200191611ea6565b820191906000526020600020905b815481529060010190602001808311611e8957829003601f168201915b5050505050866126f0565b15611ef957600160028281548110611ecc57611ecb614391565b5b906000526020600020906007020160060160006101000a81548160ff021916908315150217905550611f0c565b8080611f049061444f565b915050611ded565b5060019050611f24565b60009050611f24565b600090505b9392505050565b600d806000018054611f3c906143ef565b80601f0160208091040260200160405190810160405280929190818152602001828054611f68906143ef565b8015611fb55780601f10611f8a57610100808354040283529160200191611fb5565b820191906000526020600020905b815481529060010190602001808311611f9857829003601f168201915b505050505090806001018054611fca906143ef565b80601f0160208091040260200160405190810160405280929190818152602001828054611ff6906143ef565b80156120435780601f1061201857610100808354040283529160200191612043565b820191906000526020600020905b81548152906001019060200180831161202657829003601f168201915b505050505090806002018054612058906143ef565b80601f0160208091040260200160405190810160405280929190818152602001828054612084906143ef565b80156120d15780601f106120a6576101008083540402835291602001916120d1565b820191906000526020600020905b8154815290600101906020018083116120b457829003601f168201915b5050505050908060030180546120e6906143ef565b80601f0160208091040260200160405190810160405280929190818152602001828054612112906143ef565b801561215f5780601f106121345761010080835404028352916020019161215f565b820191906000526020600020905b81548152906001019060200180831161214257829003601f168201915b505050505090806004018054612174906143ef565b80601f01602080910402602001604051908101604052809291908181526020018280546121a0906143ef565b80156121ed5780601f106121c2576101008083540402835291602001916121ed565b820191906000526020600020905b8154815290600101906020018083116121d057829003601f168201915b505050505090806005018054612202906143ef565b80601f016020809104026020016040519081016040528092919081815260200182805461222e906143ef565b801561227b5780601f106122505761010080835404028352916020019161227b565b820191906000526020600020905b81548152906001019060200180831161225e57829003601f168201915b5050505050908060060160009054906101000a900460ff16905087565b60006040516020016122a990614510565b604051602081830303815290604052805190602001206008836040516122cf91906144d3565b90815260200160405180910390206000016040516020016122f091906145b9565b60405160208183030381529060405280519060200120146123145760019050612319565b600090505b919050565b600061232982612298565b15612337576001905061233c565b600090505b919050565b80600190805190602001906123579291906134ad565b5050565b600781805160208101820180518482526020830160208501208183528095505050505050600091509050806000018054612394906143ef565b80601f01602080910402602001604051908101604052809291908181526020018280546123c0906143ef565b801561240d5780601f106123e25761010080835404028352916020019161240d565b820191906000526020600020905b8154815290600101906020018083116123f057829003601f168201915b505050505090806001018054612422906143ef565b80601f016020809104026020016040519081016040528092919081815260200182805461244e906143ef565b801561249b5780601f106124705761010080835404028352916020019161249b565b820191906000526020600020905b81548152906001019060200180831161247e57829003601f168201915b5050505050908060020180546124b0906143ef565b80601f01602080910402602001604051908101604052809291908181526020018280546124dc906143ef565b80156125295780601f106124fe57610100808354040283529160200191612529565b820191906000526020600020905b81548152906001019060200180831161250c57829003601f168201915b50505050509080600301805461253e906143ef565b80601f016020809104026020016040519081016040528092919081815260200182805461256a906143ef565b80156125b75780601f1061258c576101008083540402835291602001916125b7565b820191906000526020600020905b81548152906001019060200180831161259a57829003601f168201915b5050505050908060040180546125cc906143ef565b80601f01602080910402602001604051908101604052809291908181526020018280546125f8906143ef565b80156126455780601f1061261a57610100808354040283529160200191612645565b820191906000526020600020905b81548152906001019060200180831161262857829003601f168201915b50505050509080600501805461265a906143ef565b80601f0160208091040260200160405190810160405280929190818152602001828054612686906143ef565b80156126d35780601f106126a8576101008083540402835291602001916126d3565b820191906000526020600020905b8154815290600101906020018083116126b657829003601f168201915b5050505050908060060160009054906101000a900460ff16905087565b60008160405160200161270391906144d3565b604051602081830303815290604052805190602001208360405160200161272a91906144d3565b604051602081830303815290604052805190602001200361274e5760019050612753565b600090505b92915050565b600c818154811061276957600080fd5b906000526020600020016000915090505481565b6008818051602081018201805184825260208301602085012081835280955050505050506000915090508060000180546127b6906143ef565b80601f01602080910402602001604051908101604052809291908181526020018280546127e2906143ef565b801561282f5780601f106128045761010080835404028352916020019161282f565b820191906000526020600020905b81548152906001019060200180831161281257829003601f168201915b505050505090806001018054612844906143ef565b80601f0160208091040260200160405190810160405280929190818152602001828054612870906143ef565b80156128bd5780601f10612892576101008083540402835291602001916128bd565b820191906000526020600020905b8154815290600101906020018083116128a057829003601f168201915b5050505050908060020180546128d2906143ef565b80601f01602080910402602001604051908101604052809291908181526020018280546128fe906143ef565b801561294b5780601f106129205761010080835404028352916020019161294b565b820191906000526020600020905b81548152906001019060200180831161292e57829003601f168201915b5050505050905083565b6002818154811061296557600080fd5b9060005260206000209060070201600091509050806000018054612988906143ef565b80601f01602080910402602001604051908101604052809291908181526020018280546129b4906143ef565b8015612a015780601f106129d657610100808354040283529160200191612a01565b820191906000526020600020905b8154815290600101906020018083116129e457829003601f168201915b505050505090806001018054612a16906143ef565b80601f0160208091040260200160405190810160405280929190818152602001828054612a42906143ef565b8015612a8f5780601f10612a6457610100808354040283529160200191612a8f565b820191906000526020600020905b815481529060010190602001808311612a7257829003601f168201915b505050505090806002018054612aa4906143ef565b80601f0160208091040260200160405190810160405280929190818152602001828054612ad0906143ef565b8015612b1d5780601f10612af257610100808354040283529160200191612b1d565b820191906000526020600020905b815481529060010190602001808311612b0057829003601f168201915b505050505090806003018054612b32906143ef565b80601f0160208091040260200160405190810160405280929190818152602001828054612b5e906143ef565b8015612bab5780601f10612b8057610100808354040283529160200191612bab565b820191906000526020600020905b815481529060010190602001808311612b8e57829003601f168201915b505050505090806004018054612bc0906143ef565b80601f0160208091040260200160405190810160405280929190818152602001828054612bec906143ef565b8015612c395780601f10612c0e57610100808354040283529160200191612c39565b820191906000526020600020905b815481529060010190602001808311612c1c57829003601f168201915b505050505090806005018054612c4e906143ef565b80601f0160208091040260200160405190810160405280929190818152602001828054612c7a906143ef565b8015612cc75780601f10612c9c57610100808354040283529160200191612cc7565b820191906000526020600020905b815481529060010190602001808311612caa57829003601f168201915b5050505050908060060160009054906101000a900460ff16905087565b600981805160208101820180518482526020830160208501208183528095505050505050600091509050806000018054612d1d906143ef565b80601f0160208091040260200160405190810160405280929190818152602001828054612d49906143ef565b8015612d965780601f10612d6b57610100808354040283529160200191612d96565b820191906000526020600020905b815481529060010190602001808311612d7957829003601f168201915b505050505090806001018054612dab906143ef565b80601f0160208091040260200160405190810160405280929190818152602001828054612dd7906143ef565b8015612e245780601f10612df957610100808354040283529160200191612e24565b820191906000526020600020905b815481529060010190602001808311612e0757829003601f168201915b505050505090806002018054612e39906143ef565b80601f0160208091040260200160405190810160405280929190818152602001828054612e65906143ef565b8015612eb25780601f10612e8757610100808354040283529160200191612eb2565b820191906000526020600020905b815481529060010190602001808311612e9557829003601f168201915b505050505090806003018054612ec7906143ef565b80601f0160208091040260200160405190810160405280929190818152602001828054612ef3906143ef565b8015612f405780601f10612f1557610100808354040283529160200191612f40565b820191906000526020600020905b815481529060010190602001808311612f2357829003601f168201915b505050505090806004018054612f55906143ef565b80601f0160208091040260200160405190810160405280929190818152602001828054612f81906143ef565b8015612fce5780601f10612fa357610100808354040283529160200191612fce565b820191906000526020600020905b815481529060010190602001808311612fb157829003601f168201915b505050505090806005018054612fe3906143ef565b80601f016020809104026020016040519081016040528092919081815260200182805461300f906143ef565b801561305c5780601f106130315761010080835404028352916020019161305c565b820191906000526020600020905b81548152906001019060200180831161303f57829003601f168201915b505050505090806006018054613071906143ef565b80601f016020809104026020016040519081016040528092919081815260200182805461309d906143ef565b80156130ea5780601f106130bf576101008083540402835291602001916130ea565b820191906000526020600020905b8154815290600101906020018083116130cd57829003601f168201915b5050505050908060070154905088565b606060068260405161310c91906144d3565b90815260200160405180910390206001908054613128906143ef565b613133929190613420565b5060018054613141906143ef565b80601f016020809104026020016040519081016040528092919081815260200182805461316d906143ef565b80156131ba5780601f1061318f576101008083540402835291602001916131ba565b820191906000526020600020905b81548152906001019060200180831161319d57829003601f168201915b50505050509050919050565b60606131d1826116a9565b1580156132a457506132a2600580546131e9906143ef565b80601f0160208091040260200160405190810160405280929190818152602001828054613215906143ef565b80156132625780601f1061323757610100808354040283529160200191613262565b820191906000526020600020905b81548152906001019060200180831161324557829003601f168201915b50505050506040518060400160405280600681526020017f526573756c7400000000000000000000000000000000000000000000000000008152506126f0565b155b156133e257600282908060018154018082558091505060019003906000526020600020906007020160009091909190915060008201518160000190805190602001906132f19291906134ad565b50602082015181600101908051906020019061330e9291906134ad565b50604082015181600201908051906020019061332b9291906134ad565b5060608201518160030190805190602001906133489291906134ad565b5060808201518160040190805190602001906133659291906134ad565b5060a08201518160050190805190602001906133829291906134ad565b5060c08201518160060160006101000a81548160ff02191690831515021790555050506040518060400160405280600a81526020017f7573657220616464656400000000000000000000000000000000000000000000815250905061341b565b6040518060400160405280601381526020017f7573657220616c7265616479206578697374730000000000000000000000000081525090505b919050565b82805461342c906143ef565b90600052602060002090601f01602090048101928261344e576000855561349c565b82601f1061345f578054855561349c565b8280016001018555821561349c57600052602060002091601f016020900482015b8281111561349b578254825591600101919060010190613480565b5b5090506134a99190613533565b5090565b8280546134b9906143ef565b90600052602060002090601f0160209004810192826134db5760008555613522565b82601f106134f457805160ff1916838001178555613522565b82800160010185558215613522579182015b82811115613521578251825591602001919060010190613506565b5b50905061352f9190613533565b5090565b5b8082111561354c576000816000905550600101613534565b5090565b600081519050919050565b600082825260208201905092915050565b6000819050602082019050919050565b600081519050919050565b600082825260208201905092915050565b60005b838110156135b657808201518184015260208101905061359b565b838111156135c5576000848401525b50505050565b6000601f19601f8301169050919050565b60006135e78261357c565b6135f18185613587565b9350613601818560208601613598565b61360a816135cb565b840191505092915050565b600061362183836135dc565b905092915050565b6000602082019050919050565b600061364182613550565b61364b818561355b565b93508360208202850161365d8561356c565b8060005b85811015613699578484038952815161367a8582613615565b945061368583613629565b925060208a01995050600181019050613661565b50829750879550505050505092915050565b600060208201905081810360008301526136c58184613636565b905092915050565b6000604051905090565b600080fd5b600080fd5b6000819050919050565b6136f4816136e1565b81146136ff57600080fd5b50565b600081359050613711816136eb565b92915050565b60006020828403121561372d5761372c6136d7565b5b600061373b84828501613702565b91505092915050565b600082825260208201905092915050565b60006137608261357c565b61376a8185613744565b935061377a818560208601613598565b613783816135cb565b840191505092915050565b600060608201905081810360008301526137a88186613755565b905081810360208301526137bc8185613755565b905081810360408301526137d08184613755565b9050949350505050565b600080fd5b600080fd5b7f4e487b7100000000000000000000000000000000000000000000000000000000600052604160045260246000fd5b61381c826135cb565b810181811067ffffffffffffffff8211171561383b5761383a6137e4565b5b80604052505050565b600061384e6136cd565b905061385a8282613813565b919050565b600067ffffffffffffffff82111561387a576138796137e4565b5b613883826135cb565b9050602081019050919050565b82818337600083830152505050565b60006138b26138ad8461385f565b613844565b9050828152602081018484840111156138ce576138cd6137df565b5b6138d9848285613890565b509392505050565b600082601f8301126138f6576138f56137da565b5b813561390684826020860161389f565b91505092915050565b600080fd5b600080fd5b60006060828403121561392f5761392e61390f565b5b6139396060613844565b9050600082013567ffffffffffffffff81111561395957613958613914565b5b613965848285016138e1565b600083015250602082013567ffffffffffffffff81111561398957613988613914565b5b613995848285016138e1565b602083015250604082013567ffffffffffffffff8111156139b9576139b8613914565b5b6139c5848285016138e1565b60408301525092915050565b600080604083850312156139e8576139e76136d7565b5b600083013567ffffffffffffffff811115613a0657613a056136dc565b5b613a12858286016138e1565b925050602083013567ffffffffffffffff811115613a3357613a326136dc565b5b613a3f85828601613919565b9150509250929050565b60006101008284031215613a6057613a5f61390f565b5b613a6b610100613844565b9050600082013567ffffffffffffffff811115613a8b57613a8a613914565b5b613a97848285016138e1565b600083015250602082013567ffffffffffffffff811115613abb57613aba613914565b5b613ac7848285016138e1565b602083015250604082013567ffffffffffffffff811115613aeb57613aea613914565b5b613af7848285016138e1565b604083015250606082013567ffffffffffffffff811115613b1b57613b1a613914565b5b613b27848285016138e1565b606083015250608082013567ffffffffffffffff811115613b4b57613b4a613914565b5b613b57848285016138e1565b60808301525060a082013567ffffffffffffffff811115613b7b57613b7a613914565b5b613b87848285016138e1565b60a08301525060c082013567ffffffffffffffff811115613bab57613baa613914565b5b613bb7848285016138e1565b60c08301525060e0613bcb84828501613702565b60e08301525092915050565b60008060408385031215613bee57613bed6136d7565b5b600083013567ffffffffffffffff811115613c0c57613c0b6136dc565b5b613c18858286016138e1565b925050602083013567ffffffffffffffff811115613c3957613c386136dc565b5b613c4585828601613a49565b9150509250929050565b600060208284031215613c6557613c646136d7565b5b600082013567ffffffffffffffff811115613c8357613c826136dc565b5b613c8f848285016138e1565b91505092915050565b60006020820190508181036000830152613cb28184613755565b905092915050565b613cc3816136e1565b82525050565b6000610100820190508181036000830152613ce4818b613755565b90508181036020830152613cf8818a613755565b90508181036040830152613d0c8189613755565b90508181036060830152613d208188613755565b90508181036080830152613d348187613755565b905081810360a0830152613d488186613755565b905081810360c0830152613d5c8185613755565b9050613d6b60e0830184613cba565b9998505050505050505050565b60008115159050919050565b613d8d81613d78565b82525050565b6000602082019050613da86000830184613d84565b92915050565b600060208284031215613dc457613dc36136d7565b5b600082013567ffffffffffffffff811115613de257613de16136dc565b5b613dee84828501613a49565b91505092915050565b600081519050919050565b600082825260208201905092915050565b6000819050602082019050919050565b613e2c816136e1565b82525050565b6000613e3e8383613e23565b60208301905092915050565b6000602082019050919050565b6000613e6282613df7565b613e6c8185613e02565b9350613e7783613e13565b8060005b83811015613ea8578151613e8f8882613e32565b9750613e9a83613e4a565b925050600181019050613e7b565b5085935050505092915050565b60006040820190508181036000830152613ecf8185613636565b90508181036020830152613ee38184613e57565b90509392505050565b613ef581613d78565b8114613f0057600080fd5b50565b600081359050613f1281613eec565b92915050565b600060e08284031215613f2e57613f2d61390f565b5b613f3860e0613844565b9050600082013567ffffffffffffffff811115613f5857613f57613914565b5b613f64848285016138e1565b600083015250602082013567ffffffffffffffff811115613f8857613f87613914565b5b613f94848285016138e1565b602083015250604082013567ffffffffffffffff811115613fb857613fb7613914565b5b613fc4848285016138e1565b604083015250606082013567ffffffffffffffff811115613fe857613fe7613914565b5b613ff4848285016138e1565b606083015250608082013567ffffffffffffffff81111561401857614017613914565b5b614024848285016138e1565b60808301525060a082013567ffffffffffffffff81111561404857614047613914565b5b614054848285016138e1565b60a08301525060c061406884828501613f03565b60c08301525092915050565b6000806040838503121561408b5761408a6136d7565b5b600083013567ffffffffffffffff8111156140a9576140a86136dc565b5b6140b5858286016138e1565b925050602083013567ffffffffffffffff8111156140d6576140d56136dc565b5b6140e285828601613f18565b9150509250929050565b600060208284031215614102576141016136d7565b5b600082013567ffffffffffffffff8111156141205761411f6136dc565b5b61412c84828501613f18565b91505092915050565b6000806040838503121561414c5761414b6136d7565b5b600083013567ffffffffffffffff81111561416a576141696136dc565b5b614176858286016138e1565b925050602061418785828601613702565b9150509250929050565b60006020820190506141a66000830184613cba565b92915050565b6000602082840312156141c2576141c16136d7565b5b600082013567ffffffffffffffff8111156141e0576141df6136dc565b5b6141ec84828501613919565b91505092915050565b60008060006060848603121561420e5761420d6136d7565b5b600084013567ffffffffffffffff81111561422c5761422b6136dc565b5b614238868287016138e1565b935050602084013567ffffffffffffffff811115614259576142586136dc565b5b614265868287016138e1565b925050604061427686828701613702565b9150509250925092565b600060e082019050818103600083015261429a818a613755565b905081810360208301526142ae8189613755565b905081810360408301526142c28188613755565b905081810360608301526142d68187613755565b905081810360808301526142ea8186613755565b905081810360a08301526142fe8185613755565b905061430d60c0830184613d84565b98975050505050505050565b600080604083850312156143305761432f6136d7565b5b600083013567ffffffffffffffff81111561434e5761434d6136dc565b5b61435a858286016138e1565b925050602083013567ffffffffffffffff81111561437b5761437a6136dc565b5b614387858286016138e1565b9150509250929050565b7f4e487b7100000000000000000000000000000000000000000000000000000000600052603260045260246000fd5b7f4e487b7100000000000000000000000000000000000000000000000000000000600052602260045260246000fd5b6000600282049050600182168061440757607f821691505b60208210810361441a576144196143c0565b5b50919050565b7f4e487b7100000000000000000000000000000000000000000000000000000000600052601160045260246000fd5b600061445a826136e1565b91507fffffffffffffffffffffffffffffffffffffffffffffffffffffffffffffffff820361448c5761448b614420565b5b600182019050919050565b600081905092915050565b60006144ad8261357c565b6144b78185614497565b93506144c7818560208601613598565b80840191505092915050565b60006144df82846144a2565b915081905092915050565b50565b60006144fa600083614497565b9150614505826144ea565b600082019050919050565b600061451b826144ed565b9150819050919050565b60008190508160005260206000209050919050565b60008154614547816143ef565b6145518186614497565b9450600182166000811461456c576001811461457d576145b0565b60ff198316865281860193506145b0565b61458685614525565b60005b838110156145a857815481890152600182019150602081019050614589565b838801955050505b50505092915050565b60006145c5828461453a565b91508190509291505056fea2646970667358221220a1f97888429ed0272ecb5ba698512794dade0a6866456b2dcb675c1a331c6f6364736f6c634300080d0033",
  "immutableReferences": {},
  "source": "// SPDX-License-Identifier: MIT\r\npragma solidity ^0.8.10;\r\npragma experimental ABIEncoderV2;\r\n\r\nstruct Admin {\r\n    string name;\r\n    string mobileNo;\r\n    string walletKey;\r\n}\r\n\r\nstruct ECI {\r\n    string name;\r\n    string mobileNo;\r\n    string walletKey;\r\n}\r\n\r\nstruct Voter {\r\n    string name;\r\n    string mobileNo;\r\n    string homeAddress;\r\n    string aadharCardNo;\r\n    string voterId;\r\n    string walletKey;\r\n    bool isVoted;\r\n}\r\n\r\nstruct Candidate {\r\n    string name;\r\n    string mobileNo;\r\n    string homeAddress;\r\n    string aadharCardNo;\r\n    string voterId;\r\n    string walletKey;\r\n    string politicalParty;\r\n    uint256 votes;\r\n}\r\n\r\ncontract BlockVote {\r\n    uint transactionHelper = 0;\r\n    string voterId_main=\"\";\r\n    Voter[] public voters;\r\n    Admin[] public admins;\r\n    Candidate[] public candidates;\r\n    string votingPhase = \"preVoting\"; // Voting, Result\r\n\r\n    function areStringsEqual(string memory s1, string memory s2) public pure returns(bool){\r\n        if(keccak256(abi.encodePacked(s1)) == keccak256(abi.encodePacked((s2)))) return true;\r\n        else return false;\r\n    }\r\n    \r\n    // walletKey : voterId\r\n    mapping(string=>string) public map_walletKey_voterid;\r\n\r\n    // voterid : Voter;\r\n    mapping(string=>Voter) public map_voterid_details;\r\n    function setMapVoterDetails(string memory _voterid, Voter memory v) public {\r\n        map_voterid_details[_voterid] = v;\r\n        map_walletKey_voterid[v.walletKey] = v.voterId;\r\n    }\r\n\r\n    function hasVoted(string memory _voterid) public view returns(bool){\r\n        return map_voterid_details[_voterid].isVoted;\r\n    }\r\n\r\n    // Voter ////////////////////////////////////////// \r\n    function isVoterRegistered(Voter memory item) public view returns(bool) {\r\n        if(keccak256(abi.encodePacked((map_voterid_details[item.voterId].name))) != keccak256(abi.encodePacked((\"\")))) return true;\r\n        else return false;\r\n    }\r\n    function addVoter(Voter memory item) public returns(string memory) {\r\n        if(!isVoterRegistered(item) && !areStringsEqual(votingPhase,\"Result\")) {\r\n            voters.push(item);\r\n            return \"user added\";\r\n        }\r\n        else return \"user already exists\";\r\n            \r\n    }\r\n\r\n    function getVoterId(string memory _walletKey) public returns(string memory) {\r\n        voterId_main = map_walletKey_voterid[_walletKey];\r\n        return voterId_main;\r\n    }\r\n\r\n    function setVoterId(string memory _voterid) public {\r\n        voterId_main = _voterid;\r\n    }\r\n\r\n    function voterLength() public view returns(uint) {\r\n        return voters.length;\r\n    }\r\n    /////////////////////////////////////////////////\r\n\r\n    // Admin /////////////////////////////////////////\r\n    \r\n    function addAdmin(Admin memory item) public {\r\n        if(!isAdminRegistered(item.walletKey) && !areStringsEqual(votingPhase,\"Result\")){\r\n            admins.push(item);\r\n            addToAdminsMap(item.walletKey, item);\r\n        }\r\n    }\r\n\r\n    mapping(string=>Admin) public adminsMap;\r\n    function addToAdminsMap(string memory walletKey, Admin memory a) public {\r\n        adminsMap[walletKey] = a;\r\n    }\r\n\r\n    function isAdminRegistered(string memory _walletKey) public view returns(bool){\r\n        if(keccak256(abi.encodePacked((adminsMap[_walletKey].name))) != keccak256(abi.encodePacked((\"\")))) return true;\r\n        else return false;\r\n    }\r\n\r\n    function authenticateAdmin(string memory _walletKey) public view returns(bool){\r\n        if(isAdminRegistered(_walletKey)) return true;\r\n        else return false;\r\n    }\r\n\r\n    function adminLength() public view returns(uint) {\r\n        return admins.length;\r\n    }\r\n    ////////////////////////////////////////////////////\r\n\r\n\r\n    // Candidate ///////////////////////////////////////\r\n\r\n    function isCandidateRegistered(string memory _walletKey) public view returns(bool){\r\n        if(keccak256(abi.encodePacked((candidatesMap[_walletKey].name))) != keccak256(abi.encodePacked((\"\")))) return true;\r\n        else return false;\r\n    }\r\n\r\n    function addCandidate(Candidate memory item) public {\r\n        if(!isCandidateRegistered(item.walletKey) && areStringsEqual(votingPhase,\"preVoting\"))\r\n            candidates.push(item);\r\n    }\r\n\r\n    mapping(string=>Candidate) public candidatesMap;\r\n    function addToCandidatesMap(string memory walletKey, Candidate memory c) public {\r\n        candidatesMap[walletKey] = c;\r\n    }\r\n    string[] public candidate_names;\r\n    function getCandidates() public returns(string[] memory) {\r\n        for(uint256 i=0;i<candidates.length;i++) {\r\n        candidate_names.push(candidates[i].name);\r\n        }\r\n        return candidate_names;\r\n    }\r\n\r\n    ////////////////////////////////////////////////////\r\n\r\n\r\n    // Results ////////////////////////////////////////////////////////\r\n    /* returns (candidates, votes), receives object with 2 keys (0 : candidates array, 1 : votes array)\r\n    */\r\n    string[] public _candidates;\r\n    uint256[] public _votes;\r\n    function getResults() public returns(string[] memory, uint256[] memory) {\r\n        if(areStringsEqual(votingPhase, \"Result\")){\r\n            for(uint256 i=0;i<candidates.length;i++) {\r\n                _candidates.push(candidates[i].name);\r\n                _votes.push(candidates[i].votes);\r\n            }    \r\n        }\r\n        return (_candidates, _votes);\r\n    }\r\n    ////////////////////////////////////////////////////////////////////\r\n    // Vote /////////////////////////////////////////////////////////////\r\n    function vote(string memory _voterId, string memory _walletKey, uint256 choice) public returns(bool) {\r\n        if(areStringsEqual(map_voterid_details[_voterId].walletKey, _walletKey)) {\r\n            if(!map_voterid_details[_voterId].isVoted) {\r\n                candidates[choice].votes++;\r\n                map_voterid_details[_voterId].isVoted = true;\r\n                for(uint256 i=0;i<voters.length;i++) {\r\n                    if(areStringsEqual(voters[i].voterId, _voterId)){\r\n                        voters[i].isVoted = true;\r\n                        break;\r\n                    }\r\n                }\r\n                return true;\r\n            }\r\n            return false;\r\n        }\r\n        return false;\r\n    }\r\n\r\n    function voteThroughAdmin(string memory _voterId, uint256 choice) public returns(bool) {\r\n        if(!map_voterid_details[_voterId].isVoted) {\r\n            candidates[choice].votes++;\r\n            map_voterid_details[_voterId].isVoted = true;\r\n            for(uint256 i=0;i<voters.length;i++) {\r\n                if(areStringsEqual(voters[i].voterId, _voterId)){\r\n                    voters[i].isVoted = true;\r\n                    break;\r\n                }\r\n            }\r\n            return true;\r\n        }\r\n        return false;\r\n    }\r\n\r\n    /////////////////////////////////////////////////////////////////////\r\n}\r\n\r\ncontract AdminCon is BlockVote{\r\n    Admin public a;\r\n\r\n    constructor(string memory _name, string memory _mobileNo, string memory  _walletKey) {\r\n        a.name = _name;\r\n        a.mobileNo = _mobileNo;\r\n        a.walletKey = _walletKey;\r\n        // addAdmin(a);\r\n        // addToAdminsMap(_walletKey,a);\r\n    }\r\n\r\n}\r\n\r\ncontract ECICon is BlockVote {\r\n    Admin public e;\r\n\r\n    constructor() {\r\n        e.name = \"ECI\";\r\n        e.mobileNo = \"9876543210\";\r\n        e.walletKey = \"0x0fd90aA56caF2Bdf9Ea57836e24799f49361F15f\";\r\n    }\r\n\r\n    function getECI() public view returns(string memory) {\r\n       return e.walletKey;\r\n    }\r\n\r\n    function authenticateECI(string memory _walletKey) public pure returns(bool) {\r\n        if(areStringsEqual(_walletKey, \"0x0fd90aA56caF2Bdf9Ea57836e24799f49361F15f\")) return true;\r\n        else return false;\r\n    }\r\n\r\n    function setAdmin(string memory _name, string memory _mobileNo, string memory _walletKey) public {\r\n        Admin memory newAdmin = Admin({\r\n            name:_name, \r\n            mobileNo:_mobileNo,\r\n            walletKey:_walletKey\r\n        });\r\n        addAdmin(newAdmin);\r\n\r\n    }\r\n\r\n    function startVoting() public {\r\n        votingPhase = \"Voting\";\r\n    }\r\n\r\n    function endVoting() public {\r\n        votingPhase = \"Result\";\r\n    }\r\n}\r\n\r\ncontract VoterCon is BlockVote {\r\n    Voter public v;\r\n    \r\n    constructor(string memory _name, string memory _mobileNo, string memory _homeAddress,\r\n     string memory _aadharCardNo, string memory _voterId, string memory _walletKey) {\r\n        v.name = _name;\r\n        v.mobileNo = _mobileNo;\r\n        v.homeAddress = _homeAddress;\r\n        v.aadharCardNo = _aadharCardNo;\r\n        v.voterId = _voterId;\r\n        v.walletKey = _walletKey;\r\n        v.isVoted = false;\r\n        addVoter(v);\r\n        setMapVoterDetails(_voterId, v);\r\n     }\r\n}\r\n\r\ncontract CandidateCon is BlockVote {\r\n    Candidate public c;\r\n\r\n    constructor(string memory _name, string memory _mobileNo, string memory _homeAddress,\r\n     string memory _aadharCardNo, string memory _voterId, string memory _walletKey, string memory _politicalParty) {\r\n        c.name = _name;\r\n        c.mobileNo = _mobileNo;\r\n        c.homeAddress = _homeAddress;\r\n        c.aadharCardNo = _aadharCardNo;\r\n        c.voterId = _voterId;\r\n        c.walletKey = _walletKey;\r\n        c.politicalParty = _politicalParty;\r\n        c.votes = 0;\r\n        addCandidate(c);\r\n        addToCandidatesMap(_walletKey, c);\r\n    }\r\n}\r\n",
  "sourcePath": "D:\\Blockchain-Projects\\BlockVote\\contracts\\BlockVote - Copy.sol",
  "compiler": {
    "name": "solc",
    "version": "0.8.13+commit.abaa5c0e.Emscripten.clang"
  },
  "schemaVersion": "3.4.4",
  "updatedAt": "2022-04-10T08:47:37.725Z",
  "devdoc": {
    "kind": "dev",
    "methods": {},
    "version": 1
  },
  "userdoc": {
    "kind": "user",
    "methods": {},
    "version": 1
  }
}